:4000000000800020110000009D0000009D00000080B500AF064B064A126842F020021A60044B054A12681A6000F004FB00F03AF8E8460040BC760040FA46004010B5054CEF
:40004000237833B9044B13B10448AFF300800123237010BD2881FF1F00000000901D000008B5064B1BB106480649AFF300800648036813B1054B03B1984708BD00000000C2
:40008000901D00002C81FF1F0881FF1F0000000080B500AF00F078FAFEE700BF80B400AFFEE700BF80B586B000AF224B7B61224B3B61204B7B6135E03B691B68FB603B69C2
:4000C0005B68BB603B699B683B6000237B600CE0FB681A68BB681A60BB680433BB60FB680433FB607B6804337B607A683B689A42EED13B69DB683B6000237B6008E0BB686A
:4001000000221A60BB680433BB607B6804337B607A683B689A42F2D13B6910333B617B69013B7B617B69002BC6D101F0F5FDFFF7AFFFFEE701000000A021000080B582B0DB
:4001400000AF174B174A1A60174B174A126842F400721A6000237B600FE07B68032B04D8124B7A6853F8223000E0114B114A796842F821307B6801337B607B682F2BECD987
:400180000D4B1B78DAB20D4B1A700D4B094A1A6000F026F90B4B00221A600837BD4680BD0CED00E00004FA0514ED00E0000000009D0000000080FF1FBC7600400481FF1F34
:4001C00008ED00E00081FF1F80B582B000AF78603960786800213A6801F0CDFD0837BD4680BD00BF80B584B000AFF860B9607A60F868B9687A6801F0B5FD1037BD4680BD78
:4002000080B584B000AFF860B9607A60F868B9687A6801F0A7FD1037BD4680BD80B483B000AF0346FB71FEE780B487B000AF7860396000233B6100237B6126E07B699B005E
:400240007A6813441B68BB60BB68FB73BB6823F0FF03BB6013E03B695B003A6813441B781A46BB6813443A69520039680A4452781A703B6901333B61FB7B013BFB73FB7B29
:40028000002BE8D17B6901337B617B69102BD5D91C37BD465DF8047B704700BF80B582B000AF304B19221A802F4B18221A702F4B02221A704FF0402308221A702C4B03223B
:4002C0001A702C4B2C4A1278D2B21A702B4B08221A802B4B41F251221A800023FB7019237B6014E0FB785B00DAB2264B1B78DBB203F00103DBB21343DBB203F00303FB70B0
:400300004FF4F07000F00CFF7B68013B7B607B68002B02D0FB78032BE4D17B68002B02D10320FFF77BFF184B4FF480721A80164B07221A70154B00221A70154B48221A70D5
:40034000114B00221A70134B02221A70124B124A1278D2B242F00102D2B21A700837BD4680BD00BF80400040824000400043004000420040A14600400801004922420040FD
:40038000204200402542004004400040064000400840004001400040A243004080B483B000AF0B4B1B78FB710A4BFA7902F00702D2B21A70084BFA791209D2B21A70074B3F
:4003C00044221A700C37BD465DF8047B704700BFCF0100496E5800406F5800407658004080B582B000AF72B6334B334A1278D2B242F02402D2B21A700023FB7113E0FA79A7
:4004000013465B0013445B002C4A13443B603B681A683B689B889BB210461946FFF7D4FEFB790133FB71FB79072BE8D924482549FFF7FAFE244B244A1278D2B242F00202D5
:40044000D2B21A70214B214A1278D2B242F00202D2B21A701E4B1E4A1278D2B242F04002D2B21A701B4B1B4A1278D2B242F01002D2B21A70184819490A22FFF7C1FE184BB3
:40048000174A1278D2B242F00802D2B21A70154B01221A70FFF702FF124B81221A70124B01221A70FFF77AFF104809490E22FFF799FE0837BD4680BDE8460040941D000077
:4004C000C41D0000081E00000350014013500140A0430040C24300406051004068210000224300400048004004000840B043004080B485B000AF78600B467B800023FB8154
:400500000BE07B88013B7A6813441B781A46FB891344FB817B88013B7B807B88002BF0D1FB895B429BB218461437BD465DF8047B704700BF80B586B000AFF860B9607A601C
:400540000023FB75FA680F4B9A4206D0FB68002B03D0002000F070FF0CE00BE07B68013B7B60FA68BB681A447B6813441A78FB7D1344FB757B68002BF0D1FB7D18461837E7
:40058000BD4680BD0080004080B582B000AF06237B60002000F06EF80346002B01D100237B601C4B1B681B68002000211A46FFF7C1FF0346FB70184B1B681B78FA78D31A17
:4005C000FB70FB785B42FB70134B1B681B78FA789A4204D10F4B1B681B68002B02D1002000F02AFF0D4B1B78DBB203F0C003402B02D07B68002B05D0084B00221A7000207A
:4006000000F0AEF8322000F0ABF800F009F80837BD4680BD1081FF1F0C81FF1FFA46004080B500AF024B80221A7000F011FF80BDFA46004080B500AF0C4B1B78DBB203F08D
:40064000C003802B11D1094B00221A700220002100F0DCFB0346002B07D00220002100F0D5FB0346184600F003F880BDFA460040004700BF90B587B000AF0346FB71FB7929
:400680000320194600F0C2FB034601331C02FB790420194600F0BAFB03462344FB600023FB740023BB74FB790320194600F0AEFB034601331B027B6111E07B691B78FB720B
:4006C000FB7A002B04D0FB7AFF2B01D00123FB74BA7CFB7A1344BB747B6901337B617A69FB689A42E9D3FB790320194600F08EFB034601331B02DB087B61FA68174B9A4218
:4007000002D0FB68DB0801E04FF40043FB600AE07B6903F190431B78DAB2BB7C1344BB747B6901337B617A69FB689A42F0D3BB7C5B42BB74BC7CFB790120194600F066FB15
:4007400003469C4202D1FB7C002B01D1062300E0002318461C37BD4690BD00BFC0FF030080B5ADF5247D00AF0246FB1D1A700023A7F88A320023A7F888320A2387F88732ED
:40078000002387F8863200F055FD0346002B02D0002000F051FE00F01BFC62B6002387F88D32FB1D1B78002B02D0FB1D1B7800E0FF2307F59E7107F26A2208464FF49671FB
:4007C00000F034FCC7F87802FB1D1B78002B04D097F88732013B87F8873297F88732002B03D0D7F87832002BDBD1D7F87832002B00D0B0E2B7F86A32062B04D907F59E7338
:400800001B78012B03D0042387F88D3244E007F59E73DB781B029AB207F59E739B781343A7F88A32B7F88A32053307F59E72D35C1B029AB2B7F88A32043307F59E71CB5CE8
:400840001343A7F87632B7F88A32DA1DB7F86A329A4203D9032387F88D321DE0B7F88A32063307F59E72D35C172B03D0042387F88D3211E0B7F88A3204339BB207F59E72D0
:4008800010461946FFF734FE0346B7F876229A4202D0082387F88D320023A7F88E3297F88D32002B40F04C8207F59E731B7987F87532042387F88D3207F59E735B78313B43
:4008C0000A2B00F2398201A252F823F0F908000033090000390D0000CD0900003F0B0000390D0000510B0000A70B0000CD090000EB0B0000210D000097F88632012B17D1CA
:40090000B7F88A32002B13D10020FFF7B3FE0346002B14BF00230123DBB21A4607F59E731A710123A7F88E32002387F88D3207E206E297F88632012B47D1B7F88A32012B8C
:4009400043D197F87532032B3FD8D14B1B681B681B0C87F8743297F8752297F874329A4208D1CB4B1B681B681B0A9BB2DBB2A7F884320DE097F8752297F874329A4203D9FA
:400980000023A7F8843203E04FF48073A7F88432B7F88432DAB207F59E731A71B7F884321B0A9BB2DAB207F59E735A7107F59E73FF229A7107F59E730022DA710423A7F814
:4009C0008E32002387F88D32BAE1B9E107F59E735B78342B23D197F88632012B40F0B081B7F88A32032B40F0AB8197F875323F2B08D997F875325BB2002B03DB1023A7F806
:400A0000883203E04FF49073A7F88832B7F8883207F11002104600211A4601F0ACF997F88632012B40F08A80B7F88A32022B40F28580B7F8883207F11002D118B7F88A3257
:400A4000033B07F59E720732084611461A4601F089F9B7F88822B7F88A3213449BB2033BA7F8883297F875323F2B0AD997F875325BB2002B05DB00F099FC1023A7F88A3298
:400A800003E04FF49073A7F88A32B7F88822B7F88A329A424BD107F59E739B791B029AB207F59E735B791343A7F8883297F875323F2B27D897F875329BB21B029AB2B7F8A2
:400AC00088321344A7F87232714B1B681B681B0AA7F882326E4B1B681B68DBB2002B04D0B7F882320133A7F88232B7F87222B7F882329A4206D20A2387F88D320023A7F8AC
:400B000088321DE197F87502B7F8881207F11002B7F88A3200F0A0FB0346002B01D00A2300E0002387F88D3200F0D6FC02E0032387F88D320023A7F8883201E100E197F825
:400B40008632012B03D10023A7F8883203E1F7E097F88632012B25D1B7F88822B7F88A321344B3F5967F19D8002387F88D32B7F8883207F11002D118B7F88A3207F59E7220
:400B80000432084611461A4601F0ECF8B7F88822B7F88A321344A7F8883203E0032387F88D32CDE0CCE0B7F88A32002B1CD107F10803384A92E8030083E80300012387F87B
:400BC00086320823A7F88E32B7F88E3207F59E72111D07F10802084611461A4601F0C2F8002387F88D32ABE0AAE097F88632012B40F09580B7F88A32032B40F0908007F555
:400C00009E739B791B029AB207F59E735B791343A7F8703297F875323F2B13D997F875325BB2002B0EDBB7F870321B01C7F86C321948D7F86C121022FFF77CFC034687F8EB
:400C4000813212E097F875321A02B7F8703213441B02C7F86C320020D7F86C124FF48072FFF768FC034687F8813297F875323F2B29D897F8753203F510331A02B7F8703265
:400C800013445B01C7F86C320023A7F87E3216E01081FF1F7421000000800040B7F87E22D7F86C3213441B78DAB297F88132134487F88132B7F87E320133A7F87E32B7F82A
:400CC0007E321F2BEAD997F87532032B19D1B7F87032FF2B15D10520002100F097F80346DBB297F88122D31A87F881320620002100F08CF80346DBB297F88122D31A87F86D
:400D0000813297F881325B42DAB207F59E731A71002387F88D320123A7F88E3210E00FE00020FFF7A7FC0346002B02D1114B80221A7000F08DFB03E0052387F88D3200BF32
:400D400097F88D1207F59E72B7F88E32084611461A4600F011F8FB1D1B78002B3FF41EAD97F88632012B3FF419AD07F52477BD4680BD00BFFA46004080B584B000AF3960C5
:400D800013460246FA71BB803B6801221A703B680133FA791A703B680233BA88D2B21A703B680333BA88120A92B2D2B21A70BB8804339BB238681946FFF79AFB0346FB8101
:400DC000BB8804333A681344FA89D2B21A70BB8805333A681344FA89120A92B2D2B21A70BB8806333A68134417221A70BB8807339AB23B1D386811461A46962300F0F2F847
:400E0000034618461037BD4680BD00BF80B586B000AF02460B46FA71BB710223FB740023FB60FB79013B092B00F2928001A252F823F000BF5D0E0000770E0000910E000033
:400E4000A70E0000C10E0000DB0E00000B0F0000F50E0000210F0000370F0000BA7913461B069B1A1B0203F57F3303F570737B610123FB7472E0BA7913461B069B1A1B022E
:400E800003F57F3303F2C1337B610423FB7465E0BA7913461B069B1A1B0203F57F3303F2C5337B615AE0BA7913461B069B1A1B0203F57F3303F2C9337B610423FB744DE003
:400EC000BA7913461B069B1A1B0203F57F3303F574737B610123FB7440E0BA7913461B069B1A1B0203F57F3303F2D1337B610123FB7433E0BA7913461B069B1A1B0203F540
:400F00007F3303F2D6337B6128E0BA7913461B069B1A1B0203F57F3303F2D2337B611DE0BA7913461B069B1A1B0203F57F3303F575737B6112E0BA7913461B069B1A1B02CB
:400F400003F57F3303F576737B610423FB7405E0002000F071FA00237B6100BFFB7C012B03D17B691B78DBB2FB60FB7C022B0BD17B691B78DBB2FB607B6901331B78DBB269
:400F80001B02FA681343FB60FB7C042B1BD17B691B78DBB2FB607B6901331B78DBB21B02FA681343FB607B6902331B78DBB21B04FA681343FB607B6903331B78DBB21B06E2
:400FC000FA681343FB60FB6818461837BD4680BD80B500AF00F0A0FC00F0A0FD00F0F6FD80BD00BF80B586B000AFF8607A600A467A817B720023FB8200F090FD09E0FB8AA3
:40100000FA6813441B78184600F0C6FDFB8A0133FB82FA8A7B899A42F1D37B687A891A80002318461837BD4680BD00BF90B589B000AFF8607A600A467A817B720523BB61CB
:401040000023FB831AE000F021FD0346002B0FD000F01CFD0346FB82192000F009FA00F015FD0346FA8A9A42F2D30023BB610DE0012000F0FDF9FB8B0133FB83F98B7A7A26
:4010800013469B0013445B009942DCDB7B6800221A800023BB8336E000F0F8FC0346BB827B681A88BB8A13449AB27B681A807B681B887A899A421ED90023FB830CE0BB8B5F
:4010C000FA68D41800F098FC03462370BB8B0133BB83FB8B0133FB83FA8BBB8A9A42EED3BB8B013BFA6813441B78172B0BD0052000F0BEF907E07B681A88BB8AD31A9AB24A
:401100007B681A8004E000F0C1FC0346002BC3D1BB6918462437BD4690BD00BF000000000230800800F0058000BF013800467FF4FCAF7047EFF3108072B6704780F310880F
:40114000704700BFAFF3008080B582B000AF00F039FA4FF0FF337B6000F05EFB0346002B24D1012000F026FB0346072B1BD11348022100F049FA0346022B0DD100237B6004
:4011800002E0012000F096F90D4B1B78DBB203F00203002BF5D006E0094B1B78DBB203F00203002BE3D000F06BFB01E004237B607B6818460837BD4680BD00BF5481FF1F72
:4011C0002247004080B582B000AF00F0FBF900F023FB0346002B23D100F07AFB78607B68072B1AD102E0012000F064F9104B1B78DBB203F00203002BF5D00D4B1B78DBB26E
:4012000003F00203002B08D0094B1B78DBB29B08DBB2002B01D100237B6000F031FB01E004237B607B6818460837BD4680BD00BF2247004080B582B000AFFFF7C3FF786047
:401240007B68002B02D1FFF77FFF78607B6818460837BD4680BD00BF80B586B000AFBA600246FA730A46BA81FB8000237B61FB7B3F2B04D8FB7B042B01D901237B61FB7B23
:401280005BB2002B01DA01237B61FB7B3F2B04D9FB7B412B01D901237B61FB7B3F2B06D8BB89B3F5807F0CD901237B6109E0BB89802B01D901237B61FB88102B01D00123AF
:4012C0007B61BB68002B01D101237B617B69002B62D100F0A1FA0346002B5BD1F97BBA89FB8808461146BA6800F0BAF978617B69072B4CD102E0012000F0DCF8294B1B7807
:40130000DBB203F00203002BF5D0264B1B78DBB203F00203002B09D0224B1B78DBB29B08DBB2002B02D100237B6102E04FF0FF337B617B69002B2AD11B4B1A781A4B5B7888
:40134000F87BB98900F0F2F978617B69072B1ED102E0012000F0AEF8124B1B78DBB203F00203002BF5D00F4B1B78DBB203F00203002B09D00B4B1B78DBB29B08DBB2002BBA
:4013800002D100237B6102E04FF0FF337B6100F077FA01E004237B617B6918461837BD4680BD00BF224700405481FF1F80B582B000AFFFF7BFFE0346FB71194B184A1278ED
:4013C000D2B242F00802D2B21A70164B154A1278D2B242F00802D2B21A70134BC8221A70124B124A1278D2B242F01002D2B21A700F4B0F4A1278D2B242F01002D2B21A7009
:4014000000BF0C4B1B78DBB203F02003002BF8D0FB791846FFF792FE0837BD4680BD00BFA0430040B043004001470040AC430040BC4300400047004080B483B000AF0346A5
:40144000FB7101BE0C37BD465DF8047B704700BF80B400AF054B054A1278D2B242F00102D2B21A70BD465DF8047B7047F646004080B582B000AF786008E00C4B1B681846C6
:40148000FFF74EFE7B68A3F500437B607B68B3F5004FF2D8064B1B687A6802FB03F31846FFF73EFE0837BD4680BD00BF2081FF1F1881FF1F80B582B000AF0346FB80FB8863
:4014C000044A127802FB03F31846FFF729FE0837BD4680BD1C81FF1F80B582B000AFFFF729FE0346FB7100BF00BF00BF00BF00BF00BF00BF00BF00BF00BF00BF00BF00BFD1
:4015000000BF00BF00BF094B084A128892B242F0040292B21A80054B1B88BFF36F8FFB791846FFF70BFE0837BD4680BD0048004080B584B000AF03463960FB710F4B1B6816
:40154000FB60FB791F2B02D90020FFF775FFFB7903F01F0310339B00FA6813441B68BB60FB7903F01F0310339B00FA6813443A681A60BB6818461037BD4680BD08ED00E016
:4015800080B582B000AF02460B46FA71BB71BB79072B02D90020FFF74FFFFB791F2B02D90020FFF749FFFB7903F01F0303F1604303F56443BA795201D2B21A700837BD46B4
:4015C00080BD00BF80B582B000AFFFF7B3FD0346FB710B4B0A4A1278D2B242F00802D2B21A70084B074A1278D2B242F00802D2B21A70FB791846FFF7A1FD0837BD4680BD9B
:40160000A0430040B043004080B584B000AF78600B46FB700023FB7314E002E00120FFF749FF0D4B1B78DBB203F00103002BF5D0FB7B7A681344094A1278D2B21A70FB7B73
:401640000133FB73FA7BFB789A42E6D3FB7B18461037BD4680BD00BF224700402047004080B489B000AFBA600246FA730A46BA81FB800723FB612B4B1B78DBB203F00203DC
:40168000002B45D0284BB6221A70274BD5221A70254B02221A70234B1B78DBB203F00203002B32D1204BFA7B1A7000237B8308E01D4B7A8BB9680A4412781A707B8B0133B3
:4016C0007B837A8BFB889A42F2D3FB88B3F5807F20D1FB7B3F2B1DD8FB7B03F510331A02BB8913445B017B6100237B8309E00E4B798B7A690A441278D2B21A707B8B0133C9
:401700007B837B8B1F2BF2D904E00923FB6101E00423FB61FB6918462437BD465DF8047B704700BF224700402047004080B485B000AFF871B980BA71FB700723FB601B4BCB
:401740001B78DBB203F00203002B26D0184BB6221A70174BD8221A70154B05221A70134B1B78DBB203F00203002B13D1104BFA791A700F4BBA88120A92B2D2B21A700C4B36
:40178000BA88D2B21A700A4BBA791A70084BFA781A7004E00923FB6001E00423FB60FB6818461437BD465DF8047B7047224700402047004080B485B000AF0346FB710723C9
:4017C000FB60134B1B78DBB203F00203002B16D0104BB6221A700F4BE1221A700D4B0E221A700B4B1B78DBB203F00203002B03D1084BFA791A7004E00923FB6001E0042321
:40180000FB60FB6818461437BD465DF8047B7047224700402047004080B582B000AF04237B60FFF787FC0346FB70124B1B78002B16D1104B01221A7000237B600E4B1B683A
:4018400003F00103002B0BD00B4B0B4A126822F001021A6000BF00BF00BF084B01221A60FB781846FFF76AFC7B6818460837BD4680BD00BF4481FF1F040008404881FF1FC8
:4018800080B582B000AFFFF755FC0346FB710D4B00221A700C4B1B68012B0BD10B4B0B4A126842F001021A6000BF00BF00BF064B00221A60FB791846FFF740FC0837BD46EC
:4018C00080BD00BF4481FF1F4881FF1F0400084080B483B000AF07237B600D4B1B78DBB203F00203002B09D00A4BB6221A70094BE0221A70074B0D221A7001E004237B60C2
:401900007B6818460C37BD465DF8047B704700BF224700402047004080B500AF054B1B78002B04D100F008F8024B01221A7000F02FF880BD4C81FF1F80B500AF00200D493C
:40194000FFF7F6FD00200721FFF71AFE0A4B00221A700A4B72221A70094B20221A70094B06221A70084B47221A70084B00221A7080BD00BF0D1C00004D81FF1F8C64004008
:401980008A6400402E6400403E6400408B64004080B582B000AFFFF7CDFB0346FB71124B114A1278D2B242F02002D2B21A700F4B0E4A1278D2B242F01002D2B21A700C4BFC
:4019C00001221A600B4B0B4A1278D2B242F01002D2B21A7000F086F9FB791846FFF7AEFB0837BD4680BD00BF9C6400409A64004000E100E09B64004080B483B000AF1C4B26
:401A000001221A601B4B1B78BB711B4B1B787B711A4B1B78DBB2002B03D1BA797B799A4219D0BB79164AD35CFB71BB790133BB71BB795BB2002B01DA0023BB710D4BBA79AB
:401A40001A700E4B1B78DBB2002B03D00B4B00221A7003E002E00B4B1B78FB710A4B01221A60FB7918460C37BD465DF8047B704780E100E04E81FF1F4F81FF1F5081FF1FA9
:401A80005881FF1F4F64004000E100E080B483B000AF1D4B01221A601C4B1B78DAB21C4B1B78DBB29A420AD11A4B1B78DBB2002B02D08023FB711DE00023FB711AE0134B27
:401AC0001B78DAB2124B1B78DBB29A4208D2104B1B78DAB20D4B1B78DBB2D31AFB7109E00B4B1B78DAB2094B1B78DBB2D31ADBB2803BFB71084B01221A60FB7918460C37D1
:401B0000BD465DF8047B704780E100E04E81FF1F4F81FF1F5081FF1F00E100E080B582B000AFFFF707FB0346FB71144B134A1278D2B242F00102D2B21A70104B0F4A12783D
:401B4000D2B222F00102D2B21A70FB791846FFF7F5FA0B4B01221A600A4B00221A700A4B00221A70094B00221A70094B00221A70084B01221A600837BD4680BD9F64004060
:401B800080E100E04E81FF1F4F81FF1F5081FF1F5181FF1F00E100E080B483B000AF0346FB7100BF074B1B78DBB203F00403002BF8D1054BFA791A700C37BD465DF8047B18
:401BC000704700BF6B6400404B64004080B582B000AFFFF7AFFA0346FB710B4B0A4A1278D2B242F00102D2B21A70074B064A1278D2B222F00102D2B21A70FB791846FFF771
:401C00009DFA0837BD4680BD9B64004080B483B000AF0023FB712B4B1B78BB71BB797B71BB7903F01E03002B0BD0BB7903F01E03DAB2254B1B78DBB21343DBB2DAB2224BC7
:401C40001A70BB7903F02003002B31D01F4B1B787B711F4B1B78DBB21E4A7979D1540123FB71FB79002B23D01B4B1B78DBB2002B02D01A4B01221A70154B1B78DBB2013307
:401C8000DAB2134B1A70124B1B78DBB2DBB25BB2002B02DA0E4B00221A700D4B1B78DAB20F4B1B78DBB29A4202D10B4B01221A70BB7903F02003002BADD10C37BD465DF85C
:401CC000047B70476A6400404D81FF1F4F6400404F81FF1F5881FF1F5081FF1F5181FF1F4E81FF1F80B400AF094B094A1278D2B242F00102D2B21A70064B064A1278D2B286
:401D000042F00102D2B21A70BD465DF8047B7047A2430040B243004070B50E4B0E4D0024ED1AAD101E46AC4204D056F8242090470134F8E700F022FA084D094B0024ED1A34
:401D4000AD101E46AC4204D056F8242090470134F8E770BD8821000088210000902100008821000010B50023934203D0CC5CC4540133F9E710BD02440346934202D003F848
:401D8000011BFAE77047000032000000D021000000000000005100406000C05100401000F0510040100000000140001000140140000800400140000A004C01400002005051
:401DC000014020000252004003640040010501404B0A0140420B01403A0C0140430D01405D0E01402F0F014002400140014101400342014004440140034501400246014072
:401E00000350014001510140310134028A388B0F8C72E60102030308051A07040B050C0C0E1110101103120C130C181C1A021C101D031F14201421202C092E102F18301F93
:401E4000311C3303352039083B023F1454185604580459045B045F018002850A860287048A028B058F08900296029D039F0CA001A503A704AD03AF04B002B10FB401BB02F4
:401E8000BE11C053C104C5E0C6CBC80EC9FFCAFFCBFFCEF0CF44D00CD401D804D904DA04DB04DF01E6C0EA40EB02008001020428074009010B060D020E100F2010811180F0
:401EC000150119021E882080210622102340250126022740280129022F2231023342374038283A303B063D803E203F04450246104D014E02548057305A025D015E986080A7
:401F00006150808082109028920293029508974099509E20A140A501C079C23BC419CA59CC19CE77D0C0D210D6F1D80DE4040104050209020D04110215011D0121012704B9
:401F400029082D0133023501370C39803F105602571159045B045F01800F830485C08603880489188C018D44900391E7920C93189402958098039BE39D10A00FA11CA3E14C
:401F8000A40CA51CA7E2A80CA908AA03AC08ADFFB00FB1C0B31FB738BA82BB88D804D904DF010160039009080A400B041219130119811A401BC0228923012540261027109F
:401FC000284029A42E602FA0308031093310344035043688370939423A103B043D023E143F4058805A405E206C206E146F097484752076138D048F409028914293069508B6
:40200000974199509C809D209E029F18A108A320A424A545A748B420B540C00FC20EC40FCAFFCCDFCEFFD620040C05010603070E1001120E1544173119671A031E08200146
:402040002206252227D129672E0C31803360340F350737183A203F404003454049FF4A074BFF4C404D204EF04F055008580459045A045F01604061A8624063208106830166
:40208000850688028B018C028D079204950796049D019E029F06A104A602A902AA01AE01B002B107B404B601B802BE50C042C103C205C401C6E0C70CC818C9FFCAFFCBFFB5
:4020C000CC62CDA0CEF0CF41D00CD804D904DA04DF01E640E702E910EA30EB10ED10EE10EF120320070609200B420E800F2111821608174818081B201D501E802189230460
:402100002602274028202B082D202E0230203108348037083B043C083D203F8141044480459447164B024E025010512056085710C0C4C2BBC4E9CAA6CC56CEF2D0F2D210E6
:402140003240CC10968082409680E68005025910C004D4019D10B502EA0281109D1000010C010E01000300000100020101000100000000006930122E001E0101F8B500BF9B
:40218000F8BC08BC9E467047610000003D010000F8B500BFF8BC08BC9E4670473D000000B02100000881FF1F20000000B000000000000000881D00008C1D000000366E0176
:4021C000C05D0000180000000000E02E000000000000000000000000000000000000000000000000000000000000000000000000000000000000000000000000000000009C
:402200000080002011220000E10D0100E10D010008B50EF0E7FD00BF10B5054C237833B9044B13B10448AFF300800123237010BD5083FF1F00000000FC28010008B5064BC9
:402240001BB106480649AFF300800648036813B1054B03B1984708BD00000000FC2801005483FF1F0881FF1F0000000008B50FF0D3FE0F4B1B78012B14D10E4B1B78062B45
:4022800008D80133D9B20B4B19700120143108F097FA08BD0022074B1A700120142108F08FFA08BD034B1A7801321A7008BD00BFA283FF1F9A85FF1F08B50FF063FF0F4B39
:4022C0001B78012B14D10E4B1B78062B08D80133D9B20B4B19700220143108F071FA08BD0022074B1A700220142108F069FA08BD034B1A7801321A7008BD00BF4F85FF1F88
:402300004185FF1F70B562B60EF0A6FF0FF064F90FF0EAF90EF092FF0FF0B8F80FF084FC0FF074FD0FF0C0F80FF08CFC0FF07CFD0FF044F910F0F0F9052010F05BFA0020F9
:40234000202107F059FE0022584B1A6058491A46584C03E0C85CE05401331360087813689842F7D220200F2107F046FE00224F4B1A604F491A464F4D04E0CC5CE8188477EE
:4023800001331360087813689842F6D24020202107F032FE0022454B1A6045491A46454D05E0CC5CE81880F8434001331360087813689842F5D28020202107F01DFE002205
:4023C0003A4B1A603A491A463A4D05E0CC5CE81880F8614001331360087813689842F5D2A020202107F008FE0022304B1A6030491A46304D05E0CC5CE81880F87F40013328
:402400001360087813689842F5D22F200C2107F0F3FD0022254B1A6025491A46254D05E0CC5CE81880F82F4001331360087813689842F5D26020092107F0DEFD1C4B1E782E
:40244000731EDBB2082B13D80022184B1A601A46174D184C05E00133E85CE11881F8D70013601368072BF6D9124B83F8D7600DE001220E4B1A601A460E4804E0C11881F886
:40248000D730013313601368082BF7D940F29F20052107F0B1FD064B1D78042D17D10122024B1A601A46024C03480BE0A883FF1F5885FF1F3887FF1F0C81FF1FE15CC15449
:4024C000013313601368042BF8D99F4B1D7040F2C110022107F090FD9C4B1B78012B03D19A4B5A789A4B1A7040F2C310022107F083FD964B1B78012B03D1944B5A78954B55
:402500001A7040F2C510022107F076FD8F4B1B78012B03D18D4B5A788F4B1A7040F2EE30022107F069FD894B1B78012B03D1874B5A788A4B1A704FF4DD70022107F05CFDC5
:40254000824B1B78052B05D1804B5A7802F00F02834B1A7040F27A20022107F04DFD7B4B1B78012B03D1794B5A787E4B1A704FF41F70022107F040FD744B1B78012B03D110
:40258000724B5A78784B1A7040F27E20022107F033FD6E4B1B78012B03D16C4B5A78734B1A704FF47C70022107F026FD674B1B78012B03D1654B5A786D4B1A7040F25A20E7
:4025C000062107F019FD614B1B78052B0AD15F4BD97801F00F01674A11705A7902F00F02654B1A7040F2C710022107F005FD574B1B78012B06D1614A1370544B5B7803F02F
:402600000F0353704FF4DE70022107F0F5FC4F4B1B78012B05D14D4B5A7802F00F02584B1A7040F26320022107F0E6FC474B1B78012B05D1454B5A7802F00F02514B5A70BD
:4026400040F26520022107F0D7FC404B1B78012B05D13E4B5A7802F00F024B4B5A704FF42770032107F0C8FC384B1B78022B06D1364B9B7843EA0323444A138002E00122F8
:40268000424B1A804FF47670022107F0B5FC2F4B1B78012B04D12D4B5A783D4B5A7007E03B4901230B704B704FF4767007F064FC40F2D230062107F09FFC244B18780528F7
:4026C0000ED10022334B1A601A46204D324C03E0E95CE1540133136013689842F8D20CE02D4905230B7030234B708B70CB700B714B7140F2D23007F03FFC274B5A7902F055
:402700000F021C7904F00F044FF47A7000FB04F442F2107000FB0240D97801F00F01642202FB01019A7802F00F0202EB820252000A445B7803F00F031A44184B1A600222A7
:40274000174B1A7070BD00BF0C81FF1F5885FF1F2288FF1FD488FF1F5085FF1FA483FF1F4485FF1F4085FF1F9286FF1F9786FF1F3087FF1FA583FF1F2388FF1F4C85FF1F53
:40278000A685FF1F9486FF1F3487FF1F3E85FF1FA083FF1FA883FF1FA085FF1F3488FF1F4385FF1FF8B5002464260C4D022711E00AF024FE02280DD1304610F01BF8287836
:4027C0000AF05AFE062805D128790AF055FE062800D13C46002CEBD0F8BD00BF9883FF1F08B501280ED1552107F0EAFF64220D4B1A7001220C4B1A700C480FF07DFC0FF02E
:402800004DFC08BD0220552107F0DAFF6422084B1A700122074B1A7007480FF023FD0FF0F3FC08BDA283FF1F9A85FF1F6D2200004F85FF1F4185FF1FB9220000F8B59A4B4D
:402840001B78642B03F23285DFE813F0740080009C00A50004018E012102B702E302240313045904C6044605790555066F07BE076608FC089609E30A330CC20DCC0EB211C9
:40288000ED11C4123F13A61375141015EC159B1800196F19BC19EB198E1A671B671CF01C301D301D301D301D301D301D301D301D301D301D301D301D301D301D301D301DD4
:4028C000301D301D301D301D301D301D301D301D301D301D301D301D301D301D301D301D301D301D301D301D301D301D301D301D301D301D301D301D301D301D301D301D38
:40290000301D301D301D301D301D301D301D301D301D301D6500654B1B78012B43F2C6840024614B1C700FF0F5FB0FF05BFB5F4B1C70F8BD5E480FF0DFFB0FF0AFFB00226D
:402940005A4B1A700122584B1A70F8BD0FF086F9082843F0AB840222534B1A700FF0A8F90FF0D8FB0FF03EFB524B1B78022B04D10120632107F024FFF8BD0120452107F0F9
:402980001FFFF8BD0322484B1A7064200FF032FF0FF08EF9F8BD0FF061F9082843F08684454B1B78DBB2AA2B4ED1434B9B79DBB2C32B49D1404BDB79DBB23C2B44D13E4B01
:4029C000DB78DBB2592B2DD002D8452B1FD03BE05C2B02D07E2B30D036E00022374BDA70344B1B78012B06D104222F4B1A700120052107F0E5FE2F4B1B78022B24D1192252
:402A0000294B1A700120492107F0DAFE1CE00F22254B1A7000222A4B1A700120252107F0CFFE11E02722204B1A700022244B1A700120252107F0C4FE06E00120002107F042
:402A4000BFFE0022184B1A7064200FF0D3FE0FF02FF9F8BD0FF002F9082843F02784164B1B78DBB2AA2B79D1134B9B79DBB2C32B74D1114BDB79DBB23C2B6FD10F4BDA78F0
:402A800022F00302DA700C4BDB78DBB23B2B4DD004D80F2B16D0102B29D05FE0432B3DD07E2B54D05AE000BFA283FF1F9A85FF1F6D2200004385FF1FC88AFF1F9886FF1FAA
:402AC0005185FF1F0522984B1A700024974B1C700120062107F074FE01204821224607F0A5FE934BDA7842F00202DA7036E005228D4B1A7000248D4B1C7001200D2107F062
:402B00005FFE8C4B1C7001204721224607F08EFE874BDA7842F00102DA701FE00622824B1A700120072107F04BFE17E0824B1B78022B04D10120632107F042FE03E001207E
:402B4000452107F03DFE0222774B1A7006E00120002107F035FE0022734B1A7064200FF049FE0FF0A5F8F8BD0FF078F8082843F09D83724B1B78DBB2AA2B40F082806F4BE6
:402B80009B79DBB2C32B7CD16C4BDB79DBB23C2B77D1664B1B786A4A1278013A93423EDC664AD278D2B2092A0FD80133DAB25F4B1A70624BD8785E4911443030C872D978D6
:402BC00030310120C9B207F031FE5C4BDB78DBB20A2B0BD1554B1A780132D2B21A70544B13443021D972012007F020FE534BDB78DBB2512B13D14D4B1B7883B14D4A127881
:402C00006AB90133DAB2494B1A70494B13442C21D972012007F00AFE0122464B1A70474BDB78DBB20B2B1BD1404B1A783AB90120052107F0C5FD04223B4B1A7010E00120C7
:402C4000202107F0F3FD394B1B78394A1A44D27A2C2A02D10021374A1170013B334A1370364BDB78DBB20C2B0BD1304B1B7843B12F4AD37206222C4B1A700120072107F0C3
:402C80009FFD64200FF0B6FD0FF012F8F8BD64200FF0B0FD0EF0E2FF08281CD1274B1B78DBB2AA2B11D1254B9B79DBB2C32B0CD1224BDB79DBB23C2B07D1204BDB78DBB25B
:402CC0007E2B02D10022184B1A7064200FF092FD0EF0EEFFF8BD1B4B18780AF0CDFB072843F0E48232200FF085FD164B18780AF0D7FB154B187032200FF07CFD0C4BDB782B
:402D000013F0030324D00F4A10780F4A11780F4A0DF0A6FBE0B90120002107F051FD0022014B1A70F8BD00BFA283FF1F5185FF1F9886FF1FA383FF1F4385FF1FC88AFF1F43
:402D40004485FF1F9883FF1F3888FF1FA386FF1F01200FF0F3FC9C4B18780AF0A1FB9B4B1870002803F0A282994B1B7803F00F03834211D0974B1B7803F00F0398420BD0F4
:402D8000954B1B7803F00F03984205D0934B1B7803F00F03984202D101200DF0F1FF8A4B187840F010000EF0DFFA07228C4B1A700120082107F004FDF8BD32200FF01AFD56
:402DC000814B18780AF058FB0A2813D00B2803D0062843F06B8218E064200FF00BFD7A4B18780AF0D1FB012843F0608208227C4B1A70F8BD744B18780AF0C6FB012843F04F
:402E000055820822764B1A70F8BD0022744B1A70F8BD744B1B78012B02D0022B10D0F8BD01200B2107F0CCFC0A226D4B1A706E480FF062F90FF032F900226C4B1A70F8BD93
:402E40006B4BDB7813F0040F11D167480FF054F90FF024F90024654B1C7001200A2107F0AFFC09225E4B1A70624B1C70F8BD01200B2107F0A5FC0A22594B1A7000245C4B96
:402E800083F8834058480FF037F90FF007F9574B1C70F8BD0EF0E2FE082840F0D580564B1B78DBB2AA2B40F0CA80534B9B79DBB2C32B40F0C480504BDB79DBB23C2B40F0CC
:402EC000BE800022494B1A704A4B1B78062B64D8494AD278D2B2092A10D80133DAB2454B1A70454BD87842491144303081F86500D97830310120C9B207F098FC3E4BDB78B6
:402F0000DBB20A2B0CD13B4B1A780132D2B21A70374B1344302183F86510012007F086FC354BDB78DBB26A2B0CD1324B1A780132D2B21A702E4B13442D2183F86510012094
:402F400007F074FC2C4BDB78DBB21A2B25D92A4BDB78DBB2422B20D80022284B1A601C46254E274D16E0F178C9B2EA18127A91420DD120490A780132D2B20A704133D9B20A
:402F80001B4B134483F86510012007F04FFC2368013323602368192BE5D9174BDB78DBB20B2B37D1134B1A7862BB01200B2107F007FC0A220A4B1A700D4B002283F86520D9
:402FC00083F8832026E000BF9883FF1F3888FF1F2288FF1FD488FF1F5085FF1FA483FF1FA283FF1F4385FF1F6D2200009A85FF1F9886FF1F5185FF1FC88AFF1FA883FF1F7F
:403000000C81FF1F0120202107F010FCAB4B1A78013A1A70AA4BDB78DBB20C2B0FD1A74B1B7863B1A74C84F865300A22A64B1A7001200B2107F0C4FB012384F88330642029
:403040000FF0D8FB0EF034FEA04B1B781D2B43F22D8101200B2107F0B3FB0A229A4B1A70984A002382F8653082F88330974A1370F8BD0EF0F3FD082831D1914B1B78DBB2A2
:40308000AA2B27D18E4B9B79DBB2C32B22D18C4BDB79DBB23C2B1DD1894BDB78DBB2382B09D0392B16D10120372107F089FB0D22854B1A700EE001200C2107F081FB6422EE
:4030C000814B1A700122814B1A7081480FF014F80EF0E4FF64200FF08DFB0EF0E9FD7B4B1B781D2B43F2E28001200C2107F068FB6422754B1A700122744B1A70F8BD01206B
:40310000014607F0E3F8052840D90A200FF072FB0120212107F0DAF8052837D9012006F0DDFF012832D133200EF0E0FD0120332107F016F850B30022664B1A601C46012790
:40314000604E08E0384607F07DF8354485F829002368013323602568072DF3D9594CE37843F00403E3700120132107F029FB4FF4FA700FF03FFB0023504A13702371012009
:403180000E2107F01DFB0C224F4B1A700EF066FD082843F08B804A4B1B78DBB2AA2B15D1474B9B79DBB2C32B10D1454BDB79DBB23C2B0BD1424BDB78DBB23B2B06D10322BB
:4031C000414B1A700120632107F0FAFA64200FF011FB0EF06DFDF8BD0EF040FD082843F06580374B1B78DBB2AA2B60D1344B9B79DBB2C32B5BD1324BDB79DBB23C2B56D12C
:403200002E4B1B78052B25D82D4AD278D2B2092A0FD80133DAB2294B1A70294BD8782949114430300871D97830310120C9B207F0FDFA234BDB78DBB20A2B0BD11F4B1A783D
:403240000132D2B21A701F4B134430211971012007F0ECFA1A4BDB78DBB20B2B12D1174B1A783AB90120052107F0AAFA0422164B1A7007E00120202107F0D8FA0F4B1A783D
:40328000013A1A700E4BDB78DBB20C2B0FD10B4B1B7863B10B4A5279302A08D004210A4A1170084A13710120052107F089FA64200FF0A0FA0EF0FCFCF8BD00BF5185FF1F9E
:4032C000C88AFF1F9886FF1FA283FF1F9A85FF1F6D2200005485FF1FAE4B5878AE4B19780022AE4B1B7808F0FFFCAD4B1B78012B02D0AC4B5B787BB901200C2107F060FA02
:403300006422A94B1A700122A84B1A70A8480EF0F3FE0EF0C3FEF8BD0120312107F050FA2122A14B1A700022A24B1A7001229F4B1A709F480EF0E0FE0EF0B0FEF8BD0EF0D7
:403340008DFC082842F0B2879B4B1B78DBB2AA2B40F0CB80984B9B79DBB2C32B40F0C580954BDB79DBB23C2B40F0BF80924BDB78DBB2652B00F085800AD85A2B51D002D8B1
:40338000582B12D0B1E05B2B65D05D2B25D0ACE07E2B00F0A38003D8702B00F09780A4E0932B76D0962B61D09FE010227E4B1A700022804B1A7001203E2107F001FA06F0BD
:4033C0000BFD012801D107F0B1FA06F03DFD012840F08B8007F006FB87E01322724B1A7001205C2107F0ECF901200021D62240F2A71307F0D5FB01200021892240F2AD1373
:4034000007F0CEFB01200146242240F2B31307F0C7FB0120014678224FF47A7307F0C0FB63E01222604B1A700120602107F0C8F9012007F039FB012007F06EFC012007F09D
:40344000EBFD012007F068FE012007F0E5FC012007F062FD49E01122534B1A7001202F2107F0AEF90022534B1A703EE01B224E4B1A7001205F2107F0A3F900224D4B1A70A3
:4034800033E01422484B1A7001204D2107F098F92BE02322444B1A7001206E2107F090F90120014606F012FF05281ED90A200FF0A1F9012007F02CFF0120212106F006FFFF
:4034C000052812D9012007F0A7FE0EE02922364B1A700120892107F073F906E00120002107F06EF90022304B1A7064200FF082F90EF0DEFBF8BD0EF0B1FB082842F0D686E6
:403500002D4B1B78DBB2AA2B40F009812A4B9B79DBB2C32B40F00381274BDB79DBB23C2B40F0FD80234B1A78072A26D8224BDB78DBB2092B0ED8204BD978204B13443031D0
:4035400083F88E1001202A2107F070F9194B1A7801321A70184BDB78DBB20A2B0DD1154C2278164B1344302183F88E1001202A2107F05CF92378013323700F4BDB78DBB2EC
:403580000B2B25D10B4B1B78D3B90120FFF728F91EE000BF9486FF1F3888FF1F9883FF1F4385FF1FA083FF1FA283FF1F9A85FF1F6D2200005185FF1FC88AFF1F9886FF1F50
:4035C000013BDAB2A84B1A700120202107F02EF9A64BDB78DBB20C2B40F0A180A24B1A78002A00F08D800023A1490B60A1490B6094460846DFF884E29F4F9D4B002510E0EA
:403600004C1C0EEB040696F8D760394491F88E1030398E4203D119680131196000E01D600460664601688A42EAD8944B93F8D7208F4B1B689A421AD10120262107F0C0F87D
:403640004FF4FA700FF0D6F80E228D4B1A708D4B1B78012B04D101205D2107F0B1F85EE0022B5CD10120702107F0AAF857E000237F4A13607F4A13601146834D7E4C7C4A27
:403680000CE0E81890F82470E01890F88E00874202D110680130106001330B600B689E42EFD8734B1B68082B1AD10120262107F087F84FF4FA700FF09DF80E22704B1A7093
:4036C000704B1B78012B04D101205D2107F078F825E0022B23D10120702107F071F81EE00120272107F06CF86422654B1A700122664B1A7066480EF0FFFC0EF0CFFC0EE0FF
:403700000120272107F05CF864225D4B1A7001225E4B1A705E480EF0EFFC0EF0BFFC64200FF068F80EF0C4FAF8BD0EF097FA082842F0BC854D4B1B78DBB2AA2B3ED14B4BC7
:403740009B79DBB2C32B39D1484BDB79DBB23C2B34D1464BDB78DBB23F2B04D07E2B26D03E2B2BD116E000233F4A1370494A13701522434B1A700120402107F021F80120E0
:403780006121062207F052F801206D21072207F04DF813E00023344A13703E4A13701622374B1A7001203F2107F00AF806E00120002107F005F80022314B1A7064200FF063
:4037C00019F80EF075FAF8BD0EF048FA082842F06D85264B1B78DBB2AA2B40F09780234B9B79DBB2C32B40F09180204BDB79DBB23C2B40F08B801C4B1A78072A27D81B4B9A
:40380000DB78DBB2092B10D8184BD8781A491144303081F88E00D97830310120C9B207F005F8114B1A7801321A70104BDB78DBB20A2B0CD10C4C22780F4B1344302183F811
:403840008E10012006F0F2FF237801332370074BDB78DBB20B2B27D1034B1B78E3B90120FEF7BEFF20E000BF5185FF1FC88AFF1FA885FF1FA883FF1F9886FF1F3887FF1FC0
:40388000A283FF1F4385FF1F0C81FF1F9A85FF1F6D220000A383FF1F013BDAB2A94B1A700120202106F0C2FFA74BDB78DBB20C2B2CD1A44B1B78052B28D90120392106F09B
:4038C0007FFF0023A14A13709E4A1178A04A82F8D710A04A1360A04D9D4C08E0581C2B4493F88E602318303E83F8D760106013689942F3D86020994906F03EFB30B90120FF
:40390000552106F05DFF6422904B1A7064200EF071FF0EF0CDF9F8BD0EF0A0F9082842F0C584894B1B78DBB2AA2B40F08580864B9B79DBB2C32B7FD1834BDB79DBB23C2B63
:403940007AD1814BDB78DBB27A2B55D006D8772B38D0782B43D0762B6ED10AE0822B15D002D87E2B61D067E0832B1DD0952B50D062E01822754B1A700023794A1370714A8C
:4039800013700120302106F01BFF55E018226F4B1A700222724B1A7000226A4B1A700120792106F00DFF47E01822684B1A7003226B4B1A700022634B1A7001207A2106F0B7
:4039C000FFFE39E01822614B1A700120644B1870782106F0F5FE00225A4B1A702CE017225A4B1A7001205E4B1870652106F0E8FE0022544B1A701FE01722544B1A7000241E
:403A0000574B1C700120322106F0DAFE4D4B1C7012E0544B1B78022B0ED120224B4B1A700120662106F0CCFE06E00120002106F0C7FE0022454B1A7064200EF0DBFE0EF080
:403A400037F9F8BD0EF00AF9082842F02F843E4B1B78DBB2AA2B6ED13B4B9B79DBB2C32B69D1394BDB79DBB23C2B64D1364BDB787E3B042B5FD8DFE803F05703182D4200B0
:403A80001A22324B1A702F4C00232370364B1A782F4B83F8A3200120062106F091FE01204821227806F0C2FE45E01A22274B1A70244C002323702D4B1A78254B83F8A320E5
:403AC0000120062106F07CFE01204821227806F0ADFE30E01A221D4B1A701A4C00232370234B1A781A4B83F8A3200120062106F067FE01204821227806F098FE1BE01A22C2
:403B0000124B1A700F4C002323701A4B1A78104B83F8A3200120062106F052FE01204821227806F083FE06E00120002106F048FE0022064B1A7064200EF05CFE0EF0B8F8E9
:403B4000F8BD00BF5185FF1FC88AFF1FA283FF1F3887FF1FA883FF1F9886FF1F0F88FF1F9B85FF1F4385FF1F2288FF1FD488FF1F5085FF1FA483FF1F0EF070F8082842F0AD
:403B80009583B54B1B78DBB2AA2B40F03C81B24B9B79DBB2C32B40F03681AF4BDB79DBB23C2B40F03081AC4BDB78DBB2632B31D002D8622B07D026E1642B00F0CB807E2B57
:403BC00000F01A811FE10120392106F0F9FD64200EF010FEA14B187809F04EFC062815D19E4B187909F048FC06280BD101204A2106F0E6FD4FF42F700EF0FCFD0022984B6C
:403C00001A7000E10120FEF7EBFDFCE00120FEF7E7FDF8E00120372106F0D2FD914B5B78012B45D10022904B1A601C468F4E012508E03344284693F82C1006F02BFA236828
:403C4000013323602368102BF3D901200A2106F021FA01200A2106F01DFA01200A2106F019FA01200A2106F015FA00227E4B1A601C467E4E022508E03344284693F82C1051
:403C800006F008FA2368013323602368102BF3D902200A2106F0FEF902200A2106F0FAF902200A2106F0F6F902200A2106F0F2F96C4B5B78022B45D100226B4B1A601C46E7
:403CC0006A4E032508E03344284693F82C1006F0E1F92368013323602368102BF3D903200A2106F0D7F903200A2106F0D3F903200A2106F0CFF903200A2106F0CBF9002252
:403D0000594B1A601C46594E042508E03344284693F82C1006F0BEF92368013323602368102BF3D904200A2106F0B4F904200A2106F0B0F904200A2106F0ACF904200A2105
:403D400006F0A8F901206B2106F03AFD2522444B1A7058E0012006F0C1F9012848D133200DF0C4FF0120332106F0FAF900284AD000223F4B1A601C4601273E4E08E03846D2
:403D800006F060FA354485F829002368013323602568072DF3D90023374A1370344A13601446354D334E09E03344287893F8291006F0F6FC28702368013323602368062B0E
:403DC000F2D92C4B93F830202B4B1B789A420BD101204B2106F0F4FC4FF47A700EF00AFD00221F4B1A700EE00120FEF7F9FC0AE00120FEF7F5FC06E00120002106F0E0FC46
:403E00000022174B1A7064200EF0F4FC0DF050FFF8BD0DF023FF082842F048820E4B1B78DBB2AA2B40F03F810B4B9B79DBB2C32B40F03981084BDB79DBB23C2B40F033812A
:403E40000E4B1B78042B00F2C780DFE813F0190042006800C500A000C88AFF1F9883FF1FA283FF1F9086FF1FA883FF1F0C81FF1F5485FF1F9886FF1F4585FF1F5185FF1FD9
:403E80009F4AD278D2B2012A0FD80133DAB29D4B1A709B4CE17830310120C9B206F0C6FCE2781201984B83F8A120954BDB78DBB20A2B40F09180934B1A780132D2B21A709F
:403EC0000021914B83F8A1100120302106F0AEFC82E08B4AD278D2B2092A11D80133DAB2884B1A70864CE17830310120C9B206F09DFCE178844B93F8A1200A4383F8A12095
:403F00007F4BDB78DBB20A2B66D17E4B1A780132D2B21A700120302106F088FC5CE0784AD278D2B2052A17D80133DAB2754C227001203A2106F07AFC22780132D2B222701B
:403F40006F4CE17830310120C9B206F06FFCE27812016D4B83F8A020694BDB78DBB20A2B3AD1684C22780132D2B2227001203A2106F05CFC22780132D2B2227001203021E5
:403F800006F054FC0022604B83F8A02024E05C4AD278D2B2092A11D80133DAB2594B1A70574CE17830310120C9B206F03FFCE178554B93F8A0200A4383F8A020504BDB784D
:403FC000DBB20A2B08D14F4B1A780132D2B21A700120302106F02AFC494BDB78DBB2402B17D14A4B1B783BB90120484B18707021062206F01BFC07E00022444B1A70012003
:404000006121062206F012FC01206D21072206F00DFC3B4BDB78DBB20B2B1BD1394B1A7882B90E223A4B1A703A4B1B78012B04D101205D2106F0C4FB0CE00120702106F0E2
:40404000BFFB07E00120202106F0F0FB2D4B1A78013A1A702A4BDB78DBB20C2B23D1294B1B78052B1FD1294B197841F00201264B93F8A12042EA411283F8A12005F01CFF25
:40408000012810D10E22224B1A70224B1B78012B03D15D2106F094FB05E0022B03D10120702106F08DFB64200EF0A4FB0DF000FEF8BD0DF0D3FD082842F0F880104B1B7850
:4040C000DBB2AA2B40F073810D4B9B79DBB2C32B40F06D810A4BDB79DBB23C2B40F06781084B1A78072A00F22381DFE812F015003E00650021019E00C4002101FC0000BFF2
:40410000C88AFF1F5185FF1F3887FF1FA383FF1FA283FF1F4385FF1FA84BDB78DBB2032B0FD8A64CE17830310120C9B206F07EFBA34B1A7801321A70E2781201A14B83F821
:404140009D209E4BDB78DBB20A2B40F0F18000229C4B83F89D209A4C01203021227806F065FB237801332370E2E0944BDB78DBB2092B11D8914CE17830310120C9B206F031
:4041800055FBE1788F4B93F89D200A4383F89D208B4B1A7801321A70884BDB78DBB20A2B40F0C680864C01203021227806F03EFB237801332370BBE0804BDB78DBB2012B4B
:4041C00017D801202F2106F031FB7D4C22780132D2B22270794DE97830310120C9B206F025FBEA781201774B83F89E20237801332370724BDB78DBB20A2B40F09980704CAE
:4042000001202F21227806F011FB22780132D2B222700120302106F009FB0022694B83F89E2023780133237082E0644BDB78DBB2092B11D8614CE17830310120C9B206F0AA
:40424000F5FAE1785F4B93F89E200A4383F89E205B4B1A7801321A70584BDB78DBB20A2B66D1574C01203021227806F0DFFA2378013323705CE0514BDB78DBB2092B17D8DE
:4042800001202F2106F0D2FA4D4C22780132D2B222704A4DE97830310120C9B206F0C6FAEA781201474B83F89F20237801332370424BDB78DBB20A2B3AD1414C01202F2156
:4042C000227806F0B3FA22780132D2B222700120302106F0ABFA00223A4B83F89F2023780133237024E0354BDB78DBB2092B11D8324CE17830310120C9B206F097FAE17819
:40430000304B93F89F200A4383F89F202C4B1A7801321A70294BDB78DBB20A2B08D1284C01203021227806F081FA237801332370224BDB78DBB20B2B1BD1214B1B7883B90C
:404340000E22214B1A70214B1B78012B04D101205D2106F035FA0CE00120702106F030FA07E0013BDAB2164B1A700120202106F05DFA124BDB78DBB20C2B18D1104B1B7801
:40438000082B14D105F0C6FD012810D10E220E4B1A700E4B1B78012B03D15D2106F010FA05E0022B03D10120702106F009FA64200EF020FA0DF07CFCF8BD00BFC88AFF1F20
:4043C0005185FF1F3887FF1FA283FF1F4385FF1F0DF044FC082841F06987A04B1B78DBB2AA2B40F0F9809D4B9B79DBB2C32B40F0F3809A4BDB79DBB23C2B40F0ED80984BE5
:404400001B780C2B61D8954AD278D2B2092A1ED80133DAB2924B1A70924B1B7813B1012B07D00DE08D4BD9788F4B13443031997706E08A4BD9788C4B1344303183F82F1038
:40444000864BD97830310120C9B206F0DFFF834BDB78DBB20A2B18D1814B1A780132D2B21A70804B1B7813B1012B05D009E07E4B13443021997704E07B4B1344302183F884
:404480002F100120302106F0C1FF744BDB78DBB2512B1AD1724B1B78BBB10133DAB2704B1A70704B1B7813B1012B05D009E06E4B13442E21997704E06B4B13442E2183F8A8
:4044C0002F1001202E2106F0A1FF644BDB78DBB20B2B45D1624B1A78002A39D10E22634B1A70634B1B78012B04D101205D2106F067F903E00120702106F062F92F200C2128
:4045000005F07AFD00225B4B1A605B491A46564805E0CD5CC41884F82F50013313600C7813689C42F5D220200F2105F065FD0022504B1A6050491A464B4804E0CD5CC41888
:40454000A577013313600C7813689C42F6D207E00120202106F05AFF414B1A78013A1A703E4BDB78DBB20C2B36D10E223F4B1A703F4B1B78012B04D101205D2106F020F9A1
:4045800003E00120702106F01BF9364B1B7813B1012B11D020E0324B1B78334901F81E3F202005F0E9FCB8B90120552106F008F964222E4B1A700FE0294B1B782A4901F891
:4045C0002F3F2F2005F0D8FC30B90120552106F0F7F86422254B1A7064200EF00BF90DF067FBF8BD0DF03AFB082841F05F861B4B1B78DBB2AA2B40F0C182184B9B79DBB26C
:40460000C32B40F0BB82154BDB79DBB23C2B40F0B582134B1B78172B00F2CE810F4AD278D2B2092A47D80133DAB20D4B1A700D4B1B78042B38D8DFE803F003092129310016
:40464000064BD9783031084B99542DE0034BD978054B1344303183F8431025E0C88AFF1F5185FF1F9B85FF1F3887FF1FA283FF1F4385FF1FA883FF1F5885FF1F9D4BD9784B
:404680009D4B1344303183F861100DE0994BD978994B1344303183F87F1005E0954BD978964B13443031D972924BD97830310120C9B206F0ABFE8F4BDB78DBB20A2B2BD1F7
:4046C0008F4B1A780132D2B21A708E4B1B78042B1ED8DFE803F003070D1319003021864B995415E0844B1344302183F843100FE0814B1344302183F8611009E07E4B1344DE
:40470000302183F87F1003E07C4B13443021D9720120302106F07AFE764BDB78DBB2672B2BD1774B1A780132D2B21A70754B1B78042B1ED8DFE803F003070D131900232124
:404740006D4B995415E06C4B1344232183F843100FE0694B1344232183F8611009E0664B1344232183F87F1003E0644B13442321D9720120232106F049FE5E4BDB78DBB273
:404780006A2B2BD15E4B1A780132D2B21A705D4B1B78042B1ED8DFE803F003070D1319002D21554B995415E0534B13442D2183F843100FE0504B13442D2183F8611009E0AA
:4047C0004D4B13442D2183F87F1003E04B4B13442D21D97201202D2106F018FE454BDB78DBB2662B2BD1464B1A780132D2B21A70444B1B78042B1ED8DFE803F003070D1302
:40480000190040213C4B995415E03B4B1344402183F843100FE0384B1344402183F8611009E0354B1344402183F87F1003E0334B13444021D9720120402106F0E7FD2D4B10
:40484000DB78DBB2692B2BD12D4B1A780132D2B21A702C4B1B78042B1ED8DFE803F003070D1319002E21244B995415E0224B13442E2183F843100FE01F4B13442E2183F856
:40488000611009E01C4B13442E2183F87F1003E01A4B13442E21D97201202E2106F0B6FD144BDB78DBB2682B36D1154B1A780132D2B21A70134B1B78042B29D8DFE803F04E
:4048C00003070D13240020210B4B995420E00A4B1344202183F843101AE0074B1344202183F8611014E0044B1344202183F87F100EE000BFC88AFF1F3887FF1F9886FF1F40
:404900005185FF1F9B85FF1F9F4B13442021D9720120202106F07AFD9C4BDB78DBB21A2B4AD99A4BDB78DBB2422B45D80022984B1A601C46954E974D3BE0F178C9B2EA1882
:40494000127A914232D194490A780132D2B20A7092490978042923D8DFE801F003080F161D0003F141008E49885419E08C49114403F1410081F8430012E08949114403F1B3
:40498000410081F861000BE08549114403F1410081F87F0004E07C49114403F14100C87203F141010120C9B206F030FD2368013323602368192BC0D9744BDB78DBB20B2BC0
:4049C0006ED1754B1A78002A62D10E22754B1A70754B1B78012B04D101205D2105F0F0FE03E00120702105F0EBFE4020202105F003FB0022664B1A606C491A46684805E07B
:404A0000CD5CC41884F84350013313600C7813689C42F5D28020202105F0EEFA00225C4B1A6062491A465E4805E0CD5CC41884F86150013313600C7813689C42F5D2A02043
:404A4000202105F0D9FA0022514B1A6057491A46534805E0CD5CC41884F87F50013313600C7813689C42F5D20020202105F0C4FA0022474B1A604D491A46494803E0CC5C06
:404A8000C454013313600C7813689C42F7D207E00120202106F0BAFC3F4B1A78013A1A703A4BDB78DBB20C2B68D10E223D4B1A703D4B1B78012B04D101205D2105F080FE76
:404AC00003E00120702105F07BFE344B1B78042B54D8DFE803F003142637480030492E4B1B780B70002005F047FA002846D10120552105F065FE64222A4B1A703EE0264B38
:404B00001B78274901F8433F402005F035FA002834D10120552105F053FE6422214B1A702CE01D4B1B781E4901F8613F802005F023FA18BB0120552105F042FE6422194BAB
:404B40001A701BE0144B1B78154901F87F3FA02005F012FA90B90120552105F031FE6422104B1A700AE00C4B1A78074BDA720120392105F025FE24220A4B1A7064200DF0CF
:404B800039FE0DF095F8F8BD9886FF1FC88AFF1FA883FF1F0C81FF1F5185FF1F9B85FF1F3887FF1FA283FF1F4385FF1F5885FF1F0DF054F8082841F07983B04B1B78DBB2EB
:404BC000AA2B2AD1AD4B9B79DBB2C32B25D1AB4BDB79DBB23C2B20D1A84BDB78DBB25F2B04D07E2B12D05E2B17D107E00422A44B1A700120052105F0E3FD0EE00B22A04B64
:404C00001A7001201D2105F0DBFD06E00120002105F0D6FD00229A4B1A7064200DF0EAFD0DF046F8F8BD0DF019F8082841F03E83924B1B78DBB2AA2B40F0C6808F4B9B797F
:404C4000DBB2C32B40F0C0808C4BDB79DBB23C2B40F0BA808B4B1B78062B25D8874AD278D2B2092A0FD80133DAB2864B1A70834BD878854911443030C872D97830310120A7
:404C8000C9B205F0D3FD7D4BDB78DBB20A2B0BD17C4B1A780132D2B21A707B4B13443021D972012005F0C2FD744BDB78DBB20B2B24D1744B1A7882B90E22714B1A70734B49
:404CC0001B78012B04D101205D2105F079FD15E00120702105F074FD10E00120202105F0A5FD684B1B78684A1A44D27A2C2A02D10021674A1170013B624A13705F4BDB789A
:404D0000DBB20C2B60D15F4B1B78032B5CD906225B4B1A700120392105F052FD594B1A78594BDA725B4B18780BF0F4FD002848D0594B93F8A320594B1B789A4204D140F233
:404D4000A710574905F018F9534B93F8A320554B1B789A4204D140F2AD10514905F00CF94D4B93F8A320504B1B789A4204D140F2B3104B4905F000F9474B93F8A3204B4BD1
:404D80001B789A4204D14FF47A70454905F0F4F801203C2105F014FD4FF4FA700DF02AFD0E22374B1A70394B1B78012B04D101205D2105F005FD07E00120702105F000FD49
:404DC00002E00120FDF70CFD64200DF013FD0CF06FFFF8BD0CF042FF082841F06782274B1B78DBB2AA2B6AD1244B9B79DBB2C32B65D1224BDB79DBB23C2B60D11F4BDB7803
:404E00007E3B032B5BD8DFE803F0530226311C221B4B1A700120582105F0D2FC01200021732240F2C11305F01BFF01200021CF2240F2C31305F014FF01200146292240F253
:404E4000C51305F00DFF012001467B2240F2EE3305F006FF33E01D22094B1A700120062105F0AEFC0022074B1A7028E01E22044B1A7001206D2105F0A3FC20E0C88AFF1F1E
:404E8000A283FF1F5185FF1F9886FF1F4385FF1FA383FF1F9883FF1F3887FF1FD488FF1FA386FF1F2288FF1F5085FF1FA483FF1F0120002105F084FC0022AF4B1A7064209D
:404EC0000DF098FC0CF0F4FEF8BD0CF0C7FE082841F0EC81A94B1B78DBB2AA2B56D1A74B9B79DBB2C32B51D1A44BDB79DBB23C2B4CD1A24BDB787E3B042B47D8DFE803F0E7
:404F00003F03122130001F229B4B1A700120062105F056FC00229A4B1A700122994B83F8A32033E01F22944B1A700120062105F047FC0022924B1A700222924B83F8A320B1
:404F400024E01F228C4B1A700120062105F038FC00228B4B1A7003228A4B83F8A32015E01F22854B1A700120062105F029FC0022834B1A700422834B83F8A32006E00120BB
:404F8000002105F01DFC00227B4B1A7064200DF031FC0CF08DFEF8BD0CF060FE082841F08581764B1B78DBB2AA2B40F0BE80734B9B79DBB2C32B40F0B880704BDB79DBB230
:404FC0003C2B40F0B2806E4B1B78042B36D86B4AD278D2B2092A0FD80133DAB2684B1A70664BD878684911443030C872D97830310120C9B205F01AFC604BDB78DBB20A2B0B
:405000000BD15F4B1A780132D2B21A705E4B13443021D972012005F009FC584BDB78DBB2512B0BD1564B1A780132D2B21A70564B13442C21D972012005F0F8FB4F4BDB788B
:40504000DBB20B2B24D14E4B1A7882B90E224A4B1A704E4B1B78012B04D101205D2105F0AFFB15E00120702105F0AAFB10E00120202105F0DBFB424B1B78434A1A44D27AA3
:405080002C2A02D10021424A1170013B3C4A13703A4BDB78DBB20C2B47D1394B1B78052B43D1394B1B7B353BDBB2022B3DD80120392105F085FB324B1B78334901F80B3F2D
:4050C0004FF4DD7004F058FF012805D12E4B1A7B02F00F022F4B1A7040F25A202E4904F04BFF012821D1284B997B01F00F012B4A11701A7C02F00F02294B1A703C2105F0DE
:405100005FFB4FF4FA700DF075FB0E221A4B1A701E4B1B78012B04D101205D2105F050FB03E00120702105F04BFB64200DF062FB0CF0BEFDF8BD0CF091FD082841F0B680C5
:405140000E4B1B78DBB2AA2B40F08A800B4B9B79DBB2C32B40F08480084BDB79DBB23C2B7ED1064BDB78DBB28F2B1BD0902B45D07E2B75D16DE000BFA283FF1FC88AFF1F50
:405180005185FF1F3887FF1F9886FF1F4385FF1FA383FF1F4485FF1FA386FF1FA583FF1F2388FF1F9349002381F82D3081F82E304FF4DE702D3104F0DFFE01281AD10022D9
:4051C0008D4B1A703C2105F0FBFA4FF4FA700DF011FB0E22894B1A70894B1B78012B04D101205D2105F0ECFA3AE00120702105F0E7FA35E00120FDF7F3FA31E07D4901232C
:4052000081F82D3081F82E304FF4DE702D3104F0B3FE012819D1784B18703C2105F0D0FA4FF4FA700DF0E6FA0E22744B1A70744B1B78012B04D101205D2105F0C1FA0FE01F
:405240000120702105F0BCFA0AE00220FDF7C8FA06E00120002105F0B3FA0022674B1A7064200DF0C7FA0CF023FDF8BD0CF0F6FC082841F01B80634B1B78DBB2AA2B40F017
:40528000B380604B9B79DBB2C32B40F0AD805D4BDB79DBB23C2B40F0A7805B4B1B782BBB584AD278D2B2092A0FD80133DAB2564B1A70544BD878554911443030C872D9787C
:4052C00030310120C9B205F0B1FA4E4BDB78DBB20A2B0BD14C4B1A780132D2B21A704B4B13443021D972012005F0A0FA454BDB78DBB20B2B1BD1444B1A783AB901200021FC
:4053000005F05EFA00223D4B1A7010E00120202105F08CFA3C4B1B783C4A1A44D27A2C2A02D100213A4A1170013B374A1370354BDB78DBB20C2B57D1334B1B78012B53D126
:405340000120392105F03CFA2F4B1A782F4BDA72284B93F8A330012B08D12C490A7B2D4B1A7040F2C1100B3104F006FE214B93F8A330022B08D125490A7B274B1A7040F2BB
:40538000C3100B3104F0F8FD1A4B93F8A330032B08D11E490A7B214B1A7040F2C5100B3104F0EAFD134B93F8A330042B08D117490A7B1B4B1A7040F2EE300B3104F0DCFD39
:4053C0004FF4FA700DF016FA0E220C4B1A700C4B1B78012B04D101205D2105F0F1F903E00120702105F0ECF964200DF003FA0CF05FFCF8BD3887FF1FA685FF1FA283FF1F17
:405400004385FF1FC88AFF1F5185FF1F9886FF1FA383FF1F2288FF1FD488FF1F5085FF1FA483FF1F0CF01AFC082840F03F87C14B1B78DBB2AA2B40F09E82BE4B9B79DBB2F5
:40544000C32B40F09882BB4BDB79DBB23C2B40F09282B84BDB787E3B252B00F28C82DFE813F069028A028A028A028A028A022600FE004A0021016E009200DA00B6008A0266
:405480008A028A028A028A028A028A028A0247028A028A022402450171018A028A028A028A028A028A029501B901DD010102A24901230B7000234B7040F2C71004F05CFDA2
:4054C000012840F058823C2105F07AF94FF4FA700DF090F90E22994B1A70994B1B78012B04D101205D2105F06BF944E20120702105F066F93FE2904901230B700B234B70C5
:4055000040F2C71004F038FD012840F034823C2105F056F94FF4FA700DF06CF90E22874B1A70874B1B78012B04D101205D2105F047F920E20120702105F042F91BE27E490C
:4055400001230B7004234B7040F2C71004F014FD012840F010823C2105F032F94FF4FA700DF048F90E22754B1A70754B1B78012B04D101205D2105F023F9FCE1012070213C
:4055800005F01EF9F7E16C4901230B700C234B7040F2C71004F0F0FC012840F0EC813C2105F00EF94FF4FA700DF024F90E22634B1A70634B1B78012B04D101205D2105F0BC
:4055C000FFF8D8E10120702105F0FAF8D3E15A4901230B7009234B7040F2C71004F0CCFC012840F0C8813C2105F0EAF84FF4FA700DF000F90E22514B1A70514B1B78012B96
:4056000004D101205D2105F0DBF8B4E10120702105F0D6F8AFE1484901230B7008234B7040F2C71004F0A8FC012840F0A4813C2105F0C6F84FF4FA700DF0DCF80E223F4B17
:405640001A703F4B1B78012B04D101205D2105F0B7F890E10120702105F0B2F88BE1364901230B704B7040F2C71004F085FC012840F081813C2105F0A3F84FF4FA700DF0C8
:40568000B9F80E222D4B1A702D4B1B78012B04D101205D2105F094F86DE10120702105F08FF868E1244901230B7006234B7040F2C71004F061FC012840F05D813C2105F043
:4056C0007FF84FF4FA700DF095F80E221B4B1A701B4B1B78012B04D101205D2105F070F849E10120702105F06BF844E1124901230B700E234B7040F2C71004F03DFC012848
:4057000040F039813C2105F05BF84FF4FA700DF071F80E22094B1A70094B1B78012B04D101205D2105F04CF825E10120702105F047F820E1C88AFF1F4C85FF1FA283FF1F6A
:405740004385FF1FB84901230B700D234B7040F2C71004F011FC012840F00D813C2105F02FF84FF4FA700DF045F80E22AF4B1A70AF4B1B78012B04D101205D2105F020F879
:40578000F9E00120702105F01BF8F4E0A64901230B7003234B7040F2C71004F0EDFB012840F0E9803C2105F00BF84FF4FA700DF021F80E229D4B1A709D4B1B78012B04D136
:4057C00001205D2104F0FCFFD5E00120702104F0F7FFD0E0944901230B7005234B7040F2C71004F0C9FB012840F0C5803C2104F0E7FF4FF4FA700CF0FDFF0E228B4B1A70F0
:405800008B4B1B78012B04D101205D2104F0D8FFB1E00120702104F0D3FFACE0824901230B7007234B7040F2C71004F0A5FB012840F0A1803C2104F0C3FF4FF4FA700CF0DD
:40584000D9FF0E22794B1A70794B1B78012B04D101205D2104F0B4FF8DE00120702104F0AFFF88E0704901230B700A234B7040F2C71004F081FB01287DD13C2104F0A0FFEB
:405880004FF4FA700CF0B6FF0E22684B1A70684B1B78012B04D101205D2104F091FF6AE00120702104F08CFF65E05F4901230B7002234B7040F2C71004F05EFB01285AD122
:4058C0003C2104F07DFF4FF4FA700CF093FF0E22564B1A70564B1B78012B04D101205D2104F06EFF47E00120702104F069FF42E04D4900230B704B7040F2C71004F03CFB96
:40590000012838D13C2104F05BFF4FF4FA700CF071FF0E22454B1A70454B1B78012B04D101205D2104F04CFF25E00120702104F047FF20E03C4900230B704B7040F2C7104D
:4059400004F01AFB01280FD10E22384B1A70384B1B78012B03D15D2104F032FF0BE00120702104F02DFF06E00120002104F028FF00222E4B1A7064200CF03CFF0CF098F9B2
:40598000F8BD0CF06BF908283ED12A4B1B78DBB2AA2B34D1274B9B79DBB2C32B2FD1254BDB79DBB23C2B2AD1224BDB78DBB20A2B19D1214B5878214B19780122204B1B78AA
:4059C00006F092F94FF4FA700CF014FF01200C2104F0F6FE6422154B1A701A480CF08CFB0CF05CFB0BE001200C2104F0E9FE64220E4B1A7013480CF07FFB0CF04FFB642074
:405A00000CF0F8FE0CF054F90F4B1B78132B40F24D8401200C2104F0D3FE6422034B1A700022094B1A70F8BD4C85FF1FA283FF1F4385FF1FC88AFF1F9486FF1F3888FF1F39
:405A40009883FF1F6D2200009A85FF1F0CF006F9082840F02B84B74B1B78DBB2AA2B5ED1B44B9B79DBB2C32B59D1B24BDB79DBB23C2B54D1AF4BDB78DBB2392B0FD002D8D8
:405A8000382B05D04BE07E2B42D0942B35D046E00021A94B1970012004F092FE3FE0A64D00232B7001203B2104F08AFEA34C607807F00CF960780A2104F0ECFA60780A212F
:405AC00004F0E8FA60780A2104F0E4FA60781D2104F0E0FA6078562104F0DCFA6078312104F0D8FA64232B700122954B1A7095480CF002FB0CF0D2FA11E001202F2104F06B
:405B00005FFE0022904B1A7028228B4B1A7006E00120002104F054FE0022874B1A7064200CF068FE0CF0C4F8F8BD0CF097F8082840F0BC837F4B1B78DBB2AA2B3CD17D4BDA
:405B40009B79DBB2C32B37D17A4BDB79DBB23C2B32D1784BDB78DBB2912B04D0922B13D07E2B29D121E01822734B1A7001200A2104F026FE0122754B1A700422744B1A7045
:405B80000022714B1A7017E018226B4B1A7001206F2104F015FE21226C4B1A7004226C4B1A700022684B1A7006E00120002104F007FE0022604B1A7064200CF01BFE0CF0FD
:405BC00077F8F8BD634B012013F80B1F5F4A127804F056FC012820D16E2104F0F1FD2322554B1A700120014604F070FB052810D90A200CF0FFFD012005F08AFB012021210D
:405C000004F064FB052840F25183012005F004FBF8BD0120FCF7E4FDF8BD0120FCF7E0FDF8BD0CF01BF8082840F04083414B1B78DBB2AA2B77D13F4B9B79DBB2C32B72D16D
:405C40003C4BDB79DBB23C2B6DD13A4BDB78DBB2392B04D07E2B47D0382B64D13CE03E4B5A78012A07D1354901230B704B703B490B7002234B70022A08D1304B01221A70C4
:405C800003215970354B1A7004225A7040F263202A4904F071F9012845D140F265202F4904F06AF901283ED1682104F089FD4FF4FA700CF09FFD0E221F4B1A70284B1B7808
:405CC000012B04D101205D2104F07AFD2BE00120702104F075FD26E02622174B1A700120672104F06DFD1EE01E4B5B78012B03D100221C4B5A7002E001221A4B5A7040F242
:405D0000DA30184904F038F901203C2104F058FD4FF4FA700CF06EFD0120002104F050FD0022054B1A7064200CF064FD0BF0C0FFF8BD00BFC88AFF1FA283FF1F9486FF1F7F
:405D40009A85FF1F6D2200005185FF1F9C85FF1F9B85FF1F9886FF1F9086FF1F3487FF1F4385FF1FA083FF1F0BF078FF082840F09D82B54B1B78DBB2AA2B40F0C880B24B1B
:405D80009B79DBB2C32B40F0C280AF4BDB79DBB23C2B40F0BC80AC4BDB78DBB28C2B09D003D87E2B00F0AC80B1E08D2B40D08E2B79D0ACE0A54B5B78012B07D1A44A012070
:405DC000107002215170A34A10705170022B07D19F4B0121197004225A709E4B19705A7040F263209A4904F0C7F8012840F08F8040F26520974904F0BFF8012840F08780F6
:405E00006A2104F0DDFC4FF4FA700CF0F3FC0E22914B1A70914B1B78012B04D101205D2104F0CEFC73E00120702104F0C9FC6EE0864B5A78012A06D1854901230B704B7036
:405E400084490B704B70022A07D1814B0121197003225A707F4B19705A7040F263207C4904F08AF8012852D140F26520794904F083F801284BD1692104F0A2FC4FF4FA7066
:405E80000CF0B8FC0E22744B1A70744B1B78012B04D101205D2104F093FC38E00120702104F08EFC33E06A490120087000224A70684B18705A7040F2632004F05DF8012895
:405EC00025D140F26520634904F056F801281ED16C2104F075FC4FF4FA700CF08BFC0E225D4B1A705D4B1B78012B04D101205D2104F066FC0BE00120702104F061FC06E066
:405F00000120002104F05CFC0022534B1A7064200CF070FC0BF0CCFEF8BD0BF09FFE082840F0C481484B1B78DBB2AA2B40F0EF80454B9B79DBB2C32B40F0E980424BDB7926
:405F4000DBB23C2B40F0E380454B1A78032A26D83D4BDB78DBB2092B0ED83B4BD978414B1344303183F88E1001202A2104F05EFC3B4B1A7801321A70334BDB78DBB20A2B75
:405F80000DD1374C2278374B1344302183F88E1001202A2104F04AFC2378013323702A4BDB78DBB20B2B0ED12D4B1B781BB90120FCF716FC07E0013BDAB2294B1A7001205E
:405FC000202104F033FC204BDB78DBB20C2B40F09E80234B1A78002A00F08A80002322490B6022490B6094460846DFF884E01D4F1D4B00250DE04C1C1EF80460394491F849
:406000008E108E4203D119680131196000E01D600460664601688A42EDD8154B1A78124B1B689A4226D10120262104F0C9FB4FF4FA700CF0DFFB2222074B1A700120712170
:4060400004F0BEFB63E000BFC88AFF1F9086FF1F9486FF1F3487FF1FA283FF1F4385FF1F5185FF1F9886FF1FA885FF1FA883FF1F0C81FF1F00238E4A13608E4A1360114614
:406080008D4D8E4C8A4A0CE0E81890F82470E01890F88E00874202D110680130106001330B600B689E42EFD8814B1B68042B0FD10120262104F084FB4FF4FA700CF09AFB5D
:4060C00022227F4B1A700120712104F079FB1EE00120272104F074FB6422794B1A700122784B1A7078480CF007F80BF0D7FF0EE00120272104F064FB6422714B1A700122BA
:40610000704B1A7070480BF0F7FF0BF0C7FF64200CF070FB0BF0CCFDF8BD0BF09FFD082840F0C480694B1B78DBB2AA2B78D1674B9B79DBB2C32B73D1644BDB79DBB23C2BA3
:406140006ED1634B1A78032A27D8604BDB78DBB2092B10D85D4BD87858491144303081F88E00D97830310120C9B204F05FFB584B1A7801321A70554BDB78DBB20A2B0CD158
:40618000534C22784D4B1344302183F88E10012004F04CFB2378013323704C4BDB78DBB20B2B0ED14A4B1B781BB90120FCF718FB07E0013BDAB2464B1A700120202104F0C0
:4061C00035FB424BDB78DBB20C2B29D1404B1B78042B25D10120392104F0F2FA0023384A13703B4A1178344A1170324A1360334D314C05E0581C2B4493F88E30235410601A
:4062000013689942F6D840F29F202B4903F0B4FE30B90120552104F0D3FA6422284B1A7064200CF0E7FA0BF043FDF8BD0BF016FD08283BD1254B1B78DBB2AA2B31D1234BFC
:406240009B79DBB2C32B2CD1204BDB79DBB23C2B27D11E4BDB78DBB2BC2B02D0BD2B10D01FE01C4901240C704C704FF47D7003F083FE2046702104F0A3FA0E22104B1A701B
:406280000FE0144901240C7002234B704FF47D7003F072FE2046702104F092FA0E22084B1A7064200CF0A6FA0BF002FDF8BD00BFA885FF1FA883FF1F0C81FF1F9886FF1FF1
:4062C000A283FF1F9A85FF1F6D220000C88AFF1F5185FF1F9086FF1FF8B59A4B1B78642B03F25B85DFE813F0740080009C00A50004018E012102B702EA022B0319045F0465
:40630000CC044C057F055D067707C6076E080609A209EF0A410CD00DDA0EC011FB11D2124F13B613861425150216C3182E199D19EA191A1ABE1A9A1B991C221D591D591D7B
:40634000591D591D591D591D591D591D591D591D591D591D591D591D591D591D591D591D591D591D591D591D591D591D591D591D591D591D591D591D591D591D591D591D5D
:40638000591D591D591D591D591D591D591D591D591D591D591D591D591D591D591D591D591D591D591D591D591D591D591D591D6500654B1B78012B43F2EF840024614B81
:4063C0001C700BF05DFF0BF0C3FE5F4B1C70F8BD5E480BF047FF0BF017FF00225A4B1A700122584B1A70F8BD0BF02AFD082843F0D4840222534B1A700BF04CFD0BF040FF1E
:406400000BF0A6FE524B1B78022B04D10220632104F0D6F9F8BD0220452104F0D1F9F8BD0322484B1A7064200CF0E4F90BF032FDF8BD0BF005FD082843F0AF84454B1B783E
:40644000DBB2AA2B4ED1434B9B79DBB2C32B49D1404BDB79DBB23C2B44D13E4BDB78DBB2592B2DD002D8452B1FD03BE05C2B02D07E2B30D036E00022374BDA70344B1B7826
:40648000012B06D104222F4B1A700220052104F097F92F4B1B78022B24D11922294B1A700220492104F08CF91CE00F22254B1A7000222A4B1A700220252104F081F911E067
:4064C0002722204B1A700022244B1A700220252104F076F906E00220002104F071F90022184B1A7064200CF085F90BF0D3FCF8BD0BF0A6FC082843F05084164B1B78DBB210
:40650000AA2B79D1134B9B79DBB2C32B74D1114BDB79DBB23C2B6FD10F4BDA7822F00302DA700C4BDB78DBB23B2B4DD004D80F2B16D0102B29D05FE0432B3DD07E2B54D0A8
:406540005AE000BF4F85FF1F4185FF1FB92200004385FF1FDC8AFF1F3C88FF1F3187FF1F0522984B1A700024974B1C700220062104F026F902204821224604F057F9934BB8
:40658000DA7842F00202DA7036E005228D4B1A7000248D4B1C7002200D2104F011F98C4B1C7002204721224604F040F9874BDA7842F00102DA701FE00622824B1A700220CF
:4065C000072104F0FDF817E0824B1B78022B04D10220632104F0F4F803E00220452104F0EFF80222774B1A7006E00220002104F0E7F80022734B1A7064200CF0FBF80BF021
:4066000049FCF8BD0BF01CFC082843F0C683724B1B78DBB2AA2B40F082806F4B9B79DBB2C32B7CD16C4BDB79DBB23C2B77D1664B1B786A4A1278013A93423EDC664AD2783A
:40664000D2B2092A0FD80133DAB25F4B1A70624BD8785E4911443030C872D97830310220C9B204F0E3F85C4BDB78DBB20A2B0BD1554B1A780132D2B21A70544B1344302185
:40668000D972022004F0D2F8534BDB78DBB2512B13D14D4B1B7883B14D4A12786AB90133DAB2494B1A70494B13442C21D972022004F0BCF80122464B1A70474BDB78DBB253
:4066C0000B2B1BD1404B1A783AB90220052104F077F804223B4B1A7010E00220202104F0A5F8394B1B78394A1A44D27A2C2A02D10021374A1170013B334A1370364BDB7803
:40670000DBB20C2B0BD1304B1B7843B12F4AD37206222C4B1A700220072104F051F864200CF068F80BF0B6FBF8BD64200CF062F80BF086FB08281CD1274B1B78DBB2AA2B2E
:4067400011D1254B9B79DBB2C32B0CD1224BDB79DBB23C2B07D1204BDB78DBB27E2B02D10022184B1A7064200CF044F80BF092FBF8BD1B4B187906F07FFE072843F00D83A3
:4067800032200CF037F8164B187906F089FE154B187032200CF02EF80C4BDB7813F0030324D00F4A10790F4A11780F4A09F058FEE0B90220002104F003F80022014B1A70BB
:4067C000F8BD00BF4F85FF1F3187FF1F3C88FF1F5285FF1F4385FF1FDC8AFF1F4485FF1F9883FF1F9686FF1F4788FF1F01200BF0A5FF9F4B187906F053FE9E4B18700028BA
:4068000003F0CB829C4B1B7803F00F03834211D09A4B1B7803F00F0398420BD0984B1B7803F00F03984205D0964B1B7803F00F03984202D102200AF0A3FA8D4B187940F01F
:4068400010000AF091FD07228F4B1A700220082103F0B6FFF8BD32200BF0CCFF844B187906F00AFE0638052803F29782DFE810F02200951A951A1F001400060064200BF05D
:40688000B9FF7B4B187906F07FFE012843F0858208227D4B1A70F8BD754B187906F074FE012843F07A820822774B1A70F8BDFBF7C5FFF8BD0022744B1A70F8BD734B1B78AA
:4068C000012B02D0022B10D0F8BD02200B2103F077FF0A226C4B1A706D480BF0C3FC0BF093FC00226B4B1A70F8BD6B4BDB7813F0040F11D166480BF0B5FC0BF085FC0024A9
:40690000644B1C7002200A2103F05AFF09225E4B1A70624B1C70F8BD02200B2103F050FF0A22594B1A7000245B4B83F8834058480BF098FC0BF068FC564B1C70F8BD0BF0DA
:406940007FFA082840F0D480554B1B78DBB2AA2B40F0C980524B9B79DBB2C32B40F0C3804F4BDB79DBB23C2B40F0BD800022494B1A704A4B1B78062B64D8494AD278D2B2B8
:40698000092A10D80133DAB2444B1A70444BD87841491144303081F86500D97830310220C9B203F043FF3E4BDB78DBB20A2B0CD13A4B1A780132D2B21A70374B1344302166
:4069C00083F86510022003F031FF354BDB78DBB26A2B0CD1314B1A780132D2B21A702E4B13442D2183F86510022003F01FFF2C4BDB78DBB21A2B25D9294BDB78DBB2422BA5
:406A000020D80022274B1A601C46254E264D16E0F178C9B2EA18127A91420DD11F490A780132D2B20A704133D9B21B4B134483F86510022003F0FAFE23680133236023684E
:406A4000192BE5D9164BDB78DBB20B2B36D1134B1A785ABB02200B2103F0B2FE0A220A4B1A700D4B002283F8652083F8832025E09883FF1F9686FF1F2288FF1FD488FF1F43
:406A80005085FF1FA483FF1F4F85FF1F4385FF1FB92200004185FF1F3C88FF1F3187FF1FDC8AFF1FA883FF1F0C81FF1F0220202103F0BCFEAB4B1A78013A1A70AA4BDB7832
:406AC000DBB20C2B0FD1A74B1B7863B1A74C84F865300A22A64B1A7002200B2103F070FE012384F8833064200BF084FE0BF0D2F9A04B1B781D2B43F2508102200B2103F0D8
:406B00005FFE0A229A4B1A70984A002382F8653082F88330974A1370F8BD0BF091F9082831D1914B1B78DBB2AA2B27D18E4B9B79DBB2C32B22D18C4BDB79DBB23C2B1DD11B
:406B4000894BDB78DBB2382B09D0392B16D10220372103F035FE0D22854B1A700EE002200C2103F02DFE6422814B1A700122814B1A7081480BF076FB0BF046FB64200BF011
:406B800039FE0BF087F97B4B1B781D2B43F2058102200C2103F014FE6422754B1A700122744B1A70F8BD0220012103F08FFB052840D90A200BF01EFE0220212103F086FB62
:406BC000052837D9022003F089FA012832D133200BF07EF90220332103F0C2FA50B30022664B1A601C460227604E08E0384603F029FB354485F829002368013323602568B6
:406C0000072DF3D9594CE37843F00403E3700220132103F0D5FD4FF4FA700BF0EBFD0023504A1370237102200E2103F0C9FD0C224F4B1A700BF004F9082843F0AE804A4BCE
:406C40001B78DBB2AA2B15D1474B9B79DBB2C32B10D1454BDB79DBB23C2B0BD1424BDB78DBB23B2B06D10322414B1A700220632103F0A6FD64200BF0BDFD0BF00BF9F8BD75
:406C80000BF0DEF8082843F08880374B1B78DBB2AA2B60D1344B9B79DBB2C32B5BD1324BDB79DBB23C2B56D12E4B1B78052B25D82D4AD278D2B2092A0FD80133DAB2294BFE
:406CC0001A70294BD8782949114430300871D97830310220C9B203F0A9FD234BDB78DBB20A2B0BD11F4B1A780132D2B21A701F4B134430211971022003F098FD1A4BDB7824
:406D0000DBB20B2B12D1174B1A783AB90220052103F056FD0422164B1A7007E00220202103F084FD0F4B1A78013A1A700E4BDB78DBB20C2B0FD10B4B1B7863B10B4A52794B
:406D4000302A08D004210A4A1170084A13710220052103F035FD64200BF04CFD0BF09AF8F8BD00BF3187FF1FDC8AFF1F3C88FF1F4F85FF1F4185FF1FB92200005485FF1FF7
:406D8000AF4B5878AF4B19780022AF4B1B7904F0ABFFAE4B1B78012B02D0AD4B5B787BB902200C2103F00CFD6422AA4B1A700122A94B1A70A9480BF055FA0BF025FAF8BDAC
:406DC0000220312103F0FCFC2122A24B1A700022A34B1A700122A04B1A70A0480BF042FA0BF012FAF8BD0BF02BF8082842F0D5879C4B1B78DBB2AA2B40F0CD80994B9B7940
:406E0000DBB2C32B40F0C780964BDB79DBB23C2B40F0C180934BDB78DBB2652B00F087800AD85A2B53D002D8582B12D0B3E05B2B67D05D2B27D0AEE07E2B00F0A58003D8C2
:406E4000702B00F09980A6E0932B78D0962B63D0A1E010227F4B1A700022814B1A7002203E2103F0ADFC02F0B7FF012802D1022003F05CFD02F0E8FF012840F08C800220E0
:406E800003F0B0FD87E01322724B1A7002205C2103F096FC02200021892240F2AD1303F07FFE02200021D62240F2A71303F078FE02200121242240F2B31303F071FE022045
:406EC000012178224FF47A7303F06AFE63E01222604B1A700220602103F072FC022003F0E3FD022003F018FF022004F095F8022004F012F9022003F08FFF022004F00CF8F9
:406F000049E01122534B1A7002202F2103F058FC0022534B1A703EE01B224E4B1A7002205F2103F04DFC00224D4B1A7033E01422484B1A7002204D2103F042FC2BE02322B3
:406F4000444B1A7002206E2103F03AFC0220012103F0BCF905281ED90A200BF04BFC022004F0D6F90220212103F0B0F9052812D9022004F051F90EE02922364B1A700220DF
:406F8000892103F01DFC06E00220002103F018FC0022304B1A7064200BF02CFC0AF07AFFF8BD0AF04DFF082842F0F7862D4B1B78DBB2AA2B40F009812A4B9B79DBB2C32BA5
:406FC00040F00381274BDB79DBB23C2B40F0FD80234B1A78072A26D8224BDB78DBB2092B0ED8204BD978204B1344303183F88E1002202A2103F01AFC194B1A7801321A70BF
:40700000184BDB78DBB20A2B0DD1154C2278164B1344302183F88E1002202A2103F006FC2378013323700F4BDB78DBB20B2B25D10B4B1B78D3B90220FBF7D2FB1EE000BFA0
:407040003487FF1F9686FF1F9883FF1F4385FF1FA083FF1F4F85FF1F4185FF1FB92200003187FF1FDC8AFF1F3C88FF1F013BDAB2A84B1A700220202103F0D8FBA64BDB78FE
:40708000DBB20C2B40F0A180A24B1A78002A00F08D800023A1490B60A1490B6094460846DFF884E29F4F9D4B002510E04C1C0EEB040696F8D760394491F88E1030398E42EB
:4070C00003D119680131196000E01D600460664601688A42EAD8944B93F8D7208F4B1B689A421AD10220262103F06AFB4FF4FA700BF080FB0E228D4B1A708D4B1B78012B9A
:4071000004D102205D2103F05BFB5EE0022B5CD10220702103F054FB57E000237F4A13607F4A13601146834D7E4C7C4A0CE0E81890F82470E01890F88E00874202D1106851
:407140000130106001330B600B689E42EFD8734B1B68082B1AD10220262103F031FB4FF4FA700BF047FB0E22704B1A70704B1B78012B04D102205D2103F022FB25E0022B3E
:4071800023D10220702103F01BFB1EE00220272103F016FB6422654B1A700122664B1A7066480BF05FF80BF02FF80EE00220272103F006FB64225D4B1A7001225E4B1A7019
:4071C0005E480BF04FF80BF01FF864200BF012FB0AF060FEF8BD0AF033FE082842F0DD854D4B1B78DBB2AA2B3ED14B4B9B79DBB2C32B39D1484BDB79DBB23C2B34D1464BD1
:40720000DB78DBB23F2B04D07E2B26D03E2B2BD116E000233F4A1370494A13701522434B1A700220402103F0CBFA02206121062203F0FCFA02206D21072203F0F7FA13E002
