:4000000000800020110000009D0000009D00000080B500AF064B064A126842F020021A60044B054A12681A6000F004FB00F03AF8E8460040BC760040FA46004010B5054CEF
:40004000237833B9044B13B10448AFF300800123237010BD2881FF1F00000000901D000008B5064B1BB106480649AFF300800648036813B1054B03B1984708BD00000000C2
:40008000901D00002C81FF1F0881FF1F0000000080B500AF00F078FAFEE700BF80B400AFFEE700BF80B586B000AF224B7B61224B3B61204B7B6135E03B691B68FB603B69C2
:4000C0005B68BB603B699B683B6000237B600CE0FB681A68BB681A60BB680433BB60FB680433FB607B6804337B607A683B689A42EED13B69DB683B6000237B6008E0BB686A
:4001000000221A60BB680433BB607B6804337B607A683B689A42F2D13B6910333B617B69013B7B617B69002BC6D101F0F5FDFFF7AFFFFEE701000000A021000080B582B0DB
:4001400000AF174B174A1A60174B174A126842F400721A6000237B600FE07B68032B04D8124B7A6853F8223000E0114B114A796842F821307B6801337B607B682F2BECD987
:400180000D4B1B78DAB20D4B1A700D4B094A1A6000F026F90B4B00221A600837BD4680BD0CED00E00004FA0514ED00E0000000009D0000000080FF1FBC7600400481FF1F34
:4001C00008ED00E00081FF1F80B582B000AF78603960786800213A6801F0CDFD0837BD4680BD00BF80B584B000AFF860B9607A60F868B9687A6801F0B5FD1037BD4680BD78
:4002000080B584B000AFF860B9607A60F868B9687A6801F0A7FD1037BD4680BD80B483B000AF0346FB71FEE780B487B000AF7860396000233B6100237B6126E07B699B005E
:400240007A6813441B68BB60BB68FB73BB6823F0FF03BB6013E03B695B003A6813441B781A46BB6813443A69520039680A4452781A703B6901333B61FB7B013BFB73FB7B29
:40028000002BE8D17B6901337B617B69102BD5D91C37BD465DF8047B704700BF80B582B000AF304B19221A802F4B18221A702F4B02221A704FF0402308221A702C4B03223B
:4002C0001A702C4B2C4A1278D2B21A702B4B08221A802B4B41F251221A800023FB7019237B6014E0FB785B00DAB2264B1B78DBB203F00103DBB21343DBB203F00303FB70B0
:400300004FF4F07000F00CFF7B68013B7B607B68002B02D0FB78032BE4D17B68002B02D10320FFF77BFF184B4FF480721A80164B07221A70154B00221A70154B48221A70D5
:40034000114B00221A70134B02221A70124B124A1278D2B242F00102D2B21A700837BD4680BD00BF80400040824000400043004000420040A14600400801004922420040FD
:40038000204200402542004004400040064000400840004001400040A243004080B483B000AF0B4B1B78FB710A4BFA7902F00702D2B21A70084BFA791209D2B21A70074B3F
:4003C00044221A700C37BD465DF8047B704700BFCF0100496E5800406F5800407658004080B582B000AF72B6334B334A1278D2B242F02402D2B21A700023FB7113E0FA79A7
:4004000013465B0013445B002C4A13443B603B681A683B689B889BB210461946FFF7D4FEFB790133FB71FB79072BE8D924482549FFF7FAFE244B244A1278D2B242F00202D5
:40044000D2B21A70214B214A1278D2B242F00202D2B21A701E4B1E4A1278D2B242F04002D2B21A701B4B1B4A1278D2B242F01002D2B21A70184819490A22FFF7C1FE184BB3
:40048000174A1278D2B242F00802D2B21A70154B01221A70FFF702FF124B81221A70124B01221A70FFF77AFF104809490E22FFF799FE0837BD4680BDE8460040941D000077
:4004C000C41D0000081E00000350014013500140A0430040C24300406051004068210000224300400048004004000840B043004080B485B000AF78600B467B800023FB8154
:400500000BE07B88013B7A6813441B781A46FB891344FB817B88013B7B807B88002BF0D1FB895B429BB218461437BD465DF8047B704700BF80B586B000AFF860B9607A601C
:400540000023FB75FA680F4B9A4206D0FB68002B03D0002000F070FF0CE00BE07B68013B7B60FA68BB681A447B6813441A78FB7D1344FB757B68002BF0D1FB7D18461837E7
:40058000BD4680BD0080004080B582B000AF06237B60002000F06EF80346002B01D100237B601C4B1B681B68002000211A46FFF7C1FF0346FB70184B1B681B78FA78D31A17
:4005C000FB70FB785B42FB70134B1B681B78FA789A4204D10F4B1B681B68002B02D1002000F02AFF0D4B1B78DBB203F0C003402B02D07B68002B05D0084B00221A7000207A
:4006000000F0AEF8322000F0ABF800F009F80837BD4680BD1081FF1F0C81FF1FFA46004080B500AF024B80221A7000F011FF80BDFA46004080B500AF0C4B1B78DBB203F08D
:40064000C003802B11D1094B00221A700220002100F0DCFB0346002B07D00220002100F0D5FB0346184600F003F880BDFA460040004700BF90B587B000AF0346FB71FB7929
:400680000320194600F0C2FB034601331C02FB790420194600F0BAFB03462344FB600023FB740023BB74FB790320194600F0AEFB034601331B027B6111E07B691B78FB720B
:4006C000FB7A002B04D0FB7AFF2B01D00123FB74BA7CFB7A1344BB747B6901337B617A69FB689A42E9D3FB790320194600F08EFB034601331B02DB087B61FA68174B9A4218
:4007000002D0FB68DB0801E04FF40043FB600AE07B6903F190431B78DAB2BB7C1344BB747B6901337B617A69FB689A42F0D3BB7C5B42BB74BC7CFB790120194600F066FB15
:4007400003469C4202D1FB7C002B01D1062300E0002318461C37BD4690BD00BFC0FF030080B5ADF5247D00AF0246FB1D1A700023A7F88A320023A7F888320A2387F88732ED
:40078000002387F8863200F055FD0346002B02D0002000F051FE00F01BFC62B6002387F88D32FB1D1B78002B02D0FB1D1B7800E0FF2307F59E7107F26A2208464FF49671FB
:4007C00000F034FCC7F87802FB1D1B78002B04D097F88732013B87F8873297F88732002B03D0D7F87832002BDBD1D7F87832002B00D0B0E2B7F86A32062B04D907F59E7338
:400800001B78012B03D0042387F88D3244E007F59E73DB781B029AB207F59E739B781343A7F88A32B7F88A32053307F59E72D35C1B029AB2B7F88A32043307F59E71CB5CE8
:400840001343A7F87632B7F88A32DA1DB7F86A329A4203D9032387F88D321DE0B7F88A32063307F59E72D35C172B03D0042387F88D3211E0B7F88A3204339BB207F59E72D0
:4008800010461946FFF734FE0346B7F876229A4202D0082387F88D320023A7F88E3297F88D32002B40F04C8207F59E731B7987F87532042387F88D3207F59E735B78313B43
:4008C0000A2B00F2398201A252F823F0F908000033090000390D0000CD0900003F0B0000390D0000510B0000A70B0000CD090000EB0B0000210D000097F88632012B17D1CA
:40090000B7F88A32002B13D10020FFF7B3FE0346002B14BF00230123DBB21A4607F59E731A710123A7F88E32002387F88D3207E206E297F88632012B47D1B7F88A32012B8C
:4009400043D197F87532032B3FD8D14B1B681B681B0C87F8743297F8752297F874329A4208D1CB4B1B681B681B0A9BB2DBB2A7F884320DE097F8752297F874329A4203D9FA
:400980000023A7F8843203E04FF48073A7F88432B7F88432DAB207F59E731A71B7F884321B0A9BB2DAB207F59E735A7107F59E73FF229A7107F59E730022DA710423A7F814
:4009C0008E32002387F88D32BAE1B9E107F59E735B78342B23D197F88632012B40F0B081B7F88A32032B40F0AB8197F875323F2B08D997F875325BB2002B03DB1023A7F806
:400A0000883203E04FF49073A7F88832B7F8883207F11002104600211A4601F0ACF997F88632012B40F08A80B7F88A32022B40F28580B7F8883207F11002D118B7F88A3257
:400A4000033B07F59E720732084611461A4601F089F9B7F88822B7F88A3213449BB2033BA7F8883297F875323F2B0AD997F875325BB2002B05DB00F099FC1023A7F88A3298
:400A800003E04FF49073A7F88A32B7F88822B7F88A329A424BD107F59E739B791B029AB207F59E735B791343A7F8883297F875323F2B27D897F875329BB21B029AB2B7F8A2
:400AC00088321344A7F87232714B1B681B681B0AA7F882326E4B1B681B68DBB2002B04D0B7F882320133A7F88232B7F87222B7F882329A4206D20A2387F88D320023A7F8AC
:400B000088321DE197F87502B7F8881207F11002B7F88A3200F0A0FB0346002B01D00A2300E0002387F88D3200F0D6FC02E0032387F88D320023A7F8883201E100E197F825
:400B40008632012B03D10023A7F8883203E1F7E097F88632012B25D1B7F88822B7F88A321344B3F5967F19D8002387F88D32B7F8883207F11002D118B7F88A3207F59E7220
:400B80000432084611461A4601F0ECF8B7F88822B7F88A321344A7F8883203E0032387F88D32CDE0CCE0B7F88A32002B1CD107F10803384A92E8030083E80300012387F87B
:400BC00086320823A7F88E32B7F88E3207F59E72111D07F10802084611461A4601F0C2F8002387F88D32ABE0AAE097F88632012B40F09580B7F88A32032B40F0908007F555
:400C00009E739B791B029AB207F59E735B791343A7F8703297F875323F2B13D997F875325BB2002B0EDBB7F870321B01C7F86C321948D7F86C121022FFF77CFC034687F8EB
:400C4000813212E097F875321A02B7F8703213441B02C7F86C320020D7F86C124FF48072FFF768FC034687F8813297F875323F2B29D897F8753203F510331A02B7F8703265
:400C800013445B01C7F86C320023A7F87E3216E01081FF1F7421000000800040B7F87E22D7F86C3213441B78DAB297F88132134487F88132B7F87E320133A7F87E32B7F82A
:400CC0007E321F2BEAD997F87532032B19D1B7F87032FF2B15D10520002100F097F80346DBB297F88122D31A87F881320620002100F08CF80346DBB297F88122D31A87F86D
:400D0000813297F881325B42DAB207F59E731A71002387F88D320123A7F88E3210E00FE00020FFF7A7FC0346002B02D1114B80221A7000F08DFB03E0052387F88D3200BF32
:400D400097F88D1207F59E72B7F88E32084611461A4600F011F8FB1D1B78002B3FF41EAD97F88632012B3FF419AD07F52477BD4680BD00BFFA46004080B584B000AF3960C5
:400D800013460246FA71BB803B6801221A703B680133FA791A703B680233BA88D2B21A703B680333BA88120A92B2D2B21A70BB8804339BB238681946FFF79AFB0346FB8101
:400DC000BB8804333A681344FA89D2B21A70BB8805333A681344FA89120A92B2D2B21A70BB8806333A68134417221A70BB8807339AB23B1D386811461A46962300F0F2F847
:400E0000034618461037BD4680BD00BF80B586B000AF02460B46FA71BB710223FB740023FB60FB79013B092B00F2928001A252F823F000BF5D0E0000770E0000910E000033
:400E4000A70E0000C10E0000DB0E00000B0F0000F50E0000210F0000370F0000BA7913461B069B1A1B0203F57F3303F570737B610123FB7472E0BA7913461B069B1A1B022E
:400E800003F57F3303F2C1337B610423FB7465E0BA7913461B069B1A1B0203F57F3303F2C5337B615AE0BA7913461B069B1A1B0203F57F3303F2C9337B610423FB744DE003
:400EC000BA7913461B069B1A1B0203F57F3303F574737B610123FB7440E0BA7913461B069B1A1B0203F57F3303F2D1337B610123FB7433E0BA7913461B069B1A1B0203F540
:400F00007F3303F2D6337B6128E0BA7913461B069B1A1B0203F57F3303F2D2337B611DE0BA7913461B069B1A1B0203F57F3303F575737B6112E0BA7913461B069B1A1B02CB
:400F400003F57F3303F576737B610423FB7405E0002000F071FA00237B6100BFFB7C012B03D17B691B78DBB2FB60FB7C022B0BD17B691B78DBB2FB607B6901331B78DBB269
:400F80001B02FA681343FB60FB7C042B1BD17B691B78DBB2FB607B6901331B78DBB21B02FA681343FB607B6902331B78DBB21B04FA681343FB607B6903331B78DBB21B06E2
:400FC000FA681343FB60FB6818461837BD4680BD80B500AF00F0A0FC00F0A0FD00F0F6FD80BD00BF80B586B000AFF8607A600A467A817B720023FB8200F090FD09E0FB8AA3
:40100000FA6813441B78184600F0C6FDFB8A0133FB82FA8A7B899A42F1D37B687A891A80002318461837BD4680BD00BF90B589B000AFF8607A600A467A817B720523BB61CB
:401040000023FB831AE000F021FD0346002B0FD000F01CFD0346FB82192000F009FA00F015FD0346FA8A9A42F2D30023BB610DE0012000F0FDF9FB8B0133FB83F98B7A7A26
:4010800013469B0013445B009942DCDB7B6800221A800023BB8336E000F0F8FC0346BB827B681A88BB8A13449AB27B681A807B681B887A899A421ED90023FB830CE0BB8B5F
:4010C000FA68D41800F098FC03462370BB8B0133BB83FB8B0133FB83FA8BBB8A9A42EED3BB8B013BFA6813441B78172B0BD0052000F0BEF907E07B681A88BB8AD31A9AB24A
:401100007B681A8004E000F0C1FC0346002BC3D1BB6918462437BD4690BD00BF000000000230800800F0058000BF013800467FF4FCAF7047EFF3108072B6704780F310880F
:40114000704700BFAFF3008080B582B000AF00F039FA4FF0FF337B6000F05EFB0346002B24D1012000F026FB0346072B1BD11348022100F049FA0346022B0DD100237B6004
:4011800002E0012000F096F90D4B1B78DBB203F00203002BF5D006E0094B1B78DBB203F00203002BE3D000F06BFB01E004237B607B6818460837BD4680BD00BF5481FF1F72
:4011C0002247004080B582B000AF00F0FBF900F023FB0346002B23D100F07AFB78607B68072B1AD102E0012000F064F9104B1B78DBB203F00203002BF5D00D4B1B78DBB26E
:4012000003F00203002B08D0094B1B78DBB29B08DBB2002B01D100237B6000F031FB01E004237B607B6818460837BD4680BD00BF2247004080B582B000AFFFF7C3FF786047
:401240007B68002B02D1FFF77FFF78607B6818460837BD4680BD00BF80B586B000AFBA600246FA730A46BA81FB8000237B61FB7B3F2B04D8FB7B042B01D901237B61FB7B23
:401280005BB2002B01DA01237B61FB7B3F2B04D9FB7B412B01D901237B61FB7B3F2B06D8BB89B3F5807F0CD901237B6109E0BB89802B01D901237B61FB88102B01D00123AF
:4012C0007B61BB68002B01D101237B617B69002B62D100F0A1FA0346002B5BD1F97BBA89FB8808461146BA6800F0BAF978617B69072B4CD102E0012000F0DCF8294B1B7807
:40130000DBB203F00203002BF5D0264B1B78DBB203F00203002B09D0224B1B78DBB29B08DBB2002B02D100237B6102E04FF0FF337B617B69002B2AD11B4B1A781A4B5B7888
:40134000F87BB98900F0F2F978617B69072B1ED102E0012000F0AEF8124B1B78DBB203F00203002BF5D00F4B1B78DBB203F00203002B09D00B4B1B78DBB29B08DBB2002BBA
:4013800002D100237B6102E04FF0FF337B6100F077FA01E004237B617B6918461837BD4680BD00BF224700405481FF1F80B582B000AFFFF7BFFE0346FB71194B184A1278ED
:4013C000D2B242F00802D2B21A70164B154A1278D2B242F00802D2B21A70134BC8221A70124B124A1278D2B242F01002D2B21A700F4B0F4A1278D2B242F01002D2B21A7009
:4014000000BF0C4B1B78DBB203F02003002BF8D0FB791846FFF792FE0837BD4680BD00BFA0430040B043004001470040AC430040BC4300400047004080B483B000AF0346A5
:40144000FB7101BE0C37BD465DF8047B704700BF80B400AF054B054A1278D2B242F00102D2B21A70BD465DF8047B7047F646004080B582B000AF786008E00C4B1B681846C6
:40148000FFF74EFE7B68A3F500437B607B68B3F5004FF2D8064B1B687A6802FB03F31846FFF73EFE0837BD4680BD00BF2081FF1F1881FF1F80B582B000AF0346FB80FB8863
:4014C000044A127802FB03F31846FFF729FE0837BD4680BD1C81FF1F80B582B000AFFFF729FE0346FB7100BF00BF00BF00BF00BF00BF00BF00BF00BF00BF00BF00BF00BFD1
:4015000000BF00BF00BF094B084A128892B242F0040292B21A80054B1B88BFF36F8FFB791846FFF70BFE0837BD4680BD0048004080B584B000AF03463960FB710F4B1B6816
:40154000FB60FB791F2B02D90020FFF775FFFB7903F01F0310339B00FA6813441B68BB60FB7903F01F0310339B00FA6813443A681A60BB6818461037BD4680BD08ED00E016
:4015800080B582B000AF02460B46FA71BB71BB79072B02D90020FFF74FFFFB791F2B02D90020FFF749FFFB7903F01F0303F1604303F56443BA795201D2B21A700837BD46B4
:4015C00080BD00BF80B582B000AFFFF7B3FD0346FB710B4B0A4A1278D2B242F00802D2B21A70084B074A1278D2B242F00802D2B21A70FB791846FFF7A1FD0837BD4680BD9B
:40160000A0430040B043004080B584B000AF78600B46FB700023FB7314E002E00120FFF749FF0D4B1B78DBB203F00103002BF5D0FB7B7A681344094A1278D2B21A70FB7B73
:401640000133FB73FA7BFB789A42E6D3FB7B18461037BD4680BD00BF224700402047004080B489B000AFBA600246FA730A46BA81FB800723FB612B4B1B78DBB203F00203DC
:40168000002B45D0284BB6221A70274BD5221A70254B02221A70234B1B78DBB203F00203002B32D1204BFA7B1A7000237B8308E01D4B7A8BB9680A4412781A707B8B0133B3
:4016C0007B837A8BFB889A42F2D3FB88B3F5807F20D1FB7B3F2B1DD8FB7B03F510331A02BB8913445B017B6100237B8309E00E4B798B7A690A441278D2B21A707B8B0133C9
:401700007B837B8B1F2BF2D904E00923FB6101E00423FB61FB6918462437BD465DF8047B704700BF224700402047004080B485B000AFF871B980BA71FB700723FB601B4BCB
:401740001B78DBB203F00203002B26D0184BB6221A70174BD8221A70154B05221A70134B1B78DBB203F00203002B13D1104BFA791A700F4BBA88120A92B2D2B21A700C4B36
:40178000BA88D2B21A700A4BBA791A70084BFA781A7004E00923FB6001E00423FB60FB6818461437BD465DF8047B7047224700402047004080B485B000AF0346FB710723C9
:4017C000FB60134B1B78DBB203F00203002B16D0104BB6221A700F4BE1221A700D4B0E221A700B4B1B78DBB203F00203002B03D1084BFA791A7004E00923FB6001E0042321
:40180000FB60FB6818461437BD465DF8047B7047224700402047004080B582B000AF04237B60FFF787FC0346FB70124B1B78002B16D1104B01221A7000237B600E4B1B683A
:4018400003F00103002B0BD00B4B0B4A126822F001021A6000BF00BF00BF084B01221A60FB781846FFF76AFC7B6818460837BD4680BD00BF4481FF1F040008404881FF1FC8
:4018800080B582B000AFFFF755FC0346FB710D4B00221A700C4B1B68012B0BD10B4B0B4A126842F001021A6000BF00BF00BF064B00221A60FB791846FFF740FC0837BD46EC
:4018C00080BD00BF4481FF1F4881FF1F0400084080B483B000AF07237B600D4B1B78DBB203F00203002B09D00A4BB6221A70094BE0221A70074B0D221A7001E004237B60C2
:401900007B6818460C37BD465DF8047B704700BF224700402047004080B500AF054B1B78002B04D100F008F8024B01221A7000F02FF880BD4C81FF1F80B500AF00200D493C
:40194000FFF7F6FD00200721FFF71AFE0A4B00221A700A4B72221A70094B20221A70094B06221A70084B47221A70084B00221A7080BD00BF0D1C00004D81FF1F8C64004008
:401980008A6400402E6400403E6400408B64004080B582B000AFFFF7CDFB0346FB71124B114A1278D2B242F02002D2B21A700F4B0E4A1278D2B242F01002D2B21A700C4BFC
:4019C00001221A600B4B0B4A1278D2B242F01002D2B21A7000F086F9FB791846FFF7AEFB0837BD4680BD00BF9C6400409A64004000E100E09B64004080B483B000AF1C4B26
:401A000001221A601B4B1B78BB711B4B1B787B711A4B1B78DBB2002B03D1BA797B799A4219D0BB79164AD35CFB71BB790133BB71BB795BB2002B01DA0023BB710D4BBA79AB
:401A40001A700E4B1B78DBB2002B03D00B4B00221A7003E002E00B4B1B78FB710A4B01221A60FB7918460C37BD465DF8047B704780E100E04E81FF1F4F81FF1F5081FF1FA9
:401A80005881FF1F4F64004000E100E080B483B000AF1D4B01221A601C4B1B78DAB21C4B1B78DBB29A420AD11A4B1B78DBB2002B02D08023FB711DE00023FB711AE0134B27
:401AC0001B78DAB2124B1B78DBB29A4208D2104B1B78DAB20D4B1B78DBB2D31AFB7109E00B4B1B78DAB2094B1B78DBB2D31ADBB2803BFB71084B01221A60FB7918460C37D1
:401B0000BD465DF8047B704780E100E04E81FF1F4F81FF1F5081FF1F00E100E080B582B000AFFFF707FB0346FB71144B134A1278D2B242F00102D2B21A70104B0F4A12783D
:401B4000D2B222F00102D2B21A70FB791846FFF7F5FA0B4B01221A600A4B00221A700A4B00221A70094B00221A70094B00221A70084B01221A600837BD4680BD9F64004060
:401B800080E100E04E81FF1F4F81FF1F5081FF1F5181FF1F00E100E080B483B000AF0346FB7100BF074B1B78DBB203F00403002BF8D1054BFA791A700C37BD465DF8047B18
:401BC000704700BF6B6400404B64004080B582B000AFFFF7AFFA0346FB710B4B0A4A1278D2B242F00102D2B21A70074B064A1278D2B222F00102D2B21A70FB791846FFF771
:401C00009DFA0837BD4680BD9B64004080B483B000AF0023FB712B4B1B78BB71BB797B71BB7903F01E03002B0BD0BB7903F01E03DAB2254B1B78DBB21343DBB2DAB2224BC7
:401C40001A70BB7903F02003002B31D01F4B1B787B711F4B1B78DBB21E4A7979D1540123FB71FB79002B23D01B4B1B78DBB2002B02D01A4B01221A70154B1B78DBB2013307
:401C8000DAB2134B1A70124B1B78DBB2DBB25BB2002B02DA0E4B00221A700D4B1B78DAB20F4B1B78DBB29A4202D10B4B01221A70BB7903F02003002BADD10C37BD465DF85C
:401CC000047B70476A6400404D81FF1F4F6400404F81FF1F5881FF1F5081FF1F5181FF1F4E81FF1F80B400AF094B094A1278D2B242F00102D2B21A70064B064A1278D2B286
:401D000042F00102D2B21A70BD465DF8047B7047A2430040B243004070B50E4B0E4D0024ED1AAD101E46AC4204D056F8242090470134F8E700F022FA084D094B0024ED1A34
:401D4000AD101E46AC4204D056F8242090470134F8E770BD8821000088210000902100008821000010B50023934203D0CC5CC4540133F9E710BD02440346934202D003F848
:401D8000011BFAE77047000032000000D021000000000000005100406000C05100401000F0510040100000000140001000140140000800400140000A004C01400002005051
:401DC000014020000252004003640040010501404B0A0140420B01403A0C0140430D01405D0E01402F0F014002400140014101400342014004440140034501400246014072
:401E00000350014001510140310134028A388B0F8C72E60102030308051A07040B050C0C0E1110101103120C130C181C1A021C101D031F14201421202C092E102F18301F93
:401E4000311C3303352039083B023F1454185604580459045B045F018002850A860287048A028B058F08900296029D039F0CA001A503A704AD03AF04B002B10FB401BB02F4
:401E8000BE11C053C104C5E0C6CBC80EC9FFCAFFCBFFCEF0CF44D00CD401D804D904DA04DB04DF01E6C0EA40EB02008001020428074009010B060D020E100F2010811180F0
:401EC000150119021E882080210622102340250126022740280129022F2231023342374038283A303B063D803E203F04450246104D014E02548057305A025D015E986080A7
:401F00006150808082109028920293029508974099509E20A140A501C079C23BC419CA59CC19CE77D0C0D210D6F1D80DE4040104050209020D04110215011D0121012704B9
:401F400029082D0133023501370C39803F105602571159045B045F01800F830485C08603880489188C018D44900391E7920C93189402958098039BE39D10A00FA11CA3E14C
:401F8000A40CA51CA7E2A80CA908AA03AC08ADFFB00FB1C0B31FB738BA82BB88D804D904DF010160039009080A400B041219130119811A401BC0228923012540261027109F
:401FC000284029A42E602FA0308031093310344035043688370939423A103B043D023E143F4058805A405E206C206E146F097484752076138D048F409028914293069508B6
:40200000974199509C809D209E029F18A108A320A424A545A748B420B540C00FC20EC40FCAFFCCDFCEFFD620040C05010603070E1001120E1544173119671A031E08200146
:402040002206252227D129672E0C31803360340F350737183A203F404003454049FF4A074BFF4C404D204EF04F055008580459045A045F01604061A8624063208106830166
:40208000850688028B018C028D079204950796049D019E029F06A104A602A902AA01AE01B002B107B404B601B802BE50C042C103C205C401C6E0C70CC818C9FFCAFFCBFFB5
:4020C000CC62CDA0CEF0CF41D00CD804D904DA04DF01E640E702E910EA30EB10ED10EE10EF120320070609200B420E800F2111821608174818081B201D501E802189230460
:402100002602274028202B082D202E0230203108348037083B043C083D203F8141044480459447164B024E025010512056085710C0C4C2BBC4E9CAA6CC56CEF2D0F2D210E6
:402140003240CC10968082409680E68005025910C004D4019D10B502EA0281109D1000010C010E01000300000100020101000100000000006930122E001E0101F8B500BF9B
:40218000F8BC08BC9E467047610000003D010000F8B500BFF8BC08BC9E4670473D000000B02100000881FF1F20000000B000000000000000881D00008C1D000000366E0176
:4021C000C05D0000180000000000E02E000000000000000000000000000000000000000000000000000000000000000000000000000000000000000000000000000000009C
:4022000000800020112200005D1801005D18010008B50FF025FB00BF10B5054C237833B9044B13B10448AFF300800123237010BD2883FF1F0000000058330100084B10B535
:402240001BB108480849AFF300800848036803B910BD074B002BFBD0BDE81040184700BF00000000583301002C83FF1F0881FF1F0000000008B510F0F3FB0E4B1B78012B6D
:4022800013D10D4B1978062907D80131C9B219700120143108F0E6FC08BD0022064B1A700120142108F0DEFC08BD034A13780133137008BD7A83FF1F9685FF1F08B510F0B9
:4022C00089FC0E4B1B78012B13D10D4B1978062907D80131C9B219700220143108F0C2FC08BD0022064B1A700220142108F0BAFC08BD034A13780133137008BD4B85FF1F45
:402300002585FF1F10B562B60FF0DEFC0FF092FE0FF014FF0FF0CAFC0FF0EAFD10F0B0F910F09CFA0FF0F2FD10F0B8F910F0A4FA0FF072FE10F022FF052010F087FF0024F8
:402340008D4B1C702046202108F0C6F88B4B1C6006E08B4AD15C8B4AD1540133874A1360874B1A78854B1B689A42F2D220200F2108F0B2F80022814B1A6007E0804AD15C41
:40238000804A1A44917701337C4A13607C4B1A787A4B1B689A42F1D24020202108F09CF80022764B1A6008E0754AD15C754A1A4482F843100133714A1360714B1A786F4B8E
:4023C0001B689A42F0D28020202108F085F800226A4B1A6008E06A4AD15C6A4A1A4482F861100133654A1360654B1A78634B1B689A42F0D2A020202108F06EF800225F4BBD
:402400001A6008E05E4AD15C5E4A1A4482F87F1001335A4A13605A4B1A78584B1B689A42F0D22F200C2108F057F80022534B1A6008E0534AD15C534A1A4482F82F10013379
:402440004E4A13604E4B1A784C4B1B689A42F0D26020092108F040F8494B1878431EDBB2082B14D80022454B1A6008E00133444AD15C444A1A4482F8D710404A13603F4B8C
:402480001B68072BF2D93F4B83F8D7000EE001223A4B1A6006E03B4A1A4482F8D7300133364A1360354B1B68082BF4D940F26A400A2108F011F80022304B1A6006E0304ABD
:4024C000D15C314AD15401332C4A13602C4B1A782A4B1B689A42F2D240F275400A2107F0FBFF0022254B1A6006E0254AD15C274AD1540133214A1360214B1A781F4B1B682D
:402500009A42F2D24FF490600A2107F0E5FF00221A4B1A6006E01A4AD15C1D4AD1540133164A1360164B1A78144B1B689A42F2D240F28B400A2107F0CFFF00220F4B1A605F
:4025400006E00F4AD15C134AD15401330B4A13600B4B1A78094B1B689A42F2D240F29F20052107F0B9FF064B1878042821D10122024B1A6017E000BF8F86FF1F8C83FF1F4D
:402580005485FF1F3487FF1F2885FF1F8083FF1FD488FF1F3885FF1FA44AD15CA44AD1540133A44A1360A34B1B68042BF4D9A04B187040F2C110022107F08EFF9B4B1B7844
:4025C000012B03D1994B5A789B4B1A7040F2C310022107F081FF954B1B78012B03D1934B5A78964B1A7040F2C510022107F074FF8E4B1B78012B03D18C4B5A78904B1A707A
:4026000040F2EE30022107F067FF884B1B78012B03D1864B5A788B4B1A704FF4DD70022107F05AFF814B1B78052B05D17F4B5B7803F00F03844A137040F27A20022107F020
:402640004BFF7A4B1B78012B03D1784B5A787F4B1A704FF41F70022107F03EFF734B1B78012B03D1714B5A78794B1A7040F27E20022107F031FF6D4B1B78012B03D16B4B5E
:402680005A78744B1A704FF47C70022107F024FF664B1B78012B03D1644B5A786E4B1A7040F25A20062107F017FF604B1B78052B0AD15E4AD37803F00F0368490B70537972
:4026C00003F00F03664A137040F2C710022107F003FF564B1B78012B06D1624A1370534B5B7803F00F0353704FF4DE70022107F0F3FE4E4B1B78012B05D14C4B5B7803F0B7
:402700000F03594A137040F26320022107F0E4FE464B1B78012B05D1444B5B7803F00F03524A537040F26520022107F0D5FE3F4B1B78012B05D13D4B5B7803F00F034C4A0B
:4027400053704FF42770032107F0C6FE374B1B78022B06D1354B9B7843EA0323454A138002E00122434B1A804FF47670022107F0B3FE2E4B1B78012B04D12C4B5A783E4BBC
:402780005A7007E03C4901230B704B704FF4767007F064FE40F2D230062107F09DFE234B187805280FD10022224B1A6006E01F4AD15C324AD15401331E4A13601D4B1B68EF
:4027C0009842F4D20CE02D4905230B7030234B708B70CB700B714B7140F2D23007F03EFE264A537903F00F00137903F00F014FF47A7303FB01F342F2107101FB0033D07836
:4028000000F00F00642101FB0031937803F00F0303EB83035B000B44527802F00F021344174A13600222174B1A7010BD5485FF1F0C81FF1F8C83FF1F1E88FF1FDF88FF1FCC
:402840004C85FF1F7C83FF1F3385FF1F2485FF1F8E86FF1F9386FF1F2C87FF1F7D83FF1F1F88FF1F4885FF1FA285FF1F9086FF1F3087FF1F2285FF1F7883FF1F9C85FF1F3C
:402880003088FF1F2785FF1F10B5002413E00BF03FF802280FD1642010F0D8FC074B18780BF076F8062806D1044B18790BF070F8062800D10224002CE9D010BD7083FF1F8D
:4028C00008B501280ED1552108F0CCF964220D4B1A7001220C4B1A700C4810F035F910F005F908BD0220552108F0BCF96422084B1A700122074B1A70074810F0DFF910F061
:40290000AFF908BD7A83FF1F9685FF1F752200004B85FF1F2585FF1FBD22000038B5984B1B78642B03F21A87DFE813F074008000181FA100000188013E02DD0210034F037E
:402940003B048D04FA047C05AF058A06A807F7079E084009BB09250B780CFC0D170FEA122513171481140215D1156C163017F719581AE01A2D1B5C1BE41BD51CD81D631E26
:40298000B61E181F181F181F181F181F181F181F181F181F181F181F181F181F181F181F181F181F181F181F181F181F181F181F181F181F181F181F181F181F181F181F9A
:4029C000181F181F181F181F181F181F181F181F181F181F181F181F181F181F181F181F181F181F181F181F181F181F181F181F181F181F6500634B1B78012B43F2AE8606
:402A000000245F4B1C7010F0ADF810F00FF85D4B1C7038BD5C4810F097F810F067F80022584B1A700122564B1A7038BD0FF042FE082843F093860FF067FE10F093F80FF09A
:402A4000F5FF524B1B78022B04D10120632108F009F903E00120452108F004F90322484B1A70642010F0F2FB0FF04EFE38BD0FF021FE082843F07286454B1B78DBB2AA2B41
:402A80004ED1434B9B79DBB2C32B49D1404BDB79DBB23C2B44D13E4BDB78DBB2592B2DD002D8452B1FD03BE05C2B02D07E2B30D036E00022374BDA70344B1B78012B06D17F
:402AC0000120052108F0CEF804222D4B1A702F4B1B78022B24D10120492108F0C3F81922274B1A701CE00120252108F0BBF80022294B1A700F22224B1A7011E00120252157
:402B000008F0B0F80022244B1A7027221C4B1A7006E00120002108F0A5F80022184B1A70642010F093FB0FF0EFFD38BD0FF0C2FD082843F01386164B1B78DBB2AA2B77D18A
:402B4000134B9B79DBB2C32B72D1114BDB79DBB23C2B6DD10F4AD37823F00303D3700C4BDB78DBB23B2B4BD004D80F2B16D0102B28D05DE0432B3BD07E2B52D058E000BFE4
:402B80007A83FF1F9685FF1F752200002785FF1FD08AFF1F9486FF1F4D85FF1F0120062108F060F80022A84B1A700120242108F08FF8A64AD37843F00203D3700522A44BD8
:402BC0001A7035E001200D2108F04CF800229E4B1A70A04B1A700120472108F079F89B4AD37843F00103D3700522994B1A701FE00120072108F036F80622954B1A7017E079
:402C0000954B1B78022B04D10120632108F02AF803E00120452108F025F803228C4B1A7006E00120002108F01DF80022884B1A70642010F00BFB0FF067FD38BD0FF03AFD8F
:402C4000082843F08B85854B1B78DBB2AA2B40F0A580824B9B79DBB2C32B40F09F807F4BDB79DBB23C2B40F09980774B1B787C4A1278013A93423EDC784AD278D2B2092A2F
:402C80000FD80133DAB2704B1A707448C1786F4B13443031D972C17830310120C9B208F017F86E4BDB78DBB20A2B0BD1664B1A780132D2B21A70654B13443021D972012047
:402CC00008F006F8654BDB78DBB2512B13D15E4B1B7883B15F4A12786AB90133DAB25A4B1A705A4B13442C21D972012007F0F0FF0122584B1A70594BDB78DBB20B2B1BD1A8
:402D0000514B1A783AB90120052107F0ABFF04224F4B1A7010E00120202107F0D9FF4A4B1B784A4A1A44D27A2C2A02D10021494A1170013B444A1370484BDB78DBB20C2B64
:402D40002CD1414B1B786BB1464B1B7853B90120072107F087FF3C4B1A783C4BDA7206223B4B1A70384B1B78C3B13E4B1B78012B14D10120702107F075FF3B490A78334BA9
:402D8000DA723A4B1B680B7040F28D4007F066FB0022344B1A700E222D4B1A70642010F055FA0FF0B1FC38BD642010F04FFA0FF081FC082820D1294B1B78DBB2AA2B15D163
:402DC000264B9B79DBB2C32B10D1244BDB79DBB23C2B0BD1214BDB78DBB27E2B06D10120002107F03FFF0022194B1A70642010F02DFA0FF089FC38BD1D4B18780AF0C8FD31
:402E0000072843F0AB84322010F020FA184B18780AF0D2FD174B1870322010F017FA0B4BDB7813F0030329D0114A1078114A1178114A0EF063F808BB0120002107F012FF59
:402E40000022034B1A7038BD4D85FF1F9486FF1F7A83FF1F7B83FF1F2785FF1FD08AFF1F3385FF1F8F86FF1FD088FF1F5085FF1F7083FF1F3588FF1F9F86FF1F012010F000
:402E80008FF99F4B18780AF097FD9E4B1870002803F064849C4B1B7803F00F03834211D09A4B1B7803F00F0398420BD0984B1B7803F00F03984205D0964B1B7803F00F0314
:402EC000984202D101200EF099FC8D4B187840F010000EF081FF0120082107F0C3FE07228D4B1A7038BD322010F0B0F9844B18780AF04EFD0A2813D00B2803D0062843F0AE
:402F00002D841BE0642010F0A1F97D4B18780AF0C7FD012843F0228408227F4B1A7038BD642010F093F9764B18780AF0B9FD012843F014840822784B1A7038BD0120002189
:402F400007F090FE0022744B1A7038BD734B1B78012B02D0022B10D038BD01200B2107F081FE6F480FF0F0FD0FF0C0FD00226D4B1A700A22684B1A7038BD6B4BDB7813F02B
:402F8000040F0FD101200B2107F06CFE64480FF0DBFD0FF0ABFD0022624B1A700A225E4B1A7038BD01200B2107F05CFE00245E4B83F883405A480FF0C7FD0FF097FD594B54
:402FC0001C700A22544B1A7038BD0FF073FB082840F0D280554B1B78DBB2AA2B40F0C780524B9B79DBB2C32B40F0C1804F4BDB79DBB23C2B40F0BB8000224A4B1A704C4B0E
:403000001B78062B65D8494AD278D2B2092A10D80133DAB2464B1A704448C178424B1344303183F86510C17830310120C9B207F04FFE3E4BDB78DBB20A2B0CD13C4B1A7830
:403040000132D2B21A70384B1344302183F86510012007F03DFE354BDB78DBB26A2B0CD1334B1A780132D2B21A702F4B13442D2183F86510012007F02BFE2C4BDB78DBB2D7
:403080001A2B26D9294BDB78DBB2422B21D80022284B1A6019E0254AD278D2B226491944097A8A420DD122490A780132D2B20A704133D9B21C4B134483F86510012007F0F1
:4030C00007FE1C4A1368013313601A4B1B68192BE1D9164BDB78DBB20B2B37D1144B1A7862BB01200B2107F0BDFD0F4B002283F8652083F883200A22074B1A7026E000BF6B
:403100007083FF1F3588FF1F1E88FF1FDF88FF1F4C85FF1F7C83FF1F7A83FF1F2785FF1F752200009685FF1F9486FF1FD08AFF1F4D85FF1F8C83FF1F0C81FF1F01202021BF
:4031400007F0C6FDB04A1378013B1370AF4BDB78DBB20C2B0BD1AC4B1A7842B1AC4B83F86520012283F883200D22AA4B1A70642010F06CF80FF0C8FAA74B1B781D2B43F257
:40318000ED8201200B2107F06DFDA14A002382F8653082F88330A04A13700A229D4B1A7038BD0FF087FA08283DD1984B1B78DBB2AA2B33D1954B9B79DBB2C32B2ED1934BC2
:4031C000DB79DBB23C2B29D1904BDB78DBB2382B15D0392B22D100228B4B1A708C4BDB7813F0040F07D101200A2107F03BFD0922884B1A7012E00D22864B1A700EE001200B
:403200000C2107F02FFD0122834B1A7083480FF09BFC0FF06BFC64227E4B1A70642010F015F80FF071FA7C4B1B781D2B43F2968201200C2107F016FD0122774B1A706422EC
:40324000744B1A7038BD0120014607F09BFA052840D90A200FF0FAFF0120212107F092FA052837D9012007F0A5F9012832D133200FF068FA0120332107F0DEF950B3002293
:40328000674B1A600AE0012007F040FA604B1C4484F82900624A136801331360604B1C68072CF0D90120132107F0DCFC584CE37843F00403E3704FF4FA700FF0C7FF0120BA
:4032C0000E2107F0CFFC00234F4A137023710C22504B1A700FF0EEF9082843F03F824B4B1B78DBB2AA2B15D1484B9B79DBB2C32B10D1464BDB79DBB23C2B0BD1434BDB78A3
:40330000DBB23B2B06D10120632107F0ABFC0322404B1A7064200FF099FF0FF0F5F938BD0FF0C8F9082843F01982384B1B78DBB2AA2B62D1354B9B79DBB2C32B5DD1334B25
:40334000DB79DBB23C2B58D12F4B1B78052B25D82E4AD278D2B2092A0FD80133DAB22A4B1A702A48C1782A4B134430311971C17830310120C9B207F0ABFC244BDB78DBB2FE
:403380000A2B0BD1204B1A780132D2B21A70204B134430211971012007F09AFC1B4BDB78DBB20B2B12D1184B1A783AB90120052107F058FC0422174B1A7007E0012020213F
:4033C00007F086FC104A1378013B13700F4BDB78DBB20C2B11D10C4B1B7873B10C4B5B79302B0AD00120052107F03CFC064B1A78074B1A710422074B1A7064200FF026FF0F
:403400000FF082F938BD00BF4D85FF1FD08AFF1F9486FF1F7A83FF1F9685FF1F752200005085FF1FBA4B5878BA4B19780022BA4B1B7808F0BFFEB94B1B78012B02D0B84B6E
:403440005B787BB901200C2107F00CFC0122B54B1A70B5480FF078FB0FF048FB6422B34B1A7038BD0120312107F0FCFB0022B04B1A700122AB4B1A70AB480FF065FB0FF09B
:4034800035FB2122A94B1A7038BD0FF013F9082843F06481A74B1B78DBB2AA2B40F0CA80A44B9B79DBB2C32B40F0C480A14BDB79DBB23C2B40F0BE809E4BDB78DBB2652B85
:4034C00000F084800AD85A2B50D002D8582B12D0B0E05B2B64D05D2B24D0ABE07E2B00F0A28003D8702B00F09680A3E0932B75D0962B60D09EE000228D4B1A7001203E2191
:4035000007F0B0FB06F0EAFE012801D107F060FC06F014FF012801D107F0B8FC1022834B1A7087E001205C2107F09CFB01200021D62240F2AD1307F08FFD01200021892255
:4035400040F2B31307F088FD01200146242240F2A71307F081FD0120014678224FF47A7307F07AFD1322714B1A7063E00120602107F078FB012007F0EDFC012007F02CFE1B
:40358000012007F0BBFF012008F03EF8012007F0A9FE012007F02CFF1222644B1A7049E001202F2107F05EFB0022614B1A7011225E4B1A703EE001205F2107F053FB0022AD
:4035C0005B4B1A701B22594B1A7033E001204D2107F048FB1422554B1A702BE001206E2107F040FB0120014607F0CCF805280ED90A200FF02BFE012008F00EF901202121FB
:4036000007F0C0F8052802D9012008F083F82322464B1A700EE00120892107F023FB2922424B1A7006E00120002107F01BFB00223E4B1A7064200FF009FE0FF065F838BD6A
:403640000FF038F8082843F089803A4B1B78DBB2AA2B40F00D81374B9B79DBB2C32B40F00781344BDB79DBB23C2B40F00181304B1A78072A26D82F4BDB78DBB2092B0ED885
:403680002C4BD9782C4B1344303183F88E1001202A2107F01DFB264A137801331370254BDB78DBB20A2B0DD1214C2278224B1344302183F88E1001202A2107F009FB237833
:4036C000013323701B4BDB78DBB20B2B0ED1184B1B781BB90120FFF7F3F807E0013BDAB2134B1A700120202107F0F2FA114BDB78DBB20C2B40F0BC800D4B1A78002A00F01D
:40370000A88000230D490B600D490B6030E000BF9086FF1F3588FF1F7083FF1F2785FF1F7883FF1F9685FF1F752200007A83FF1F4D85FF1FD08AFF1F9486FF1FA485FF1F18
:403740008C83FF1F581CAB49014491F8D710AA4C234493F88E30303B994204D1A7490B6801330B6002E00021A44B1960A44B18601046A34B1B689A42E4D89E4B93F8D720A0
:403780009E4B1B689A421AD10120262107F06AFA4FF4FA700FF05AFD9A4B1B78012B04D101205D2107F05EFA05E0022B03D10120702107F057FA0E22934B1A7058E00023D6
:4037C0008E4A13608E4A136010E0904A1A4492F82410894A1A4492F88E20914203D187490A6801320A600133854A1360844B1B689842EAD8814B1B68082B1AD10120262125
:4038000007F030FA4FF4FA700FF020FD7D4B1B78012B04D101205D2107F024FA05E0022B03D10120702107F01DFA0E22764B1A701EE00120272107F015FA0122744B1A7094
:4038400074480FF081F90FF051F964226E4B1A700EE00120272107F005FA01226C4B1A706C480FF071F90FF041F96422664B1A7064200FF0EBFC0EF047FF38BD0EF01AFF7F
:40388000082842F06B87644B1B78DBB2AA2B3ED1614B9B79DBB2C32B39D15F4BDB79DBB23C2B34D15C4BDB78DBB23F2B04D07E2B26D03E2B2BD116E00120402107F0D2F9C2
:4038C0000023564A1370564A137001206121062207F0FEF901206D21072207F0F9F91522494B1A7013E001203F2107F0BBF900234A4A13704A4A13701622434B1A7006E0EA
:403900000120702107F0AEF90E223F4B1A7064200FF09CFC0EF0F8FE38BD0EF0CBFE082842F01C873C4B1B78DBB2AA2B40F09680394B9B79DBB2C32B40F09080364BDB7939
:40394000DBB23C2B40F08A80344B1A78072A27D8314BDB78DBB2092B10D82F48C178264B1344303183F88E10C17830310120C9B207F0AEF9294A137801331370264BDB7821
:40398000DBB20A2B0CD1254C22781B4B1344302183F88E10012007F09BF92378013323701D4BDB78DBB20B2B0ED11C4B1B781BB90120FEF785FF07E0013BDAB2174B1A70C8
:4039C0000120202107F084F9134BDB78DBB20C2B44D1124B1B78052B40D90120392107F041F90E4B1978034B83F8D7100022044B1A6023E03487FF1F9486FF1FA485FF1FA2
:403A00008C83FF1F2785FF1F7A83FF1F0C81FF1F9685FF1F75220000D08AFF1F4D85FF1F7B83FF1F581CB24A134493F88E20B14B0344303A83F8D720AF4B1860AE4B1B6868
:403A40009942EFD86020AD4906F008FD18B90120552107F007F90022A94B1A7064200FF0F5FB0EF051FE38BD0EF024FE082842F07586A44B1B78DBB2AA2B40F09180A14BF1
:403A80009B79DBB2C32B40F08B809E4BDB79DBB23C2B40F085809B4BDB78DBB27A2B5FD006D8772B3ED0782B4CD0762B78D10AE0822B17D002D87E2B6BD071E0832B21D0D9
:403AC000952B5AD06CE00120302107F0CBF800238D4A13708D4A13708D4A13701822884B1A705DE00120792107F0BCF80222864B1A700023854A1370854A13701822804BAE
:403B00001A704DE001207A2107F0ACF803227E4B1A7000237D4A13707D4A13701822784B1A703DE00120782107F09CF80122764B1A700023754A1370754A13701822704B55
:403B40001A702DE00120652107F08CF801226E4B1A7000226D4B1A701722694B1A701FE00120322107F07EF80023674A1370674A13701722624B1A7012E0664B1B78022B0D
:403B80000ED10120662107F06DF820225C4B1A7006E00120702107F065F80E22584B1A7064200FF053FB0EF0AFFD38BD0EF082FD082842F0D385534B1B78DBB2AA2B6AD1F1
:403BC000504B9B79DBB2C32B65D14E4BDB79DBB23C2B60D14B4BDB787E3B042B5BD8DFE803F05303172B3F000120062107F03AF80022464B1A70484B19783E4B83F8A31035
:403C00000120242107F064F81A223D4B1A7042E00120062107F026F800223C4B1A703F4B1978344B83F8A3100120242107F050F81A22334B1A702EE00120062107F012F8C3
:403C40000022324B1A70364B19782A4B83F8A3100120242107F03CF81A22294B1A701AE00120062106F0FEFF0022284B1A702D4B1978204B83F8A3100120242107F028F828
:403C80001A221F4B1A7006E00120702106F0EAFF0E221B4B1A7064200FF0D8FA0EF034FD38BD0EF007FD082842F05885154B1B78DBB2AA2B40F05981124B9B79DBB2C32B38
:403CC00040F053810F4BDB79DBB23C2B40F04D810C4BDB78DBB2632B4DD002D8622B23D043E1642B00F0E7807E2B00F037813CE19486FF1F3487FF1F8C83FF1F0B88FF1F7D
:403D00007A83FF1FD08AFF1F9785FF1F4D85FF1F3488FF1F2785FF1FDF88FF1F4C85FF1F1E88FF1F7C83FF1F0120392106F09AFF64200FF08BFAB64B187809F029FE0628DC
:403D400015D1B34B187909F023FE06280BD101204A2106F087FF4FF42F700FF077FA0022AC4B1A7001E10120FEF7AAFDFDE00120FEF7A6FDF9E00120372106F073FFA64BCD
:403D80005B78012B45D10022A44B1A600AE0A44A1344012093F82C1006F0E8FB9F4A1368013313609D4B1B68102BF0D901200A2106F0DCFB01200A2106F0D8FB01200A217F
:403DC00006F0D4FB01200A2106F0D0FB0022934B1A600AE0924A1344022093F82C1006F0C5FB8E4A1368013313608C4B1B68102BF0D902200A2106F0B9FB02200A2106F029
:403E0000B5FB02200A2106F0B1FB02200A2106F0ADFB814B5B78022B45D100227F4B1A600AE07F4A1344032093F82C1006F09EFB7A4A136801331360784B1B68102BF0D9FD
:403E400003200A2106F092FB03200A2106F08EFB03200A2106F08AFB03200A2106F086FB00226E4B1A600AE06D4A1344042093F82C1006F07BFB694A136801331360674BEB
:403E80001B68102BF0D904200A2106F06FFB04200A2106F06BFB04200A2106F067FB04200A2106F063FB01206B2106F0DBFE2522584B1A7059E0012006F07CFB012849D1DD
:403EC00033200EF03FFC0120332106F0B5FB00284BD00022534B1A600AE0012006F016FC514B1C4484F829004E4A1368013313604C4B1C68072CF0D900234C4A1370494A4A
:403F000013600CE0494C484A1344207893F8291006F098FE2070434A136801331360414B1B68062BEED9404B93F830203F4B1B789A420BD101204B2106F094FE4FF47A70F9
:403F40000FF084F90022334B1A700EE00120FEF7B7FC0AE00120FEF7B3FC06E00120002106F080FE00222B4B1A7064200FF06EF90EF0CAFB38BD0EF09DFB082842F0EE836C
:403F80002B4B1B78DBB2AA2B40F04281284B9B79DBB2C32B40F03C81254BDB79DBB23C2B40F03681234B1B78042B00F2CA80DFE813F0050045006B00C800A3001C4AD2780F
:403FC000D2B2012A0FD80133DAB21A4B1A70184CE17830310120C9B206F07AFEE3781B01154A82F8A130124BDB78DBB20A2B40F0A880104B1A780132D2B21A7000210E4BC1
:4040000083F8A1100120302106F062FE99E000BF7083FF1F7A83FF1F8C86FF1F8C83FF1F0C81FF1F5085FF1F9486FF1F3485FF1FD08AFF1F4D85FF1F3487FF1F9F4AD278AA
:40404000D2B2092A11D80133DAB29D4B1A709B4CE17830310120C9B206F03AFEE178994A92F8A1300B4382F8A130944BDB78DBB20A2B66D1924B1A780132D2B21A700120D7
:40408000302106F025FE5CE08C4AD278D2B2052A17D80133DAB28A4C227001203A2106F017FE22780132D2B22270844CE17830310120C9B206F00CFEE3781B01814A82F824
:4040C000A0307E4BDB78DBB20A2B3AD17C4C22780132D2B2227001203A2106F0F9FD22780132D2B222700120302106F0F1FD0022744B83F8A02024E0704AD278D2B2092AE0
:4041000011D80133DAB26E4B1A706C4CE17830310120C9B206F0DCFDE1786A4A92F8A0300B4382F8A030654BDB78DBB20A2B08D1634B1A780132D2B21A700120302106F030
:40414000C7FD5E4BDB78DBB2402B17D15E4B1B783BB901205C4B18707021062206F0B8FD07E00022584B1A7001206121062206F0AFFD01206D21072206F0AAFD4F4BDB78B6
:40418000DBB20B2B1BD14E4B1A7882B90E224F4B1A704F4B1B78012B04D101205D2106F061FD0CE00120702106F05CFD07E00120202106F08DFD424A1378013B13703F4B5F
:4041C000DB78DBB20C2B23D13D4B1B78052B1FD13D4B1B7843F002023A4991F8A13043EA421381F8A13006F0D9F8012810D10E22364B1A70364B1B78012B03D15D2106F0EA
:4042000031FD05E0022B03D10120702106F02AFD64200FF01BF80EF077FA38BD0EF04AFA082842F09B82254B1B78DBB2AA2B40F07381224B9B79DBB2C32B40F06D811F4BD3
:40424000DB79DBB23C2B40F067811D4B1A78072A00F22381DFE812F008003E00650021019E00C4002101FC00144BDB78DBB2032B0FD8124CE17830310120C9B206F028FDE4
:404280000F4A137801331370E3781B010D4A82F89D300A4BDB78DBB20A2B40F0FE800022084B83F89D20064C01203021227806F00FFD237801332370EFE000BFD08AFF1FC1
:4042C0004D85FF1F3487FF1F7B83FF1F7A83FF1F2785FF1FAC4BDB78DBB2092B11D8AA4CE17830310120C9B206F0F2FCE178A74A92F89D300B4382F89D30A54A13780133EC
:404300001370A14BDB78DBB20A2B40F0C680A04C01203021227806F0DBFC237801332370BBE0994BDB78DBB2012B17D801202F2106F0CEFC964C22780132D2B22270924D0D
:40434000E97830310120C9B206F0C2FCEB781B018E4A82F89E302378013323708A4BDB78DBB20A2B40F09980894C01202F21227806F0AEFC22780132D2B222700120302122
:4043800006F0A6FC0022814B83F89E2023780133237082E07C4BDB78DBB2092B11D87A4CE17830310120C9B206F092FCE178774A92F89E300B4382F89E30754A1378013390
:4043C0001370714BDB78DBB20A2B66D1704C01203021227806F07CFC2378013323705CE0694BDB78DBB2092B17D801202F2106F06FFC674C22780132D2B22270624DE9782F
:4044000030310120C9B206F063FCEB781B015F4A82F89F302378013323705B4BDB78DBB20A2B3AD15A4C01202F21227806F050FC22780132D2B222700120302106F048FC0F
:404440000022524B83F89F2023780133237024E04D4BDB78DBB2092B11D84B4CE17830310120C9B206F034FCE178484A92F89F300B4382F89F30464A137801331370424BFB
:40448000DB78DBB20A2B08D1414C01203021227806F01EFC2378013323703B4BDB78DBB20B2B1BD13A4B1B7883B90E22394B1A70394B1B78012B04D101205D2106F0D2FB6F
:4044C0000CE00120702106F0CDFB07E0013BDAB22F4B1A700120202106F0FAFB2A4BDB78DBB20C2B18D12A4B1B78082B14D105F083FF012810D10E22264B1A70264B1B781B
:40450000012B03D15D2106F0ADFB05E0022B03D10120702106F0A6FB64200EF097FE0EF0F3F838BD0EF0C6F8082842F01781164B1B78DBB2AA2B40F00A81134B9B79DBB275
:40454000C32B40F00481104BDB79DBB23C2B40F0FE800F4B1B780C2B6ED80B4AD278D2B2092A2BD80133DAB2094B1A700B4B1B7813B1012B14D01AE0034BD978034B1344EB
:404580003031997713E000BFD08AFF1F3487FF1F4D85FF1F7A83FF1F2785FF1F9785FF1FA04BD978A04B1344303183F82F109D4BD97830310120C9B207F0B2F9994BDB78D0
:4045C000DBB20A2B18D1994B1A780132D2B21A70974B1B7813B1012B05D009E0924B13443021997704E0904B1344302183F82F100120302107F094F98A4BDB78DBB2512B59
:404600001AD18A4B1B78BBB10133DAB2874B1A70874B1B7813B1012B05D009E0824B13442E21997704E0804B13442E2183F82F1001202E2107F074F97A4BDB78DBB20B2B4B
:4046400049D17A4B1A78002A3DD10E22794B1A70794B1B78012B04D101205D2106F002FB03E00120702106F0FDFA2F200C2105F033FF0022714B1A6008E0714AD15C6A4A28
:404680001A4482F82F1001336C4A13606C4B1A786A4B1B689A42F0D220200F2105F01CFF0022664B1A6007E0654AD15C5E4A1A4491770133614A1360614B1A785F4B1B680C
:4046C0009A42F1D207E00120202107F029F9574A1378013B1370534BDB78DBB20C2B36D10E22544B1A70544B1B78012B04D101205D2106F0B7FA03E00120702106F0B2FA09
:404700004B4B1B7813B1012B11D020E0474B1B78454901F81E3F202005F0A0FEB8B90120552106F09FFA6422424B1A700FE03F4B1B783D4901F82F3F2F2005F08FFE30B9BC
:404740000120552106F08EFA64223A4B1A7064200EF07CFD0DF0D8FF38BD0DF0ABFF082841F0FC872F4B1B78DBB2AA2B40F0C2832C4B9B79DBB2C32B40F0BC83294BDB791F
:40478000DBB23C2B40F0B683284B1B78172B00F24D82244AD278D2B2092A7AD80133DAB2224B1A70224B1B78042B6BD8DFE803F0031427526400234B1978012904D1194B99
:4047C000DB7830332048835400295BD1154BDB78303315498B5455E01A4B1978012904D1104BDB7830331948835400294AD10D4BD9780D4B1344303183F8431042E0114B60
:404800001978012904D1074BDB78303310488354002937D1034BD978034B1344303183F861102FE0D08AFF1F3487FF1F4D85FF1F9785FF1F7A83FF1F2785FF1F8C83FF1F53
:404840005485FF1F3488FF1F2885FF1F8083FF1FD488FF1F994B1978012904D1984BDB7830339848835469B9954BD978964B1344303183F87F1005E0914BD978934B134400
:404880003031D9728E4BD97830310120C9B207F047F88B4BDB78DBB20A2B2BD18C4B1A780132D2B21A708B4B1B78042B1ED8DFE803F003070D1319003021834B995415E0D2
:4048C000814B1344302183F843100FE07E4B1344302183F8611009E07B4B1344302183F87F1003E0794B13443021D9720120302107F016F8724BDB78DBB2672B2BD1744BCE
:404900001A780132D2B21A70724B1B78042B1ED8DFE803F003070D13190023216A4B995415E0694B1344232183F843100FE0664B1344232183F8611009E0634B13442321E1
:4049400083F87F1003E0614B13442321D9720120232106F0E5FF5A4BDB78DBB26A2B2BD15B4B1A780132D2B21A705A4B1B78042B1ED8DFE803F003070D1319002D21524BA5
:40498000995415E0504B13442D2183F843100FE04D4B13442D2183F8611009E04A4B13442D2183F87F1003E0484B13442D21D97201202D2106F0B4FF414BDB78DBB2662B47
:4049C0002BD1434B1A780132D2B21A70414B1B78042B1ED8DFE803F003070D1319004021394B995415E0384B1344402183F843100FE0354B1344402183F8611009E0324BD0
:404A00001344402183F87F1003E0304B13444021D9720120402106F083FF294BDB78DBB2692B2BD12A4B1A780132D2B21A70294B1B78042B1ED8DFE803F003070D13190004
:404A40002E21214B995415E01F4B13442E2183F843100FE01C4B13442E2183F8611009E0194B13442E2183F87F1003E0174B13442E21D97201202E2106F052FF104BDB783B
:404A8000DBB2682B5CD1124B1A780132D2B21A70104B1B78042B4FD8DFE803F003202E3C4A00064B1B78012B02D120200A498854002B41D12021044B99543DE03488FF1FA1
:404AC000D08AFF1F3885FF1F3487FF1F9486FF1F4D85FF1F9785FF1F2885FF1F9A4B1B78012B02D12020994988542BBB984B1344202183F843101FE0934B1B78012B02D14A
:404B0000202094498854BBB9914B1344202183F8611011E08C4B1B78012B02D120208E4988544BB98A4B1344202183F87F1003E08A4B13442021D9720120202106F0F0FEFF
:404B4000874BDB78DBB21A2B70D9854BDB78DBB2422B6BD80022834B1A6063E0804AD278D2B281491944097A8A4257D17F490A780132D2B20A707E490978042948D8DFE8DB
:404B800001F00312223242006F490878012803D103F14101774CA154002839D103F141016B48815434E068490878012803D103F14101664CA15458BB6549114403F14100DC
:404BC00081F8430024E060490878012803D103F14101604CA154D8B95D49114403F1410081F8610014E058490878012803D103F14101594CA15458B95549114403F1410042
:404C000081F87F0004E05549114403F14100C87203F141010120C9B206F082FE514A1368013313604F4B1B68192B97D94C4BDB78DBB20B2B76D14D4B1A78002A6AD10E22AD
:404C40004D4B1A704D4B1B78012B04D101205D2106F008F803E00120702106F003F84020202105F039FC00223E4B1A6008E0444AD15C374A1A4482F843100133394A136062
:404C80003F4B1A78374B1B689A42F0D28020202105F022FC0022334B1A6008E0384AD15C2B4A1A4482F8611001332E4A1360344B1A782C4B1B689A42F0D2A020202105F014
:404CC0000BFC0022274B1A6008E02D4AD15C204A1A4482F87F100133224A1360284B1A78204B1B689A42F0D20020202105F0F4FB00221C4B1A6006E0214AD15C144AD15455
:404D00000133184A13601E4B1A78164B1B689A42F2D207E00120202106F002FE134A1378013B13700E4BDB78DBB20C2B40F0E2800E22114B1A70114B1B78012B22D10120BE
:404D40005D2105F08FFF21E03488FF1F8083FF1F3487FF1FD488FF1F3885FF1F9486FF1FD08AFF1F8C83FF1F0C81FF1F4D85FF1F9785FF1F2885FF1F7A83FF1F2785FF1FA6
:404D80005485FF1F0120702105F06CFFA74B1B78042B00F2AF80DFE803F0032C547CA200A34B1B78012B0DD1A24CA34B1B78237040F26A40A14905F051FB40F26A402146E3
:404DC00005F04CFB9A4B1B78002B40F093809C49994B1B780B70002005F040FB002840F089800120552105F03DFF6422954B1A7080E08F4B1B78012B0DD1934C8E4B1B782F
:404E0000237040F275408D4905F028FB40F27540214605F023FB864B1B78002B6AD1864B1B78874901F8433F402005F017FB002860D10120552105F015FF6422814B1A70F4
:404E400058E07B4B1B78012B0DD1804C7A4B1B7823704FF49060794905F000FB4FF49060214605F0FBFA724B1B78002B42D1724B1B78734901F8613F802005F0EFFA00289E
:404E800038D10120552105F0EDFE64226D4B1A7030E0674B1B78012B0DD16D4C664B1B78237040F28B40654905F0D8FA40F28B40214605F0D3FA5E4B1B78DBB95E4B1B7817
:404EC0005F4901F87F3FA02005F0C8FA90B90120552105F0C7FE64225A4B1A700AE0564B1A785C4BDA720120392105F0BBFE2422544B1A7064200EF0A9F90DF005FC38BDCE
:404F00000DF0D8FB082841F02984534B1B78DBB2AA2B2AD1504B9B79DBB2C32B25D14E4BDB79DBB23C2B20D14B4BDB78DBB25F2B04D07E2B12D05E2B17D107E00422414BAA
:404F40001A700120052105F08DFE0EE001201D2105F088FE0B223B4B1A7006E00120002105F080FE0022374B1A7046200EF06EF90DF0CAFB38BD0DF09DFB082841F0EE8329
:404F8000354B1B78DBB2AA2B40F0E180324B9B79DBB2C32B40F0DB802F4BDB79DBB23C2B40F0D580244B1B78062B25D82A4AD278D2B2092A0FD80133DAB21F4B1A7026485F
:404FC000C178244B13443031D972C17830310120C9B205F07DFE204BDB78DBB20A2B0BD1154B1A780132D2B21A701A4B13443021D972012005F06CFE174BDB78DBB20B2B81
:405000003FD10D4B1A785ABB0E220E4B1A70134B1B78012B04D101205D2105F023FE30E00120702105F01EFE2BE000BF9785FF1F3488FF1F2885FF1F4D85FF1F4C81FF1F50
:405040003487FF1F7A83FF1F8083FF1FD488FF1F3885FF1F9486FF1FD08AFF1F2785FF1F0120202105F034FEA44B1B78A44A1A44D27A2C2A02D10021A24A1170013B9F4ACD
:405080001370A14BDB78DBB20C2B60D19B4B1B78032B5CD906229D4B1A700120392105F0E1FD964B1A78964BDA72994B18780CF067F9002848D0974B93F8A320964B1B7821
:4050C0009A4204D140F2B310944905F0C7F9914B93F8A320924B1B789A4204D140F2A7108E4905F0BBF98B4B93F8A3208D4B1B789A4204D140F2AD10884905F0AFF9854B57
:4051000093F8A320884B1B789A4204D14FF47A70824905F0A3F901203C2105F0A3FD4FF4FA700EF093F80E22784B1A707F4B1B78012B04D101205D2105F094FD07E0012030
:40514000702105F08FFD02E00120FDF7B9FB64200EF07CF80DF0D8FA38BD0DF0ABFA082841F0FC82684B1B78DBB2AA2B59D1664B9B79DBB2C32B54D1634BDB79DBB23C2B0A
:405180004FD1614BDB787E3B042B4AD8DFE803F0420327323A000120582105F063FD01200021732240F2C31305F0B8FF01200021CF2240F2C51305F0B1FF01200146292225
:4051C00040F2C11305F0AAFF012001467B2240F2EE3305F0A3FF1C224C4B1A7021E00120062105F03FFD0022444B1A701D22474B1A7016E001206D2105F034FD1E22434B14
:405200001A700EE001208A2105F02CFD2A223F4B1A7006E00120002105F024FD00223B4B1A7064200EF012F80DF06EFA38BD0DF041FA082841F09282334B1B78DBB2AA2B36
:4052400056D1314B9B79DBB2C32B51D12E4BDB79DBB23C2B4CD12C4BDB787E3B042B47D8DFE803F03F03122130000120062105F0F9FC0022214B1A700122264B83F8A320B0
:405280001F22224B1A7033E00120062105F0EAFC00221A4B1A7002221E4B83F8A3201F221A4B1A7024E00120062105F0DBFC0022124B1A700322174B83F8A3201F22134BEF
:4052C0001A7015E00120062105F0CCFC00220B4B1A7004220F4B83F8A3201F220B4B1A7006E00120002105F0BDFC0022074B1A7064200DF0ABFF0DF007FA38BD4D85FF1F67
:405300009486FF1F7B83FF1FD08AFF1F7A83FF1F7083FF1F3487FF1FDF88FF1F9F86FF1F1E88FF1F4C85FF1F7C83FF1F2785FF1F0DF0C0F9082841F01182A64B1B78DBB27F
:40534000AA2B40F0BE80A34B9B79DBB2C32B40F0B880A04BDB79DBB23C2B40F0B2809E4B1B78042B36D89B4AD278D2B2092A0FD80133DAB2984B1A709648C178974B13446D
:405380003031D972C17830310120C9B205F0A0FC904BDB78DBB20A2B0BD18F4B1A780132D2B21A708D4B13443021D972012005F08FFC884BDB78DBB2512B0BD1864B1A7827
:4053C0000132D2B21A70854B13442C21D972012005F07EFC7F4BDB78DBB20B2B24D17E4B1A7882B90E227E4B1A707E4B1B78012B04D101205D2105F035FC15E00120702166
:4054000005F030FC10E00120202105F061FC724B1B78724A1A44D27A2C2A02D10021724A1170013B6C4A13706A4BDB78DBB20C2B47D1694B1B78052B43D1684B1B7B353BCD
:40544000DBB2022B3DD80120392105F00BFC624B1B78624901F80B3F4FF4DD7004F0FEFF012805D15D4B1B7B03F00F035F4A137040F25A205E4904F0F1FF012821D1574AD6
:40548000937B03F00F035B490B70137C03F00F03594A13703C2105F0E5FB4FF4FA700DF0D5FE0E224E4B1A704E4B1B78012B04D101205D2105F0D6FB03E00120702105F0E2
:4054C000D1FB64200DF0C2FE0DF01EF938BD0DF0F1F8082841F042813E4B1B78DBB2AA2B71D13C4B9B79DBB2C32B6CD1394BDB79DBB23C2B67D1374BDB78DBB28F2B04D085
:40550000902B2ED07E2B5ED156E03C49002381F82D3081F82E304FF4DE702D3104F09EFF01281AD10022364B1A703C2105F09AFB4FF4FA700DF08AFE2A4B1B78012B04D16C
:4055400001205D2105F08EFB03E00120702105F089FB0E22224B1A7035E00120FDF7B0F931E02649012381F82D3081F82E304FF4DE702D3104F072FF012819D1204B18705B
:405580003C2105F06FFB4FF4FA700DF05FFE154B1B78012B04D101205D2105F063FB03E00120702105F05EFB0E220D4B1A700AE00220FDF785F906E00120702105F052FBF5
:4055C0000E22074B1A7064200DF040FE0DF09CF838BD00BFD08AFF1F4D85FF1F9486FF1F7A83FF1F2785FF1F7B83FF1F3385FF1F9F86FF1F7D83FF1F1F88FF1F3487FF1F25
:40560000A285FF1F0DF056F8082841F0A780A64B1B78DBB2AA2B40F0B380A34B9B79DBB2C32B40F0AD80A04BDB79DBB23C2B40F0A7809E4B1B782BBB9B4AD278D2B2092A5D
:405640000FD80133DAB2994B1A709748C178984B13443031D972C17830310120C9B205F037FB914BDB78DBB20A2B0BD18F4B1A780132D2B21A708E4B13443021D972012053
:4056800005F026FB884BDB78DBB20B2B1BD1874B1A783AB90120002105F0E4FA0022854B1A7010E00120202105F012FB7F4B1B787F4A1A44D27A2C2A02D100217E4A117060
:4056C000013B7A4A1370784BDB78DBB20C2B57D1764B1B78012B53D10120392105F0C2FA724B1A78724BDA72744B93F8A330012B08D16F490A7B724B1A7040F2C1100B3118
:4057000004F0ACFE6D4B93F8A330022B08D168490A7B6C4B1A7040F2C3100B3104F09EFE664B93F8A330032B08D161490A7B664B1A7040F2C5100B3104F090FE5F4B93F8ED
:40574000A330042B08D15A490A7B604B1A7040F2EE300B3104F082FE4FF4FA700DF076FD0E22544B1A705A4B1B78012B04D101205D2105F077FA03E00120702105F072FA47
:4057800064200DF063FD0CF0BFFF38BD0CF092FF082840F0E387444B1B78DBB2AA2B40F0B682414B9B79DBB2C32B40F0B0823E4BDB79DBB23C2B40F0AA823B4BDB787E3BDA
:4057C000252B00F2A482DFE813F08102A202A202A202A202A202260017014A003A018700AB00F300CF00A202A202A202A202A202A202A202A2025F02A202A2023C025E01A3
:405800008201A202A202A202A202A202A202A601CA01EE0119022F4901230B7000234B7040F2C71004F01AFE012840F070823C2105F018FA4FF4FA700DF008FD0E221D4B91
:405840001A70234B1B78012B04D101205D2105F009FA5CE20120702105F004FA57E21D4901230B700B234B7040F2C71004F0F6FD012840F04C823C2105F0F4F94FF4FA70F8
:405880000DF0E4FC0E220B4B1A70114B1B78012B04D101205D2105F0E5F938E20120702105F0E0F933E200BFD08AFF1F4D85FF1F9486FF1F7A83FF1F7B83FF1F3487FF1F7B
:4058C0001E88FF1FDF88FF1F4C85FF1F7C83FF1F2785FF1F4885FF1FC54901230B7004234B7040F2C71004F0B9FD012840F00F823C2105F0B7F94FF4FA700DF0A7FC0E22F3
:40590000BC4B1A70BC4B1B78012B04D101205D2105F0A8F9FBE10120702105F0A3F9F6E1B34901230B700C234B7040F2C71004F095FD012840F0EB813C2105F093F94FF416
:40594000FA700DF083FC0E22AA4B1A70AA4B1B78012B04D101205D2105F084F9D7E10120702105F07FF9D2E1A14901230B7009234B7040F2C71004F071FD012840F0C781F2
:405980003C2105F06FF94FF4FA700DF05FFC0E22984B1A70984B1B78012B04D101205D2105F060F9B3E10120702105F05BF9AEE18F4901230B7008234B7040F2C71004F0AF
:4059C0004DFD012840F0A3813C2105F04BF94FF4FA700DF03BFC0E22864B1A70864B1B78012B04D101205D2105F03CF98FE10120702105F037F98AE17D4901230B704B70DE
:405A000040F2C71004F02AFD012840F080813C2105F028F94FF4FA700DF018FC0E22754B1A70754B1B78012B04D101205D2105F019F96CE10120702105F014F967E16C4945
:405A400001230B7006234B7040F2C71004F006FD012840F05C813C2105F004F94FF4FA700DF0F4FB0E22634B1A70634B1B78012B04D101205D2105F0F5F848E1012070217F
:405A800005F0F0F843E15A4901230B700E234B7040F2C71004F0E2FC012840F038813C2105F0E0F84FF4FA700DF0D0FB0E22514B1A70514B1B78012B04D101205D2105F011
:405AC000D1F824E10120702105F0CCF81FE1484901230B700D234B7040F2C71004F0BEFC012840F014813C2105F0BCF84FF4FA700DF0ACFB0E223F4B1A703F4B1B78012BC9
:405B000004D101205D2105F0ADF800E10120702105F0A8F8FBE0364901230B7003234B7040F2C71004F09AFC012840F0F0803C2105F098F84FF4FA700DF088FB0E222D4B42
:405B40001A702D4B1B78012B04D101205D2105F089F8DCE00120702105F084F8D7E0244901230B7005234B7040F2C71004F076FC012840F0CC803C2105F074F84FF4FA7076
:405B80000DF064FB0E221B4B1A701B4B1B78012B04D101205D2105F065F8B8E00120702105F060F8B3E0124901230B7007234B7040F2C71004F052FC012840F0A8803C214C
:405BC00005F050F84FF4FA700DF040FB0E22094B1A70094B1B78012B04D101205D2105F041F894E00120702105F03CF88FE000BF4885FF1F7A83FF1F2785FF1FAF49012357
:405C00000B700A234B7040F2C71004F027FC01287DD13C2105F026F84FF4FA700DF016FB0E22A74B1A70A74B1B78012B04D101205D2105F017F86AE00120702105F012F86F
:405C400065E09E4901230B7002234B7040F2C71004F004FC01285AD13C2105F003F84FF4FA700DF0F3FA0E22954B1A70954B1B78012B04D101205D2104F0F4FF47E0012068
:405C8000702104F0EFFF42E08C4900230B704B7040F2C71004F0E2FB012838D13C2104F0E1FF4FF4FA700DF0D1FA0E22844B1A70844B1B78012B04D101205D2104F0D2FF1F
:405CC00025E00120702104F0CDFF20E07B4900230B704B7040F2C71004F0C0FB01280FD10E22774B1A70774B1B78012B03D15D2104F0B8FF0BE00120702104F0B3FF06E02C
:405D00000120002104F0AEFF00226D4B1A7064200DF09CFA0CF0F8FC38BD0CF0CBFC08284CD1694B1B78DBB2AA2B42D1664B9B79DBB2C32B3DD1644BDB79DBB23C2B38D106
:405D4000614BDB78DBB20A2B27D101225F4B1A6010E05F4B58785F4B197801225E4B1B7806F028FA4FF4FA700DF070FA574A136801331360594B1A78544B1B689A42E8D242
:405D800001200C2104F06EFF64224D4B1A7054480CF0DAFE0CF0AAFE0BE001200C2104F061FF6422464B1A704D480CF0CDFE0CF09DFE64200DF04AFA0CF0A6FC494B1B78CD
:405DC000132B40F2CB8401200C2104F04BFF64223B4B1A700022434B1A7038BD0CF06AFC082840F0BB84384B1B78DBB2AA2B5ED1354B9B79DBB2C32B59D1334BDB79DBB253
:405E00003C2B54D1304BDB78DBB2392B0FD002D8382B05D04BE07E2B42D0942B35D046E00021274B1970012004F01CFF3FE0244D00232B7001203B2104F014FF244C6078F0
:405E400007F0BAF960780A2104F090FB60780A2104F08CFB60780A2104F088FB60781D2104F084FB6078562104F080FB6078312104F07CFB64232B7001221A4B1A7018488E
:405E80000CF062FE0CF032FE11E001202F2104F0E9FE0022144B1A702822094B1A7006E00120002104F0DEFE0022054B1A7064200DF0CCF90CF028FC38BD00BF4885FF1FF1
:405EC0007A83FF1F2785FF1FD08AFF1F5085FF1F9086FF1F3588FF1F7083FF1FD088FF1F752200009685FF1F4D85FF1F0CF0E2FB082840F03384B24B1B78DBB2AA2B3CD10D
:405F0000AF4B9B79DBB2C32B37D1AD4BDB79DBB23C2B32D1AA4BDB78DBB2912B04D0922B13D07E2B29D121E001200A2104F09AFE0122A44B1A700422A34B1A700022A34BC2
:405F40001A701822A24B1A7017E001206F2104F089FE21229B4B1A7004229B4B1A7000229A4B1A7018229A4B1A7006E00120002104F078FE0022964B1A7064200DF066F941
:405F80000CF0C2FB38BD934B012013F80B1F8D4A127804F0D1FC012820D16E2104F062FE23228B4B1A700120014604F0EBFB052810D90A200DF04AF9012005F02DFC012019
:405FC000212104F0DFFB052840F2C883012005F0A1FB38BD0120FCF773FC38BD0120FCF76FFC38BD0CF066FB082840F0B783744B1B78DBB2AA2B77D1714B9B79DBB2C32B16
:4060000072D16F4BDB79DBB23C2B6DD16C4BDB78DBB2392B04D07E2B47D0382B64D13CE06D4B5A78012A07D16C4901230B704B706B490B7002234B70022A08D1674B012215
:406040001A7003215970664B1A7004225A7040F26320624904F002FA012845D140F265205F4904F0FBF901283ED1682104F0FAFD4FF4FA700DF0EAF80E22554B1A70594B72
:406080001B78012B04D101205D2104F0EBFD2BE00120702104F0E6FD26E026224C4B1A700120672104F0DEFD1EE04F4B5B78012B03D100224C4B5A7002E001224A4B5A7004
:4060C00040F2DA30484904F0C9F901203C2104F0C9FD4FF4FA700DF0B9F80120002104F0C1FD00223A4B1A7064200DF0AFF80CF00BFB38BD0CF0DEFA082840F02F83304BE5
:406100001B78DBB2AA2B40F0E0802D4B9B79DBB2C32B40F0DA802A4BDB79DBB23C2B40F0D480274BDB78DBB28C2B0AD003D87E2B00F0C480C9E08D2B58D08E2B00F091802A
:40614000C3E0254B5B78012B07D1244A0120107002215170224A10705170022B07D11F4B0121197004225A701D4B19705A7040F263201A4904F072F9012840F0A68040F2A8
:406180006520174904F06AF9012840F09E806A2104F068FD4FF4FA700DF058F80E220C4B1A70104B1B78012B04D101205D2104F059FD8AE00120702104F054FD85E000BFE0
:4061C000D08AFF1F9885FF1F9785FF1F4D85FF1F7A83FF1F9486FF1F8C86FF1F9086FF1F3087FF1F2785FF1F7883FF1FAE4B5A78012A06D1AD4901230B704B70AC490B70C6
:406200004B70022A07D1A94B0121197003225A70A74B19705A7040F26320A44904F01EF9012852D140F26520A14904F017F901284BD1692104F016FD4FF4FA700DF006F8B0
:406240009C4B1B78012B04D101205D2104F00AFD03E00120702104F005FD0E22964B1A7033E092490120087000224A70904B18705A7040F2632004F0F1F8012825D140F270
:4062800065208B4904F0EAF801281ED16C2104F0E9FC4FF4FA700CF0D9FF0E22864B1A70844B1B78012B04D101205D2104F0DAFC0BE00120702104F0D5FC06E001200021CF
:4062C00004F0D0FC00227C4B1A7064200CF0BEFF0CF01AFA38BD0CF0EDF9082840F03E82764B1B78DBB2AA2B40F0D780734B9B79DBB2C32B40F0D180704BDB79DBB23C2B19
:4063000040F0CB806E4B1A78032A26D86B4BDB78DBB2092B0ED8694BD9786A4B1344303183F88E1001202A2104F0D2FC644A137801331370614BDB78DBB20A2B0DD1604CC8
:406340002278604B1344302183F88E1001202A2104F0BEFC237801332370584BDB78DBB20B2B0ED1564B1B781BB90120FCF7A8FA07E0013BDAB2524B1A700120202104F019
:40638000A7FC4E4BDB78DBB20C2B40F086804C4B1A78002A72D000234B490B604B490B6012E0591C4A48405C464C234493F88E30984204D1444803680133036002E0002088
:4063C000414B1860414B19601046404B1B689A42E7D83F4B1A783C4B1B689A420FD10120262104F03FFC4FF4FA700CF02FFF2222314B1A700120712104F034FC4DE00023D4
:40640000314A1360314A136010E0314A1A4492F824102C4A1A4492F88E20914203D12A490A6801320A600133284A1360274B1B689842EAD8244B1B68042B0FD101202621B1
:4064400004F010FC4FF4FA700CF000FF22221A4B1A700120712104F005FC1EE00120272104F000FC6422144B1A700122194B1A7019480CF069FB0CF039FB0EE0012027217A
:4064800004F0F0FB64220C4B1A700122114B1A7011480CF059FB0CF029FB64200CF0D6FE0CF032F938BD00BF8C86FF1F9086FF1F3087FF1F2785FF1F7A83FF1FD08AFF1FFF
:4064C0004D85FF1F9486FF1FA485FF1F8C83FF1F0C81FF1F9685FF1F752200000CF0EAF8082840F03B819E4B1B78DBB2AA2B7AD19B4B9B79DBB2C32B75D1994BDB79DBB2E2
:406500003C2B70D1974B1A78032A27D8944BDB78DBB2092B10D89248C178934B1344303183F88E10C17830310120C9B204F0D0FB8C4A137801331370894BDB78DBB20A2B80
:406540000CD1884C2278884B1344302183F88E10012004F0BDFB237801332370804BDB78DBB20B2B0ED17F4B1B781BB90120FCF7A7F907E0013BDAB27A4B1A700120202108
:4065800004F0A6FB764BDB78DBB20C2B2BD1754B1B78042B27D10120392104F063FB0023724A13706F4A127871490A7071490B6008E0591C6C48034493F88E006C4B585459
:4065C0006C4B19606B4B1B689A42F2D840F29F20674903F043FF30B90120552104F042FB6422624B1A7064200CF030FE0CF08CF838BD0CF05FF8082840F0B080584B1B780C
:40660000DBB2AA2B42D1564B9B79DBB2C32B3DD1534BDB79DBB23C2B38D1514BDB78DBB2BD2B13D0BE2B22D0BC2B2FD10120702104F018FB504901230B704B704FF47D70D3
:4066400003F00CFF0E22494B1A701FE00120702104F008FB484901230B7002234B704FF47D7003F0FBFE0E22404B1A700EE00120062104F0F7FA0122404B1A700023394ABC
:4066800013703F4A13700522384B1A7064200CF0DDFD0CF039F838BD0CF00CF808285DD12F4B1B78DBB2AA2B58D12D4B9B79DBB2C32B53D12A4BDB79DBB23C2B4ED1284B2B
:4066C000DB78DBB2772B39D002D8762B05D038BD822B12D0832B20D038BD0120302104F0C1FA0023274A13701E4A13700122264B1A7018221D4B1A7038BD0120302104F0E0
:40670000B1FA01231F4A13700021164A11701E4A13701822154B1A7038BD0120302104F0A1FA0222174B1A7000220E4B1A700122154B1A7018220D4B1A7038BD01203021F2
:4067400004F090FA03220F4B1A700022054B1A7001220D4B1A701822044B1A7038BD00BFD08AFF1F4D85FF1F9486FF1F7A83FF1F0C81FF1F8C83FF1F8C86FF1F8F86FF1FD4
:406780007B83FF1F9785FF1F3488FF1F38B5984B1B78642B03F28385DFE813F074008000811DA100000188011D02B702E702260311046304D0045205850562068007CF0753
:4067C00076080F098E09F90A4E0CD30DEE0EDC111712EE126B13D213A21441151E16DF184A19B919061A361ADA1AB61BB61C411D811D811D811D811D811D811D811D811DF9
:40680000811D811D811D811D811D811D811D811D811D811D811D811D811D811D811D811D811D811D811D811D811D811D811D811D811D811D811D811D811D811D811D811D98
:40684000811D811D811D811D811D811D811D811D811D811D811D811D811D811D811D811D811D811D6500634B1B78012B43F2178500245F4B1C700CF02FFA0CF091F95D4BAC
:406880001C7038BD5C480CF019FA0CF0E9F90022584B1A700122564B1A7038BD0BF0F8FF082843F0FC840CF01DF80CF015FA0CF077F9524B1B78022B04D10220632104F00B
:4068C000D1F903E00220452104F0CCF964200CF0BDFC0CF007F80322454B1A7038BD0BF0D7FF082843F0DB84454B1B78DBB2AA2B4ED1434B9B79DBB2C32B49D1404BDB79F5
:40690000DBB23C2B44D13E4BDB78DBB2592B2DD002D8452B1FD03BE05C2B02D07E2B30D036E00022374BDA70344B1B78012B06D10220052104F096F904222D4B1A702F4B88
:406940001B78022B24D10220492104F08BF91922274B1A701CE00220252104F083F90022294B1A700F22224B1A7011E00220252104F078F90022244B1A7027221C4B1A70F8
:4069800006E00220002104F06DF90022184B1A7064200CF05BFC0BF0A5FF38BD0BF078FF082843F07C84164B1B78DBB2AA2B77D1134B9B79DBB2C32B72D1114BDB79DBB2FA
:4069C0003C2B6DD10F4AD37823F00303D3700C4BDB78DBB23B2B4BD004D80F2B16D0102B28D05DE0432B3BD07E2B52D058E000BF4B85FF1F2585FF1FBD2200002785FF1F34
:406A0000E48AFF1F3888FF1F2D87FF1F0220062104F028F90022984B1A700220242104F057F9964AD37843F00203D3700522944B1A7035E002200D2104F014F900228E4BEB
:406A40001A70904B1A700220472104F041F98B4AD37843F00103D3700522894B1A701FE00220072104F0FEF80622854B1A7017E0854B1B78022B04D10220632104F0F2F8BB
:406A800003E00220452104F0EDF803227C4B1A7006E00220002104F0E5F80022784B1A7064200CF0D3FB0BF01DFF38BD0BF0F0FE082843F0F483754B1B78DBB2AA2B40F0B1
:406AC0008480724B9B79DBB2C32B7ED16F4BDB79DBB23C2B79D1684B1B786D4A1278013A93423EDC694AD278D2B2092A0FD80133DAB2614B1A706548C178604B1344303120
:406B0000D972C17830310220C9B204F0E1F85F4BDB78DBB20A2B0BD1574B1A780132D2B21A70564B13443021D972022004F0D0F8564BDB78DBB2512B13D14F4B1B7883B142
:406B4000504A12786AB90133DAB24B4B1A704B4B13442C21D972022004F0BAF80122494B1A704A4BDB78DBB20B2B1BD1424B1A783AB90220052104F075F80422404B1A70D3
:406B800010E00220202104F0A3F83B4B1B783B4A1A44D27A2C2A02D100213A4A1170013B354A1370394BDB78DBB20C2B0DD1324B1B7853B10220072104F054F82E4B1A78FC
:406BC0002E4BDA7206222E4B1A7064200CF03EFB0BF088FE38BD64200CF038FB0BF058FE082820D1294B1B78DBB2AA2B15D1274B9B79DBB2C32B10D1244BDB79DBB23C2B69
:406C00000BD1224BDB78DBB27E2B06D10220002104F028F800221A4B1A7064200CF016FB0BF060FE38BD1B4B187906F0B1FE072843F0358332200CF009FB164B187906F074
:406C4000BBFE154B187032200CF000FB0B4BDB7813F0030324D00F4A10790F4A11780F4A0AF04CF9E0B90220002103F0FBFF0022034B1A7038BD00BF2D87FF1F3888FF1F01
:406C80004B85FF1F4E85FF1F2785FF1FE48AFF1F3385FF1F7083FF1F9286FF1F4388FF1F01200CF07DFA9D4B187906F085FE9C4B1870002803F0F3829A4B1B7803F00F0397
:406CC000834211D0984B1B7803F00F0398420BD0964B1B7803F00F03984205D0944B1B7803F00F03984202D102200AF087FD8B4B187940F010000BF06FF80220082103F08B
:406D0000B1FF07228B4B1A7038BD32200CF09EFA824B187906F03CFE0A2813D00B2803D0062843F0BC8218E064200CF08FFA7B4B187906F0B5FE012843F0B18208227D4B75
:406D40001A7038BD754B187906F0AAFE012843F0A6820822774B1A7038BD0220002103F081FF0022734B1A7038BD734B1B78012B02D0022B10D038BD02200B2103F072FF9E
:406D80006E480BF09BFF0BF06BFF00226C4B1A700A22684B1A7038BD6A4BDB7813F0040F0FD102200B2103F05DFF64480BF086FF0BF056FF0022624B1A700A225D4B1A7094
:406DC00038BD02200B2103F04DFF00245D4B83F883405A480BF072FF0BF042FF584B1C700A22544B1A7038BD0BF052FD082840F0D180554B1B78DBB2AA2B40F0C680524BA1
:406E00009B79DBB2C32B40F0C0804F4BDB79DBB23C2B40F0BA800022494B1A704B4B1B78062B65D8484AD278D2B2092A10D80133DAB2464B1A704448C178424B13443031D0
:406E400083F86510C17830310220C9B203F040FF3D4BDB78DBB20A2B0CD13C4B1A780132D2B21A70374B1344302183F86510022003F02EFF344BDB78DBB26A2B0CD1334B3A
:406E80001A780132D2B21A702E4B13442D2183F86510022003F01CFF2B4BDB78DBB21A2B26D9294BDB78DBB2422B21D80022284B1A6019E0244AD278D2B226491944097ADA
:406EC0008A420DD121490A780132D2B20A704133D9B21C4B134483F86510022003F0F8FE1B4A136801331360194B1B68192BE1D9154BDB78DBB20B2B36D1144B1A785ABB24
:406F000002200B2103F0AEFE0E4B002283F8652083F883200A22074B1A7025E07083FF1F9286FF1F1E88FF1FDF88FF1F4C85FF1F7C83FF1F4B85FF1F2785FF1FBD2200008B
:406F40002585FF1F3888FF1FE48AFF1F2D87FF1F8C83FF1F0C81FF1F0220202103F0B8FEB04A1378013B1370AF4BDB78DBB20C2B0BD1AC4B1A7842B1AC4B83F86520012262
:406F800083F883200D22AA4B1A7064200CF05EF90BF0A8FCA74B1B781D2B43F2808102200B2103F05FFEA14A002382F8653082F88330A04A13700A229D4B1A7038BD0BF0A9
:406FC00067FC08283DD1984B1B78DBB2AA2B33D1954B9B79DBB2C32B2ED1934BDB79DBB23C2B29D1904BDB78DBB2382B15D0392B22D100228B4B1A708C4BDB7813F0040F6A
:4070000007D102200A2103F02DFE0922884B1A7012E00D22864B1A700EE002200C2103F021FE0122834B1A7083480BF047FE0BF017FE64227E4B1A7064200CF007F90BF0D0
:4070400051FC7C4B1B781D2B43F2298102200C2103F008FE0122774B1A706422744B1A7038BD0220012103F08DFB052840D90A200CF0ECF80220212103F084FB052837D9A5
:40708000022003F097FA012832D133200BF048FC0220332103F0D0FA50B30022674B1A600AE0022003F032FB604B1C4484F82900624A136801331360604B1C68072CF0D913
:4070C0000220132103F0CEFD584CE37843F00403E3704FF4FA700CF0B9F802200E2103F0C1FD00234F4A137023710C22504B1A700BF0CEFB082843F0D2804B4B1B78DBB23F
:40710000AA2B15D1484B9B79DBB2C32B10D1464BDB79DBB23C2B0BD1434BDB78DBB23B2B06D10220632103F09DFD0322404B1A7064200CF08BF80BF0D5FB38BD0BF0A8FB63
:40714000082843F0AC80384B1B78DBB2AA2B62D1354B9B79DBB2C32B5DD1334BDB79DBB23C2B58D12F4B1B78052B25D82E4AD278D2B2092A0FD80133DAB22A4B1A702A48DE
:40718000C1782A4B134430311971C17830310220C9B203F09DFD244BDB78DBB20A2B0BD1204B1A780132D2B21A70204B134430211971022003F08CFD1B4BDB78DBB20B2BC6
:4071C00012D1184B1A783AB90220052103F04AFD0422174B1A7007E00220202103F078FD104A1378013B13700F4BDB78DBB20C2B11D10C4B1B7873B10C4B5B79302B0AD019
:407200000220052103F02EFD064B1A78074B1A710422074B1A7064200CF018F80BF062FB38BD00BF2D87FF1FE48AFF1F3888FF1F4B85FF1F2585FF1FBD2200005085FF1FC6
