:4000000000800020110000009D0000009D00000080B500AF064B064A126842F020021A60044B054A12681A6000F004FB00F03AF8E8460040BC760040FA46004010B5054CEF
:40004000237833B9044B13B10448AFF300800123237010BD2881FF1F00000000901D000008B5064B1BB106480649AFF300800648036813B1054B03B1984708BD00000000C2
:40008000901D00002C81FF1F0881FF1F0000000080B500AF00F078FAFEE700BF80B400AFFEE700BF80B586B000AF224B7B61224B3B61204B7B6135E03B691B68FB603B69C2
:4000C0005B68BB603B699B683B6000237B600CE0FB681A68BB681A60BB680433BB60FB680433FB607B6804337B607A683B689A42EED13B69DB683B6000237B6008E0BB686A
:4001000000221A60BB680433BB607B6804337B607A683B689A42F2D13B6910333B617B69013B7B617B69002BC6D101F0F5FDFFF7AFFFFEE701000000A021000080B582B0DB
:4001400000AF174B174A1A60174B174A126842F400721A6000237B600FE07B68032B04D8124B7A6853F8223000E0114B114A796842F821307B6801337B607B682F2BECD987
:400180000D4B1B78DAB20D4B1A700D4B094A1A6000F026F90B4B00221A600837BD4680BD0CED00E00004FA0514ED00E0000000009D0000000080FF1FBC7600400481FF1F34
:4001C00008ED00E00081FF1F80B582B000AF78603960786800213A6801F0CDFD0837BD4680BD00BF80B584B000AFF860B9607A60F868B9687A6801F0B5FD1037BD4680BD78
:4002000080B584B000AFF860B9607A60F868B9687A6801F0A7FD1037BD4680BD80B483B000AF0346FB71FEE780B487B000AF7860396000233B6100237B6126E07B699B005E
:400240007A6813441B68BB60BB68FB73BB6823F0FF03BB6013E03B695B003A6813441B781A46BB6813443A69520039680A4452781A703B6901333B61FB7B013BFB73FB7B29
:40028000002BE8D17B6901337B617B69102BD5D91C37BD465DF8047B704700BF80B582B000AF304B19221A802F4B18221A702F4B02221A704FF0402308221A702C4B03223B
:4002C0001A702C4B2C4A1278D2B21A702B4B08221A802B4B41F251221A800023FB7019237B6014E0FB785B00DAB2264B1B78DBB203F00103DBB21343DBB203F00303FB70B0
:400300004FF4F07000F00CFF7B68013B7B607B68002B02D0FB78032BE4D17B68002B02D10320FFF77BFF184B4FF480721A80164B07221A70154B00221A70154B48221A70D5
:40034000114B00221A70134B02221A70124B124A1278D2B242F00102D2B21A700837BD4680BD00BF80400040824000400043004000420040A14600400801004922420040FD
:40038000204200402542004004400040064000400840004001400040A243004080B483B000AF0B4B1B78FB710A4BFA7902F00702D2B21A70084BFA791209D2B21A70074B3F
:4003C00044221A700C37BD465DF8047B704700BFCF0100496E5800406F5800407658004080B582B000AF72B6334B334A1278D2B242F02402D2B21A700023FB7113E0FA79A7
:4004000013465B0013445B002C4A13443B603B681A683B689B889BB210461946FFF7D4FEFB790133FB71FB79072BE8D924482549FFF7FAFE244B244A1278D2B242F00202D5
:40044000D2B21A70214B214A1278D2B242F00202D2B21A701E4B1E4A1278D2B242F04002D2B21A701B4B1B4A1278D2B242F01002D2B21A70184819490A22FFF7C1FE184BB3
:40048000174A1278D2B242F00802D2B21A70154B01221A70FFF702FF124B81221A70124B01221A70FFF77AFF104809490E22FFF799FE0837BD4680BDE8460040941D000077
:4004C000C41D0000081E00000350014013500140A0430040C24300406051004068210000224300400048004004000840B043004080B485B000AF78600B467B800023FB8154
:400500000BE07B88013B7A6813441B781A46FB891344FB817B88013B7B807B88002BF0D1FB895B429BB218461437BD465DF8047B704700BF80B586B000AFF860B9607A601C
:400540000023FB75FA680F4B9A4206D0FB68002B03D0002000F070FF0CE00BE07B68013B7B60FA68BB681A447B6813441A78FB7D1344FB757B68002BF0D1FB7D18461837E7
:40058000BD4680BD0080004080B582B000AF06237B60002000F06EF80346002B01D100237B601C4B1B681B68002000211A46FFF7C1FF0346FB70184B1B681B78FA78D31A17
:4005C000FB70FB785B42FB70134B1B681B78FA789A4204D10F4B1B681B68002B02D1002000F02AFF0D4B1B78DBB203F0C003402B02D07B68002B05D0084B00221A7000207A
:4006000000F0AEF8322000F0ABF800F009F80837BD4680BD1081FF1F0C81FF1FFA46004080B500AF024B80221A7000F011FF80BDFA46004080B500AF0C4B1B78DBB203F08D
:40064000C003802B11D1094B00221A700220002100F0DCFB0346002B07D00220002100F0D5FB0346184600F003F880BDFA460040004700BF90B587B000AF0346FB71FB7929
:400680000320194600F0C2FB034601331C02FB790420194600F0BAFB03462344FB600023FB740023BB74FB790320194600F0AEFB034601331B027B6111E07B691B78FB720B
:4006C000FB7A002B04D0FB7AFF2B01D00123FB74BA7CFB7A1344BB747B6901337B617A69FB689A42E9D3FB790320194600F08EFB034601331B02DB087B61FA68174B9A4218
:4007000002D0FB68DB0801E04FF40043FB600AE07B6903F190431B78DAB2BB7C1344BB747B6901337B617A69FB689A42F0D3BB7C5B42BB74BC7CFB790120194600F066FB15
:4007400003469C4202D1FB7C002B01D1062300E0002318461C37BD4690BD00BFC0FF030080B5ADF5247D00AF0246FB1D1A700023A7F88A320023A7F888320A2387F88732ED
:40078000002387F8863200F055FD0346002B02D0002000F051FE00F01BFC62B6002387F88D32FB1D1B78002B02D0FB1D1B7800E0FF2307F59E7107F26A2208464FF49671FB
:4007C00000F034FCC7F87802FB1D1B78002B04D097F88732013B87F8873297F88732002B03D0D7F87832002BDBD1D7F87832002B00D0B0E2B7F86A32062B04D907F59E7338
:400800001B78012B03D0042387F88D3244E007F59E73DB781B029AB207F59E739B781343A7F88A32B7F88A32053307F59E72D35C1B029AB2B7F88A32043307F59E71CB5CE8
:400840001343A7F87632B7F88A32DA1DB7F86A329A4203D9032387F88D321DE0B7F88A32063307F59E72D35C172B03D0042387F88D3211E0B7F88A3204339BB207F59E72D0
:4008800010461946FFF734FE0346B7F876229A4202D0082387F88D320023A7F88E3297F88D32002B40F04C8207F59E731B7987F87532042387F88D3207F59E735B78313B43
:4008C0000A2B00F2398201A252F823F0F908000033090000390D0000CD0900003F0B0000390D0000510B0000A70B0000CD090000EB0B0000210D000097F88632012B17D1CA
:40090000B7F88A32002B13D10020FFF7B3FE0346002B14BF00230123DBB21A4607F59E731A710123A7F88E32002387F88D3207E206E297F88632012B47D1B7F88A32012B8C
:4009400043D197F87532032B3FD8D14B1B681B681B0C87F8743297F8752297F874329A4208D1CB4B1B681B681B0A9BB2DBB2A7F884320DE097F8752297F874329A4203D9FA
:400980000023A7F8843203E04FF48073A7F88432B7F88432DAB207F59E731A71B7F884321B0A9BB2DAB207F59E735A7107F59E73FF229A7107F59E730022DA710423A7F814
:4009C0008E32002387F88D32BAE1B9E107F59E735B78342B23D197F88632012B40F0B081B7F88A32032B40F0AB8197F875323F2B08D997F875325BB2002B03DB1023A7F806
:400A0000883203E04FF49073A7F88832B7F8883207F11002104600211A4601F0ACF997F88632012B40F08A80B7F88A32022B40F28580B7F8883207F11002D118B7F88A3257
:400A4000033B07F59E720732084611461A4601F089F9B7F88822B7F88A3213449BB2033BA7F8883297F875323F2B0AD997F875325BB2002B05DB00F099FC1023A7F88A3298
:400A800003E04FF49073A7F88A32B7F88822B7F88A329A424BD107F59E739B791B029AB207F59E735B791343A7F8883297F875323F2B27D897F875329BB21B029AB2B7F8A2
:400AC00088321344A7F87232714B1B681B681B0AA7F882326E4B1B681B68DBB2002B04D0B7F882320133A7F88232B7F87222B7F882329A4206D20A2387F88D320023A7F8AC
:400B000088321DE197F87502B7F8881207F11002B7F88A3200F0A0FB0346002B01D00A2300E0002387F88D3200F0D6FC02E0032387F88D320023A7F8883201E100E197F825
:400B40008632012B03D10023A7F8883203E1F7E097F88632012B25D1B7F88822B7F88A321344B3F5967F19D8002387F88D32B7F8883207F11002D118B7F88A3207F59E7220
:400B80000432084611461A4601F0ECF8B7F88822B7F88A321344A7F8883203E0032387F88D32CDE0CCE0B7F88A32002B1CD107F10803384A92E8030083E80300012387F87B
:400BC00086320823A7F88E32B7F88E3207F59E72111D07F10802084611461A4601F0C2F8002387F88D32ABE0AAE097F88632012B40F09580B7F88A32032B40F0908007F555
:400C00009E739B791B029AB207F59E735B791343A7F8703297F875323F2B13D997F875325BB2002B0EDBB7F870321B01C7F86C321948D7F86C121022FFF77CFC034687F8EB
:400C4000813212E097F875321A02B7F8703213441B02C7F86C320020D7F86C124FF48072FFF768FC034687F8813297F875323F2B29D897F8753203F510331A02B7F8703265
:400C800013445B01C7F86C320023A7F87E3216E01081FF1F7421000000800040B7F87E22D7F86C3213441B78DAB297F88132134487F88132B7F87E320133A7F87E32B7F82A
:400CC0007E321F2BEAD997F87532032B19D1B7F87032FF2B15D10520002100F097F80346DBB297F88122D31A87F881320620002100F08CF80346DBB297F88122D31A87F86D
:400D0000813297F881325B42DAB207F59E731A71002387F88D320123A7F88E3210E00FE00020FFF7A7FC0346002B02D1114B80221A7000F08DFB03E0052387F88D3200BF32
:400D400097F88D1207F59E72B7F88E32084611461A4600F011F8FB1D1B78002B3FF41EAD97F88632012B3FF419AD07F52477BD4680BD00BFFA46004080B584B000AF3960C5
:400D800013460246FA71BB803B6801221A703B680133FA791A703B680233BA88D2B21A703B680333BA88120A92B2D2B21A70BB8804339BB238681946FFF79AFB0346FB8101
:400DC000BB8804333A681344FA89D2B21A70BB8805333A681344FA89120A92B2D2B21A70BB8806333A68134417221A70BB8807339AB23B1D386811461A46962300F0F2F847
:400E0000034618461037BD4680BD00BF80B586B000AF02460B46FA71BB710223FB740023FB60FB79013B092B00F2928001A252F823F000BF5D0E0000770E0000910E000033
:400E4000A70E0000C10E0000DB0E00000B0F0000F50E0000210F0000370F0000BA7913461B069B1A1B0203F57F3303F570737B610123FB7472E0BA7913461B069B1A1B022E
:400E800003F57F3303F2C1337B610423FB7465E0BA7913461B069B1A1B0203F57F3303F2C5337B615AE0BA7913461B069B1A1B0203F57F3303F2C9337B610423FB744DE003
:400EC000BA7913461B069B1A1B0203F57F3303F574737B610123FB7440E0BA7913461B069B1A1B0203F57F3303F2D1337B610123FB7433E0BA7913461B069B1A1B0203F540
:400F00007F3303F2D6337B6128E0BA7913461B069B1A1B0203F57F3303F2D2337B611DE0BA7913461B069B1A1B0203F57F3303F575737B6112E0BA7913461B069B1A1B02CB
:400F400003F57F3303F576737B610423FB7405E0002000F071FA00237B6100BFFB7C012B03D17B691B78DBB2FB60FB7C022B0BD17B691B78DBB2FB607B6901331B78DBB269
:400F80001B02FA681343FB60FB7C042B1BD17B691B78DBB2FB607B6901331B78DBB21B02FA681343FB607B6902331B78DBB21B04FA681343FB607B6903331B78DBB21B06E2
:400FC000FA681343FB60FB6818461837BD4680BD80B500AF00F0A0FC00F0A0FD00F0F6FD80BD00BF80B586B000AFF8607A600A467A817B720023FB8200F090FD09E0FB8AA3
:40100000FA6813441B78184600F0C6FDFB8A0133FB82FA8A7B899A42F1D37B687A891A80002318461837BD4680BD00BF90B589B000AFF8607A600A467A817B720523BB61CB
:401040000023FB831AE000F021FD0346002B0FD000F01CFD0346FB82192000F009FA00F015FD0346FA8A9A42F2D30023BB610DE0012000F0FDF9FB8B0133FB83F98B7A7A26
:4010800013469B0013445B009942DCDB7B6800221A800023BB8336E000F0F8FC0346BB827B681A88BB8A13449AB27B681A807B681B887A899A421ED90023FB830CE0BB8B5F
:4010C000FA68D41800F098FC03462370BB8B0133BB83FB8B0133FB83FA8BBB8A9A42EED3BB8B013BFA6813441B78172B0BD0052000F0BEF907E07B681A88BB8AD31A9AB24A
:401100007B681A8004E000F0C1FC0346002BC3D1BB6918462437BD4690BD00BF000000000230800800F0058000BF013800467FF4FCAF7047EFF3108072B6704780F310880F
:40114000704700BFAFF3008080B582B000AF00F039FA4FF0FF337B6000F05EFB0346002B24D1012000F026FB0346072B1BD11348022100F049FA0346022B0DD100237B6004
:4011800002E0012000F096F90D4B1B78DBB203F00203002BF5D006E0094B1B78DBB203F00203002BE3D000F06BFB01E004237B607B6818460837BD4680BD00BF5481FF1F72
:4011C0002247004080B582B000AF00F0FBF900F023FB0346002B23D100F07AFB78607B68072B1AD102E0012000F064F9104B1B78DBB203F00203002BF5D00D4B1B78DBB26E
:4012000003F00203002B08D0094B1B78DBB29B08DBB2002B01D100237B6000F031FB01E004237B607B6818460837BD4680BD00BF2247004080B582B000AFFFF7C3FF786047
:401240007B68002B02D1FFF77FFF78607B6818460837BD4680BD00BF80B586B000AFBA600246FA730A46BA81FB8000237B61FB7B3F2B04D8FB7B042B01D901237B61FB7B23
:401280005BB2002B01DA01237B61FB7B3F2B04D9FB7B412B01D901237B61FB7B3F2B06D8BB89B3F5807F0CD901237B6109E0BB89802B01D901237B61FB88102B01D00123AF
:4012C0007B61BB68002B01D101237B617B69002B62D100F0A1FA0346002B5BD1F97BBA89FB8808461146BA6800F0BAF978617B69072B4CD102E0012000F0DCF8294B1B7807
:40130000DBB203F00203002BF5D0264B1B78DBB203F00203002B09D0224B1B78DBB29B08DBB2002B02D100237B6102E04FF0FF337B617B69002B2AD11B4B1A781A4B5B7888
:40134000F87BB98900F0F2F978617B69072B1ED102E0012000F0AEF8124B1B78DBB203F00203002BF5D00F4B1B78DBB203F00203002B09D00B4B1B78DBB29B08DBB2002BBA
:4013800002D100237B6102E04FF0FF337B6100F077FA01E004237B617B6918461837BD4680BD00BF224700405481FF1F80B582B000AFFFF7BFFE0346FB71194B184A1278ED
:4013C000D2B242F00802D2B21A70164B154A1278D2B242F00802D2B21A70134BC8221A70124B124A1278D2B242F01002D2B21A700F4B0F4A1278D2B242F01002D2B21A7009
:4014000000BF0C4B1B78DBB203F02003002BF8D0FB791846FFF792FE0837BD4680BD00BFA0430040B043004001470040AC430040BC4300400047004080B483B000AF0346A5
:40144000FB7101BE0C37BD465DF8047B704700BF80B400AF054B054A1278D2B242F00102D2B21A70BD465DF8047B7047F646004080B582B000AF786008E00C4B1B681846C6
:40148000FFF74EFE7B68A3F500437B607B68B3F5004FF2D8064B1B687A6802FB03F31846FFF73EFE0837BD4680BD00BF2081FF1F1881FF1F80B582B000AF0346FB80FB8863
:4014C000044A127802FB03F31846FFF729FE0837BD4680BD1C81FF1F80B582B000AFFFF729FE0346FB7100BF00BF00BF00BF00BF00BF00BF00BF00BF00BF00BF00BF00BFD1
:4015000000BF00BF00BF094B084A128892B242F0040292B21A80054B1B88BFF36F8FFB791846FFF70BFE0837BD4680BD0048004080B584B000AF03463960FB710F4B1B6816
:40154000FB60FB791F2B02D90020FFF775FFFB7903F01F0310339B00FA6813441B68BB60FB7903F01F0310339B00FA6813443A681A60BB6818461037BD4680BD08ED00E016
:4015800080B582B000AF02460B46FA71BB71BB79072B02D90020FFF74FFFFB791F2B02D90020FFF749FFFB7903F01F0303F1604303F56443BA795201D2B21A700837BD46B4
:4015C00080BD00BF80B582B000AFFFF7B3FD0346FB710B4B0A4A1278D2B242F00802D2B21A70084B074A1278D2B242F00802D2B21A70FB791846FFF7A1FD0837BD4680BD9B
:40160000A0430040B043004080B584B000AF78600B46FB700023FB7314E002E00120FFF749FF0D4B1B78DBB203F00103002BF5D0FB7B7A681344094A1278D2B21A70FB7B73
:401640000133FB73FA7BFB789A42E6D3FB7B18461037BD4680BD00BF224700402047004080B489B000AFBA600246FA730A46BA81FB800723FB612B4B1B78DBB203F00203DC
:40168000002B45D0284BB6221A70274BD5221A70254B02221A70234B1B78DBB203F00203002B32D1204BFA7B1A7000237B8308E01D4B7A8BB9680A4412781A707B8B0133B3
:4016C0007B837A8BFB889A42F2D3FB88B3F5807F20D1FB7B3F2B1DD8FB7B03F510331A02BB8913445B017B6100237B8309E00E4B798B7A690A441278D2B21A707B8B0133C9
:401700007B837B8B1F2BF2D904E00923FB6101E00423FB61FB6918462437BD465DF8047B704700BF224700402047004080B485B000AFF871B980BA71FB700723FB601B4BCB
:401740001B78DBB203F00203002B26D0184BB6221A70174BD8221A70154B05221A70134B1B78DBB203F00203002B13D1104BFA791A700F4BBA88120A92B2D2B21A700C4B36
:40178000BA88D2B21A700A4BBA791A70084BFA781A7004E00923FB6001E00423FB60FB6818461437BD465DF8047B7047224700402047004080B485B000AF0346FB710723C9
:4017C000FB60134B1B78DBB203F00203002B16D0104BB6221A700F4BE1221A700D4B0E221A700B4B1B78DBB203F00203002B03D1084BFA791A7004E00923FB6001E0042321
:40180000FB60FB6818461437BD465DF8047B7047224700402047004080B582B000AF04237B60FFF787FC0346FB70124B1B78002B16D1104B01221A7000237B600E4B1B683A
:4018400003F00103002B0BD00B4B0B4A126822F001021A6000BF00BF00BF084B01221A60FB781846FFF76AFC7B6818460837BD4680BD00BF4481FF1F040008404881FF1FC8
:4018800080B582B000AFFFF755FC0346FB710D4B00221A700C4B1B68012B0BD10B4B0B4A126842F001021A6000BF00BF00BF064B00221A60FB791846FFF740FC0837BD46EC
:4018C00080BD00BF4481FF1F4881FF1F0400084080B483B000AF07237B600D4B1B78DBB203F00203002B09D00A4BB6221A70094BE0221A70074B0D221A7001E004237B60C2
:401900007B6818460C37BD465DF8047B704700BF224700402047004080B500AF054B1B78002B04D100F008F8024B01221A7000F02FF880BD4C81FF1F80B500AF00200D493C
:40194000FFF7F6FD00200721FFF71AFE0A4B00221A700A4B72221A70094B20221A70094B06221A70084B47221A70084B00221A7080BD00BF0D1C00004D81FF1F8C64004008
:401980008A6400402E6400403E6400408B64004080B582B000AFFFF7CDFB0346FB71124B114A1278D2B242F02002D2B21A700F4B0E4A1278D2B242F01002D2B21A700C4BFC
:4019C00001221A600B4B0B4A1278D2B242F01002D2B21A7000F086F9FB791846FFF7AEFB0837BD4680BD00BF9C6400409A64004000E100E09B64004080B483B000AF1C4B26
:401A000001221A601B4B1B78BB711B4B1B787B711A4B1B78DBB2002B03D1BA797B799A4219D0BB79164AD35CFB71BB790133BB71BB795BB2002B01DA0023BB710D4BBA79AB
:401A40001A700E4B1B78DBB2002B03D00B4B00221A7003E002E00B4B1B78FB710A4B01221A60FB7918460C37BD465DF8047B704780E100E04E81FF1F4F81FF1F5081FF1FA9
:401A80005881FF1F4F64004000E100E080B483B000AF1D4B01221A601C4B1B78DAB21C4B1B78DBB29A420AD11A4B1B78DBB2002B02D08023FB711DE00023FB711AE0134B27
:401AC0001B78DAB2124B1B78DBB29A4208D2104B1B78DAB20D4B1B78DBB2D31AFB7109E00B4B1B78DAB2094B1B78DBB2D31ADBB2803BFB71084B01221A60FB7918460C37D1
:401B0000BD465DF8047B704780E100E04E81FF1F4F81FF1F5081FF1F00E100E080B582B000AFFFF707FB0346FB71144B134A1278D2B242F00102D2B21A70104B0F4A12783D
:401B4000D2B222F00102D2B21A70FB791846FFF7F5FA0B4B01221A600A4B00221A700A4B00221A70094B00221A70094B00221A70084B01221A600837BD4680BD9F64004060
:401B800080E100E04E81FF1F4F81FF1F5081FF1F5181FF1F00E100E080B483B000AF0346FB7100BF074B1B78DBB203F00403002BF8D1054BFA791A700C37BD465DF8047B18
:401BC000704700BF6B6400404B64004080B582B000AFFFF7AFFA0346FB710B4B0A4A1278D2B242F00102D2B21A70074B064A1278D2B222F00102D2B21A70FB791846FFF771
:401C00009DFA0837BD4680BD9B64004080B483B000AF0023FB712B4B1B78BB71BB797B71BB7903F01E03002B0BD0BB7903F01E03DAB2254B1B78DBB21343DBB2DAB2224BC7
:401C40001A70BB7903F02003002B31D01F4B1B787B711F4B1B78DBB21E4A7979D1540123FB71FB79002B23D01B4B1B78DBB2002B02D01A4B01221A70154B1B78DBB2013307
:401C8000DAB2134B1A70124B1B78DBB2DBB25BB2002B02DA0E4B00221A700D4B1B78DAB20F4B1B78DBB29A4202D10B4B01221A70BB7903F02003002BADD10C37BD465DF85C
:401CC000047B70476A6400404D81FF1F4F6400404F81FF1F5881FF1F5081FF1F5181FF1F4E81FF1F80B400AF094B094A1278D2B242F00102D2B21A70064B064A1278D2B286
:401D000042F00102D2B21A70BD465DF8047B7047A2430040B243004070B50E4B0E4D0024ED1AAD101E46AC4204D056F8242090470134F8E700F022FA084D094B0024ED1A34
:401D4000AD101E46AC4204D056F8242090470134F8E770BD8821000088210000902100008821000010B50023934203D0CC5CC4540133F9E710BD02440346934202D003F848
:401D8000011BFAE77047000032000000D021000000000000005100406000C05100401000F0510040100000000140001000140140000800400140000A004C01400002005051
:401DC000014020000252004003640040010501404B0A0140420B01403A0C0140430D01405D0E01402F0F014002400140014101400342014004440140034501400246014072
:401E00000350014001510140310134028A388B0F8C72E60102030308051A07040B050C0C0E1110101103120C130C181C1A021C101D031F14201421202C092E102F18301F93
:401E4000311C3303352039083B023F1454185604580459045B045F018002850A860287048A028B058F08900296029D039F0CA001A503A704AD03AF04B002B10FB401BB02F4
:401E8000BE11C053C104C5E0C6CBC80EC9FFCAFFCBFFCEF0CF44D00CD401D804D904DA04DB04DF01E6C0EA40EB02008001020428074009010B060D020E100F2010811180F0
:401EC000150119021E882080210622102340250126022740280129022F2231023342374038283A303B063D803E203F04450246104D014E02548057305A025D015E986080A7
:401F00006150808082109028920293029508974099509E20A140A501C079C23BC419CA59CC19CE77D0C0D210D6F1D80DE4040104050209020D04110215011D0121012704B9
:401F400029082D0133023501370C39803F105602571159045B045F01800F830485C08603880489188C018D44900391E7920C93189402958098039BE39D10A00FA11CA3E14C
:401F8000A40CA51CA7E2A80CA908AA03AC08ADFFB00FB1C0B31FB738BA82BB88D804D904DF010160039009080A400B041219130119811A401BC0228923012540261027109F
:401FC000284029A42E602FA0308031093310344035043688370939423A103B043D023E143F4058805A405E206C206E146F097484752076138D048F409028914293069508B6
:40200000974199509C809D209E029F18A108A320A424A545A748B420B540C00FC20EC40FCAFFCCDFCEFFD620040C05010603070E1001120E1544173119671A031E08200146
:402040002206252227D129672E0C31803360340F350737183A203F404003454049FF4A074BFF4C404D204EF04F055008580459045A045F01604061A8624063208106830166
:40208000850688028B018C028D079204950796049D019E029F06A104A602A902AA01AE01B002B107B404B601B802BE50C042C103C205C401C6E0C70CC818C9FFCAFFCBFFB5
:4020C000CC62CDA0CEF0CF41D00CD804D904DA04DF01E640E702E910EA30EB10ED10EE10EF120320070609200B420E800F2111821608174818081B201D501E802189230460
:402100002602274028202B082D202E0230203108348037083B043C083D203F8141044480459447164B024E025010512056085710C0C4C2BBC4E9CAA6CC56CEF2D0F2D210E6
:402140003240CC10968082409680E68005025910C004D4019D10B502EA0281109D1000010C010E01000300000100020101000100000000006930122E001E0101F8B500BF9B
:40218000F8BC08BC9E467047610000003D010000F8B500BFF8BC08BC9E4670473D000000B02100000881FF1F20000000B000000000000000881D00008C1D000000366E0176
:4021C000C05D0000180000000000E02E000000000000000000000000000000000000000000000000000000000000000000000000000000000000000000000000000000009C
:4022000000800020112200009D1901009D19010008B50FF0C5FB00BF10B5054C237833B9044B13B10448AFF300800123237010BD2883FF1F0000000098340100084B10B5D2
:402240001BB108480849AFF300800848036803B910BD074B002BFBD0BDE81040184700BF00000000983401002C83FF1F0881FF1F0000000008B510F093FC0E4B1B78012B8B
:4022800013D10D4B1978062907D80131C9B219700120143108F07CFD08BD0022064B1A700120142108F074FD08BD034A13780133137008BD7A83FF1F9685FF1F08B510F08B
:4022C00029FD0E4B1B78012B13D10D4B1978062907D80131C9B219700220143108F058FD08BD0022064B1A700220142108F050FD08BD034A13780133137008BD4B85FF1F76
:402300002585FF1F10B562B60FF07EFD0FF032FF0FF0B4FF0FF06AFD0FF08AFE10F050FA10F03CFB0FF092FE10F058FA10F044FB0FF012FF10F0C2FF052011F027F80024D4
:40234000984B1C702046202108F05CF9964B1C6006E0964AD15C964AD1540133924A1360924B1A78904B1B689A42F2D220200F2108F048F900228C4B1A6007E08B4AD15CB0
:402380008B4A1A4491770133874A1360874B1A78854B1B689A42F1D24020202108F032F90022814B1A6008E0804AD15C804A1A4482F8431001337C4A13607C4B1A787A4B89
:4023C0001B689A42F0D28020202108F01BF90022754B1A6008E0754AD15C754A1A4482F861100133704A1360704B1A786E4B1B689A42F0D2A020202108F004F900226A4B42
:402400001A6008E0694AD15C694A1A4482F87F100133654A1360654B1A78634B1B689A42F0D22F200C2108F0EDF800225E4B1A6008E05E4AD15C5E4A1A4482F82F1001338B
:40244000594A1360594B1A78574B1B689A42F0D26020092108F0D6F8544B1878431EDBB2082B14D80022504B1A6008E001334F4AD15C4F4A1A4482F8D7104B4A13604A4B93
:402480001B68072BF2D94A4B83F8D7000EE00122454B1A6006E0464A1A4482F8D7300133414A1360404B1B68082BF4D940F26A400A2108F0A7F800223B4B1A6006E03B4ADA
:4024C000D15C3C4AD1540133374A1360374B1A78354B1B689A42F2D240F275400A2108F091F80022304B1A6006E0304AD15C324AD15401332C4A13602C4B1A782A4B1B682F
:402500009A42F2D24FF490600A2108F07BF80022254B1A6006E0254AD15C284AD1540133214A1360214B1A781F4B1B689A42F2D240F28B400A2108F065F800221A4B1A60F2
:4025400006E01A4AD15C1E4AD1540133164A1360164B1A78144B1B689A42F2D240F28D40022108F04FF800220F4B1A6006E00F4AD15C144AD15401330B4A13600B4B1A78B1
:40258000094B1B689A42F2D240F29F20052108F039F8064B1878042823D10122024B1A6019E000BF8F86FF1F8C83FF1F5485FF1F3487FF1F2885FF1F8083FF1FD488FF1F2B
:4025C0003885FF1FD088FF1FAF4AD15CAF4AD1540133AF4A1360AE4B1B68042BF4D9AB4B187040F2C110022108F00CF8A64B1B78012B03D1A44B5A78A64B1A7040F2C310C9
:40260000022107F0FFFFA04B1B78012B03D19E4B5A78A14B1A7040F2C510022107F0F2FF994B1B78012B03D1974B5A789B4B1A7040F2EE30022107F0E5FF934B1B78012B3B
:4026400003D1914B5A78964B1A704FF4DD70022107F0D8FF8C4B1B78052B05D18A4B5B7803F00F038F4A137040F27A20022107F0C9FF854B1B78012B03D1834B5A788A4BED
:402680001A704FF41F70022107F0BCFF7E4B1B78012B03D17C4B5A78844B1A7040F27E20022107F0AFFF784B1B78012B03D1764B5A787F4B1A704FF47C70022107F0A2FFDC
:4026C000714B1B78012B03D16F4B5A78794B1A7040F25A20062107F095FF6B4B1B78052B0AD1694AD37803F00F0373490B70537903F00F03714A137040F2C710022107F093
:4027000081FF614B1B78012B06D16D4A13705E4B5B7803F00F0353704FF4DE70022107F071FF594B1B78012B05D1574B5B7803F00F03644A137040F26320022107F062FF2A
:40274000514B1B78012B05D14F4B5B7803F00F035D4A537040F26520022107F053FF4A4B1B78012B05D1484B5B7803F00F03574A53704FF42770032107F044FF424B1B78D8
:40278000022B06D1404B9B7843EA0323504A138002E001224E4B1A804FF47670022107F031FF394B1B78012B04D1374B5A78494B5A7007E0474901230B704B704FF4767088
:4027C00007F0E2FE40F28F40022107F01BFF2E4B1B78012B04D12C4B5A783F4B5A7007E03D4901230B704B7040F28F4007F0CCFE40F2D230062107F005FF234B1878052819
:402800000FD10022224B1A6006E01F4AD15C334AD15401331E4A13601D4B1B689842F4D20CE02E4905230B7030234B708B70CB700B714B7140F2D23007F0A6FE274A537969
:4028400003F00F00137903F00F014FF47A7303FB01F342F2107101FB0033D07800F00F00642101FB0031937803F00F0303EB83035B000B44527802F00F021344184A1360A1
:402880000222184B1A7010BD5485FF1F0C81FF1F8C83FF1F1E88FF1FDF88FF1F4C85FF1F7D83FF1F3485FF1F2485FF1F8E86FF1F9386FF1F2C87FF1F7E83FF1F1F88FF1F59
:4028C0004885FF1FA285FF1F9086FF1F3087FF1F2285FF1F7883FF1F3488FF1F9C85FF1F3088FF1F2785FF1F10B5002413E00BF0AFF802280FD1642010F048FD074B1878D5
:402900000BF0E6F8062806D1044B18790BF0E0F8062800D10224002CE9D010BD7083FF1F08B501280ED1552108F032FA64220D4B1A7001220C4B1A700C4810F0A5F910F061
:4029400075F908BD0220552108F022FA6422084B1A700122074B1A70074810F04FFA10F01FFA08BD7A83FF1F9685FF1F752200004B85FF1F2585FF1FBD22000038B5984B50
:402980001B78642B03F23087DFE813F0740080002E1FA100000188013B02D9022E1F40032F047F04EC046D05A00592069507FC0788082A09B909250B710CF40D130FF5121B
:4029C00033130A149014F714DC155E163A17E919621AD11A1E1B4D1BF01BC91CC81D531EB31E2E1F2E1F2E1F2E1F2E1F2E1F2E1F2E1F2E1F2E1F2E1F2E1F2E1F2E1F2E1F6A
:402A00002E1F2E1F2E1F2E1F2E1F2E1F2E1F2E1F2E1F2E1F2E1F2E1F2E1F2E1F2E1F2E1F2E1F2E1F2E1F2E1F2E1F2E1F2E1F2E1F2E1F2E1F2E1F2E1F2E1F2E1F2E1F2E1FF6
:402A40002E1F2E1F2E1F2E1F2E1F2E1F2E1F2E1F2E1F2E1F6500634B1B78012B43F2C48600245F4B1C7010F01DF910F07FF85D4B1C7038BD5C4810F007F910F0D7F800225E
:402A8000584B1A700122564B1A7038BD0FF0B2FE082843F0A9860FF0D7FE10F003F910F065F8524B1B78022B04D10120632108F06FF903E00120452108F06AF90322484B84
:402AC0001A70642010F062FC0FF0BEFE38BD0FF091FE082843F08886454B1B78DBB2AA2B4ED1434B9B79DBB2C32B49D1404BDB79DBB23C2B44D13E4BDB78DBB2592B2DD00E
:402B000002D8452B1FD03BE05C2B02D07E2B30D036E00022374BDA70344B1B78012B06D10120052108F034F904222D4B1A702F4B1B78022B24D10120492108F029F9192283
:402B4000274B1A701CE00120252108F021F90022294B1A700F22224B1A7011E00120252108F016F90022244B1A7027221C4B1A7006E00120002108F00BF90022184B1A70B5
:402B8000642010F003FC0FF05FFE38BD0FF032FE082843F02986164B1B78DBB2AA2B77D1134B9B79DBB2C32B72D1114BDB79DBB23C2B6DD10F4AD37823F00303D3700C4BF9
:402BC000DB78DBB23B2B4BD004D80F2B16D0102B28D05DE0432B3BD07E2B52D058E000BF7A83FF1F9685FF1F752200002785FF1FD08AFF1F9486FF1F4D85FF1F0120062130
:402C000008F0C6F80022A74B1A700120242108F0F5F8A54AD37843F00203D3700522A34B1A7035E001200D2108F0B2F800229D4B1A709F4B1A700120472108F0DFF89A4A57
:402C4000D37843F00103D3700522984B1A701FE00120072108F09CF80622944B1A7017E0944B1B78022B04D10120632108F090F803E00120452108F08BF803228B4B1A709C
:402C800006E00120002108F083F80022874B1A70642010F07BFB0FF0D7FD38BD0FF0AAFD082843F0A185844B1B78DBB2AA2B40F0A280814B9B79DBB2C32B40F09C807E4B84
:402CC000DB79DBB23C2B40F09680764B1B787B4A1278013A93423EDC774AD278D2B2092A0FD80133DAB26F4B1A707348C1786E4B13443031D972C17830310120C9B208F0EE
:402D00007DF86D4BDB78DBB20A2B0BD1654B1A780132D2B21A70644B13443021D972012008F06CF8644BDB78DBB2512B13D15D4B1B7883B15E4A12786AB90133DAB2594BBC
:402D40001A70594B13442C21D972012008F056F80122574B1A70584BDB78DBB20B2B1BD1504B1A783AB90120052108F011F804224E4B1A7010E00120202108F03FF8494B15
:402D80001B78494A1A44D27A2C2A02D10021484A1170013B434A1370474BDB78DBB20C2B29D1404B1B786BB1454B1B7853B90120072107F0EDFF3B4B1A783B4BDA72062250
:402DC0003A4B1A70374B1B78ABB13D4B1B78012B11D10120702107F0DBFF334B1B7B39490B7040F28D4007F0CFFB0022344B1A700E222E4B1A70642010F0C8FA0FF024FD12
:402E000038BD642010F0C2FA0FF0F4FC082820D1294B1B78DBB2AA2B15D1274B9B79DBB2C32B10D1244BDB79DBB23C2B0BD1224BDB78DBB27E2B06D10120002107F0A8FFDC
:402E400000221A4B1A70642010F0A0FA0FF0FCFC38BD1D4B18780AF03BFE072843F0C484322010F093FA184B18780AF045FE174B1870322010F08AFA0B4BDB7813F00303E1
:402E800028D0114A1078114A1178114A0EF0D6F800BB0120002107F07BFF0022034B1A7038BD00BF4D85FF1F9486FF1F7A83FF1F7B83FF1F2785FF1FD08AFF1F3485FF1F98
:402EC0008F86FF1FD088FF1F7083FF1F3788FF1F9F86FF1F012010F003FA994B18780AF00BFE984B1870002803F07E84964B1B7803F00F03834211D0944B1B7803F00F0345
:402F000098420BD0924B1B7803F00F03984205D0904B1B7803F00F03984202D101200EF00DFD874B187840F010000EF0F5FF0120082107F02DFF0722874B1A7038BD3220A2
:402F400010F024FA7E4B18780AF0C2FD0A282DD00B2803D0062843F047844FE0642010F015FA774B18780AF03BFE01280BD17B4B1B7843B9392107F00BFF142010F006FA90
:402F80000D22754B1A706E4B18780AF029FE012843F02A84714B1B78012B43F025840C2107F0F6FE00226C4B1A7038BD642010F0EDF9634B18780AF013FE01280BD1674BF3
:402FC0001B7843B9392107F0E3FE142010F0DEF90D22614B1A705A4B18780AF001FE012843F002845D4B1B78012B43F0FD830C2107F0CEFE0022584B1A7038BD0120002100
:4030000007F0C6FE0022544B1A7038BD0FF0F2FB082840F0D580524B1B78DBB2AA2B40F0CA804F4B9B79DBB2C32B40F0C4804C4BDB79DBB23C2B40F0BE800022494B1A70BE
:40304000494B1B78062B65D8454AD278D2B2092A10D80133DAB2444B1A704148C178434B1344303183F86510C17830310120C9B207F0C4FE3A4BDB78DBB20A2B0CD13A4B87
:403080001A780132D2B21A70384B1344302183F86510012007F0B2FE314BDB78DBB26A2B0CD1314B1A780132D2B21A702F4B13442D2183F86510012007F0A0FE284BDB78B2
:4030C000DBB21A2B26D9264BDB78DBB2422B21D80022274B1A6019E0214AD278D2B225491944097A8A420DD11F490A780132D2B20A704133D9B21D4B134483F86510012026
:4031000007F07CFE1A4A136801331360184B1B68192BE1D9124BDB78DBB20B2B34D1124B1A784ABB01200B2107F032FE0F4B002283F8652083F883200A22074B1A7023E02F
:403140007083FF1F3788FF1F1E88FF1FDF88FF1F4C85FF1F7D83FF1F7A83FF1F3385FF1FD08AFF1F9685FF1F4D85FF1F9486FF1F8C83FF1F0C81FF1F0120202107F03EFED4
:403180009F4A1378013B13709E4BDB78DBB20C2B11D19B4B1B7873B10120052107F0F8FD994B974A127883F86520012283F883200422964B1A70642010F0E8F80FF044FB67
:4031C000934B1B781D2B43F20F8301200B2107F0DFFD8D4A002382F8653082F883308C4A13700A22894B1A7038BD0FF003FB08283BD1844B1B78DBB2AA2B31D1814B9B7942
:40320000DBB2C32B2CD17F4BDB79DBB23C2B27D17C4BDB78DBB2382B18D0392B20D10022774B1A70784BDB7813F0040F0AD101200A2107F0ADFD0022764B1A700922734B0D
:403240001A700DE00D22714B1A7009E00120052107F09EFD01226F4B1A7004226B4B1A70642010F093F80FF0EFFA694B1B781D2B43F2BA8201200C2107F08AFD0122644B3E
:403280001A706422614B1A7038BD0120014607F00FFB052840D90A2010F078F80120212107F006FB052837D9012007F019FA012832D133200FF0E6FA0120332107F052FAB1
:4032C00050B30022544B1A600AE0012007F0B4FA4D4B1C4484F829004F4A1368013313604D4B1C68072CF0D90120132107F050FD454CE37843F00403E3704FF4FA7010F0B1
:4033000045F801200E2107F043FD00233C4A137023710C223D4B1A700FF06CFA082843F06382384B1B78DBB2AA2B15D1354B9B79DBB2C32B10D1334BDB79DBB23C2B0BD12C
:40334000304BDB78DBB23B2B06D10120632107F01FFD03222D4B1A70642010F017F80FF073FA38BD0FF046FA082843F03D82254B1B78DBB2AA2B70D1224B9B79DBB2C32BDF
:403380006BD1204BDB79DBB23C2B66D11C4B1B78052B25D81B4AD278D2B2092A0FD80133DAB2174B1A701748C178174B134430311971C17830310120C9B207F01FFD114BE6
:4033C000DB78DBB20A2B0BD10D4B1A780132D2B21A700D4B134430211971012007F00EFD084BDB78DBB20B2B20D1054B1A78AAB90120052107F0CCFC0422044B1A7015E06B
:403400004D85FF1FD08AFF1F9486FF1F7A83FF1F9685FF1F3385FF1F5085FF1F0120202107F0ECFC974A1378013B1370964BDB78DBB20C2B11D1934B1B7873B1934B5B7942
:40344000302B0AD00120052107F0A2FC8D4B1A788E4B1A7104228E4B1A7064200FF096FF0FF0F2F938BD8B4B58788B4B197800228A4B1B7808F034FF894B1B78012B02D0C6
:40348000884B5B787BB901200C2107F081FC0122854B1A7085480FF0F7FB0FF0C7FB64227B4B1A7038BD0120312107F071FC0022744B1A7001227C4B1A707C480FF0E4FB51
:4034C0000FF0B4FB2122724B1A7038BD0FF092F9082843F089816C4B1B78DBB2AA2B40F0CA80694B9B79DBB2C32B40F0C480664BDB79DBB23C2B40F0BE80634BDB78DBB2D6
:40350000652B00F084800AD85A2B50D002D8582B12D0B0E05B2B64D05D2B24D0ABE07E2B00F0A28003D8702B00F09680A3E0932B75D0962B60D09EE00022524B1A7001205A
:403540003E2107F025FC06F05FFF012801D107F0D5FC06F089FF012801D107F02DFD10224B4B1A7087E001205C2107F011FC01200021D62240F2AD1307F004FE0120002161
:40358000892240F2B31307F0FDFD01200146242240F2A71307F0F6FD0120014678224FF47A7307F0EFFD1322394B1A7063E00120602107F0EDFB012007F062FD012007F048
:4035C000A1FE012008F030F8012008F0B3F8012007F01EFF012007F0A1FF12222C4B1A7049E001202F2107F0D3FB0022254B1A701122274B1A703EE001205F2107F0C8FBE2
:403600000022204B1A701B22214B1A7033E001204D2107F0BDFB14221D4B1A702BE001206E2107F0B5FB0120014607F041F905280ED90A200FF0AAFE012008F083F9012031
:40364000212107F035F9052802D9012008F0F8F823220F4B1A700EE00120892107F098FB29220B4B1A7006E00120002107F090FB0022074B1A7064200FF088FE0FF0E4F8AF
:4036800038BD00BF4D85FF1FD08AFF1F9486FF1F7A83FF1F9086FF1F3788FF1F7083FF1F2785FF1F7883FF1F9685FF1F752200000FF0A0F8082843F09780A64B1B78DBB2A4
:4036C000AA2B40F0F280A34B9B79DBB2C32B40F0EC80A04BDB79DBB23C2B40F0E6809E4B1A78072A26D89B4BDB78DBB2092B0ED8984BD978994B1344303183F88E100120DD
:403700002A2107F07BFB944A137801331370914BDB78DBB20A2B0DD18F4C22788F4B1344302183F88E1001202A2107F067FB237801332370874BDB78DBB20B2B0ED1864B13
:403740001B781BB90120FFF7EBF807E0013BDAB2814B1A700120202107F050FB7D4BDB78DBB20C2B40F0A1807B4B1A78002A00F08D8000237A490B607A490B6015E0581CA8
:403780007949014491F8D710744C234493F88E30303B994204D172490B6801330B6002E000216F4B19606F4B186010466D4B1B689A42E4D86C4B93F8D720694B1B689A425D
:4037C0001AD10120262107F0E3FA4FF4FA700FF0DDFD664B1B78012B04D101205D2107F0D7FA05E0022B03D10120702107F0D0FA0E225F4B1A7058E00023594A1360594A9F
:40380000136010E05B4A1A4492F82410534A1A4492F88E20914203D151490A6801320A600133504A13604F4B1B689842EAD84C4B1B68082B1AD10120262107F0A9FA4FF46A
:40384000FA700FF0A3FD494B1B78012B04D101205D2107F09DFA05E0022B03D10120702107F096FA0E22424B1A701EE00120272107F08EFA0122404B1A7040480FF004FAE1
:403880000FF0D4F964223A4B1A700EE00120272107F07EFA0122384B1A7038480FF0F4F90FF0C4F96422324B1A7064200FF06EFD0EF0CAFF38BD0EF09DFF082842F094873B
:4038C000244B1B78DBB2AA2B3ED1224B9B79DBB2C32B39D11F4BDB79DBB23C2B34D11D4BDB78DBB23F2B04D07E2B26D03E2B2BD116E00120402107F04BFA0023164A137054
:403900001F4A137001206121062207F077FA01206D21072207F072FA1522154B1A7013E001203F2107F034FA00230B4A1370144A137016220E4B1A7006E00120702107F0ED
:4039400027FA0E220A4B1A7064200FF01FFD0EF07BFF38BDD08AFF1F4D85FF1F9486FF1FA485FF1F8C83FF1F3487FF1F2785FF1F7A83FF1F0C81FF1F9685FF1F75220000BE
:403980007B83FF1F0EF036FF082842F02D87A34B1B78DBB2AA2B7BD1A04B9B79DBB2C32B76D19E4BDB79DBB23C2B71D19C4B1A78072A27D8994BDB78DBB2092B10D89748D7
:4039C000C178984B1344303183F88E10C17830310120C9B207F012FA914A1378013313708E4BDB78DBB20A2B0CD18D4C22788D4B1344302183F88E10012007F0FFF9237802
:403A000001332370854BDB78DBB20B2B0ED1844B1B781BB90120FEF783FF07E0013BDAB27F4B1A700120202107F0E8F97B4BDB78DBB20C2B2CD17A4B1B78052B28D901206B
:403A4000392107F0A5F9764B1978774B83F8D7100022764B1A600BE0581C724A134493F88E20714B0344303A83F8D7206F4B18606E4B1B689942EFD860206D4906F084FD3D
:403A800018B90120552107F083F90022694B1A7064200FF07BFC0EF0D7FE38BD0EF0AAFE082842F0A1865D4B1B78DBB2AA2B40F091805A4B9B79DBB2C32B40F08B80574BEB
:403AC000DB79DBB23C2B40F08580544BDB78DBB27A2B5FD006D8772B3ED0782B4CD0762B78D10AE0822B17D002D87E2B6BD071E0832B21D0952B5AD06CE00120302107F0F4
:403B000047F900234C4A1370454A13704B4A13701822484B1A705DE00120792107F038F90222454B1A7000233D4A1370434A13701822404B1A704DE001207A2107F028F99D
:403B400003223D4B1A700023354A13703B4A13701822384B1A703DE00120782107F018F90122354B1A7000232D4A1370334A13701822304B1A702DE00120652107F008F986
:403B800001222D4B1A700022254B1A701722294B1A701FE00120322107F0FAF80023264A13701F4A13701722224B1A7012E0244B1B78022B0ED10120662107F0E9F820223D
:403BC0001C4B1A7006E00120702107F0E1F80E22184B1A7064200FF0D9FB0EF035FE38BD0EF008FE082842F0FF850C4B1B78DBB2AA2B7ED1094B9B79DBB2C32B79D1074BCE
:403C0000DB79DBB23C2B74D1044BDB787E3B042B6FD8DFE803F067172B3F5300D08AFF1F4D85FF1F9486FF1F3487FF1F8C83FF1F0B88FF1F7A83FF1F9785FF1F3688FF1FA9
:403C40002785FF1F0120062107F0A2F80022B64B1A70B64B1978B64B83F8A3100120242107F0CCF81A22B34B1A7042E00120062107F08EF80022AC4B1A70AF4B1978AC4B42
:403C800083F8A3100120242107F0B8F81A22A94B1A702EE00120062107F07AF80022A24B1A70A64B1978A24B83F8A3100120242107F0A4F81A229F4B1A701AE0012006212F
:403CC00007F066F80022984B1A709D4B1978984B83F8A3100120242107F090F81A22954B1A7006E00120702107F052F80E22914B1A7064200FF04AFB0EF0A6FD38BD0EF000
:403D000079FD082842F070858E4B1B78DBB2AA2B40F05B818B4B9B79DBB2C32B40F05581884BDB79DBB23C2B40F04F81854BDB78DBB2632B31D002D8622B07D045E1642B24
:403D400000F0CB807E2B00F039813EE10120392107F01EF864200FF019FB7B4B187809F0B7FE062815D1784B187909F0B1FE06280BD101204A2107F00BF84FF42F700FF0F2
:403D800005FB00226B4B1A701FE10120FEF7C8FD1BE10120FEF7C4FD17E10120372106F0F7FF6A4B5B78012B45D10022684B1A600AE0684A1344012093F82C1006F06CFC44
:403DC000634A136801331360614B1B68102BF0D901200A2106F060FC01200A2106F05CFC01200A2106F058FC01200A2106F054FC0022574B1A600AE0564A1344022093F895
:403E00002C1006F049FC524A136801331360504B1B68102BF0D902200A2106F03DFC02200A2106F039FC02200A2106F035FC02200A2106F031FC454B5B78022B45D100228B
:403E4000434B1A600AE0434A1344032093F82C1006F022FC3E4A1368013313603C4B1B68102BF0D903200A2106F016FC03200A2106F012FC03200A2106F00EFC03200A2172
:403E800006F00AFC0022324B1A600AE0314A1344042093F82C1006F0FFFB2D4A1368013313602B4B1B68102BF0D904200A2106F0F3FB04200A2106F0EFFB04200A2106F019
:403EC000EBFB04200A2106F0E7FB01206B2106F05FFF2522174B1A7077E0012006F000FC012867D133200EF0CDFC0120332106F039FC002869D00022174B1A600AE0012092
:403F000006F09AFC154B1C4484F82900124A136801331360104B1C68072CF0D90023104A13700D4A13602AE04D85FF1FDF88FF1F3487FF1F7A83FF1F4C85FF1F1E88FF1F47
:403F40007D83FF1FD08AFF1F7083FF1F8C86FF1F8C83FF1F0C81FF1F5085FF1F9486FF1F3585FF1F9D4C9E4A1344207893F8291006F0FEFE20709B4A136801331360994B9E
:403F80001B68062BEED9964B93F83020934B1B789A420BD101204B2106F0FAFE4FF47A700FF0F4F90022904B1A700EE00120FEF7B7FC0AE00120FEF7B3FC06E001200021F8
:403FC00006F0E6FE0022884B1A7064200FF0DEF90EF03AFC38BD0EF00DFC082842F00484824B1B78DBB2AA2B40F03B817F4B9B79DBB2C32B40F035817C4BDB79DBB23C2BF8
:4040000040F02F817A4B1B78042B00F2B180DFE803F0032C52AF8A00744AD278D2B2012A0FD80133DAB2724B1A70704CE17830310120C9B206F0E2FEE3781B016D4A82F84D
:40404000A1306A4BDB78DBB20A2B40F09180684B1A780132D2B21A700021664B83F8A1100120302106F0CAFE82E0604AD278D2B2092A11D80133DAB25D4B1A705B4CE178C8
:4040800030310120C9B206F0B9FEE178594A92F8A1300B4382F8A130544BDB78DBB20A2B66D1534B1A780132D2B21A700120302106F0A4FE5CE04D4AD278D2B2052A17D841
:4040C0000133DAB24A4C227001203A2106F096FE22780132D2B22270444CE17830310120C9B206F08BFEE3781B01424A82F8A0303E4BDB78DBB20A2B3AD13D4C227801323E
:40410000D2B2227001203A2106F078FE22780132D2B222700120302106F070FE0022354B83F8A02024E0314AD278D2B2092A11D80133DAB22E4B1A702C4CE178303101206C
:40414000C9B206F05BFEE1782A4A92F8A0300B4382F8A030254BDB78DBB20A2B08D1244B1A780132D2B21A700120302106F046FE1E4BDB78DBB2402B17D11F4B1B783BB9DD
:4041800001201D4B18707021062206F037FE07E00022194B1A7001206121062206F02EFE01206D21072206F029FE104BDB78DBB20B2B2DD10E4B1A7812BB0E220A4B1A70FB
:4041C0000E4B1B78012B04D101205D2106F0E0FD1EE00120702106F0DBFD19E03585FF1F9486FF1F5085FF1F7A83FF1FD08AFF1F4D85FF1F3487FF1F7B83FF1F2785FF1FA4
:404200000120202106F0FAFD9F4A1378013B13709E4BDB78DBB20C2B23D19B4B1B78052B1FD19B4B1B7843F002029A4991F8A13043EA421381F8A13006F046F9012810D177
:404240000E22954B1A70954B1B78012B03D15D2106F09EFD05E0022B03D10120702106F097FD64200FF092F80EF0EEFA38BD0EF0C1FA082842F0B882844B1B78DBB2AA2BFF
:4042800040F07281814B9B79DBB2C32B40F06C817E4BDB79DBB23C2B40F066817A4B1A78072A00F22281DFE812F008003100580020019100B7002001FB00744BDB78DBB2A0
:4042C000032B0FD8714CE17830310120C9B206F095FD6D4A137801331370E3781B016D4A82F89D30694BDB78DBB20A2B40F0FD800022684B83F89D20634C01203021227862
:4043000006F07CFD237801332370EEE05F4BDB78DBB2092B11D85D4CE17830310120C9B206F06CFDE1785B4A92F89D300B4382F89D30554A137801331370544BDB78DBB28F
:404340000A2B40F0D280504C01203021227806F055FD237801332370C7E04C4BDB78DBB2012B17D801202F2106F048FD464C22780132D2B22270454DE97830310120C9B2EA
:4043800006F03CFDEB781B01424A82F89E302378013323703D4BDB78DBB20A2B40F0A580394C01202F21227806F028FD22780132D2B222700120302106F020FD0022354B72
:4043C00083F89E202378013323708EE02F4BDB78DBB2092B11D82D4CE17830310120C9B206F00CFDE1782B4A92F89E300B4382F89E30254A137801331370244BDB78DBB2B3
:404400000A2B72D1204C01203021227806F0F6FC23780133237068E01C4BDB78DBB2092B17D801202F2106F0E9FC174C22780132D2B22270154DE97830310120C9B206F048
:40444000DDFCEB781B01134A82F89F302378013323700E4BDB78DBB20A2B46D10A4C01202F21227806F0CAFC22780132D2B222700120302106F0C2FC0022064B83F89F2084
:4044800023780133237030E04D85FF1FD08AFF1F7B83FF1F3487FF1F7A83FF1F2785FF1FA34BDB78DBB2092B11D8A14CE17830310120C9B206F0A2FCE1789E4A92F89F30EC
:4044C0000B4382F89F309C4A137801331370984BDB78DBB20A2B08D1974C01203021227806F08CFC237801332370914BDB78DBB20B2B1BD1904B1B7883B90E228F4B1A7041
:404500008F4B1B78012B04D101205D2106F040FC0CE00120702106F03BFC07E0013BDAB2854B1A700120202106F068FC804BDB78DBB20C2B18D1804B1B78082B14D105F076
:40454000F1FF012810D10E227C4B1A707C4B1B78012B03D15D2106F01BFC05E0022B03D10120702106F014FC64200EF00FFF0EF06BF938BD0EF03EF9082842F035816C4B52
:404580001B78DBB2AA2B40F00E81694B9B79DBB2C32B40F00881664BDB79DBB23C2B40F00281654B1B780C2B61D8614AD278D2B2092A1ED80133DAB25F4B1A70614B1B7817
:4045C00013B1012B07D00DE0594BD978594B13443031997706E0564BD978564B1344303183F82F10524BD97830310120C9B207F02DFA4F4BDB78DBB20A2B18D14E4B1A78EF
:404600000132D2B21A704F4B1B7813B1012B05D009E0484B13443021997704E0454B1344302183F82F100120302107F00FFA404BDB78DBB2512B1AD13F4B1B78BBB101333C
:40464000DAB23D4B1A703F4B1B7813B1012B05D009E0384B13442E21997704E0354B13442E2183F82F1001202E2107F0EFF9304BDB78DBB20B2B49D12F4B1A78002A3DD196
:404680000E222E4B1A702E4B1B78012B04D101205D2106F07DFB03E00120702106F078FB2F200C2105F0AEFF0022274B1A6008E0264AD15C1F4A1A4482F82F100133224ADE
:4046C0001360224B1A78204B1B689A42F0D220200F2105F097FF00221B4B1A6007E01B4AD15C144A1A4491770133174A1360174B1A78154B1B689A42F1D207E001202021BB
:4047000007F0A4F90C4A1378013B1370084BDB78DBB20C2B47D10E22084B1A70084B1B78012B15D101205D2106F032FB14E000BFD08AFF1F3487FF1F4D85FF1F7A83FF1FED
:404740002785FF1F9785FF1F8C83FF1F5485FF1F0120702106F01CFB9A4B1B7813B1012B11D020E0984B1B78984901F81E3F202005F00AFFB8B90120552106F009FB642296
:40478000934B1A700FE0904B1B78904901F82F3F2F2005F0F9FE30B90120552106F0F8FA64228B4B1A7064200EF0F0FD0EF04CF838BD0EF01FF8082842F01680854B1B7855
:4047C000DBB2AA2B40F0D183824B9B79DBB2C32B40F0CB837F4BDB79DBB23C2B40F0C583794B1B78172B00F257827A4AD278D2B2092A61D80133DAB2734B1A70714B1B78B6
:40480000042B52D8DFE803F0031427394B00724B1978012904D16F4BDB7830336F488354002942D16B4BDB78303368498B543CE0694B1978012904D1664BDB7830336848A9
:404840008354002931D1634BD978604B1344303183F8431029E0604B1978012904D15D4BDB7830335F488354F9B95A4BD978574B1344303183F8611017E0574B19780129A4
:4048800004D1544BDB7830335748835469B9514BD9784E4B1344303183F87F1005E04D4BD978524B13443031D9724A4BD97830310120C9B207F0CAF8464BDB78DBB20A2B3E
:4048C0002BD1414B1A780132D2B21A703D4B1B78042B1ED8DFE803F003070D13190030213A4B995415E0394B1344302183F843100FE0364B1344302183F8611009E0334B03
:404900001344302183F87F1003E0384B13443021D9720120302107F099F82E4BDB78DBB2672B2BD1284B1A780132D2B21A70254B1B78042B1ED8DFE803F003070D13190020
:404940002321224B995415E0204B1344232183F843100FE01D4B1344232183F8611009E01A4B1344232183F87F1003E01F4B13442321D9720120232107F068F8154BDB785D
:40498000DBB26A2B42D1104B1A780132D2B21A700C4B1B78042B35D8DFE803F003070D2A30002D21094B99542CE0084B13442D2183F8431026E0054B13442D2183F86110FB
:4049C00020E000BF9785FF1F4D85FF1F3487FF1F7A83FF1FD08AFF1F3688FF1F2885FF1F8083FF1FD488FF1F3885FF1F9486FF1F934B13442D2183F87F1003E0914B13446A
:404A00002D21D97201202D2107F020F88E4BDB78DBB2662B2BD18D4B1A780132D2B21A708B4B1B78042B1ED8DFE803F003070D1319004021824B995415E0814B134440214F
:404A400083F843100FE07E4B1344402183F8611009E07B4B1344402183F87F1003E0794B13444021D9720120402106F0EFFF764BDB78DBB2692B2BD1744B1A780132D2B252
:404A80001A70734B1B78042B1ED8DFE803F003070D1319002E216A4B995415E0684B13442E2183F843100FE0654B13442E2183F8611009E0624B13442E2183F87F1003E092
:404AC000604B13442E21D97201202E2106F0BEFF5D4BDB78DBB2682B4BD15C4B1A780132D2B21A705A4B1B78042B3ED8DFE803F0030F1D2B3900574B1B78012B02D1202008
:404B0000554988548BBB20214D4B99542DE0514B1B78012B02D12020504988542BBB484B1344202183F843101FE04A4B1B78012B02D120204A498854BBB9414B13442021B3
:404B400083F8611011E0434B1B78012B02D12020444988544BB93A4B1344202183F87F1003E0384B13442021D9720120202106F06DFF354BDB78DBB21A2B40F28D80324BF6
:404B8000DB78DBB2422B00F287800022364B1A607DE02D4AD278D2B234491944097A8A4271D12A490A780132D2B20A7028490978042962D8DFE801F0031223335C00254919
:404BC0000878012803D103F14101234CA154002853D103F141011A4881544EE01D490878012803D103F141011C4CA154002844D11349114403F1410081F843003DE01549E7
:404C00000878012803D103F14101154CA154A0BB0B49114403F1410081F861002DE00D490878012803D103F141010E4CA15420BB0349114403F1410081F87F001DE000BF8E
:404C40003487FF1F9486FF1FD08AFF1F4D85FF1F9785FF1F3688FF1F2885FF1F8083FF1FD488FF1F3885FF1F8C83FF1F0C81FF1FA949114403F14100C87203F1410101207F
:404C8000C9B206F0E3FEA54A136801331360A34B1B68192B7FF67DAFA14BDB78DBB20B2B76D1A04B1A78002A6AD10E229E4B1A709E4B1B78012B04D101205D2106F068F8FB
:404CC00003E00120702106F063F84020202105F099FC0022914B1A6008E0954AD15C954A1A4482F8431001338C4A1360904B1A788A4B1B689A42F0D28020202105F082FCF9
:404D00000022864B1A6008E0894AD15C894A1A4482F861100133814A1360854B1A787F4B1B689A42F0D2A020202105F06BFC00227A4B1A6008E07E4AD15C7E4A1A4482F808
:404D40007F100133754A1360794B1A78734B1B689A42F0D20020202105F054FC00226F4B1A6006E0724AD15C724AD15401336B4A13606F4B1A78694B1B689A42F2D207E0F7
:404D80000120202106F062FE664A1378013B1370634BDB78DBB20C2B40F0E7800E22624B1A70624B1B78012B04D101205D2105F0EFFF03E00120702105F0EAFF5E4B1B780C
:404DC000042B00F2D280DFE813F005002E0058008000C500594B1B78012B0DD1584C514B1B78237040F26A40564905F0CDFB40F26A40214605F0C8FB504B1B78002B40F043
:404E0000B4804C49474B1B780B70002005F0BCFB002840F0AA800120552105F0B9FF6422414B1A70A1E0454B1B78012B0DD1464C3C4B1B78237040F27540424905F0A4FBE8
:404E400040F27540214605F09FFB3C4B1B78002B40F08B80334B1B78364901F8433F402005F092FB002840F080800120552105F08FFF64222C4B1A7077E0304B1B78012B5E
:404E80000DD1324C274B1B7823704FF490602D4905F07AFB4FF49060214605F075FB274B1B78002B61D11F4B1B78224901F8613F802005F069FB002857D10120552105F0B4
:404EC00067FF6422184B1A704FE01C4B1B78012B0DD11F4C134B1B78237040F28B40194905F052FB40F28B40214605F04DFB134B1B78002B39D10B4B1B780E4901F87F3F58
:404F0000A02005F041FB80BB0120552105F040FF6422054B1A7028E09486FF1F8C83FF1FD08AFF1F4D85FF1F7A83FF1F2785FF1F5485FF1F3487FF1F9785FF1F3688FF1F7A
:404F40002885FF1F4C81FF1F8083FF1FD488FF1F3885FF1FA14B1A78A14BDA720120392105F016FF24229F4B1A7064200EF00EFA0DF06AFC38BD0DF03DFC082841F03484DF
:404F8000994B1B78DBB2AA2B2DD1974B9B79DBB2C32B28D1944BDB79DBB23C2B23D1924BDB78DBB25F2B04D07E2B15D05E2B1AD10AE001200B2105F0EBFE01228B4B5A70A0
:404FC0000A22884B1A700EE001201D2105F0E0FE0B22844B1A7006E00120002105F0D8FE0022804B1A7046200EF0D0F90DF02CFC38BD0DF0FFFB082841F0F6837A4B1B78A8
:40500000DBB2AA2B40F0C680774B9B79DBB2C32B40F0C080744BDB79DBB23C2B40F0BA806E4B1B78062B25D86F4AD278D2B2092A0FD80133DAB2694B1A706B48C178684BAE
:4050400013443031D972C17830310120C9B205F0D5FE654BDB78DBB20A2B0BD15F4B1A780132D2B21A705E4B13443021D972012005F0C4FE5C4BDB78DBB20B2B24D1574B49
:405080001A7882B90E22574B1A70594B1B78012B04D101205D2105F07BFE15E00120702105F076FE10E00120202105F0A7FE4B4B1B784B4A1A44D27A2C2A02D100214D4A3D
:4050C0001170013B454A1370474BDB78DBB20C2B60D1424B1B78032B5CD90622414B1A700120392105F054FE3C4B1A783C4BDA72414B18780CF0E4F9002848D03F4B93F84E
:40510000A3203F4B1B789A4204D140F2B3103D4905F03AFA394B93F8A3203B4B1B789A4204D140F2A710374905F02EFA334B93F8A320364B1B789A4204D140F2AD1031491E
:4051400005F022FA2D4B93F8A320314B1B789A4204D14FF47A702B4905F016FA01203C2105F016FE4FF4FA700EF010F90E221D4B1A701F4B1B78012B04D101205D2105F003
:4051800007FE07E00120702105F002FE02E00120FDF7C6FB64200EF0F9F80DF055FB38BD0DF028FB082841F01F830F4B1B78DBB2AA2B75D10C4B9B79DBB2C32B70D10A4BBB
:4051C000DB79DBB23C2B6BD1074BDB787E3B042B66D8DFE803F05E1F434E56004D85FF1F9486FF1F7A83FF1FD08AFF1F7883FF1F2785FF1F7B83FF1F7083FF1F3487FF1F9E
:40520000DF88FF1F9F86FF1F1E88FF1F4C85FF1F7D83FF1F0120582105F0BAFD01200021732240F2C31306F00FF801200021CF2240F2C51306F008F801200146292240F29B
:40524000C11306F001F8012001467B2240F2EE3305F0FAFF1C22B04B1A7021E00120062105F096FD0022AD4B1A701D22AA4B1A7016E001206D2105F08BFD1E22A64B1A7052
:405280000EE001208A2105F083FD2A22A24B1A7006E00120002105F07BFD00229E4B1A7064200EF073F80DF0CFFA38BD0DF0A2FA082841F099829A4B1B78DBB2AA2B56D114
:4052C000974B9B79DBB2C32B51D1954BDB79DBB23C2B4CD1924BDB787E3B042B47D8DFE803F03F03122130000120062105F050FD00228A4B1A7001228A4B83F8A3201F22BE
:40530000854B1A7033E00120062105F041FD0022824B1A700222834B83F8A3201F227E4B1A7024E00120062105F032FD00227B4B1A7003227B4B83F8A3201F22764B1A70B1
:4053400015E00120062105F023FD0022734B1A700422744B83F8A3201F226F4B1A7006E00120002105F014FD00226B4B1A7064200EF00CF80DF068FA38BD0DF03BFA0828FD
:4053800041F03282664B1B78DBB2AA2B40F0BE80634B9B79DBB2C32B40F0B880604BDB79DBB23C2B40F0B2805C4B1B78042B36D85B4AD278D2B2092A0FD80133DAB2574B94
:4053C0001A705748C178584B13443031D972C17830310120C9B205F011FD514BDB78DBB20A2B0BD14D4B1A780132D2B21A704E4B13443021D972012005F000FD484BDB78EF
:40540000DBB2512B0BD1454B1A780132D2B21A70454B13442C21D972012005F0EFFC404BDB78DBB20B2B24D13C4B1A7882B90E22394B1A703D4B1B78012B04D101205D21C1
:4054400005F0A6FC15E00120702105F0A1FC10E00120202105F0D2FC304B1B78324A1A44D27A2C2A02D10021314A1170013B2B4A13702B4BDB78DBB20C2B47D1274B1B78EF
:40548000052B43D1284B1B7B353BDBB2022B3DD80120392105F07CFC204B1B78224901F80B3F4FF4DD7005F06FF8012805D11E4B1B7B03F00F031F4A137040F25A201E49DE
:4054C00005F062F8012821D1174A937B03F00F031A490B70137C03F00F03194A13703C2105F056FC4FF4FA700DF050FF0E220A4B1A700E4B1B78012B04D101205D2105F049
:4055000047FC03E00120702105F042FC64200DF03DFF0DF099F938BD7A83FF1F4D85FF1FD08AFF1F3487FF1F9486FF1F2785FF1F7B83FF1F3485FF1F9F86FF1F7E83FF1F6C
:405540001F88FF1F0DF056F9082841F04D81A04B1B78DBB2AA2B71D19D4B9B79DBB2C32B6CD19B4BDB79DBB23C2B67D1984BDB78DBB28F2B04D0902B2ED07E2B5ED156E097
:405580009449002381F82D3081F82E304FF4DE702D3104F0F9FF01281AD100228E4B1A703C2105F0F5FB4FF4FA700DF0EFFE8B4B1B78012B04D101205D2105F0E9FB03E02C
:4055C0000120702105F0E4FB0E22854B1A7035E00120FDF7A5F931E07E49012381F82D3081F82E304FF4DE702D3104F0CDFF012819D1794B18703C2105F0CAFB4FF4FA7058
:405600000DF0C4FE754B1B78012B04D101205D2105F0BEFB03E00120702105F0B9FB0E226F4B1A700AE00220FDF77AF906E00120702105F0ADFB0E22694B1A7064200DF0C1
:40564000A5FE0DF001F938BD0DF0D4F8082841F0CB805F4B1B78DBB2AA2B40F0B3805C4B9B79DBB2C32B40F0AD80594BDB79DBB23C2B40F0A7805B4B1B782BBB544AD27847
:40568000D2B2092A0FD80133DAB2564B1A705048C178554B13443031D972C17830310120C9B205F0ABFB4A4BDB78DBB20A2B0BD14C4B1A780132D2B21A704B4B13443021EE
:4056C000D972012005F09AFB414BDB78DBB20B2B1BD1444B1A783AB90120002105F058FB00223F4B1A7010E00120202105F086FB3C4B1B783C4A1A44D27A2C2A02D10021F6
:405700003A4A1170013B374A1370314BDB78DBB20C2B57D1334B1B78012B53D10120392105F036FB2F4B1A782F4BDA72294B93F8A330012B08D12C490A7B2D4B1A7040F290
:40574000C1100B3104F020FF224B93F8A330022B08D125490A7B274B1A7040F2C3100B3104F012FF1B4B93F8A330032B08D11E490A7B214B1A7040F2C5100B3104F004FF1C
:40578000144B93F8A330042B08D117490A7B1B4B1A7040F2EE300B3104F0F6FE4FF4FA700DF0F4FD0E220E4B1A700C4B1B78012B04D101205D2105F0EBFA03E00120702134
:4057C00005F0E6FA64200DF0E1FD0DF03DF838BDD08AFF1F3487FF1FA285FF1F2785FF1F7A83FF1F4D85FF1F9486FF1F7B83FF1F1E88FF1FDF88FF1F4C85FF1F7D83FF1F39
:405800000CF0F8FF082840F0EF87C14B1B78DBB2AA2B40F09E82BE4B9B79DBB2C32B40F09882BB4BDB79DBB23C2B40F09282B84BDB787E3B252B00F28C82DFE813F0690246
:405840008A028A028A028A028A022600FE004A0021016E009200DA00B6008A028A028A028A028A028A028A028A0247028A028A022402450171018A028A028A028A028A02F1
:405880008A029501B901DD010102A24901230B7000234B7040F2C71004F076FE012840F058823C2105F074FA4FF4FA700DF06EFD0E22994B1A70994B1B78012B04D1012013
:4058C0005D2105F065FA44E20120702105F060FA3FE2904901230B700B234B7040F2C71004F052FE012840F034823C2105F050FA4FF4FA700DF04AFD0E22874B1A70874BE6
:405900001B78012B04D101205D2105F041FA20E20120702105F03CFA1BE27E4901230B7004234B7040F2C71004F02EFE012840F010823C2105F02CFA4FF4FA700DF026FD87
:405940000E22754B1A70754B1B78012B04D101205D2105F01DFAFCE10120702105F018FAF7E16C4901230B700C234B7040F2C71004F00AFE012840F0EC813C2105F008FAE3
:405980004FF4FA700DF002FD0E22634B1A70634B1B78012B04D101205D2105F0F9F9D8E10120702105F0F4F9D3E15A4901230B7009234B7040F2C71004F0E6FD012840F0AB
:4059C000C8813C2105F0E4F94FF4FA700DF0DEFC0E22514B1A70514B1B78012B04D101205D2105F0D5F9B4E10120702105F0D0F9AFE1484901230B7008234B7040F2C7100F
:405A000004F0C2FD012840F0A4813C2105F0C0F94FF4FA700DF0BAFC0E223F4B1A703F4B1B78012B04D101205D2105F0B1F990E10120702105F0ACF98BE1364901230B70E3
:405A40004B7040F2C71004F09FFD012840F081813C2105F09DF94FF4FA700DF097FC0E222D4B1A702D4B1B78012B04D101205D2105F08EF96DE10120702105F089F968E139
:405A8000244901230B7006234B7040F2C71004F07BFD012840F05D813C2105F079F94FF4FA700DF073FC0E221B4B1A701B4B1B78012B04D101205D2105F06AF949E1012011
:405AC000702105F065F944E1124901230B700E234B7040F2C71004F057FD012840F039813C2105F055F94FF4FA700DF04FFC0E22094B1A70094B1B78012B04D101205D2129
:405B000005F046F925E10120702105F041F920E1D08AFF1F4885FF1F7A83FF1F2785FF1FC04901230B700D234B7040F2C71004F02BFD012840F00D813C2105F029F94FF4AB
:405B4000FA700DF023FC0E22B74B1A70B74B1B78012B04D101205D2105F01AF9F9E00120702105F015F9F4E0AE4901230B7003234B7040F2C71004F007FD012840F0E9800A
:405B80003C2105F005F94FF4FA700DF0FFFB0E22A54B1A70A54B1B78012B04D101205D2105F0F6F8D5E00120702105F0F1F8D0E09C4901230B7005234B7040F2C71004F0E8
:405BC000E3FC012840F0C5803C2105F0E1F84FF4FA700DF0DBFB0E22934B1A70934B1B78012B04D101205D2105F0D2F8B1E00120702105F0CDF8ACE08A4901230B700723F0
:405C00004B7040F2C71004F0BFFC012840F0A1803C2105F0BDF84FF4FA700DF0B7FB0E22814B1A70814B1B78012B04D101205D2105F0AEF88DE00120702105F0A9F888E0D7
:405C4000784901230B700A234B7040F2C71004F09BFC01287DD13C2105F09AF84FF4FA700DF094FB0E22704B1A70704B1B78012B04D101205D2105F08BF86AE001207021DD
:405C800005F086F865E0674901230B7002234B7040F2C71004F078FC01285AD13C2105F077F84FF4FA700DF071FB0E225E4B1A705E4B1B78012B04D101205D2105F068F8CD
:405CC00047E00120702105F063F842E0554900230B704B7040F2C71004F056FC012838D13C2105F055F84FF4FA700DF04FFB0E224D4B1A704D4B1B78012B04D101205D2131
:405D000005F046F825E00120702105F041F820E0444900230B704B7040F2C71004F034FC01280FD10E22404B1A70404B1B78012B03D15D2105F02CF80BE00120702105F0A3
:405D400027F806E00120002105F022F80022364B1A7064200DF01AFB0CF076FD38BD0CF049FD08284ED1324B1B78DBB2AA2B44D12F4B9B79DBB2C32B3FD12D4BDB79DBB21C
:405D80003C2B3AD12A4BDB78DBB20A2B29D10122284B1A6010E0284B5878284B19780122274B1B7806F09CFA4FF4FA700DF0EEFA204A136801331360224B1B7803F00F03CF
:405DC0001C4A12689342E6D201200C2104F0E0FF1D480CF059FF0CF029FF6422124B1A700BE001200C2104F0D3FF64220E4B1A7015480CF049FF0CF019FF64200DF0C6FA6D
:405E00000CF022FD114B1B78132B40F2ED8401200C2104F0BDFF6422034B1A7000220B4B1A7038BD4885FF1F7A83FF1F2785FF1FD08AFF1F5085FF1F9086FF1F3788FF1FD8
:405E40007083FF1FD088FF1F752200009685FF1F0CF0D0FC082840F0C784B74B1B78DBB2AA2B5ED1B44B9B79DBB2C32B59D1B24BDB79DBB23C2B54D1AF4BDB78DBB2392BD2
:405E80000FD002D8382B05D04BE07E2B42D0942B35D046E00021A94B1970012004F078FF3FE0A64D00232B7001203B2104F070FFA34C607807F020FA60780A2104F0ECFB91
:405EC00060780A2104F0E8FB60780A2104F0E4FB60781D2104F0E0FB6078562104F0DCFB6078312104F0D8FB64232B700122954B1A7095480CF0C8FE0CF098FE11E0012010
:405F00002F2104F045FF0022904B1A7028228B4B1A7006E00120002104F03AFF0022874B1A7064200DF032FA0CF08EFC38BD0CF061FC082840F058847F4B1B78DBB2AA2B59
:405F40003CD17D4B9B79DBB2C32B37D17A4BDB79DBB23C2B32D1784BDB78DBB2912B04D0922B13D07E2B29D121E001200A2104F00FFF0122764B1A700422764B1A700022DF
:405F8000724B1A7018226D4B1A7017E001206F2104F0FEFE21226E4B1A7004226D4B1A7000226A4B1A701822644B1A7006E00120002104F0EDFE0022604B1A7064200DF0E5
:405FC000E5F90CF041FC38BD634B012013F80B1F5F4A127804F046FD012820D16E2104F0D7FE2322554B1A700120014604F060FC052810D90A200DF0C9F9012005F0A2FCDB
:406000000120212104F054FC052840F2ED83012005F016FC38BD0120FCF782FC38BD0120FCF77EFC38BD0CF0E5FB082840F0DC83414B1B78DBB2AA2B77D13F4B9B79DBB234
:40604000C32B72D13C4BDB79DBB23C2B6DD13A4BDB78DBB2392B04D07E2B47D0382B64D13CE03E4B5A78012A07D1354901230B704B703B490B7002234B70022A08D1304B3C
:4060800001221A7003215970354B1A7004225A7040F263202A4904F077FA012845D140F265202F4904F070FA01283ED1682104F06FFE4FF4FA700DF069F90E221F4B1A70A1
:4060C000284B1B78012B04D101205D2104F060FE2BE00120702104F05BFE26E02622174B1A700120672104F053FE1EE01E4B5B78012B03D100221C4B5A7002E001221A4B7F
:406100005A7040F2DA30184904F03EFA01203C2104F03EFE4FF4FA700DF038F90120002104F036FE0022054B1A7064200DF02EF90CF08AFB38BD00BFD08AFF1F7A83FF1F6D
:406140009086FF1F9685FF1F752200004D85FF1F9885FF1F9785FF1F9486FF1F8C86FF1F3087FF1F2785FF1F7883FF1F0CF042FB082840F03983B44B1B78DBB2AA2B40F01D
:40618000C880B14B9B79DBB2C32B40F0C280AE4BDB79DBB23C2B40F0BC80AB4BDB78DBB28C2B09D003D87E2B00F0AC80B1E08D2B40D08E2B79D0ACE0A44B5B78012B07D13A
:4061C000A34A0120107002215170A24A10705170022B07D19E4B0121197004225A709D4B19705A7040F26320994904F0CDF9012840F08F8040F26520964904F0C5F9012812
:4062000040F087806A2104F0C3FD4FF4FA700DF0BDF80E22904B1A70904B1B78012B04D101205D2104F0B4FD73E00120702104F0AFFD6EE0854B5A78012A06D184490123B9
:406240000B704B7083490B704B70022A07D1804B0121197003225A707E4B19705A7040F263207B4904F090F9012852D140F26520784904F089F901284BD1692104F088FDE9
:406280004FF4FA700DF082F8744B1B78012B04D101205D2104F07CFD03E00120702104F077FD0E226C4B1A7033E069490120087000224A70674B18705A7040F2632004F006
:4062C00063F9012825D140F26520624904F05CF901281ED16C2104F05BFD4FF4FA700DF055F80E225C4B1A705C4B1B78012B04D101205D2104F04CFD0BE00120702104F087
:4063000047FD06E00120002104F042FD0022524B1A7064200DF03AF80CF096FA38BD0CF069FA082840F06082474B1B78DBB2AA2B40F0EE80444B9B79DBB2C32B40F0E880C5
:40634000414BDB79DBB23C2B40F0E280444B1A78032A26D83C4BDB78DBB2092B0ED83A4BD978404B1344303183F88E1001202A2104F044FD3A4A137801331370324BDB7881
:40638000DBB20A2B0DD1364C2278364B1344302183F88E1001202A2104F030FD237801332370294BDB78DBB20B2B0ED12C4B1B781BB90120FCF7B4FA07E0013BDAB2284BC5
:4063C0001A700120202104F019FD1F4BDB78DBB20C2B40F09D80224B1A78002A00F08980002321490B6021490B6012E0591C2048405C1C4C234493F88E30984204D11A4856
:4064000003680133036002E00020174B1860174B19601046154B1B689A42E7D8144B1A78114B1B689A4225D10120262104F0B0FC4FF4FA700CF0AAFF2222074B1A70012092
:40644000712104F0A5FC63E0D08AFF1F8C86FF1F9086FF1F3087FF1F7A83FF1F2785FF1F4D85FF1F9486FF1FA485FF1F8C83FF1F0C81FF1F0023AD4A1360AD4A136010E0EE
:40648000AC4A1A4492F82410AB4A1A4492F88E20914203D1A5490A6801320A600133A44A1360A34B1B689842EAD8A04B1B68042B0FD10120262104F06BFC4FF4FA700CF010
:4064C00065FF22229D4B1A700120712104F060FC1EE00120272104F05BFC6422974B1A700122974B1A7097480CF0CEFB0CF09EFB0EE00120272104F04BFC64228F4B1A7097
:4065000001228F4B1A708F480CF0BEFB0CF08EFB64200CF03BFF0CF097F938BD0CF06AF9082840F06181884B1B78DBB2AA2B7AD1854B9B79DBB2C32B75D1834BDB79DBB280
:406540003C2B70D1814B1A78032A27D87E4BDB78DBB2092B10D87C48C178774B1344303183F88E10C17830310120C9B204F046FC764A137801331370734BDB78DBB20A2B53
:406580000CD1724C22786C4B1344302183F88E10012004F033FC2378013323706A4BDB78DBB20B2B0ED1694B1B781BB90120FCF7B7F907E0013BDAB2644B1A7001202021B5
:4065C00004F01CFC604BDB78DBB20C2B2BD15F4B1B78042B27D10120392104F0D9FB0023564A1370594A127852490A7050490B6008E0591C5048034493F88E004D4B585405
:406600004B4B19604A4B1B689A42F2D840F29F20484903F0B9FF30B90120552104F0B8FB6422464B1A7064200CF0B0FE0CF00CF938BD0CF0DFF8082840F0D680424B1B78CB
:40664000DBB2AA2B4FD1404B9B79DBB2C32B4AD13D4BDB79DBB23C2B45D13B4BDB78DBB2BC2B08D002D87E2B36D03CE0BD2B12D0BE2B21D037E00120702104F089FB344951
:4066800001230B704B704FF47D7003F07DFF0E222A4B1A7027E00120702104F079FB2C4901230B7002234B704FF47D7003F06CFF0E22224B1A7016E00120062104F068FB53
:4066C0000122244B1A700023204A1370224A137005221A4B1A7006E00120702104F058FB0E22164B1A7064200CF050FE0CF0ACF838BD0CF07FF8082876D1134B1B78DBB2A4
:40670000AA2B71D1104B9B79DBB2C32B6CD10E4BDB79DBB23C2B67D10B4BDB78DBB2772B52D01BD8762B1ED038BD00BFA485FF1F8C83FF1F0C81FF1F9486FF1F7A83FF1FA0
:406740009685FF1F75220000D08AFF1F4D85FF1F8C86FF1F8F86FF1F7B83FF1F822B12D0832B20D038BD0120302104F011FB00231E4A13701E4A137001221E4B1A70182285
:406780001D4B1A7038BD0120302104F001FB0123164A13700021164A1170164A13701822154B1A7038BD0120302104F0F1FA02220E4B1A7000220E4B1A7001220D4B1A7029
:4067C00018220D4B1A7038BD0120302104F0E0FA0322064B1A700022054B1A700122054B1A701822044B1A7038BD00BF9785FF1F4D85FF1F3688FF1F7A83FF1F38B5984B97
:406800001B78642B03F2E385DFE813F074008000E11DA100000188013B02D902E11D410331048104EE046F05A2059606990700088C082509BC09270B760CFB0D190FFA1117
:406840003812231384130814D81476153A1612197519FC19491A791A021BF51BF81C831DE11DE11DE11DE11DE11DE11DE11DE11DE11DE11DE11DE11DE11DE11DE11DE11D99
:40688000E11DE11DE11DE11DE11DE11DE11DE11DE11DE11DE11DE11DE11DE11DE11DE11DE11DE11DE11DE11DE11DE11DE11DE11DE11DE11DE11DE11DE11DE11DE11DE11D18
:4068C000E11DE11DE11DE11DE11DE11DE11DE11DE11DE11D6500634B1B78012B43F2778500245F4B1C700CF097FA0CF0F9F95D4B1C7038BD5C480CF081FA0CF051FA002227
:40690000584B1A700122564B1A7038BD0CF060F8082843F05C850CF085F80CF07DFA0CF0DFF9524B1B78022B04D10220632104F02FFA03E00220452104F02AFA64200CF097
:4069400025FD0CF06FF80322454B1A7038BD0CF03FF8082843F03B85454B1B78DBB2AA2B4ED1434B9B79DBB2C32B49D1404BDB79DBB23C2B44D13E4BDB78DBB2592B2DD05B
:4069800002D8452B1FD03BE05C2B02D07E2B30D036E00022374BDA70344B1B78012B06D10220052104F0F4F904222D4B1A702F4B1B78022B24D10220492104F0E9F919224B
:4069C000274B1A701CE00220252104F0E1F90022294B1A700F22224B1A7011E00220252104F0D6F90022244B1A7027221C4B1A7006E00220002104F0CBF90022184B1A70C0
:406A000064200CF0C3FC0CF00DF838BD0BF0E0FF082843F0DC84164B1B78DBB2AA2B77D1134B9B79DBB2C32B72D1114BDB79DBB23C2B6DD10F4AD37823F00303D3700C4B7D
:406A4000DB78DBB23B2B4BD004D80F2B16D0102B28D05DE0432B3BD07E2B52D058E000BF4B85FF1F2585FF1FBD2200002785FF1FE48AFF1F3888FF1F2D87FF1F022006212A
:406A800004F086F90022A74B1A700220242104F0B5F9A54AD37843F00203D3700522A34B1A7035E002200D2104F072F900229D4B1A709F4B1A700220472104F09FF99A4AA2
:406AC000D37843F00103D3700522984B1A701FE00220072104F05CF90622944B1A7017E0944B1B78022B04D10220632104F050F903E00220452104F04BF903228B4B1A70A4
:406B000006E00220002104F043F90022874B1A7064200CF03BFC0BF085FF38BD0BF058FF082843F05484844B1B78DBB2AA2B40F0A280814B9B79DBB2C32B40F09C807E4B40
:406B4000DB79DBB23C2B40F09680764B1B787B4A1278013A93423EDC774AD278D2B2092A0FD80133DAB26F4B1A707348C1786E4B13443031D972C17830310220C9B204F032
:406B80003DF96D4BDB78DBB20A2B0BD1654B1A780132D2B21A70644B13443021D972022004F02CF9644BDB78DBB2512B13D15D4B1B7883B15E4A12786AB90133DAB2594B7F
:406BC0001A70594B13442C21D972022004F016F90122574B1A70584BDB78DBB20B2B1BD1504B1A783AB90220052104F0D1F804224E4B1A7010E00220202104F0FFF8494B1F
:406C00001B78494A1A44D27A2C2A02D10021484A1170013B434A1370474BDB78DBB20C2B29D1404B1B786BB1454B1B7853B90220072104F0ADF83B4B1A783B4BDA720622DA
:406C40003A4B1A70374B1B78ABB13D4B1B78012B11D10220702104F09BF8334B1B7B39490B7040F28D4003F08FFC0022344B1A700E222E4B1A7064200CF088FB0BF0D2FE77
:406C800038BD64200CF082FB0BF0A2FE082820D1294B1B78DBB2AA2B15D1274B9B79DBB2C32B10D1244BDB79DBB23C2B0BD1224BDB78DBB27E2B06D10220002104F068F8FE
:406CC00000221A4B1A7064200CF060FB0BF0AAFE38BD1D4B187906F0FBFE072843F0778332200CF053FB184B187906F005FF174B187032200CF04AFB0B4BDB7813F0030313
:406D000028D0114A1079114A1178114A0AF096F900BB0220002104F03BF80022034B1A7038BD00BF2D87FF1F3888FF1F4B85FF1F4E85FF1F2785FF1FE48AFF1F3485FF1F20
:406D40008F86FF1FD088FF1F7083FF1F9286FF1F4388FF1F01200CF0C3FA9A4B187906F0CBFE994B1870002803F03183974B1B7803F00F03834211D0954B1B7803F00F0358
:406D800098420BD0934B1B7803F00F03984205D0914B1B7803F00F03984202D102200AF0CDFD884B187940F010000BF0B5F80220082103F0EDFF0722884B1A7038BD3220AF
:406DC0000CF0E4FA7F4B187906F082FE0A282FD00B2803D0062843F0FA8250E064200CF0D5FA784B187906F0FBFE01280CD17C4B1B784BB90220392103F0CAFF14200CF046
:406E0000C5FA0D22754B1A706E4B187906F0E8FE012843F0DC82724B1B78012B43F0D78202200C2103F0B4FF00226C4B1A7038BD644B187906F0D4FE01280CD1684B1B7891
:406E40004BB90220392103F0A3FF14200CF09EFA0D22624B1A705B4B187906F0C1FE012843F0B5825E4B1B78012B43F0B08202200C2103F08DFF0022584B1A7038BD02204F
:406E8000002103F085FF0022544B1A7038BD0BF09FFD082840F0D680524B1B78DBB2AA2B40F0CB804F4B9B79DBB2C32B40F0C5804C4BDB79DBB23C2B40F0BF8000224A4BFD
:406EC0001A704A4B1B78062B65D8464AD278D2B2092A10D80133DAB2444B1A704148C178434B1344303183F86510C17830310220C9B203F083FF3B4BDB78DBB20A2B0CD104
:406F00003A4B1A780132D2B21A70394B1344302183F86510022003F071FF324BDB78DBB26A2B0CD1314B1A780132D2B21A70304B13442D2183F86510022003F05FFF294B43
:406F4000DB78DBB21A2B26D9264BDB78DBB2422B21D80022274B1A6019E0224AD278D2B225491944097A8A420DD120490A780132D2B20A704133D9B21D4B134483F8651033
:406F8000022003F03BFF1B4A136801331360194B1B68192BE1D9134BDB78DBB20B2B35D1124B1A7852BB02200B2103F0F1FE104B002283F8652083F883200A22074B1A70CD
:406FC00024E000BF7083FF1F9286FF1F1E88FF1FDF88FF1F4C85FF1F7D83FF1F4B85FF1F7C83FF1FE48AFF1F2585FF1F2D87FF1F3888FF1F8C83FF1F0C81FF1F02202021E7
:4070000003F0FCFE9F4A1378013B13709E4BDB78DBB20C2B11D19B4B1B7873B10220052103F0B6FE994B974A127883F86520012283F883200422964B1A7064200CF0A6F982
:407040000BF0F0FC934B1B781D2B43F2C08102200B2103F09DFE8D4A002382F8653082F883308C4A13700A22894B1A7038BD0BF0AFFC08283BD1844B1B78DBB2AA2B31D168
:40708000814B9B79DBB2C32B2CD17F4BDB79DBB23C2B27D17C4BDB78DBB2382B18D0392B20D10022774B1A70784BDB7813F0040F0AD102200A2103F06BFE0022764B1A709C
:4070C0000922734B1A700DE00D22714B1A7009E00220052103F05CFE01226F4B1A7004226B4B1A7064200CF051F90BF09BFC694B1B781D2B43F26B8102200C2103F048FEDC
:407100000122644B1A706422614B1A7038BD0220012103F0CDFB052840D90A200CF036F90220212103F0C4FB052837D9022003F0D7FA012832D133200BF092FC02203321F1
:4071400003F010FB50B30022544B1A600AE0022003F072FB4D4B1C4484F829004F4A1368013313604D4B1C68072CF0D90220132103F00EFE454CE37843F00403E3704FF4E6
:40718000FA700CF003F902200E2103F001FE00233C4A137023710C223D4B1A700BF018FC082843F01481384B1B78DBB2AA2B15D1354B9B79DBB2C32B10D1334BDB79DBB276
:4071C0003C2B0BD1304BDB78DBB23B2B06D10220632103F0DDFD03222D4B1A7064200CF0D5F80BF01FFC38BD0BF0F2FB082843F0EE80254B1B78DBB2AA2B70D1224B9B79E2
:40720000DBB2C32B6BD1204BDB79DBB23C2B66D11C4B1B78052B25D81B4AD278D2B2092A0FD80133DAB2174B1A701748C178174B134430311971C17830310220C9B203F027
