:4000000000800020110000009D0000009D00000080B500AF064B064A126842F020021A60044B054A12681A6000F004FB00F03AF8E8460040BC760040FA46004010B5054CEF
:40004000237833B9044B13B10448AFF300800123237010BD2881FF1F00000000901D000008B5064B1BB106480649AFF300800648036813B1054B03B1984708BD00000000C2
:40008000901D00002C81FF1F0881FF1F0000000080B500AF00F078FAFEE700BF80B400AFFEE700BF80B586B000AF224B7B61224B3B61204B7B6135E03B691B68FB603B69C2
:4000C0005B68BB603B699B683B6000237B600CE0FB681A68BB681A60BB680433BB60FB680433FB607B6804337B607A683B689A42EED13B69DB683B6000237B6008E0BB686A
:4001000000221A60BB680433BB607B6804337B607A683B689A42F2D13B6910333B617B69013B7B617B69002BC6D101F0F5FDFFF7AFFFFEE701000000A021000080B582B0DB
:4001400000AF174B174A1A60174B174A126842F400721A6000237B600FE07B68032B04D8124B7A6853F8223000E0114B114A796842F821307B6801337B607B682F2BECD987
:400180000D4B1B78DAB20D4B1A700D4B094A1A6000F026F90B4B00221A600837BD4680BD0CED00E00004FA0514ED00E0000000009D0000000080FF1FBC7600400481FF1F34
:4001C00008ED00E00081FF1F80B582B000AF78603960786800213A6801F0CDFD0837BD4680BD00BF80B584B000AFF860B9607A60F868B9687A6801F0B5FD1037BD4680BD78
:4002000080B584B000AFF860B9607A60F868B9687A6801F0A7FD1037BD4680BD80B483B000AF0346FB71FEE780B487B000AF7860396000233B6100237B6126E07B699B005E
:400240007A6813441B68BB60BB68FB73BB6823F0FF03BB6013E03B695B003A6813441B781A46BB6813443A69520039680A4452781A703B6901333B61FB7B013BFB73FB7B29
:40028000002BE8D17B6901337B617B69102BD5D91C37BD465DF8047B704700BF80B582B000AF304B19221A802F4B18221A702F4B02221A704FF0402308221A702C4B03223B
:4002C0001A702C4B2C4A1278D2B21A702B4B08221A802B4B41F251221A800023FB7019237B6014E0FB785B00DAB2264B1B78DBB203F00103DBB21343DBB203F00303FB70B0
:400300004FF4F07000F00CFF7B68013B7B607B68002B02D0FB78032BE4D17B68002B02D10320FFF77BFF184B4FF480721A80164B07221A70154B00221A70154B48221A70D5
:40034000114B00221A70134B02221A70124B124A1278D2B242F00102D2B21A700837BD4680BD00BF80400040824000400043004000420040A14600400801004922420040FD
:40038000204200402542004004400040064000400840004001400040A243004080B483B000AF0B4B1B78FB710A4BFA7902F00702D2B21A70084BFA791209D2B21A70074B3F
:4003C00044221A700C37BD465DF8047B704700BFCF0100496E5800406F5800407658004080B582B000AF72B6334B334A1278D2B242F02402D2B21A700023FB7113E0FA79A7
:4004000013465B0013445B002C4A13443B603B681A683B689B889BB210461946FFF7D4FEFB790133FB71FB79072BE8D924482549FFF7FAFE244B244A1278D2B242F00202D5
:40044000D2B21A70214B214A1278D2B242F00202D2B21A701E4B1E4A1278D2B242F04002D2B21A701B4B1B4A1278D2B242F01002D2B21A70184819490A22FFF7C1FE184BB3
:40048000174A1278D2B242F00802D2B21A70154B01221A70FFF702FF124B81221A70124B01221A70FFF77AFF104809490E22FFF799FE0837BD4680BDE8460040941D000077
:4004C000C41D0000081E00000350014013500140A0430040C24300406051004068210000224300400048004004000840B043004080B485B000AF78600B467B800023FB8154
:400500000BE07B88013B7A6813441B781A46FB891344FB817B88013B7B807B88002BF0D1FB895B429BB218461437BD465DF8047B704700BF80B586B000AFF860B9607A601C
:400540000023FB75FA680F4B9A4206D0FB68002B03D0002000F070FF0CE00BE07B68013B7B60FA68BB681A447B6813441A78FB7D1344FB757B68002BF0D1FB7D18461837E7
:40058000BD4680BD0080004080B582B000AF06237B60002000F06EF80346002B01D100237B601C4B1B681B68002000211A46FFF7C1FF0346FB70184B1B681B78FA78D31A17
:4005C000FB70FB785B42FB70134B1B681B78FA789A4204D10F4B1B681B68002B02D1002000F02AFF0D4B1B78DBB203F0C003402B02D07B68002B05D0084B00221A7000207A
:4006000000F0AEF8322000F0ABF800F009F80837BD4680BD1081FF1F0C81FF1FFA46004080B500AF024B80221A7000F011FF80BDFA46004080B500AF0C4B1B78DBB203F08D
:40064000C003802B11D1094B00221A700220002100F0DCFB0346002B07D00220002100F0D5FB0346184600F003F880BDFA460040004700BF90B587B000AF0346FB71FB7929
:400680000320194600F0C2FB034601331C02FB790420194600F0BAFB03462344FB600023FB740023BB74FB790320194600F0AEFB034601331B027B6111E07B691B78FB720B
:4006C000FB7A002B04D0FB7AFF2B01D00123FB74BA7CFB7A1344BB747B6901337B617A69FB689A42E9D3FB790320194600F08EFB034601331B02DB087B61FA68174B9A4218
:4007000002D0FB68DB0801E04FF40043FB600AE07B6903F190431B78DAB2BB7C1344BB747B6901337B617A69FB689A42F0D3BB7C5B42BB74BC7CFB790120194600F066FB15
:4007400003469C4202D1FB7C002B01D1062300E0002318461C37BD4690BD00BFC0FF030080B5ADF5247D00AF0246FB1D1A700023A7F88A320023A7F888320A2387F88732ED
:40078000002387F8863200F055FD0346002B02D0002000F051FE00F01BFC62B6002387F88D32FB1D1B78002B02D0FB1D1B7800E0FF2307F59E7107F26A2208464FF49671FB
:4007C00000F034FCC7F87802FB1D1B78002B04D097F88732013B87F8873297F88732002B03D0D7F87832002BDBD1D7F87832002B00D0B0E2B7F86A32062B04D907F59E7338
:400800001B78012B03D0042387F88D3244E007F59E73DB781B029AB207F59E739B781343A7F88A32B7F88A32053307F59E72D35C1B029AB2B7F88A32043307F59E71CB5CE8
:400840001343A7F87632B7F88A32DA1DB7F86A329A4203D9032387F88D321DE0B7F88A32063307F59E72D35C172B03D0042387F88D3211E0B7F88A3204339BB207F59E72D0
:4008800010461946FFF734FE0346B7F876229A4202D0082387F88D320023A7F88E3297F88D32002B40F04C8207F59E731B7987F87532042387F88D3207F59E735B78313B43
:4008C0000A2B00F2398201A252F823F0F908000033090000390D0000CD0900003F0B0000390D0000510B0000A70B0000CD090000EB0B0000210D000097F88632012B17D1CA
:40090000B7F88A32002B13D10020FFF7B3FE0346002B14BF00230123DBB21A4607F59E731A710123A7F88E32002387F88D3207E206E297F88632012B47D1B7F88A32012B8C
:4009400043D197F87532032B3FD8D14B1B681B681B0C87F8743297F8752297F874329A4208D1CB4B1B681B681B0A9BB2DBB2A7F884320DE097F8752297F874329A4203D9FA
:400980000023A7F8843203E04FF48073A7F88432B7F88432DAB207F59E731A71B7F884321B0A9BB2DAB207F59E735A7107F59E73FF229A7107F59E730022DA710423A7F814
:4009C0008E32002387F88D32BAE1B9E107F59E735B78342B23D197F88632012B40F0B081B7F88A32032B40F0AB8197F875323F2B08D997F875325BB2002B03DB1023A7F806
:400A0000883203E04FF49073A7F88832B7F8883207F11002104600211A4601F0ACF997F88632012B40F08A80B7F88A32022B40F28580B7F8883207F11002D118B7F88A3257
:400A4000033B07F59E720732084611461A4601F089F9B7F88822B7F88A3213449BB2033BA7F8883297F875323F2B0AD997F875325BB2002B05DB00F099FC1023A7F88A3298
:400A800003E04FF49073A7F88A32B7F88822B7F88A329A424BD107F59E739B791B029AB207F59E735B791343A7F8883297F875323F2B27D897F875329BB21B029AB2B7F8A2
:400AC00088321344A7F87232714B1B681B681B0AA7F882326E4B1B681B68DBB2002B04D0B7F882320133A7F88232B7F87222B7F882329A4206D20A2387F88D320023A7F8AC
:400B000088321DE197F87502B7F8881207F11002B7F88A3200F0A0FB0346002B01D00A2300E0002387F88D3200F0D6FC02E0032387F88D320023A7F8883201E100E197F825
:400B40008632012B03D10023A7F8883203E1F7E097F88632012B25D1B7F88822B7F88A321344B3F5967F19D8002387F88D32B7F8883207F11002D118B7F88A3207F59E7220
:400B80000432084611461A4601F0ECF8B7F88822B7F88A321344A7F8883203E0032387F88D32CDE0CCE0B7F88A32002B1CD107F10803384A92E8030083E80300012387F87B
:400BC00086320823A7F88E32B7F88E3207F59E72111D07F10802084611461A4601F0C2F8002387F88D32ABE0AAE097F88632012B40F09580B7F88A32032B40F0908007F555
:400C00009E739B791B029AB207F59E735B791343A7F8703297F875323F2B13D997F875325BB2002B0EDBB7F870321B01C7F86C321948D7F86C121022FFF77CFC034687F8EB
:400C4000813212E097F875321A02B7F8703213441B02C7F86C320020D7F86C124FF48072FFF768FC034687F8813297F875323F2B29D897F8753203F510331A02B7F8703265
:400C800013445B01C7F86C320023A7F87E3216E01081FF1F7421000000800040B7F87E22D7F86C3213441B78DAB297F88132134487F88132B7F87E320133A7F87E32B7F82A
:400CC0007E321F2BEAD997F87532032B19D1B7F87032FF2B15D10520002100F097F80346DBB297F88122D31A87F881320620002100F08CF80346DBB297F88122D31A87F86D
:400D0000813297F881325B42DAB207F59E731A71002387F88D320123A7F88E3210E00FE00020FFF7A7FC0346002B02D1114B80221A7000F08DFB03E0052387F88D3200BF32
:400D400097F88D1207F59E72B7F88E32084611461A4600F011F8FB1D1B78002B3FF41EAD97F88632012B3FF419AD07F52477BD4680BD00BFFA46004080B584B000AF3960C5
:400D800013460246FA71BB803B6801221A703B680133FA791A703B680233BA88D2B21A703B680333BA88120A92B2D2B21A70BB8804339BB238681946FFF79AFB0346FB8101
:400DC000BB8804333A681344FA89D2B21A70BB8805333A681344FA89120A92B2D2B21A70BB8806333A68134417221A70BB8807339AB23B1D386811461A46962300F0F2F847
:400E0000034618461037BD4680BD00BF80B586B000AF02460B46FA71BB710223FB740023FB60FB79013B092B00F2928001A252F823F000BF5D0E0000770E0000910E000033
:400E4000A70E0000C10E0000DB0E00000B0F0000F50E0000210F0000370F0000BA7913461B069B1A1B0203F57F3303F570737B610123FB7472E0BA7913461B069B1A1B022E
:400E800003F57F3303F2C1337B610423FB7465E0BA7913461B069B1A1B0203F57F3303F2C5337B615AE0BA7913461B069B1A1B0203F57F3303F2C9337B610423FB744DE003
:400EC000BA7913461B069B1A1B0203F57F3303F574737B610123FB7440E0BA7913461B069B1A1B0203F57F3303F2D1337B610123FB7433E0BA7913461B069B1A1B0203F540
:400F00007F3303F2D6337B6128E0BA7913461B069B1A1B0203F57F3303F2D2337B611DE0BA7913461B069B1A1B0203F57F3303F575737B6112E0BA7913461B069B1A1B02CB
:400F400003F57F3303F576737B610423FB7405E0002000F071FA00237B6100BFFB7C012B03D17B691B78DBB2FB60FB7C022B0BD17B691B78DBB2FB607B6901331B78DBB269
:400F80001B02FA681343FB60FB7C042B1BD17B691B78DBB2FB607B6901331B78DBB21B02FA681343FB607B6902331B78DBB21B04FA681343FB607B6903331B78DBB21B06E2
:400FC000FA681343FB60FB6818461837BD4680BD80B500AF00F0A0FC00F0A0FD00F0F6FD80BD00BF80B586B000AFF8607A600A467A817B720023FB8200F090FD09E0FB8AA3
:40100000FA6813441B78184600F0C6FDFB8A0133FB82FA8A7B899A42F1D37B687A891A80002318461837BD4680BD00BF90B589B000AFF8607A600A467A817B720523BB61CB
:401040000023FB831AE000F021FD0346002B0FD000F01CFD0346FB82192000F009FA00F015FD0346FA8A9A42F2D30023BB610DE0012000F0FDF9FB8B0133FB83F98B7A7A26
:4010800013469B0013445B009942DCDB7B6800221A800023BB8336E000F0F8FC0346BB827B681A88BB8A13449AB27B681A807B681B887A899A421ED90023FB830CE0BB8B5F
:4010C000FA68D41800F098FC03462370BB8B0133BB83FB8B0133FB83FA8BBB8A9A42EED3BB8B013BFA6813441B78172B0BD0052000F0BEF907E07B681A88BB8AD31A9AB24A
:401100007B681A8004E000F0C1FC0346002BC3D1BB6918462437BD4690BD00BF000000000230800800F0058000BF013800467FF4FCAF7047EFF3108072B6704780F310880F
:40114000704700BFAFF3008080B582B000AF00F039FA4FF0FF337B6000F05EFB0346002B24D1012000F026FB0346072B1BD11348022100F049FA0346022B0DD100237B6004
:4011800002E0012000F096F90D4B1B78DBB203F00203002BF5D006E0094B1B78DBB203F00203002BE3D000F06BFB01E004237B607B6818460837BD4680BD00BF5481FF1F72
:4011C0002247004080B582B000AF00F0FBF900F023FB0346002B23D100F07AFB78607B68072B1AD102E0012000F064F9104B1B78DBB203F00203002BF5D00D4B1B78DBB26E
:4012000003F00203002B08D0094B1B78DBB29B08DBB2002B01D100237B6000F031FB01E004237B607B6818460837BD4680BD00BF2247004080B582B000AFFFF7C3FF786047
:401240007B68002B02D1FFF77FFF78607B6818460837BD4680BD00BF80B586B000AFBA600246FA730A46BA81FB8000237B61FB7B3F2B04D8FB7B042B01D901237B61FB7B23
:401280005BB2002B01DA01237B61FB7B3F2B04D9FB7B412B01D901237B61FB7B3F2B06D8BB89B3F5807F0CD901237B6109E0BB89802B01D901237B61FB88102B01D00123AF
:4012C0007B61BB68002B01D101237B617B69002B62D100F0A1FA0346002B5BD1F97BBA89FB8808461146BA6800F0BAF978617B69072B4CD102E0012000F0DCF8294B1B7807
:40130000DBB203F00203002BF5D0264B1B78DBB203F00203002B09D0224B1B78DBB29B08DBB2002B02D100237B6102E04FF0FF337B617B69002B2AD11B4B1A781A4B5B7888
:40134000F87BB98900F0F2F978617B69072B1ED102E0012000F0AEF8124B1B78DBB203F00203002BF5D00F4B1B78DBB203F00203002B09D00B4B1B78DBB29B08DBB2002BBA
:4013800002D100237B6102E04FF0FF337B6100F077FA01E004237B617B6918461837BD4680BD00BF224700405481FF1F80B582B000AFFFF7BFFE0346FB71194B184A1278ED
:4013C000D2B242F00802D2B21A70164B154A1278D2B242F00802D2B21A70134BC8221A70124B124A1278D2B242F01002D2B21A700F4B0F4A1278D2B242F01002D2B21A7009
:4014000000BF0C4B1B78DBB203F02003002BF8D0FB791846FFF792FE0837BD4680BD00BFA0430040B043004001470040AC430040BC4300400047004080B483B000AF0346A5
:40144000FB7101BE0C37BD465DF8047B704700BF80B400AF054B054A1278D2B242F00102D2B21A70BD465DF8047B7047F646004080B582B000AF786008E00C4B1B681846C6
:40148000FFF74EFE7B68A3F500437B607B68B3F5004FF2D8064B1B687A6802FB03F31846FFF73EFE0837BD4680BD00BF2081FF1F1881FF1F80B582B000AF0346FB80FB8863
:4014C000044A127802FB03F31846FFF729FE0837BD4680BD1C81FF1F80B582B000AFFFF729FE0346FB7100BF00BF00BF00BF00BF00BF00BF00BF00BF00BF00BF00BF00BFD1
:4015000000BF00BF00BF094B084A128892B242F0040292B21A80054B1B88BFF36F8FFB791846FFF70BFE0837BD4680BD0048004080B584B000AF03463960FB710F4B1B6816
:40154000FB60FB791F2B02D90020FFF775FFFB7903F01F0310339B00FA6813441B68BB60FB7903F01F0310339B00FA6813443A681A60BB6818461037BD4680BD08ED00E016
:4015800080B582B000AF02460B46FA71BB71BB79072B02D90020FFF74FFFFB791F2B02D90020FFF749FFFB7903F01F0303F1604303F56443BA795201D2B21A700837BD46B4
:4015C00080BD00BF80B582B000AFFFF7B3FD0346FB710B4B0A4A1278D2B242F00802D2B21A70084B074A1278D2B242F00802D2B21A70FB791846FFF7A1FD0837BD4680BD9B
:40160000A0430040B043004080B584B000AF78600B46FB700023FB7314E002E00120FFF749FF0D4B1B78DBB203F00103002BF5D0FB7B7A681344094A1278D2B21A70FB7B73
:401640000133FB73FA7BFB789A42E6D3FB7B18461037BD4680BD00BF224700402047004080B489B000AFBA600246FA730A46BA81FB800723FB612B4B1B78DBB203F00203DC
:40168000002B45D0284BB6221A70274BD5221A70254B02221A70234B1B78DBB203F00203002B32D1204BFA7B1A7000237B8308E01D4B7A8BB9680A4412781A707B8B0133B3
:4016C0007B837A8BFB889A42F2D3FB88B3F5807F20D1FB7B3F2B1DD8FB7B03F510331A02BB8913445B017B6100237B8309E00E4B798B7A690A441278D2B21A707B8B0133C9
:401700007B837B8B1F2BF2D904E00923FB6101E00423FB61FB6918462437BD465DF8047B704700BF224700402047004080B485B000AFF871B980BA71FB700723FB601B4BCB
:401740001B78DBB203F00203002B26D0184BB6221A70174BD8221A70154B05221A70134B1B78DBB203F00203002B13D1104BFA791A700F4BBA88120A92B2D2B21A700C4B36
:40178000BA88D2B21A700A4BBA791A70084BFA781A7004E00923FB6001E00423FB60FB6818461437BD465DF8047B7047224700402047004080B485B000AF0346FB710723C9
:4017C000FB60134B1B78DBB203F00203002B16D0104BB6221A700F4BE1221A700D4B0E221A700B4B1B78DBB203F00203002B03D1084BFA791A7004E00923FB6001E0042321
:40180000FB60FB6818461437BD465DF8047B7047224700402047004080B582B000AF04237B60FFF787FC0346FB70124B1B78002B16D1104B01221A7000237B600E4B1B683A
:4018400003F00103002B0BD00B4B0B4A126822F001021A6000BF00BF00BF084B01221A60FB781846FFF76AFC7B6818460837BD4680BD00BF4481FF1F040008404881FF1FC8
:4018800080B582B000AFFFF755FC0346FB710D4B00221A700C4B1B68012B0BD10B4B0B4A126842F001021A6000BF00BF00BF064B00221A60FB791846FFF740FC0837BD46EC
:4018C00080BD00BF4481FF1F4881FF1F0400084080B483B000AF07237B600D4B1B78DBB203F00203002B09D00A4BB6221A70094BE0221A70074B0D221A7001E004237B60C2
:401900007B6818460C37BD465DF8047B704700BF224700402047004080B500AF054B1B78002B04D100F008F8024B01221A7000F02FF880BD4C81FF1F80B500AF00200D493C
:40194000FFF7F6FD00200721FFF71AFE0A4B00221A700A4B72221A70094B20221A70094B06221A70084B47221A70084B00221A7080BD00BF0D1C00004D81FF1F8C64004008
:401980008A6400402E6400403E6400408B64004080B582B000AFFFF7CDFB0346FB71124B114A1278D2B242F02002D2B21A700F4B0E4A1278D2B242F01002D2B21A700C4BFC
:4019C00001221A600B4B0B4A1278D2B242F01002D2B21A7000F086F9FB791846FFF7AEFB0837BD4680BD00BF9C6400409A64004000E100E09B64004080B483B000AF1C4B26
:401A000001221A601B4B1B78BB711B4B1B787B711A4B1B78DBB2002B03D1BA797B799A4219D0BB79164AD35CFB71BB790133BB71BB795BB2002B01DA0023BB710D4BBA79AB
:401A40001A700E4B1B78DBB2002B03D00B4B00221A7003E002E00B4B1B78FB710A4B01221A60FB7918460C37BD465DF8047B704780E100E04E81FF1F4F81FF1F5081FF1FA9
:401A80005881FF1F4F64004000E100E080B483B000AF1D4B01221A601C4B1B78DAB21C4B1B78DBB29A420AD11A4B1B78DBB2002B02D08023FB711DE00023FB711AE0134B27
:401AC0001B78DAB2124B1B78DBB29A4208D2104B1B78DAB20D4B1B78DBB2D31AFB7109E00B4B1B78DAB2094B1B78DBB2D31ADBB2803BFB71084B01221A60FB7918460C37D1
:401B0000BD465DF8047B704780E100E04E81FF1F4F81FF1F5081FF1F00E100E080B582B000AFFFF707FB0346FB71144B134A1278D2B242F00102D2B21A70104B0F4A12783D
:401B4000D2B222F00102D2B21A70FB791846FFF7F5FA0B4B01221A600A4B00221A700A4B00221A70094B00221A70094B00221A70084B01221A600837BD4680BD9F64004060
:401B800080E100E04E81FF1F4F81FF1F5081FF1F5181FF1F00E100E080B483B000AF0346FB7100BF074B1B78DBB203F00403002BF8D1054BFA791A700C37BD465DF8047B18
:401BC000704700BF6B6400404B64004080B582B000AFFFF7AFFA0346FB710B4B0A4A1278D2B242F00102D2B21A70074B064A1278D2B222F00102D2B21A70FB791846FFF771
:401C00009DFA0837BD4680BD9B64004080B483B000AF0023FB712B4B1B78BB71BB797B71BB7903F01E03002B0BD0BB7903F01E03DAB2254B1B78DBB21343DBB2DAB2224BC7
:401C40001A70BB7903F02003002B31D01F4B1B787B711F4B1B78DBB21E4A7979D1540123FB71FB79002B23D01B4B1B78DBB2002B02D01A4B01221A70154B1B78DBB2013307
:401C8000DAB2134B1A70124B1B78DBB2DBB25BB2002B02DA0E4B00221A700D4B1B78DAB20F4B1B78DBB29A4202D10B4B01221A70BB7903F02003002BADD10C37BD465DF85C
:401CC000047B70476A6400404D81FF1F4F6400404F81FF1F5881FF1F5081FF1F5181FF1F4E81FF1F80B400AF094B094A1278D2B242F00102D2B21A70064B064A1278D2B286
:401D000042F00102D2B21A70BD465DF8047B7047A2430040B243004070B50E4B0E4D0024ED1AAD101E46AC4204D056F8242090470134F8E700F022FA084D094B0024ED1A34
:401D4000AD101E46AC4204D056F8242090470134F8E770BD8821000088210000902100008821000010B50023934203D0CC5CC4540133F9E710BD02440346934202D003F848
:401D8000011BFAE77047000032000000D021000000000000005100406000C05100401000F0510040100000000140001000140140000800400140000A004C01400002005051
:401DC000014020000252004003640040010501404B0A0140420B01403A0C0140430D01405D0E01402F0F014002400140014101400342014004440140034501400246014072
:401E00000350014001510140310134028A388B0F8C72E60102030308051A07040B050C0C0E1110101103120C130C181C1A021C101D031F14201421202C092E102F18301F93
:401E4000311C3303352039083B023F1454185604580459045B045F018002850A860287048A028B058F08900296029D039F0CA001A503A704AD03AF04B002B10FB401BB02F4
:401E8000BE11C053C104C5E0C6CBC80EC9FFCAFFCBFFCEF0CF44D00CD401D804D904DA04DB04DF01E6C0EA40EB02008001020428074009010B060D020E100F2010811180F0
:401EC000150119021E882080210622102340250126022740280129022F2231023342374038283A303B063D803E203F04450246104D014E02548057305A025D015E986080A7
:401F00006150808082109028920293029508974099509E20A140A501C079C23BC419CA59CC19CE77D0C0D210D6F1D80DE4040104050209020D04110215011D0121012704B9
:401F400029082D0133023501370C39803F105602571159045B045F01800F830485C08603880489188C018D44900391E7920C93189402958098039BE39D10A00FA11CA3E14C
:401F8000A40CA51CA7E2A80CA908AA03AC08ADFFB00FB1C0B31FB738BA82BB88D804D904DF010160039009080A400B041219130119811A401BC0228923012540261027109F
:401FC000284029A42E602FA0308031093310344035043688370939423A103B043D023E143F4058805A405E206C206E146F097484752076138D048F409028914293069508B6
:40200000974199509C809D209E029F18A108A320A424A545A748B420B540C00FC20EC40FCAFFCCDFCEFFD620040C05010603070E1001120E1544173119671A031E08200146
:402040002206252227D129672E0C31803360340F350737183A203F404003454049FF4A074BFF4C404D204EF04F055008580459045A045F01604061A8624063208106830166
:40208000850688028B018C028D079204950796049D019E029F06A104A602A902AA01AE01B002B107B404B601B802BE50C042C103C205C401C6E0C70CC818C9FFCAFFCBFFB5
:4020C000CC62CDA0CEF0CF41D00CD804D904DA04DF01E640E702E910EA30EB10ED10EE10EF120320070609200B420E800F2111821608174818081B201D501E802189230460
:402100002602274028202B082D202E0230203108348037083B043C083D203F8141044480459447164B024E025010512056085710C0C4C2BBC4E9CAA6CC56CEF2D0F2D210E6
:402140003240CC10968082409680E68005025910C004D4019D10B502EA0281109D1000010C010E01000300000100020101000100000000006930122E001E0101F8B500BF9B
:40218000F8BC08BC9E467047610000003D010000F8B500BFF8BC08BC9E4670473D000000B02100000881FF1F20000000B000000000000000881D00008C1D000000366E0176
:4021C000C05D0000180000000000E02E000000000000000000000000000000000000000000000000000000000000000000000000000000000000000000000000000000009C
:402200000080002011220000591901005919010008B50FF0A3FB00BF10B5054C237833B9044B13B10448AFF300800123237010BD2883FF1F0000000058340100084B10B5BC
:402240001BB108480849AFF300800848036803B910BD074B002BFBD0BDE81040184700BF00000000583401002C83FF1F0881FF1F0000000008B510F071FC0E4B1B78012BED
:4022800013D10D4B1978062907D80131C9B219700120143108F05AFD08BD0022064B1A700120142108F052FD08BD034A13780133137008BD7A83FF1F9685FF1F08B510F0CF
:4022C00007FD0E4B1B78012B13D10D4B1978062907D80131C9B219700220143108F036FD08BD0022064B1A700220142108F02EFD08BD034A13780133137008BD4B85FF1FDC
:402300002585FF1F10B562B60FF05CFD0FF010FF0FF092FF0FF048FD0FF068FE10F02EFA10F01AFB0FF070FE10F036FA10F022FB0FF0F0FE10F0A0FF052011F007F800248D
:40234000984B1C702046202108F03AF9964B1C6006E0964AD15C964AD1540133924A1360924B1A78904B1B689A42F2D220200F2108F026F900228C4B1A6007E08B4AD15CF4
:402380008B4A1A4491770133874A1360874B1A78854B1B689A42F1D24020202108F010F90022814B1A6008E0804AD15C804A1A4482F8431001337C4A13607C4B1A787A4BAB
:4023C0001B689A42F0D28020202108F0F9F80022754B1A6008E0754AD15C754A1A4482F861100133704A1360704B1A786E4B1B689A42F0D2A020202108F0E2F800226A4B88
:402400001A6008E0694AD15C694A1A4482F87F100133654A1360654B1A78634B1B689A42F0D22F200C2108F0CBF800225E4B1A6008E05E4AD15C5E4A1A4482F82F100133AD
:40244000594A1360594B1A78574B1B689A42F0D26020092108F0B4F8544B1878431EDBB2082B14D80022504B1A6008E001334F4AD15C4F4A1A4482F8D7104B4A13604A4BB5
:402480001B68072BF2D94A4B83F8D7000EE00122454B1A6006E0464A1A4482F8D7300133414A1360404B1B68082BF4D940F26A400A2108F085F800223B4B1A6006E03B4AFC
:4024C000D15C3C4AD1540133374A1360374B1A78354B1B689A42F2D240F275400A2108F06FF80022304B1A6006E0304AD15C324AD15401332C4A13602C4B1A782A4B1B6851
:402500009A42F2D24FF490600A2108F059F80022254B1A6006E0254AD15C284AD1540133214A1360214B1A781F4B1B689A42F2D240F28B400A2108F043F800221A4B1A6036
:4025400006E01A4AD15C1E4AD1540133164A1360164B1A78144B1B689A42F2D240F28D40022108F02DF800220F4B1A6006E00F4AD15C144AD15401330B4A13600B4B1A78D3
:40258000094B1B689A42F2D240F29F20052108F017F8064B1878042823D10122024B1A6019E000BF8F86FF1F8C83FF1F5485FF1F3487FF1F2885FF1F8083FF1FD488FF1F4D
:4025C0003885FF1FD088FF1FA44AD15CA44AD1540133A44A1360A34B1B68042BF4D9A04B187040F2C110022107F0EAFF9B4B1B78012B03D1994B5A789B4B1A7040F2C3103D
:40260000022107F0DDFF954B1B78012B03D1934B5A78964B1A7040F2C510022107F0D0FF8E4B1B78012B03D18C4B5A78904B1A7040F2EE30022107F0C3FF884B1B78012BEE
:4026400003D1864B5A788B4B1A704FF4DD70022107F0B6FF814B1B78052B05D17F4B5B7803F00F03844A137040F27A20022107F0A7FF7A4B1B78012B03D1784B5A787F4B89
:402680001A704FF41F70022107F09AFF734B1B78012B03D1714B5A78794B1A7040F27E20022107F08DFF6D4B1B78012B03D16B4B5A78744B1A704FF47C70022107F080FF84
:4026C000664B1B78012B03D1644B5A786E4B1A7040F25A20062107F073FF604B1B78052B0AD15E4AD37803F00F0368490B70537903F00F03664A137040F2C710022107F002
:402700005FFF564B1B78012B06D1624A1370534B5B7803F00F0353704FF4DE70022107F04FFF4E4B1B78012B05D14C4B5B7803F00F03594A137040F26320022107F040FFD2
:40274000464B1B78012B05D1444B5B7803F00F03524A537040F26520022107F031FF3F4B1B78012B05D13D4B5B7803F00F034C4A53704FF42770032107F022FF374B1B7869
:40278000022B06D1354B9B7843EA0323454A138002E00122434B1A804FF47670022107F00FFF2E4B1B78012B04D12C4B5A783E4B5A7007E03C4901230B704B704FF47670F7
:4027C00007F0C0FE40F2D230062107F0F9FE234B187805280FD10022224B1A6006E01F4AD15C324AD15401331E4A13601D4B1B689842F4D20CE02D4905230B7030234B70FD
:402800008B70CB700B714B7140F2D23007F09AFE264A537903F00F00137903F00F014FF47A7303FB01F342F2107101FB0033D07800F00F00642101FB0031937803F00F038B
:4028400003EB83035B000B44527802F00F021344174A13600222174B1A7010BD5485FF1F0C81FF1F8C83FF1F1E88FF1FDF88FF1F4C85FF1F7C83FF1F3385FF1F2485FF1FA4
:402880008E86FF1F9386FF1F2C87FF1F7D83FF1F1F88FF1F4885FF1FA285FF1F9086FF1F3087FF1F2285FF1F7883FF1F9C85FF1F3088FF1F2785FF1F10B5002413E00BF02E
:4028C000A5F802280FD1642010F040FD074B18780BF0DCF8062806D1044B18790BF0D6F8062800D10224002CE9D010BD7083FF1F08B501280ED1552108F028FA64220D4BF6
:402900001A7001220C4B1A700C4810F09BF910F06BF908BD0220552108F018FA6422084B1A700122074B1A70074810F045FA10F015FA08BD7A83FF1F9685FF1F75220000A7
:402940004B85FF1F2585FF1FBD22000038B5984B1B78642B03F22587DFE813F074008000231FA100000188013B02D9020C034B0337048904F6047805AB058606A407F3076F
:402980009A083C09B709210B740CF80D130FE612211313147D14FE14CD1568162C17F319561ADE1A2B1B5A1BE21BD31CD61D611EC11E231F231F231F231F231F231F231FCA
:4029C000231F231F231F231F231F231F231F231F231F231F231F231F231F231F231F231F231F231F231F231F231F231F231F231F231F231F231F231F231F231F231F231F97
:402A0000231F231F231F231F231F231F231F231F231F231F231F231F231F231F231F231F231F231F6500634B1B78012B43F2B98600245F4B1C7010F013F910F075F85D4B31
:402A40001C7038BD5C4810F0FDF810F0CDF80022584B1A700122564B1A7038BD0FF0A8FE082843F09E860FF0CDFE10F0F9F810F05BF8524B1B78022B04D10120632108F0DC
:402A800065F903E00120452108F060F90322484B1A70642010F05AFC0FF0B4FE38BD0FF087FE082843F07D86454B1B78DBB2AA2B4ED1434B9B79DBB2C32B49D1404BDB7997
:402AC000DBB23C2B44D13E4BDB78DBB2592B2DD002D8452B1FD03BE05C2B02D07E2B30D036E00022374BDA70344B1B78012B06D10120052108F02AF904222D4B1A702F4B70
:402B00001B78022B24D10120492108F01FF91922274B1A701CE00120252108F017F90022294B1A700F22224B1A7011E00120252108F00CF90022244B1A7027221C4B1A70B1
:402B400006E00120002108F001F90022184B1A70642010F0FBFB0FF055FE38BD0FF028FE082843F01E86164B1B78DBB2AA2B77D1134B9B79DBB2C32B72D1114BDB79DBB234
:402B80003C2B6DD10F4AD37823F00303D3700C4BDB78DBB23B2B4BD004D80F2B16D0102B28D05DE0432B3BD07E2B52D058E000BF7A83FF1F9685FF1F752200002785FF1F5C
:402BC000D08AFF1F9486FF1F4D85FF1F0120062108F0BCF80022A74B1A700120242108F0EBF8A54AD37843F00203D3700522A34B1A7035E001200D2108F0A8F800229D4B08
:402C00001A709F4B1A700120472108F0D5F89A4AD37843F00103D3700522984B1A701FE00120072108F092F80622944B1A7017E0944B1B78022B04D10120632108F086F82A
:402C400003E00120452108F081F803228B4B1A7006E00120002108F079F80022874B1A70642010F073FB0FF0CDFD38BD0FF0A0FD082843F09685844B1B78DBB2AA2B40F027
:402C8000A280814B9B79DBB2C32B40F09C807E4BDB79DBB23C2B40F09680764B1B787B4A1278013A93423EDC774AD278D2B2092A0FD80133DAB26F4B1A707348C1786E4BCD
:402CC00013443031D972C17830310120C9B208F073F86D4BDB78DBB20A2B0BD1654B1A780132D2B21A70644B13443021D972012008F062F8644BDB78DBB2512B13D15D4B60
:402D00001B7883B15E4A12786AB90133DAB2594B1A70594B13442C21D972012008F04CF80122574B1A70584BDB78DBB20B2B1BD1504B1A783AB90120052108F007F8042221
:402D40004E4B1A7010E00120202108F035F8494B1B78494A1A44D27A2C2A02D10021484A1170013B434A1370474BDB78DBB20C2B29D1404B1B786BB1454B1B7853B901207F
:402D8000072107F0E3FF3B4B1A783B4BDA7206223A4B1A70374B1B78ABB13D4B1B78012B11D10120702107F0D1FF334B1B7B39490B7040F28D4007F0C5FB0022344B1A70EC
:402DC0000E222E4B1A70642010F0C0FA0FF01AFD38BD642010F0BAFA0FF0EAFC082820D1294B1B78DBB2AA2B15D1274B9B79DBB2C32B10D1244BDB79DBB23C2B0BD1224BE8
:402E0000DB78DBB27E2B06D10120002107F09EFF00221A4B1A70642010F098FA0FF0F2FC38BD1D4B18780AF031FE072843F0B984322010F08BFA184B18780AF03BFE174B34
:402E40001870322010F082FA0B4BDB7813F0030328D0114A1078114A1178114A0EF0CCF800BB0120002107F071FF0022034B1A7038BD00BF4D85FF1F9486FF1F7A83FF1F19
:402E80007B83FF1F2785FF1FD08AFF1F3385FF1F8F86FF1FD088FF1F7083FF1F3588FF1F9F86FF1F012010F0F9F99F4B18780AF001FE9E4B1870002803F073849C4B1B7883
:402EC00003F00F03834211D09A4B1B7803F00F0398420BD0984B1B7803F00F03984205D0964B1B7803F00F03984202D101200EF003FD8D4B187840F010000EF0EBFF0120D5
:402F0000082107F023FF07228D4B1A7038BD322010F01CFA844B18780AF0B8FD0A2813D00B2803D0062843F03C841BE0642010F00DFA7D4B18780AF031FE012843F0318405
:402F400008227F4B1A7038BD642010F0FFF9764B18780AF023FE012843F023840822784B1A7038BD0120002107F0F0FE0022744B1A7038BD734B1B78012B02D0022B10D0A4
:402F800038BD01200B2107F0E1FE6F480FF05AFE0FF02AFE00226D4B1A700A22684B1A7038BD6B4BDB7813F0040F0FD101200B2107F0CCFE64480FF045FE0FF015FE0022D3
:402FC000624B1A700A225E4B1A7038BD01200B2107F0BCFE00245E4B83F883405A480FF031FE0FF001FE594B1C700A22544B1A7038BD0FF0DDFB082840F0D280554B1B7839
:40300000DBB2AA2B40F0C780524B9B79DBB2C32B40F0C1804F4BDB79DBB23C2B40F0BB8000224A4B1A704C4B1B78062B65D8494AD278D2B2092A10D80133DAB2464B1A709D
:403040004448C178424B1344303183F86510C17830310120C9B207F0AFFE3E4BDB78DBB20A2B0CD13C4B1A780132D2B21A70384B1344302183F86510012007F09DFE354B59
:40308000DB78DBB26A2B0CD1334B1A780132D2B21A702F4B13442D2183F86510012007F08BFE2C4BDB78DBB21A2B26D9294BDB78DBB2422B21D80022284B1A6019E0254AF1
:4030C000D278D2B226491944097A8A420DD122490A780132D2B20A704133D9B21C4B134483F86510012007F067FE1C4A1368013313601A4B1B68192BE1D9164BDB78DBB212
:403100000B2B37D1144B1A7862BB01200B2107F01DFE0F4B002283F8652083F883200A22074B1A7026E000BF7083FF1F3588FF1F1E88FF1FDF88FF1F4C85FF1F7C83FF1F3C
:403140007A83FF1F2785FF1F752200009685FF1F9486FF1FD08AFF1F4D85FF1F8C83FF1F0C81FF1F0120202107F026FEB04A1378013B1370AF4BDB78DBB20C2B0BD1AC4B7D
:403180001A7842B1AC4B83F86520012283F883200D22AA4B1A70642010F0D8F80FF032FBA74B1B781D2B43F2FC8201200B2107F0CDFDA14A002382F8653082F88330A04A62
:4031C00013700A229D4B1A7038BD0FF0F1FA08283DD1984B1B78DBB2AA2B33D1954B9B79DBB2C32B2ED1934BDB79DBB23C2B29D1904BDB78DBB2382B15D0392B22D10022AB
:403200008B4B1A708C4BDB7813F0040F07D101200A2107F09BFD0922884B1A7012E00D22864B1A700EE001200C2107F08FFD0122834B1A7083480FF005FD0FF0D5FC6422DB
:403240007E4B1A70642010F081F80FF0DBFA7C4B1B781D2B43F2A58201200C2107F076FD0122774B1A706422744B1A7038BD0120014607F0FBFA052840D90A2010F066F81F
:403280000120212107F0F2FA052837D9012007F005FA012832D133200FF0D2FA0120332107F03EFA50B30022674B1A600AE0012007F0A0FA604B1C4484F82900624A1368C2
:4032C00001331360604B1C68072CF0D90120132107F03CFD584CE37843F00403E3704FF4FA7010F033F801200E2107F02FFD00234F4A137023710C22504B1A700FF058FA29
:40330000082843F04E824B4B1B78DBB2AA2B15D1484B9B79DBB2C32B10D1464BDB79DBB23C2B0BD1434BDB78DBB23B2B06D10120632107F00BFD0322404B1A70642010F024
:4033400005F80FF05FFA38BD0FF032FA082843F02882384B1B78DBB2AA2B62D1354B9B79DBB2C32B5DD1334BDB79DBB23C2B58D12F4B1B78052B25D82E4AD278D2B2092A41
:403380000FD80133DAB22A4B1A702A48C1782A4B134430311971C17830310120C9B207F00BFD244BDB78DBB20A2B0BD1204B1A780132D2B21A70204B134430211971012074
:4033C00007F0FAFC1B4BDB78DBB20B2B12D1184B1A783AB90120052107F0B8FC0422174B1A7007E00120202107F0E6FC104A1378013B13700F4BDB78DBB20C2B11D10C4B25
:403400001B7873B10C4B5B79302B0AD00120052107F09CFC064B1A78074B1A710422074B1A7064200FF092FF0FF0ECF938BD00BF4D85FF1FD08AFF1F9486FF1F7A83FF1F76
:403440009685FF1F752200005085FF1FBA4B5878BA4B19780022BA4B1B7808F01FFFB94B1B78012B02D0B84B5B787BB901200C2107F06CFC0122B54B1A70B5480FF0E2FB7C
:403480000FF0B2FB6422B34B1A7038BD0120312107F05CFC0022B04B1A700122AB4B1A70AB480FF0CFFB0FF09FFB2122A94B1A7038BD0FF07DF9082843F07381A74B1B78F5
:4034C000DBB2AA2B40F0CA80A44B9B79DBB2C32B40F0C480A14BDB79DBB23C2B40F0BE809E4BDB78DBB2652B00F084800AD85A2B50D002D8582B12D0B0E05B2B64D05D2B77
:4035000024D0ABE07E2B00F0A28003D8702B00F09680A3E0932B75D0962B60D09EE000228D4B1A7001203E2107F010FC06F04AFF012801D107F0C0FC06F074FF012801D188
:4035400007F018FD1022834B1A7087E001205C2107F0FCFB01200021D62240F2AD1307F0EFFD01200021892240F2B31307F0E8FD01200146242240F2A71307F0E1FD012062
:40358000014678224FF47A7307F0DAFD1322714B1A7063E00120602107F0D8FB012007F04DFD012007F08CFE012008F01BF8012008F09EF8012007F009FF012007F08CFF60
:4035C0001222644B1A7049E001202F2107F0BEFB0022614B1A7011225E4B1A703EE001205F2107F0B3FB00225B4B1A701B22594B1A7033E001204D2107F0A8FB1422554B23
:403600001A702BE001206E2107F0A0FB0120014607F02CF905280ED90A200FF097FE012008F06EF90120212107F020F9052802D9012008F0E3F82322464B1A700EE00120FF
:40364000892107F083FB2922424B1A7006E00120002107F07BFB00223E4B1A7064200FF075FE0FF0CFF838BD0FF0A2F8082843F098803A4B1B78DBB2AA2B40F00D81374B80
:403680009B79DBB2C32B40F00781344BDB79DBB23C2B40F00181304B1A78072A26D82F4BDB78DBB2092B0ED82C4BD9782C4B1344303183F88E1001202A2107F07DFB264A3F
:4036C000137801331370254BDB78DBB20A2B0DD1214C2278224B1344302183F88E1001202A2107F069FB2378013323701B4BDB78DBB20B2B0ED1184B1B781BB90120FFF78B
:40370000F7F807E0013BDAB2134B1A700120202107F052FB114BDB78DBB20C2B40F0BC800D4B1A78002A00F0A88000230D490B600D490B6030E000BF9086FF1F3588FF1FCF
:403740007083FF1F2785FF1F7883FF1F9685FF1F752200007A83FF1F4D85FF1FD08AFF1F9486FF1FA485FF1F8C83FF1F581CAB49014491F8D710AA4C234493F88E30303B28
:40378000994204D1A7490B6801330B6002E00021A44B1960A44B18601046A34B1B689A42E4D89E4B93F8D7209E4B1B689A421AD10120262107F0CAFA4FF4FA700FF0C6FDF6
:4037C0009A4B1B78012B04D101205D2107F0BEFA05E0022B03D10120702107F0B7FA0E22934B1A7058E000238E4A13608E4A136010E0904A1A4492F82410894A1A4492F898
:403800008E20914203D187490A6801320A600133854A1360844B1B689842EAD8814B1B68082B1AD10120262107F090FA4FF4FA700FF08CFD7D4B1B78012B04D101205D216A
:4038400007F084FA05E0022B03D10120702107F07DFA0E22764B1A701EE00120272107F075FA0122744B1A7074480FF0EBF90FF0BBF964226E4B1A700EE00120272107F0B0
:4038800065FA01226C4B1A706C480FF0DBF90FF0ABF96422664B1A7064200FF057FD0EF0B1FF38BD0EF084FF082842F07A87644B1B78DBB2AA2B3ED1614B9B79DBB2C32B0E
:4038C00039D15F4BDB79DBB23C2B34D15C4BDB78DBB23F2B04D07E2B26D03E2B2BD116E00120402107F032FA0023564A1370564A137001206121062207F05EFA01206D2131
:40390000072207F059FA1522494B1A7013E001203F2107F01BFA00234A4A13704A4A13701622434B1A7006E00120702107F00EFA0E223F4B1A7064200FF008FD0EF062FFDC
:4039400038BD0EF035FF082842F02B873C4B1B78DBB2AA2B40F09680394B9B79DBB2C32B40F09080364BDB79DBB23C2B40F08A80344B1A78072A27D8314BDB78DBB2092B23
:4039800010D82F48C178264B1344303183F88E10C17830310120C9B207F00EFA294A137801331370264BDB78DBB20A2B0CD1254C22781B4B1344302183F88E10012007F096
:4039C000FBF92378013323701D4BDB78DBB20B2B0ED11C4B1B781BB90120FEF789FF07E0013BDAB2174B1A700120202107F0E4F9134BDB78DBB20C2B44D1124B1B78052B2D
:403A000040D90120392107F0A1F90E4B1978034B83F8D7100022044B1A6023E03487FF1F9486FF1FA485FF1F8C83FF1F2785FF1F7A83FF1F0C81FF1F9685FF1F75220000F4
:403A4000D08AFF1F4D85FF1F7B83FF1F581CB24A134493F88E20B14B0344303A83F8D720AF4B1860AE4B1B689942EFD86020AD4906F068FD18B90120552107F067F9002261
:403A8000A94B1A7064200FF061FC0EF0BBFE38BD0EF08EFE082842F08486A44B1B78DBB2AA2B40F09180A14B9B79DBB2C32B40F08B809E4BDB79DBB23C2B40F085809B4BDF
:403AC000DB78DBB27A2B5FD006D8772B3ED0782B4CD0762B78D10AE0822B17D002D87E2B6BD071E0832B21D0952B5AD06CE00120302107F02BF900238D4A13708D4A137015
:403B00008D4A13701822884B1A705DE00120792107F01CF90222864B1A700023854A1370854A13701822804B1A704DE001207A2107F00CF903227E4B1A7000237D4A1370F1
:403B40007D4A13701822784B1A703DE00120782107F0FCF80122764B1A700023754A1370754A13701822704B1A702DE00120652107F0ECF801226E4B1A7000226D4B1A70C5
:403B80001722694B1A701FE00120322107F0DEF80023674A1370674A13701722624B1A7012E0664B1B78022B0ED10120662107F0CDF820225C4B1A7006E00120702107F0AB
:403BC000C5F80E22584B1A7064200FF0BFFB0EF019FE38BD0EF0ECFD082842F0E285534B1B78DBB2AA2B6AD1504B9B79DBB2C32B65D14E4BDB79DBB23C2B60D14B4BDB788B
:403C00007E3B042B5BD8DFE803F05303172B3F000120062107F09AF80022464B1A70484B19783E4B83F8A3100120242107F0C4F81A223D4B1A7042E00120062107F086F8A9
:403C400000223C4B1A703F4B1978344B83F8A3100120242107F0B0F81A22334B1A702EE00120062107F072F80022324B1A70364B19782A4B83F8A3100120242107F09CF87A
:403C80001A22294B1A701AE00120062107F05EF80022284B1A702D4B1978204B83F8A3100120242107F088F81A221F4B1A7006E00120702107F04AF80E221B4B1A706420F8
:403CC0000FF044FB0EF09EFD38BD0EF071FD082842F06785154B1B78DBB2AA2B40F05981124B9B79DBB2C32B40F053810F4BDB79DBB23C2B40F04D810C4BDB78DBB2632B8A
:403D00004DD002D8622B23D043E1642B00F0E7807E2B00F037813CE19486FF1F3487FF1F8C83FF1F0B88FF1F7A83FF1FD08AFF1F9785FF1F4D85FF1F3488FF1F2785FF1F44
:403D4000DF88FF1F4C85FF1F1E88FF1F7C83FF1F0120392106F0FAFF64200FF0F7FAB64B187809F093FE062815D1B34B187909F08DFE06280BD101204A2106F0E7FF4FF419
:403D80002F700FF0E3FA0022AC4B1A7001E10120FEF7AEFDFDE00120FEF7AAFDF9E00120372106F0D3FFA64B5B78012B45D10022A44B1A600AE0A44A1344012093F82C10E6
:403DC00006F048FC9F4A1368013313609D4B1B68102BF0D901200A2106F03CFC01200A2106F038FC01200A2106F034FC01200A2106F030FC0022934B1A600AE0924A1344A8
:403E0000022093F82C1006F025FC8E4A1368013313608C4B1B68102BF0D902200A2106F019FC02200A2106F015FC02200A2106F011FC02200A2106F00DFC814B5B78022B16
:403E400045D100227F4B1A600AE07F4A1344032093F82C1006F0FEFB7A4A136801331360784B1B68102BF0D903200A2106F0F2FB03200A2106F0EEFB03200A2106F0EAFB2C
:403E800003200A2106F0E6FB00226E4B1A600AE06D4A1344042093F82C1006F0DBFB694A136801331360674B1B68102BF0D904200A2106F0CFFB04200A2106F0CBFB04208D
:403EC0000A2106F0C7FB04200A2106F0C3FB01206B2106F03BFF2522584B1A7059E0012006F0DCFB012849D133200EF0A9FC0120332106F015FC00284BD00022534B1A6032
:403F00000AE0012006F076FC514B1C4484F829004E4A1368013313604C4B1C68072CF0D900234C4A1370494A13600CE0494C484A1344207893F8291006F0F8FE2070434A8B
:403F4000136801331360414B1B68062BEED9404B93F830203F4B1B789A420BD101204B2106F0F4FE4FF47A700FF0F0F90022334B1A700EE00120FEF7BBFC0AE00120FEF76E
:403F8000B7FC06E00120002106F0E0FE00222B4B1A7064200FF0DAF90EF034FC38BD0EF007FC082842F0FD832B4B1B78DBB2AA2B40F04281284B9B79DBB2C32B40F03C8187
:403FC000254BDB79DBB23C2B40F03681234B1B78042B00F2CA80DFE813F0050045006B00C800A3001C4AD278D2B2012A0FD80133DAB21A4B1A70184CE17830310120C9B21D
:4040000006F0DAFEE3781B01154A82F8A130124BDB78DBB20A2B40F0A880104B1A780132D2B21A7000210E4B83F8A1100120302106F0C2FE99E000BF7083FF1F7A83FF1F67
:404040008C86FF1F8C83FF1F0C81FF1F5085FF1F9486FF1F3485FF1FD08AFF1F4D85FF1F3487FF1F9F4AD278D2B2092A11D80133DAB29D4B1A709B4CE17830310120C9B2B3
:4040800006F09AFEE178994A92F8A1300B4382F8A130944BDB78DBB20A2B66D1924B1A780132D2B21A700120302106F085FE5CE08C4AD278D2B2052A17D80133DAB28A4CE8
:4040C000227001203A2106F077FE22780132D2B22270844CE17830310120C9B206F06CFEE3781B01814A82F8A0307E4BDB78DBB20A2B3AD17C4C22780132D2B2227001209D
:404100003A2106F059FE22780132D2B222700120302106F051FE0022744B83F8A02024E0704AD278D2B2092A11D80133DAB26E4B1A706C4CE17830310120C9B206F03CFE38
:40414000E1786A4A92F8A0300B4382F8A030654BDB78DBB20A2B08D1634B1A780132D2B21A700120302106F027FE5E4BDB78DBB2402B17D15E4B1B783BB901205C4B187038
:404180007021062206F018FE07E00022584B1A7001206121062206F00FFE01206D21072206F00AFE4F4BDB78DBB20B2B1BD14E4B1A7882B90E224F4B1A704F4B1B78012BB1
:4041C00004D101205D2106F0C1FD0CE00120702106F0BCFD07E00120202106F0EDFD424A1378013B13703F4BDB78DBB20C2B23D13D4B1B78052B1FD13D4B1B7843F0020229
:404200003A4991F8A13043EA421381F8A13006F039F9012810D10E22364B1A70364B1B78012B03D15D2106F091FD05E0022B03D10120702106F08AFD64200FF087F80EF03D
:40424000E1FA38BD0EF0B4FA082842F0AA82254B1B78DBB2AA2B40F07381224B9B79DBB2C32B40F06D811F4BDB79DBB23C2B40F067811D4B1A78072A00F22381DFE812F03D
:4042800008003E00650021019E00C4002101FC00144BDB78DBB2032B0FD8124CE17830310120C9B206F088FD0F4A137801331370E3781B010D4A82F89D300A4BDB78DBB249
:4042C0000A2B40F0FE800022084B83F89D20064C01203021227806F06FFD237801332370EFE000BFD08AFF1F4D85FF1F3487FF1F7B83FF1F7A83FF1F2785FF1FAC4BDB78F2
:40430000DBB2092B11D8AA4CE17830310120C9B206F052FDE178A74A92F89D300B4382F89D30A54A137801331370A14BDB78DBB20A2B40F0C680A04C01203021227806F076
:404340003BFD237801332370BBE0994BDB78DBB2012B17D801202F2106F02EFD964C22780132D2B22270924DE97830310120C9B206F022FDEB781B018E4A82F89E30237846
:40438000013323708A4BDB78DBB20A2B40F09980894C01202F21227806F00EFD22780132D2B222700120302106F006FD0022814B83F89E2023780133237082E07C4BDB78CF
:4043C000DBB2092B11D87A4CE17830310120C9B206F0F2FCE178774A92F89E300B4382F89E30754A137801331370714BDB78DBB20A2B66D1704C01203021227806F0DCFC6C
:404400002378013323705CE0694BDB78DBB2092B17D801202F2106F0CFFC674C22780132D2B22270624DE97830310120C9B206F0C3FCEB781B015F4A82F89F30237801335D
:4044400023705B4BDB78DBB20A2B3AD15A4C01202F21227806F0B0FC22780132D2B222700120302106F0A8FC0022524B83F89F2023780133237024E04D4BDB78DBB2092B96
:4044800011D84B4CE17830310120C9B206F094FCE178484A92F89F300B4382F89F30464A137801331370424BDB78DBB20A2B08D1414C01203021227806F07EFC23780133A0
:4044C00023703B4BDB78DBB20B2B1BD13A4B1B7883B90E22394B1A70394B1B78012B04D101205D2106F032FC0CE00120702106F02DFC07E0013BDAB22F4B1A700120202162
:4045000006F05AFC2A4BDB78DBB20C2B18D12A4B1B78082B14D105F0E3FF012810D10E22264B1A70264B1B78012B03D15D2106F00DFC05E0022B03D10120702106F006FC7D
:4045400064200EF003FF0EF05DF938BD0EF030F9082842F02681164B1B78DBB2AA2B40F00A81134B9B79DBB2C32B40F00481104BDB79DBB23C2B40F0FE800F4B1B780C2B16
:404580006ED80B4AD278D2B2092A2BD80133DAB2094B1A700B4B1B7813B1012B14D01AE0034BD978034B13443031997713E000BFD08AFF1F3487FF1F4D85FF1F7A83FF1F44
:4045C0002785FF1F9785FF1FA04BD978A04B1344303183F82F109D4BD97830310120C9B207F012FA994BDB78DBB20A2B18D1994B1A780132D2B21A70974B1B7813B1012BE7
:4046000005D009E0924B13443021997704E0904B1344302183F82F100120302107F0F4F98A4BDB78DBB2512B1AD18A4B1B78BBB10133DAB2874B1A70874B1B7813B1012B4F
:4046400005D009E0824B13442E21997704E0804B13442E2183F82F1001202E2107F0D4F97A4BDB78DBB20B2B49D17A4B1A78002A3DD10E22794B1A70794B1B78012B04D15C
:4046800001205D2106F062FB03E00120702106F05DFB2F200C2105F093FF0022714B1A6008E0714AD15C6A4A1A4482F82F1001336C4A13606C4B1A786A4B1B689A42F0D2B3
:4046C00020200F2105F07CFF0022664B1A6007E0654AD15C5E4A1A4491770133614A1360614B1A785F4B1B689A42F1D207E00120202107F089F9574A1378013B1370534B15
:40470000DB78DBB20C2B36D10E22544B1A70544B1B78012B04D101205D2106F017FB03E00120702106F012FB4B4B1B7813B1012B11D020E0474B1B78454901F81E3F20204D
:4047400005F000FFB8B90120552106F0FFFA6422424B1A700FE03F4B1B783D4901F82F3F2F2005F0EFFE30B90120552106F0EEFA64223A4B1A7064200EF0E8FD0EF042F8F5
:4047800038BD0EF015F8082842F00B802F4B1B78DBB2AA2B40F0C2832C4B9B79DBB2C32B40F0BC83294BDB79DBB23C2B40F0B683284B1B78172B00F24D82244AD278D2B249
:4047C000092A7AD80133DAB2224B1A70224B1B78042B6BD8DFE803F0031427526400234B1978012904D1194BDB7830332048835400295BD1154BDB78303315498B5455E029
:404800001A4B1978012904D1104BDB7830331948835400294AD10D4BD9780D4B1344303183F8431042E0114B1978012904D1074BDB78303310488354002937D1034BD9785A
:40484000034B1344303183F861102FE0D08AFF1F3487FF1F4D85FF1F9785FF1F7A83FF1F2785FF1F8C83FF1F5485FF1F3488FF1F2885FF1F8083FF1FD488FF1F994B1978FE
:40488000012904D1984BDB7830339848835469B9954BD978964B1344303183F87F1005E0914BD978934B13443031D9728E4BD97830310120C9B207F0A7F88B4BDB78DBB24D
:4048C0000A2B2BD18C4B1A780132D2B21A708B4B1B78042B1ED8DFE803F003070D1319003021834B995415E0814B1344302183F843100FE07E4B1344302183F8611009E0DA
:404900007B4B1344302183F87F1003E0794B13443021D9720120302107F076F8724BDB78DBB2672B2BD1744B1A780132D2B21A70724B1B78042B1ED8DFE803F003070D1378
:40494000190023216A4B995415E0694B1344232183F843100FE0664B1344232183F8611009E0634B1344232183F87F1003E0614B13442321D9720120232107F045F85A4B10
:40498000DB78DBB26A2B2BD15B4B1A780132D2B21A705A4B1B78042B1ED8DFE803F003070D1319002D21524B995415E0504B13442D2183F843100FE04D4B13442D2183F831
:4049C000611009E04A4B13442D2183F87F1003E0484B13442D21D97201202D2107F014F8414BDB78DBB2662B2BD1434B1A780132D2B21A70414B1B78042B1ED8DFE803F0E9
:404A000003070D1319004021394B995415E0384B1344402183F843100FE0354B1344402183F8611009E0324B1344402183F87F1003E0304B13444021D9720120402106F04F
:404A4000E3FF294BDB78DBB2692B2BD12A4B1A780132D2B21A70294B1B78042B1ED8DFE803F003070D1319002E21214B995415E01F4B13442E2183F843100FE01C4B1344D7
:404A80002E2183F8611009E0194B13442E2183F87F1003E0174B13442E21D97201202E2106F0B2FF104BDB78DBB2682B5CD1124B1A780132D2B21A70104B1B78042B4FD802
:404AC000DFE803F003202E3C4A00064B1B78012B02D120200A498854002B41D12021044B99543DE03488FF1FD08AFF1F3885FF1F3487FF1F9486FF1F4D85FF1F9785FF1F94
:404B00002885FF1F9A4B1B78012B02D12020994988542BBB984B1344202183F843101FE0934B1B78012B02D1202094498854BBB9914B1344202183F8611011E08C4B1B786F
:404B4000012B02D120208E4988544BB98A4B1344202183F87F1003E08A4B13442021D9720120202106F050FF874BDB78DBB21A2B70D9854BDB78DBB2422B6BD80022834BF6
:404B80001A6063E0804AD278D2B281491944097A8A4257D17F490A780132D2B20A707E490978042948D8DFE801F00312223242006F490878012803D103F14101774CA1546C
:404BC000002839D103F141016B48815434E068490878012803D103F14101664CA15458BB6549114403F1410081F8430024E060490878012803D103F14101604CA154D8B90D
:404C00005D49114403F1410081F8610014E058490878012803D103F14101594CA15458B95549114403F1410081F87F0004E05549114403F14100C87203F141010120C9B23F
:404C400006F0E2FE514A1368013313604F4B1B68192B97D94C4BDB78DBB20B2B76D14D4B1A78002A6AD10E224D4B1A704D4B1B78012B04D101205D2106F068F803E00120D6
:404C8000702106F063F84020202105F099FC00223E4B1A6008E0444AD15C374A1A4482F843100133394A13603F4B1A78374B1B689A42F0D28020202105F082FC0022334B96
:404CC0001A6008E0384AD15C2B4A1A4482F8611001332E4A1360344B1A782C4B1B689A42F0D2A020202105F06BFC0022274B1A6008E02D4AD15C204A1A4482F87F10013321
:404D0000224A1360284B1A78204B1B689A42F0D20020202105F054FC00221C4B1A6006E0214AD15C144AD1540133184A13601E4B1A78164B1B689A42F2D207E00120202188
:404D400006F062FE134A1378013B13700E4BDB78DBB20C2B40F0E2800E22114B1A70114B1B78012B22D101205D2105F0EFFF21E03488FF1F8083FF1F3487FF1FD488FF1F3F
:404D80003885FF1F9486FF1FD08AFF1F8C83FF1F0C81FF1F4D85FF1F9785FF1F2885FF1F7A83FF1F2785FF1F5485FF1F0120702105F0CCFFA74B1B78042B00F2AF80DFE8B1
:404DC00003F0032C547CA200A34B1B78012B0DD1A24CA34B1B78237040F26A40A14905F0B1FB40F26A40214605F0ACFB9A4B1B78002B40F093809C49994B1B780B7000206F
:404E000005F0A0FB002840F089800120552105F09DFF6422954B1A7080E08F4B1B78012B0DD1934C8E4B1B78237040F275408D4905F088FB40F27540214605F083FB864BED
:404E40001B78002B6AD1864B1B78874901F8433F402005F077FB002860D10120552105F075FF6422814B1A7058E07B4B1B78012B0DD1804C7A4B1B7823704FF49060794947
:404E800005F060FB4FF49060214605F05BFB724B1B78002B42D1724B1B78734901F8613F802005F04FFB002838D10120552105F04DFF64226D4B1A7030E0674B1B78012B59
:404EC0000DD16D4C664B1B78237040F28B40654905F038FB40F28B40214605F033FB5E4B1B78DBB95E4B1B785F4901F87F3FA02005F028FB90B90120552105F027FF642226
:404F00005A4B1A700AE0564B1A785C4BDA720120392105F01BFF2422544B1A7064200EF015FA0DF06FFC38BD0DF042FC082841F03884534B1B78DBB2AA2B2AD1504B9B79B6
:404F4000DBB2C32B25D14E4BDB79DBB23C2B20D14B4BDB78DBB25F2B04D07E2B12D05E2B17D107E00422414B1A700120052105F0EDFE0EE001201D2105F0E8FE0B223B4BF9
:404F80001A7006E00120002105F0E0FE0022374B1A7046200EF0DAF90DF034FC38BD0DF007FC082841F0FD83354B1B78DBB2AA2B40F0E180324B9B79DBB2C32B40F0DB8067
:404FC0002F4BDB79DBB23C2B40F0D580244B1B78062B25D82A4AD278D2B2092A0FD80133DAB21F4B1A702648C178244B13443031D972C17830310120C9B205F0DDFE204BA0
:40500000DB78DBB20A2B0BD1154B1A780132D2B21A701A4B13443021D972012005F0CCFE174BDB78DBB20B2B3FD10D4B1A785ABB0E220E4B1A70134B1B78012B04D1012067
:405040005D2105F083FE30E00120702105F07EFE2BE000BF9785FF1F3488FF1F2885FF1F4D85FF1F4C81FF1F3487FF1F7A83FF1F8083FF1FD488FF1F3885FF1F9486FF1FE3
:40508000D08AFF1F2785FF1F0120202105F094FEA44B1B78A44A1A44D27A2C2A02D10021A24A1170013B9F4A1370A14BDB78DBB20C2B60D19B4B1B78032B5CD906229D4B2C
:4050C0001A700120392105F041FE964B1A78964BDA72994B18780CF0D1F9002848D0974B93F8A320964B1B789A4204D140F2B310944905F027FA914B93F8A320924B1B7886
:405100009A4204D140F2A7108E4905F01BFA8B4B93F8A3208D4B1B789A4204D140F2AD10884905F00FFA854B93F8A320884B1B789A4204D14FF47A70824905F003FA0120B6
:405140003C2105F003FE4FF4FA700EF0FFF80E22784B1A707F4B1B78012B04D101205D2105F0F4FD07E00120702105F0EFFD02E00120FDF7BDFB64200EF0E8F80DF042FB15
:4051800038BD0DF015FB082841F00B83684B1B78DBB2AA2B59D1664B9B79DBB2C32B54D1634BDB79DBB23C2B4FD1614BDB787E3B042B4AD8DFE803F0420327323A000120F5
:4051C000582105F0C3FD01200021732240F2C31306F018F801200021CF2240F2C51306F011F801200146292240F2C11306F00AF8012001467B2240F2EE3306F003F81C2228
:405200004C4B1A7021E00120062105F09FFD0022444B1A701D22474B1A7016E001206D2105F094FD1E22434B1A700EE001208A2105F08CFD2A223F4B1A7006E0012000219A
:4052400005F084FD00223B4B1A7064200EF07EF80DF0D8FA38BD0DF0ABFA082841F0A182334B1B78DBB2AA2B56D1314B9B79DBB2C32B51D12E4BDB79DBB23C2B4CD12C4B88
:40528000DB787E3B042B47D8DFE803F03F03122130000120062105F059FD0022214B1A700122264B83F8A3201F22224B1A7033E00120062105F04AFD00221A4B1A700222B4
:4052C0001E4B83F8A3201F221A4B1A7024E00120062105F03BFD0022124B1A700322174B83F8A3201F22134B1A7015E00120062105F02CFD00220B4B1A7004220F4B83F80F
:40530000A3201F220B4B1A7006E00120002105F01DFD0022074B1A7064200EF017F80DF071FA38BD4D85FF1F9486FF1F7B83FF1FD08AFF1F7A83FF1F7083FF1F3487FF1FA5
:40534000DF88FF1F9F86FF1F1E88FF1F4C85FF1F7C83FF1F2785FF1F0DF02AFA082841F02082A64B1B78DBB2AA2B40F0BE80A34B9B79DBB2C32B40F0B880A04BDB79DBB2A2
:405380003C2B40F0B2809E4B1B78042B36D89B4AD278D2B2092A0FD80133DAB2984B1A709648C178974B13443031D972C17830310120C9B205F000FD904BDB78DBB20A2B5D
:4053C0000BD18F4B1A780132D2B21A708D4B13443021D972012005F0EFFC884BDB78DBB2512B0BD1864B1A780132D2B21A70854B13442C21D972012005F0DEFC7F4BDB78DD
:40540000DBB20B2B24D17E4B1A7882B90E227E4B1A707E4B1B78012B04D101205D2105F095FC15E00120702105F090FC10E00120202105F0C1FC724B1B78724A1A44D27A37
:405440002C2A02D10021724A1170013B6C4A13706A4BDB78DBB20C2B47D1694B1B78052B43D1684B1B7B353BDBB2022B3DD80120392105F06BFC624B1B78624901F80B3F34
:405480004FF4DD7005F05EF8012805D15D4B1B7B03F00F035F4A137040F25A205E4905F051F8012821D1574A937B03F00F035B490B70137C03F00F03594A13703C2105F018
:4054C00045FC4FF4FA700DF041FF0E224E4B1A704E4B1B78012B04D101205D2105F036FC03E00120702105F031FC64200DF02EFF0DF088F938BD0DF05BF9082841F05181DF
:405500003E4B1B78DBB2AA2B71D13C4B9B79DBB2C32B6CD1394BDB79DBB23C2B67D1374BDB78DBB28F2B04D0902B2ED07E2B5ED156E03C49002381F82D3081F82E304FF405
:40554000DE702D3104F0FEFF01281AD10022364B1A703C2105F0FAFB4FF4FA700DF0F6FE2A4B1B78012B04D101205D2105F0EEFB03E00120702105F0E9FB0E22224B1A704D
:4055800035E00120FDF7B4F931E02649012381F82D3081F82E304FF4DE702D3104F0D2FF012819D1204B18703C2105F0CFFB4FF4FA700DF0CBFE154B1B78012B04D1012065
:4055C0005D2105F0C3FB03E00120702105F0BEFB0E220D4B1A700AE00220FDF789F906E00120702105F0B2FB0E22074B1A7064200DF0ACFE0DF006F938BD00BFD08AFF1F0A
:405600004D85FF1F9486FF1F7A83FF1F2785FF1F7B83FF1F3385FF1F9F86FF1F7D83FF1F1F88FF1F3487FF1FA285FF1F0DF0C0F8082841F0B680A64B1B78DBB2AA2B40F0C5
:40564000B380A34B9B79DBB2C32B40F0AD80A04BDB79DBB23C2B40F0A7809E4B1B782BBB9B4AD278D2B2092A0FD80133DAB2994B1A709748C178984B13443031D972C178FF
:4056800030310120C9B205F097FB914BDB78DBB20A2B0BD18F4B1A780132D2B21A708E4B13443021D972012005F086FB884BDB78DBB20B2B1BD1874B1A783AB9012000211B
:4056C00005F044FB0022854B1A7010E00120202105F072FB7F4B1B787F4A1A44D27A2C2A02D100217E4A1170013B7A4A1370784BDB78DBB20C2B57D1764B1B78012B53D1BA
:405700000120392105F022FB724B1A78724BDA72744B93F8A330012B08D16F490A7B724B1A7040F2C1100B3104F00CFF6D4B93F8A330022B08D168490A7B6C4B1A7040F2DB
:40574000C3100B3104F0FEFE664B93F8A330032B08D161490A7B664B1A7040F2C5100B3104F0F0FE5F4B93F8A330042B08D15A490A7B604B1A7040F2EE300B3104F0E2FEB8
:405780004FF4FA700DF0E2FD0E22544B1A705A4B1B78012B04D101205D2105F0D7FA03E00120702105F0D2FA64200DF0CFFD0DF029F838BD0CF0FCFF082840F0F287444B54
:4057C0001B78DBB2AA2B40F0B682414B9B79DBB2C32B40F0B0823E4BDB79DBB23C2B40F0AA823B4BDB787E3B252B00F2A482DFE813F08102A202A202A202A202A202260001
:4058000017014A003A018700AB00F300CF00A202A202A202A202A202A202A202A2025F02A202A2023C025E018201A202A202A202A202A202A202A601CA01EE0119022F4922
:4058400001230B7000234B7040F2C71004F07AFE012840F070823C2105F078FA4FF4FA700DF074FD0E221D4B1A70234B1B78012B04D101205D2105F069FA5CE20120702101
:4058800005F064FA57E21D4901230B700B234B7040F2C71004F056FE012840F04C823C2105F054FA4FF4FA700DF050FD0E220B4B1A70114B1B78012B04D101205D2105F0CB
:4058C00045FA38E20120702105F040FA33E200BFD08AFF1F4D85FF1F9486FF1F7A83FF1F7B83FF1F3487FF1F1E88FF1FDF88FF1F4C85FF1F7C83FF1F2785FF1F4885FF1FE0
:40590000C54901230B7004234B7040F2C71004F019FE012840F00F823C2105F017FA4FF4FA700DF013FD0E22BC4B1A70BC4B1B78012B04D101205D2105F008FAFBE10120CE
:40594000702105F003FAF6E1B34901230B700C234B7040F2C71004F0F5FD012840F0EB813C2105F0F3F94FF4FA700DF0EFFC0E22AA4B1A70AA4B1B78012B04D101205D21EA
:4059800005F0E4F9D7E10120702105F0DFF9D2E1A14901230B7009234B7040F2C71004F0D1FD012840F0C7813C2105F0CFF94FF4FA700DF0CBFC0E22984B1A70984B1B78B1
:4059C000012B04D101205D2105F0C0F9B3E10120702105F0BBF9AEE18F4901230B7008234B7040F2C71004F0ADFD012840F0A3813C2105F0ABF94FF4FA700DF0A7FC0E22E7
:405A0000864B1A70864B1B78012B04D101205D2105F09CF98FE10120702105F097F98AE17D4901230B704B7040F2C71004F08AFD012840F080813C2105F088F94FF4FA70ED
:405A40000DF084FC0E22754B1A70754B1B78012B04D101205D2105F079F96CE10120702105F074F967E16C4901230B7006234B7040F2C71004F066FD012840F05C813C2101
:405A800005F064F94FF4FA700DF060FC0E22634B1A70634B1B78012B04D101205D2105F055F948E10120702105F050F943E15A4901230B700E234B7040F2C71004F042FD5B
:405AC000012840F038813C2105F040F94FF4FA700DF03CFC0E22514B1A70514B1B78012B04D101205D2105F031F924E10120702105F02CF91FE1484901230B700D234B70F7
:405B000040F2C71004F01EFD012840F014813C2105F01CF94FF4FA700DF018FC0E223F4B1A703F4B1B78012B04D101205D2105F00DF900E10120702105F008F9FBE036495B
:405B400001230B7003234B7040F2C71004F0FAFC012840F0F0803C2105F0F8F84FF4FA700DF0F4FB0E222D4B1A702D4B1B78012B04D101205D2105F0E9F8DCE001207021ED
:405B800005F0E4F8D7E0244901230B7005234B7040F2C71004F0D6FC012840F0CC803C2105F0D4F84FF4FA700DF0D0FB0E221B4B1A701B4B1B78012B04D101205D2105F0B9
:405BC000C5F8B8E00120702105F0C0F8B3E0124901230B7007234B7040F2C71004F0B2FC012840F0A8803C2105F0B0F84FF4FA700DF0ACFB0E22094B1A70094B1B78012BE7
:405C000004D101205D2105F0A1F894E00120702105F09CF88FE000BF4885FF1F7A83FF1F2785FF1FB04901230B700A234B7040F2C71004F087FC01287DD13C2105F086F86E
:405C40004FF4FA700DF082FB0E22A84B1A70A84B1B78012B04D101205D2105F077F86AE00120702105F072F865E09F4901230B7002234B7040F2C71004F064FC01285AD10E
:405C80003C2105F063F84FF4FA700DF05FFB0E22964B1A70964B1B78012B04D101205D2105F054F847E00120702105F04FF842E08D4900230B704B7040F2C71004F042FCA2
:405CC000012838D13C2105F041F84FF4FA700DF03DFB0E22854B1A70854B1B78012B04D101205D2105F032F825E00120702105F02DF820E07C4900230B704B7040F2C71061
:405D000004F020FC01280FD10E22784B1A70784B1B78012B03D15D2105F018F80BE00120702105F013F806E00120002105F00EF800226E4B1A7064200DF008FB0CF062FDF0
:405D400038BD0CF035FD08284ED16A4B1B78DBB2AA2B44D1674B9B79DBB2C32B3FD1654BDB79DBB23C2B3AD1624BDB78DBB20A2B29D10122604B1A6010E0604B5878604B84
:405D8000197801225F4B1B7806F088FA4FF4FA700DF0DCFA584A1368013313605A4B1B7803F00F03544A12689342E6D201200C2104F0CCFF55480CF045FF0CF015FF6422D4
:405DC0004A4B1A700BE001200C2104F0BFFF6422464B1A704D480CF035FF0CF005FF64200DF0B4FA0CF00EFD494B1B78132B40F2D88401200C2104F0A9FF64223B4B1A708A
:405E00000022434B1A7038BD0CF0D2FC082840F0C884384B1B78DBB2AA2B5ED1354B9B79DBB2C32B59D1334BDB79DBB23C2B54D1304BDB78DBB2392B0FD002D8382B05D042
:405E40004BE07E2B42D0942B35D046E00021274B1970012004F07AFF3FE0244D00232B7001203B2104F072FF244C607807F022FA60780A2104F0EEFB60780A2104F0EAFB61
:405E800060780A2104F0E6FB60781D2104F0E2FB6078562104F0DEFB6078312104F0DAFB64232B7001221A4B1A7018480CF0CAFE0CF09AFE11E001202F2104F047FF00226A
:405EC000144B1A702822094B1A7006E00120002104F03CFF0022054B1A7064200DF036FA0CF090FC38BD00BF4885FF1F7A83FF1F2785FF1FD08AFF1F5085FF1F9086FF1FE2
:405F00003588FF1F7083FF1FD088FF1F752200009685FF1F4D85FF1F0CF04AFC082840F04084B24B1B78DBB2AA2B3CD1AF4B9B79DBB2C32B37D1AD4BDB79DBB23C2B32D106
:405F4000AA4BDB78DBB2912B04D0922B13D07E2B29D121E001200A2104F0F8FE0122A44B1A700422A34B1A700022A34B1A701822A24B1A7017E001206F2104F0E7FE2122F9
:405F80009B4B1A7004229B4B1A7000229A4B1A7018229A4B1A7006E00120002104F0D6FE0022964B1A7064200DF0D0F90CF02AFC38BD934B012013F80B1F8D4A127804F03A
:405FC0002FFD012820D16E2104F0C0FE23228B4B1A700120014604F049FC052810D90A200DF0B4F9012005F08BFC0120212104F03DFC052840F2D583012005F0FFFB38BD01
:406000000120FCF775FC38BD0120FCF771FC38BD0CF0CEFB082840F0C483744B1B78DBB2AA2B77D1714B9B79DBB2C32B72D16F4BDB79DBB23C2B6DD16C4BDB78DBB2392B3F
:4060400004D07E2B47D0382B64D13CE06D4B5A78012A07D16C4901230B704B706B490B7002234B70022A08D1674B01221A7003215970664B1A7004225A7040F26320624951
:4060800004F060FA012845D140F265205F4904F059FA01283ED1682104F058FE4FF4FA700DF054F90E22554B1A70594B1B78012B04D101205D2104F049FE2BE00120702182
:4060C00004F044FE26E026224C4B1A700120672104F03CFE1EE04F4B5B78012B03D100224C4B5A7002E001224A4B5A7040F2DA30484904F027FA01203C2104F027FE4FF416
:40610000FA700DF023F90120002104F01FFE00223A4B1A7064200DF019F90CF073FB38BD0CF046FB082840F03C83304B1B78DBB2AA2B40F0E0802D4B9B79DBB2C32B40F0D3
:40614000DA802A4BDB79DBB23C2B40F0D480274BDB78DBB28C2B0AD003D87E2B00F0C480C9E08D2B58D08E2B00F09180C3E0254B5B78012B07D1244A0120107002215170C9
:40618000224A10705170022B07D11F4B0121197004225A701D4B19705A7040F263201A4904F0D0F9012840F0A68040F26520174904F0C8F9012840F09E806A2104F0C6FD94
:4061C0004FF4FA700DF0C2F80E220C4B1A70104B1B78012B04D101205D2104F0B7FD8AE00120702104F0B2FD85E000BFD08AFF1F9885FF1F9785FF1F4D85FF1F7A83FF1F19
:406200009486FF1F8C86FF1F9086FF1F3087FF1F2785FF1F7883FF1FAE4B5A78012A06D1AD4901230B704B70AC490B704B70022A07D1A94B0121197003225A70A74B1970B5
:406240005A7040F26320A44904F07CF9012852D140F26520A14904F075F901284BD1692104F074FD4FF4FA700DF070F89C4B1B78012B04D101205D2104F068FD03E001203D
:40628000702104F063FD0E22964B1A7033E092490120087000224A70904B18705A7040F2632004F04FF9012825D140F265208B4904F048F901281ED16C2104F047FD4FF4DE
:4062C000FA700DF043F80E22864B1A70844B1B78012B04D101205D2104F038FD0BE00120702104F033FD06E00120002104F02EFD00227C4B1A7064200DF028F80CF082FAB2
:4063000038BD0CF055FA082840F04B82764B1B78DBB2AA2B40F0D780734B9B79DBB2C32B40F0D180704BDB79DBB23C2B40F0CB806E4B1A78032A26D86B4BDB78DBB2092B27
:406340000ED8694BD9786A4B1344303183F88E1001202A2104F030FD644A137801331370614BDB78DBB20A2B0DD1604C2278604B1344302183F88E1001202A2104F01CFD65
:40638000237801332370584BDB78DBB20B2B0ED1564B1B781BB90120FCF7AAFA07E0013BDAB2524B1A700120202104F005FD4E4BDB78DBB20C2B40F086804C4B1A78002ABC
:4063C00072D000234B490B604B490B6012E0591C4A48405C464C234493F88E30984204D1444803680133036002E00020414B1860414B19601046404B1B689A42E7D83F4B92
:406400001A783C4B1B689A420FD10120262104F09DFC4FF4FA700CF099FF2222314B1A700120712104F092FC4DE00023314A1360314A136010E0314A1A4492F824102C4A26
:406440001A4492F88E20914203D12A490A6801320A600133284A1360274B1B689842EAD8244B1B68042B0FD10120262104F06EFC4FF4FA700CF06AFF22221A4B1A70012086
:40648000712104F063FC1EE00120272104F05EFC6422144B1A700122194B1A7019480CF0D1FB0CF0A1FB0EE00120272104F04EFC64220C4B1A700122114B1A7011480CF0A7
:4064C000C1FB0CF091FB64200CF040FF0CF09AF938BD00BF8C86FF1F9086FF1F3087FF1F2785FF1F7A83FF1FD08AFF1F4D85FF1F9486FF1FA485FF1F8C83FF1F0C81FF1F79
:406500009685FF1F752200000CF052F9082840F04881A44B1B78DBB2AA2B7AD1A14B9B79DBB2C32B75D19F4BDB79DBB23C2B70D19D4B1A78032A27D89A4BDB78DBB2092B19
:4065400010D89848C178994B1344303183F88E10C17830310120C9B204F02EFC924A1378013313708F4BDB78DBB20A2B0CD18E4C22788E4B1344302183F88E10012004F004
:406580001BFC237801332370864BDB78DBB20B2B0ED1854B1B781BB90120FCF7A9F907E0013BDAB2804B1A700120202104F004FC7C4BDB78DBB20C2B2BD17B4B1B78042BF3
:4065C00027D10120392104F0C1FB0023784A1370754A127877490A7077490B6008E0591C7248034493F88E00724B5854724B1960714B1B689A42F2D840F29F206D4903F0CD
:40660000A1FF30B90120552104F0A0FB6422684B1A7064200CF09AFE0CF0F4F838BD0CF0C7F8082840F0BD805E4B1B78DBB2AA2B4FD15C4B9B79DBB2C32B4AD1594BDB7994
:40664000DBB23C2B45D1574BDB78DBB2BC2B08D002D87E2B36D03CE0BD2B12D0BE2B21D037E00120702104F071FB544901230B704B704FF47D7003F065FF0E224C4B1A708E
:4066800027E00120702104F061FB4C4901230B7002234B704FF47D7003F054FF0E22444B1A7016E00120062104F050FB0122444B1A7000233C4A1370424A137005223C4B5C
:4066C0001A7006E00120702104F040FB0E22384B1A7064200CF03AFE0CF094F838BD0CF067F808285DD12F4B1B78DBB2AA2B58D12C4B9B79DBB2C32B53D12A4BDB79DBB206
:406700003C2B4ED1274BDB78DBB2772B39D002D8762B05D038BD822B12D0832B20D038BD0120302104F012FB0023274A13701E4A13700122254B1A7018221D4B1A7038BDBC
:406740000120302104F002FB01231F4A13700021154A11701D4A13701822154B1A7038BD0120302104F0F2FA0222174B1A7000220D4B1A700122154B1A7018220C4B1A7014
:4067800038BD0120302104F0E1FA03220E4B1A700022054B1A7001220C4B1A701822044B1A7038BDD08AFF1F4D85FF1F9486FF1F7A83FF1F0C81FF1F8C83FF1F8C86FF1FD0
:4067C0008F86FF1F7B83FF1F9785FF1F3488FF1F38B5984B1B78642B03F2D185DFE813F074008000CF1DA100000188013B02D9020903480333048504F2047405A705840650
:40680000A207F10798083109B0091B0B700CF50D100FFE11391210138D13F413C4146315401601197A19E919361A661A0A1BE61BE61C711DCF1DCF1DCF1DCF1DCF1DCF1DDA
:40684000CF1DCF1DCF1DCF1DCF1DCF1DCF1DCF1DCF1DCF1DCF1DCF1DCF1DCF1DCF1DCF1DCF1DCF1DCF1DCF1DCF1DCF1DCF1DCF1DCF1DCF1DCF1DCF1DCF1DCF1DCF1DCF1D98
:40688000CF1DCF1DCF1DCF1DCF1DCF1DCF1DCF1DCF1DCF1DCF1DCF1DCF1DCF1DCF1DCF1DCF1DCF1DCF1DCF1D6500634B1B78012B43F2658500245F4B1C700CF08BFA0CF0A0
:4068C000EDF95D4B1C7038BD5C480CF075FA0CF045FA0022584B1A700122564B1A7038BD0CF054F8082843F04A850CF079F80CF071FA0CF0D3F9524B1B78022B04D1022043
:40690000632104F023FA03E00220452104F01EFA64200CF01BFD0CF063F80322454B1A7038BD0CF033F8082843F02985454B1B78DBB2AA2B4ED1434B9B79DBB2C32B49D115
:40694000404BDB79DBB23C2B44D13E4BDB78DBB2592B2DD002D8452B1FD03BE05C2B02D07E2B30D036E00022374BDA70344B1B78012B06D10220052104F0E8F904222D4B1B
:406980001A702F4B1B78022B24D10220492104F0DDF91922274B1A701CE00220252104F0D5F90022294B1A700F22224B1A7011E00220252104F0CAF90022244B1A702722AF
:4069C0001C4B1A7006E00220002104F0BFF90022184B1A7064200CF0B9FC0CF001F838BD0BF0D4FF082843F0CA84164B1B78DBB2AA2B77D1134B9B79DBB2C32B72D1114BFA
:406A0000DB79DBB23C2B6DD10F4AD37823F00303D3700C4BDB78DBB23B2B4BD004D80F2B16D0102B28D05DE0432B3BD07E2B52D058E000BF4B85FF1F2585FF1FBD220000DC
:406A40002785FF1FE48AFF1F3888FF1F2D87FF1F0220062104F07AF90022A74B1A700220242104F0A9F9A54AD37843F00203D3700522A34B1A7035E002200D2104F066F9B9
:406A800000229D4B1A709F4B1A700220472104F093F99A4AD37843F00103D3700522984B1A701FE00220072104F050F90622944B1A7017E0944B1B78022B04D1022063215F
:406AC00004F044F903E00220452104F03FF903228B4B1A7006E00220002104F037F90022874B1A7064200CF031FC0BF079FF38BD0BF04CFF082843F04284844B1B78DBB20B
:406B0000AA2B40F0A280814B9B79DBB2C32B40F09C807E4BDB79DBB23C2B40F09680764B1B787B4A1278013A93423EDC774AD278D2B2092A0FD80133DAB26F4B1A707348FB
:406B4000C1786E4B13443031D972C17830310220C9B204F031F96D4BDB78DBB20A2B0BD1654B1A780132D2B21A70644B13443021D972022004F020F9644BDB78DBB2512BC3
:406B800013D15D4B1B7883B15E4A12786AB90133DAB2594B1A70594B13442C21D972022004F00AF90122574B1A70584BDB78DBB20B2B1BD1504B1A783AB90220052104F043
:406BC000C5F804224E4B1A7010E00220202104F0F3F8494B1B78494A1A44D27A2C2A02D10021484A1170013B434A1370474BDB78DBB20C2B29D1404B1B786BB1454B1B7850
:406C000053B90220072104F0A1F83B4B1A783B4BDA7206223A4B1A70374B1B78ABB13D4B1B78012B11D10220702104F08FF8334B1B7B39490B7040F28D4003F083FC0022E4
:406C4000344B1A700E222E4B1A7064200CF07EFB0BF0C6FE38BD64200CF078FB0BF096FE082820D1294B1B78DBB2AA2B15D1274B9B79DBB2C32B10D1244BDB79DBB23C2BA0
:406C80000BD1224BDB78DBB27E2B06D10220002104F05CF800221A4B1A7064200CF056FB0BF09EFE38BD1D4B187906F0EFFE072843F0658332200CF049FB184B187906F090
:406CC000F9FE174B187032200CF040FB0B4BDB7813F0030328D0114A1079114A1178114A0AF08AF900BB0220002104F02FF80022034B1A7038BD00BF2D87FF1F3888FF1F69
:406D00004B85FF1F4E85FF1F2785FF1FE48AFF1F3385FF1F8F86FF1FD088FF1F7083FF1F9286FF1F4388FF1F01200CF0B7FA9D4B187906F0BFFE9C4B1870002803F01F8349
:406D40009A4B1B7803F00F03834211D0984B1B7803F00F0398420BD0964B1B7803F00F03984205D0944B1B7803F00F03984202D102200AF0C1FD8B4B187940F010000BF0F8
:406D8000A9F80220082103F0E1FF07228B4B1A7038BD32200CF0DAFA824B187906F076FE0A2813D00B2803D0062843F0E88218E064200CF0CBFA7B4B187906F0EFFE012826
:406DC00043F0DD8208227D4B1A7038BD754B187906F0E4FE012843F0D2820822774B1A7038BD0220002103F0B1FF0022734B1A7038BD734B1B78012B02D0022B10D038BDB6
:406E000002200B2103F0A2FF6E480BF0D5FF0BF0A5FF00226C4B1A700A22684B1A7038BD6A4BDB7813F0040F0FD102200B2103F08DFF64480BF0C0FF0BF090FF0022624B01
:406E40001A700A225D4B1A7038BD02200B2103F07DFF00245D4B83F883405A480BF0ACFF0BF07CFF584B1C700A22544B1A7038BD0BF08CFD082840F0D180554B1B78DBB242
:406E8000AA2B40F0C680524B9B79DBB2C32B40F0C0804F4BDB79DBB23C2B40F0BA800022494B1A704B4B1B78062B65D8484AD278D2B2092A10D80133DAB2464B1A704448E6
:406EC000C178424B1344303183F86510C17830310220C9B203F070FF3D4BDB78DBB20A2B0CD13C4B1A780132D2B21A70374B1344302183F86510022003F05EFF344BDB7859
:406F0000DBB26A2B0CD1334B1A780132D2B21A702E4B13442D2183F86510022003F04CFF2B4BDB78DBB21A2B26D9294BDB78DBB2422B21D80022284B1A6019E0244AD2787F
:406F4000D2B226491944097A8A420DD121490A780132D2B20A704133D9B21C4B134483F86510022003F028FF1B4A136801331360194B1B68192BE1D9154BDB78DBB20B2BAC
:406F800036D1144B1A785ABB02200B2103F0DEFE0E4B002283F8652083F883200A22074B1A7025E07083FF1F9286FF1F1E88FF1FDF88FF1F4C85FF1F7C83FF1F4B85FF1F77
:406FC0002785FF1FBD2200002585FF1F3888FF1FE48AFF1F2D87FF1F8C83FF1F0C81FF1F0220202103F0E8FEB04A1378013B1370AF4BDB78DBB20C2B0BD1AC4B1A7842B123
:40700000AC4B83F86520012283F883200D22AA4B1A7064200CF09AF90BF0E2FCA74B1B781D2B43F2AC8102200B2103F08FFEA14A002382F8653082F88330A04A13700A229E
:407040009D4B1A7038BD0BF0A1FC08283DD1984B1B78DBB2AA2B33D1954B9B79DBB2C32B2ED1934BDB79DBB23C2B29D1904BDB78DBB2382B15D0392B22D100228B4B1A708D
:407080008C4BDB7813F0040F07D102200A2103F05DFE0922884B1A7012E00D22864B1A700EE002200C2103F051FE0122834B1A7083480BF081FE0BF051FE64227E4B1A70B7
:4070C00064200CF043F90BF08BFC7C4B1B781D2B43F2558102200C2103F038FE0122774B1A706422744B1A7038BD0220012103F0BDFB052840D90A200CF028F9022021211A
:4071000003F0B4FB052837D9022003F0C7FA012832D133200BF082FC0220332103F000FB50B30022674B1A600AE0022003F062FB604B1C4484F82900624A13680133136013
:40714000604B1C68072CF0D90220132103F0FEFD584CE37843F00403E3704FF4FA700CF0F5F802200E2103F0F1FD00234F4A137023710C22504B1A700BF008FC082843F0C4
:40718000FE804B4B1B78DBB2AA2B15D1484B9B79DBB2C32B10D1464BDB79DBB23C2B0BD1434BDB78DBB23B2B06D10220632103F0CDFD0322404B1A7064200CF0C7F80BF0A6
:4071C0000FFC38BD0BF0E2FB082843F0D880384B1B78DBB2AA2B62D1354B9B79DBB2C32B5DD1334BDB79DBB23C2B58D12F4B1B78052B25D82E4AD278D2B2092A0FD8013357
:40720000DAB22A4B1A702A48C1782A4B134430311971C17830310220C9B203F0CDFD244BDB78DBB20A2B0BD1204B1A780132D2B21A70204B134430211971022003F0BCFD64
