:4000000000800020110000009D0000009D00000080B500AF064B064A126842F020021A60044B054A12681A6000F004FB00F03AF8E8460040BC760040FA46004010B5054CEF
:40004000237833B9044B13B10448AFF300800123237010BD2881FF1F00000000901D000008B5064B1BB106480649AFF300800648036813B1054B03B1984708BD00000000C2
:40008000901D00002C81FF1F0881FF1F0000000080B500AF00F078FAFEE700BF80B400AFFEE700BF80B586B000AF224B7B61224B3B61204B7B6135E03B691B68FB603B69C2
:4000C0005B68BB603B699B683B6000237B600CE0FB681A68BB681A60BB680433BB60FB680433FB607B6804337B607A683B689A42EED13B69DB683B6000237B6008E0BB686A
:4001000000221A60BB680433BB607B6804337B607A683B689A42F2D13B6910333B617B69013B7B617B69002BC6D101F0F5FDFFF7AFFFFEE701000000A021000080B582B0DB
:4001400000AF174B174A1A60174B174A126842F400721A6000237B600FE07B68032B04D8124B7A6853F8223000E0114B114A796842F821307B6801337B607B682F2BECD987
:400180000D4B1B78DAB20D4B1A700D4B094A1A6000F026F90B4B00221A600837BD4680BD0CED00E00004FA0514ED00E0000000009D0000000080FF1FBC7600400481FF1F34
:4001C00008ED00E00081FF1F80B582B000AF78603960786800213A6801F0CDFD0837BD4680BD00BF80B584B000AFF860B9607A60F868B9687A6801F0B5FD1037BD4680BD78
:4002000080B584B000AFF860B9607A60F868B9687A6801F0A7FD1037BD4680BD80B483B000AF0346FB71FEE780B487B000AF7860396000233B6100237B6126E07B699B005E
:400240007A6813441B68BB60BB68FB73BB6823F0FF03BB6013E03B695B003A6813441B781A46BB6813443A69520039680A4452781A703B6901333B61FB7B013BFB73FB7B29
:40028000002BE8D17B6901337B617B69102BD5D91C37BD465DF8047B704700BF80B582B000AF304B19221A802F4B18221A702F4B02221A704FF0402308221A702C4B03223B
:4002C0001A702C4B2C4A1278D2B21A702B4B08221A802B4B41F251221A800023FB7019237B6014E0FB785B00DAB2264B1B78DBB203F00103DBB21343DBB203F00303FB70B0
:400300004FF4F07000F00CFF7B68013B7B607B68002B02D0FB78032BE4D17B68002B02D10320FFF77BFF184B4FF480721A80164B07221A70154B00221A70154B48221A70D5
:40034000114B00221A70134B02221A70124B124A1278D2B242F00102D2B21A700837BD4680BD00BF80400040824000400043004000420040A14600400801004922420040FD
:40038000204200402542004004400040064000400840004001400040A243004080B483B000AF0B4B1B78FB710A4BFA7902F00702D2B21A70084BFA791209D2B21A70074B3F
:4003C00044221A700C37BD465DF8047B704700BFCF0100496E5800406F5800407658004080B582B000AF72B6334B334A1278D2B242F02402D2B21A700023FB7113E0FA79A7
:4004000013465B0013445B002C4A13443B603B681A683B689B889BB210461946FFF7D4FEFB790133FB71FB79072BE8D924482549FFF7FAFE244B244A1278D2B242F00202D5
:40044000D2B21A70214B214A1278D2B242F00202D2B21A701E4B1E4A1278D2B242F04002D2B21A701B4B1B4A1278D2B242F01002D2B21A70184819490A22FFF7C1FE184BB3
:40048000174A1278D2B242F00802D2B21A70154B01221A70FFF702FF124B81221A70124B01221A70FFF77AFF104809490E22FFF799FE0837BD4680BDE8460040941D000077
:4004C000C41D0000081E00000350014013500140A0430040C24300406051004068210000224300400048004004000840B043004080B485B000AF78600B467B800023FB8154
:400500000BE07B88013B7A6813441B781A46FB891344FB817B88013B7B807B88002BF0D1FB895B429BB218461437BD465DF8047B704700BF80B586B000AFF860B9607A601C
:400540000023FB75FA680F4B9A4206D0FB68002B03D0002000F070FF0CE00BE07B68013B7B60FA68BB681A447B6813441A78FB7D1344FB757B68002BF0D1FB7D18461837E7
:40058000BD4680BD0080004080B582B000AF06237B60002000F06EF80346002B01D100237B601C4B1B681B68002000211A46FFF7C1FF0346FB70184B1B681B78FA78D31A17
:4005C000FB70FB785B42FB70134B1B681B78FA789A4204D10F4B1B681B68002B02D1002000F02AFF0D4B1B78DBB203F0C003402B02D07B68002B05D0084B00221A7000207A
:4006000000F0AEF8322000F0ABF800F009F80837BD4680BD1081FF1F0C81FF1FFA46004080B500AF024B80221A7000F011FF80BDFA46004080B500AF0C4B1B78DBB203F08D
:40064000C003802B11D1094B00221A700220002100F0DCFB0346002B07D00220002100F0D5FB0346184600F003F880BDFA460040004700BF90B587B000AF0346FB71FB7929
:400680000320194600F0C2FB034601331C02FB790420194600F0BAFB03462344FB600023FB740023BB74FB790320194600F0AEFB034601331B027B6111E07B691B78FB720B
:4006C000FB7A002B04D0FB7AFF2B01D00123FB74BA7CFB7A1344BB747B6901337B617A69FB689A42E9D3FB790320194600F08EFB034601331B02DB087B61FA68174B9A4218
:4007000002D0FB68DB0801E04FF40043FB600AE07B6903F190431B78DAB2BB7C1344BB747B6901337B617A69FB689A42F0D3BB7C5B42BB74BC7CFB790120194600F066FB15
:4007400003469C4202D1FB7C002B01D1062300E0002318461C37BD4690BD00BFC0FF030080B5ADF5247D00AF0246FB1D1A700023A7F88A320023A7F888320A2387F88732ED
:40078000002387F8863200F055FD0346002B02D0002000F051FE00F01BFC62B6002387F88D32FB1D1B78002B02D0FB1D1B7800E0FF2307F59E7107F26A2208464FF49671FB
:4007C00000F034FCC7F87802FB1D1B78002B04D097F88732013B87F8873297F88732002B03D0D7F87832002BDBD1D7F87832002B00D0B0E2B7F86A32062B04D907F59E7338
:400800001B78012B03D0042387F88D3244E007F59E73DB781B029AB207F59E739B781343A7F88A32B7F88A32053307F59E72D35C1B029AB2B7F88A32043307F59E71CB5CE8
:400840001343A7F87632B7F88A32DA1DB7F86A329A4203D9032387F88D321DE0B7F88A32063307F59E72D35C172B03D0042387F88D3211E0B7F88A3204339BB207F59E72D0
:4008800010461946FFF734FE0346B7F876229A4202D0082387F88D320023A7F88E3297F88D32002B40F04C8207F59E731B7987F87532042387F88D3207F59E735B78313B43
:4008C0000A2B00F2398201A252F823F0F908000033090000390D0000CD0900003F0B0000390D0000510B0000A70B0000CD090000EB0B0000210D000097F88632012B17D1CA
:40090000B7F88A32002B13D10020FFF7B3FE0346002B14BF00230123DBB21A4607F59E731A710123A7F88E32002387F88D3207E206E297F88632012B47D1B7F88A32012B8C
:4009400043D197F87532032B3FD8D14B1B681B681B0C87F8743297F8752297F874329A4208D1CB4B1B681B681B0A9BB2DBB2A7F884320DE097F8752297F874329A4203D9FA
:400980000023A7F8843203E04FF48073A7F88432B7F88432DAB207F59E731A71B7F884321B0A9BB2DAB207F59E735A7107F59E73FF229A7107F59E730022DA710423A7F814
:4009C0008E32002387F88D32BAE1B9E107F59E735B78342B23D197F88632012B40F0B081B7F88A32032B40F0AB8197F875323F2B08D997F875325BB2002B03DB1023A7F806
:400A0000883203E04FF49073A7F88832B7F8883207F11002104600211A4601F0ACF997F88632012B40F08A80B7F88A32022B40F28580B7F8883207F11002D118B7F88A3257
:400A4000033B07F59E720732084611461A4601F089F9B7F88822B7F88A3213449BB2033BA7F8883297F875323F2B0AD997F875325BB2002B05DB00F099FC1023A7F88A3298
:400A800003E04FF49073A7F88A32B7F88822B7F88A329A424BD107F59E739B791B029AB207F59E735B791343A7F8883297F875323F2B27D897F875329BB21B029AB2B7F8A2
:400AC00088321344A7F87232714B1B681B681B0AA7F882326E4B1B681B68DBB2002B04D0B7F882320133A7F88232B7F87222B7F882329A4206D20A2387F88D320023A7F8AC
:400B000088321DE197F87502B7F8881207F11002B7F88A3200F0A0FB0346002B01D00A2300E0002387F88D3200F0D6FC02E0032387F88D320023A7F8883201E100E197F825
:400B40008632012B03D10023A7F8883203E1F7E097F88632012B25D1B7F88822B7F88A321344B3F5967F19D8002387F88D32B7F8883207F11002D118B7F88A3207F59E7220
:400B80000432084611461A4601F0ECF8B7F88822B7F88A321344A7F8883203E0032387F88D32CDE0CCE0B7F88A32002B1CD107F10803384A92E8030083E80300012387F87B
:400BC00086320823A7F88E32B7F88E3207F59E72111D07F10802084611461A4601F0C2F8002387F88D32ABE0AAE097F88632012B40F09580B7F88A32032B40F0908007F555
:400C00009E739B791B029AB207F59E735B791343A7F8703297F875323F2B13D997F875325BB2002B0EDBB7F870321B01C7F86C321948D7F86C121022FFF77CFC034687F8EB
:400C4000813212E097F875321A02B7F8703213441B02C7F86C320020D7F86C124FF48072FFF768FC034687F8813297F875323F2B29D897F8753203F510331A02B7F8703265
:400C800013445B01C7F86C320023A7F87E3216E01081FF1F7421000000800040B7F87E22D7F86C3213441B78DAB297F88132134487F88132B7F87E320133A7F87E32B7F82A
:400CC0007E321F2BEAD997F87532032B19D1B7F87032FF2B15D10520002100F097F80346DBB297F88122D31A87F881320620002100F08CF80346DBB297F88122D31A87F86D
:400D0000813297F881325B42DAB207F59E731A71002387F88D320123A7F88E3210E00FE00020FFF7A7FC0346002B02D1114B80221A7000F08DFB03E0052387F88D3200BF32
:400D400097F88D1207F59E72B7F88E32084611461A4600F011F8FB1D1B78002B3FF41EAD97F88632012B3FF419AD07F52477BD4680BD00BFFA46004080B584B000AF3960C5
:400D800013460246FA71BB803B6801221A703B680133FA791A703B680233BA88D2B21A703B680333BA88120A92B2D2B21A70BB8804339BB238681946FFF79AFB0346FB8101
:400DC000BB8804333A681344FA89D2B21A70BB8805333A681344FA89120A92B2D2B21A70BB8806333A68134417221A70BB8807339AB23B1D386811461A46962300F0F2F847
:400E0000034618461037BD4680BD00BF80B586B000AF02460B46FA71BB710223FB740023FB60FB79013B092B00F2928001A252F823F000BF5D0E0000770E0000910E000033
:400E4000A70E0000C10E0000DB0E00000B0F0000F50E0000210F0000370F0000BA7913461B069B1A1B0203F57F3303F570737B610123FB7472E0BA7913461B069B1A1B022E
:400E800003F57F3303F2C1337B610423FB7465E0BA7913461B069B1A1B0203F57F3303F2C5337B615AE0BA7913461B069B1A1B0203F57F3303F2C9337B610423FB744DE003
:400EC000BA7913461B069B1A1B0203F57F3303F574737B610123FB7440E0BA7913461B069B1A1B0203F57F3303F2D1337B610123FB7433E0BA7913461B069B1A1B0203F540
:400F00007F3303F2D6337B6128E0BA7913461B069B1A1B0203F57F3303F2D2337B611DE0BA7913461B069B1A1B0203F57F3303F575737B6112E0BA7913461B069B1A1B02CB
:400F400003F57F3303F576737B610423FB7405E0002000F071FA00237B6100BFFB7C012B03D17B691B78DBB2FB60FB7C022B0BD17B691B78DBB2FB607B6901331B78DBB269
:400F80001B02FA681343FB60FB7C042B1BD17B691B78DBB2FB607B6901331B78DBB21B02FA681343FB607B6902331B78DBB21B04FA681343FB607B6903331B78DBB21B06E2
:400FC000FA681343FB60FB6818461837BD4680BD80B500AF00F0A0FC00F0A0FD00F0F6FD80BD00BF80B586B000AFF8607A600A467A817B720023FB8200F090FD09E0FB8AA3
:40100000FA6813441B78184600F0C6FDFB8A0133FB82FA8A7B899A42F1D37B687A891A80002318461837BD4680BD00BF90B589B000AFF8607A600A467A817B720523BB61CB
:401040000023FB831AE000F021FD0346002B0FD000F01CFD0346FB82192000F009FA00F015FD0346FA8A9A42F2D30023BB610DE0012000F0FDF9FB8B0133FB83F98B7A7A26
:4010800013469B0013445B009942DCDB7B6800221A800023BB8336E000F0F8FC0346BB827B681A88BB8A13449AB27B681A807B681B887A899A421ED90023FB830CE0BB8B5F
:4010C000FA68D41800F098FC03462370BB8B0133BB83FB8B0133FB83FA8BBB8A9A42EED3BB8B013BFA6813441B78172B0BD0052000F0BEF907E07B681A88BB8AD31A9AB24A
:401100007B681A8004E000F0C1FC0346002BC3D1BB6918462437BD4690BD00BF000000000230800800F0058000BF013800467FF4FCAF7047EFF3108072B6704780F310880F
:40114000704700BFAFF3008080B582B000AF00F039FA4FF0FF337B6000F05EFB0346002B24D1012000F026FB0346072B1BD11348022100F049FA0346022B0DD100237B6004
:4011800002E0012000F096F90D4B1B78DBB203F00203002BF5D006E0094B1B78DBB203F00203002BE3D000F06BFB01E004237B607B6818460837BD4680BD00BF5481FF1F72
:4011C0002247004080B582B000AF00F0FBF900F023FB0346002B23D100F07AFB78607B68072B1AD102E0012000F064F9104B1B78DBB203F00203002BF5D00D4B1B78DBB26E
:4012000003F00203002B08D0094B1B78DBB29B08DBB2002B01D100237B6000F031FB01E004237B607B6818460837BD4680BD00BF2247004080B582B000AFFFF7C3FF786047
:401240007B68002B02D1FFF77FFF78607B6818460837BD4680BD00BF80B586B000AFBA600246FA730A46BA81FB8000237B61FB7B3F2B04D8FB7B042B01D901237B61FB7B23
:401280005BB2002B01DA01237B61FB7B3F2B04D9FB7B412B01D901237B61FB7B3F2B06D8BB89B3F5807F0CD901237B6109E0BB89802B01D901237B61FB88102B01D00123AF
:4012C0007B61BB68002B01D101237B617B69002B62D100F0A1FA0346002B5BD1F97BBA89FB8808461146BA6800F0BAF978617B69072B4CD102E0012000F0DCF8294B1B7807
:40130000DBB203F00203002BF5D0264B1B78DBB203F00203002B09D0224B1B78DBB29B08DBB2002B02D100237B6102E04FF0FF337B617B69002B2AD11B4B1A781A4B5B7888
:40134000F87BB98900F0F2F978617B69072B1ED102E0012000F0AEF8124B1B78DBB203F00203002BF5D00F4B1B78DBB203F00203002B09D00B4B1B78DBB29B08DBB2002BBA
:4013800002D100237B6102E04FF0FF337B6100F077FA01E004237B617B6918461837BD4680BD00BF224700405481FF1F80B582B000AFFFF7BFFE0346FB71194B184A1278ED
:4013C000D2B242F00802D2B21A70164B154A1278D2B242F00802D2B21A70134BC8221A70124B124A1278D2B242F01002D2B21A700F4B0F4A1278D2B242F01002D2B21A7009
:4014000000BF0C4B1B78DBB203F02003002BF8D0FB791846FFF792FE0837BD4680BD00BFA0430040B043004001470040AC430040BC4300400047004080B483B000AF0346A5
:40144000FB7101BE0C37BD465DF8047B704700BF80B400AF054B054A1278D2B242F00102D2B21A70BD465DF8047B7047F646004080B582B000AF786008E00C4B1B681846C6
:40148000FFF74EFE7B68A3F500437B607B68B3F5004FF2D8064B1B687A6802FB03F31846FFF73EFE0837BD4680BD00BF2081FF1F1881FF1F80B582B000AF0346FB80FB8863
:4014C000044A127802FB03F31846FFF729FE0837BD4680BD1C81FF1F80B582B000AFFFF729FE0346FB7100BF00BF00BF00BF00BF00BF00BF00BF00BF00BF00BF00BF00BFD1
:4015000000BF00BF00BF094B084A128892B242F0040292B21A80054B1B88BFF36F8FFB791846FFF70BFE0837BD4680BD0048004080B584B000AF03463960FB710F4B1B6816
:40154000FB60FB791F2B02D90020FFF775FFFB7903F01F0310339B00FA6813441B68BB60FB7903F01F0310339B00FA6813443A681A60BB6818461037BD4680BD08ED00E016
:4015800080B582B000AF02460B46FA71BB71BB79072B02D90020FFF74FFFFB791F2B02D90020FFF749FFFB7903F01F0303F1604303F56443BA795201D2B21A700837BD46B4
:4015C00080BD00BF80B582B000AFFFF7B3FD0346FB710B4B0A4A1278D2B242F00802D2B21A70084B074A1278D2B242F00802D2B21A70FB791846FFF7A1FD0837BD4680BD9B
:40160000A0430040B043004080B584B000AF78600B46FB700023FB7314E002E00120FFF749FF0D4B1B78DBB203F00103002BF5D0FB7B7A681344094A1278D2B21A70FB7B73
:401640000133FB73FA7BFB789A42E6D3FB7B18461037BD4680BD00BF224700402047004080B489B000AFBA600246FA730A46BA81FB800723FB612B4B1B78DBB203F00203DC
:40168000002B45D0284BB6221A70274BD5221A70254B02221A70234B1B78DBB203F00203002B32D1204BFA7B1A7000237B8308E01D4B7A8BB9680A4412781A707B8B0133B3
:4016C0007B837A8BFB889A42F2D3FB88B3F5807F20D1FB7B3F2B1DD8FB7B03F510331A02BB8913445B017B6100237B8309E00E4B798B7A690A441278D2B21A707B8B0133C9
:401700007B837B8B1F2BF2D904E00923FB6101E00423FB61FB6918462437BD465DF8047B704700BF224700402047004080B485B000AFF871B980BA71FB700723FB601B4BCB
:401740001B78DBB203F00203002B26D0184BB6221A70174BD8221A70154B05221A70134B1B78DBB203F00203002B13D1104BFA791A700F4BBA88120A92B2D2B21A700C4B36
:40178000BA88D2B21A700A4BBA791A70084BFA781A7004E00923FB6001E00423FB60FB6818461437BD465DF8047B7047224700402047004080B485B000AF0346FB710723C9
:4017C000FB60134B1B78DBB203F00203002B16D0104BB6221A700F4BE1221A700D4B0E221A700B4B1B78DBB203F00203002B03D1084BFA791A7004E00923FB6001E0042321
:40180000FB60FB6818461437BD465DF8047B7047224700402047004080B582B000AF04237B60FFF787FC0346FB70124B1B78002B16D1104B01221A7000237B600E4B1B683A
:4018400003F00103002B0BD00B4B0B4A126822F001021A6000BF00BF00BF084B01221A60FB781846FFF76AFC7B6818460837BD4680BD00BF4481FF1F040008404881FF1FC8
:4018800080B582B000AFFFF755FC0346FB710D4B00221A700C4B1B68012B0BD10B4B0B4A126842F001021A6000BF00BF00BF064B00221A60FB791846FFF740FC0837BD46EC
:4018C00080BD00BF4481FF1F4881FF1F0400084080B483B000AF07237B600D4B1B78DBB203F00203002B09D00A4BB6221A70094BE0221A70074B0D221A7001E004237B60C2
:401900007B6818460C37BD465DF8047B704700BF224700402047004080B500AF054B1B78002B04D100F008F8024B01221A7000F02FF880BD4C81FF1F80B500AF00200D493C
:40194000FFF7F6FD00200721FFF71AFE0A4B00221A700A4B72221A70094B20221A70094B06221A70084B47221A70084B00221A7080BD00BF0D1C00004D81FF1F8C64004008
:401980008A6400402E6400403E6400408B64004080B582B000AFFFF7CDFB0346FB71124B114A1278D2B242F02002D2B21A700F4B0E4A1278D2B242F01002D2B21A700C4BFC
:4019C00001221A600B4B0B4A1278D2B242F01002D2B21A7000F086F9FB791846FFF7AEFB0837BD4680BD00BF9C6400409A64004000E100E09B64004080B483B000AF1C4B26
:401A000001221A601B4B1B78BB711B4B1B787B711A4B1B78DBB2002B03D1BA797B799A4219D0BB79164AD35CFB71BB790133BB71BB795BB2002B01DA0023BB710D4BBA79AB
:401A40001A700E4B1B78DBB2002B03D00B4B00221A7003E002E00B4B1B78FB710A4B01221A60FB7918460C37BD465DF8047B704780E100E04E81FF1F4F81FF1F5081FF1FA9
:401A80005881FF1F4F64004000E100E080B483B000AF1D4B01221A601C4B1B78DAB21C4B1B78DBB29A420AD11A4B1B78DBB2002B02D08023FB711DE00023FB711AE0134B27
:401AC0001B78DAB2124B1B78DBB29A4208D2104B1B78DAB20D4B1B78DBB2D31AFB7109E00B4B1B78DAB2094B1B78DBB2D31ADBB2803BFB71084B01221A60FB7918460C37D1
:401B0000BD465DF8047B704780E100E04E81FF1F4F81FF1F5081FF1F00E100E080B582B000AFFFF707FB0346FB71144B134A1278D2B242F00102D2B21A70104B0F4A12783D
:401B4000D2B222F00102D2B21A70FB791846FFF7F5FA0B4B01221A600A4B00221A700A4B00221A70094B00221A70094B00221A70084B01221A600837BD4680BD9F64004060
:401B800080E100E04E81FF1F4F81FF1F5081FF1F5181FF1F00E100E080B483B000AF0346FB7100BF074B1B78DBB203F00403002BF8D1054BFA791A700C37BD465DF8047B18
:401BC000704700BF6B6400404B64004080B582B000AFFFF7AFFA0346FB710B4B0A4A1278D2B242F00102D2B21A70074B064A1278D2B222F00102D2B21A70FB791846FFF771
:401C00009DFA0837BD4680BD9B64004080B483B000AF0023FB712B4B1B78BB71BB797B71BB7903F01E03002B0BD0BB7903F01E03DAB2254B1B78DBB21343DBB2DAB2224BC7
:401C40001A70BB7903F02003002B31D01F4B1B787B711F4B1B78DBB21E4A7979D1540123FB71FB79002B23D01B4B1B78DBB2002B02D01A4B01221A70154B1B78DBB2013307
:401C8000DAB2134B1A70124B1B78DBB2DBB25BB2002B02DA0E4B00221A700D4B1B78DAB20F4B1B78DBB29A4202D10B4B01221A70BB7903F02003002BADD10C37BD465DF85C
:401CC000047B70476A6400404D81FF1F4F6400404F81FF1F5881FF1F5081FF1F5181FF1F4E81FF1F80B400AF094B094A1278D2B242F00102D2B21A70064B064A1278D2B286
:401D000042F00102D2B21A70BD465DF8047B7047A2430040B243004070B50E4B0E4D0024ED1AAD101E46AC4204D056F8242090470134F8E700F022FA084D094B0024ED1A34
:401D4000AD101E46AC4204D056F8242090470134F8E770BD8821000088210000902100008821000010B50023934203D0CC5CC4540133F9E710BD02440346934202D003F848
:401D8000011BFAE77047000032000000D021000000000000005100406000C05100401000F0510040100000000140001000140140000800400140000A004C01400002005051
:401DC000014020000252004003640040010501404B0A0140420B01403A0C0140430D01405D0E01402F0F014002400140014101400342014004440140034501400246014072
:401E00000350014001510140310134028A388B0F8C72E60102030308051A07040B050C0C0E1110101103120C130C181C1A021C101D031F14201421202C092E102F18301F93
:401E4000311C3303352039083B023F1454185604580459045B045F018002850A860287048A028B058F08900296029D039F0CA001A503A704AD03AF04B002B10FB401BB02F4
:401E8000BE11C053C104C5E0C6CBC80EC9FFCAFFCBFFCEF0CF44D00CD401D804D904DA04DB04DF01E6C0EA40EB02008001020428074009010B060D020E100F2010811180F0
:401EC000150119021E882080210622102340250126022740280129022F2231023342374038283A303B063D803E203F04450246104D014E02548057305A025D015E986080A7
:401F00006150808082109028920293029508974099509E20A140A501C079C23BC419CA59CC19CE77D0C0D210D6F1D80DE4040104050209020D04110215011D0121012704B9
:401F400029082D0133023501370C39803F105602571159045B045F01800F830485C08603880489188C018D44900391E7920C93189402958098039BE39D10A00FA11CA3E14C
:401F8000A40CA51CA7E2A80CA908AA03AC08ADFFB00FB1C0B31FB738BA82BB88D804D904DF010160039009080A400B041219130119811A401BC0228923012540261027109F
:401FC000284029A42E602FA0308031093310344035043688370939423A103B043D023E143F4058805A405E206C206E146F097484752076138D048F409028914293069508B6
:40200000974199509C809D209E029F18A108A320A424A545A748B420B540C00FC20EC40FCAFFCCDFCEFFD620040C05010603070E1001120E1544173119671A031E08200146
:402040002206252227D129672E0C31803360340F350737183A203F404003454049FF4A074BFF4C404D204EF04F055008580459045A045F01604061A8624063208106830166
:40208000850688028B018C028D079204950796049D019E029F06A104A602A902AA01AE01B002B107B404B601B802BE50C042C103C205C401C6E0C70CC818C9FFCAFFCBFFB5
:4020C000CC62CDA0CEF0CF41D00CD804D904DA04DF01E640E702E910EA30EB10ED10EE10EF120320070609200B420E800F2111821608174818081B201D501E802189230460
:402100002602274028202B082D202E0230203108348037083B043C083D203F8141044480459447164B024E025010512056085710C0C4C2BBC4E9CAA6CC56CEF2D0F2D210E6
:402140003240CC10968082409680E68005025910C004D4019D10B502EA0281109D1000010C010E01000300000100020101000100000000006930122E001E0101F8B500BF9B
:40218000F8BC08BC9E467047610000003D010000F8B500BFF8BC08BC9E4670473D000000B02100000881FF1F20000000B000000000000000881D00008C1D000000366E0176
:4021C000C05D0000180000000000E02E000000000000000000000000000000000000000000000000000000000000000000000000000000000000000000000000000000009C
:402200000080002011220000051B0100051B010008B50FF079FC00BF10B5054C237833B9044B13B10448AFF300800123237010BD0883FF1F0000000000360100084B10B5FF
:402240001BB108480849AFF300800848036803B910BD074B002BFBD0BDE81040184700BF00000000003601000C83FF1F0881FF1F0000000008B510F047FD0E4B1B78012B8C
:4022800013D10D4B1978062907D80131C9B219700120143108F032FE08BD0022064B1A700120142108F02AFE08BD034A13780133137008BD5A83FF1F7685FF1F08B510F05D
:4022C000DDFD0E4B1B78012B13D10D4B1978062907D80131C9B219700220143108F00EFE08BD0022064B1A700220142108F006FE08BD034A13780133137008BD2B85FF1F74
:402300000585FF1F10B562B60FF032FE0FF0E6FF10F068F80FF01EFE0FF03EFF10F004FB10F0F0FB0FF046FF10F00CFB10F0F8FB0FF0C6FF11F076F8052011F0DBF80024D6
:40234000984B1C702046202108F012FA964B1C6006E0964AD15C964AD1540133924A1360924B1A78904B1B689A42F2D220200F2108F0FEF900228C4B1A6007E08B4AD15C43
:402380008B4A1A4491770133874A1360874B1A78854B1B689A42F1D24020202108F0E8F90022814B1A6008E0804AD15C804A1A4482F8431001337C4A13607C4B1A787A4BD3
:4023C0001B689A42F0D28020202108F0D1F90022754B1A6008E0754AD15C754A1A4482F861100133704A1360704B1A786E4B1B689A42F0D2A020202108F0BAF900226A4BD6
:402400001A6008E0694AD15C694A1A4482F87F100133654A1360654B1A78634B1B689A42F0D22F200C2108F0A3F900225E4B1A6008E05E4AD15C5E4A1A4482F82F100133D4
:40244000594A1360594B1A78574B1B689A42F0D26020092108F08CF9544B1878431EDBB2082B14D80022504B1A6008E001334F4AD15C4F4A1A4482F8D7104B4A13604A4BDC
:402480001B68072BF2D94A4B83F8D7000EE00122454B1A6006E0464A1A4482F8D7300133414A1360404B1B68082BF4D940F26A400A2108F05DF900223B4B1A6006E03B4A23
:4024C000D15C3C4AD1540133374A1360374B1A78354B1B689A42F2D240F275400A2108F047F90022304B1A6006E0304AD15C324AD15401332C4A13602C4B1A782A4B1B6878
:402500009A42F2D24FF490600A2108F031F90022254B1A6006E0254AD15C284AD1540133214A1360214B1A781F4B1B689A42F2D240F28B400A2108F01BF900221A4B1A6084
:4025400006E01A4AD15C1E4AD1540133164A1360164B1A78144B1B689A42F2D240F28D40022108F005F900220F4B1A6006E00F4AD15C144AD15401330B4A13600B4B1A78FA
:40258000094B1B689A42F2D240F29F20052108F0EFF8064B1878042823D10122024B1A6019E000BF6F86FF1F6C83FF1F3485FF1F1487FF1F0885FF1F6083FF1FB488FF1F55
:4025C0001885FF1FB088FF1FA24AD15CA24AD1540133A24A1360A14B1B68042BF4D99E4B187040F2C110022108F0C2F8994B1B78012B03D1974B5A78994B1A7040F2C310BB
:40260000022108F0B5F8934B1B78012B03D1914B5A78944B1A7040F2C510022108F0A8F88C4B1B78012B03D18A4B5A788E4B1A7040F2EE30022108F09BF8864B1B78012B86
:4026400003D1844B5A78894B1A704FF4DD70022108F08EF87F4B1B78052B05D17D4B5B7803F00F03824A137040F27A20022108F07FF8784B1B78012B03D1764B5A787D4BF5
:402680001A704FF41F70022108F072F8714B1B78012B03D16F4B5A78774B1A7040F27E20022108F065F86B4B1B78012B03D1694B5A78724B1A704FF47C70022108F058F81A
:4026C000644B1B78012B03D1624B5A786C4B1A7040F25A20062108F04BF85E4B1B78052B0AD15C4AD37803F00F0366490B70537903F00F03644A137040F2C710022108F03D
:4027000037F8544B1B78012B06D1604A1370514B5B7803F00F0353704FF4DE70022108F027F84C4B1B78012B05D14A4B5B7803F00F03574A137040F26320022108F018F869
:40274000444B1B78012B05D1424B5B7803F00F03504A537040F26520022108F009F83D4B1B78012B05D13B4B5B7803F00F034A4A53704FF42770032107F0FAFF354B1B78CD
:40278000022B06D1334B9B7843EA0323434A138002E00122414B1A804FF47670022107F0E7FF2C4B1B78012B04D12A4B5A783C4B5A7007E03A4901230B704B704FF476702D
:4027C00007F098FF40F28F40022107F0D1FF214B1B78012B04D11F4B5A78324B5A7007E0304901230B704B7040F28F4007F082FF4FF47D70022107F0BBFF164B187801288C
:402800000ED10022154B1A6006E0124AD15C264AD1540133114A1360104B1B689842F4D240F2D230062107F0A3FF0A4B187805283ED10022094B1A6006E0064AD15C1B4A6C
:40284000D1540133054A1360044B1B689842F4D23BE000BF3485FF1F0C81FF1F6C83FF1FFE87FF1FBF88FF1F2C85FF1F5D83FF1F1485FF1F0485FF1F6E86FF1F7386FF1F06
:402880000C87FF1F5E83FF1FFF87FF1F2885FF1F8285FF1F7086FF1F1087FF1F0285FF1F5883FF1F1488FF1F6C86FF1F7C85FF1F194905230B7030234B708B70CB700B71BF
:4028C0004B7140F2D23007F015FF134A537903F00F00137903F00F014FF47A7303FB01F342F2107101FB0033D07800F00F00642101FB0031937803F00F0303EB83035B0045
:402900000B44527802F00F021344044A13600222034B1A7010BD00BF7C85FF1F1088FF1F0785FF1F10B500244FE00BF045F9012810D010B102282BD047E001204F2108F06C
:40294000DDFA4FF4FA7010F0D5FD02204F2108F0D5FA3AE0642010F0CDFD1D4B18780BF06BF906280FD11A4B18790BF065F9062809D101203C2108F0C1FA02203C2108F0DC
:40298000BDFA012421E00120552108F0B7FA1CE0642010F0AFFD0E4B18780BF04DF9062813D10B4B18790BF047F9062809D101204A2108F0A3FA02204A2108F09FFA022403
:4029C00003E00120552108F099FA002CADD010BD5083FF1F08B501280ED1552108F08EFA64220D4B1A7001220C4B1A700C4810F0FFF910F0CFF908BD0220552108F07EFA63
:402A00006422084B1A700122074B1A70074810F0A9FA10F079FA08BD5A83FF1F7685FF1F752200002B85FF1F0585FF1FBD22000038B5984B1B78642B03F25987DFE813F079
:402A400074008000571FA100000188013B02D902571F40032F048804F5047705AA059C069F070608A0084209D109490B950C180E370FF8123913101499140015E6156816D4
:402A80004417F3196C1ADB1A341B631B091CE21CE41D6F1EE81E571F571F571F571F571F571F571F571F571F571F571F571F571F571F571F571F571F571F571F571F571F02
:402AC000571F571F571F571F571F571F571F571F571F571F571F571F571F571F571F571F571F571F571F571F571F571F571F571F571F571F571F571F571F571F571F571F16
:402B0000571F571F571F571F6500634B1B78012B43F2ED8600245F4B1C7010F077F910F0D9F85D4B1C7038BD5C4810F061F910F031F90022584B1A700122564B1A7038BDC5
:402B40000FF00CFF082843F0D2860FF031FF10F05DF910F0BFF8524B1B78022B04D10120632108F0CBF903E00120452108F0C6F90322484B1A70642010F0BCFC0FF018FF0C
:402B800038BD0FF0EBFE082843F0B186454B1B78DBB2AA2B4ED1434B9B79DBB2C32B49D1404BDB79DBB23C2B44D13E4BDB78DBB2592B2DD002D8452B1FD03BE05C2B02D044
:402BC0007E2B30D036E00022374BDA70344B1B78012B06D10120052108F090F904222D4B1A702F4B1B78022B24D10120492108F085F91922274B1A701CE00120252108F061
:402C00007DF90022294B1A700F22224B1A7011E00120252108F072F90022244B1A7027221C4B1A7006E00120002108F067F90022184B1A70642010F05DFC0FF0B9FE38BDAF
:402C40000FF08CFE082843F05286164B1B78DBB2AA2B77D1134B9B79DBB2C32B72D1114BDB79DBB23C2B6DD10F4AD37823F00303D3700C4BDB78DBB23B2B4BD004D80F2B12
:402C800016D0102B28D05DE0432B3BD07E2B52D058E000BF5A83FF1F7685FF1F752200000785FF1FB08AFF1F7486FF1F2D85FF1F0120062108F022F90022A74B1A700120D4
:402CC000482108F051F9A54AD37843F00203D3700522A34B1A7035E001200D2108F00EF900229D4B1A709F4B1A700120472108F03BF99A4AD37843F00103D3700522984B02
:402D00001A701FE00120072108F0F8F80622944B1A7017E0944B1B78022B04D10120632108F0ECF803E00120452108F0E7F803228B4B1A7006E00120002108F0DFF800227D
:402D4000874B1A70642010F0D5FB0FF031FE38BD0FF004FE082843F0CA85844B1B78DBB2AA2B40F0A280814B9B79DBB2C32B40F09C807E4BDB79DBB23C2B40F09680764BF8
:402D80001B787B4A1278013A93423EDC774AD278D2B2092A0FD80133DAB26F4B1A707348C1786E4B13443031D972C17830310120C9B208F0D9F86D4BDB78DBB20A2B0BD102
:402DC000654B1A780132D2B21A70644B13443021D972012008F0C8F8644BDB78DBB2512B13D15D4B1B7883B15E4A12786AB90133DAB2594B1A70594B13442C21D972012080
:402E000008F0B2F80122574B1A70584BDB78DBB20B2B1BD1504B1A783AB90120052108F06DF804224E4B1A7010E00120202108F09BF8494B1B78494A1A44D27A2C2A02D185
:402E40000021484A1170013B434A1370474BDB78DBB20C2B29D1404B1B786BB1454B1B7853B90120072108F049F83B4B1A783B4BDA7206223A4B1A70374B1B78ABB13D4B2A
:402E80001B78012B11D10120702108F037F8334B1B7B39490B7040F28D4007F02BFC0022344B1A700E222E4B1A70642010F022FB0FF07EFD38BD642010F01CFB0FF04EFD17
:402EC000082820D1294B1B78DBB2AA2B15D1274B9B79DBB2C32B10D1244BDB79DBB23C2B0BD1224BDB78DBB27E2B06D10120002108F004F800221A4B1A70642010F0FAFA61
:402F00000FF056FD38BD1D4B18780AF095FE072843F0ED84322010F0EDFA184B18780AF09FFE174B1870322010F0E4FA0B4BDB7813F0030328D0114A1078114A1178114A49
:402F40000EF030F900BB0120002107F0D7FF0022034B1A7038BD00BF2D85FF1F7486FF1F5A83FF1F5B83FF1F0785FF1FB08AFF1F1485FF1F6F86FF1FB088FF1F5083FF1FC0
:402F80001788FF1F7F86FF1F012010F05DFA994B18780AF065FE984B1870002803F0A784964B1B7803F00F03834211D0944B1B7803F00F0398420BD0924B1B7803F00F0377
:402FC000984205D0904B1B7803F00F03984202D101200EF067FD874B187840F010000FF04FF80120082107F089FF0722874B1A7038BD322010F07EFA7E4B18780AF01CFE1D
:403000000A282DD00B2803D0062843F070844FE0642010F06FFA774B18780AF095FE01280BD17B4B1B7843B9392107F067FF142010F060FA0D22754B1A706E4B18780AF0B0
:4030400083FE012843F05384714B1B78012B43F04E840C2107F052FF00226C4B1A7038BD642010F047FA634B18780AF06DFE01280BD1674B1B7843B9392107F03FFF1420DE
:4030800010F038FA0D22614B1A705A4B18780AF05BFE012843F02B845D4B1B78012B43F026840C2107F02AFF0022584B1A7038BD0120002107F022FF0022544B1A7038BD77
:4030C0000FF04CFC082840F0D580524B1B78DBB2AA2B40F0CA804F4B9B79DBB2C32B40F0C4804C4BDB79DBB23C2B40F0BE800022494B1A70494B1B78062B65D8454AD27830
:40310000D2B2092A10D80133DAB2444B1A704148C178434B1344303183F86510C17830310120C9B207F020FF3A4BDB78DBB20A2B0CD13A4B1A780132D2B21A70384B13442A
:40314000302183F86510012007F00EFF314BDB78DBB26A2B0CD1314B1A780132D2B21A702F4B13442D2183F86510012007F0FCFE284BDB78DBB21A2B26D9264BDB78DBB2C3
:40318000422B21D80022274B1A6019E0214AD278D2B225491944097A8A420DD11F490A780132D2B20A704133D9B21D4B134483F86510012007F0D8FE1A4A13680133136034
:4031C000184B1B68192BE1D9124BDB78DBB20B2B34D1124B1A784ABB01200B2107F08EFE0F4B002283F8652083F883200A22074B1A7023E05083FF1F1788FF1FFE87FF1FB9
:40320000BF88FF1F2C85FF1F5D83FF1F5A83FF1F1385FF1FB08AFF1F7685FF1F2D85FF1F7486FF1F6C83FF1F0C81FF1F0120202107F09AFEA44A1378013B1370A34BDB7830
:40324000DBB20C2B11D1A04B1B7873B10120052107F054FE9E4B9C4A127883F86520012283F8832004229B4B1A70642010F042F90FF09EFB984B1B781D2B43F23883012020
:403280000B2107F03BFE924A002382F8653082F88330914A13700A228E4B1A7038BD0FF05DFB082844D1894B1B78DBB2AA2B3AD1864B9B79DBB2C32B35D1844BDB79DBB20F
:4032C0003C2B30D1814BDB78DBB2382B18D0392B29D100227C4B1A707D4BDB7813F0040F0AD101200A2107F009FE00227B4B1A700922784B1A7016E00D22764B1A7012E0FC
:403300000120052107F0FAFD714BDB7813F0040F03D10122714B1A7002E000226F4B1A7004226C4B1A70642010F0E4F80FF040FB694B1B781D2B43F2DA8201200C2107F048
:40334000DDFD0122644B1A706422624B1A7038BD0120014607F062FB052840D90A2010F0C9F80120212107F059FB052837D9012007F06CFA012832D133200FF037FB01203E
:40338000332107F0A5FA50B30022554B1A600AE0012007F007FB4E4B1C4484F82900504A1368013313604E4B1C68072CF0D90120132107F0A3FD464CE37843F00403E37007
:4033C0004FF4FA7010F096F801200E2107F096FD00233D4A137023710C223E4B1A700FF0BDFA082843F08382384B1B78DBB2AA2B15D1364B9B79DBB2C32B10D1334BDB7977
:40340000DBB23C2B0BD1314BDB78DBB23B2B06D10120632107F072FD03222E4B1A70642010F068F80FF0C4FA38BD0FF097FA082843F05D82254B1B78DBB2AA2B71D1234B73
:403440009B79DBB2C32B6CD1204BDB79DBB23C2B67D11D4B1B78052B25D81C4AD278D2B2092A0FD80133DAB2174B1A701748C178174B134430311971C17830310120C9B201
:4034800007F072FD114BDB78DBB20A2B0BD10E4B1A780132D2B21A700D4B134430211971012007F061FD094BDB78DBB20B2B21D1054B1A78B2B90120052107F01FFD042204
:4034C000044B1A7016E000BF2D85FF1FB08AFF1F7486FF1F5A83FF1F7685FF1F1385FF1F3085FF1F0120202107F03EFD974A1378013B1370964BDB78DBB20C2B11D1934BEA
:403500001B7873B1934B5B79302B0AD00120052107F0F4FC8D4B1A788E4B1A7104228E4B1A7064200FF0E6FF0FF042FA38BD8B4B58788B4B197800228A4B1B7808F086FFBC
:40354000894B1B78012B02D0884B5B787BB901200C2107F0D3FC0122854B1A7085480FF047FC0FF017FC64227B4B1A7038BD0120312107F0C3FC0022744B1A7001227C4B11
:403580001A707C480FF034FC0FF004FC2122724B1A7038BD0FF0E2F9082843F0A8816C4B1B78DBB2AA2B40F0CA80694B9B79DBB2C32B40F0C480664BDB79DBB23C2B40F0A4
:4035C000BE80634BDB78DBB2652B00F084800AD85A2B50D002D8582B12D0B0E05B2B64D05D2B24D0ABE07E2B00F0A28003D8702B00F09680A3E0932B75D0962B60D09EE038
:403600000022524B1A7001203E2107F077FC06F0B1FF012801D107F027FD06F0DBFF012801D107F07FFD10224B4B1A7087E001205C2107F063FC01200021D62240F2AD1384
:4036400007F056FE01200021892240F2B31307F04FFE01200146242240F2A71307F048FE0120014678224FF47A7307F041FE1322394B1A7063E00120602107F03FFC01201C
:4036800007F0B4FD012007F0F3FE012008F082F8012008F005F9012007F070FF012007F0F3FF12222C4B1A7049E001202F2107F025FC0022254B1A701122274B1A703EE0CE
:4036C00001205F2107F01AFC0022204B1A701B22214B1A7033E001204D2107F00FFC14221D4B1A702BE001206E2107F007FC0120014607F093F905280ED90A200FF0FAFE31
:40370000012008F0D5F90120212107F087F9052802D9012008F04AF923220F4B1A700EE00120892107F0EAFB29220B4B1A7006E00120002107F0E2FB0022074B1A706420FD
:403740000FF0D8FE0FF034F938BD00BF2D85FF1FB08AFF1F7486FF1F5A83FF1F7086FF1F1788FF1F5083FF1F0785FF1F5883FF1F7685FF1F752200000FF0F0F8082843F0FA
:40378000B680A64B1B78DBB2AA2B40F0F280A34B9B79DBB2C32B40F0EC80A04BDB79DBB23C2B40F0E6809E4B1A78072A26D89B4BDB78DBB2092B0ED8984BD978994B134470
:4037C000303183F88E1001202A2107F0CDFB944A137801331370914BDB78DBB20A2B0DD18F4C22788F4B1344302183F88E1001202A2107F0B9FB237801332370874BDB7887
:40380000DBB20B2B0ED1864B1B781BB90120FFF7E1F807E0013BDAB2814B1A700120202107F0A2FB7D4BDB78DBB20C2B40F0A1807B4B1A78002A00F08D8000237A490B60C3
:403840007A490B6015E0581C7949014491F8D710744C234493F88E30303B994204D172490B6801330B6002E000216F4B19606F4B186010466D4B1B689A42E4D86C4B93F80F
:40388000D720694B1B689A421AD10120262107F035FB4FF4FA700FF02DFE664B1B78012B04D101205D2107F029FB05E0022B03D10120702107F022FB0E225F4B1A7058E066
:4038C0000023594A1360594A136010E05B4A1A4492F82410534A1A4492F88E20914203D151490A6801320A600133504A13604F4B1B689842EAD84C4B1B68082B1AD10120F2
:40390000262107F0FBFA4FF4FA700FF0F3FD494B1B78012B04D101205D2107F0EFFA05E0022B03D10120702107F0E8FA0E22424B1A701EE00120272107F0E0FA0122404B73
:403940001A7040480FF054FA0FF024FA64223A4B1A700EE00120272107F0D0FA0122384B1A7038480FF044FA0FF014FA6422324B1A7064200FF0BEFD0FF01AF838BD0EF055
:40398000EDFF082842F0B387244B1B78DBB2AA2B3ED1224B9B79DBB2C32B39D11F4BDB79DBB23C2B34D11D4BDB78DBB23F2B04D07E2B26D03E2B2BD116E00120402107F056
:4039C0009DFA0023164A13701F4A137001206121062207F0C9FA01206D21072207F0C4FA1522154B1A7013E001203F2107F086FA00230B4A1370144A137016220E4B1A7029
:403A000006E00120702107F079FA0E220A4B1A7064200FF06FFD0EF0CBFF38BDB08AFF1F2D85FF1F7486FF1F8485FF1F6C83FF1F1487FF1F0785FF1F5A83FF1F0C81FF1F4C
:403A40007685FF1F752200005B83FF1F0EF086FF082842F04C87AA4B1B78DBB2AA2B40F08980A74B9B79DBB2C32B40F08380A44BDB79DBB23C2B7DD1A14BDB78DBB2942BFB
:403A800006D10120702107F039FA0E229D4B1A709D4B1A78072A27D8994BDB78DBB2092B10D89748C178994B1344303183F88E10C17830310120C9B207F056FA924A137876
:403AC000013313708E4BDB78DBB20A2B0CD18E4C22788E4B1344302183F88E10012007F043FA237801332370854BDB78DBB20B2B0ED1854B1B781BB90120FEF76BFF07E01C
:403B0000013BDAB2804B1A700120202107F02CFA7B4BDB78DBB20C2B2CD17B4B1B78052B28D90120392107F0E9F9774B1978784B83F8D7100022774B1A600BE0581C734A3F
:403B4000134493F88E20724B0344303A83F8D720704B18606F4B1B689942EFD860206E4906F0C8FD18B90120552107F0C7F90022644B1A7064200FF0BDFC0EF019FF38BD10
:403B80000EF0ECFE082842F0B2865D4B1B78DBB2AA2B40F091805A4B9B79DBB2C32B40F08B80574BDB79DBB23C2B40F08580544BDB78DBB27A2B5FD006D8772B3ED0782B93
:403BC0004CD0762B78D10AE0822B17D002D87E2B6BD071E0832B21D0952B5AD06CE00120302107F08BF900234C4A1370464A13704B4A13701822434B1A705DE001207921BF
:403C000007F07CF90222454B1A7000233E4A1370434A137018223B4B1A704DE001207A2107F06CF903223D4B1A700023364A13703B4A13701822334B1A703DE0012078218F
:403C400007F05CF90122354B1A7000232E4A1370334A137018222B4B1A702DE00120652107F04CF901222D4B1A700022264B1A701722244B1A701FE00120322107F03EF96E
:403C80000023264A1370204A137017221D4B1A7012E0244B1B78022B0ED10120662107F02DF92022174B1A7006E00120702107F025F90E22134B1A7064200FF01BFC0EF086
:403CC00077FE38BD0EF04AFE082842F010860C4B1B78DBB2AA2B7ED1094B9B79DBB2C32B79D1074BDB79DBB23C2B74D1044BDB787E3B042B6FD8DFE803F067172B3F5300AF
:403D0000B08AFF1F5A83FF1F2D85FF1F7486FF1F1487FF1F6C83FF1FEB87FF1F7785FF1F1688FF1F0785FF1F0120062107F0E6F80022B84B1A70B84B1978B84B83F8A310E1
:403D40000120482107F010F91A22B54B1A7042E00120062107F0D2F80022AE4B1A70B14B1978AE4B83F8A3100120482107F0FCF81A22AB4B1A702EE00120062107F0BEF83B
:403D80000022A44B1A70A84B1978A44B83F8A3100120482107F0E8F81A22A14B1A701AE00120062107F0AAF800229A4B1A709F4B19789A4B83F8A3100120482107F0D4F86D
:403DC0001A22974B1A7006E00120702107F096F80E22934B1A7064200FF08CFB0EF0E8FD38BD0EF0BBFD082842F08185904B1B78DBB2AA2B40F067818D4B9B79DBB2C32B17
:403E000040F061818A4BDB79DBB23C2B40F05B81874BDB78DBB2642B00F0D48004D8622B09D0632B2ED04EE17E2B00F03D81942B00F0428147E10120392107F05FF8642087
:403E40000FF058FB7B4B187809F0F6FE062815D1784B187909F0F0FE06280BD101204A2107F04CF84FF42F700FF044FB00226C4B1A7028E10120FEF7ADFD24E10120FEF726
:403E8000A9FD20E10120372107F038F86A4B5B78012B45D10022694B1A600AE0684A1344012093F82C1006F0ADFC644A136801331360624B1B68102BF0D901200A2106F0E1
:403EC000A1FC01200A2106F09DFC01200A2106F099FC01200A2106F095FC0022574B1A600AE0574A1344022093F82C1006F08AFC524A136801331360504B1B68102BF0D93B
:403F000002200A2106F07EFC02200A2106F07AFC02200A2106F076FC02200A2106F072FC454B5B78022B45D10022444B1A600AE0434A1344032093F82C1006F063FC3F4A3E
:403F40001368013313603D4B1B68102BF0D903200A2106F057FC03200A2106F053FC03200A2106F04FFC03200A2106F04BFC0022324B1A600AE0324A1344042093F82C100B
:403F800006F040FC2D4A1368013313602B4B1B68102BF0D904200A2106F034FC04200A2106F030FC04200A2106F02CFC04200A2106F028FC01206B2106F0A0FF2522184B91
:403FC0001A7080E0012006F041FC012868D133200EF00CFD0120332106F07AFC002872D00022184B1A600AE0012006F0DBFC164B1C4484F82900134A136801331360114B64
:404000001C68072CF0D90023104A13700D4A13602BE000BF2D85FF1FBF88FF1F1487FF1F5A83FF1F2C85FF1FFE87FF1F5D83FF1FB08AFF1F5083FF1F6C86FF1F6C83FF1FAD
:404040000C81FF1F3085FF1F7486FF1F1585FF1FA14CA24A1344207893F8291006F03EFF20709F4A1368013313609D4B1B68062BEED99A4B93F83020974B1B789A420BD148
:4040800001204B2106F03AFF4FF47A700FF032FA0022944B1A7016E00120FEF79BFC12E00120FEF797FC0EE00120002106F026FF00228C4B1A7006E00120702106F01EFFAA
:4040C0000E22884B1A7064200FF014FA0EF070FC38BD0EF043FC082842F00984824B1B78DBB2AA2B40F03B817F4B9B79DBB2C32B40F035817C4BDB79DBB23C2B40F02F813B
:404100007A4B1B78042B00F2B180DFE803F0032C52AF8A00744AD278D2B2012A0FD80133DAB2724B1A70704CE17830310120C9B206F01AFFE3781B016D4A82F8A1306A4B6D
:40414000DB78DBB20A2B40F09180684B1A780132D2B21A700021664B83F8A1100120302106F002FF82E0604AD278D2B2092A11D80133DAB25D4B1A705B4CE1783031012092
:40418000C9B206F0F1FEE178594A92F8A1300B4382F8A130544BDB78DBB20A2B66D1534B1A780132D2B21A700120302106F0DCFE5CE04D4AD278D2B2052A17D80133DAB292
:4041C0004A4C227001203A2106F0CEFE22780132D2B22270444CE17830310120C9B206F0C3FEE3781B01424A82F8A0303E4BDB78DBB20A2B3AD13D4C22780132D2B2227077
:4042000001203A2106F0B0FE22780132D2B222700120302106F0A8FE0022354B83F8A02024E0314AD278D2B2092A11D80133DAB22E4B1A702C4CE17830310120C9B206F0A0
:4042400093FEE1782A4A92F8A0300B4382F8A030254BDB78DBB20A2B08D1244B1A780132D2B21A700120302106F07EFE1E4BDB78DBB2402B17D11F4B1B783BB901201D4B54
:4042800018707021062206F06FFE07E00022194B1A7001206121062206F066FE01206D21072206F061FE104BDB78DBB20B2B2DD10E4B1A7812BB0E220A4B1A700E4B1B78EF
:4042C000012B04D101205D2106F018FE1EE00120702106F013FE19E01585FF1F7486FF1F3085FF1F5A83FF1FB08AFF1F2D85FF1F1487FF1F5B83FF1F0785FF1F01202021DB
:4043000006F032FE9F4A1378013B13709E4BDB78DBB20C2B23D19B4B1B78052B1FD19B4B1B7843F002029A4991F8A13043EA421381F8A13006F07EF9012810D10E22954B57
:404340001A70954B1B78012B03D15D2106F0D6FD05E0022B03D10120702106F0CFFD64200FF0C8F80EF024FB38BD0EF0F7FA082842F0BD82844B1B78DBB2AA2B40F07281D3
:40438000814B9B79DBB2C32B40F06C817E4BDB79DBB23C2B40F066817A4B1A78072A00F22281DFE812F008003100580020019100B7002001FB00744BDB78DBB2032B0FD8AD
:4043C000714CE17830310120C9B206F0CDFD6D4A137801331370E3781B016D4A82F89D30694BDB78DBB20A2B40F0FD800022684B83F89D20634C01203021227806F0B4FD97
:40440000237801332370EEE05F4BDB78DBB2092B11D85D4CE17830310120C9B206F0A4FDE1785B4A92F89D300B4382F89D30554A137801331370544BDB78DBB20A2B40F060
:40444000D280504C01203021227806F08DFD237801332370C7E04C4BDB78DBB2012B17D801202F2106F080FD464C22780132D2B22270454DE97830310120C9B206F074FD77
:40448000EB781B01424A82F89E302378013323703D4BDB78DBB20A2B40F0A580394C01202F21227806F060FD22780132D2B222700120302106F058FD0022354B83F89E20F7
:4044C0002378013323708EE02F4BDB78DBB2092B11D82D4CE17830310120C9B206F044FDE1782B4A92F89E300B4382F89E30254A137801331370244BDB78DBB20A2B72D13B
:40450000204C01203021227806F02EFD23780133237068E01C4BDB78DBB2092B17D801202F2106F021FD174C22780132D2B22270154DE97830310120C9B206F015FDEB78D8
:404540001B01134A82F89F302378013323700E4BDB78DBB20A2B46D10A4C01202F21227806F002FD22780132D2B222700120302106F0FAFC0022064B83F89F20237801337F
:40458000237030E02D85FF1FB08AFF1F5B83FF1F1487FF1F5A83FF1F0785FF1FA34BDB78DBB2092B11D8A14CE17830310120C9B206F0DAFCE1789E4A92F89F300B4382F87A
:4045C0009F309C4A137801331370984BDB78DBB20A2B08D1974C01203021227806F0C4FC237801332370914BDB78DBB20B2B1BD1904B1B7883B90E228F4B1A708F4B1B7863
:40460000012B04D101205D2106F078FC0CE00120702106F073FC07E0013BDAB2854B1A700120202106F0A0FC804BDB78DBB20C2B18D1804B1B78082B14D106F029F80128EF
:4046400010D10E227C4B1A707C4B1B78012B03D15D2106F053FC05E0022B03D10120702106F04CFC64200EF045FF0EF0A1F938BD0EF074F9082842F03A816C4B1B78DBB233
:40468000AA2B40F00E81694B9B79DBB2C32B40F00881664BDB79DBB23C2B40F00281654B1B780C2B61D8614AD278D2B2092A1ED80133DAB25F4B1A70614B1B7813B1012B46
:4046C00007D00DE0594BD978594B13443031997706E0564BD978564B1344303183F82F10524BD97830310120C9B207F065FA4F4BDB78DBB20A2B18D14E4B1A780132D2B2EF
:404700001A704F4B1B7813B1012B05D009E0484B13443021997704E0454B1344302183F82F100120302107F047FA404BDB78DBB2512B1AD13F4B1B78BBB10133DAB23D4BA6
:404740001A703F4B1B7813B1012B05D009E0384B13442E21997704E0354B13442E2183F82F1001202E2107F027FA304BDB78DBB20B2B49D12F4B1A78002A3DD10E222E4BC7
:404780001A702E4B1B78012B04D101205D2106F0B5FB03E00120702106F0B0FB2F200C2105F0E6FF0022274B1A6008E0264AD15C1F4A1A4482F82F100133224A1360224BFE
:4047C0001A78204B1B689A42F0D220200F2105F0CFFF00221B4B1A6007E01B4AD15C144A1A4491770133174A1360174B1A78154B1B689A42F1D207E00120202107F0DCF996
:404800000C4A1378013B1370084BDB78DBB20C2B47D10E22084B1A70084B1B78012B15D101205D2106F06AFB14E000BFB08AFF1F1487FF1F2D85FF1F5A83FF1F0785FF1F1E
:404840007785FF1F6C83FF1F3485FF1F0120702106F054FB9A4B1B7813B1012B11D020E0984B1B78984901F81E3F202005F042FFB8B90120552106F041FB6422934B1A70AF
:404880000FE0904B1B78904901F82F3F2F2005F031FF30B90120552106F030FB64228B4B1A7064200EF026FE0EF082F838BD0EF055F8082842F01B80854B1B78DBB2AA2B40
:4048C00040F09483824B9B79DBB2C32B40F08E837F4BDB79DBB23C2B40F08883794B1B78172B00F257827A4AD278D2B2092A61D80133DAB2734B1A70714B1B78042B52D875
:40490000DFE803F0031427394B00724B1978012904D16F4BDB7830336F488354002942D16B4BDB78303368498B543CE0694B1978012904D1664BDB78303368488354002901
:4049400031D1634BD978604B1344303183F8431029E0604B1978012904D15D4BDB7830335F488354F9B95A4BD978574B1344303183F8611017E0574B1978012904D1544B2F
:40498000DB7830335748835469B9514BD9784E4B1344303183F87F1005E04D4BD978524B13443031D9724A4BD97830310120C9B207F002F9464BDB78DBB20A2B2BD1414BF0
:4049C0001A780132D2B21A703D4B1B78042B1ED8DFE803F003070D13190030213A4B995415E0394B1344302183F843100FE0364B1344302183F8611009E0334B13443021E2
:404A000083F87F1003E0384B13443021D9720120302107F0D1F82E4BDB78DBB2672B2BD1284B1A780132D2B21A70254B1B78042B1ED8DFE803F003070D1319002321224BDE
:404A4000995415E0204B1344232183F843100FE01D4B1344232183F8611009E01A4B1344232183F87F1003E01F4B13442321D9720120232107F0A0F8154BDB78DBB26A2BB3
:404A800042D1104B1A780132D2B21A700C4B1B78042B35D8DFE803F003070D2A30002D21094B99542CE0084B13442D2183F8431026E0054B13442D2183F8611020E000BF5D
:404AC0007785FF1F2D85FF1F1487FF1F5A83FF1FB08AFF1F1688FF1F0885FF1F6083FF1FB488FF1F1885FF1F7486FF1F934B13442D2183F87F1003E0914B13442D21D972EF
:404B000001202D2107F058F88E4BDB78DBB2662B2BD18D4B1A780132D2B21A708B4B1B78042B1ED8DFE803F003070D1319004021824B995415E0814B1344402183F84310E1
:404B40000FE07E4B1344402183F8611009E07B4B1344402183F87F1003E0794B13444021D9720120402107F027F8764BDB78DBB2692B2BD1744B1A780132D2B21A70734BA5
:404B80001B78042B1ED8DFE803F003070D1319002E216A4B995415E0684B13442E2183F843100FE0654B13442E2183F8611009E0624B13442E2183F87F1003E0604B1344D7
:404BC0002E21D97201202E2106F0F6FF5D4BDB78DBB2682B4BD15C4B1A780132D2B21A705A4B1B78042B3ED8DFE803F0030F1D2B3900574B1B78012B02D120205549885457
:404C00008BBB20214D4B99542DE0514B1B78012B02D12020504988542BBB484B1344202183F843101FE04A4B1B78012B02D120204A498854BBB9414B1344202183F8611040
:404C400011E0434B1B78012B02D12020444988544BB93A4B1344202183F87F1003E0384B13442021D9720120202106F0A5FF354BDB78DBB21A2B40F28D80324BDB78DBB2C9
:404C8000422B00F287800022364B1A607DE02D4AD278D2B234491944097A8A4271D12A490A780132D2B20A7028490978042962D8DFE801F0031223335C002549087801284F
:404CC00003D103F14101234CA154002853D103F141011A4881544EE01D490878012803D103F141011C4CA154002844D11349114403F1410081F843003DE0154908780128E6
:404D000003D103F14101154CA154A0BB0B49114403F1410081F861002DE00D490878012803D103F141010E4CA15420BB0349114403F1410081F87F001DE000BF1487FF1F7D
:404D40007486FF1FB08AFF1F2D85FF1F7785FF1F1688FF1F0885FF1F6083FF1FB488FF1F1885FF1F6C83FF1F0C81FF1FA249114403F14100C87203F141010120C9B206F02D
:404D80001BFF9E4A1368013313609C4B1B68192B7FF67DAF9A4BDB78DBB20B2B76D1994B1A78002A6AD10E22974B1A70974B1B78012B04D101205D2106F0A0F803E0012020
:404DC000702106F09BF84020202105F0D1FC00228A4B1A6008E08E4AD15C8E4A1A4482F843100133854A1360894B1A78834B1B689A42F0D28020202105F0BAFC00227F4B92
:404E00001A6008E0824AD15C824A1A4482F8611001337A4A13607E4B1A78784B1B689A42F0D2A020202105F0A3FC0022734B1A6008E0774AD15C774A1A4482F87F10013337
:404E40006E4A1360724B1A786C4B1B689A42F0D20020202105F08CFC0022684B1A6006E06B4AD15C6B4AD1540133644A1360684B1A78624B1B689A42F2D207E0012020215E
:404E800006F09AFE5F4A1378013B13705C4BDB78DBB20C2B40F0AA800E225B4B1A705B4B1B78012B04D101205D2106F027F803E00120702106F022F8574B1B78042B00F210
:404EC0009580DFE803F0032446688800534B1B78012B07D152494B4B1B780B7040F26A4005F008FC4D4B1B78002B7FD14949454B1B780B70002005F0FDFB002876D10120CA
:404F0000552105F0FBFF64223F4B1A706EE0434B1B78012B07D143493A4B1B780B7040F2754005F0E7FB3D4B1B78002B5ED1354B1B78384901F8433F402005F0DBFB00284B
:404F400054D10120552105F0D9FF64222E4B1A704CE0324B1B78012B07D13349294B1B780B704FF4906005F0C5FB2C4B1B78002B3CD1244B1B78274901F8613F802005F017
:404F8000B9FB002832D10120552105F0B7FF64221D4B1A702AE0214B1B78012B07D12349184B1B780B7040F28B4005F0A3FB1B4B1B78DBB9134B1B78164901F87F3FA0208A
:404FC00005F098FB90B90120552105F097FF64220D4B1A700AE00B4B1A78074BDA720120392105F08BFF2422074B1A7064200EF081FA0DF0DDFC38BD7486FF1F6C83FF1FDD
:40500000B08AFF1F2D85FF1F5A83FF1F0785FF1F3485FF1F1487FF1F7785FF1F1688FF1F0885FF1F6083FF1FB488FF1F1885FF1F0DF094FC082841F05A84B04B1B78DBB295
:40504000AA2B30D1AD4B9B79DBB2C32B2BD1AB4BDB79DBB23C2B26D1A84BDB78DBB25F2B04D07E2B18D05E2B1DD10AE001200B2105F044FF0122A24B5A700A22A14B1A707E
:4050800011E001201D2105F039FF00229E4B1A700B229C4B1A7006E00120002105F02EFF0022984B1A7046200EF024FA0DF080FC38BD0DF053FC082841F019848F4B1B78C0
:4050C000DBB2AA2B40F0C6808C4B9B79DBB2C32B40F0C080894BDB79DBB23C2B40F0BA808A4B1B78062B25D8844AD278D2B2092A0FD80133DAB2854B1A708048C178844B46
:4051000013443031D972C17830310120C9B205F02BFF7A4BDB78DBB20A2B0BD17B4B1A780132D2B21A707A4B13443021D972012005F01AFF714BDB78DBB20B2B24D1734B5C
:405140001A7882B90E226F4B1A70724B1B78012B04D101205D2105F0D1FE15E00120702105F0CCFE10E00120202105F0FDFE674B1B78674A1A44D27A2C2A02D10021664AF8
:405180001170013B614A13705C4BDB78DBB20C2B60D15E4B1B78032B5CD90622594B1A700120392105F0AAFE584B1A78584BDA725A4B18780CF038FA002848D0584B93F813
:4051C000A320584B1B789A4204D140F2B310564905F090FA524B93F8A320544B1B789A4204D140F2A710504905F084FA4C4B93F8A3204F4B1B789A4204D140F2AD104A49EA
:4052000005F078FA464B93F8A3204A4B1B789A4204D14FF47A70444905F06CFA01203C2105F06CFE4FF4FA700EF064F90E22354B1A70384B1B78012B04D101205D2105F070
:405240005DFE07E00120702105F058FE02E00120FDF7C0FB64200EF04DF90DF0A9FB38BD0DF07CFB082841F04283244B1B78DBB2AA2B78D1214B9B79DBB2C32B73D11F4BEF
:40528000DB79DBB23C2B6ED11C4BDB787E3B042B69D8DFE803F06103275159000120582105F02CFE01200021732240F2C31306F081F801200021CF2240F2C51306F07AF8E9
:4052C00001200146292240F2C11306F073F8012001467B2240F2EE3306F06CF81C22094B1A7040E00120062105F008FE0022074B1A701D22034B1A7035E000BFB08AFF1F22
:405300005883FF1F5A83FF1F1385FF1F2D85FF1F7486FF1F0785FF1F5B83FF1F5083FF1F1487FF1FBF88FF1F7F86FF1FFE87FF1F2C85FF1F5D83FF1F01206D2105F0DEFD14
:405340001E22A74B1A700EE001208A2105F0D6FD2A22A34B1A7006E00120002105F0CEFD00229F4B1A7064200EF0C4F80DF020FB38BD0DF0F3FA082841F0B982994B1B7865
:40538000DBB2AA2B56D1974B9B79DBB2C32B51D1944BDB79DBB23C2B4CD1924BDB787E3B042B47D8DFE803F03F03122130000120062105F0A3FD00228B4B1A7001228B4B9F
:4053C00083F8A3201F22864B1A7033E00120062105F094FD0022844B1A700222834B83F8A3201F227E4B1A7024E00120062105F085FD00227C4B1A7003227C4B83F8A32053
:405400001F22774B1A7015E00120062105F076FD0022754B1A700422744B83F8A3201F226F4B1A7006E00120002105F067FD00226B4B1A7064200EF05DF80DF0B9FA38BDC7
:405440000DF08CFA082841F05282664B1B78DBB2AA2B40F0BE80634B9B79DBB2C32B40F0B880604BDB79DBB23C2B40F0B2805E4B1B78042B36D85B4AD278D2B2092A0FD860
:405480000133DAB2584B1A705648C178584B13443031D972C17830310120C9B205F064FD504BDB78DBB20A2B0BD14F4B1A780132D2B21A704E4B13443021D972012005F05B
:4054C00053FD484BDB78DBB2512B0BD1464B1A780132D2B21A70464B13442C21D972012005F042FD3F4BDB78DBB20B2B24D13E4B1A7882B90E223A4B1A703E4B1B78012BE6
:4055000004D101205D2105F0F9FC15E00120702105F0F4FC10E00120202105F025FD324B1B78334A1A44D27A2C2A02D10021324A1170013B2C4A13702A4BDB78DBB20C2BD9
:4055400047D1294B1B78052B43D1294B1B7B353BDBB2022B3DD80120392105F0CFFC224B1B78234901F80B3F4FF4DD7005F0C2F8012805D11E4B1B7B03F00F031F4A137067
:4055800040F25A201E4905F0B5F8012821D1184A937B03F00F031B490B70137C03F00F03194A13703C2105F0A9FC4FF4FA700DF0A1FF0E220A4B1A700E4B1B78012B04D110
:4055C00001205D2105F09AFC03E00120702105F095FC64200DF08EFF0DF0EAF938BD00BF5A83FF1FB08AFF1F2D85FF1F1487FF1F7486FF1F0785FF1F5B83FF1F1485FF1F73
:405600007F86FF1F5E83FF1FFF87FF1F0DF0A6F9082841F06C81A04B1B78DBB2AA2B71D19D4B9B79DBB2C32B6CD19B4BDB79DBB23C2B67D1984BDB78DBB28F2B04D0902B72
:405640002ED07E2B5ED156E09449002381F82D3081F82E304FF4DE702D3105F04BF801281AD100228E4B1A703C2105F047FC4FF4FA700DF03FFF8B4B1B78012B04D10120A9
:405680005D2105F03BFC03E00120702105F036FC0E22854B1A7035E00120FDF79BF931E07E49012381F82D3081F82E304FF4DE702D3105F01FF8012819D1794B18703C21DC
:4056C00005F01CFC4FF4FA700DF014FF754B1B78012B04D101205D2105F010FC03E00120702105F00BFC0E226F4B1A700AE00220FDF770F906E00120702105F0FFFB0E22C7
:40570000694B1A7064200DF0F5FE0DF051F938BD0DF024F9082841F0EA805F4B1B78DBB2AA2B40F0B3805C4B9B79DBB2C32B40F0AD80594BDB79DBB23C2B40F0A7805B4B18
:405740001B782BBB544AD278D2B2092A0FD80133DAB2564B1A705048C178554B13443031D972C17830310120C9B205F0FDFB4A4BDB78DBB20A2B0BD14C4B1A780132D2B242
:405780001A704B4B13443021D972012005F0ECFB414BDB78DBB20B2B1BD1444B1A783AB90120002105F0AAFB00223F4B1A7010E00120202105F0D8FB3C4B1B783C4A1A440D
:4057C000D27A2C2A02D100213A4A1170013B374A1370314BDB78DBB20C2B57D1334B1B78012B53D10120392105F088FB2F4B1A782F4BDA72294B93F8A330012B08D12C49A1
:405800000A7B2D4B1A7040F2C1100B3104F072FF224B93F8A330022B08D125490A7B274B1A7040F2C3100B3104F064FF1B4B93F8A330032B08D11E490A7B214B1A7040F206
:40584000C5100B3104F056FF144B93F8A330042B08D117490A7B1B4B1A7040F2EE300B3104F048FF4FF4FA700DF044FE0E220E4B1A700C4B1B78012B04D101205D2105F0EF
:405880003DFB03E00120702105F038FB64200DF031FE0DF08DF838BDB08AFF1F1487FF1F8285FF1F0785FF1F5A83FF1F2D85FF1F7486FF1F5B83FF1FFE87FF1FBF88FF1F05
:4058C0002C85FF1F5D83FF1F0DF048F8082841F00E80C14B1B78DBB2AA2B40F09E82BE4B9B79DBB2C32B40F09882BB4BDB79DBB23C2B40F09282B84BDB787E3B252B00F299
:405900008C82DFE813F069028A028A028A028A028A022600FE004A0021016E009200DA00B6008A028A028A028A028A028A028A028A0247028A028A022402450171018A021D
:405940008A028A028A028A028A029501B901DD010102A24901230B7000234B7040F2C71004F0C8FE012840F058823C2105F0C6FA4FF4FA700DF0BEFD0E22994B1A70994BE3
:405980001B78012B04D101205D2105F0B7FA44E20120702105F0B2FA3FE2904901230B700B234B7040F2C71004F0A4FE012840F034823C2105F0A2FA4FF4FA700DF09AFD36
:4059C0000E22874B1A70874B1B78012B04D101205D2105F093FA20E20120702105F08EFA1BE27E4901230B7004234B7040F2C71004F080FE012840F010823C2105F07EFAEE
:405A00004FF4FA700DF076FD0E22754B1A70754B1B78012B04D101205D2105F06FFAFCE10120702105F06AFAF7E16C4901230B700C234B7040F2C71004F05CFE012840F0D0
:405A4000EC813C2105F05AFA4FF4FA700DF052FD0E22634B1A70634B1B78012B04D101205D2105F04BFAD8E10120702105F046FAD3E15A4901230B7009234B7040F2C71011
:405A800004F038FE012840F0C8813C2105F036FA4FF4FA700DF02EFD0E22514B1A70514B1B78012B04D101205D2105F027FAB4E10120702105F022FAAFE1484901230B7070
:405AC00008234B7040F2C71004F014FE012840F0A4813C2105F012FA4FF4FA700DF00AFD0E223F4B1A703F4B1B78012B04D101205D2105F003FA90E10120702105F0FEF922
:405B00008BE1364901230B704B7040F2C71004F0F1FD012840F081813C2105F0EFF94FF4FA700DF0E7FC0E222D4B1A702D4B1B78012B04D101205D2105F0E0F96DE10120F9
:405B4000702105F0DBF968E1244901230B7006234B7040F2C71004F0CDFD012840F05D813C2105F0CBF94FF4FA700DF0C3FC0E221B4B1A701B4B1B78012B04D101205D215C
:405B800005F0BCF949E10120702105F0B7F944E1124901230B700E234B7040F2C71004F0A9FD012840F039813C2105F0A7F94FF4FA700DF09FFC0E22094B1A70094B1B78CD
:405BC000012B04D101205D2105F098F925E10120702105F093F920E1B08AFF1F2885FF1F5A83FF1F0785FF1FC04901230B700D234B7040F2C71004F07DFD012840F00D818C
:405C00003C2105F07BF94FF4FA700DF073FC0E22B74B1A70B74B1B78012B04D101205D2105F06CF9F9E00120702105F067F9F4E0AE4901230B7003234B7040F2C71004F012
:405C400059FD012840F0E9803C2105F057F94FF4FA700DF04FFC0E22A54B1A70A54B1B78012B04D101205D2105F048F9D5E00120702105F043F9D0E09C4901230B7005237E
:405C80004B7040F2C71004F035FD012840F0C5803C2105F033F94FF4FA700DF02BFC0E22934B1A70934B1B78012B04D101205D2105F024F9B1E00120702105F01FF9ACE076
:405CC0008A4901230B7007234B7040F2C71004F011FD012840F0A1803C2105F00FF94FF4FA700DF007FC0E22814B1A70814B1B78012B04D101205D2105F000F98DE00120C0
:405D0000702105F0FBF888E0784901230B700A234B7040F2C71004F0EDFC01287DD13C2105F0ECF84FF4FA700DF0E4FB0E22704B1A70704B1B78012B04D101205D2105F0C6
:405D4000DDF86AE00120702105F0D8F865E0674901230B7002234B7040F2C71004F0CAFC01285AD13C2105F0C9F84FF4FA700DF0C1FB0E225E4B1A705E4B1B78012B04D1E9
:405D800001205D2105F0BAF847E00120702105F0B5F842E0554900230B704B7040F2C71004F0A8FC012838D13C2105F0A7F84FF4FA700DF09FFB0E224D4B1A704D4B1B7884
:405DC000012B04D101205D2105F098F825E00120702105F093F820E0444900230B704B7040F2C71004F086FC01280FD10E22404B1A70404B1B78012B03D15D2105F07EF88D
:405E00000BE00120702105F079F806E00120002105F074F80022364B1A7064200DF06AFB0CF0C6FD38BD0CF099FD08284ED1324B1B78DBB2AA2B44D12F4B9B79DBB2C32B9E
:405E40003FD12D4BDB79DBB23C2B3AD12A4BDB78DBB20A2B29D10122284B1A6010E0284B5878284B19780122274B1B7806F0EEFA4FF4FA700DF03EFB204A13680133136007
:405E8000224B1B7803F00F031C4A12689342E6D201200C2105F032F81D480CF0A9FF0CF079FF6422124B1A700BE001200C2105F025F864220E4B1A7015480CF099FF0CF078
:405EC00069FF64200DF016FB0CF072FD114B1B78132B40F20C8501200C2105F00FF86422034B1A7000220B4B1A7038BD2885FF1F5A83FF1F0785FF1FB08AFF1F3085FF1F13
:405F00007086FF1F1788FF1F5083FF1FB088FF1F752200007685FF1F0CF020FD082840F0E684B04B1B78DBB2AA2B5ED1AD4B9B79DBB2C32B59D1AB4BDB79DBB23C2B54D183
:405F4000A84BDB78DBB2392B0FD002D8382B05D04BE07E2B42D0942B35D046E00021A24B1970012004F0CAFF3FE09F4D00232B7001203B2104F0C2FF9C4C607807F070FA98
:405F800060780A2104F03EFC60780A2104F03AFC60780A2104F036FC60781D2104F032FC6078562104F02EFC6078312104F02AFC64232B7001228E4B1A708E480CF018FFE0
:405FC0000CF0E8FE11E001202F2104F097FF0022894B1A702822844B1A7006E00120002104F08CFF0022804B1A7064200DF082FA0CF0DEFC38BD0CF0B1FC082840F07784C6
:40600000784B1B78DBB2AA2B48D1764B9B79DBB2C32B43D1734BDB79DBB23C2B3ED1714BDB78DBB2912B08D002D87E2B27D035E0922B13D0942B2AD030E001200A2104F0AE
:406040005DFF01226D4B1A7004226D4B1A700022694B1A701822644B1A701FE001206F2104F04CFF2122654B1A700422644B1A700022614B1A7018225B4B1A700EE0012088
:40608000002104F03BFF0022574B1A7006E00120702104F033FF0E22534B1A7064200DF029FA0CF085FC38BD564B012013F80B1F524A127804F08CFD012820D16E2104F0E0
:4060C0001DFF2322484B1A700120014604F0A6FC052810D90A200DF00DFA012005F0E8FC0120212104F09AFC052840F20084012005F05CFC38BD0120FCF76CFC38BD012021
:40610000FCF768FC38BD0CF029FC082840F0EF83344B1B78DBB2AA2B40F09580314B9B79DBB2C32B40F08F802E4BDB79DBB23C2B40F089802B4BDB78DBB2392B04D07E2BEC
:4061400047D0382B7FD13CE02F4B5A78012A07D1264901230B704B702C490B7002234B70022A08D1214B01221A7003215970274B1A7004225A7040F263201C4904F0BAFA98
:40618000012860D140F26520204904F0B3FA012859D1682104F0B2FE4FF4FA700DF0AAF90E22114B1A701A4B1B78012B04D101205D2104F0A3FE46E00120702104F09EFE4C
:4061C00041E02622084B1A700120672104F096FE39E0104B5B78012B1ED100220D4B5A701DE000BFB08AFF1F5A83FF1F7086FF1F7685FF1F752200002D85FF1F7885FF1FC4
:406200007785FF1F7486FF1F6C86FF1F1087FF1F0785FF1F5883FF1F0122B54B5A7040F2DA30B34904F066FA01203C2104F066FE4FF4FA700DF05EF90120002104F05EFEE2
:406240000022AC4B1A7064200DF054F90CF0B0FB38BD0CF083FB082840F04983A64B1B78DBB2AA2B40F0C880A34B9B79DBB2C32B40F0C280A04BDB79DBB23C2B40F0BC807F
:406280009D4BDB78DBB28C2B09D003D87E2B00F0AC80B1E08D2B40D08E2B79D0ACE0974B5B78012B07D1964A0120107002215170944A10705170022B07D1914B0121197036
:4062C00004225A708F4B19705A7040F263208C4904F010FA012840F08F8040F26520894904F008FA012840F087806A2104F006FE4FF4FA700DF0FEF80E227E4B1A70824B3F
:406300001B78012B04D101205D2104F0F7FD73E00120702104F0F2FD6EE0784B5A78012A06D1774901230B704B7076490B704B70022A07D1724B0121197003225A70714B4F
:4063400019705A7040F263206D4904F0D3F9012852D140F265206B4904F0CCF901284BD1692104F0CBFD4FF4FA700DF0C3F8664B1B78012B04D101205D2104F0BFFD03E0C8
:406380000120702104F0BAFD0E225A4B1A7033E05B490120087000224A705A4B18705A7040F2632004F0A6F9012825D140F26520544904F09FF901281ED16C2104F09EFD83
:4063C0004FF4FA700DF096F80E224A4B1A704E4B1B78012B04D101205D2104F08FFD0BE00120702104F08AFD06E00120002104F085FD00223F4B1A7064200DF07BF80CF0EE
:40640000D7FA38BD0CF0AAFA082840F070823A4B1B78DBB2AA2B40F0F180374B9B79DBB2C32B40F0EB80344BDB79DBB23C2B40F0E580364B1A78032A26D82F4BDB78DBB2E9
:40644000092B0ED82C4BD978314B1344303183F88E1001202A2104F087FD2C4A137801331370254BDB78DBB20A2B0DD1274C2278274B1344302183F88E1001202A2104F04E
:4064800073FD2378013323701B4BDB78DBB20B2B0ED11E4B1B781BB90120FCF79BFA07E0013BDAB2194B1A700120202104F05CFD114BDB78DBB20C2B40F0A080134B1A7837
:4064C000002A00F08C80002312490B6012490B602BE0591C1148405C0D4C234493F88E3098421DD10B480368013303601BE000BF5883FF1F5A83FF1FB08AFF1F6C86FF1F16
:406500007086FF1F1087FF1F0785FF1F2D85FF1F7486FF1F8485FF1F6C83FF1F0C81FF1F0020AF4B1860AF4B19601046AD4B1B689A42CED8AC4B1A78A94B1B689A420FD10D
:406540000120262104F0DAFC4FF4FA700CF0D2FF2222A64B1A700120712104F0CFFC4DE000239F4A13609F4A136010E09E4A1A4492F824109E4A1A4492F88E20914203D11D
:4065800097490A6801320A600133964A1360954B1B689842EAD8924B1B68042B0FD10120262104F0ABFC4FF4FA700CF0A3FF22228E4B1A700120712104F0A0FC1EE00120A0
:4065C000272104F09BFC6422884B1A700122894B1A7089480CF00CFC0CF0DCFB0EE00120272104F08BFC6422804B1A700122814B1A7081480CF0FCFB0CF0CCFB64200CF097
:4066000079FF0CF0D5F938BD0CF0A8F9082840F06E817A4B1B78DBB2AA2B7AD1774B9B79DBB2C32B75D1754BDB79DBB23C2B70D1734B1A78032A27D8704BDB78DBB2092B07
:4066400010D86E48C1786A4B1344303183F88E10C17830310120C9B204F086FC684A137801331370654BDB78DBB20A2B0CD1644C22785F4B1344302183F88E10012004F0B1
:4066800073FC2378013323705C4BDB78DBB20B2B0ED15B4B1B781BB90120FCF79BF907E0013BDAB2564B1A700120202104F05CFC524BDB78DBB20C2B2BD1514B1B78042B22
:4066C00027D10120392104F019FC0023474A13704B4A127844490A7042490B6008E0591C4348034493F88E003F4B58543D4B19603C4B1B689A42F2D840F29F203A4903F035
:40670000F9FF30B90120552104F0F8FB6422374B1A7064200CF0EEFE0CF04AF938BD0CF01DF9082840F0E380344B1B78DBB2AA2B4FD1324B9B79DBB2C32B4AD12F4BDB796A
:40674000DBB23C2B45D12D4BDB78DBB2BC2B08D002D87E2B36D03CE0BD2B12D0BE2B21D037E00120702104F0C9FB264901230B704B704FF47D7003F0BDFF0E221B4B1A7066
:4067800027E00120702104F0B9FB1E4901230B7002234B704FF47D7003F0ACFF0E22134B1A7016E00120062104F0A8FB0122164B1A700023124A1370144A137005220B4B69
:4067C0001A7006E00120702104F098FB0E22074B1A7064200CF08EFE0CF0EAF838BD00BF8485FF1F6C83FF1F0C81FF1F5A83FF1F7486FF1F7685FF1F75220000B08AFF1F4C
:406800002D85FF1F6C86FF1F6F86FF1F5B83FF1F0CF0A4F808286AD1354B1B78DBB2AA2B60D1334B9B79DBB2C32B5BD1304BDB79DBB23C2B56D12E4BDB78763B0D2B51D8BF
:40684000DFE803F007385050505050504950505017270120302104F051FB0023254A1370254A13700122254B1A701822244B1A7038E00120302104F041FB01231D4A1370F7
:4068800000211D4A11701D4A137018221C4B1A7028E00120302104F031FB0222154B1A700022154B1A700122144B1A701822144B1A7017E00120302104F020FB03220D4BE2
:4068C0001A7000220C4B1A7001220C4B1A7018220B4B1A7006E001205F2104F00FFB1B22074B1A7064200CF005FE0CF061F838BDB08AFF1F7785FF1F2D85FF1F1688FF1F84
:406900005A83FF1F38B5984B1B78642B03F21586DFE813F074008000131EA100000188013B02D902131E410331048A04F7047905AC05A006A3070A08A4083D09CF09470BC8
:40694000960C1B0E390F1A125B124913AA132E14FE149C15601638199B19221A7B1AAB1A341B271C2A1DB51D131E131E131E131E131E131E131E131E131E131E131E131E45
:40698000131E131E131E131E131E131E131E131E131E131E131E131E131E131E131E131E131E131E131E131E131E131E131E131E131E131E131E131E131E131E131E131EB7
:4069C000131E131E131E131E131E131E131E131E131E131E131E131E131E131E6500634B1B78012B43F2A98500245F4B1C700CF0C7FA0CF029FA5D4B1C7038BD5C480CF0B5
:406A0000B1FA0CF081FA0022584B1A700122564B1A7038BD0CF090F8082843F08E850CF0B5F80CF0ADFA0CF00FFA524B1B78022B04D10220632104F061FA03E002204521C5
:406A400004F05CFA64200CF055FD0CF09FF80322454B1A7038BD0CF06FF8082843F06D85454B1B78DBB2AA2B4ED1434B9B79DBB2C32B49D1404BDB79DBB23C2B44D13E4B2F
:406A8000DB78DBB2592B2DD002D8452B1FD03BE05C2B02D07E2B30D036E00022374BDA70344B1B78012B06D10220052104F026FA04222D4B1A702F4B1B78022B24D1022031
:406AC000492104F01BFA1922274B1A701CE00220252104F013FA0022294B1A700F22224B1A7011E00220252104F008FA0022244B1A7027221C4B1A7006E00220002104F07E
:406B0000FDF90022184B1A7064200CF0F3FC0CF03DF838BD0CF010F8082843F00E85164B1B78DBB2AA2B77D1134B9B79DBB2C32B72D1114BDB79DBB23C2B6DD10F4AD3786D
:406B400023F00303D3700C4BDB78DBB23B2B4BD004D80F2B16D0102B28D05DE0432B3BD07E2B52D058E000BF2B85FF1F0585FF1FBD2200000785FF1FC48AFF1F1888FF1F31
:406B80000D87FF1F0220062104F0B8F90022A74B1A700220482104F0E7F9A54AD37843F00203D3700522A34B1A7035E002200D2104F0A4F900229D4B1A709F4B1A700220C4
:406BC000472104F0D1F99A4AD37843F00103D3700522984B1A701FE00220072104F08EF90622944B1A7017E0944B1B78022B04D10220632104F082F903E00220452104F0FE
:406C00007DF903228B4B1A7006E00220002104F075F90022874B1A7064200CF06BFC0BF0B5FF38BD0BF088FF082843F08684844B1B78DBB2AA2B40F0A280814B9B79DBB253
:406C4000C32B40F09C807E4BDB79DBB23C2B40F09680764B1B787B4A1278013A93423EDC774AD278D2B2092A0FD80133DAB26F4B1A707348C1786E4B13443031D972C17820
:406C800030310220C9B204F06FF96D4BDB78DBB20A2B0BD1654B1A780132D2B21A70644B13443021D972022004F05EF9644BDB78DBB2512B13D15D4B1B7883B15E4A1278AF
:406CC0006AB90133DAB2594B1A70594B13442C21D972022004F048F90122574B1A70584BDB78DBB20B2B1BD1504B1A783AB90220052104F003F904224E4B1A7010E00220F2
:406D0000202104F031F9494B1B78494A1A44D27A2C2A02D10021484A1170013B434A1370474BDB78DBB20C2B29D1404B1B786BB1454B1B7853B90220072104F0DFF83B4B40
:406D40001A783B4BDA7206223A4B1A70374B1B78ABB13D4B1B78012B11D10220702104F0CDF8334B1B7B39490B7040F28D4003F0C1FC0022344B1A700E222E4B1A706420D0
:406D80000CF0B8FB0BF002FF38BD64200CF0B2FB0BF0D2FE082820D1294B1B78DBB2AA2B15D1274B9B79DBB2C32B10D1244BDB79DBB23C2B0BD1224BDB78DBB27E2B06D189
:406DC0000220002104F09AF800221A4B1A7064200CF090FB0BF0DAFE38BD1D4B187906F02BFF072843F0A98332200CF083FB184B187906F035FF174B187032200CF07AFBA8
:406E00000B4BDB7813F0030328D0114A1079114A1178114A0AF0C6F900BB0220002104F06DF80022034B1A7038BD00BF0D87FF1F1888FF1F2B85FF1F2E85FF1F0785FF1F0E
:406E4000C48AFF1F1485FF1F6F86FF1FB088FF1F5083FF1F7286FF1F2388FF1F01200CF0F3FA9A4B187906F0FBFE994B1870002803F06383974B1B7803F00F03834211D0BA
:406E8000954B1B7803F00F0398420BD0934B1B7803F00F03984205D0914B1B7803F00F03984202D102200AF0FDFD884B187940F010000BF0E5F80220082104F01FF807224E
:406EC000884B1A7038BD32200CF014FB7F4B187906F0B2FE0A282FD00B2803D0062843F02C8350E064200CF005FB784B187906F02BFF01280CD17C4B1B784BB90220392197
:406F000003F0FCFF14200CF0F5FA0D22754B1A706E4B187906F018FF012843F00E83724B1B78012B43F0098302200C2103F0E6FF00226C4B1A7038BD644B187906F004FF94
:406F400001280CD1684B1B784BB90220392103F0D5FF14200CF0CEFA0D22624B1A705B4B187906F0F1FE012843F0E7825E4B1B78012B43F0E28202200C2103F0BFFF00221E
:406F8000584B1A7038BD0220002103F0B7FF0022544B1A7038BD0BF0CFFD082840F0D680524B1B78DBB2AA2B40F0CB804F4B9B79DBB2C32B40F0C5804C4BDB79DBB23C2B7C
:406FC00040F0BF8000224A4B1A704A4B1B78062B65D8464AD278D2B2092A10D80133DAB2444B1A704148C178434B1344303183F86510C17830310220C9B203F0B5FF3B4B9D
:40700000DB78DBB20A2B0CD13A4B1A780132D2B21A70394B1344302183F86510022003F0A3FF324BDB78DBB26A2B0CD1314B1A780132D2B21A70304B13442D2183F8651005
:40704000022003F091FF294BDB78DBB21A2B26D9264BDB78DBB2422B21D80022274B1A6019E0224AD278D2B225491944097A8A420DD120490A780132D2B20A704133D9B2C8
:407080001D4B134483F86510022003F06DFF1B4A136801331360194B1B68192BE1D9134BDB78DBB20B2B35D1124B1A7852BB02200B2103F023FF104B002283F8652083F863
:4070C00083200A22074B1A7024E000BF5083FF1F7286FF1FFE87FF1FBF88FF1F2C85FF1F5D83FF1F2B85FF1F5C83FF1FC48AFF1F0585FF1F0D87FF1F1888FF1F6C83FF1FEA
:407100000C81FF1F0220202103F02EFFA44A1378013B1370A34BDB78DBB20C2B11D1A04B1B7873B10220052103F0E8FE9E4B9C4A127883F86520012283F8832004229B4B99
:407140001A7064200CF0D6F90BF020FD984B1B781D2B43F2F28102200B2103F0CFFE924A002382F8653082F88330914A13700A228E4B1A7038BD0BF0DFFC082844D1894B9E
:407180001B78DBB2AA2B3AD1864B9B79DBB2C32B35D1844BDB79DBB23C2B30D1814BDB78DBB2382B18D0392B29D100227C4B1A707D4BDB7813F0040F0AD102200A2103F03D
:4071C0009DFE00227B4B1A700922784B1A7016E00D22764B1A7012E00220052103F08EFE714BDB7813F0040F03D10122714B1A7002E000226F4B1A7004226C4B1A7064204C
:407200000CF078F90BF0C2FC694B1B781D2B43F2948102200C2103F071FE0122644B1A706422624B1A7038BD0220012103F0F6FB052840D90A200CF05DF90220212103F04F
