:4000000000800020110000009D0000009D00000080B500AF064B064A126842F020021A60044B054A12681A6000F004FB00F03AF8E8460040BC760040FA46004010B5054CEF
:40004000237833B9044B13B10448AFF300800123237010BD2881FF1F00000000901D000008B5064B1BB106480649AFF300800648036813B1054B03B1984708BD00000000C2
:40008000901D00002C81FF1F0881FF1F0000000080B500AF00F078FAFEE700BF80B400AFFEE700BF80B586B000AF224B7B61224B3B61204B7B6135E03B691B68FB603B69C2
:4000C0005B68BB603B699B683B6000237B600CE0FB681A68BB681A60BB680433BB60FB680433FB607B6804337B607A683B689A42EED13B69DB683B6000237B6008E0BB686A
:4001000000221A60BB680433BB607B6804337B607A683B689A42F2D13B6910333B617B69013B7B617B69002BC6D101F0F5FDFFF7AFFFFEE701000000A021000080B582B0DB
:4001400000AF174B174A1A60174B174A126842F400721A6000237B600FE07B68032B04D8124B7A6853F8223000E0114B114A796842F821307B6801337B607B682F2BECD987
:400180000D4B1B78DAB20D4B1A700D4B094A1A6000F026F90B4B00221A600837BD4680BD0CED00E00004FA0514ED00E0000000009D0000000080FF1FBC7600400481FF1F34
:4001C00008ED00E00081FF1F80B582B000AF78603960786800213A6801F0CDFD0837BD4680BD00BF80B584B000AFF860B9607A60F868B9687A6801F0B5FD1037BD4680BD78
:4002000080B584B000AFF860B9607A60F868B9687A6801F0A7FD1037BD4680BD80B483B000AF0346FB71FEE780B487B000AF7860396000233B6100237B6126E07B699B005E
:400240007A6813441B68BB60BB68FB73BB6823F0FF03BB6013E03B695B003A6813441B781A46BB6813443A69520039680A4452781A703B6901333B61FB7B013BFB73FB7B29
:40028000002BE8D17B6901337B617B69102BD5D91C37BD465DF8047B704700BF80B582B000AF304B19221A802F4B18221A702F4B02221A704FF0402308221A702C4B03223B
:4002C0001A702C4B2C4A1278D2B21A702B4B08221A802B4B41F251221A800023FB7019237B6014E0FB785B00DAB2264B1B78DBB203F00103DBB21343DBB203F00303FB70B0
:400300004FF4F07000F00CFF7B68013B7B607B68002B02D0FB78032BE4D17B68002B02D10320FFF77BFF184B4FF480721A80164B07221A70154B00221A70154B48221A70D5
:40034000114B00221A70134B02221A70124B124A1278D2B242F00102D2B21A700837BD4680BD00BF80400040824000400043004000420040A14600400801004922420040FD
:40038000204200402542004004400040064000400840004001400040A243004080B483B000AF0B4B1B78FB710A4BFA7902F00702D2B21A70084BFA791209D2B21A70074B3F
:4003C00044221A700C37BD465DF8047B704700BFCF0100496E5800406F5800407658004080B582B000AF72B6334B334A1278D2B242F02402D2B21A700023FB7113E0FA79A7
:4004000013465B0013445B002C4A13443B603B681A683B689B889BB210461946FFF7D4FEFB790133FB71FB79072BE8D924482549FFF7FAFE244B244A1278D2B242F00202D5
:40044000D2B21A70214B214A1278D2B242F00202D2B21A701E4B1E4A1278D2B242F04002D2B21A701B4B1B4A1278D2B242F01002D2B21A70184819490A22FFF7C1FE184BB3
:40048000174A1278D2B242F00802D2B21A70154B01221A70FFF702FF124B81221A70124B01221A70FFF77AFF104809490E22FFF799FE0837BD4680BDE8460040941D000077
:4004C000C41D0000081E00000350014013500140A0430040C24300406051004068210000224300400048004004000840B043004080B485B000AF78600B467B800023FB8154
:400500000BE07B88013B7A6813441B781A46FB891344FB817B88013B7B807B88002BF0D1FB895B429BB218461437BD465DF8047B704700BF80B586B000AFF860B9607A601C
:400540000023FB75FA680F4B9A4206D0FB68002B03D0002000F070FF0CE00BE07B68013B7B60FA68BB681A447B6813441A78FB7D1344FB757B68002BF0D1FB7D18461837E7
:40058000BD4680BD0080004080B582B000AF06237B60002000F06EF80346002B01D100237B601C4B1B681B68002000211A46FFF7C1FF0346FB70184B1B681B78FA78D31A17
:4005C000FB70FB785B42FB70134B1B681B78FA789A4204D10F4B1B681B68002B02D1002000F02AFF0D4B1B78DBB203F0C003402B02D07B68002B05D0084B00221A7000207A
:4006000000F0AEF8322000F0ABF800F009F80837BD4680BD1081FF1F0C81FF1FFA46004080B500AF024B80221A7000F011FF80BDFA46004080B500AF0C4B1B78DBB203F08D
:40064000C003802B11D1094B00221A700220002100F0DCFB0346002B07D00220002100F0D5FB0346184600F003F880BDFA460040004700BF90B587B000AF0346FB71FB7929
:400680000320194600F0C2FB034601331C02FB790420194600F0BAFB03462344FB600023FB740023BB74FB790320194600F0AEFB034601331B027B6111E07B691B78FB720B
:4006C000FB7A002B04D0FB7AFF2B01D00123FB74BA7CFB7A1344BB747B6901337B617A69FB689A42E9D3FB790320194600F08EFB034601331B02DB087B61FA68174B9A4218
:4007000002D0FB68DB0801E04FF40043FB600AE07B6903F190431B78DAB2BB7C1344BB747B6901337B617A69FB689A42F0D3BB7C5B42BB74BC7CFB790120194600F066FB15
:4007400003469C4202D1FB7C002B01D1062300E0002318461C37BD4690BD00BFC0FF030080B5ADF5247D00AF0246FB1D1A700023A7F88A320023A7F888320A2387F88732ED
:40078000002387F8863200F055FD0346002B02D0002000F051FE00F01BFC62B6002387F88D32FB1D1B78002B02D0FB1D1B7800E0FF2307F59E7107F26A2208464FF49671FB
:4007C00000F034FCC7F87802FB1D1B78002B04D097F88732013B87F8873297F88732002B03D0D7F87832002BDBD1D7F87832002B00D0B0E2B7F86A32062B04D907F59E7338
:400800001B78012B03D0042387F88D3244E007F59E73DB781B029AB207F59E739B781343A7F88A32B7F88A32053307F59E72D35C1B029AB2B7F88A32043307F59E71CB5CE8
:400840001343A7F87632B7F88A32DA1DB7F86A329A4203D9032387F88D321DE0B7F88A32063307F59E72D35C172B03D0042387F88D3211E0B7F88A3204339BB207F59E72D0
:4008800010461946FFF734FE0346B7F876229A4202D0082387F88D320023A7F88E3297F88D32002B40F04C8207F59E731B7987F87532042387F88D3207F59E735B78313B43
:4008C0000A2B00F2398201A252F823F0F908000033090000390D0000CD0900003F0B0000390D0000510B0000A70B0000CD090000EB0B0000210D000097F88632012B17D1CA
:40090000B7F88A32002B13D10020FFF7B3FE0346002B14BF00230123DBB21A4607F59E731A710123A7F88E32002387F88D3207E206E297F88632012B47D1B7F88A32012B8C
:4009400043D197F87532032B3FD8D14B1B681B681B0C87F8743297F8752297F874329A4208D1CB4B1B681B681B0A9BB2DBB2A7F884320DE097F8752297F874329A4203D9FA
:400980000023A7F8843203E04FF48073A7F88432B7F88432DAB207F59E731A71B7F884321B0A9BB2DAB207F59E735A7107F59E73FF229A7107F59E730022DA710423A7F814
:4009C0008E32002387F88D32BAE1B9E107F59E735B78342B23D197F88632012B40F0B081B7F88A32032B40F0AB8197F875323F2B08D997F875325BB2002B03DB1023A7F806
:400A0000883203E04FF49073A7F88832B7F8883207F11002104600211A4601F0ACF997F88632012B40F08A80B7F88A32022B40F28580B7F8883207F11002D118B7F88A3257
:400A4000033B07F59E720732084611461A4601F089F9B7F88822B7F88A3213449BB2033BA7F8883297F875323F2B0AD997F875325BB2002B05DB00F099FC1023A7F88A3298
:400A800003E04FF49073A7F88A32B7F88822B7F88A329A424BD107F59E739B791B029AB207F59E735B791343A7F8883297F875323F2B27D897F875329BB21B029AB2B7F8A2
:400AC00088321344A7F87232714B1B681B681B0AA7F882326E4B1B681B68DBB2002B04D0B7F882320133A7F88232B7F87222B7F882329A4206D20A2387F88D320023A7F8AC
:400B000088321DE197F87502B7F8881207F11002B7F88A3200F0A0FB0346002B01D00A2300E0002387F88D3200F0D6FC02E0032387F88D320023A7F8883201E100E197F825
:400B40008632012B03D10023A7F8883203E1F7E097F88632012B25D1B7F88822B7F88A321344B3F5967F19D8002387F88D32B7F8883207F11002D118B7F88A3207F59E7220
:400B80000432084611461A4601F0ECF8B7F88822B7F88A321344A7F8883203E0032387F88D32CDE0CCE0B7F88A32002B1CD107F10803384A92E8030083E80300012387F87B
:400BC00086320823A7F88E32B7F88E3207F59E72111D07F10802084611461A4601F0C2F8002387F88D32ABE0AAE097F88632012B40F09580B7F88A32032B40F0908007F555
:400C00009E739B791B029AB207F59E735B791343A7F8703297F875323F2B13D997F875325BB2002B0EDBB7F870321B01C7F86C321948D7F86C121022FFF77CFC034687F8EB
:400C4000813212E097F875321A02B7F8703213441B02C7F86C320020D7F86C124FF48072FFF768FC034687F8813297F875323F2B29D897F8753203F510331A02B7F8703265
:400C800013445B01C7F86C320023A7F87E3216E01081FF1F7421000000800040B7F87E22D7F86C3213441B78DAB297F88132134487F88132B7F87E320133A7F87E32B7F82A
:400CC0007E321F2BEAD997F87532032B19D1B7F87032FF2B15D10520002100F097F80346DBB297F88122D31A87F881320620002100F08CF80346DBB297F88122D31A87F86D
:400D0000813297F881325B42DAB207F59E731A71002387F88D320123A7F88E3210E00FE00020FFF7A7FC0346002B02D1114B80221A7000F08DFB03E0052387F88D3200BF32
:400D400097F88D1207F59E72B7F88E32084611461A4600F011F8FB1D1B78002B3FF41EAD97F88632012B3FF419AD07F52477BD4680BD00BFFA46004080B584B000AF3960C5
:400D800013460246FA71BB803B6801221A703B680133FA791A703B680233BA88D2B21A703B680333BA88120A92B2D2B21A70BB8804339BB238681946FFF79AFB0346FB8101
:400DC000BB8804333A681344FA89D2B21A70BB8805333A681344FA89120A92B2D2B21A70BB8806333A68134417221A70BB8807339AB23B1D386811461A46962300F0F2F847
:400E0000034618461037BD4680BD00BF80B586B000AF02460B46FA71BB710223FB740023FB60FB79013B092B00F2928001A252F823F000BF5D0E0000770E0000910E000033
:400E4000A70E0000C10E0000DB0E00000B0F0000F50E0000210F0000370F0000BA7913461B069B1A1B0203F57F3303F570737B610123FB7472E0BA7913461B069B1A1B022E
:400E800003F57F3303F2C1337B610423FB7465E0BA7913461B069B1A1B0203F57F3303F2C5337B615AE0BA7913461B069B1A1B0203F57F3303F2C9337B610423FB744DE003
:400EC000BA7913461B069B1A1B0203F57F3303F574737B610123FB7440E0BA7913461B069B1A1B0203F57F3303F2D1337B610123FB7433E0BA7913461B069B1A1B0203F540
:400F00007F3303F2D6337B6128E0BA7913461B069B1A1B0203F57F3303F2D2337B611DE0BA7913461B069B1A1B0203F57F3303F575737B6112E0BA7913461B069B1A1B02CB
:400F400003F57F3303F576737B610423FB7405E0002000F071FA00237B6100BFFB7C012B03D17B691B78DBB2FB60FB7C022B0BD17B691B78DBB2FB607B6901331B78DBB269
:400F80001B02FA681343FB60FB7C042B1BD17B691B78DBB2FB607B6901331B78DBB21B02FA681343FB607B6902331B78DBB21B04FA681343FB607B6903331B78DBB21B06E2
:400FC000FA681343FB60FB6818461837BD4680BD80B500AF00F0A0FC00F0A0FD00F0F6FD80BD00BF80B586B000AFF8607A600A467A817B720023FB8200F090FD09E0FB8AA3
:40100000FA6813441B78184600F0C6FDFB8A0133FB82FA8A7B899A42F1D37B687A891A80002318461837BD4680BD00BF90B589B000AFF8607A600A467A817B720523BB61CB
:401040000023FB831AE000F021FD0346002B0FD000F01CFD0346FB82192000F009FA00F015FD0346FA8A9A42F2D30023BB610DE0012000F0FDF9FB8B0133FB83F98B7A7A26
:4010800013469B0013445B009942DCDB7B6800221A800023BB8336E000F0F8FC0346BB827B681A88BB8A13449AB27B681A807B681B887A899A421ED90023FB830CE0BB8B5F
:4010C000FA68D41800F098FC03462370BB8B0133BB83FB8B0133FB83FA8BBB8A9A42EED3BB8B013BFA6813441B78172B0BD0052000F0BEF907E07B681A88BB8AD31A9AB24A
:401100007B681A8004E000F0C1FC0346002BC3D1BB6918462437BD4690BD00BF000000000230800800F0058000BF013800467FF4FCAF7047EFF3108072B6704780F310880F
:40114000704700BFAFF3008080B582B000AF00F039FA4FF0FF337B6000F05EFB0346002B24D1012000F026FB0346072B1BD11348022100F049FA0346022B0DD100237B6004
:4011800002E0012000F096F90D4B1B78DBB203F00203002BF5D006E0094B1B78DBB203F00203002BE3D000F06BFB01E004237B607B6818460837BD4680BD00BF5481FF1F72
:4011C0002247004080B582B000AF00F0FBF900F023FB0346002B23D100F07AFB78607B68072B1AD102E0012000F064F9104B1B78DBB203F00203002BF5D00D4B1B78DBB26E
:4012000003F00203002B08D0094B1B78DBB29B08DBB2002B01D100237B6000F031FB01E004237B607B6818460837BD4680BD00BF2247004080B582B000AFFFF7C3FF786047
:401240007B68002B02D1FFF77FFF78607B6818460837BD4680BD00BF80B586B000AFBA600246FA730A46BA81FB8000237B61FB7B3F2B04D8FB7B042B01D901237B61FB7B23
:401280005BB2002B01DA01237B61FB7B3F2B04D9FB7B412B01D901237B61FB7B3F2B06D8BB89B3F5807F0CD901237B6109E0BB89802B01D901237B61FB88102B01D00123AF
:4012C0007B61BB68002B01D101237B617B69002B62D100F0A1FA0346002B5BD1F97BBA89FB8808461146BA6800F0BAF978617B69072B4CD102E0012000F0DCF8294B1B7807
:40130000DBB203F00203002BF5D0264B1B78DBB203F00203002B09D0224B1B78DBB29B08DBB2002B02D100237B6102E04FF0FF337B617B69002B2AD11B4B1A781A4B5B7888
:40134000F87BB98900F0F2F978617B69072B1ED102E0012000F0AEF8124B1B78DBB203F00203002BF5D00F4B1B78DBB203F00203002B09D00B4B1B78DBB29B08DBB2002BBA
:4013800002D100237B6102E04FF0FF337B6100F077FA01E004237B617B6918461837BD4680BD00BF224700405481FF1F80B582B000AFFFF7BFFE0346FB71194B184A1278ED
:4013C000D2B242F00802D2B21A70164B154A1278D2B242F00802D2B21A70134BC8221A70124B124A1278D2B242F01002D2B21A700F4B0F4A1278D2B242F01002D2B21A7009
:4014000000BF0C4B1B78DBB203F02003002BF8D0FB791846FFF792FE0837BD4680BD00BFA0430040B043004001470040AC430040BC4300400047004080B483B000AF0346A5
:40144000FB7101BE0C37BD465DF8047B704700BF80B400AF054B054A1278D2B242F00102D2B21A70BD465DF8047B7047F646004080B582B000AF786008E00C4B1B681846C6
:40148000FFF74EFE7B68A3F500437B607B68B3F5004FF2D8064B1B687A6802FB03F31846FFF73EFE0837BD4680BD00BF2081FF1F1881FF1F80B582B000AF0346FB80FB8863
:4014C000044A127802FB03F31846FFF729FE0837BD4680BD1C81FF1F80B582B000AFFFF729FE0346FB7100BF00BF00BF00BF00BF00BF00BF00BF00BF00BF00BF00BF00BFD1
:4015000000BF00BF00BF094B084A128892B242F0040292B21A80054B1B88BFF36F8FFB791846FFF70BFE0837BD4680BD0048004080B584B000AF03463960FB710F4B1B6816
:40154000FB60FB791F2B02D90020FFF775FFFB7903F01F0310339B00FA6813441B68BB60FB7903F01F0310339B00FA6813443A681A60BB6818461037BD4680BD08ED00E016
:4015800080B582B000AF02460B46FA71BB71BB79072B02D90020FFF74FFFFB791F2B02D90020FFF749FFFB7903F01F0303F1604303F56443BA795201D2B21A700837BD46B4
:4015C00080BD00BF80B582B000AFFFF7B3FD0346FB710B4B0A4A1278D2B242F00802D2B21A70084B074A1278D2B242F00802D2B21A70FB791846FFF7A1FD0837BD4680BD9B
:40160000A0430040B043004080B584B000AF78600B46FB700023FB7314E002E00120FFF749FF0D4B1B78DBB203F00103002BF5D0FB7B7A681344094A1278D2B21A70FB7B73
:401640000133FB73FA7BFB789A42E6D3FB7B18461037BD4680BD00BF224700402047004080B489B000AFBA600246FA730A46BA81FB800723FB612B4B1B78DBB203F00203DC
:40168000002B45D0284BB6221A70274BD5221A70254B02221A70234B1B78DBB203F00203002B32D1204BFA7B1A7000237B8308E01D4B7A8BB9680A4412781A707B8B0133B3
:4016C0007B837A8BFB889A42F2D3FB88B3F5807F20D1FB7B3F2B1DD8FB7B03F510331A02BB8913445B017B6100237B8309E00E4B798B7A690A441278D2B21A707B8B0133C9
:401700007B837B8B1F2BF2D904E00923FB6101E00423FB61FB6918462437BD465DF8047B704700BF224700402047004080B485B000AFF871B980BA71FB700723FB601B4BCB
:401740001B78DBB203F00203002B26D0184BB6221A70174BD8221A70154B05221A70134B1B78DBB203F00203002B13D1104BFA791A700F4BBA88120A92B2D2B21A700C4B36
:40178000BA88D2B21A700A4BBA791A70084BFA781A7004E00923FB6001E00423FB60FB6818461437BD465DF8047B7047224700402047004080B485B000AF0346FB710723C9
:4017C000FB60134B1B78DBB203F00203002B16D0104BB6221A700F4BE1221A700D4B0E221A700B4B1B78DBB203F00203002B03D1084BFA791A7004E00923FB6001E0042321
:40180000FB60FB6818461437BD465DF8047B7047224700402047004080B582B000AF04237B60FFF787FC0346FB70124B1B78002B16D1104B01221A7000237B600E4B1B683A
:4018400003F00103002B0BD00B4B0B4A126822F001021A6000BF00BF00BF084B01221A60FB781846FFF76AFC7B6818460837BD4680BD00BF4481FF1F040008404881FF1FC8
:4018800080B582B000AFFFF755FC0346FB710D4B00221A700C4B1B68012B0BD10B4B0B4A126842F001021A6000BF00BF00BF064B00221A60FB791846FFF740FC0837BD46EC
:4018C00080BD00BF4481FF1F4881FF1F0400084080B483B000AF07237B600D4B1B78DBB203F00203002B09D00A4BB6221A70094BE0221A70074B0D221A7001E004237B60C2
:401900007B6818460C37BD465DF8047B704700BF224700402047004080B500AF054B1B78002B04D100F008F8024B01221A7000F02FF880BD4C81FF1F80B500AF00200D493C
:40194000FFF7F6FD00200721FFF71AFE0A4B00221A700A4B72221A70094B20221A70094B06221A70084B47221A70084B00221A7080BD00BF0D1C00004D81FF1F8C64004008
:401980008A6400402E6400403E6400408B64004080B582B000AFFFF7CDFB0346FB71124B114A1278D2B242F02002D2B21A700F4B0E4A1278D2B242F01002D2B21A700C4BFC
:4019C00001221A600B4B0B4A1278D2B242F01002D2B21A7000F086F9FB791846FFF7AEFB0837BD4680BD00BF9C6400409A64004000E100E09B64004080B483B000AF1C4B26
:401A000001221A601B4B1B78BB711B4B1B787B711A4B1B78DBB2002B03D1BA797B799A4219D0BB79164AD35CFB71BB790133BB71BB795BB2002B01DA0023BB710D4BBA79AB
:401A40001A700E4B1B78DBB2002B03D00B4B00221A7003E002E00B4B1B78FB710A4B01221A60FB7918460C37BD465DF8047B704780E100E04E81FF1F4F81FF1F5081FF1FA9
:401A80005881FF1F4F64004000E100E080B483B000AF1D4B01221A601C4B1B78DAB21C4B1B78DBB29A420AD11A4B1B78DBB2002B02D08023FB711DE00023FB711AE0134B27
:401AC0001B78DAB2124B1B78DBB29A4208D2104B1B78DAB20D4B1B78DBB2D31AFB7109E00B4B1B78DAB2094B1B78DBB2D31ADBB2803BFB71084B01221A60FB7918460C37D1
:401B0000BD465DF8047B704780E100E04E81FF1F4F81FF1F5081FF1F00E100E080B582B000AFFFF707FB0346FB71144B134A1278D2B242F00102D2B21A70104B0F4A12783D
:401B4000D2B222F00102D2B21A70FB791846FFF7F5FA0B4B01221A600A4B00221A700A4B00221A70094B00221A70094B00221A70084B01221A600837BD4680BD9F64004060
:401B800080E100E04E81FF1F4F81FF1F5081FF1F5181FF1F00E100E080B483B000AF0346FB7100BF074B1B78DBB203F00403002BF8D1054BFA791A700C37BD465DF8047B18
:401BC000704700BF6B6400404B64004080B582B000AFFFF7AFFA0346FB710B4B0A4A1278D2B242F00102D2B21A70074B064A1278D2B222F00102D2B21A70FB791846FFF771
:401C00009DFA0837BD4680BD9B64004080B483B000AF0023FB712B4B1B78BB71BB797B71BB7903F01E03002B0BD0BB7903F01E03DAB2254B1B78DBB21343DBB2DAB2224BC7
:401C40001A70BB7903F02003002B31D01F4B1B787B711F4B1B78DBB21E4A7979D1540123FB71FB79002B23D01B4B1B78DBB2002B02D01A4B01221A70154B1B78DBB2013307
:401C8000DAB2134B1A70124B1B78DBB2DBB25BB2002B02DA0E4B00221A700D4B1B78DAB20F4B1B78DBB29A4202D10B4B01221A70BB7903F02003002BADD10C37BD465DF85C
:401CC000047B70476A6400404D81FF1F4F6400404F81FF1F5881FF1F5081FF1F5181FF1F4E81FF1F80B400AF094B094A1278D2B242F00102D2B21A70064B064A1278D2B286
:401D000042F00102D2B21A70BD465DF8047B7047A2430040B243004070B50E4B0E4D0024ED1AAD101E46AC4204D056F8242090470134F8E700F022FA084D094B0024ED1A34
:401D4000AD101E46AC4204D056F8242090470134F8E770BD8821000088210000902100008821000010B50023934203D0CC5CC4540133F9E710BD02440346934202D003F848
:401D8000011BFAE77047000032000000D021000000000000005100406000C05100401000F0510040100000000140001000140140000800400140000A004C01400002005051
:401DC000014020000252004003640040010501404B0A0140420B01403A0C0140430D01405D0E01402F0F014002400140014101400342014004440140034501400246014072
:401E00000350014001510140310134028A388B0F8C72E60102030308051A07040B050C0C0E1110101103120C130C181C1A021C101D031F14201421202C092E102F18301F93
:401E4000311C3303352039083B023F1454185604580459045B045F018002850A860287048A028B058F08900296029D039F0CA001A503A704AD03AF04B002B10FB401BB02F4
:401E8000BE11C053C104C5E0C6CBC80EC9FFCAFFCBFFCEF0CF44D00CD401D804D904DA04DB04DF01E6C0EA40EB02008001020428074009010B060D020E100F2010811180F0
:401EC000150119021E882080210622102340250126022740280129022F2231023342374038283A303B063D803E203F04450246104D014E02548057305A025D015E986080A7
:401F00006150808082109028920293029508974099509E20A140A501C079C23BC419CA59CC19CE77D0C0D210D6F1D80DE4040104050209020D04110215011D0121012704B9
:401F400029082D0133023501370C39803F105602571159045B045F01800F830485C08603880489188C018D44900391E7920C93189402958098039BE39D10A00FA11CA3E14C
:401F8000A40CA51CA7E2A80CA908AA03AC08ADFFB00FB1C0B31FB738BA82BB88D804D904DF010160039009080A400B041219130119811A401BC0228923012540261027109F
:401FC000284029A42E602FA0308031093310344035043688370939423A103B043D023E143F4058805A405E206C206E146F097484752076138D048F409028914293069508B6
:40200000974199509C809D209E029F18A108A320A424A545A748B420B540C00FC20EC40FCAFFCCDFCEFFD620040C05010603070E1001120E1544173119671A031E08200146
:402040002206252227D129672E0C31803360340F350737183A203F404003454049FF4A074BFF4C404D204EF04F055008580459045A045F01604061A8624063208106830166
:40208000850688028B018C028D079204950796049D019E029F06A104A602A902AA01AE01B002B107B404B601B802BE50C042C103C205C401C6E0C70CC818C9FFCAFFCBFFB5
:4020C000CC62CDA0CEF0CF41D00CD804D904DA04DF01E640E702E910EA30EB10ED10EE10EF120320070609200B420E800F2111821608174818081B201D501E802189230460
:402100002602274028202B082D202E0230203108348037083B043C083D203F8141044480459447164B024E025010512056085710C0C4C2BBC4E9CAA6CC56CEF2D0F2D210E6
:402140003240CC10968082409680E68005025910C004D4019D10B502EA0281109D1000010C010E01000300000100020101000100000000006930122E001E0101F8B500BF9B
:40218000F8BC08BC9E467047610000003D010000F8B500BFF8BC08BC9E4670473D000000B02100000881FF1F20000000B000000000000000881D00008C1D000000366E0176
:4021C000C05D0000180000000000E02E000000000000000000000000000000000000000000000000000000000000000000000000000000000000000000000000000000009C
:402200000080002011220000B1170100B117010008B50FF0CFFA00BF10B5054C237833B9044B13B10448AFF300800123237010BD2883FF1F00000000B0320100084B10B58F
:402240001BB108480849AFF300800848036803B910BD074B002BFBD0BDE81040184700BF00000000B03201002C83FF1F0881FF1F0000000008B510F09DFB0E4B1B78012B6C
:4022800013D10D4B1978062907D80131C9B219700120143108F090FC08BD0022064B1A700120142108F088FC08BD034A13780133137008BD7A83FF1F9685FF1F08B510F065
:4022C00033FC0E4B1B78012B13D10D4B1978062907D80131C9B219700220143108F06CFC08BD0022064B1A700220142108F064FC08BD034A13780133137008BD4B85FF1F47
:402300002585FF1F08B562B60FF088FC0FF03CFE0FF0BEFE0FF074FC0FF094FD10F05AF910F046FA0FF09CFD10F062F910F04EFA0FF01CFE10F0CCFE052010F033FF002062
:40234000202108F073F800228A4B1A6006E08A4AD15C8A4AD1540133864A1360864B1A78844B1B689A42F2D220200F2108F05EF80022804B1A6007E07F4AD15C7F4A1A4473
:40238000917701337B4A13607B4B1A78794B1B689A42F1D24020202108F048F80022754B1A6008E0744AD15C744A1A4482F843100133704A1360704B1A786E4B1B689A42B4
:4023C000F0D28020202108F031F80022694B1A6008E0694AD15C694A1A4482F861100133644A1360644B1A78624B1B689A42F0D2A020202108F01AF800225E4B1A6008E069
:402400005D4AD15C5D4A1A4482F87F100133594A1360594B1A78574B1B689A42F0D22F200C2108F003F80022524B1A6008E0524AD15C524A1A4482F82F1001334D4A13602D
:402440004D4B1A784B4B1B689A42F0D26020092107F0ECFF484B1878431EDBB2082B14D80022444B1A6008E00133434AD15C434A1A4482F8D7103F4A13603E4B1B68072B38
:40248000F2D93E4B83F8D7000EE00122394B1A6006E03A4A1A4482F8D7300133354A1360344B1B68082BF4D940F26A400A2107F0BDFF00222F4B1A6006E02F4AD15C304A20
:4024C000D15401332B4A13602B4B1A78294B1B689A42F2D240F275400A2107F0A7FF0022244B1A6006E0244AD15C264AD1540133204A1360204B1A781E4B1B689A42F2D292
:402500004FF490600A2107F091FF0022194B1A6006E0194AD15C1C4AD1540133154A1360154B1A78134B1B689A42F2D240F28B400A2107F07BFF00220E4B1A6006E00E4A70
:40254000D15C124AD15401330A4A13600A4B1A78084B1B689A42F2D240F29F20052107F065FF054B187804281FD10122014B1A6015E000BF8C83FF1F5485FF1F3487FF1F4D
:402580002885FF1F8083FF1FD088FF1F3885FF1FA44AD15CA44AD1540133A44A1360A34B1B68042BF4D9A04B187040F2C110022107F03CFF9B4B1B78012B03D1994B5A78B4
:4025C0009B4B1A7040F2C310022107F02FFF954B1B78012B03D1934B5A78964B1A7040F2C510022107F022FF8E4B1B78012B03D18C4B5A78904B1A7040F2EE30022107F06A
:4026000015FF884B1B78012B03D1864B5A788B4B1A704FF4DD70022107F008FF814B1B78052B05D17F4B5B7803F00F03844A137040F27A20022107F0F9FE7A4B1B78012BB3
:4026400003D1784B5A787F4B1A704FF41F70022107F0ECFE734B1B78012B03D1714B5A78794B1A7040F27E20022107F0DFFE6D4B1B78012B03D16B4B5A78744B1A704FF474
:402680007C70022107F0D2FE664B1B78012B03D1644B5A786E4B1A7040F25A20062107F0C5FE604B1B78052B0AD15E4AD37803F00F0368490B70537903F00F03664A13703E
:4026C00040F2C710022107F0B1FE564B1B78012B06D1624A1370534B5B7803F00F0353704FF4DE70022107F0A1FE4E4B1B78012B05D14C4B5B7803F00F03594A137040F22A
:402700006320022107F092FE464B1B78012B05D1444B5B7803F00F03524A537040F26520022107F083FE3F4B1B78012B05D13D4B5B7803F00F034C4A53704FF42770032158
:4027400007F074FE374B1B78022B06D1354B9B7843EA0323454A138002E00122434B1A804FF47670022107F061FE2E4B1B78012B04D12C4B5A783E4B5A7007E03C490123C7
:402780000B704B704FF4767007F012FE40F2D230062107F04BFE234B187805280FD10022224B1A6006E01F4AD15C324AD15401331E4A13601D4B1B689842F4D20CE02D49EB
:4027C00005230B7030234B708B70CB700B714B7140F2D23007F0ECFD264A537903F00F00137903F00F014FF47A7303FB01F342F2107101FB0033D07800F00F00642101FB0B
:402800000031937803F00F0303EB83035B000B44527802F00F021344174A13600222174B1A7008BD5485FF1F0C81FF1F8C83FF1F1E88FF1FDB88FF1F4C85FF1F7C83FF1F4C
:402840003385FF1F2485FF1F8E86FF1F9386FF1F2C87FF1F7D83FF1F1F88FF1F4885FF1FA285FF1F9086FF1F3087FF1F2285FF1F7883FF1F9C85FF1F3088FF1F2785FF1FA8
:4028800010B5002413E00AF0EDFF02280FD1642010F088FC074B18780BF024F8062806D1044B18790BF01EF8062800D10224002CE9D010BD7083FF1F08B501280ED1552132
:4028C00008F07AF964220D4B1A7001220C4B1A700C4810F0E3F810F0B3F808BD0220552108F06AF96422084B1A700122074B1A70074810F08DF910F05DF908BD7A83FF1F02
:402900009685FF1F752200004B85FF1F2585FF1FBD22000038B5984B1B78642B03F2CD86DFE813F074008000CB1EA100000188011D02B702EA02290315046704D40456057F
:40294000890564068207D10778081A099509FF0A520CD60DF10EC412FF12F1135B14DC14AB1546160A17D119241A931AF51A241BAC1B9C1C9C1D271E691ECB1ECB1ECB1E0B
:40298000CB1ECB1ECB1ECB1ECB1ECB1ECB1ECB1ECB1ECB1ECB1ECB1ECB1ECB1ECB1ECB1ECB1ECB1ECB1ECB1ECB1ECB1ECB1ECB1ECB1ECB1ECB1ECB1ECB1ECB1ECB1ECB1EF7
:4029C000CB1ECB1ECB1ECB1ECB1ECB1ECB1ECB1ECB1ECB1ECB1ECB1ECB1ECB1ECB1ECB1ECB1ECB1ECB1ECB1ECB1ECB1E6500634B1B78012B43F2618600245F4B1C7010F089
:402A00005BF80FF0BDFF5D4B1C7038BD5C4810F045F810F015F80022584B1A700122564B1A7038BD0FF0F0FD082843F046860FF015FE10F041F80FF0A3FF524B1B78022B7B
:402A400004D10120632108F0B7F803E00120452108F0B2F80322484B1A70642010F0A2FB0FF0FCFD38BD0FF0CFFD082843F02586454B1B78DBB2AA2B4ED1434B9B79DBB22D
:402A8000C32B49D1404BDB79DBB23C2B44D13E4BDB78DBB2592B2DD002D8452B1FD03BE05C2B02D07E2B30D036E00022374BDA70344B1B78012B06D10120052108F07CF81A
:402AC00004222D4B1A702F4B1B78022B24D10120492108F071F81922274B1A701CE00120252108F069F80022294B1A700F22224B1A7011E00120252108F05EF80022244B21
:402B00001A7027221C4B1A7006E00120002108F053F80022184B1A70642010F043FB0FF09DFD38BD0FF070FD082843F0C685164B1B78DBB2AA2B77D1134B9B79DBB2C32B62
:402B400072D1114BDB79DBB23C2B6DD10F4AD37823F00303D3700C4BDB78DBB23B2B4BD004D80F2B16D0102B28D05DE0432B3BD07E2B52D058E000BF7A83FF1F9685FF1F7D
:402B8000752200002785FF1FCC8AFF1F9486FF1F4D85FF1F0120062108F00EF80022984B1A700120242108F03DF8964AD37843F00203D3700522944B1A7035E001200D2116
:402BC00007F0FAFF00228E4B1A70904B1A700120472108F027F88B4AD37843F00103D3700522894B1A701FE00120072107F0E4FF0622854B1A7017E0854B1B78022B04D13C
:402C00000120632107F0D8FF03E00120452107F0D3FF03227C4B1A7006E00120002107F0CBFF0022784B1A70642010F0BBFA0FF015FD38BD0FF0E8FC082843F03E85754B18
:402C40001B78DBB2AA2B40F08480724B9B79DBB2C32B7ED16F4BDB79DBB23C2B79D1684B1B786D4A1278013A93423EDC694AD278D2B2092A0FD80133DAB2614B1A70654855
:402C8000C178604B13443031D972C17830310120C9B207F0C7FF5F4BDB78DBB20A2B0BD1574B1A780132D2B21A70564B13443021D972012007F0B6FF564BDB78DBB2512BCC
:402CC00013D14F4B1B7883B1504A12786AB90133DAB24B4B1A704B4B13442C21D972012007F0A0FF0122494B1A704A4BDB78DBB20B2B1BD1424B1A783AB90120052107F004
:402D00005BFF0422404B1A7010E00120202107F089FF3B4B1B783B4A1A44D27A2C2A02D100213A4A1170013B354A1370394BDB78DBB20C2B0DD1324B1B7853B10120072182
:402D400007F03AFF2E4B1A782E4BDA7206222E4B1A70642010F026FA0FF080FC38BD642010F020FA0FF050FC082820D1294B1B78DBB2AA2B15D1274B9B79DBB2C32B10D1D9
:402D8000244BDB79DBB23C2B0BD1224BDB78DBB27E2B06D10120002107F00EFF00221A4B1A70642010F0FEF90FF058FC38BD1B4B18780AF097FD072843F07F84322010F05E
:402DC000F1F9164B18780AF0A1FD154B1870322010F0E8F90B4BDB7813F0030324D00F4A10780F4A11780F4A0EF032F8E0B90120002107F0E1FE0022034B1A7038BD00BFFC
:402E00004D85FF1F9486FF1F7A83FF1F7B83FF1F2785FF1FCC8AFF1F3385FF1F7083FF1F3588FF1F9F86FF1F012010F063F99F4B18780AF06BFD9E4B1870002803F03D844A
:402E40009C4B1B7803F00F03834211D09A4B1B7803F00F0398420BD0984B1B7803F00F03984205D0964B1B7803F00F03984202D101200EF06DFC8D4B187840F010000EF07D
:402E800055FF0120082107F097FE07228D4B1A7038BD322010F086F9844B18780AF022FD0A2813D00B2803D0062843F006841BE0642010F077F97D4B18780AF09BFD012817
:402EC00043F0FB8308227F4B1A7038BD642010F069F9764B18780AF08DFD012843F0ED830822784B1A7038BD0120002107F064FE0022744B1A7038BD734B1B78012B02D071
:402F0000022B10D038BD01200B2107F055FE6F480FF0C4FD0FF094FD00226D4B1A700A22684B1A7038BD6B4BDB7813F0040F0FD101200B2107F040FE64480FF0AFFD0FF058
:402F40007FFD0022624B1A700A225E4B1A7038BD01200B2107F030FE00245E4B83F883405A480FF09BFD0FF06BFD594B1C700A22544B1A7038BD0FF047FB082840F0D2809E
:402F8000554B1B78DBB2AA2B40F0C780524B9B79DBB2C32B40F0C1804F4BDB79DBB23C2B40F0BB8000224A4B1A704C4B1B78062B65D8494AD278D2B2092A10D80133DAB206
:402FC000464B1A704448C178424B1344303183F86510C17830310120C9B207F023FE3E4BDB78DBB20A2B0CD13C4B1A780132D2B21A70384B1344302183F86510012007F066
:4030000011FE354BDB78DBB26A2B0CD1334B1A780132D2B21A702F4B13442D2183F86510012007F0FFFD2C4BDB78DBB21A2B26D9294BDB78DBB2422B21D80022284B1A60D7
:4030400019E0254AD278D2B226491944097A8A420DD122490A780132D2B20A704133D9B21C4B134483F86510012007F0DBFD1C4A1368013313601A4B1B68192BE1D9164B97
:40308000DB78DBB20B2B37D1144B1A7862BB01200B2107F091FD0F4B002283F8652083F883200A22074B1A7026E000BF7083FF1F3588FF1F1E88FF1FDB88FF1F4C85FF1F8B
:4030C0007C83FF1F7A83FF1F2785FF1F752200009685FF1F9486FF1FCC8AFF1F4D85FF1F8C83FF1F0C81FF1F0120202107F09AFDB04A1378013B1370AF4BDB78DBB20C2B45
:403100000BD1AC4B1A7842B1AC4B83F86520012283F883200D22AA4B1A70642010F042F80FF09CFAA74B1B781D2B43F2C68201200B2107F041FDA14A002382F8653082F89B
:403140008330A04A13700A229D4B1A7038BD0FF05BFA08283DD1984B1B78DBB2AA2B33D1954B9B79DBB2C32B2ED1934BDB79DBB23C2B29D1904BDB78DBB2382B15D0392B39
:4031800022D100228B4B1A708C4BDB7813F0040F07D101200A2107F00FFD0922884B1A7012E00D22864B1A700EE001200C2107F003FD0122834B1A7083480FF06FFC0FF04D
:4031C0003FFC64227E4B1A7064200FF0EBFF0FF045FA7C4B1B781D2B43F26F8201200C2107F0EAFC0122774B1A706422744B1A7038BD0120014607F06FFA052840D90A20B2
:403200000FF0D0FF0120212107F066FA052837D9012007F079F9012832D133200FF03CFA0120332107F0B2F950B30022674B1A600AE0012007F014FA604B1C4484F8290063
:40324000624A136801331360604B1C68072CF0D90120132107F0B0FC584CE37843F00403E3704FF4FA700FF09DFF01200E2107F0A3FC00234F4A137023710C22504B1A707D
:403280000FF0C2F9082843F018824B4B1B78DBB2AA2B15D1484B9B79DBB2C32B10D1464BDB79DBB23C2B0BD1434BDB78DBB23B2B06D10120632107F07FFC0322404B1A7032
:4032C00064200FF06FFF0FF0C9F938BD0FF09CF9082843F0F281384B1B78DBB2AA2B62D1354B9B79DBB2C32B5DD1334BDB79DBB23C2B58D12F4B1B78052B25D82E4AD278EA
:40330000D2B2092A0FD80133DAB22A4B1A702A48C1782A4B134430311971C17830310120C9B207F07FFC244BDB78DBB20A2B0BD1204B1A780132D2B21A70204B1344302175
:403340001971012007F06EFC1B4BDB78DBB20B2B12D1184B1A783AB90120052107F02CFC0422174B1A7007E00120202107F05AFC104A1378013B13700F4BDB78DBB20C2BD7
:4033800011D10C4B1B7873B10C4B5B79302B0AD00120052107F010FC064B1A78074B1A710422074B1A7064200FF0FCFE0FF056F938BD00BF4D85FF1FCC8AFF1F9486FF1F96
:4033C0007A83FF1F9685FF1F752200005085FF1FBA4B5878BA4B19780022BA4B1B7808F093FEB94B1B78012B02D0B84B5B787BB901200C2107F0E0FB0122B54B1A70B548D8
:403400000FF04CFB0FF01CFB6422B34B1A7038BD0120312107F0D0FB0022B04B1A700122AB4B1A70AB480FF039FB0FF009FB2122A94B1A7038BD0FF0E7F8082843F03D81D0
:40344000A74B1B78DBB2AA2B40F0CA80A44B9B79DBB2C32B40F0C480A14BDB79DBB23C2B40F0BE809E4BDB78DBB2652B00F084800AD85A2B50D002D8582B12D0B0E05B2B2E
:4034800064D05D2B24D0ABE07E2B00F0A28003D8702B00F09680A3E0932B75D0962B60D09EE000228D4B1A7001203E2107F084FB06F0BEFE012801D107F034FC06F0E8FE7B
:4034C000012801D107F08CFC1022834B1A7087E001205C2107F070FB01200021D62240F2AD1307F063FD01200021892240F2B31307F05CFD01200146242240F2A71307F018
:4035000055FD0120014678224FF47A7307F04EFD1322714B1A7063E00120602107F04CFB012007F0C1FC012007F000FE012007F08FFF012008F012F8012007F07DFE0120BF
:4035400007F000FF1222644B1A7049E001202F2107F032FB0022614B1A7011225E4B1A703EE001205F2107F027FB00225B4B1A701B22594B1A7033E001204D2107F01CFB27
:403580001422554B1A702BE001206E2107F014FB0120014607F0A0F805280ED90A200FF001FE012008F0E2F80120212107F094F8052802D9012008F057F82322464B1A700E
:4035C0000EE00120892107F0F7FA2922424B1A7006E00120002107F0EFFA00223E4B1A7064200FF0DFFD0FF039F838BD0FF00CF8082843F062803A4B1B78DBB2AA2B40F015
:403600000D81374B9B79DBB2C32B40F00781344BDB79DBB23C2B40F00181304B1A78072A26D82F4BDB78DBB2092B0ED82C4BD9782C4B1344303183F88E1001202A2107F097
:40364000F1FA264A137801331370254BDB78DBB20A2B0DD1214C2278224B1344302183F88E1001202A2107F0DDFA2378013323701B4BDB78DBB20B2B0ED1184B1B781BB954
:403680000120FFF719F907E0013BDAB2134B1A700120202107F0C6FA114BDB78DBB20C2B40F0BC800D4B1A78002A00F0A88000230D490B600D490B6030E000BF9086FF1F7E
:4036C0003588FF1F7083FF1F2785FF1F7883FF1F9685FF1F752200007A83FF1F4D85FF1FCC8AFF1F9486FF1FA485FF1F8C83FF1F581CAB49014491F8D710AA4C234493F8FB
:403700008E30303B994204D1A7490B6801330B6002E00021A44B1960A44B18601046A34B1B689A42E4D89E4B93F8D7209E4B1B689A421AD10120262107F03EFA4FF4FA709B
:403740000FF030FD9A4B1B78012B04D101205D2107F032FA05E0022B03D10120702107F02BFA0E22934B1A7058E000238E4A13608E4A136010E0904A1A4492F82410894AEC
:403780001A4492F88E20914203D187490A6801320A600133854A1360844B1B689842EAD8814B1B68082B1AD10120262107F004FA4FF4FA700FF0F6FC7D4B1B78012B04D1C5
:4037C00001205D2107F0F8F905E0022B03D10120702107F0F1F90E22764B1A701EE00120272107F0E9F90122744B1A7074480FF055F90FF025F964226E4B1A700EE00120A4
:40380000272107F0D9F901226C4B1A706C480FF045F90FF015F96422664B1A7064200FF0C1FC0EF01BFF38BD0EF0EEFE082842F04487644B1B78DBB2AA2B3ED1614B9B797D
:40384000DBB2C32B39D15F4BDB79DBB23C2B34D15C4BDB78DBB23F2B04D07E2B26D03E2B2BD116E00120402107F0A6F90023564A1370564A137001206121062207F0D2F9FF
:4038800001206D21072207F0CDF91522494B1A7013E001203F2107F08FF900234A4A13704A4A13701622434B1A7006E00120702107F082F90E223F4B1A7064200FF072FC4B
:4038C0000EF0CCFE38BD0EF09FFE082842F0F5863C4B1B78DBB2AA2B40F09680394B9B79DBB2C32B40F09080364BDB79DBB23C2B40F08A80344B1A78072A27D8314BDB786B
:40390000DBB2092B10D82F48C178264B1344303183F88E10C17830310120C9B207F082F9294A137801331370264BDB78DBB20A2B0CD1254C22781B4B1344302183F88E10FA
:40394000012007F06FF92378013323701D4BDB78DBB20B2B0ED11C4B1B781BB90120FEF7ABFF07E0013BDAB2174B1A700120202107F058F9134BDB78DBB20C2B44D1124B4E
:403980001B78052B40D90120392107F015F90E4B1978034B83F8D7100022044B1A6023E03487FF1F9486FF1FA485FF1F8C83FF1F2785FF1F7A83FF1F0C81FF1F9685FF1FD5
:4039C00075220000CC8AFF1F4D85FF1F7B83FF1F581CB24A134493F88E20B14B0344303A83F8D720AF4B1860AE4B1B689942EFD86020AD4906F0DCFC18B90120552107F05E
:403A0000DBF80022A94B1A7064200FF0CBFB0EF025FE38BD0EF0F8FD082842F04E86A44B1B78DBB2AA2B40F09180A14B9B79DBB2C32B40F08B809E4BDB79DBB23C2B40F04F
:403A400085809B4BDB78DBB27A2B5FD006D8772B3ED0782B4CD0762B78D10AE0822B17D002D87E2B6BD071E0832B21D0952B5AD06CE00120302107F09FF800238D4A137091
:403A80008D4A13708D4A13701822884B1A705DE00120792107F090F80222864B1A700023854A1370854A13701822804B1A704DE001207A2107F080F803227E4B1A7000237C
:403AC0007D4A13707D4A13701822784B1A703DE00120782107F070F80122764B1A700023754A1370754A13701822704B1A702DE00120652107F060F801226E4B1A70002256
:403B00006D4B1A701722694B1A701FE00120322107F052F80023674A1370674A13701722624B1A7012E0664B1B78022B0ED10120662107F041F820225C4B1A7006E0012089
:403B4000702107F039F80E22584B1A7064200FF029FB0EF083FD38BD0EF056FD082842F0AC85534B1B78DBB2AA2B6AD1504B9B79DBB2C32B65D14E4BDB79DBB23C2B60D1F1
:403B80004B4BDB787E3B042B5BD8DFE803F05303172B3F000120062107F00EF80022464B1A70484B19783E4B83F8A3100120242107F038F81A223D4B1A7042E001200621CE
:403BC00006F0FAFF00223C4B1A703F4B1978344B83F8A3100120242107F024F81A22334B1A702EE00120062106F0E6FF0022324B1A70364B19782A4B83F8A31001202421A9
:403C000007F010F81A22294B1A701AE00120062106F0D2FF0022284B1A702D4B1978204B83F8A3100120242106F0FCFF1A221F4B1A7006E00120702106F0BEFF0E221B4B19
:403C40001A7064200FF0AEFA0EF008FD38BD0EF0DBFC082842F03185154B1B78DBB2AA2B40F05981124B9B79DBB2C32B40F053810F4BDB79DBB23C2B40F04D810C4BDB7811
:403C8000DBB2632B4DD002D8622B23D043E1642B00F0E7807E2B00F037813CE19486FF1F3487FF1F8C83FF1F0B88FF1F7A83FF1FCC8AFF1F9785FF1F4D85FF1F3488FF1F78
:403CC0002785FF1FDB88FF1F4C85FF1F1E88FF1F7C83FF1F0120392106F06EFF64200FF061FAB64B187809F0FDFD062815D1B34B187909F0F7FD06280BD101204A2106F04D
:403D00005BFF4FF42F700FF04DFA0022AC4B1A7001E10120FEF7D0FDFDE00120FEF7CCFDF9E00120372106F047FFA64B5B78012B45D10022A44B1A600AE0A44A134401206E
:403D400093F82C1006F0BCFB9F4A1368013313609D4B1B68102BF0D901200A2106F0B0FB01200A2106F0ACFB01200A2106F0A8FB01200A2106F0A4FB0022934B1A600AE055
:403D8000924A1344022093F82C1006F099FB8E4A1368013313608C4B1B68102BF0D902200A2106F08DFB02200A2106F089FB02200A2106F085FB02200A2106F081FB814B25
:403DC0005B78022B45D100227F4B1A600AE07F4A1344032093F82C1006F072FB7A4A136801331360784B1B68102BF0D903200A2106F066FB03200A2106F062FB03200A212C
:403E000006F05EFB03200A2106F05AFB00226E4B1A600AE06D4A1344042093F82C1006F04FFB694A136801331360674B1B68102BF0D904200A2106F043FB04200A2106F04C
:403E40003FFB04200A2106F03BFB04200A2106F037FB01206B2106F0AFFE2522584B1A7059E0012006F050FB012849D133200EF013FC0120332106F089FB00284BD00022C0
:403E8000534B1A600AE0012006F0EAFB514B1C4484F829004E4A1368013313604C4B1C68072CF0D900234C4A1370494A13600CE0494C484A1344207893F8291006F06CFE2A
:403EC0002070434A136801331360414B1B68062BEED9404B93F830203F4B1B789A420BD101204B2106F068FE4FF47A700FF05AF90022334B1A700EE00120FEF7DDFC0AE0E8
:403F00000120FEF7D9FC06E00120002106F054FE00222B4B1A7064200FF044F90EF09EFB38BD0EF071FB082842F0C7832B4B1B78DBB2AA2B40F04281284B9B79DBB2C32B42
:403F400040F03C81254BDB79DBB23C2B40F03681234B1B78042B00F2CA80DFE813F0050045006B00C800A3001C4AD278D2B2012A0FD80133DAB21A4B1A70184CE17830314C
:403F80000120C9B206F04EFEE3781B01154A82F8A130124BDB78DBB20A2B40F0A880104B1A780132D2B21A7000210E4B83F8A1100120302106F036FE99E000BF7083FF1F7F
:403FC0007A83FF1F8C86FF1F8C83FF1F0C81FF1F5085FF1F9486FF1F3485FF1FCC8AFF1F4D85FF1F3487FF1F9F4AD278D2B2092A11D80133DAB29D4B1A709B4CE1783031B9
:404000000120C9B206F00EFEE178994A92F8A1300B4382F8A130944BDB78DBB20A2B66D1924B1A780132D2B21A700120302106F0F9FD5CE08C4AD278D2B2052A17D8013347
:40404000DAB28A4C227001203A2106F0EBFD22780132D2B22270844CE17830310120C9B206F0E0FDE3781B01814A82F8A0307E4BDB78DBB20A2B3AD17C4C22780132D2B288
:40408000227001203A2106F0CDFD22780132D2B222700120302106F0C5FD0022744B83F8A02024E0704AD278D2B2092A11D80133DAB26E4B1A706C4CE17830310120C9B250
:4040C00006F0B0FDE1786A4A92F8A0300B4382F8A030654BDB78DBB20A2B08D1634B1A780132D2B21A700120302106F09BFD5E4BDB78DBB2402B17D15E4B1B783BB90120D2
:404100005C4B18707021062206F08CFD07E00022584B1A7001206121062206F083FD01206D21072206F07EFD4F4BDB78DBB20B2B1BD14E4B1A7882B90E224F4B1A704F4B68
:404140001B78012B04D101205D2106F035FD0CE00120702106F030FD07E00120202106F061FD424A1378013B13703F4BDB78DBB20C2B23D13D4B1B78052B1FD13D4B1B78C5
:4041800043F002023A4991F8A13043EA421381F8A13006F0ADF8012810D10E22364B1A70364B1B78012B03D15D2106F005FD05E0022B03D10120702106F0FEFC64200EF0AB
:4041C000F1FF0EF04BFA38BD0EF01EFA082842F07482254B1B78DBB2AA2B40F07381224B9B79DBB2C32B40F06D811F4BDB79DBB23C2B40F067811D4B1A78072A00F22381FB
:40420000DFE812F008003E00650021019E00C4002101FC00144BDB78DBB2032B0FD8124CE17830310120C9B206F0FCFC0F4A137801331370E3781B010D4A82F89D300A4B6D
:40424000DB78DBB20A2B40F0FE800022084B83F89D20064C01203021227806F0E3FC237801332370EFE000BFCC8AFF1F4D85FF1F3487FF1F7B83FF1F7A83FF1F2785FF1F6D
:40428000AC4BDB78DBB2092B11D8AA4CE17830310120C9B206F0C6FCE178A74A92F89D300B4382F89D30A54A137801331370A14BDB78DBB20A2B40F0C680A04C01203021CA
:4042C000227806F0AFFC237801332370BBE0994BDB78DBB2012B17D801202F2106F0A2FC964C22780132D2B22270924DE97830310120C9B206F096FCEB781B018E4A82F847
:404300009E302378013323708A4BDB78DBB20A2B40F09980894C01202F21227806F082FC22780132D2B222700120302106F07AFC0022814B83F89E2023780133237082E01A
:404340007C4BDB78DBB2092B11D87A4CE17830310120C9B206F066FCE178774A92F89E300B4382F89E30754A137801331370714BDB78DBB20A2B66D1704C0120302122782C
:4043800006F050FC2378013323705CE0694BDB78DBB2092B17D801202F2106F043FC674C22780132D2B22270624DE97830310120C9B206F037FCEB781B015F4A82F89F3083
:4043C0002378013323705B4BDB78DBB20A2B3AD15A4C01202F21227806F024FC22780132D2B222700120302106F01CFC0022524B83F89F2023780133237024E04D4BDB7821
:40440000DBB2092B11D84B4CE17830310120C9B206F008FCE178484A92F89F300B4382F89F30464A137801331370424BDB78DBB20A2B08D1414C01203021227806F0F2FB47
:404440002378013323703B4BDB78DBB20B2B1BD13A4B1B7883B90E22394B1A70394B1B78012B04D101205D2106F0A6FB0CE00120702106F0A1FB07E0013BDAB22F4B1A708F
:404480000120202106F0CEFB2A4BDB78DBB20C2B18D12A4B1B78082B14D105F057FF012810D10E22264B1A70264B1B78012B03D15D2106F081FB05E0022B03D1012070213A
:4044C00006F07AFB64200EF06DFE0EF0C7F838BD0EF09AF8082842F0F080164B1B78DBB2AA2B40F00A81134B9B79DBB2C32B40F00481104BDB79DBB23C2B40F0FE800F4BF2
:404500001B780C2B6ED80B4AD278D2B2092A2BD80133DAB2094B1A700B4B1B7813B1012B14D01AE0034BD978034B13443031997713E000BFCC8AFF1F3487FF1F4D85FF1F19
:404540007A83FF1F2785FF1F9785FF1FA04BD978A04B1344303183F82F109D4BD97830310120C9B207F086F9994BDB78DBB20A2B18D1994B1A780132D2B21A70974B1B78C9
:4045800013B1012B05D009E0924B13443021997704E0904B1344302183F82F100120302107F068F98A4BDB78DBB2512B1AD18A4B1B78BBB10133DAB2874B1A70874B1B785C
:4045C00013B1012B05D009E0824B13442E21997704E0804B13442E2183F82F1001202E2107F048F97A4BDB78DBB20B2B49D17A4B1A78002A3DD10E22794B1A70794B1B787A
:40460000012B04D101205D2106F0D6FA03E00120702106F0D1FA2F200C2105F007FF0022714B1A6008E0714AD15C6A4A1A4482F82F1001336C4A13606C4B1A786A4B1B6876
:404640009A42F0D220200F2105F0F0FE0022664B1A6007E0654AD15C5E4A1A4491770133614A1360614B1A785F4B1B689A42F1D207E00120202107F0FDF8574A1378013B32
:404680001370534BDB78DBB20C2B36D10E22544B1A70544B1B78012B04D101205D2106F08BFA03E00120702106F086FA4B4B1B7813B1012B11D020E0474B1B78454901F864
:4046C0001E3F202005F074FEB8B90120552106F073FA6422424B1A700FE03F4B1B783D4901F82F3F2F2005F063FE30B90120552106F062FA64223A4B1A7064200EF052FDD8
:404700000DF0ACFF38BD0DF07FFF082841F0D5872F4B1B78DBB2AA2B40F0C2832C4B9B79DBB2C32B40F0BC83294BDB79DBB23C2B40F0B683284B1B78172B00F24D82244AAF
:40474000D278D2B2092A7AD80133DAB2224B1A70224B1B78042B6BD8DFE803F0031427526400234B1978012904D1194BDB7830332048835400295BD1154BDB7830331549EF
:404780008B5455E01A4B1978012904D1104BDB7830331948835400294AD10D4BD9780D4B1344303183F8431042E0114B1978012904D1074BDB78303310488354002937D166
:4047C000034BD978034B1344303183F861102FE0CC8AFF1F3487FF1F4D85FF1F9785FF1F7A83FF1F2785FF1F8C83FF1F5485FF1F3488FF1F2885FF1F8083FF1FD088FF1F5D
:40480000994B1978012904D1984BDB7830339848835469B9954BD978964B1344303183F87F1005E0914BD978934B13443031D9728E4BD97830310120C9B207F01BF88B4BC4
:40484000DB78DBB20A2B2BD18C4B1A780132D2B21A708B4B1B78042B1ED8DFE803F003070D1319003021834B995415E0814B1344302183F843100FE07E4B1344302183F8D4
:40488000611009E07B4B1344302183F87F1003E0794B13443021D9720120302106F0EAFF724BDB78DBB2672B2BD1744B1A780132D2B21A70724B1B78042B1ED8DFE803F04F
:4048C00003070D13190023216A4B995415E0694B1344232183F843100FE0664B1344232183F8611009E0634B1344232183F87F1003E0614B13442321D9720120232106F04A
:40490000B9FF5A4BDB78DBB26A2B2BD15B4B1A780132D2B21A705A4B1B78042B1ED8DFE803F003070D1319002D21524B995415E0504B13442D2183F843100FE04D4B13441D
:404940002D2183F8611009E04A4B13442D2183F87F1003E0484B13442D21D97201202D2106F088FF414BDB78DBB2662B2BD1434B1A780132D2B21A70414B1B78042B1ED8E0
:40498000DFE803F003070D1319004021394B995415E0384B1344402183F843100FE0354B1344402183F8611009E0324B1344402183F87F1003E0304B13444021D97201206D
:4049C000402106F057FF294BDB78DBB2692B2BD12A4B1A780132D2B21A70294B1B78042B1ED8DFE803F003070D1319002E21214B995415E01F4B13442E2183F843100FE04B
:404A00001C4B13442E2183F8611009E0194B13442E2183F87F1003E0174B13442E21D97201202E2106F026FF104BDB78DBB2682B5CD1124B1A780132D2B21A70104B1B78A6
:404A4000042B4FD8DFE803F003202E3C4A00064B1B78012B02D120200A498854002B41D12021044B99543DE03488FF1FCC8AFF1F3885FF1F3487FF1F9486FF1F4D85FF1FFC
:404A80009785FF1F2885FF1F9A4B1B78012B02D12020994988542BBB984B1344202183F843101FE0934B1B78012B02D1202094498854BBB9914B1344202183F8611011E020
:404AC0008C4B1B78012B02D120208E4988544BB98A4B1344202183F87F1003E08A4B13442021D9720120202106F0C4FE874BDB78DBB21A2B70D9854BDB78DBB2422B6BD88A
:404B00000022834B1A6063E0804AD278D2B281491944097A8A4257D17F490A780132D2B20A707E490978042948D8DFE801F00312223242006F490878012803D103F14101B4
:404B4000774CA154002839D103F141016B48815434E068490878012803D103F14101664CA15458BB6549114403F1410081F8430024E060490878012803D103F14101604C5B
:404B8000A154D8B95D49114403F1410081F8610014E058490878012803D103F14101594CA15458B95549114403F1410081F87F0004E05549114403F14100C87203F14101D6
:404BC0000120C9B206F056FE514A1368013313604F4B1B68192B97D94C4BDB78DBB20B2B76D14D4B1A78002A6AD10E224D4B1A704D4B1B78012B04D101205D2105F0DCFFD1
:404C000003E00120702105F0D7FF4020202105F00DFC00223E4B1A6008E0444AD15C374A1A4482F843100133394A13603F4B1A78374B1B689A42F0D28020202105F0F6FB51
:404C40000022334B1A6008E0384AD15C2B4A1A4482F8611001332E4A1360344B1A782C4B1B689A42F0D2A020202105F0DFFB0022274B1A6008E02D4AD15C204A1A4482F851
:404C80007F100133224A1360284B1A78204B1B689A42F0D20020202105F0C8FB00221C4B1A6006E0214AD15C144AD1540133184A13601E4B1A78164B1B689A42F2D207E035
:404CC0000120202106F0D6FD134A1378013B13700E4BDB78DBB20C2B40F0E2800E22114B1A70114B1B78012B22D101205D2105F063FF21E03488FF1F8083FF1F3487FF1FF1
:404D0000D088FF1F3885FF1F9486FF1FCC8AFF1F8C83FF1F0C81FF1F4D85FF1F9785FF1F2885FF1F7A83FF1F2785FF1F5485FF1F0120702105F040FFA74B1B78042B00F241
:404D4000AF80DFE803F0032C547CA200A34B1B78012B0DD1A24CA34B1B78237040F26A40A14905F025FB40F26A40214605F020FB9A4B1B78002B40F093809C49994B1B78AC
:404D80000B70002005F014FB002840F089800120552105F011FF6422954B1A7080E08F4B1B78012B0DD1934C8E4B1B78237040F275408D4905F0FCFA40F27540214605F0C7
:404DC000F7FA864B1B78002B6AD1864B1B78874901F8433F402005F0EBFA002860D10120552105F0E9FE6422814B1A7058E07B4B1B78012B0DD1804C7A4B1B7823704FF4D2
:404E00009060794905F0D4FA4FF49060214605F0CFFA724B1B78002B42D1724B1B78734901F8613F802005F0C3FA002838D10120552105F0C1FE64226D4B1A7030E0674B1A
:404E40001B78012B0DD16D4C664B1B78237040F28B40654905F0ACFA40F28B40214605F0A7FA5E4B1B78DBB95E4B1B785F4901F87F3FA02005F09CFA90B90120552105F03A
:404E80009BFE64225A4B1A700AE0564B1A785C4BDA720120392105F08FFE2422544B1A7064200EF07FF90DF0D9FB38BD0DF0ACFB082841F00284534B1B78DBB2AA2B2AD14F
:404EC000504B9B79DBB2C32B25D14E4BDB79DBB23C2B20D14B4BDB78DBB25F2B04D07E2B12D05E2B17D107E00422414B1A700120052105F061FE0EE001201D2105F05CFE96
:404F00000B223B4B1A7006E00120002105F054FE0022374B1A7046200EF044F90DF09EFB38BD0DF071FB082841F0C783354B1B78DBB2AA2B40F0E180324B9B79DBB2C32B45
:404F400040F0DB802F4BDB79DBB23C2B40F0D580244B1B78062B25D82A4AD278D2B2092A0FD80133DAB21F4B1A702648C178244B13443031D972C17830310120C9B205F0DB
:404F800051FE204BDB78DBB20A2B0BD1154B1A780132D2B21A701A4B13443021D972012005F040FE174BDB78DBB20B2B3FD10D4B1A785ABB0E220E4B1A70134B1B78012BB0
:404FC00004D101205D2105F0F7FD30E00120702105F0F2FD2BE000BF9785FF1F3488FF1F2885FF1F4D85FF1F4C81FF1F3487FF1F7A83FF1F8083FF1FD088FF1F3885FF1FC4
:405000009486FF1FCC8AFF1F2785FF1F0120202105F008FEA44B1B78A44A1A44D27A2C2A02D10021A24A1170013B9F4A1370A14BDB78DBB20C2B60D19B4B1B78032B5CD914
:4050400006229D4B1A700120392105F0B5FD964B1A78964BDA72994B18780CF03BF9002848D0974B93F8A320964B1B789A4204D140F2B310944905F09BF9914B93F8A32016
:40508000924B1B789A4204D140F2A7108E4905F08FF98B4B93F8A3208D4B1B789A4204D140F2AD10884905F083F9854B93F8A320884B1B789A4204D14FF47A70824905F0FF
:4050C00077F901203C2105F077FD4FF4FA700EF069F80E22784B1A707F4B1B78012B04D101205D2105F068FD07E00120702105F063FD02E00120FDF7DFFB64200EF052F8EE
:405100000DF0ACFA38BD0DF07FFA082841F0D582684B1B78DBB2AA2B59D1664B9B79DBB2C32B54D1634BDB79DBB23C2B4FD1614BDB787E3B042B4AD8DFE803F042032732FB
:405140003A000120582105F037FD01200021732240F2C31305F08CFF01200021CF2240F2C51305F085FF01200146292240F2C11305F07EFF012001467B2240F2EE3305F0A5
:4051800077FF1C224C4B1A7021E00120062105F013FD0022444B1A701D22474B1A7016E001206D2105F008FD1E22434B1A700EE001208A2105F000FD2A223F4B1A7006E04D
:4051C0000120002105F0F8FC00223B4B1A7064200DF0E8FF0DF042FA38BD0DF015FA082841F06B82334B1B78DBB2AA2B56D1314B9B79DBB2C32B51D12E4BDB79DBB23C2BDA
:405200004CD12C4BDB787E3B042B47D8DFE803F03F03122130000120062105F0CDFC0022214B1A700122264B83F8A3201F22224B1A7033E00120062105F0BEFC00221A4B68
:405240001A7002221E4B83F8A3201F221A4B1A7024E00120062105F0AFFC0022124B1A700322174B83F8A3201F22134B1A7015E00120062105F0A0FC00220B4B1A700422D0
:405280000F4B83F8A3201F220B4B1A7006E00120002105F091FC0022074B1A7064200DF081FF0DF0DBF938BD4D85FF1F9486FF1F7B83FF1FCC8AFF1F7A83FF1F7083FF1FE2
:4052C0003487FF1FDB88FF1F9F86FF1F1E88FF1F4C85FF1F7C83FF1F2785FF1F0DF094F9082841F0EA81A64B1B78DBB2AA2B40F0BE80A34B9B79DBB2C32B40F0B880A04BFD
:40530000DB79DBB23C2B40F0B2809E4B1B78042B36D89B4AD278D2B2092A0FD80133DAB2984B1A709648C178974B13443031D972C17830310120C9B205F074FC904BDB784B
:40534000DBB20A2B0BD18F4B1A780132D2B21A708D4B13443021D972012005F063FC884BDB78DBB2512B0BD1864B1A780132D2B21A70854B13442C21D972012005F052FCD0
:405380007F4BDB78DBB20B2B24D17E4B1A7882B90E227E4B1A707E4B1B78012B04D101205D2105F009FC15E00120702105F004FC10E00120202105F035FC724B1B78724AE9
:4053C0001A44D27A2C2A02D10021724A1170013B6C4A13706A4BDB78DBB20C2B47D1694B1B78052B43D1684B1B7B353BDBB2022B3DD80120392105F0DFFB624B1B786249DB
:4054000001F80B3F4FF4DD7004F0D2FF012805D15D4B1B7B03F00F035F4A137040F25A205E4904F0C5FF012821D1574A937B03F00F035B490B70137C03F00F03594A1370B3
:405440003C2105F0B9FB4FF4FA700DF0ABFE0E224E4B1A704E4B1B78012B04D101205D2105F0AAFB03E00120702105F0A5FB64200DF098FE0DF0F2F838BD0DF0C5F8082813
:4054800041F01B813E4B1B78DBB2AA2B71D13C4B9B79DBB2C32B6CD1394BDB79DBB23C2B67D1374BDB78DBB28F2B04D0902B2ED07E2B5ED156E03C49002381F82D3081F85A
:4054C0002E304FF4DE702D3104F072FF01281AD10022364B1A703C2105F06EFB4FF4FA700DF060FE2A4B1B78012B04D101205D2105F062FB03E00120702105F05DFB0E22EA
:40550000224B1A7035E00120FDF7D6F931E02649012381F82D3081F82E304FF4DE702D3104F046FF012819D1204B18703C2105F043FB4FF4FA700DF035FE154B1B78012B70
:4055400004D101205D2105F037FB03E00120702105F032FB0E220D4B1A700AE00220FDF7ABF906E00120702105F026FB0E22074B1A7064200DF016FE0DF070F838BD00BFBB
:40558000CC8AFF1F4D85FF1F9486FF1F7A83FF1F2785FF1F7B83FF1F3385FF1F9F86FF1F7D83FF1F1F88FF1F3487FF1FA285FF1F0DF02AF8082841F08080A64B1B78DBB2A3
:4055C000AA2B40F0B380A34B9B79DBB2C32B40F0AD80A04BDB79DBB23C2B40F0A7809E4B1B782BBB9B4AD278D2B2092A0FD80133DAB2994B1A709748C178984B13443031FF
:40560000D972C17830310120C9B205F00BFB914BDB78DBB20A2B0BD18F4B1A780132D2B21A708E4B13443021D972012005F0FAFA884BDB78DBB20B2B1BD1874B1A783AB972
:405640000120002105F0B8FA0022854B1A7010E00120202105F0E6FA7F4B1B787F4A1A44D27A2C2A02D100217E4A1170013B7A4A1370784BDB78DBB20C2B57D1764B1B7862
:40568000012B53D10120392105F096FA724B1A78724BDA72744B93F8A330012B08D16F490A7B724B1A7040F2C1100B3104F080FE6D4B93F8A330022B08D168490A7B6C4BE2
:4056C0001A7040F2C3100B3104F072FE664B93F8A330032B08D161490A7B664B1A7040F2C5100B3104F064FE5F4B93F8A330042B08D15A490A7B604B1A7040F2EE300B3169
:4057000004F056FE4FF4FA700DF04CFD0E22544B1A705A4B1B78012B04D101205D2105F04BFA03E00120702105F046FA64200DF039FD0CF093FF38BD0CF066FF082840F0FE
:40574000BC87444B1B78DBB2AA2B40F0B682414B9B79DBB2C32B40F0B0823E4BDB79DBB23C2B40F0AA823B4BDB787E3B252B00F2A482DFE813F08102A202A202A202A20279
:40578000A202260017014A003A018700AB00F300CF00A202A202A202A202A202A202A202A2025F02A202A2023C025E018201A202A202A202A202A202A202A601CA01EE016C
:4057C00019022F4901230B7000234B7040F2C71004F0EEFD012840F070823C2105F0ECF94FF4FA700DF0DEFC0E221D4B1A70234B1B78012B04D101205D2105F0DDF95CE2DF
:405800000120702105F0D8F957E21D4901230B700B234B7040F2C71004F0CAFD012840F04C823C2105F0C8F94FF4FA700DF0BAFC0E220B4B1A70114B1B78012B04D101204A
:405840005D2105F0B9F938E20120702105F0B4F933E200BFCC8AFF1F4D85FF1F9486FF1F7A83FF1F7B83FF1F3487FF1F1E88FF1FDB88FF1F4C85FF1F7C83FF1F2785FF1FFA
:405880004885FF1FC54901230B7004234B7040F2C71004F08DFD012840F00F823C2105F08BF94FF4FA700DF07DFC0E22BC4B1A70BC4B1B78012B04D101205D2105F07CF99F
:4058C000FBE10120702105F077F9F6E1B34901230B700C234B7040F2C71004F069FD012840F0EB813C2105F067F94FF4FA700DF059FC0E22AA4B1A70AA4B1B78012B04D148
:4059000001205D2105F058F9D7E10120702105F053F9D2E1A14901230B7009234B7040F2C71004F045FD012840F0C7813C2105F043F94FF4FA700DF035FC0E22984B1A70CE
:40594000984B1B78012B04D101205D2105F034F9B3E10120702105F02FF9AEE18F4901230B7008234B7040F2C71004F021FD012840F0A3813C2105F01FF94FF4FA700DF0F4
:4059800011FC0E22864B1A70864B1B78012B04D101205D2105F010F98FE10120702105F00BF98AE17D4901230B704B7040F2C71004F0FEFC012840F080813C2105F0FCF810
:4059C0004FF4FA700DF0EEFB0E22754B1A70754B1B78012B04D101205D2105F0EDF86CE10120702105F0E8F867E16C4901230B7006234B7040F2C71004F0DAFC012840F04D
:405A00005C813C2105F0D8F84FF4FA700DF0CAFB0E22634B1A70634B1B78012B04D101205D2105F0C9F848E10120702105F0C4F843E15A4901230B700E234B7040F2C71012
:405A400004F0B6FC012840F038813C2105F0B4F84FF4FA700DF0A6FB0E22514B1A70514B1B78012B04D101205D2105F0A5F824E10120702105F0A0F81FE1484901230B70FA
:405A80000D234B7040F2C71004F092FC012840F014813C2105F090F84FF4FA700DF082FB0E223F4B1A703F4B1B78012B04D101205D2105F081F800E10120702105F07CF816
:405AC000FBE0364901230B7003234B7040F2C71004F06EFC012840F0F0803C2105F06CF84FF4FA700DF05EFB0E222D4B1A702D4B1B78012B04D101205D2105F05DF8DCE000
:405B00000120702105F058F8D7E0244901230B7005234B7040F2C71004F04AFC012840F0CC803C2105F048F84FF4FA700DF03AFB0E221B4B1A701B4B1B78012B04D1012034
:405B40005D2105F039F8B8E00120702105F034F8B3E0124901230B7007234B7040F2C71004F026FC012840F0A8803C2105F024F84FF4FA700DF016FB0E22094B1A70094B79
:405B80001B78012B04D101205D2105F015F894E00120702105F010F88FE000BF4885FF1F7A83FF1F2785FF1FB74901230B700A234B7040F2C71004F0FBFB01287DD13C2141
:405BC00004F0FAFF4FF4FA700DF0ECFA0E22AF4B1A70AF4B1B78012B04D101205D2104F0EBFF6AE00120702104F0E6FF65E0A64901230B7002234B7040F2C71004F0D8FB11
:405C000001285AD13C2104F0D7FF4FF4FA700DF0C9FA0E229D4B1A709D4B1B78012B04D101205D2104F0C8FF47E00120702104F0C3FF42E0944900230B704B7040F2C71014
:405C400004F0B6FB012838D13C2104F0B5FF4FF4FA700DF0A7FA0E228C4B1A708C4B1B78012B04D101205D2104F0A6FF25E00120702104F0A1FF20E0834900230B704B7059
:405C800040F2C71004F094FB01280FD10E227F4B1A707F4B1B78012B03D15D2104F08CFF0BE00120702104F087FF06E00120002104F082FF0022754B1A7064200DF072FA64
:405CC0000CF0CCFC38BD0CF09FFC08283ED1714B1B78DBB2AA2B34D16E4B9B79DBB2C32B2FD16C4BDB79DBB23C2B2AD1694BDB78DBB20A2B19D1684B5878684B1978012280
:405D0000674B1B7806F000FA4FF4FA700DF04AFA01200C2104F050FF64225C4B1A7061480CF0BCFE0CF08CFE0BE001200C2104F043FF6422554B1A705A480CF0AFFE0CF0AD
:405D40007FFE64200DF02EFA0CF088FC564B1B78132B40F2B28401200C2104F02DFF64224A4B1A700022504B1A7038BD0CF04CFC082840F0A284474B1B78DBB2AA2B5ED1D4
:405D8000444B9B79DBB2C32B59D1424BDB79DBB23C2B54D13F4BDB78DBB2392B0FD002D8382B05D04BE07E2B42D0942B35D046E00021364B1970012004F0FEFE3FE0334D37
:405DC00000232B7001203B2104F0F6FE324C607807F09CF960780A2104F072FB60780A2104F06EFB60780A2104F06AFB60781D2104F066FB6078562104F062FB6078312149
:405E000004F05EFB64232B700122274B1A7025480CF044FE0CF014FE11E001202F2104F0CBFE0022214B1A702822184B1A7006E00120002104F0C0FE0022144B1A70642044
:405E40000DF0B0F90CF00AFC38BD0CF0DDFB082840F033840F4B1B78DBB2AA2B51D10D4B9B79DBB2C32B4CD10A4BDB79DBB23C2B47D1084BDB78DBB2912B19D0922B28D0E3
:405E80007E2B3ED136E000BF4885FF1F7A83FF1F2785FF1FCC8AFF1F9086FF1F3588FF1F7083FF1F752200009685FF1F4D85FF1F01200A2104F080FE0122C04B1A70042295
:405EC000BF4B1A700022BF4B1A701822BE4B1A7017E001206F2104F06FFE2122B74B1A700422B74B1A700022B64B1A701822B64B1A7006E00120002104F05EFE0022B24BF8
:405F00001A7064200DF04EF90CF0A8FB38BDAF4B012013F80B1FA94A127804F0B7FC012820D16E2104F048FE2322A74B1A700120014604F0D1FB052810D90A200DF032F9D3
:405F4000012005F013FC0120212104F0C5FB052840F2B383012005F087FB38BD0120FCF7ABFC38BD0120FCF7A7FC38BD0CF04CFB082840F0A283964B1B78DBB2AA2B77D181
:405F8000934B9B79DBB2C32B72D1914BDB79DBB23C2B6DD18E4BDB78DBB2392B04D07E2B47D0382B64D13CE08A4B5A78012A07D1894901230B704B7088490B7002234B7068
:405FC000022A08D1844B01221A7003215970834B1A7004225A7040F263207F4904F0E8F9012845D140F265207C4904F0E1F901283ED1682104F0E0FD4FF4FA700DF0D2F80A
:406000000E22714B1A70764B1B78012B04D101205D2104F0D1FD2BE00120702104F0CCFD26E02622684B1A700120672104F0C4FD1EE06C4B5B78012B03D10022694B5A70A9
:4060400002E00122674B5A7040F2DA30654904F0AFF901203C2104F0AFFD4FF4FA700DF0A1F80120002104F0A7FD0022564B1A7064200DF097F80CF0F1FA38BD0CF0C4FAEB
:40608000082840F01A83524B1B78DBB2AA2B40F0DF804F4B9B79DBB2C32B40F0D9804C4BDB79DBB23C2B40F0D380494BDB78DBB28C2B0AD003D87E2B00F0C380C8E08D2B92
:4060C00041D08E2B00F09080C2E0424B5B78012B07D1414A01201070022151703F4A10705170022B07D13C4B0121197004225A703A4B19705A7040F26320374904F058F97D
:40610000012840F0A58040F26520344904F050F9012840F09D806A2104F04EFD4FF4FA700DF040F80E22284B1A702D4B1B78012B04D101205D2104F03FFD89E0012070212B
:4061400004F03AFD84E0234B5A78012A06D1224901230B704B7021490B704B70022A07D11D4B0121197003225A701C4B19705A7040F26320184904F01BF9012868D140F277
:406180006520164904F014F9012861D1692104F013FD4FF4FA700DF005F8114B1B78012B04D101205D2104F007FD03E00120702104F002FD0E22044B1A7049E09885FF1FEE
:4061C0009785FF1F4D85FF1F7A83FF1F9486FF1FCC8AFF1F8C86FF1F9086FF1F3087FF1F2785FF1F7883FF1F90490120087000224A708F4B18705A7040F2632004F0D8F89F
:40620000012825D140F26520894904F0D1F801281ED16C2104F0D0FC4FF4FA700CF0C2FF0E22844B1A70844B1B78012B04D101205D2104F0C1FC0BE00120702104F0BCFCA5
:4062400006E00120002104F0B7FC0022794B1A7064200CF0A7FF0CF001FA38BD0CF0D4F9082840F02A82754B1B78DBB2AA2B40F0D780724B9B79DBB2C32B40F0D1806F4B35
:40628000DB79DBB23C2B40F0CB806D4B1A78032A26D86A4BDB78DBB2092B0ED8674BD978684B1344303183F88E1001202A2104F0B9FC634A137801331370604BDB78DBB2E1
:4062C0000A2B0DD15E4C22785E4B1344302183F88E1001202A2104F0A5FC237801332370564BDB78DBB20B2B0ED1554B1B781BB90120FCF7E1FA07E0013BDAB2504B1A701A
:406300000120202104F08EFC4C4BDB78DBB20C2B40F086804A4B1A78002A72D000234A490B604A490B6012E0591C4948405C454C234493F88E30984204D143480368013339
:40634000036002E00020404B1860404B196010463E4B1B689A42E7D83D4B1A783A4B1B689A420FD10120262104F026FC4FF4FA700CF018FF22222F4B1A700120712104F0A9
:406380001BFC4DE00023304A1360304A136010E02F4A1A4492F824102A4A1A4492F88E20914203D128490A6801320A600133274A1360264B1B689842EAD8234B1B68042B1E
:4063C0000FD10120262104F0F7FB4FF4FA700CF0E9FE2222174B1A700120712104F0ECFB1EE00120272104F0E7FB6422114B1A700122184B1A7018480CF050FB0CF020FBAA
:406400000EE00120272104F0D7FB6422094B1A700122104B1A7010480CF040FB0CF010FB64200CF0BFFE0CF019F938BD9086FF1F3087FF1F7A83FF1F2785FF1FCC8AFF1F9B
:406440004D85FF1F9486FF1FA485FF1F8C83FF1F0C81FF1F9685FF1F752200000CF0D4F8082840F02A81954B1B78DBB2AA2B7AD1924B9B79DBB2C32B75D1904BDB79DBB2A4
:406480003C2B70D18E4B1A78032A27D88B4BDB78DBB2092B10D88948C1788A4B1344303183F88E10C17830310120C9B204F0BAFB834A137801331370804BDB78DBB20A2B4D
:4064C0000CD17F4C22787F4B1344302183F88E10012004F0A7FB237801332370774BDB78DBB20B2B0ED1764B1B781BB90120FCF7E3F907E0013BDAB2714B1A700120202190
:4065000004F090FB6D4BDB78DBB20C2B2BD16C4B1B78042B27D10120392104F04DFB0023694A1370664A127868490A7068490B6008E0591C6348034493F88E00634B58544D
:40654000634B1960624B1B689A42F2D840F29F205E4903F02DFF30B90120552104F02CFB6422594B1A7064200CF01CFE0CF076F838BD0CF049F8082840F09F804F4B1B7836
:40658000DBB2AA2B31D14D4B9B79DBB2C32B2CD14A4BDB79DBB23C2B27D1484BDB78DBB2BC2B02D0BD2B10D01FE00120702104F003FB484901230B704B704FF47D7003F0D9
:4065C000F7FE0E22404B1A700FE00120702104F0F3FA404901230B7002234B704FF47D7003F0E6FE0E22384B1A7064200CF0DAFD0CF034F838BD0CF007F808285DD12F4B4C
:406600001B78DBB2AA2B58D12C4B9B79DBB2C32B53D12A4BDB79DBB23C2B4ED1274BDB78DBB2772B39D002D8762B05D038BD822B12D0832B20D038BD0120302104F0BCFAB6
:406640000023254A13701E4A13700122234B1A7018221D4B1A7038BD0120302104F0ACFA01231D4A13700021154A11701B4A13701822154B1A7038BD0120302104F09CFAC6
:406680000222154B1A7000220D4B1A700122134B1A7018220C4B1A7038BD0120302104F08BFA03220C4B1A700022054B1A7001220A4B1A701822044B1A7038BDCC8AFF1F42
:4066C0004D85FF1F9486FF1F7A83FF1F0C81FF1F8C83FF1F8C86FF1F9785FF1F3488FF1F38B5984B1B78642B03F28385DFE813F074008000811DA100000188011D02B702ED
:40670000E702260311046304D0045205850562068007CF0776080F098E09F90A4E0CD30DEE0EDC111712EE126B13D213A21441151E16DF184A19B919061A361ADA1AB61BD1
:40674000B61C411D811D811D811D811D811D811D811D811D811D811D811D811D811D811D811D811D811D811D811D811D811D811D811D811D811D811D811D811D811D811D65
:40678000811D811D811D811D811D811D811D811D811D811D811D811D811D811D811D811D811D811D811D811D811D811D811D811D811D811D811D811D6500634B1B78012BBF
:4067C00043F2178500245F4B1C700CF02FFA0CF091F95D4B1C7038BD5C480CF019FA0CF0E9F90022584B1A700122564B1A7038BD0BF0F8FF082843F0FC840CF01DF80CF095
:4068000015FA0CF077F9524B1B78022B04D10220632104F0D1F903E00220452104F0CCF964200CF0BFFC0CF007F80322454B1A7038BD0BF0D7FF082843F0DB84454B1B7803
:40684000DBB2AA2B4ED1434B9B79DBB2C32B49D1404BDB79DBB23C2B44D13E4BDB78DBB2592B2DD002D8452B1FD03BE05C2B02D07E2B30D036E00022374BDA70344B1B7822
:40688000012B06D10220052104F096F904222D4B1A702F4B1B78022B24D10220492104F08BF91922274B1A701CE00220252104F083F90022294B1A700F22224B1A7011E06B
:4068C0000220252104F078F90022244B1A7027221C4B1A7006E00220002104F06DF90022184B1A7064200CF05DFC0BF0A5FF38BD0BF078FF082843F07C84164B1B78DBB221
:40690000AA2B77D1134B9B79DBB2C32B72D1114BDB79DBB23C2B6DD10F4AD37823F00303D3700C4BDB78DBB23B2B4BD004D80F2B16D0102B28D05DE0432B3BD07E2B52D0C0
:4069400058E000BF4B85FF1F2585FF1FBD2200002785FF1FE08AFF1F3888FF1F2D87FF1F0220062104F028F90022984B1A700220242104F057F9964AD37843F00203D3704B
:406980000522944B1A7035E002200D2104F014F900228E4B1A70904B1A700220472104F041F98B4AD37843F00103D3700522894B1A701FE00220072104F0FEF80622854BF5
:4069C0001A7017E0854B1B78022B04D10220632104F0F2F803E00220452104F0EDF803227C4B1A7006E00220002104F0E5F80022784B1A7064200CF0D5FB0BF01DFF38BDAE
:406A00000BF0F0FE082843F0F483754B1B78DBB2AA2B40F08480724B9B79DBB2C32B7ED16F4BDB79DBB23C2B79D1684B1B786D4A1278013A93423EDC694AD278D2B2092A5E
:406A40000FD80133DAB2614B1A706548C178604B13443031D972C17830310220C9B204F0E1F85F4BDB78DBB20A2B0BD1574B1A780132D2B21A70564B13443021D9720220DB
:406A800004F0D0F8564BDB78DBB2512B13D14F4B1B7883B1504A12786AB90133DAB24B4B1A704B4B13442C21D972022004F0BAF80122494B1A704A4BDB78DBB20B2B1BD18C
:406AC000424B1A783AB90220052104F075F80422404B1A7010E00220202104F0A3F83B4B1B783B4A1A44D27A2C2A02D100213A4A1170013B354A1370394BDB78DBB20C2B4E
:406B00000DD1324B1B7853B10220072104F054F82E4B1A782E4BDA7206222E4B1A7064200CF040FB0BF088FE38BD64200CF03AFB0BF058FE082820D1294B1B78DBB2AA2B1D
:406B400015D1274B9B79DBB2C32B10D1244BDB79DBB23C2B0BD1224BDB78DBB27E2B06D10220002104F028F800221A4B1A7064200CF018FB0BF060FE38BD1B4B187906F0B7
:406B8000B1FE072843F0358332200CF00BFB164B187906F0BBFE154B187032200CF002FB0B4BDB7813F0030324D00F4A10790F4A11780F4A0AF04CF9E0B90220002103F013
:406BC000FBFF0022034B1A7038BD00BF2D87FF1F3888FF1F4B85FF1F4E85FF1F2785FF1FE08AFF1F3385FF1F7083FF1F9286FF1F4388FF1F01200CF07DFA9D4B187906F003
:406C000085FE9C4B1870002803F0F3829A4B1B7803F00F03834211D0984B1B7803F00F0398420BD0964B1B7803F00F03984205D0944B1B7803F00F03984202D102200AF017
:406C400087FD8B4B187940F010000BF06FF80220082103F0B1FF07228B4B1A7038BD32200CF0A0FA824B187906F03CFE0A2813D00B2803D0062843F0BC8218E064200CF073
:406C800091FA7B4B187906F0B5FE012843F0B18208227D4B1A7038BD754B187906F0AAFE012843F0A6820822774B1A7038BD0220002103F081FF0022734B1A7038BD734B98
:406CC0001B78012B02D0022B10D038BD02200B2103F072FF6E480BF09BFF0BF06BFF00226C4B1A700A22684B1A7038BD6A4BDB7813F0040F0FD102200B2103F05DFF644897
:406D00000BF086FF0BF056FF0022624B1A700A225D4B1A7038BD02200B2103F04DFF00245D4B83F883405A480BF072FF0BF042FF584B1C700A22544B1A7038BD0BF052FD33
:406D4000082840F0D180554B1B78DBB2AA2B40F0C680524B9B79DBB2C32B40F0C0804F4BDB79DBB23C2B40F0BA800022494B1A704B4B1B78062B65D8484AD278D2B2092A05
:406D800010D80133DAB2464B1A704448C178424B1344303183F86510C17830310220C9B203F040FF3D4BDB78DBB20A2B0CD13C4B1A780132D2B21A70374B1344302183F834
:406DC0006510022003F02EFF344BDB78DBB26A2B0CD1334B1A780132D2B21A702E4B13442D2183F86510022003F01CFF2B4BDB78DBB21A2B26D9294BDB78DBB2422B21D828
:406E00000022284B1A6019E0244AD278D2B226491944097A8A420DD121490A780132D2B20A704133D9B21C4B134483F86510022003F0F8FE1B4A136801331360194B1B68D2
:406E4000192BE1D9154BDB78DBB20B2B36D1144B1A785ABB02200B2103F0AEFE0E4B002283F8652083F883200A22074B1A7025E07083FF1F9286FF1F1E88FF1FDB88FF1F72
:406E80004C85FF1F7C83FF1F4B85FF1F2785FF1FBD2200002585FF1F3888FF1FE08AFF1F2D87FF1F8C83FF1F0C81FF1F0220202103F0B8FEB04A1378013B1370AF4BDB78BA
:406EC000DBB20C2B0BD1AC4B1A7842B1AC4B83F86520012283F883200D22AA4B1A7064200CF060F90BF0A8FCA74B1B781D2B43F2808102200B2103F05FFEA14A002382F8EF
:406F0000653082F88330A04A13700A229D4B1A7038BD0BF067FC08283DD1984B1B78DBB2AA2B33D1954B9B79DBB2C32B2ED1934BDB79DBB23C2B29D1904BDB78DBB2382B6B
:406F400015D0392B22D100228B4B1A708C4BDB7813F0040F07D102200A2103F02DFE0922884B1A7012E00D22864B1A700EE002200C2103F021FE0122834B1A7083480BF03C
:406F800047FE0BF017FE64227E4B1A7064200CF009F90BF051FC7C4B1B781D2B43F2298102200C2103F008FE0122774B1A706422744B1A7038BD0220012103F08DFB0528F1
:406FC00040D90A200CF0EEF80220212103F084FB052837D9022003F097FA012832D133200BF048FC0220332103F0D0FA50B30022674B1A600AE0022003F032FB604B1C443A
:4070000084F82900624A136801331360604B1C68072CF0D90220132103F0CEFD584CE37843F00403E3704FF4FA700CF0BBF802200E2103F0C1FD00234F4A137023710C22B3
:40704000504B1A700BF0CEFB082843F0D2804B4B1B78DBB2AA2B15D1484B9B79DBB2C32B10D1464BDB79DBB23C2B0BD1434BDB78DBB23B2B06D10220632103F09DFD032246
:40708000404B1A7064200CF08DF80BF0D5FB38BD0BF0A8FB082843F0AC80384B1B78DBB2AA2B62D1354B9B79DBB2C32B5DD1334BDB79DBB23C2B58D12F4B1B78052B25D8B8
:4070C0002E4AD278D2B2092A0FD80133DAB22A4B1A702A48C1782A4B134430311971C17830310220C9B203F09DFD244BDB78DBB20A2B0BD1204B1A780132D2B21A70204B42
:40710000134430211971022003F08CFD1B4BDB78DBB20B2B12D1184B1A783AB90220052103F04AFD0422174B1A7007E00220202103F078FD104A1378013B13700F4BDB78A1
:40714000DBB20C2B11D10C4B1B7873B10C4B5B79302B0AD00220052103F02EFD064B1A78074B1A710422074B1A7064200CF01AF80BF062FB38BD00BF2D87FF1FE08AFF1FDB
:407180003888FF1F4B85FF1F2585FF1FBD2200005085FF1FBB4B5878BB4B19780022BB4B1B7904F0B1FFBA4B1B78012B02D0B94B5B787BB902200C2103F0FEFC0122B64B9B
:4071C0001A70B6480BF024FD0BF0F4FC6422B44B1A7038BD0220312103F0EEFC0022B14B1A700122AC4B1A70AC480BF011FD0BF0E1FC2122AA4B1A7038BD0BF0F3FA0828BB
:4072000042F0F787A84B1B78DBB2AA2B40F0CC80A54B9B79DBB2C32B40F0C680A24BDB79DBB23C2B40F0C0809F4BDB78DBB2652B00F086800AD85A2B52D002D8582B12D088
