:4000000000800020110000009D0000009D00000080B500AF064B064A126842F020021A60044B054A12681A6000F004FB00F03AF8E8460040BC760040FA46004010B5054CEF
:40004000237833B9044B13B10448AFF300800123237010BD2881FF1F00000000901D000008B5064B1BB106480649AFF300800648036813B1054B03B1984708BD00000000C2
:40008000901D00002C81FF1F0881FF1F0000000080B500AF00F078FAFEE700BF80B400AFFEE700BF80B586B000AF224B7B61224B3B61204B7B6135E03B691B68FB603B69C2
:4000C0005B68BB603B699B683B6000237B600CE0FB681A68BB681A60BB680433BB60FB680433FB607B6804337B607A683B689A42EED13B69DB683B6000237B6008E0BB686A
:4001000000221A60BB680433BB607B6804337B607A683B689A42F2D13B6910333B617B69013B7B617B69002BC6D101F0F5FDFFF7AFFFFEE701000000A021000080B582B0DB
:4001400000AF174B174A1A60174B174A126842F400721A6000237B600FE07B68032B04D8124B7A6853F8223000E0114B114A796842F821307B6801337B607B682F2BECD987
:400180000D4B1B78DAB20D4B1A700D4B094A1A6000F026F90B4B00221A600837BD4680BD0CED00E00004FA0514ED00E0000000009D0000000080FF1FBC7600400481FF1F34
:4001C00008ED00E00081FF1F80B582B000AF78603960786800213A6801F0CDFD0837BD4680BD00BF80B584B000AFF860B9607A60F868B9687A6801F0B5FD1037BD4680BD78
:4002000080B584B000AFF860B9607A60F868B9687A6801F0A7FD1037BD4680BD80B483B000AF0346FB71FEE780B487B000AF7860396000233B6100237B6126E07B699B005E
:400240007A6813441B68BB60BB68FB73BB6823F0FF03BB6013E03B695B003A6813441B781A46BB6813443A69520039680A4452781A703B6901333B61FB7B013BFB73FB7B29
:40028000002BE8D17B6901337B617B69102BD5D91C37BD465DF8047B704700BF80B582B000AF304B19221A802F4B18221A702F4B02221A704FF0402308221A702C4B03223B
:4002C0001A702C4B2C4A1278D2B21A702B4B08221A802B4B41F251221A800023FB7019237B6014E0FB785B00DAB2264B1B78DBB203F00103DBB21343DBB203F00303FB70B0
:400300004FF4F07000F00CFF7B68013B7B607B68002B02D0FB78032BE4D17B68002B02D10320FFF77BFF184B4FF480721A80164B07221A70154B00221A70154B48221A70D5
:40034000114B00221A70134B02221A70124B124A1278D2B242F00102D2B21A700837BD4680BD00BF80400040824000400043004000420040A14600400801004922420040FD
:40038000204200402542004004400040064000400840004001400040A243004080B483B000AF0B4B1B78FB710A4BFA7902F00702D2B21A70084BFA791209D2B21A70074B3F
:4003C00044221A700C37BD465DF8047B704700BFCF0100496E5800406F5800407658004080B582B000AF72B6334B334A1278D2B242F02402D2B21A700023FB7113E0FA79A7
:4004000013465B0013445B002C4A13443B603B681A683B689B889BB210461946FFF7D4FEFB790133FB71FB79072BE8D924482549FFF7FAFE244B244A1278D2B242F00202D5
:40044000D2B21A70214B214A1278D2B242F00202D2B21A701E4B1E4A1278D2B242F04002D2B21A701B4B1B4A1278D2B242F01002D2B21A70184819490A22FFF7C1FE184BB3
:40048000174A1278D2B242F00802D2B21A70154B01221A70FFF702FF124B81221A70124B01221A70FFF77AFF104809490E22FFF799FE0837BD4680BDE8460040941D000077
:4004C000C41D0000081E00000350014013500140A0430040C24300406051004068210000224300400048004004000840B043004080B485B000AF78600B467B800023FB8154
:400500000BE07B88013B7A6813441B781A46FB891344FB817B88013B7B807B88002BF0D1FB895B429BB218461437BD465DF8047B704700BF80B586B000AFF860B9607A601C
:400540000023FB75FA680F4B9A4206D0FB68002B03D0002000F070FF0CE00BE07B68013B7B60FA68BB681A447B6813441A78FB7D1344FB757B68002BF0D1FB7D18461837E7
:40058000BD4680BD0080004080B582B000AF06237B60002000F06EF80346002B01D100237B601C4B1B681B68002000211A46FFF7C1FF0346FB70184B1B681B78FA78D31A17
:4005C000FB70FB785B42FB70134B1B681B78FA789A4204D10F4B1B681B68002B02D1002000F02AFF0D4B1B78DBB203F0C003402B02D07B68002B05D0084B00221A7000207A
:4006000000F0AEF8322000F0ABF800F009F80837BD4680BD1081FF1F0C81FF1FFA46004080B500AF024B80221A7000F011FF80BDFA46004080B500AF0C4B1B78DBB203F08D
:40064000C003802B11D1094B00221A700220002100F0DCFB0346002B07D00220002100F0D5FB0346184600F003F880BDFA460040004700BF90B587B000AF0346FB71FB7929
:400680000320194600F0C2FB034601331C02FB790420194600F0BAFB03462344FB600023FB740023BB74FB790320194600F0AEFB034601331B027B6111E07B691B78FB720B
:4006C000FB7A002B04D0FB7AFF2B01D00123FB74BA7CFB7A1344BB747B6901337B617A69FB689A42E9D3FB790320194600F08EFB034601331B02DB087B61FA68174B9A4218
:4007000002D0FB68DB0801E04FF40043FB600AE07B6903F190431B78DAB2BB7C1344BB747B6901337B617A69FB689A42F0D3BB7C5B42BB74BC7CFB790120194600F066FB15
:4007400003469C4202D1FB7C002B01D1062300E0002318461C37BD4690BD00BFC0FF030080B5ADF5247D00AF0246FB1D1A700023A7F88A320023A7F888320A2387F88732ED
:40078000002387F8863200F055FD0346002B02D0002000F051FE00F01BFC62B6002387F88D32FB1D1B78002B02D0FB1D1B7800E0FF2307F59E7107F26A2208464FF49671FB
:4007C00000F034FCC7F87802FB1D1B78002B04D097F88732013B87F8873297F88732002B03D0D7F87832002BDBD1D7F87832002B00D0B0E2B7F86A32062B04D907F59E7338
:400800001B78012B03D0042387F88D3244E007F59E73DB781B029AB207F59E739B781343A7F88A32B7F88A32053307F59E72D35C1B029AB2B7F88A32043307F59E71CB5CE8
:400840001343A7F87632B7F88A32DA1DB7F86A329A4203D9032387F88D321DE0B7F88A32063307F59E72D35C172B03D0042387F88D3211E0B7F88A3204339BB207F59E72D0
:4008800010461946FFF734FE0346B7F876229A4202D0082387F88D320023A7F88E3297F88D32002B40F04C8207F59E731B7987F87532042387F88D3207F59E735B78313B43
:4008C0000A2B00F2398201A252F823F0F908000033090000390D0000CD0900003F0B0000390D0000510B0000A70B0000CD090000EB0B0000210D000097F88632012B17D1CA
:40090000B7F88A32002B13D10020FFF7B3FE0346002B14BF00230123DBB21A4607F59E731A710123A7F88E32002387F88D3207E206E297F88632012B47D1B7F88A32012B8C
:4009400043D197F87532032B3FD8D14B1B681B681B0C87F8743297F8752297F874329A4208D1CB4B1B681B681B0A9BB2DBB2A7F884320DE097F8752297F874329A4203D9FA
:400980000023A7F8843203E04FF48073A7F88432B7F88432DAB207F59E731A71B7F884321B0A9BB2DAB207F59E735A7107F59E73FF229A7107F59E730022DA710423A7F814
:4009C0008E32002387F88D32BAE1B9E107F59E735B78342B23D197F88632012B40F0B081B7F88A32032B40F0AB8197F875323F2B08D997F875325BB2002B03DB1023A7F806
:400A0000883203E04FF49073A7F88832B7F8883207F11002104600211A4601F0ACF997F88632012B40F08A80B7F88A32022B40F28580B7F8883207F11002D118B7F88A3257
:400A4000033B07F59E720732084611461A4601F089F9B7F88822B7F88A3213449BB2033BA7F8883297F875323F2B0AD997F875325BB2002B05DB00F099FC1023A7F88A3298
:400A800003E04FF49073A7F88A32B7F88822B7F88A329A424BD107F59E739B791B029AB207F59E735B791343A7F8883297F875323F2B27D897F875329BB21B029AB2B7F8A2
:400AC00088321344A7F87232714B1B681B681B0AA7F882326E4B1B681B68DBB2002B04D0B7F882320133A7F88232B7F87222B7F882329A4206D20A2387F88D320023A7F8AC
:400B000088321DE197F87502B7F8881207F11002B7F88A3200F0A0FB0346002B01D00A2300E0002387F88D3200F0D6FC02E0032387F88D320023A7F8883201E100E197F825
:400B40008632012B03D10023A7F8883203E1F7E097F88632012B25D1B7F88822B7F88A321344B3F5967F19D8002387F88D32B7F8883207F11002D118B7F88A3207F59E7220
:400B80000432084611461A4601F0ECF8B7F88822B7F88A321344A7F8883203E0032387F88D32CDE0CCE0B7F88A32002B1CD107F10803384A92E8030083E80300012387F87B
:400BC00086320823A7F88E32B7F88E3207F59E72111D07F10802084611461A4601F0C2F8002387F88D32ABE0AAE097F88632012B40F09580B7F88A32032B40F0908007F555
:400C00009E739B791B029AB207F59E735B791343A7F8703297F875323F2B13D997F875325BB2002B0EDBB7F870321B01C7F86C321948D7F86C121022FFF77CFC034687F8EB
:400C4000813212E097F875321A02B7F8703213441B02C7F86C320020D7F86C124FF48072FFF768FC034687F8813297F875323F2B29D897F8753203F510331A02B7F8703265
:400C800013445B01C7F86C320023A7F87E3216E01081FF1F7421000000800040B7F87E22D7F86C3213441B78DAB297F88132134487F88132B7F87E320133A7F87E32B7F82A
:400CC0007E321F2BEAD997F87532032B19D1B7F87032FF2B15D10520002100F097F80346DBB297F88122D31A87F881320620002100F08CF80346DBB297F88122D31A87F86D
:400D0000813297F881325B42DAB207F59E731A71002387F88D320123A7F88E3210E00FE00020FFF7A7FC0346002B02D1114B80221A7000F08DFB03E0052387F88D3200BF32
:400D400097F88D1207F59E72B7F88E32084611461A4600F011F8FB1D1B78002B3FF41EAD97F88632012B3FF419AD07F52477BD4680BD00BFFA46004080B584B000AF3960C5
:400D800013460246FA71BB803B6801221A703B680133FA791A703B680233BA88D2B21A703B680333BA88120A92B2D2B21A70BB8804339BB238681946FFF79AFB0346FB8101
:400DC000BB8804333A681344FA89D2B21A70BB8805333A681344FA89120A92B2D2B21A70BB8806333A68134417221A70BB8807339AB23B1D386811461A46962300F0F2F847
:400E0000034618461037BD4680BD00BF80B586B000AF02460B46FA71BB710223FB740023FB60FB79013B092B00F2928001A252F823F000BF5D0E0000770E0000910E000033
:400E4000A70E0000C10E0000DB0E00000B0F0000F50E0000210F0000370F0000BA7913461B069B1A1B0203F57F3303F570737B610123FB7472E0BA7913461B069B1A1B022E
:400E800003F57F3303F2C1337B610423FB7465E0BA7913461B069B1A1B0203F57F3303F2C5337B615AE0BA7913461B069B1A1B0203F57F3303F2C9337B610423FB744DE003
:400EC000BA7913461B069B1A1B0203F57F3303F574737B610123FB7440E0BA7913461B069B1A1B0203F57F3303F2D1337B610123FB7433E0BA7913461B069B1A1B0203F540
:400F00007F3303F2D6337B6128E0BA7913461B069B1A1B0203F57F3303F2D2337B611DE0BA7913461B069B1A1B0203F57F3303F575737B6112E0BA7913461B069B1A1B02CB
:400F400003F57F3303F576737B610423FB7405E0002000F071FA00237B6100BFFB7C012B03D17B691B78DBB2FB60FB7C022B0BD17B691B78DBB2FB607B6901331B78DBB269
:400F80001B02FA681343FB60FB7C042B1BD17B691B78DBB2FB607B6901331B78DBB21B02FA681343FB607B6902331B78DBB21B04FA681343FB607B6903331B78DBB21B06E2
:400FC000FA681343FB60FB6818461837BD4680BD80B500AF00F0A0FC00F0A0FD00F0F6FD80BD00BF80B586B000AFF8607A600A467A817B720023FB8200F090FD09E0FB8AA3
:40100000FA6813441B78184600F0C6FDFB8A0133FB82FA8A7B899A42F1D37B687A891A80002318461837BD4680BD00BF90B589B000AFF8607A600A467A817B720523BB61CB
:401040000023FB831AE000F021FD0346002B0FD000F01CFD0346FB82192000F009FA00F015FD0346FA8A9A42F2D30023BB610DE0012000F0FDF9FB8B0133FB83F98B7A7A26
:4010800013469B0013445B009942DCDB7B6800221A800023BB8336E000F0F8FC0346BB827B681A88BB8A13449AB27B681A807B681B887A899A421ED90023FB830CE0BB8B5F
:4010C000FA68D41800F098FC03462370BB8B0133BB83FB8B0133FB83FA8BBB8A9A42EED3BB8B013BFA6813441B78172B0BD0052000F0BEF907E07B681A88BB8AD31A9AB24A
:401100007B681A8004E000F0C1FC0346002BC3D1BB6918462437BD4690BD00BF000000000230800800F0058000BF013800467FF4FCAF7047EFF3108072B6704780F310880F
:40114000704700BFAFF3008080B582B000AF00F039FA4FF0FF337B6000F05EFB0346002B24D1012000F026FB0346072B1BD11348022100F049FA0346022B0DD100237B6004
:4011800002E0012000F096F90D4B1B78DBB203F00203002BF5D006E0094B1B78DBB203F00203002BE3D000F06BFB01E004237B607B6818460837BD4680BD00BF5481FF1F72
:4011C0002247004080B582B000AF00F0FBF900F023FB0346002B23D100F07AFB78607B68072B1AD102E0012000F064F9104B1B78DBB203F00203002BF5D00D4B1B78DBB26E
:4012000003F00203002B08D0094B1B78DBB29B08DBB2002B01D100237B6000F031FB01E004237B607B6818460837BD4680BD00BF2247004080B582B000AFFFF7C3FF786047
:401240007B68002B02D1FFF77FFF78607B6818460837BD4680BD00BF80B586B000AFBA600246FA730A46BA81FB8000237B61FB7B3F2B04D8FB7B042B01D901237B61FB7B23
:401280005BB2002B01DA01237B61FB7B3F2B04D9FB7B412B01D901237B61FB7B3F2B06D8BB89B3F5807F0CD901237B6109E0BB89802B01D901237B61FB88102B01D00123AF
:4012C0007B61BB68002B01D101237B617B69002B62D100F0A1FA0346002B5BD1F97BBA89FB8808461146BA6800F0BAF978617B69072B4CD102E0012000F0DCF8294B1B7807
:40130000DBB203F00203002BF5D0264B1B78DBB203F00203002B09D0224B1B78DBB29B08DBB2002B02D100237B6102E04FF0FF337B617B69002B2AD11B4B1A781A4B5B7888
:40134000F87BB98900F0F2F978617B69072B1ED102E0012000F0AEF8124B1B78DBB203F00203002BF5D00F4B1B78DBB203F00203002B09D00B4B1B78DBB29B08DBB2002BBA
:4013800002D100237B6102E04FF0FF337B6100F077FA01E004237B617B6918461837BD4680BD00BF224700405481FF1F80B582B000AFFFF7BFFE0346FB71194B184A1278ED
:4013C000D2B242F00802D2B21A70164B154A1278D2B242F00802D2B21A70134BC8221A70124B124A1278D2B242F01002D2B21A700F4B0F4A1278D2B242F01002D2B21A7009
:4014000000BF0C4B1B78DBB203F02003002BF8D0FB791846FFF792FE0837BD4680BD00BFA0430040B043004001470040AC430040BC4300400047004080B483B000AF0346A5
:40144000FB7101BE0C37BD465DF8047B704700BF80B400AF054B054A1278D2B242F00102D2B21A70BD465DF8047B7047F646004080B582B000AF786008E00C4B1B681846C6
:40148000FFF74EFE7B68A3F500437B607B68B3F5004FF2D8064B1B687A6802FB03F31846FFF73EFE0837BD4680BD00BF2081FF1F1881FF1F80B582B000AF0346FB80FB8863
:4014C000044A127802FB03F31846FFF729FE0837BD4680BD1C81FF1F80B582B000AFFFF729FE0346FB7100BF00BF00BF00BF00BF00BF00BF00BF00BF00BF00BF00BF00BFD1
:4015000000BF00BF00BF094B084A128892B242F0040292B21A80054B1B88BFF36F8FFB791846FFF70BFE0837BD4680BD0048004080B584B000AF03463960FB710F4B1B6816
:40154000FB60FB791F2B02D90020FFF775FFFB7903F01F0310339B00FA6813441B68BB60FB7903F01F0310339B00FA6813443A681A60BB6818461037BD4680BD08ED00E016
:4015800080B582B000AF02460B46FA71BB71BB79072B02D90020FFF74FFFFB791F2B02D90020FFF749FFFB7903F01F0303F1604303F56443BA795201D2B21A700837BD46B4
:4015C00080BD00BF80B582B000AFFFF7B3FD0346FB710B4B0A4A1278D2B242F00802D2B21A70084B074A1278D2B242F00802D2B21A70FB791846FFF7A1FD0837BD4680BD9B
:40160000A0430040B043004080B584B000AF78600B46FB700023FB7314E002E00120FFF749FF0D4B1B78DBB203F00103002BF5D0FB7B7A681344094A1278D2B21A70FB7B73
:401640000133FB73FA7BFB789A42E6D3FB7B18461037BD4680BD00BF224700402047004080B489B000AFBA600246FA730A46BA81FB800723FB612B4B1B78DBB203F00203DC
:40168000002B45D0284BB6221A70274BD5221A70254B02221A70234B1B78DBB203F00203002B32D1204BFA7B1A7000237B8308E01D4B7A8BB9680A4412781A707B8B0133B3
:4016C0007B837A8BFB889A42F2D3FB88B3F5807F20D1FB7B3F2B1DD8FB7B03F510331A02BB8913445B017B6100237B8309E00E4B798B7A690A441278D2B21A707B8B0133C9
:401700007B837B8B1F2BF2D904E00923FB6101E00423FB61FB6918462437BD465DF8047B704700BF224700402047004080B485B000AFF871B980BA71FB700723FB601B4BCB
:401740001B78DBB203F00203002B26D0184BB6221A70174BD8221A70154B05221A70134B1B78DBB203F00203002B13D1104BFA791A700F4BBA88120A92B2D2B21A700C4B36
:40178000BA88D2B21A700A4BBA791A70084BFA781A7004E00923FB6001E00423FB60FB6818461437BD465DF8047B7047224700402047004080B485B000AF0346FB710723C9
:4017C000FB60134B1B78DBB203F00203002B16D0104BB6221A700F4BE1221A700D4B0E221A700B4B1B78DBB203F00203002B03D1084BFA791A7004E00923FB6001E0042321
:40180000FB60FB6818461437BD465DF8047B7047224700402047004080B582B000AF04237B60FFF787FC0346FB70124B1B78002B16D1104B01221A7000237B600E4B1B683A
:4018400003F00103002B0BD00B4B0B4A126822F001021A6000BF00BF00BF084B01221A60FB781846FFF76AFC7B6818460837BD4680BD00BF4481FF1F040008404881FF1FC8
:4018800080B582B000AFFFF755FC0346FB710D4B00221A700C4B1B68012B0BD10B4B0B4A126842F001021A6000BF00BF00BF064B00221A60FB791846FFF740FC0837BD46EC
:4018C00080BD00BF4481FF1F4881FF1F0400084080B483B000AF07237B600D4B1B78DBB203F00203002B09D00A4BB6221A70094BE0221A70074B0D221A7001E004237B60C2
:401900007B6818460C37BD465DF8047B704700BF224700402047004080B500AF054B1B78002B04D100F008F8024B01221A7000F02FF880BD4C81FF1F80B500AF00200D493C
:40194000FFF7F6FD00200721FFF71AFE0A4B00221A700A4B72221A70094B20221A70094B06221A70084B47221A70084B00221A7080BD00BF0D1C00004D81FF1F8C64004008
:401980008A6400402E6400403E6400408B64004080B582B000AFFFF7CDFB0346FB71124B114A1278D2B242F02002D2B21A700F4B0E4A1278D2B242F01002D2B21A700C4BFC
:4019C00001221A600B4B0B4A1278D2B242F01002D2B21A7000F086F9FB791846FFF7AEFB0837BD4680BD00BF9C6400409A64004000E100E09B64004080B483B000AF1C4B26
:401A000001221A601B4B1B78BB711B4B1B787B711A4B1B78DBB2002B03D1BA797B799A4219D0BB79164AD35CFB71BB790133BB71BB795BB2002B01DA0023BB710D4BBA79AB
:401A40001A700E4B1B78DBB2002B03D00B4B00221A7003E002E00B4B1B78FB710A4B01221A60FB7918460C37BD465DF8047B704780E100E04E81FF1F4F81FF1F5081FF1FA9
:401A80005881FF1F4F64004000E100E080B483B000AF1D4B01221A601C4B1B78DAB21C4B1B78DBB29A420AD11A4B1B78DBB2002B02D08023FB711DE00023FB711AE0134B27
:401AC0001B78DAB2124B1B78DBB29A4208D2104B1B78DAB20D4B1B78DBB2D31AFB7109E00B4B1B78DAB2094B1B78DBB2D31ADBB2803BFB71084B01221A60FB7918460C37D1
:401B0000BD465DF8047B704780E100E04E81FF1F4F81FF1F5081FF1F00E100E080B582B000AFFFF707FB0346FB71144B134A1278D2B242F00102D2B21A70104B0F4A12783D
:401B4000D2B222F00102D2B21A70FB791846FFF7F5FA0B4B01221A600A4B00221A700A4B00221A70094B00221A70094B00221A70084B01221A600837BD4680BD9F64004060
:401B800080E100E04E81FF1F4F81FF1F5081FF1F5181FF1F00E100E080B483B000AF0346FB7100BF074B1B78DBB203F00403002BF8D1054BFA791A700C37BD465DF8047B18
:401BC000704700BF6B6400404B64004080B582B000AFFFF7AFFA0346FB710B4B0A4A1278D2B242F00102D2B21A70074B064A1278D2B222F00102D2B21A70FB791846FFF771
:401C00009DFA0837BD4680BD9B64004080B483B000AF0023FB712B4B1B78BB71BB797B71BB7903F01E03002B0BD0BB7903F01E03DAB2254B1B78DBB21343DBB2DAB2224BC7
:401C40001A70BB7903F02003002B31D01F4B1B787B711F4B1B78DBB21E4A7979D1540123FB71FB79002B23D01B4B1B78DBB2002B02D01A4B01221A70154B1B78DBB2013307
:401C8000DAB2134B1A70124B1B78DBB2DBB25BB2002B02DA0E4B00221A700D4B1B78DAB20F4B1B78DBB29A4202D10B4B01221A70BB7903F02003002BADD10C37BD465DF85C
:401CC000047B70476A6400404D81FF1F4F6400404F81FF1F5881FF1F5081FF1F5181FF1F4E81FF1F80B400AF094B094A1278D2B242F00102D2B21A70064B064A1278D2B286
:401D000042F00102D2B21A70BD465DF8047B7047A2430040B243004070B50E4B0E4D0024ED1AAD101E46AC4204D056F8242090470134F8E700F022FA084D094B0024ED1A34
:401D4000AD101E46AC4204D056F8242090470134F8E770BD8821000088210000902100008821000010B50023934203D0CC5CC4540133F9E710BD02440346934202D003F848
:401D8000011BFAE77047000032000000D021000000000000005100406000C05100401000F0510040100000000140001000140140000800400140000A004C01400002005051
:401DC000014020000252004003640040010501404B0A0140420B01403A0C0140430D01405D0E01402F0F014002400140014101400342014004440140034501400246014072
:401E00000350014001510140310134028A388B0F8C72E60102030308051A07040B050C0C0E1110101103120C130C181C1A021C101D031F14201421202C092E102F18301F93
:401E4000311C3303352039083B023F1454185604580459045B045F018002850A860287048A028B058F08900296029D039F0CA001A503A704AD03AF04B002B10FB401BB02F4
:401E8000BE11C053C104C5E0C6CBC80EC9FFCAFFCBFFCEF0CF44D00CD401D804D904DA04DB04DF01E6C0EA40EB02008001020428074009010B060D020E100F2010811180F0
:401EC000150119021E882080210622102340250126022740280129022F2231023342374038283A303B063D803E203F04450246104D014E02548057305A025D015E986080A7
:401F00006150808082109028920293029508974099509E20A140A501C079C23BC419CA59CC19CE77D0C0D210D6F1D80DE4040104050209020D04110215011D0121012704B9
:401F400029082D0133023501370C39803F105602571159045B045F01800F830485C08603880489188C018D44900391E7920C93189402958098039BE39D10A00FA11CA3E14C
:401F8000A40CA51CA7E2A80CA908AA03AC08ADFFB00FB1C0B31FB738BA82BB88D804D904DF010160039009080A400B041219130119811A401BC0228923012540261027109F
:401FC000284029A42E602FA0308031093310344035043688370939423A103B043D023E143F4058805A405E206C206E146F097484752076138D048F409028914293069508B6
:40200000974199509C809D209E029F18A108A320A424A545A748B420B540C00FC20EC40FCAFFCCDFCEFFD620040C05010603070E1001120E1544173119671A031E08200146
:402040002206252227D129672E0C31803360340F350737183A203F404003454049FF4A074BFF4C404D204EF04F055008580459045A045F01604061A8624063208106830166
:40208000850688028B018C028D079204950796049D019E029F06A104A602A902AA01AE01B002B107B404B601B802BE50C042C103C205C401C6E0C70CC818C9FFCAFFCBFFB5
:4020C000CC62CDA0CEF0CF41D00CD804D904DA04DF01E640E702E910EA30EB10ED10EE10EF120320070609200B420E800F2111821608174818081B201D501E802189230460
:402100002602274028202B082D202E0230203108348037083B043C083D203F8141044480459447164B024E025010512056085710C0C4C2BBC4E9CAA6CC56CEF2D0F2D210E6
:402140003240CC10968082409680E68005025910C004D4019D10B502EA0281109D1000010C010E01000300000100020101000100000000006930122E001E0101F8B500BF9B
:40218000F8BC08BC9E467047610000003D010000F8B500BFF8BC08BC9E4670473D000000B02100000881FF1F20000000B000000000000000881D00008C1D000000366E0176
:4021C000C05D0000180000000000E02E000000000000000000000000000000000000000000000000000000000000000000000000000000000000000000000000000000009C
:402200000080002011220000A50F0100A50F010008B50EF0C9FE00BF10B5054C237833B9044B13B10448AFF300800123237010BD5083FF1F00000000A02A0100084B10B5AA
:402240001BB108480849AFF300800848036803B910BD074B002BFBD0BDE81040184700BF00000000A02A01005483FF1F0881FF1F0000000008B50FF097FF0E4B1B78012B5F
:4022800013D10D4B1978062907D80131C9B219700120143108F086FA08BD0022064B1A700120142108F07EFA08BD034A13780133137008BDA283FF1F9A85FF1F08B510F051
:4022C0002DF80E4B1B78012B13D10D4B1978062907D80131C9B219700220143108F062FA08BD0022064B1A700220142108F05AFA08BD034A13780133137008BD4F85FF1F65
:402300004185FF1F08B562B60FF082F80FF036FA0FF0B8FA0FF06EF80FF08EF90FF054FD0FF040FE0FF096F90FF05CFD0FF048FE0FF016FA10F0C6FA052010F02BFB0020AE
:40234000202107F069FE00225E4B1A6006E05E4AD15C5E4AD15401335A4A13605A4B1A78584B1B689A42F2D220200F2107F054FE0022544B1A6007E0534AD15C534A1A4409
:40238000917701334F4A13604F4B1A784D4B1B689A42F1D24020202107F03EFE0022494B1A6008E0484AD15C484A1A4482F843100133444A1360444B1A78424B1B689A4245
:4023C000F0D28020202107F027FE00223D4B1A6008E03D4AD15C3D4A1A4482F861100133384A1360384B1A78364B1B689A42F0D2A020202107F010FE0022324B1A6008E0A7
:40240000314AD15C314A1A4482F87F1001332D4A13602D4B1A782B4B1B689A42F0D22F200C2107F0F9FD0022264B1A6008E0264AD15C264A1A4482F82F100133214A1360BF
:40244000214B1A781F4B1B689A42F0D26020092107F0E2FD1C4B1878431EDBB2082B14D80022184B1A6008E00133174AD15C174A1A4482F8D710134A1360124B1B68072BA4
:40248000F2D9124B83F8D7000EE001220D4B1A6006E00E4A1A4482F8D7300133094A1360084B1B68082BF4D940F29F20052107F0B3FD054B1878042817D10122014B1A6037
:4024C0000DE000BFA883FF1F5885FF1F3887FF1FA44AD15CA44AD1540133A44A1360A34B1B68042BF4D9A04B187040F2C110022107F092FD9B4B1B78012B03D1994B5A7891
:402500009B4B1A7040F2C310022107F085FD954B1B78012B03D1934B5A78964B1A7040F2C510022107F078FD8E4B1B78012B03D18C4B5A78904B1A7040F2EE30022107F082
:402540006BFD884B1B78012B03D1864B5A788B4B1A704FF4DD70022107F05EFD814B1B78052B05D17F4B5B7803F00F03844A137040F27A20022107F04FFD7A4B1B78012B77
:4025800003D1784B5A787F4B1A704FF41F70022107F042FD734B1B78012B03D1714B5A78794B1A7040F27E20022107F035FD6D4B1B78012B03D16B4B5A78744B1A704FF48B
:4025C0007C70022107F028FD664B1B78012B03D1644B5A786E4B1A7040F25A20062107F01BFD604B1B78052B0AD15E4AD37803F00F0368490B70537903F00F03664A137055
:4026000040F2C710022107F007FD564B1B78012B06D1624A1370534B5B7803F00F0353704FF4DE70022107F0F7FC4E4B1B78012B05D14C4B5B7803F00F03594A137040F241
:402640006320022107F0E8FC464B1B78012B05D1444B5B7803F00F03524A537040F26520022107F0D9FC3F4B1B78012B05D13D4B5B7803F00F034C4A53704FF42770032171
:4026800007F0CAFC374B1B78022B06D1354B9B7843EA0323454A138002E00122434B1A804FF47670022107F0B7FC2E4B1B78012B04D12C4B5A783E4B5A7007E03C490123E0
:4026C0000B704B704FF4767007F068FC40F2D230062107F0A1FC234B187805280FD10022224B1A6006E01F4AD15C324AD15401331E4A13601D4B1B689842F4D20CE02D4904
:4027000005230B7030234B708B70CB700B714B7140F2D23007F042FC264A537903F00F00137903F00F014FF47A7303FB01F342F2107101FB0033D07800F00F00642101FB76
:402740000031937803F00F0303EB83035B000B44527802F00F021344174A13600222174B1A7008BD5885FF1F0C81FF1FA883FF1F2288FF1FD488FF1F5085FF1FA483FF1FC4
:402780004485FF1F4085FF1F9286FF1F9786FF1F3087FF1FA583FF1F2388FF1F4C85FF1FA685FF1F9486FF1F3487FF1F3E85FF1FA083FF1FA085FF1F3488FF1F4385FF1F8C
:4027C00010B5002413E00AF04FFE02280FD1642010F0E0F8074B18780AF086FE062806D1044B18790AF080FE062800D10224002CE9D010BD9883FF1F08B501280ED1552148
:4028000007F0D0FF64220D4B1A7001220C4B1A700C480FF03DFD0FF00DFD08BD0220552107F0C0FF6422084B1A700122074B1A7007480FF0E7FD0FF0B7FD08BDA283FF1F6E
:402840009A85FF1F752200004F85FF1F4185FF1FBD22000038B5984B1B78642B03F24185DFE813F0740080003F1DA100000188011D02B702EA02170302044B04B8042B05BE
:40288000760551066507B4074008F6087109DB0A2C0CAF0DCA0EAA11F811CF123013B11380141C15E015A718FA187C19C919F819801A711B741CFF1C3F1D3F1D3F1D3F1DAE
:4028C0003F1D3F1D3F1D3F1D3F1D3F1D3F1D3F1D3F1D3F1D3F1D3F1D3F1D3F1D3F1D3F1D3F1D3F1D3F1D3F1D3F1D3F1D3F1D3F1D3F1D3F1D3F1D3F1D3F1D3F1D3F1D3F1D58
:402900003F1D3F1D3F1D3F1D3F1D3F1D3F1D3F1D3F1D3F1D3F1D3F1D3F1D3F1D3F1D3F1D3F1D3F1D3F1D3F1D3F1D3F1D6500634B1B78012B43F2D58400245F4B1C700FF0F6
:40294000B5FC0FF017FC5D4B1C7038BD5C480FF09FFC0FF06FFC0022584B1A700122564B1A7038BD0FF04AFA082843F0BA840FF06FFA0FF09BFC0FF0FDFB524B1B78022BFB
:4029800004D10120632107F00DFF03E00120452107F008FF0322484B1A7064200FF0FAFF0FF056FA38BD0FF029FA082843F09984454B1B78DBB2AA2B4ED1434B9B79DBB2BB
:4029C000C32B49D1404BDB79DBB23C2B44D13E4BDB78DBB2592B2DD002D8452B1FD03BE05C2B02D07E2B30D036E00022374BDA70344B1B78012B06D10120052107F0D2FE80
:402A000004222D4B1A702F4B1B78022B24D10120492107F0C7FE1922274B1A701CE00120252107F0BFFE0022294B1A700F22224B1A7011E00120252107F0B4FE0022244BD0
:402A40001A7027221C4B1A7006E00120002107F0A9FE0022184B1A7064200FF09BFF0FF0F7F938BD0FF0CAF9082843F03A84164B1B78DBB2AA2B77D1134B9B79DBB2C32B4E
:402A800072D1114BDB79DBB23C2B6DD10F4AD37823F00303D3700C4BDB78DBB23B2B4BD004D80F2B16D0102B28D05DE0432B3BD07E2B52D058E000BFA283FF1F9A85FF1F12
:402AC000752200004385FF1FC88AFF1F9886FF1F5185FF1F0120062107F064FE0022984B1A700120242107F093FE964AD37843F00203D3700522944B1A7035E001200D2101
:402B000007F050FE00228E4B1A70904B1A700120472107F07DFE8B4AD37843F00103D3700522894B1A701FE00120072107F03AFE0622854B1A7017E0854B1B78022B04D1F7
:402B40000120632107F02EFE03E00120452107F029FE03227C4B1A7006E00120002107F021FE0022784B1A7064200FF013FF0FF06FF938BD0FF042F9082843F0B283754B5F
:402B80001B78DBB2AA2B40F08480724B9B79DBB2C32B7ED16F4BDB79DBB23C2B79D1684B1B786D4A1278013A93423EDC694AD278D2B2092A0FD80133DAB2614B1A70654816
:402BC000C178604B13443031D972C17830310120C9B207F01DFE5F4BDB78DBB20A2B0BD1574B1A780132D2B21A70564B13443021D972012007F00CFE564BDB78DBB2512BE3
:402C000013D14F4B1B7883B1504A12786AB90133DAB24B4B1A704B4B13442C21D972012007F0F6FD0122494B1A704A4BDB78DBB20B2B1BD1424B1A783AB90120052107F070
:402C4000B1FD0422404B1A7010E00120202107F0DFFD3B4B1B783B4A1A44D27A2C2A02D100213A4A1170013B354A1370394BDB78DBB20C2B0DD1324B1B7853B1012007219B
:402C800007F090FD2E4B1A782E4BDA7206222E4B1A7064200FF07EFE0FF0DAF838BD64200FF078FE0FF0AAF8082820D1294B1B78DBB2AA2B15D1274B9B79DBB2C32B10D1E4
:402CC000244BDB79DBB23C2B0BD1224BDB78DBB27E2B06D10120002107F064FD00221A4B1A7064200FF056FE0FF0B2F838BD1B4B18780AF0F9FB072843F0F38232200FF048
:402D000049FE164B18780AF003FC154B187032200FF040FE0B4BDB7813F0030324D00F4A10780F4A11780F4A0DF08CFCE0B90120002107F037FD0022034B1A7038BD00BFF0
:402D40005185FF1F9886FF1FA283FF1FA383FF1F4385FF1FC88AFF1F4485FF1F9883FF1F3888FF1FA386FF1F01200FF0BDFDAF4B18780AF0CDFBAE4B1870002803F0B1820C
:402D8000AC4B1B7803F00F03834211D0AA4B1B7803F00F0398420BD0A84B1B7803F00F03984205D0A64B1B7803F00F03984202D101200EF0C7F89D4B187840F010000EF098
:402DC000AFFB0120082107F0EDFC07229D4B1A7038BD32200FF0DEFD944B18780AF084FB0A2813D00B2803D0062843F07A821BE064200FF0CFFD8D4B18780AF0FDFB012816
:402E000043F06F8208228F4B1A7038BD64200FF0C1FD864B18780AF0EFFB012843F061820822884B1A7038BD0120002107F0BAFC0022844B1A7038BD834B1B78012B02D0EC
:402E4000022B10D038BD01200B2107F0ABFC7F480FF01EFA0FF0EEF900227D4B1A700A22784B1A7038BD7B4BDB7813F0040F43F0388201200B2107F095FC74480FF008FA11
:402E80000FF0D8F90022724B1A700A226D4B1A7038BD0EF0B3FF082840F0B3806E4B1B78DBB2AA2B40F0A8806B4B9B79DBB2C32B40F0A280684BDB79DBB23C2B40F09C804F
:402EC0000022634B1A70654B1B78062B65D8624AD278D2B2092A10D80133DAB25F4B1A705D48C1785B4B1344303183F86510C17830310120C9B207F08BFC574BDB78DBB2DC
:402F00000A2B0CD1554B1A780132D2B21A70514B1344302183F86510012007F079FC4E4BDB78DBB26A2B0CD14C4B1A780132D2B21A70484B13442D2183F86510012007F0B6
:402F400067FC454BDB78DBB21A2B26D9424BDB78DBB2422B21D80022414B1A6019E03E4AD278D2B23F491944097A8A420DD13B490A780132D2B20A704133D9B2354B1344D1
:402F800083F86510012007F043FC354A136801331360334B1B68192BE1D92F4BDB78DBB20B2B18D12D4B1A786AB901200B2107F0F9FB284B002283F8652083F883200A226D
:402FC000204B1A7007E00120202107F021FC234A1378013B1370204BDB78DBB20C2B0BD11E4B1A7842B11B4B83F86520012283F883200D22134B1A7064200FF0CBFC0EF076
:4030000027FF134B1B781D2B43F26B8101200B2107F0C8FB0F4A002382F8653082F883300B4A13700A22074B1A7038BD9883FF1F3888FF1F2288FF1FD488FF1F5085FF1F30
:40304000A483FF1FA283FF1F4385FF1F752200009A85FF1F9886FF1FC88AFF1F5185FF1FA883FF1F0C81FF1F0EF0C8FE082834D1AB4B1B78DBB2AA2B2AD1A94B9B79DBB206
:40308000C32B25D1A64BDB79DBB23C2B20D1A44BDB78DBB2382B0CD0392B19D101200A2107F080FB00229F4B1A7009229E4B1A700EE001200C2107F075FB01229B4B1A707E
:4030C0009B480FF0E5F80FF0B5F86422964B1A7064200FF05FFC0EF0BBFE944B1B781D2B43F2FF8001200C2107F05CFB01228F4B1A7064228C4B1A7038BD0120014607F013
:40310000E1F8052840D90A200FF044FC0120212107F0D8F8052837D9012006F0EBFF012832D133200EF0B2FE0120332107F024F850B300227F4B1A600AE0012007F086F801
:403140007D4B1C4484F829007A4A136801331360784B1C68072CF0D90120132107F022FB754CE37843F00403E3704FF4FA700FF011FC01200E2107F015FB0023694A1370DE
:4031800023710C22684B1A700EF038FE082843F0A880634B1B78DBB2AA2B15D1604B9B79DBB2C32B10D15E4BDB79DBB23C2B0BD15B4BDB78DBB23B2B06D10120632107F081
:4031C000F1FA0322584B1A7064200FF0E3FB0EF03FFE38BD0EF012FE082843F08280504B1B78DBB2AA2B62D14D4B9B79DBB2C32B5DD14B4BDB79DBB23C2B58D1494B1B7848
:40320000052B25D8464AD278D2B2092A0FD80133DAB2444B1A704248C178474B134430311971C17830310120C9B207F0F1FA3C4BDB78DBB20A2B0BD13A4B1A780132D2B21B
:403240001A703D4B134430211971012007F0E0FA334BDB78DBB20B2B12D1324B1A783AB90120052107F09EFA04222F4B1A7007E00120202107F0CCFA2A4A1378013B1370DB
:40328000274BDB78DBB20C2B11D1264B1B7873B1294B5B79302B0AD00120052107F082FA204B1A78244B1A7104221F4B1A7064200FF070FB0EF0CCFD38BD204B5878204BE3
:4032C000197800221F4B1B7808F014FD1E4B1B78012B02D01D4B5B787BB901200C2107F061FA0122114B1A7011480EF0D1FF0EF0A1FF64220C4B1A7038BD0120312107F078
:4033000051FA0022074B1A700122084B1A7008480EF0BEFF0EF08EFF2122034B1A7038BDC88AFF1F5185FF1FA283FF1F9A85FF1F752200005485FF1F9886FF1F9486FF1FB8
:403340003888FF1F9883FF1F4385FF1FA083FF1F0EF054FD082842F0C487BD4B1B78DBB2AA2B40F0CA80BA4B9B79DBB2C32B40F0C480B74BDB79DBB23C2B40F0BE80B44BDD
:40338000DB78DBB2652B00F084800AD85A2B50D002D8582B12D0B0E05B2B64D05D2B24D0ABE07E2B00F0A28003D8702B00F09680A3E0932B75D0962B60D09EE00022A54B54
:4033C0001A7001203E2107F0EDF906F027FD012801D107F09DFA06F051FD012801D107F0F5FA10229C4B1A7087E001205C2107F0D9F901200021D62240F2A71307F0CCFBC9
:4034000001200021892240F2AD1307F0C5FB01200146242240F2B31307F0BEFB0120014678224FF47A7307F0B7FB13228A4B1A7063E00120602107F0B5F9012007F02AFB6A
:40344000012007F069FC012007F0F8FD012007F07BFE012007F0E6FC012007F069FD12227D4B1A7049E001202F2107F09BF90022784B1A701122784B1A703EE001205F2160
:4034800007F090F90022734B1A701B22724B1A7033E001204D2107F085F914226E4B1A702BE001206E2107F07DF90120014606F009FF05280ED90A200FF06CFA012007F0C5
:4034C0004BFF0120212106F0FDFE052802D9012007F0C0FE2322604B1A700EE00120892107F060F929225C4B1A7006E00120002107F058F90022584B1A7064200FF04AFACB
:403500000EF0A6FC38BD0EF079FC082842F0E9864F4B1B78DBB2AA2B40F003814C4B9B79DBB2C32B40F0FD80494BDB79DBB23C2B40F0F780474B1A78072A26D8444BDB78E4
:40354000DBB2092B0ED8424BD978444B1344303183F88E1001202A2107F05AF93D4A1378013313703A4BDB78DBB20A2B0DD1394C22783A4B1344302183F88E1001202A219E
:4035800007F046F9237801332370314BDB78DBB20B2B0ED12F4B1B781BB90120FFF72CF907E0013BDAB22B4B1A700120202107F02FF9274BDB78DBB20C2B40F0B280254B5A
:4035C0001A78002A00F09E80002325490B6025490B6015E0581C2449014491F8D7101F4C234493F88E30303B994204D11C490B6801330B6002E00021194B1960194B186038
:403600001046184B1B689A42E4D8174B93F8D720134B1B689A422BD10120262107F0C2F84FF4FA700FF0B6F9104B1B78012B04D101205D2107F0B6F805E0022B03D101206B
:40364000702107F0AFF80E22034B1A7069E000BFC88AFF1F5185FF1FA283FF1F9886FF1FA885FF1FA883FF1F3887FF1F4385FF1F0023AF4A1360AF4A136010E0AE4A1A4490
:4036800092F82410AD4A1A4492F88E20914203D1A7490A6801320A600133A64A1360A54B1B689842EAD8A24B1B68082B1AD10120262107F077F84FF4FA700FF06BF9A04B1C
:4036C0001B78012B04D101205D2107F06BF805E0022B03D10120702107F064F80E22994B1A701EE00120272107F05CF80122964B1A7096480EF0CCFD0EF09CFD6422914BD6
:403700001A700EE00120272107F04CF801228E4B1A708E480EF0BCFD0EF08CFD6422894B1A7064200FF036F90EF092FB38BD0EF065FB082842F0D585854B1B78DBB2AA2BDE
:403740003ED1834B9B79DBB2C32B39D1804BDB79DBB23C2B34D17E4BDB78DBB23F2B04D07E2B26D03E2B2BD116E00120402107F019F80023774A1370774A13700120612102
:40378000062207F045F801206D21072207F040F815226C4B1A7013E001203F2107F002F800236C4A13706C4A13701622654B1A7006E00120702106F0F5FF0E22614B1A70DA
:4037C00064200FF0E7F80EF043FB38BD0EF016FB082842F086855E4B1B78DBB2AA2B7BD15B4B9B79DBB2C32B76D1594BDB79DBB23C2B71D1574B1A78072A27D8544BDB78D0
:40380000DBB2092B10D85248C1784C4B1344303183F88E10C17830310120C9B206F0F8FF4C4A137801331370494BDB78DBB20A2B0CD1484C2278414B1344302183F88E10A8
:40384000012006F0E5FF237801332370404BDB78DBB20B2B0ED13F4B1B781BB90120FEF7CBFF07E0013BDAB23A4B1A700120202106F0CEFF364BDB78DBB20C2B2CD1354BA2
:403880001B78052B28D90120392106F08BFF314B1978324B83F8D7100022264B1A600BE0581C264A134493F88E202C4B0344303A83F8D7201F4B18601E4B1B689942EFD8E7
:4038C0006020274906F06AFB18B90120552106F069FF00221B4B1A7064200FF05BF80EF0B7FA38BD0EF08AFA082842F0FA84184B1B78DBB2AA2B40F0A580154B9B79DBB21B
:40390000C32B40F09F80124BDB79DBB23C2B40F099800F4BDB78DBB27A2B73D022D8772B54D0782B60D0762B40F08C8025E000BFA885FF1FA883FF1F0C81FF1F9886FF1F8B
:403940004385FF1FA283FF1F9A85FF1F75220000C88AFF1F5185FF1FA383FF1F3887FF1F0F88FF1F822B15D002D87E2B63D069E0832B1DD0952B52D064E00120302106F056
:4039800011FF0023AE4A1370AE4A13701822AE4B1A7057E00120792106F004FF0222A84B1A700022A74B1A701822A74B1A7049E001207A2106F0F6FE0322A14B1A700022B5
:4039C000A04B1A701822A04B1A703BE00120782106F0E8FE01229A4B1A700022994B1A701822994B1A702DE00120652106F0DAFE0122934B1A700022924B1A701722924B7C
:403A00001A701FE00120322106F0CCFE00238C4A13708C4A137017228B4B1A7012E08B4B1B78022B0ED10120662106F0BBFE2022854B1A7006E00120702106F0B3FE0E2292
:403A4000814B1A7064200EF0A5FF0EF001FA38BD0EF0D4F9082842F044847D4B1B78DBB2AA2B6AD17A4B9B79DBB2C32B65D1784BDB79DBB23C2B60D1754BDB787E3B042B2E
:403A80005BD8DFE803F05303172B3F000120062106F088FE00226B4B1A706E4B19786E4B83F8A3100120242106F0B2FE1A22664B1A7042E00120062106F074FE0022614BC8
:403AC0001A70664B1978644B83F8A3100120242106F09EFE1A225C4B1A702EE00120062106F060FE0022574B1A705D4B19785A4B83F8A3100120242106F08AFE1A22524BF7
:403B00001A701AE00120062106F04CFE00224D4B1A70544B1978504B83F8A3100120242106F076FE1A22484B1A7006E00120702106F038FE0E22444B1A7064200EF02AFF5B
:403B40000EF086F938BD0EF059F9082842F0C9833F4B1B78DBB2AA2B40F059813C4B9B79DBB2C32B40F05381394BDB79DBB23C2B40F04D81364BDB78DBB2632B31D002D89E
:403B8000622B07D043E1642B00F0E7807E2B00F037813CE10120392106F004FE64200EF0F9FE314B187809F09FFC062815D12E4B187909F099FC06280BD101204A2106F065
:403BC000F1FD4FF42F700EF0E5FE00221E4B1A701DE10120FEF710FE19E10120FEF70CFE15E10120372106F0DDFD204B5B78012B61D100221E4B1A600AE01E4A1344012019
:403C000093F82C1006F052FA194A136801331360174B1B68102BF0D901200A2106F046FA01200A2106F042FA01200A2106F03EFA01200A2106F03AFA00220D4B1A6026E023
:403C40009B85FF1F5185FF1FA283FF1F4385FF1FC88AFF1F2288FF1F3887FF1FD488FF1F5085FF1FA483FF1F9883FF1F9086FF1FA883FF1F0C81FF1FA14A1344022093F8D2
:403C80002C1006F013FA9F4A1368013313609D4B1B68102BF0D902200A2106F007FA02200A2106F003FA02200A2106F0FFF902200A2106F0FBF9944B5B78022B45D100223E
:403CC000904B1A600AE08E4A1344032093F82C1006F0ECF98B4A136801331360894B1B68102BF0D903200A2106F0E0F903200A2106F0DCF903200A2106F0D8F903200A21A6
:403D000006F0D4F900227F4B1A600AE07C4A1344042093F82C1006F0C9F97A4A136801331360784B1B68102BF0D904200A2106F0BDF904200A2106F0B9F904200A2106F049
:403D4000B5F904200A2106F0B1F901206B2106F029FD25226D4B1A7059E0012006F0CAF9012849D133200EF091F80120332106F003FA00284BD00022654B1A600AE0012022
:403D800006F064FA634B1C4484F82900604A1368013313605E4B1C68072CF0D900235E4A13705B4A13600CE05B4C5A4A1344207893F8291006F0E6FC2070554A1368013301
:403DC0001360534B1B68062BEED9524B93F83020514B1B789A420BD101204B2106F0E2FC4FF47A700EF0D6FD0022484B1A700EE00120FEF701FD0AE00120FEF7FDFC06E059
:403E00000120002106F0CEFC0022404B1A7064200EF0C0FD0EF01CF838BD0DF0EFFF082842F05F823D4B1B78DBB2AA2B40F040813A4B9B79DBB2C32B40F03A81374BDB7992
:403E4000DBB23C2B40F03481354B1B78042B00F2C880DFE813F005002E006900C600A1002E4AD278D2B2012A0FD80133DAB22C4B1A702A4CE17830310120C9B206F0C8FC81
:403E8000E3781B01274A82F8A130244BDB78DBB20A2B40F0A680224B1A780132D2B21A700021204B83F8A1100120302106F0B0FC97E01A4AD278D2B2092A11D80133DAB264
:403EC000174B1A70154CE17830310120C9B206F09FFCE178134A92F8A1300B4382F8A1300E4BDB78DBB20A2B7BD10D4B1A780132D2B21A700120302106F08AFC71E000BF01
:403F00000C81FF1FA883FF1F9086FF1FA283FF1F5485FF1F9886FF1F4585FF1FC88AFF1F5185FF1F3887FF1F9F4AD278D2B2052A17D80133DAB29D4C227001203A2106F038
:403F400067FC22780132D2B22270974CE17830310120C9B206F05CFCE3781B01944A82F8A030914BDB78DBB20A2B3AD18F4C22780132D2B2227001203A2106F049FC2278CA
:403F80000132D2B222700120302106F041FC0022874B83F8A02024E0834AD278D2B2092A11D80133DAB2814B1A707F4CE17830310120C9B206F02CFCE1787D4A92F8A0305A
:403FC0000B4382F8A030784BDB78DBB20A2B08D1764B1A780132D2B21A700120302106F017FC714BDB78DBB2402B17D1714B1B783BB901206F4B18707021062206F008FC21
:4040000007E000226B4B1A7001206121062206F0FFFB01206D21072206F0FAFB624BDB78DBB20B2B1BD1614B1A7882B90E22624B1A70624B1B78012B04D101205D2106F054
:40404000B1FB0CE00120702106F0ACFB07E00120202106F0DDFB554A1378013B1370524BDB78DBB20C2B23D1504B1B78052B1FD1504B1B7843F002024D4991F8A13043EAE1
:40408000421381F8A13005F029FF012810D10E22494B1A70494B1B78012B03D15D2106F081FB05E0022B03D10120702106F07AFB64200EF06FFC0DF0CBFE38BD0DF09EFE91
:4040C000082842F00E81384B1B78DBB2AA2B40F07281354B9B79DBB2C32B40F06C81324BDB79DBB23C2B40F06681304B1A78072A00F22281DFE812F00800310064002001D2
:404100009D00C3002001FB00274BDB78DBB2032B0FD8254CE17830310120C9B206F078FB224A137801331370E3781B01204A82F89D301D4BDB78DBB20A2B40F0FD8000224A
:404140001B4B83F89D20194C01203021227806F05FFB237801332370EEE0134BDB78DBB2092B11D8104CE17830310120C9B206F04FFBE1780E4A92F89D300B4382F89D30C6
:404180000A4A137801331370074BDB78DBB20A2B40F0D280054C01203021227806F038FB237801332370C7E0C88AFF1F5185FF1F3887FF1FA383FF1FA283FF1F4385FF1F43
:4041C000AA4BDB78DBB2012B17D801202F2106F01FFBA74C22780132D2B22270A34DE97830310120C9B206F013FBEB781B01A14A82F89E302378013323709C4BDB78DBB24B
:404200000A2B40F099809A4C01202F21227806F0FFFA22780132D2B222700120302106F0F7FA0022934B83F89E2023780133237082E08E4BDB78DBB2092B11D88B4CE178E1
:4042400030310120C9B206F0E3FAE178894A92F89E300B4382F89E30854A137801331370824BDB78DBB20A2B66D1814C01203021227806F0CDFA2378013323705CE07B4B30
:40428000DB78DBB2092B17D801202F2106F0C0FA774C22780132D2B22270744DE97830310120C9B206F0B4FAEB781B01714A82F89F302378013323706C4BDB78DBB20A2BC0
:4042C0003AD16B4C01202F21227806F0A1FA22780132D2B222700120302106F099FA0022644B83F89F2023780133237024E05F4BDB78DBB2092B11D85C4CE17830310120E7
:40430000C9B206F085FAE1785A4A92F89F300B4382F89F30564A137801331370534BDB78DBB20A2B08D1524C01203021227806F06FFA2378013323704C4BDB78DBB20B2B1A
:404340001BD14B4B1B7883B90E224B4B1A704B4B1B78012B04D101205D2106F023FA0CE00120702106F01EFA07E0013BDAB2404B1A700120202106F04BFA3C4BDB78DBB24C
:404380000C2B18D13A4B1B78082B14D105F0D4FD012810D10E22384B1A70384B1B78012B03D15D2106F0FEF905E0022B03D10120702106F0F7F964200EF0ECFA0DF048FDF7
:4043C00038BD0DF01BFD082841F08B87274B1B78DBB2AA2B40F00A81244B9B79DBB2C32B40F00481214BDB79DBB23C2B40F0FE801F4B1B780C2B6ED81C4AD278D2B2092A28
:404400001ED80133DAB21A4B1A701D4B1B7813B1012B07D00DE0154BD978164B13443031997706E0114BD978124B1344303183F82F100E4BD97830310120C9B207F010F846
:404440000A4BDB78DBB20A2B25D1094B1A780132D2B21A700A4B1B7813B1012B12D016E0044B13443021997711E000BFC88AFF1F5185FF1F3887FF1FA283FF1F4385FF1FE4
:404480009B85FF1F9D4B1344302183F82F100120302106F0E5FF9A4BDB78DBB2512B1AD1984B1B78BBB10133DAB2964B1A70964B1B7813B1012B05D009E0904B13442E214C
:4044C000997704E08D4B13442E2183F82F1001202E2106F0C5FF8A4BDB78DBB20B2B49D1884B1A78002A3DD10E22884B1A70884B1B78012B04D101205D2106F053F903E00C
:404500000120702106F04EF92F200C2105F084FD0022804B1A6008E07F4AD15C774A1A4482F82F1001337B4A13607B4B1A78794B1B689A42F0D220200F2105F06DFD0022E3
:40454000744B1A6007E0744AD15C6C4A1A4491770133704A1360704B1A786E4B1B689A42F1D207E00120202106F07AFF654A1378013B1370624BDB78DBB20C2B36D10E22DF
:40458000624B1A70624B1B78012B04D101205D2106F008F903E00120702106F003F95A4B1B7813B1012B11D020E0564B1B78534901F81E3F202005F0F1FCB8B9012055210D
:4045C00006F0F0F86422514B1A700FE04D4B1B784A4901F82F3F2F2005F0E0FC30B90120552106F0DFF86422484B1A7064200EF0D1F90DF02DFC38BD0DF000FC082841F04C
:4046000070863F4B1B78DBB2AA2B40F0CF823C4B9B79DBB2C32B40F0C982394BDB79DBB23C2B40F0C382374B1B78172B00F2D481334AD278D2B2092A37D80133DAB2314B4B
:404640001A70314B1B78042B28D8DFE803F00309111921002A4BDB78303328498B541DE0274BD978254B1344303183F8431015E0234BD978214B1344303183F861100DE07F
:404680001F4BD9781D4B1344303183F87F1005E01B4BD978214B13443031D972184BD97830310120C9B206F0DBFE154BDB78DBB20A2B3DD1134B1A780132D2B21A70124B79
:4046C0001B78042B30D8DFE803F003070D132B0030210A4B995427E0084B1344302183F8431021E0054B1344302183F861101BE0024B1344302183F87F1015E03887FF1FCD
:40470000C88AFF1F5185FF1F9B85FF1FA283FF1F4385FF1FA883FF1F5885FF1F9886FF1F9D4B13443021D9720120302106F098FE9A4BDB78DBB2672B2BD1994B1A78013259
:40474000D2B21A70974B1B78042B1ED8DFE803F003070D1319002321934B995415E0924B1344232183F843100FE08F4B1344232183F8611009E08C4B1344232183F87F1095
:4047800003E0854B13442321D9720120232106F067FE824BDB78DBB26A2B2BD1804B1A780132D2B21A707F4B1B78042B1ED8DFE803F003070D1319002D217B4B995415E04F
:4047C000794B13442D2183F843100FE0764B13442D2183F8611009E0734B13442D2183F87F1003E06C4B13442D21D97201202D2106F036FE694BDB78DBB2662B2BD1684BF4
:404800001A780132D2B21A70664B1B78042B1ED8DFE803F003070D1319004021624B995415E0614B1344402183F843100FE05E4B1344402183F8611009E05B4B134440219A
:4048400083F87F1003E0544B13444021D9720120402106F005FE514BDB78DBB2692B2BD14F4B1A780132D2B21A704E4B1B78042B1ED8DFE803F003070D1319002E214A4B83
:40488000995415E0484B13442E2183F843100FE0454B13442E2183F8611009E0424B13442E2183F87F1003E03B4B13442E21D97201202E2106F0D4FD384BDB78DBB2682B51
:4048C0002BD1374B1A780132D2B21A70354B1B78042B1ED8DFE803F003070D1319002021314B995415E0304B1344202183F843100FE02D4B1344202183F8611009E02A4B69
:404900001344202183F87F1003E0234B13442021D9720120202106F0A3FD204BDB78DBB21A2B59D91D4BDB78DBB2422B54D800221E4B1A604CE0194BDB78DBB21C4A0A44DD
:40494000127A934240D1164B1A780132D2B21A70144B1B78042B32D8DFE803F003080F162C0001F141031048835428E00E4B134401F1410083F8430021E00B4B134401F1A2
:40498000410083F861001AE0074B134401F1410083F87F0013E000BF9886FF1FC88AFF1F5185FF1F9B85FF1F3887FF1FA883FF1F0C81FF1F9E4B134401F14100D87241317A
:4049C0000120C9B206F04CFD9A4A136801331360984B19681929AED9974BDB78DBB20B2B76D1964B1A78002A6AD10E22944B1A70944B1B78012B04D101205D2105F0D2FE22
:404A000003E00120702105F0CDFE4020202105F003FB0022874B1A6008E08B4AD15C8B4A1A4482F843100133824A1360864B1A78804B1B689A42F0D28020202105F0ECFAB7
:404A400000227C4B1A6008E07F4AD15C7F4A1A4482F861100133774A13607B4B1A78754B1B689A42F0D2A020202105F0D5FA0022704B1A6008E0744AD15C744A1A4482F8BD
:404A80007F1001336B4A13606F4B1A78694B1B689A42F0D20020202105F0BEFA0022654B1A6006E0684AD15C684AD1540133614A1360654B1A785F4B1B689A42F2D207E0AC
:404AC0000120202106F0CCFC5C4A1378013B1370594BDB78DBB20C2B68D10E22584B1A70584B1B78012B04D101205D2105F05AFE03E00120702105F055FE554B1B78042BF3
:404B000054D8DFE803F00314263748004F494B4B1B780B70002005F041FA002846D10120552105F03FFE6422454B1A703EE0434B1B78464901F8433F402005F02FFA0028B0
:404B400034D10120552105F02DFE64223C4B1A702CE03A4B1B783D4901F8613F802005F01DFA18BB0120552105F01CFE6422344B1A701BE0314B1B78344901F87F3FA020ED
:404B800005F00CFA90B90120552105F00BFE64222B4B1A700AE0294B1A78254BDA720120392105F0FFFD2422254B1A7064200DF0F1FE0DF04DF938BD0DF020F9082841F01F
:404BC00090831D4B1B78DBB2AA2B2AD11A4B9B79DBB2C32B25D1184BDB79DBB23C2B20D1154BDB78DBB25F2B04D07E2B12D05E2B17D107E00422124B1A700120052105F0FA
:404C0000D1FD0EE00B220E4B1A7001201D2105F0C9FD06E00120002105F0C4FD0022084B1A7064200DF0B6FE0DF012F938BD00BF9886FF1FA883FF1FC88AFF1F5185FF1FD7
:404C4000A283FF1F4385FF1F5885FF1F3887FF1F9B85FF1F0DF0D2F8082841F04283A84B1B78DBB2AA2B40F0C680A54B9B79DBB2C32B40F0C080A24BDB79DBB23C2B40F056
:404C8000BA80A04B1B78062B25D89D4AD278D2B2092A0FD80133DAB29A4B1A709848C178994B13443031D972C17830310120C9B205F0AEFD924BDB78DBB20A2B0BD1914B90
:404CC0001A780132D2B21A708F4B13443021D972012005F09DFD8A4BDB78DBB20B2B24D1884B1A7882B90E22884B1A70884B1B78012B04D101205D2105F054FD15E00120F5
:404D0000702105F04FFD10E00120202105F080FD7C4B1B787C4A1A44D27A2C2A02D100217C4A1170013B774A1370754BDB78DBB20C2B60D1734B1B78032B5CD90622734B60
:404D40001A700120392105F02DFD6E4B1A786E4BDA72714B18780BF0B7FE002848D06F4B93F8A3206E4B1B789A4204D140F2A7106C4905F013F9694B93F8A3206A4B1B7895
:404D80009A4204D140F2AD10664905F007F9634B93F8A320654B1B789A4204D140F2B310604905F0FBF85D4B93F8A320604B1B789A4204D14FF47A705A4905F0EFF8012087
:404DC0003C2105F0EFFC4FF4FA700DF0E3FD0E224E4B1A704E4B1B78012B04D101205D2105F0E0FC07E00120702105F0DBFC02E00120FDF701FD64200DF0CCFD0DF028F83B
:404E000038BD0CF0FBFF082841F06B823C4B1B78DBB2AA2B50D13A4B9B79DBB2C32B4BD1374BDB79DBB23C2B46D1354BDB787E3B032B41D8DFE803F0390226311C22334BB0
:404E40001A700120582105F0ADFC01200021732240F2C11305F002FF01200021CF2240F2C31305F0FBFE01200146292240F2C51305F0F4FE012001467B2240F2EE3305F083
:404E8000EDFE19E01D22214B1A700120062105F089FC00221B4B1A700EE01E221B4B1A7001206D2105F07EFC06E00120002105F079FC0022154B1A7064200DF06BFD0CF046
:404EC000C7FF38BD0CF09AFF082841F00A820C4B1B78DBB2AA2B70D1094B9B79DBB2C32B6BD1074BDB79DBB23C2B66D1044BDB787E3B042B61D8DFE803F0591D2C3B4A0054
:404F0000C88AFF1F5185FF1F9886FF1FA283FF1F4385FF1FA383FF1F9883FF1F3887FF1FD488FF1FA386FF1F2288FF1F5085FF1FA483FF1F1F22B14B1A700120062105F089
:404F400031FC0022AE4B1A700122AE4B83F8A32033E01F22A94B1A700120062105F022FC0022A74B1A700222A64B83F8A32024E01F22A24B1A700120062105F013FC0022BD
:404F80009F4B1A7003229F4B83F8A32015E01F229A4B1A700120062105F004FC0022984B1A700422974B83F8A32006E00120002105F0F8FB0022914B1A7064200DF0EAFC7A
:404FC0000CF046FF38BD0CF019FF082841F089818D4B1B78DBB2AA2B40F0BE808A4B9B79DBB2C32B40F0B880874BDB79DBB23C2B40F0B280824B1B78042B36D8824AD278C6
:40500000D2B2092A0FD80133DAB27D4B1A707E48C1787E4B13443031D972C17830310120C9B205F0F5FB784BDB78DBB20A2B0BD1734B1A780132D2B21A70744B134430212E
:40504000D972012005F0E4FB6F4BDB78DBB2512B0BD16B4B1A780132D2B21A706B4B13442C21D972012005F0D3FB674BDB78DBB20B2B24D1624B1A7882B90E225F4B1A7051
:40508000634B1B78012B04D101205D2105F08AFB15E00120702105F085FB10E00120202105F0B6FB564B1B78584A1A44D27A2C2A02D10021574A1170013B514A1370524B9E
:4050C000DB78DBB20C2B47D14D4B1B78052B43D14E4B1B7B353BDBB2022B3DD80120392105F060FB464B1B78484901F80B3F4FF4DD7004F053FF012805D1444B1B7B03F0F4
:405100000F03454A137040F25A20444904F046FF012821D13D4A937B03F00F0340490B70137C03F00F033F4A13703C2105F03AFB4FF4FA700DF02EFC0E22304B1A70344B71
:405140001B78012B04D101205D2105F02BFB03E00120702105F026FB64200DF01BFC0CF077FE38BD0CF04AFE082841F0BA80264B1B78DBB2AA2B40F08B80234B9B79DBB2A9
:40518000C32B40F08580204BDB79DBB23C2B7FD11D4BDB78DBB28F2B04D0902B46D07E2B76D16EE01749002381F82D3081F82E304FF4DE702D3104F0F1FE01281AD10022AC
:4051C000194B1A703C2105F0EDFA4FF4FA700DF0E1FB0F4B1B78012B04D101205D2105F0E1FA03E00120702105F0DCFA0E22034B1A704DE00120FDF7FFFA49E0A283FF1F96
:405200005185FF1F3887FF1FC88AFF1F9886FF1F4385FF1FA383FF1F4485FF1FA386FF1FA583FF1F2388FF1FA685FF1FA049012381F82D3081F82E304FF4DE702D3104F0A4
:40524000ADFE012819D19B4B18703C2105F0AAFA4FF4FA700DF09EFB974B1B78012B04D101205D2105F09EFA03E00120702105F099FA0E22914B1A700AE00220FDF7BCFABE
:4052800006E00120702105F08DFA0E228B4B1A7064200DF07FFB0CF0DBFD38BD0CF0AEFD082841F01E80864B1B78DBB2AA2B40F0B380834B9B79DBB2C32B40F0AD80804B32
:4052C000DB79DBB23C2B40F0A7807E4B1B782BBB7B4AD278D2B2092A0FD80133DAB2794B1A707748C178784B13443031D972C17830310120C9B205F08BFA714BDB78DBB208
:405300000A2B0BD16F4B1A780132D2B21A706E4B13443021D972012005F07AFA684BDB78DBB20B2B1BD1674B1A783AB90120002105F038FA0022614B1A7010E0012020219A
:4053400005F066FA5F4B1B785F4A1A44D27A2C2A02D100215D4A1170013B5A4A1370584BDB78DBB20C2B57D1564B1B78012B53D10120392105F016FA524B1A78524BDA7275
:405380004B4B93F8A330012B08D14F490A7B504B1A7040F2C1100B3104F000FE444B93F8A330022B08D148490A7B4A4B1A7040F2C3100B3104F0F2FD3D4B93F8A330032B21
:4053C00008D141490A7B444B1A7040F2C5100B3104F0E4FD364B93F8A330042B08D13A490A7B3E4B1A7040F2EE300B3104F0D6FD4FF4FA700DF0CEFA0E22304B1A702E4B1F
:405400001B78012B04D101205D2105F0CBF903E00120702105F0C6F964200DF0BBFA0CF017FD38BD0CF0EAFC082840F05A87244B1B78DBB2AA2B40F0B682214B9B79DBB200
:40544000C32B40F0B0821E4BDB79DBB23C2B40F0AA821B4BDB787E3B252B00F2A482DFE813F08102A202A202A202A202A2023F00170163003A018700AB00F300CF00A202E7
:40548000A202A202A202A202A202A202A2025F02A202A2023C025E018201A202A202A202A202A202A202A601D101F501190200BF3887FF1FA685FF1F4385FF1FA283FF1F37
:4054C000C88AFF1F5185FF1F9886FF1FA383FF1F2288FF1FD488FF1F5085FF1FA483FF1FC54901230B7000234B7040F2C71004F055FD012840F057823C2105F053F94FF461
:40550000FA700DF047FA0E22BC4B1A70BC4B1B78012B04D101205D2105F044F943E20120702105F03FF93EE2B34901230B700B234B7040F2C71004F031FD012840F03382B5
:405540003C2105F02FF94FF4FA700DF023FA0E22AA4B1A70AA4B1B78012B04D101205D2105F020F91FE20120702105F01BF91AE2A14901230B7004234B7040F2C71004F0E5
:405580000DFD012840F00F823C2105F00BF94FF4FA700DF0FFF90E22984B1A70984B1B78012B04D101205D2105F0FCF8FBE10120702105F0F7F8F6E18F4901230B700C2374
:4055C0004B7040F2C71004F0E9FC012840F0EB813C2105F0E7F84FF4FA700DF0DBF90E22864B1A70864B1B78012B04D101205D2105F0D8F8D7E10120702105F0D3F8D2E169
:405600007D4901230B7009234B7040F2C71004F0C5FC012840F0C7813C2105F0C3F84FF4FA700DF0B7F90E22744B1A70744B1B78012B04D101205D2105F0B4F8B3E1012097
:40564000702105F0AFF8AEE16B4901230B7008234B7040F2C71004F0A1FC012840F0A3813C2105F09FF84FF4FA700DF093F90E22624B1A70624B1B78012B04D101205D21B8
:4056800005F090F88FE10120702105F08BF88AE1594901230B704B7040F2C71004F07EFC012840F080813C2105F07CF84FF4FA700DF070F90E22514B1A70514B1B78012B11
:4056C00004D101205D2105F06DF86CE10120702105F068F867E1484901230B7006234B7040F2C71004F05AFC012840F05C813C2105F058F84FF4FA700DF04CF90E223F4B58
:405700001A703F4B1B78012B04D101205D2105F049F848E10120702105F044F843E1364901230B700E234B7040F2C71004F036FC012840F038813C2105F034F84FF4FA7046
:405740000DF028F90E222D4B1A702D4B1B78012B04D101205D2105F025F824E10120702105F020F81FE1244901230B700D234B7040F2C71004F012FC012840F014813C210B
:4057800005F010F84FF4FA700DF004F90E221B4B1A701B4B1B78012B04D101205D2105F001F800E10120702104F0FCFFFBE0124901230B7003234B7040F2C71004F0EEFB80
:4057C000012840F0F0803C2104F0ECFF4FF4FA700DF0E0F80E22094B1A70094B1B78012B04D101205D2104F0DDFFDCE00120702104F0D8FFD7E000BF4C85FF1FA283FF1FDC
:405800004385FF1FC04901230B7005234B7040F2C71004F0C3FB012840F0C5803C2104F0C1FF4FF4FA700DF0B5F80E22B74B1A70B74B1B78012B04D101205D2104F0B2FFA0
:40584000B1E00120702104F0ADFFACE0AE4901230B7007234B7040F2C71004F09FFB012840F0A1803C2104F09DFF4FF4FA700DF091F80E22A54B1A70A54B1B78012B04D1DF
:4058800001205D2104F08EFF8DE00120702104F089FF88E09C4901230B700A234B7040F2C71004F07BFB01287DD13C2104F07AFF4FF4FA700DF06EF80E22944B1A70944B1D
:4058C0001B78012B04D101205D2104F06BFF6AE00120702104F066FF65E08B4901230B7002234B7040F2C71004F058FB01285AD13C2104F057FF4FF4FA700DF04BF80E22C2
:40590000824B1A70824B1B78012B04D101205D2104F048FF47E00120702104F043FF42E0794900230B704B7040F2C71004F036FB012838D13C2104F035FF4FF4FA700DF0FA
:4059400029F80E22714B1A70714B1B78012B04D101205D2104F026FF25E00120702104F021FF20E0684900230B704B7040F2C71004F014FB01280FD10E22644B1A70644B86
:405980001B78012B03D15D2104F00CFF0BE00120702104F007FF06E00120002104F002FF00225A4B1A7064200CF0F4FF0CF050FA38BD0CF023FA08283ED1564B1B78DBB20B
:4059C000AA2B34D1534B9B79DBB2C32B2FD1514BDB79DBB23C2B2AD14E4BDB78DBB20A2B19D14D4B58784D4B197801224C4B1B7806F080F94FF4FA700CF0CCFF01200C211A
:405A000004F0D0FE6422414B1A7046480CF040FC0CF010FC0BE001200C2104F0C3FE64223A4B1A703F480CF033FC0CF003FC64200CF0B0FF0CF00CFA3B4B1B78132B40F250
:405A4000508401200C2104F0ADFE64222F4B1A700022354B1A7038BD0CF0D0F9082840F040842C4B1B78DBB2AA2B71D1294B9B79DBB2C32B6CD1274BDB79DBB23C2B67D1F1
:405A8000244BDB78DBB2392B0FD002D8382B05D05EE07E2B55D0942B48D059E000211B4B1970012004F07EFE52E0184D00232B7001203B2104F076FE174C607807F028F9F8
:405AC00060780A2104F0F2FA60780A2104F0EEFA60780A2104F0EAFA60781D2104F0E6FA6078562104F0E2FA6078312104F0DEFA64232B7001220C4B1A700A480CF0C8FBD3
:405B00000CF098FB24E000BF4C85FF1FA283FF1F4385FF1FC88AFF1F9486FF1F3888FF1F9883FF1F752200009A85FF1F01202F2104F038FE0022BE4B1A702822BD4B1A703C
:405B400006E00120002104F02DFE0022B94B1A7064200CF01FFF0CF07BF938BD0CF04EF9082840F0BE83B44B1B78DBB2AA2B3CD1B14B9B79DBB2C32B37D1AF4BDB79DBB2D8
:405B80003C2B32D1AC4BDB78DBB2912B04D0922B13D07E2B29D121E01822A64B1A7001200A2104F0FFFD0122A44B1A700422A44B1A7000229E4B1A7017E018229D4B1A706C
:405BC00001206F2104F0EEFD21229C4B1A7004229B4B1A700022964B1A7006E00120002104F0E0FD0022934B1A7064200CF0D2FE0CF02EF938BD934B012013F80B1F8F4A46
:405C0000127804F039FC012820D16E2104F0CAFD2322884B1A700120014604F053FB052810D90A200CF0B6FE012005F095FB0120212104F047FB052840F25383012005F087
:405C400009FB38BD0120FCF7D7FD38BD0120FCF7D3FD38BD0CF0D2F8082840F04283764B1B78DBB2AA2B77D1734B9B79DBB2C32B72D1714BDB79DBB23C2B6DD16E4BDB78AE
:405C8000DBB2392B04D07E2B47D0382B64D13CE06D4B5A78012A07D16C4901230B704B706B490B7002234B70022A08D1674B01221A7003215970664B1A7004225A7040F252
:405CC0006320624904F06AF9012845D140F265205F4904F063F901283ED1682104F062FD4FF4FA700CF056FE0E22524B1A70594B1B78012B04D101205D2104F053FD2BE0A3
:405D00000120702104F04EFD26E02622494B1A700120672104F046FD1EE04F4B5B78012B03D100224C4B5A7002E001224A4B5A7040F2DA30484904F031F901203C2104F077
:405D400031FD4FF4FA700CF025FE0120002104F029FD0022374B1A7064200CF01BFE0CF077F838BD0CF04AF8082840F0BA82324B1B78DBB2AA2B40F0E0802F4B9B79DBB2AF
:405D8000C32B40F0DA802C4BDB79DBB23C2B40F0D480294BDB78DBB28C2B0AD003D87E2B00F0C480C9E08D2B58D08E2B00F09180C3E0254B5B78012B07D1244A012010704F
:405DC00002215170224A10705170022B07D11F4B0121197004225A701D4B19705A7040F263201A4904F0DAF8012840F0A68040F26520174904F0D2F8012840F09E806A2119
:405E000004F0D0FC4FF4FA700CF0C4FD0E22094B1A70104B1B78012B04D101205D2104F0C1FC8AE00120702104F0BCFC85E000BF5185FF1FA283FF1FC88AFF1F9C85FF1F19
:405E40009B85FF1F9886FF1F9086FF1F9486FF1F3487FF1F4385FF1FA083FF1FAE4B5A78012A06D1AD4901230B704B70AC490B704B70022A07D1A94B0121197003225A7062
:405E8000A74B19705A7040F26320A44904F086F8012852D140F26520A14904F07FF801284BD1692104F07EFC4FF4FA700CF072FD9C4B1B78012B04D101205D2104F072FC60
:405EC00003E00120702104F06DFC0E22964B1A7033E092490120087000224A70904B18705A7040F2632004F059F8012825D140F265208B4904F052F801281ED16C2104F00A
:405F000051FC4FF4FA700CF045FD0E22864B1A70844B1B78012B04D101205D2104F042FC0BE00120702104F03DFC06E00120002104F038FC00227C4B1A7064200CF02AFD36
:405F40000BF086FF38BD0BF059FF082840F0C981764B1B78DBB2AA2B40F0D780734B9B79DBB2C32B40F0D180704BDB79DBB23C2B40F0CB806E4B1A78032A26D86B4BDB78A7
:405F8000DBB2092B0ED8694BD9786A4B1344303183F88E1001202A2104F03AFC644A137801331370614BDB78DBB20A2B0DD1604C2278604B1344302183F88E1001202A216C
:405FC00004F026FC237801332370584BDB78DBB20B2B0ED1564B1B781BB90120FCF70CFC07E0013BDAB2524B1A700120202104F00FFC4E4BDB78DBB20C2B40F086804C4BB9
:406000001A78002A72D000234B490B604B490B6012E0591C4A48405C464C234493F88E30984204D1444803680133036002E00020414B1860414B19601046404B1B689A42E2
:40604000E7D83F4B1A783C4B1B689A420FD10120262104F0A7FB4FF4FA700CF09BFC2222314B1A700120712104F09CFB4DE00023314A1360314A136010E0314A1A4492F83A
:4060800024102C4A1A4492F88E20914203D12A490A6801320A600133284A1360274B1B689842EAD8244B1B68042B0FD10120262104F078FB4FF4FA700CF06CFC22221A4B43
:4060C0001A700120712104F06DFB1EE00120272104F068FB6422144B1A700122194B1A7019480CF0D5F80CF0A5F80EE00120272104F058FB64220C4B1A700122114B1A70F8
:4061000011480CF0C5F80CF095F864200CF042FC0BF09EFE38BD00BF9086FF1F9486FF1F3487FF1F4385FF1FA283FF1FC88AFF1F5185FF1F9886FF1FA885FF1FA883FF1F19
:406140000C81FF1F9A85FF1F752200000BF056FE082840F0C680634B1B78DBB2AA2B7AD1604B9B79DBB2C32B75D15E4BDB79DBB23C2B70D15C4B1A78032A27D8594BDB78AF
:40618000DBB2092B10D85748C178584B1344303183F88E10C17830310120C9B204F038FB514A1378013313704E4BDB78DBB20A2B0CD14D4C22784D4B1344302183F88E1099
:4061C000012004F025FB237801332370454BDB78DBB20B2B0ED1444B1B781BB90120FCF70BFB07E0013BDAB23F4B1A700120202104F00EFB3B4BDB78DBB20C2B2BD13A4B33
:406200001B78042B27D10120392104F0CBFA0023374A1370344A127836490A7036490B6008E0591C3148034493F88E00314B5854314B1960304B1B689A42F2D840F29F2076
:406240002C4903F0ABFE30B90120552104F0AAFA6422274B1A7064200CF09CFB0BF0F8FD38BD0BF0CBFD08283BD11E4B1B78DBB2AA2B31D11B4B9B79DBB2C32B2CD1194BC2
:40628000DB79DBB23C2B27D1164BDB78DBB2BC2B02D0BD2B10D01FE0184901240C704C704FF47D7003F07AFE2046702104F07AFA0E220F4B1A700FE0104901240C70022303
:4062C0004B704FF47D7003F069FE2046702104F069FA0E22064B1A7064200CF05BFB0BF0B7FD38BDC88AFF1F5185FF1F9886FF1FA283FF1F0C81FF1FA883FF1F9086FF1F7B
:4063000038B5994B1B78642B03F26885DFE813F074008000661DA40003018A011F02B902E902160302044B04B8042B05760553066707B6074208F8087709E30A360CBA0D34
:40634000D50EB6110412DB123C13BF138F143015F415CC182519A619F319231AAC1AA41BA41C2F1D661D661D661D661D661D661D661D661D661D661D661D661D661D661D79
:40638000661D661D661D661D661D661D661D661D661D661D661D661D661D661D661D661D661D661D661D661D661D661D661D661D661D661D661D661D661D661D661D661D7D
:4063C000661D661D661D661D661D661D661D661D661D661D661D661D6500644B1B78012B43F2FC840024604B1C700CF019F80BF07BFF5E4B1C7038BD5D480CF003F80BF053
:40640000D3FF0022594B1A700122574B1A7038BD0BF0E2FD082843F0E1840222524B1A700BF004FE0BF0FCFF0BF05EFF514B1B78022B04D10220632104F0B4F903E0022041
:40644000452104F0AFF964200CF0A4FA0BF0EEFD0322454B1A7038BD0BF0BEFD082843F0BD84454B1B78DBB2AA2B4ED1424B9B79DBB2C32B49D1404BDB79DBB23C2B44D1C6
:406480003D4BDB78DBB2592B2DD002D8452B1FD03BE05C2B02D07E2B30D036E00022374BDA70344B1B78012B06D10220052104F079F904222C4B1A702E4B1B78022B24D181
:4064C0000220492104F06EF91922274B1A701CE00220252104F066F90022294B1A700F22214B1A7011E00220252104F05BF90022234B1A7027221C4B1A7006E00220002162
:4065000004F050F90022184B1A7064200CF042FA0BF08CFD38BD0BF05FFD082843F05E84154B1B78DBB2AA2B76D1134B9B79DBB2C32B71D1104BDB79DBB23C2B6CD10F4A3A
:40654000D37823F00303D3700B4BDB78DBB23B2B4AD004D80F2B15D0102B27D05CE0432B3AD07E2B51D057E04F85FF1F4185FF1FBD2200004385FF1FDC8AFF1F3C88FF1FDB
:406580003187FF1F0220062104F00CF90022984B1A700220242104F03BF9964AD37843F00203D3700522944B1A7035E002200D2104F0F8F800228E4B1A70904B1A7002201A
:4065C000472104F025F98B4AD37843F00103D3700522894B1A701FE00220072104F0E2F80622854B1A7017E0854B1B78022B04D10220632104F0D6F803E00220452104F046
:40660000D1F803227C4B1A7006E00220002104F0C9F80022784B1A7064200CF0BBF90BF005FD38BD0BF0D8FC082843F0D783754B1B78DBB2AA2B40F08480724B9B79DBB2D5
:40664000C32B7ED16F4BDB79DBB23C2B79D1684B1B786D4A1278013A93423EDC694AD278D2B2092A0FD80133DAB2614B1A706548C178604B13443031D972C17830310220FF
:40668000C9B204F0C5F85F4BDB78DBB20A2B0BD1574B1A780132D2B21A70564B13443021D972022004F0B4F8564BDB78DBB2512B13D14F4B1B7883B1504A12786AB901338B
:4066C000DAB24B4B1A704B4B13442C21D972022004F09EF80122494B1A704A4BDB78DBB20B2B1BD1424B1A783AB90220052104F059F80422404B1A7010E00220202104F0C4
:4067000087F83B4B1B783B4A1A44D27A2C2A02D100213A4A1170013B354A1370394BDB78DBB20C2B0DD1324B1B7853B10220072104F038F82E4B1A782E4BDA7206222E4B99
:406740001A7064200CF026F90BF070FC38BD64200CF020F90BF040FC082820D1294B1B78DBB2AA2B15D1274B9B79DBB2C32B10D1244BDB79DBB23C2B0BD1224BDB78DBB292
:406780007E2B06D10220002104F00CF800221A4B1A7064200CF0FEF80BF048FC38BD1B4B187906F0A1FE072843F0188332200CF0F1F8164B187906F0ABFE154B18703220D8
:4067C0000CF0E8F80B4BDB7813F0030324D00F4A10790F4A11780F4A09F034FFE0B90220002103F0DFFF0022034B1A7038BD00BF3187FF1F3C88FF1F4F85FF1F5285FF1FD4
:406800004385FF1FDC8AFF1F4485FF1F9883FF1F9686FF1F4788FF1F01200CF065F8AE4B187906F075FEAD4B1870002803F0D682AB4B1B7803F00F03834211D0A94B1B788C
:4068400003F00F0398420BD0A74B1B7803F00F03984205D0A54B1B7803F00F03984202D102200AF06FFB9C4B187940F010000AF057FE0220082103F095FF07229C4B1A70F7
:4068800038BD32200CF086F8934B187906F02CFE0A2813D00B2803D0062843F09F8218E064200CF077F88C4B187906F0A5FE012843F0948208228E4B1A7038BD864B1879AD
:4068C00006F09AFE012843F089820822884B1A7038BD0220002103F065FF0022844B1A7038BD844B1B78012B02D0022B10D038BD02200B2103F056FF7F480BF083FD0BF0E8
:4069000053FD00227D4B1A700A22794B1A7038BD7B4BDB7813F0040F43F0608202200B2103F040FF74480BF06DFD0BF03DFD0022724B1A700A226E4B1A7038BD0BF04CFBFB
:40694000082840F0B3806F4B1B78DBB2AA2B40F0A8806C4B9B79DBB2C32B40F0A280694BDB79DBB23C2B40F09C800022634B1A70654B1B78062B65D8624AD278D2B2092AE5
:4069800010D80133DAB2604B1A705E48C1785C4B1344303183F86510C17830310220C9B203F036FF574BDB78DBB20A2B0CD1564B1A780132D2B21A70514B1344302183F8A6
:4069C0006510022003F024FF4E4BDB78DBB26A2B0CD14D4B1A780132D2B21A70484B13442D2183F86510022003F012FF454BDB78DBB21A2B26D9434BDB78DBB2422B21D8BE
:406A00000022424B1A6019E03E4AD278D2B240491944097A8A420DD13B490A780132D2B20A704133D9B2364B134483F86510022003F0EEFE354A136801331360334B1B682A
:406A4000192BE1D92F4BDB78DBB20B2B18D12E4B1A786AB902200B2103F0A4FE284B002283F8652083F883200A22214B1A7007E00220202103F0CCFE234A1378013B1370FB
:406A8000204BDB78DBB20C2B0BD11F4B1A7842B11B4B83F86520012283F883200D22144B1A7064200BF076FF0BF0C0FA134B1B781D2B43F2938102200B2103F073FE104A93
:406AC000002382F8653082F883300C4A13700A22074B1A7038BD00BF9883FF1F9686FF1F2288FF1FD488FF1F5085FF1FA483FF1F4F85FF1F4385FF1FBD2200004185FF1F1A
:406B00003C88FF1FDC8AFF1F3187FF1FA883FF1F0C81FF1F0BF060FA082834D1AB4B1B78DBB2AA2B2AD1A94B9B79DBB2C32B25D1A64BDB79DBB23C2B20D1A44BDB78DBB243
:406B4000382B0CD0392B19D102200A2103F02AFE00229F4B1A7009229E4B1A700EE002200C2103F01FFE01229B4B1A709B480BF049FC0BF019FC6422964B1A7064200BF069
:406B800009FF0BF053FA944B1B781D2B43F2268102200C2103F006FE01228F4B1A7064228C4B1A7038BD0220012103F08BFB052840D90A200BF0EEFE0220212103F082FB5E
:406BC000052837D9022003F095FA012832D133200BF04AFA0220332103F0CEFA50B300227F4B1A600AE0022003F030FB7D4B1C4484F829007A4A136801331360784B1C6838
:406C0000072CF0D90220132103F0CCFD754CE37843F00403E3704FF4FA700BF0BBFE02200E2103F0BFFD0023694A137023710C22684B1A700BF0D0F9082843F0CF80634BC0
:406C40001B78DBB2AA2B15D1604B9B79DBB2C32B10D15E4BDB79DBB23C2B0BD15B4BDB78DBB23B2B06D10220632103F09BFD0322584B1A7064200BF08DFE0BF0D7F938BD41
:406C80000BF0AAF9082843F0A980504B1B78DBB2AA2B62D14D4B9B79DBB2C32B5DD14B4BDB79DBB23C2B58D1494B1B78052B25D8464AD278D2B2092A0FD80133DAB2444B70
:406CC0001A704248C178474B134430311971C17830310220C9B203F09BFD3C4BDB78DBB20A2B0BD13A4B1A780132D2B21A703D4B134430211971022003F08AFD334BDB78BA
:406D0000DBB20B2B12D1324B1A783AB90220052103F048FD04222F4B1A7007E00220202103F076FD2A4A1378013B1370274BDB78DBB20C2B11D1264B1B7873B1294B5B79B8
:406D4000302B0AD00220052103F02CFD204B1A78244B1A7104221F4B1A7064200BF01AFE0BF064F938BD204B5878204B197800221F4B1B7904F0BEFF1E4B1B78012B02D083
:406D80001D4B5B787BB902200C2103F00BFD0122114B1A7011480BF035FB0BF005FB64220C4B1A7038BD0220312103F0FBFC0022074B1A700122084B1A7008480BF022FB72
:406DC0000BF0F2FA2122034B1A7038BDDC8AFF1F3187FF1F4F85FF1F4185FF1FBD2200005485FF1F3C88FF1F3487FF1F9686FF1F9883FF1F4385FF1FA083FF1F0BF0ECF862
:406E0000082842F0EB87BE4B1B78DBB2AA2B40F0CC80BB4B9B79DBB2C32B40F0C680B84BDB79DBB23C2B40F0C080B54BDB78DBB2652B00F086800AD85A2B52D002D8582BF2
:406E400012D0B2E05B2B66D05D2B26D0ADE07E2B00F0A48003D8702B00F09880A5E0932B77D0962B62D0A0E00022A64B1A7002203E2103F097FC02F0D1FF012802D102201B
:406E800003F046FD02F0FAFF012802D1022003F09DFD10229C4B1A7087E002205C2103F081FC02200021892240F2AD1303F074FE02200021D62240F2A71303F06DFE022001
:406EC0000121242240F2B31303F066FE0220012178224FF47A7303F05FFE13228A4B1A7063E00220602103F05DFC022003F0D2FD022003F011FF022004F0A0F8022004F0EA
:406F000023F9022003F08EFF022004F011F812227D4B1A7049E002202F2103F043FC0022784B1A701122784B1A703EE002205F2103F038FC0022734B1A701B22724B1A705D
:406F400033E002204D2103F02DFC14226E4B1A702BE002206E2103F025FC0220012103F0B1F905280ED90A200BF014FD022004F0F3F90220212103F0A5F9052802D90220BD
:406F800004F068F92322604B1A700EE00220892103F008FC29225C4B1A7006E00220002103F000FC0022584B1A7064200BF0F2FC0BF03CF838BD0BF00FF8082842F00E87E4
:406FC0004F4B1B78DBB2AA2B40F003814C4B9B79DBB2C32B40F0FD80494BDB79DBB23C2B40F0F780474B1A78072A26D8444BDB78DBB2092B0ED8424BD978444B13443031F7
:4070000083F88E1002202A2103F002FC3D4A1378013313703A4BDB78DBB20A2B0DD1394C22783A4B1344302183F88E1002202A2103F0EEFB237801332370314BDB78DBB22C
:407040000B2B0ED12F4B1B781BB90220FBF7D4FB07E0013BDAB22B4B1A700220202103F0D7FB274BDB78DBB20C2B40F0B280254B1A78002A00F09E80002325490B602549D1
:407080000B6015E0581C2449014491F8D7101F4C234493F88E30303B994204D11C490B6801330B6002E00021194B1960194B18601046184B1B689A42E4D8174B93F8D720B9
:4070C000134B1B689A422BD10220262103F06AFB4FF4FA700BF05EFC0E220B4B1A700F4B1B78012B04D102205D2103F05BFB70E0022B6ED10220702103F054FB69E000BF74
:40710000DC8AFF1F3187FF1F4F85FF1F3C88FF1FA885FF1FA883FF1F3887FF1F4385FF1F0023AF4A1360AF4A136010E0AE4A1A4492F82410AD4A1A4492F88E20914203D197
:40714000A7490A6801320A600133A64A1360A54B1B689842EAD8A24B1B68082B1AD10220262103F01FFB4FF4FA700BF013FC0E229F4B1A709F4B1B78012B04D102205D21ED
:4071800003F010FB25E0022B23D10220702103F009FB1EE00220272103F004FB6422944B1A700122944B1A7094480BF02BF90BF0FBF80EE00220272103F0F4FA64228C4BAD
:4071C0001A7001228C4B1A708C480BF01BF90BF0EBF864200BF0DEFB0AF028FF38BD0AF0FBFE082842F0FA85854B1B78DBB2AA2B3ED1834B9B79DBB2C32B39D1804BDB7924
:40720000DBB23C2B34D17E4BDB78DBB23F2B04D07E2B26D03E2B2BD116E00220402103F0C1FA0023774A1370774A137002206121062203F0EDFA02206D21072203F0E8FA44
