:4000000000800020110000009D0000009D00000080B500AF064B064A126842F020021A60044B054A12681A6000F004FB00F03AF8E8460040BC760040FA46004010B5054CEF
:40004000237833B9044B13B10448AFF300800123237010BD2881FF1F00000000901D000008B5064B1BB106480649AFF300800648036813B1054B03B1984708BD00000000C2
:40008000901D00002C81FF1F0881FF1F0000000080B500AF00F078FAFEE700BF80B400AFFEE700BF80B586B000AF224B7B61224B3B61204B7B6135E03B691B68FB603B69C2
:4000C0005B68BB603B699B683B6000237B600CE0FB681A68BB681A60BB680433BB60FB680433FB607B6804337B607A683B689A42EED13B69DB683B6000237B6008E0BB686A
:4001000000221A60BB680433BB607B6804337B607A683B689A42F2D13B6910333B617B69013B7B617B69002BC6D101F0F5FDFFF7AFFFFEE701000000A021000080B582B0DB
:4001400000AF174B174A1A60174B174A126842F400721A6000237B600FE07B68032B04D8124B7A6853F8223000E0114B114A796842F821307B6801337B607B682F2BECD987
:400180000D4B1B78DAB20D4B1A700D4B094A1A6000F026F90B4B00221A600837BD4680BD0CED00E00004FA0514ED00E0000000009D0000000080FF1FBC7600400481FF1F34
:4001C00008ED00E00081FF1F80B582B000AF78603960786800213A6801F0CDFD0837BD4680BD00BF80B584B000AFF860B9607A60F868B9687A6801F0B5FD1037BD4680BD78
:4002000080B584B000AFF860B9607A60F868B9687A6801F0A7FD1037BD4680BD80B483B000AF0346FB71FEE780B487B000AF7860396000233B6100237B6126E07B699B005E
:400240007A6813441B68BB60BB68FB73BB6823F0FF03BB6013E03B695B003A6813441B781A46BB6813443A69520039680A4452781A703B6901333B61FB7B013BFB73FB7B29
:40028000002BE8D17B6901337B617B69102BD5D91C37BD465DF8047B704700BF80B582B000AF304B19221A802F4B18221A702F4B02221A704FF0402308221A702C4B03223B
:4002C0001A702C4B2C4A1278D2B21A702B4B08221A802B4B41F251221A800023FB7019237B6014E0FB785B00DAB2264B1B78DBB203F00103DBB21343DBB203F00303FB70B0
:400300004FF4F07000F00CFF7B68013B7B607B68002B02D0FB78032BE4D17B68002B02D10320FFF77BFF184B4FF480721A80164B07221A70154B00221A70154B48221A70D5
:40034000114B00221A70134B02221A70124B124A1278D2B242F00102D2B21A700837BD4680BD00BF80400040824000400043004000420040A14600400801004922420040FD
:40038000204200402542004004400040064000400840004001400040A243004080B483B000AF0B4B1B78FB710A4BFA7902F00702D2B21A70084BFA791209D2B21A70074B3F
:4003C00044221A700C37BD465DF8047B704700BFCF0100496E5800406F5800407658004080B582B000AF72B6334B334A1278D2B242F02402D2B21A700023FB7113E0FA79A7
:4004000013465B0013445B002C4A13443B603B681A683B689B889BB210461946FFF7D4FEFB790133FB71FB79072BE8D924482549FFF7FAFE244B244A1278D2B242F00202D5
:40044000D2B21A70214B214A1278D2B242F00202D2B21A701E4B1E4A1278D2B242F04002D2B21A701B4B1B4A1278D2B242F01002D2B21A70184819490A22FFF7C1FE184BB3
:40048000174A1278D2B242F00802D2B21A70154B01221A70FFF702FF124B81221A70124B01221A70FFF77AFF104809490E22FFF799FE0837BD4680BDE8460040941D000077
:4004C000C41D0000081E00000350014013500140A0430040C24300406051004068210000224300400048004004000840B043004080B485B000AF78600B467B800023FB8154
:400500000BE07B88013B7A6813441B781A46FB891344FB817B88013B7B807B88002BF0D1FB895B429BB218461437BD465DF8047B704700BF80B586B000AFF860B9607A601C
:400540000023FB75FA680F4B9A4206D0FB68002B03D0002000F070FF0CE00BE07B68013B7B60FA68BB681A447B6813441A78FB7D1344FB757B68002BF0D1FB7D18461837E7
:40058000BD4680BD0080004080B582B000AF06237B60002000F06EF80346002B01D100237B601C4B1B681B68002000211A46FFF7C1FF0346FB70184B1B681B78FA78D31A17
:4005C000FB70FB785B42FB70134B1B681B78FA789A4204D10F4B1B681B68002B02D1002000F02AFF0D4B1B78DBB203F0C003402B02D07B68002B05D0084B00221A7000207A
:4006000000F0AEF8322000F0ABF800F009F80837BD4680BD1081FF1F0C81FF1FFA46004080B500AF024B80221A7000F011FF80BDFA46004080B500AF0C4B1B78DBB203F08D
:40064000C003802B11D1094B00221A700220002100F0DCFB0346002B07D00220002100F0D5FB0346184600F003F880BDFA460040004700BF90B587B000AF0346FB71FB7929
:400680000320194600F0C2FB034601331C02FB790420194600F0BAFB03462344FB600023FB740023BB74FB790320194600F0AEFB034601331B027B6111E07B691B78FB720B
:4006C000FB7A002B04D0FB7AFF2B01D00123FB74BA7CFB7A1344BB747B6901337B617A69FB689A42E9D3FB790320194600F08EFB034601331B02DB087B61FA68174B9A4218
:4007000002D0FB68DB0801E04FF40043FB600AE07B6903F190431B78DAB2BB7C1344BB747B6901337B617A69FB689A42F0D3BB7C5B42BB74BC7CFB790120194600F066FB15
:4007400003469C4202D1FB7C002B01D1062300E0002318461C37BD4690BD00BFC0FF030080B5ADF5247D00AF0246FB1D1A700023A7F88A320023A7F888320A2387F88732ED
:40078000002387F8863200F055FD0346002B02D0002000F051FE00F01BFC62B6002387F88D32FB1D1B78002B02D0FB1D1B7800E0FF2307F59E7107F26A2208464FF49671FB
:4007C00000F034FCC7F87802FB1D1B78002B04D097F88732013B87F8873297F88732002B03D0D7F87832002BDBD1D7F87832002B00D0B0E2B7F86A32062B04D907F59E7338
:400800001B78012B03D0042387F88D3244E007F59E73DB781B029AB207F59E739B781343A7F88A32B7F88A32053307F59E72D35C1B029AB2B7F88A32043307F59E71CB5CE8
:400840001343A7F87632B7F88A32DA1DB7F86A329A4203D9032387F88D321DE0B7F88A32063307F59E72D35C172B03D0042387F88D3211E0B7F88A3204339BB207F59E72D0
:4008800010461946FFF734FE0346B7F876229A4202D0082387F88D320023A7F88E3297F88D32002B40F04C8207F59E731B7987F87532042387F88D3207F59E735B78313B43
:4008C0000A2B00F2398201A252F823F0F908000033090000390D0000CD0900003F0B0000390D0000510B0000A70B0000CD090000EB0B0000210D000097F88632012B17D1CA
:40090000B7F88A32002B13D10020FFF7B3FE0346002B14BF00230123DBB21A4607F59E731A710123A7F88E32002387F88D3207E206E297F88632012B47D1B7F88A32012B8C
:4009400043D197F87532032B3FD8D14B1B681B681B0C87F8743297F8752297F874329A4208D1CB4B1B681B681B0A9BB2DBB2A7F884320DE097F8752297F874329A4203D9FA
:400980000023A7F8843203E04FF48073A7F88432B7F88432DAB207F59E731A71B7F884321B0A9BB2DAB207F59E735A7107F59E73FF229A7107F59E730022DA710423A7F814
:4009C0008E32002387F88D32BAE1B9E107F59E735B78342B23D197F88632012B40F0B081B7F88A32032B40F0AB8197F875323F2B08D997F875325BB2002B03DB1023A7F806
:400A0000883203E04FF49073A7F88832B7F8883207F11002104600211A4601F0ACF997F88632012B40F08A80B7F88A32022B40F28580B7F8883207F11002D118B7F88A3257
:400A4000033B07F59E720732084611461A4601F089F9B7F88822B7F88A3213449BB2033BA7F8883297F875323F2B0AD997F875325BB2002B05DB00F099FC1023A7F88A3298
:400A800003E04FF49073A7F88A32B7F88822B7F88A329A424BD107F59E739B791B029AB207F59E735B791343A7F8883297F875323F2B27D897F875329BB21B029AB2B7F8A2
:400AC00088321344A7F87232714B1B681B681B0AA7F882326E4B1B681B68DBB2002B04D0B7F882320133A7F88232B7F87222B7F882329A4206D20A2387F88D320023A7F8AC
:400B000088321DE197F87502B7F8881207F11002B7F88A3200F0A0FB0346002B01D00A2300E0002387F88D3200F0D6FC02E0032387F88D320023A7F8883201E100E197F825
:400B40008632012B03D10023A7F8883203E1F7E097F88632012B25D1B7F88822B7F88A321344B3F5967F19D8002387F88D32B7F8883207F11002D118B7F88A3207F59E7220
:400B80000432084611461A4601F0ECF8B7F88822B7F88A321344A7F8883203E0032387F88D32CDE0CCE0B7F88A32002B1CD107F10803384A92E8030083E80300012387F87B
:400BC00086320823A7F88E32B7F88E3207F59E72111D07F10802084611461A4601F0C2F8002387F88D32ABE0AAE097F88632012B40F09580B7F88A32032B40F0908007F555
:400C00009E739B791B029AB207F59E735B791343A7F8703297F875323F2B13D997F875325BB2002B0EDBB7F870321B01C7F86C321948D7F86C121022FFF77CFC034687F8EB
:400C4000813212E097F875321A02B7F8703213441B02C7F86C320020D7F86C124FF48072FFF768FC034687F8813297F875323F2B29D897F8753203F510331A02B7F8703265
:400C800013445B01C7F86C320023A7F87E3216E01081FF1F7421000000800040B7F87E22D7F86C3213441B78DAB297F88132134487F88132B7F87E320133A7F87E32B7F82A
:400CC0007E321F2BEAD997F87532032B19D1B7F87032FF2B15D10520002100F097F80346DBB297F88122D31A87F881320620002100F08CF80346DBB297F88122D31A87F86D
:400D0000813297F881325B42DAB207F59E731A71002387F88D320123A7F88E3210E00FE00020FFF7A7FC0346002B02D1114B80221A7000F08DFB03E0052387F88D3200BF32
:400D400097F88D1207F59E72B7F88E32084611461A4600F011F8FB1D1B78002B3FF41EAD97F88632012B3FF419AD07F52477BD4680BD00BFFA46004080B584B000AF3960C5
:400D800013460246FA71BB803B6801221A703B680133FA791A703B680233BA88D2B21A703B680333BA88120A92B2D2B21A70BB8804339BB238681946FFF79AFB0346FB8101
:400DC000BB8804333A681344FA89D2B21A70BB8805333A681344FA89120A92B2D2B21A70BB8806333A68134417221A70BB8807339AB23B1D386811461A46962300F0F2F847
:400E0000034618461037BD4680BD00BF80B586B000AF02460B46FA71BB710223FB740023FB60FB79013B092B00F2928001A252F823F000BF5D0E0000770E0000910E000033
:400E4000A70E0000C10E0000DB0E00000B0F0000F50E0000210F0000370F0000BA7913461B069B1A1B0203F57F3303F570737B610123FB7472E0BA7913461B069B1A1B022E
:400E800003F57F3303F2C1337B610423FB7465E0BA7913461B069B1A1B0203F57F3303F2C5337B615AE0BA7913461B069B1A1B0203F57F3303F2C9337B610423FB744DE003
:400EC000BA7913461B069B1A1B0203F57F3303F574737B610123FB7440E0BA7913461B069B1A1B0203F57F3303F2D1337B610123FB7433E0BA7913461B069B1A1B0203F540
:400F00007F3303F2D6337B6128E0BA7913461B069B1A1B0203F57F3303F2D2337B611DE0BA7913461B069B1A1B0203F57F3303F575737B6112E0BA7913461B069B1A1B02CB
:400F400003F57F3303F576737B610423FB7405E0002000F071FA00237B6100BFFB7C012B03D17B691B78DBB2FB60FB7C022B0BD17B691B78DBB2FB607B6901331B78DBB269
:400F80001B02FA681343FB60FB7C042B1BD17B691B78DBB2FB607B6901331B78DBB21B02FA681343FB607B6902331B78DBB21B04FA681343FB607B6903331B78DBB21B06E2
:400FC000FA681343FB60FB6818461837BD4680BD80B500AF00F0A0FC00F0A0FD00F0F6FD80BD00BF80B586B000AFF8607A600A467A817B720023FB8200F090FD09E0FB8AA3
:40100000FA6813441B78184600F0C6FDFB8A0133FB82FA8A7B899A42F1D37B687A891A80002318461837BD4680BD00BF90B589B000AFF8607A600A467A817B720523BB61CB
:401040000023FB831AE000F021FD0346002B0FD000F01CFD0346FB82192000F009FA00F015FD0346FA8A9A42F2D30023BB610DE0012000F0FDF9FB8B0133FB83F98B7A7A26
:4010800013469B0013445B009942DCDB7B6800221A800023BB8336E000F0F8FC0346BB827B681A88BB8A13449AB27B681A807B681B887A899A421ED90023FB830CE0BB8B5F
:4010C000FA68D41800F098FC03462370BB8B0133BB83FB8B0133FB83FA8BBB8A9A42EED3BB8B013BFA6813441B78172B0BD0052000F0BEF907E07B681A88BB8AD31A9AB24A
:401100007B681A8004E000F0C1FC0346002BC3D1BB6918462437BD4690BD00BF000000000230800800F0058000BF013800467FF4FCAF7047EFF3108072B6704780F310880F
:40114000704700BFAFF3008080B582B000AF00F039FA4FF0FF337B6000F05EFB0346002B24D1012000F026FB0346072B1BD11348022100F049FA0346022B0DD100237B6004
:4011800002E0012000F096F90D4B1B78DBB203F00203002BF5D006E0094B1B78DBB203F00203002BE3D000F06BFB01E004237B607B6818460837BD4680BD00BF5481FF1F72
:4011C0002247004080B582B000AF00F0FBF900F023FB0346002B23D100F07AFB78607B68072B1AD102E0012000F064F9104B1B78DBB203F00203002BF5D00D4B1B78DBB26E
:4012000003F00203002B08D0094B1B78DBB29B08DBB2002B01D100237B6000F031FB01E004237B607B6818460837BD4680BD00BF2247004080B582B000AFFFF7C3FF786047
:401240007B68002B02D1FFF77FFF78607B6818460837BD4680BD00BF80B586B000AFBA600246FA730A46BA81FB8000237B61FB7B3F2B04D8FB7B042B01D901237B61FB7B23
:401280005BB2002B01DA01237B61FB7B3F2B04D9FB7B412B01D901237B61FB7B3F2B06D8BB89B3F5807F0CD901237B6109E0BB89802B01D901237B61FB88102B01D00123AF
:4012C0007B61BB68002B01D101237B617B69002B62D100F0A1FA0346002B5BD1F97BBA89FB8808461146BA6800F0BAF978617B69072B4CD102E0012000F0DCF8294B1B7807
:40130000DBB203F00203002BF5D0264B1B78DBB203F00203002B09D0224B1B78DBB29B08DBB2002B02D100237B6102E04FF0FF337B617B69002B2AD11B4B1A781A4B5B7888
:40134000F87BB98900F0F2F978617B69072B1ED102E0012000F0AEF8124B1B78DBB203F00203002BF5D00F4B1B78DBB203F00203002B09D00B4B1B78DBB29B08DBB2002BBA
:4013800002D100237B6102E04FF0FF337B6100F077FA01E004237B617B6918461837BD4680BD00BF224700405481FF1F80B582B000AFFFF7BFFE0346FB71194B184A1278ED
:4013C000D2B242F00802D2B21A70164B154A1278D2B242F00802D2B21A70134BC8221A70124B124A1278D2B242F01002D2B21A700F4B0F4A1278D2B242F01002D2B21A7009
:4014000000BF0C4B1B78DBB203F02003002BF8D0FB791846FFF792FE0837BD4680BD00BFA0430040B043004001470040AC430040BC4300400047004080B483B000AF0346A5
:40144000FB7101BE0C37BD465DF8047B704700BF80B400AF054B054A1278D2B242F00102D2B21A70BD465DF8047B7047F646004080B582B000AF786008E00C4B1B681846C6
:40148000FFF74EFE7B68A3F500437B607B68B3F5004FF2D8064B1B687A6802FB03F31846FFF73EFE0837BD4680BD00BF2081FF1F1881FF1F80B582B000AF0346FB80FB8863
:4014C000044A127802FB03F31846FFF729FE0837BD4680BD1C81FF1F80B582B000AFFFF729FE0346FB7100BF00BF00BF00BF00BF00BF00BF00BF00BF00BF00BF00BF00BFD1
:4015000000BF00BF00BF094B084A128892B242F0040292B21A80054B1B88BFF36F8FFB791846FFF70BFE0837BD4680BD0048004080B584B000AF03463960FB710F4B1B6816
:40154000FB60FB791F2B02D90020FFF775FFFB7903F01F0310339B00FA6813441B68BB60FB7903F01F0310339B00FA6813443A681A60BB6818461037BD4680BD08ED00E016
:4015800080B582B000AF02460B46FA71BB71BB79072B02D90020FFF74FFFFB791F2B02D90020FFF749FFFB7903F01F0303F1604303F56443BA795201D2B21A700837BD46B4
:4015C00080BD00BF80B582B000AFFFF7B3FD0346FB710B4B0A4A1278D2B242F00802D2B21A70084B074A1278D2B242F00802D2B21A70FB791846FFF7A1FD0837BD4680BD9B
:40160000A0430040B043004080B584B000AF78600B46FB700023FB7314E002E00120FFF749FF0D4B1B78DBB203F00103002BF5D0FB7B7A681344094A1278D2B21A70FB7B73
:401640000133FB73FA7BFB789A42E6D3FB7B18461037BD4680BD00BF224700402047004080B489B000AFBA600246FA730A46BA81FB800723FB612B4B1B78DBB203F00203DC
:40168000002B45D0284BB6221A70274BD5221A70254B02221A70234B1B78DBB203F00203002B32D1204BFA7B1A7000237B8308E01D4B7A8BB9680A4412781A707B8B0133B3
:4016C0007B837A8BFB889A42F2D3FB88B3F5807F20D1FB7B3F2B1DD8FB7B03F510331A02BB8913445B017B6100237B8309E00E4B798B7A690A441278D2B21A707B8B0133C9
:401700007B837B8B1F2BF2D904E00923FB6101E00423FB61FB6918462437BD465DF8047B704700BF224700402047004080B485B000AFF871B980BA71FB700723FB601B4BCB
:401740001B78DBB203F00203002B26D0184BB6221A70174BD8221A70154B05221A70134B1B78DBB203F00203002B13D1104BFA791A700F4BBA88120A92B2D2B21A700C4B36
:40178000BA88D2B21A700A4BBA791A70084BFA781A7004E00923FB6001E00423FB60FB6818461437BD465DF8047B7047224700402047004080B485B000AF0346FB710723C9
:4017C000FB60134B1B78DBB203F00203002B16D0104BB6221A700F4BE1221A700D4B0E221A700B4B1B78DBB203F00203002B03D1084BFA791A7004E00923FB6001E0042321
:40180000FB60FB6818461437BD465DF8047B7047224700402047004080B582B000AF04237B60FFF787FC0346FB70124B1B78002B16D1104B01221A7000237B600E4B1B683A
:4018400003F00103002B0BD00B4B0B4A126822F001021A6000BF00BF00BF084B01221A60FB781846FFF76AFC7B6818460837BD4680BD00BF4481FF1F040008404881FF1FC8
:4018800080B582B000AFFFF755FC0346FB710D4B00221A700C4B1B68012B0BD10B4B0B4A126842F001021A6000BF00BF00BF064B00221A60FB791846FFF740FC0837BD46EC
:4018C00080BD00BF4481FF1F4881FF1F0400084080B483B000AF07237B600D4B1B78DBB203F00203002B09D00A4BB6221A70094BE0221A70074B0D221A7001E004237B60C2
:401900007B6818460C37BD465DF8047B704700BF224700402047004080B500AF054B1B78002B04D100F008F8024B01221A7000F02FF880BD4C81FF1F80B500AF00200D493C
:40194000FFF7F6FD00200721FFF71AFE0A4B00221A700A4B72221A70094B20221A70094B06221A70084B47221A70084B00221A7080BD00BF0D1C00004D81FF1F8C64004008
:401980008A6400402E6400403E6400408B64004080B582B000AFFFF7CDFB0346FB71124B114A1278D2B242F02002D2B21A700F4B0E4A1278D2B242F01002D2B21A700C4BFC
:4019C00001221A600B4B0B4A1278D2B242F01002D2B21A7000F086F9FB791846FFF7AEFB0837BD4680BD00BF9C6400409A64004000E100E09B64004080B483B000AF1C4B26
:401A000001221A601B4B1B78BB711B4B1B787B711A4B1B78DBB2002B03D1BA797B799A4219D0BB79164AD35CFB71BB790133BB71BB795BB2002B01DA0023BB710D4BBA79AB
:401A40001A700E4B1B78DBB2002B03D00B4B00221A7003E002E00B4B1B78FB710A4B01221A60FB7918460C37BD465DF8047B704780E100E04E81FF1F4F81FF1F5081FF1FA9
:401A80005881FF1F4F64004000E100E080B483B000AF1D4B01221A601C4B1B78DAB21C4B1B78DBB29A420AD11A4B1B78DBB2002B02D08023FB711DE00023FB711AE0134B27
:401AC0001B78DAB2124B1B78DBB29A4208D2104B1B78DAB20D4B1B78DBB2D31AFB7109E00B4B1B78DAB2094B1B78DBB2D31ADBB2803BFB71084B01221A60FB7918460C37D1
:401B0000BD465DF8047B704780E100E04E81FF1F4F81FF1F5081FF1F00E100E080B582B000AFFFF707FB0346FB71144B134A1278D2B242F00102D2B21A70104B0F4A12783D
:401B4000D2B222F00102D2B21A70FB791846FFF7F5FA0B4B01221A600A4B00221A700A4B00221A70094B00221A70094B00221A70084B01221A600837BD4680BD9F64004060
:401B800080E100E04E81FF1F4F81FF1F5081FF1F5181FF1F00E100E080B483B000AF0346FB7100BF074B1B78DBB203F00403002BF8D1054BFA791A700C37BD465DF8047B18
:401BC000704700BF6B6400404B64004080B582B000AFFFF7AFFA0346FB710B4B0A4A1278D2B242F00102D2B21A70074B064A1278D2B222F00102D2B21A70FB791846FFF771
:401C00009DFA0837BD4680BD9B64004080B483B000AF0023FB712B4B1B78BB71BB797B71BB7903F01E03002B0BD0BB7903F01E03DAB2254B1B78DBB21343DBB2DAB2224BC7
:401C40001A70BB7903F02003002B31D01F4B1B787B711F4B1B78DBB21E4A7979D1540123FB71FB79002B23D01B4B1B78DBB2002B02D01A4B01221A70154B1B78DBB2013307
:401C8000DAB2134B1A70124B1B78DBB2DBB25BB2002B02DA0E4B00221A700D4B1B78DAB20F4B1B78DBB29A4202D10B4B01221A70BB7903F02003002BADD10C37BD465DF85C
:401CC000047B70476A6400404D81FF1F4F6400404F81FF1F5881FF1F5081FF1F5181FF1F4E81FF1F80B400AF094B094A1278D2B242F00102D2B21A70064B064A1278D2B286
:401D000042F00102D2B21A70BD465DF8047B7047A2430040B243004070B50E4B0E4D0024ED1AAD101E46AC4204D056F8242090470134F8E700F022FA084D094B0024ED1A34
:401D4000AD101E46AC4204D056F8242090470134F8E770BD8821000088210000902100008821000010B50023934203D0CC5CC4540133F9E710BD02440346934202D003F848
:401D8000011BFAE77047000032000000D021000000000000005100406000C05100401000F0510040100000000140001000140140000800400140000A004C01400002005051
:401DC000014020000252004003640040010501404B0A0140420B01403A0C0140430D01405D0E01402F0F014002400140014101400342014004440140034501400246014072
:401E00000350014001510140310134028A388B0F8C72E60102030308051A07040B050C0C0E1110101103120C130C181C1A021C101D031F14201421202C092E102F18301F93
:401E4000311C3303352039083B023F1454185604580459045B045F018002850A860287048A028B058F08900296029D039F0CA001A503A704AD03AF04B002B10FB401BB02F4
:401E8000BE11C053C104C5E0C6CBC80EC9FFCAFFCBFFCEF0CF44D00CD401D804D904DA04DB04DF01E6C0EA40EB02008001020428074009010B060D020E100F2010811180F0
:401EC000150119021E882080210622102340250126022740280129022F2231023342374038283A303B063D803E203F04450246104D014E02548057305A025D015E986080A7
:401F00006150808082109028920293029508974099509E20A140A501C079C23BC419CA59CC19CE77D0C0D210D6F1D80DE4040104050209020D04110215011D0121012704B9
:401F400029082D0133023501370C39803F105602571159045B045F01800F830485C08603880489188C018D44900391E7920C93189402958098039BE39D10A00FA11CA3E14C
:401F8000A40CA51CA7E2A80CA908AA03AC08ADFFB00FB1C0B31FB738BA82BB88D804D904DF010160039009080A400B041219130119811A401BC0228923012540261027109F
:401FC000284029A42E602FA0308031093310344035043688370939423A103B043D023E143F4058805A405E206C206E146F097484752076138D048F409028914293069508B6
:40200000974199509C809D209E029F18A108A320A424A545A748B420B540C00FC20EC40FCAFFCCDFCEFFD620040C05010603070E1001120E1544173119671A031E08200146
:402040002206252227D129672E0C31803360340F350737183A203F404003454049FF4A074BFF4C404D204EF04F055008580459045A045F01604061A8624063208106830166
:40208000850688028B018C028D079204950796049D019E029F06A104A602A902AA01AE01B002B107B404B601B802BE50C042C103C205C401C6E0C70CC818C9FFCAFFCBFFB5
:4020C000CC62CDA0CEF0CF41D00CD804D904DA04DF01E640E702E910EA30EB10ED10EE10EF120320070609200B420E800F2111821608174818081B201D501E802189230460
:402100002602274028202B082D202E0230203108348037083B043C083D203F8141044480459447164B024E025010512056085710C0C4C2BBC4E9CAA6CC56CEF2D0F2D210E6
:402140003240CC10968082409680E68005025910C004D4019D10B502EA0281109D1000010C010E01000300000100020101000100000000006930122E001E0101F8B500BF9B
:40218000F8BC08BC9E467047610000003D010000F8B500BFF8BC08BC9E4670473D000000B02100000881FF1F20000000B000000000000000881D00008C1D000000366E0176
:4021C000C05D0000180000000000E02E000000000000000000000000000000000000000000000000000000000000000000000000000000000000000000000000000000009C
:402200000080002011220000991801009918010008B50FF043FB00BF10B5054C237833B9044B13B10448AFF300800123237010BD2883FF1F0000000098330100084B10B55F
:402240001BB108480849AFF300800848036803B910BD074B002BFBD0BDE81040184700BF00000000983301002C83FF1F0881FF1F0000000008B510F011FC0E4B1B78012B0E
:4022800013D10D4B1978062907D80131C9B219700120143108F0FAFC08BD0022064B1A700120142108F0F2FC08BD034A13780133137008BD7A83FF1F9685FF1F08B510F091
:4022C000A7FC0E4B1B78012B13D10D4B1978062907D80131C9B219700220143108F0D6FC08BD0022064B1A700220142108F0CEFC08BD034A13780133137008BD4B85FF1FFF
:402300002585FF1F10B562B60FF0FCFC0FF0B0FE0FF032FF0FF0E8FC0FF008FE10F0CEF910F0BAFA0FF010FE10F0D6F910F0C2FA0FF090FE10F040FF052010F0A7FF00246E
:40234000984B1C702046202108F0DAF8964B1C6006E0964AD15C964AD1540133924A1360924B1A78904B1B689A42F2D220200F2108F0C6F800228C4B1A6007E08B4AD15CB6
:402380008B4A1A4491770133874A1360874B1A78854B1B689A42F1D24020202108F0B0F80022814B1A6008E0804AD15C804A1A4482F8431001337C4A13607C4B1A787A4B0C
:4023C0001B689A42F0D28020202108F099F80022754B1A6008E0754AD15C754A1A4482F861100133704A1360704B1A786E4B1B689A42F0D2A020202108F082F800226A4B48
:402400001A6008E0694AD15C694A1A4482F87F100133654A1360654B1A78634B1B689A42F0D22F200C2108F06BF800225E4B1A6008E05E4AD15C5E4A1A4482F82F1001330D
:40244000594A1360594B1A78574B1B689A42F0D26020092108F054F8544B1878431EDBB2082B14D80022504B1A6008E001334F4AD15C4F4A1A4482F8D7104B4A13604A4B15
:402480001B68072BF2D94A4B83F8D7000EE00122454B1A6006E0464A1A4482F8D7300133414A1360404B1B68082BF4D940F26A400A2108F025F800223B4B1A6006E03B4A5C
:4024C000D15C3C4AD1540133374A1360374B1A78354B1B689A42F2D240F275400A2108F00FF80022304B1A6006E0304AD15C324AD15401332C4A13602C4B1A782A4B1B68B1
:402500009A42F2D24FF490600A2107F0F9FF0022254B1A6006E0254AD15C284AD1540133214A1360214B1A781F4B1B689A42F2D240F28B400A2107F0E3FF00221A4B1A60EA
:4025400006E01A4AD15C1E4AD1540133164A1360164B1A78144B1B689A42F2D240F28D40022107F0CDFF00220F4B1A6006E00F4AD15C144AD15401330B4A13600B4B1A782D
:40258000094B1B689A42F2D240F29F20052107F0B7FF064B1878042823D10122024B1A6019E000BF8F86FF1F8C83FF1F5485FF1F3487FF1F2885FF1F8083FF1FD488FF1FA7
:4025C0003885FF1FD088FF1FAF4AD15CAF4AD1540133AF4A1360AE4B1B68042BF4D9AB4B187040F2C110022107F08AFFA64B1B78012B03D1A44B5A78A64B1A7040F2C31045
:40260000022107F07DFFA04B1B78012B03D19E4B5A78A14B1A7040F2C510022107F070FF994B1B78012B03D1974B5A789B4B1A7040F2EE30022107F063FF934B1B78012BC1
:4026400003D1914B5A78964B1A704FF4DD70022107F056FF8C4B1B78052B05D18A4B5B7803F00F038F4A137040F27A20022107F047FF854B1B78012B03D1834B5A788A4BF1
:402680001A704FF41F70022107F03AFF7E4B1B78012B03D17C4B5A78844B1A7040F27E20022107F02DFF784B1B78012B03D1764B5A787F4B1A704FF47C70022107F020FF62
:4026C000714B1B78012B03D16F4B5A78794B1A7040F25A20062107F013FF6B4B1B78052B0AD1694AD37803F00F0373490B70537903F00F03714A137040F2C710022107F015
:40270000FFFE614B1B78012B06D16D4A13705E4B5B7803F00F0353704FF4DE70022107F0EFFE594B1B78012B05D1574B5B7803F00F03644A137040F26320022107F0E0FEB3
:40274000514B1B78012B05D14F4B5B7803F00F035D4A537040F26520022107F0D1FE4A4B1B78012B05D1484B5B7803F00F03574A53704FF42770032107F0C2FE424B1B78DE
:40278000022B06D1404B9B7843EA0323504A138002E001224E4B1A804FF47670022107F0AFFE394B1B78012B04D1374B5A78494B5A7007E0474901230B704B704FF476700B
:4027C00007F060FE40F28F40022107F099FE2E4B1B78012B04D12C4B5A783F4B5A7007E03D4901230B704B7040F28F4007F04AFE40F2D230062107F083FE234B1878052823
:402800000FD10022224B1A6006E01F4AD15C334AD15401331E4A13601D4B1B689842F4D20CE02E4905230B7030234B708B70CB700B714B7140F2D23007F024FE274A5379EB
:4028400003F00F00137903F00F014FF47A7303FB01F342F2107101FB0033D07800F00F00642101FB0031937803F00F0303EB83035B000B44527802F00F021344184A1360A1
:402880000222184B1A7010BD5485FF1F0C81FF1F8C83FF1F1E88FF1FDF88FF1F4C85FF1F7C83FF1F3385FF1F2485FF1F8E86FF1F9386FF1F2C87FF1F7D83FF1F1F88FF1F5C
:4028C0004885FF1FA285FF1F9086FF1F3087FF1F2285FF1F7883FF1F3488FF1F9C85FF1F3088FF1F2785FF1F10B5002413E00BF02DF802280FD1642010F0C8FC074B1878D8
:402900000BF064F8062806D1044B18790BF05EF8062800D10224002CE9D010BD7083FF1F08B501280ED1552108F0B0F964220D4B1A7001220C4B1A700C4810F023F910F06A
:40294000F3F808BD0220552108F0A0F96422084B1A700122074B1A70074810F0CDF910F09DF908BD7A83FF1F9685FF1F752200004B85FF1F2585FF1FBD22000038B5984B5C
:402980001B78642B03F2E786DFE813F074008000E51EA100000188013B02D902E51E0C03FA034404B104240570054B065F07AE073A08F8087309DF0A300CB30DCE0EA61242
:4029C000E412D5133F14C0148F152A16EE16B519181AA01AED1A1C1BA41B951C981D231E831EE51EE51EE51EE51EE51EE51EE51EE51EE51EE51EE51EE51EE51EE51EE51EBE
:402A0000E51EE51EE51EE51EE51EE51EE51EE51EE51EE51EE51EE51EE51EE51EE51EE51EE51EE51EE51EE51EE51EE51EE51EE51EE51EE51EE51EE51EE51EE51EE51EE51E36
:402A4000E51EE51EE51EE51EE51EE51EE51EE51EE51EE51E6500634B1B78012B43F27B8600245F4B1C7010F09BF80FF0FDFF5D4B1C7038BD5C4810F085F810F055F800228F
:402A8000584B1A700122564B1A7038BD0FF030FE082843F060860FF055FE10F081F80FF0E3FF524B1B78022B04D10120632108F0EDF803E00120452108F0E8F80322484BD6
:402AC0001A70642010F0E2FB0FF03CFE38BD0FF00FFE082843F03F86454B1B78DBB2AA2B4ED1434B9B79DBB2C32B49D1404BDB79DBB23C2B44D13E4BDB78DBB2592B2DD0DC
:402B000002D8452B1FD03BE05C2B02D07E2B30D036E00022374BDA70344B1B78012B06D10120052108F0B2F804222D4B1A702F4B1B78022B24D10120492108F0A7F8192289
:402B4000274B1A701CE00120252108F09FF80022294B1A700F22224B1A7011E00120252108F094F80022244B1A7027221C4B1A7006E00120002108F089F80022184B1A703E
:402B8000642010F083FB0FF0DDFD38BD0FF0B0FD082843F0E085164B1B78DBB2AA2B77D1134B9B79DBB2C32B72D1114BDB79DBB23C2B6DD10F4AD37823F00303D3700C4BCA
:402BC000DB78DBB23B2B4BD004D80F2B16D0102B28D05DE0432B3BD07E2B52D058E000BF7A83FF1F9685FF1F752200002785FF1FD08AFF1F9486FF1F4D85FF1F0120062130
:402C000008F044F80022A74B1A700120242108F073F8A54AD37843F00203D3700522A34B1A7035E001200D2108F030F800229D4B1A709F4B1A700120472108F05DF89A4A5F
:402C4000D37843F00103D3700522984B1A701FE00120072108F01AF80622944B1A7017E0944B1B78022B04D10120632108F00EF803E00120452108F009F803228B4B1A7022
:402C800006E00120002108F001F80022874B1A70642010F0FBFA0FF055FD38BD0FF028FD082843F05885844B1B78DBB2AA2B40F0A280814B9B79DBB2C32B40F09C807E4BD4
:402CC000DB79DBB23C2B40F09680764B1B787B4A1278013A93423EDC774AD278D2B2092A0FD80133DAB26F4B1A707348C1786E4B13443031D972C17830310120C9B207F0EF
:402D0000FBFF6D4BDB78DBB20A2B0BD1654B1A780132D2B21A70644B13443021D972012007F0EAFF644BDB78DBB2512B13D15D4B1B7883B15E4A12786AB90133DAB2594BB3
:402D40001A70594B13442C21D972012007F0D4FF0122574B1A70584BDB78DBB20B2B1BD1504B1A783AB90120052107F08FFF04224E4B1A7010E00120202107F0BDFF494B89
:402D80001B78494A1A44D27A2C2A02D10021484A1170013B434A1370474BDB78DBB20C2B29D1404B1B786BB1454B1B7853B90120072107F06BFF3B4B1A783B4BDA720622D2
:402DC0003A4B1A70374B1B78ABB13D4B1B78012B11D10120702107F059FF334B1B7B39490B7040F28D4007F04DFB0022344B1A700E222E4B1A70642010F048FA0FF0A2FC19
:402E000038BD642010F042FA0FF072FC082820D1294B1B78DBB2AA2B15D1274B9B79DBB2C32B10D1244BDB79DBB23C2B0BD1224BDB78DBB27E2B06D10120002107F026FF60
:402E400000221A4B1A70642010F020FA0FF07AFC38BD1D4B18780AF0B9FD072843F07B84322010F013FA184B18780AF0C3FD174B1870322010F00AFA0B4BDB7813F0030332
:402E800028D0114A1078114A1178114A0EF054F800BB0120002107F0F9FE0022034B1A7038BD00BF4D85FF1F9486FF1F7A83FF1F7B83FF1F2785FF1FD08AFF1F3385FF1F9E
:402EC0008F86FF1FD088FF1F7083FF1F3788FF1F9F86FF1F012010F081F99C4B18780AF089FD9B4B1870002803F03584994B1B7803F00F03834211D0974B1B7803F00F0388
:402F000098420BD0954B1B7803F00F03984205D0934B1B7803F00F03984202D101200EF08BFC8A4B187840F010000EF073FF0120082107F0ABFE07228A4B1A7038BD32201E
:402F400010F0A4F9814B18780AF040FD0A2813D00B2803D0062843F0FE831BE0642010F095F97A4B18780AF0B9FD012843F0F3830D227C4B1A7038BD642010F087F9734B09
:402F800018780AF0ABFD012843F0E5830D22754B1A7038BD0120002107F078FE0022714B1A7038BD0FF0A4FB082840F0B9806E4B1B78DBB2AA2B40F0AE806B4B9B79DBB207
:402FC000C32B40F0A880684BDB79DBB23C2B40F0A2800022654B1A70654B1B78062B65D8614AD278D2B2092A10D80133DAB2604B1A705D48C1785F4B1344303183F8651078
:40300000C17830310120C9B207F076FE564BDB78DBB20A2B0CD1564B1A780132D2B21A70544B1344302183F86510012007F064FE4D4BDB78DBB26A2B0CD14D4B1A780132F0
:40304000D2B21A704B4B13442D2183F86510012007F052FE444BDB78DBB21A2B26D9424BDB78DBB2422B21D80022434B1A6019E03D4AD278D2B241491944097A8A420DD19D
:403080003B490A780132D2B20A704133D9B2394B134483F86510012007F02EFE364A136801331360344B1B68192BE1D92E4BDB78DBB20B2B18D12E4B1A786AB901200B2136
:4030C00007F0E4FD2B4B002283F8652083F883200A22244B1A7007E00120202107F00CFE234A1378013B13701F4BDB78DBB20C2B11D11F4B1B7873B10120052107F0C6FD97
:403100001C4B1B4A127883F86520012283F883200422144B1A70642010F0B8F80FF012FB124B1B781D2B43F2168301200B2107F0ADFD104A002382F8653082F883300B4AA7
:4031400013700A22074B1A7038BD00BF7083FF1F3788FF1F1E88FF1FDF88FF1F4C85FF1F7C83FF1F7A83FF1FD08AFF1F9685FF1F4D85FF1F9486FF1F8C83FF1F0C81FF1F01
:403180000FF0B6FA082835D1AC4B1B78DBB2AA2B2BD1AA4B9B79DBB2C32B26D1A74BDB79DBB23C2B21D1A54BDB78DBB2382B15D0392B1AD10022A24B1A70A24BDB7813F058
:4031C000040F07D101200A2107F060FD09229E4B1A700AE00D229C4B1A7006E00120052107F054FD0422984B1A70642010F04EF80FF0A8FA954B1B781D2B43F2AC8201206A
:403200000C2107F043FD0122904B1A7064228E4B1A7038BD0120014607F0C8FA052840D90A2010F033F80120212107F0BFFA052837D9012007F0D2F9012832D133200FF057
:403240009FFA0120332107F00BFA50B30022804B1A600AE0012007F06DFA7A4B1C4484F829007B4A136801331360794B1C68072CF0D90120132107F009FD724CE37843F0DE
:403280000403E3704FF4FA7010F000F801200E2107F0FCFC00236A4A137023710C226A4B1A700FF025FA082843F05582634B1B78DBB2AA2B15D1614B9B79DBB2C32B10D178
:4032C0005E4BDB79DBB23C2B0BD15C4BDB78DBB23B2B06D10120632107F0D8FC03225A4B1A7064200FF0D2FF0FF02CFA38BD0FF0FFF9082843F02F82504B1B78DBB2AA2B70
:4033000062D14E4B9B79DBB2C32B5DD14B4BDB79DBB23C2B58D14A4B1B78052B25D8474AD278D2B2092A0FD80133DAB2444B1A704248C178434B134430311971C178303129
:403340000120C9B207F0D8FC3C4BDB78DBB20A2B0BD13B4B1A780132D2B21A70394B134430211971012007F0C7FC344BDB78DBB20B2B12D1324B1A783AB90120052107F0CC
:4033800085FC0422304B1A7007E00120202107F0B3FC2B4A1378013B1370284BDB78DBB20C2B11D1264B1B7873B1264B5B79302B0AD00120052107F069FC214B1A78214B98
:4033C0001A710422204B1A7064200FF05FFF0FF0B9F938BD1F4B58781F4B197800221F4B1B7808F0FBFE1E4B1B78012B02D01D4B5B787BB901200C2107F048FC0122134BE8
:403400001A7019480FF0BEFB0FF08EFB64220E4B1A7038BD0120312107F038FC0022084B1A700122094B1A700F480FF0ABFB0FF07BFB2122044B1A7038BD00BFD08AFF1FAC
:403440004D85FF1F9486FF1F7A83FF1F9685FF1F5085FF1F9086FF1F3788FF1F7083FF1F2785FF1F7883FF1F752200000FF040F9082843F07081BD4B1B78DBB2AA2B40F088
:40348000CA80BA4B9B79DBB2C32B40F0C480B74BDB79DBB23C2B40F0BE80B44BDB78DBB2652B00F084800AD85A2B50D002D8582B12D0B0E05B2B64D05D2B24D0ABE07E2BDF
:4034C00000F0A28003D8702B00F09680A3E0932B75D0962B60D09EE00022A54B1A7001203E2107F0D3FB06F00DFF012801D107F083FC06F037FF012801D107F0DBFC1022CE
:403500009C4B1A7087E001205C2107F0BFFB01200021D62240F2AD1307F0B2FD01200021892240F2B31307F0ABFD01200146242240F2A71307F0A4FD0120014678224FF497
:403540007A7307F09DFD13228A4B1A7063E00120602107F09BFB012007F010FD012007F04FFE012007F0DEFF012008F061F8012007F0CCFE012007F04FFF12227D4B1A7008
:4035800049E001202F2107F081FB0022784B1A701122784B1A703EE001205F2107F076FB0022734B1A701B22724B1A7033E001204D2107F06BFB14226E4B1A702BE0012056
:4035C0006E2107F063FB0120014607F0EFF805280ED90A200FF05AFE012008F031F90120212107F0E3F8052802D9012008F0A6F82322604B1A700EE00120892107F046FB6A
:4036000029225C4B1A7006E00120002107F03EFB0022584B1A7064200FF038FE0FF092F838BD0FF065F8082843F095804F4B1B78DBB2AA2B40F003814C4B9B79DBB2C32BF3
:4036400040F0FD80494BDB79DBB23C2B40F0F780474B1A78072A26D8444BDB78DBB2092B0ED8424BD978444B1344303183F88E1001202A2107F040FB3D4A13780133137099
:403680003A4BDB78DBB20A2B0DD1394C22783A4B1344302183F88E1001202A2107F02CFB237801332370314BDB78DBB20B2B0ED12F4B1B781BB90120FFF732F907E0013B8A
:4036C000DAB22B4B1A700120202107F015FB274BDB78DBB20C2B40F0B280254B1A78002A00F09E80002325490B6025490B6015E0581C2449014491F8D7101F4C234493F8F3
:403700008E30303B994204D11C490B6801330B6002E00021194B1960194B18601046184B1B689A42E4D8174B93F8D720134B1B689A422BD10120262107F0A8FA4FF4FA705E
:403740000FF0A4FD104B1B78012B04D101205D2107F09CFA05E0022B03D10120702107F095FA0E22034B1A7069E000BFD08AFF1F4D85FF1F7A83FF1F9486FF1FA485FF1F5E
:403780008C83FF1F3487FF1F2785FF1F0023AF4A1360AF4A136010E0AE4A1A4492F82410AD4A1A4492F88E20914203D1A7490A6801320A600133A64A1360A54B1B68984223
:4037C000EAD8A24B1B68082B1AD10120262107F05DFA4FF4FA700FF059FDA04B1B78012B04D101205D2107F051FA05E0022B03D10120702107F04AFA0E22994B1A701EE0F2
:403800000120272107F042FA0122964B1A7096480FF0B8F90FF088F96422914B1A700EE00120272107F032FA01228E4B1A708E480FF0A8F90FF078F96422894B1A70642016
:403840000FF024FD0EF07EFF38BD0EF051FF082842F08187854B1B78DBB2AA2B3ED1834B9B79DBB2C32B39D1804BDB79DBB23C2B34D17E4BDB78DBB23F2B04D07E2B26D027
:403880003E2B2BD116E00120402107F0FFF90023774A1370774A137001206121062207F02BFA01206D21072207F026FA15226C4B1A7013E001203F2107F0E8F900236C4A1E
:4038C00013706C4A13701622654B1A7006E00120702107F0DBF90E22614B1A7064200FF0D5FC0EF02FFF38BD0EF002FF082842F032875E4B1B78DBB2AA2B7BD15B4B9B799E
:40390000DBB2C32B76D1594BDB79DBB23C2B71D1574B1A78072A27D8544BDB78DBB2092B10D85248C1784C4B1344303183F88E10C17830310120C9B207F0DEF94C4A137838
:4039400001331370494BDB78DBB20A2B0CD1484C2278414B1344302183F88E10012007F0CBF9237801332370404BDB78DBB20B2B0ED13F4B1B781BB90120FEF7D1FF07E013
:40398000013BDAB23A4B1A700120202107F0B4F9364BDB78DBB20C2B2CD1354B1B78052B28D90120392107F071F9314B1978324B83F8D7100022264B1A600BE0581C264AAD
:4039C000134493F88E202C4B0344303A83F8D7201F4B18601E4B1B689942EFD86020274906F050FD18B90120552107F04FF900221B4B1A7064200FF049FC0EF0A3FE38BDE5
:403A00000EF076FE082842F0A686184B1B78DBB2AA2B40F0AD80154B9B79DBB2C32B40F0A780124BDB79DBB23C2B40F0A1800F4BDB78DBB27A2B7BD022D8772B5AD0782B02
:403A400068D0762B40F0948025E000BFA485FF1F8C83FF1F0C81FF1F9486FF1F2785FF1F7A83FF1F9685FF1F75220000D08AFF1F4D85FF1F7B83FF1F3487FF1F0B88FF1F4B
:403A8000822B17D002D87E2B6BD071E0832B21D0952B5AD06CE00120302107F0F7F80023B24A1370B24A1370B24A13701822B24B1A705DE00120792107F0E8F80222AB4BEC
:403AC0001A700023AA4A1370AA4A13701822AA4B1A704DE001207A2107F0D8F80322A34B1A700023A24A1370A24A13701822A24B1A703DE00120782107F0C8F801229B4BDC
:403B00001A7000239A4A13709A4A137018229A4B1A702DE00120652107F0B8F80122934B1A700022924B1A701722934B1A701FE00120322107F0AAF800238C4A13708C4AF3
:403B4000137017228C4B1A7012E08C4B1B78022B0ED10120662107F099F82022864B1A7006E00120702107F091F80E22824B1A7064200FF08BFB0EF0E5FD38BD0EF0B8FDC3
:403B8000082842F0E8857E4B1B78DBB2AA2B6AD17B4B9B79DBB2C32B65D1794BDB79DBB23C2B60D1764BDB787E3B042B5BD8DFE803F05303172B3F000120062107F066F818
:403BC00000226B4B1A706F4B19786F4B83F8A3100120242107F090F81A22674B1A7042E00120062107F052F80022614B1A70674B1978654B83F8A3100120242107F07CF8DE
:403C00001A225D4B1A702EE00120062107F03EF80022574B1A705E4B19785B4B83F8A3100120242107F068F81A22534B1A701AE00120062107F02AF800224D4B1A70554BD7
:403C40001978514B83F8A3100120242107F054F81A22494B1A7006E00120702107F016F80E22454B1A7064200FF010FB0EF06AFD38BD0EF03DFD082842F06D85404B1B786D
:403C8000DBB2AA2B40F05B813D4B9B79DBB2C32B40F055813A4BDB79DBB23C2B40F04F81374BDB78DBB2632B31D002D8622B07D045E1642B00F0E9807E2B00F039813EE1FD
:403CC0000120392106F0E2FF64200FF0DFFA324B187809F07BFE062815D12F4B187909F075FE06280BD101204A2106F0CFFF4FF42F700FF0CBFA00221F4B1A701FE10120D5
:403D0000FEF70EFE1BE10120FEF70AFE17E10120372106F0BBFF214B5B78012B63D100221F4B1A600AE01F4A1344012093F82C1006F030FC1A4A136801331360184B1B6882
:403D4000102BF0D901200A2106F024FC01200A2106F020FC01200A2106F01CFC01200A2106F018FC00220E4B1A6028E09785FF1F4D85FF1F3688FF1F7A83FF1F2785FF1FE7
:403D8000D08AFF1FDF88FF1F3487FF1F4C85FF1F1E88FF1F7C83FF1F7083FF1F8C86FF1F8C83FF1F0C81FF1FA14A1344022093F82C1006F0EFFB9F4A1368013313609D4B46
:403DC0001B68102BF0D902200A2106F0E3FB02200A2106F0DFFB02200A2106F0DBFB02200A2106F0D7FB944B5B78022B45D10022904B1A600AE08E4A1344032093F82C1061
:403E000006F0C8FB8B4A136801331360894B1B68102BF0D903200A2106F0BCFB03200A2106F0B8FB03200A2106F0B4FB03200A2106F0B0FB00227F4B1A600AE07C4A134436
:403E4000042093F82C1006F0A5FB7A4A136801331360784B1B68102BF0D904200A2106F099FB04200A2106F095FB04200A2106F091FB04200A2106F08DFB01206B2106F0A2
:403E800005FF25226D4B1A7059E0012006F0A6FB012849D133200EF073FC0120332106F0DFFB00284BD00022654B1A600AE0012006F040FC634B1C4484F82900604A136898
:403EC000013313605E4B1C68072CF0D900235E4A13705B4A13600CE05B4C5A4A1344207893F8291006F0C2FE2070554A136801331360534B1B68062BEED9524B93F830200A
:403F0000514B1B789A420BD101204B2106F0BEFE4FF47A700FF0BAF90022484B1A700EE00120FEF7FDFC0AE00120FEF7F9FC06E00120002106F0AAFE0022404B1A706420CA
:403F40000FF0A4F90EF0FEFB38BD0EF0D1FB082842F001843D4B1B78DBB2AA2B40F040813A4B9B79DBB2C32B40F03A81374BDB79DBB23C2B40F03481354B1B78042B00F2B8
:403F8000C880DFE813F005002E006900C600A1002E4AD278D2B2012A0FD80133DAB22C4B1A702A4CE17830310120C9B206F0A4FEE3781B01274A82F8A130244BDB78DBB2ED
:403FC0000A2B40F0A680224B1A780132D2B21A700021204B83F8A1100120302106F08CFE97E01A4AD278D2B2092A11D80133DAB2174B1A70154CE17830310120C9B206F02E
:404000007BFEE178134A92F8A1300B4382F8A1300E4BDB78DBB20A2B7BD10D4B1A780132D2B21A700120302106F066FE71E000BF0C81FF1F8C83FF1F8C86FF1F7A83FF1F79
:404040005085FF1F9486FF1F3485FF1FD08AFF1F4D85FF1F3487FF1F9F4AD278D2B2052A17D80133DAB29D4C227001203A2106F043FE22780132D2B22270974CE1783031BA
:404080000120C9B206F038FEE3781B01944A82F8A030914BDB78DBB20A2B3AD18F4C22780132D2B2227001203A2106F025FE22780132D2B222700120302106F01DFE0022C2
:4040C000874B83F8A02024E0834AD278D2B2092A11D80133DAB2814B1A707F4CE17830310120C9B206F008FEE1787D4A92F8A0300B4382F8A030784BDB78DBB20A2B08D102
:40410000764B1A780132D2B21A700120302106F0F3FD714BDB78DBB2402B17D1714B1B783BB901206F4B18707021062206F0E4FD07E000226B4B1A7001206121062206F064
:40414000DBFD01206D21072206F0D6FD624BDB78DBB20B2B1BD1614B1A7882B90E22624B1A70624B1B78012B04D101205D2106F08DFD0CE00120702106F088FD07E00120B6
:40418000202106F0B9FD554A1378013B1370524BDB78DBB20C2B23D1504B1B78052B1FD1504B1B7843F002024D4991F8A13043EA421381F8A13006F005F9012810D10E22E4
:4041C000494B1A70494B1B78012B03D15D2106F05DFD05E0022B03D10120702106F056FD64200FF053F80EF0ADFA38BD0EF080FA082842F0B082384B1B78DBB2AA2B40F0AF
:404200007281354B9B79DBB2C32B40F06C81324BDB79DBB23C2B40F06681304B1A78072A00F22281DFE812F008003100640020019D00C3002001FB00274BDB78DBB2032B2D
:404240000FD8254CE17830310120C9B206F054FD224A137801331370E3781B01204A82F89D301D4BDB78DBB20A2B40F0FD8000221B4B83F89D20194C01203021227806F022
:404280003BFD237801332370EEE0134BDB78DBB2092B11D8104CE17830310120C9B206F02BFDE1780E4A92F89D300B4382F89D300A4A137801331370074BDB78DBB20A2BD1
:4042C00040F0D280054C01203021227806F014FD237801332370C7E0D08AFF1F4D85FF1F3487FF1F7B83FF1F7A83FF1F2785FF1FAA4BDB78DBB2012B17D801202F2106F036
:40430000FBFCA74C22780132D2B22270A34DE97830310120C9B206F0EFFCEB781B01A14A82F89E302378013323709C4BDB78DBB20A2B40F099809A4C01202F21227806F041
:40434000DBFC22780132D2B222700120302106F0D3FC0022934B83F89E2023780133237082E08E4BDB78DBB2092B11D88B4CE17830310120C9B206F0BFFCE178894A92F8E5
:404380009E300B4382F89E30854A137801331370824BDB78DBB20A2B66D1814C01203021227806F0A9FC2378013323705CE07B4BDB78DBB2092B17D801202F2106F09CFC95
:4043C000774C22780132D2B22270744DE97830310120C9B206F090FCEB781B01714A82F89F302378013323706C4BDB78DBB20A2B3AD16B4C01202F21227806F07DFC2278EF
:404400000132D2B222700120302106F075FC0022644B83F89F2023780133237024E05F4BDB78DBB2092B11D85C4CE17830310120C9B206F061FCE1785A4A92F89F300B434D
:4044400082F89F30564A137801331370534BDB78DBB20A2B08D1524C01203021227806F04BFC2378013323704C4BDB78DBB20B2B1BD14B4B1B7883B90E224B4B1A704B4B58
:404480001B78012B04D101205D2106F0FFFB0CE00120702106F0FAFB07E0013BDAB2404B1A700120202106F027FC3C4BDB78DBB20C2B18D13A4B1B78082B14D105F0B0FFB6
:4044C000012810D10E22384B1A70384B1B78012B03D15D2106F0DAFB05E0022B03D10120702106F0D3FB64200EF0D0FE0EF02AF938BD0EF0FDF8082842F02D81274B1B784C
:40450000DBB2AA2B40F00A81244B9B79DBB2C32B40F00481214BDB79DBB23C2B40F0FE801F4B1B780C2B6ED81C4AD278D2B2092A1ED80133DAB21A4B1A701D4B1B7813B104
:40454000012B07D00DE0154BD978164B13443031997706E0114BD978124B1344303183F82F100E4BD97830310120C9B207F0ECF90A4BDB78DBB20A2B25D1094B1A78013213
:40458000D2B21A700A4B1B7813B1012B12D016E0044B13443021997711E000BFD08AFF1F4D85FF1F3487FF1F7A83FF1F2785FF1F9785FF1F984B1344302183F82F100120C0
:4045C000302107F0C1F9954BDB78DBB2512B1AD1934B1B78BBB10133DAB2914B1A70914B1B7813B1012B05D009E08B4B13442E21997704E0884B13442E2183F82F100120AE
:404600002E2107F0A1F9854BDB78DBB20B2B49D1834B1A78002A3DD10E22834B1A70834B1B78012B04D101205D2106F02FFB03E00120702106F02AFB2F200C2105F060FFD9
:4046400000227B4B1A6008E07A4AD15C724A1A4482F82F100133764A1360764B1A78744B1B689A42F0D220200F2105F049FF00226F4B1A6007E06F4AD15C674A1A449177AB
:4046800001336B4A13606B4B1A78694B1B689A42F1D207E00120202107F056F9604A1378013B13705D4BDB78DBB20C2B36D10E225D4B1A705D4B1B78012B04D101205D21FA
:4046C00006F0E4FA03E00120702106F0DFFA554B1B7813B1012B11D020E0514B1B784E4901F81E3F202005F0CDFEB8B90120552106F0CCFA64224C4B1A700FE0484B1B78E2
:40470000454901F82F3F2F2005F0BCFE30B90120552106F0BBFA6422434B1A7064200EF0B5FD0EF00FF838BD0DF0E2FF082842F012803A4B1B78DBB2AA2B40F0C783374B47
:404740009B79DBB2C32B40F0C183344BDB79DBB23C2B40F0BB83324B1B78172B00F252822E4AD278D2B2092A7DD80133DAB22C4B1A702C4B1B78042B6ED8DFE803F003140A
:40478000273A67002C4B1978012904D1234BDB7830332A48835400295ED1204BDB7830331D498B5458E0244B1978012904D11B4BDB7830332248835400294DD1174BD97871
:4047C000154B1344303183F8431045E01A4B1978012904D1114BDB7830331A48835400293AD10E4BD9780C4B1344303183F8611032E0114B1978012904D1084BDB7830338E
:404800001148835441BB054BD978034B1344303183F87F1020E000BF3487FF1FD08AFF1F4D85FF1F9785FF1F7A83FF1F2785FF1F8C83FF1F5485FF1F3688FF1F2885FF1FB1
:404840008083FF1FD488FF1F3885FF1F984BD978984B13443031D972954BD97830310120C9B207F071F8924BDB78DBB20A2B2BD1914B1A780132D2B21A70904B1B78042BE0
:404880001ED8DFE803F003070D13190030218C4B995415E08A4B1344302183F843100FE0874B1344302183F8611009E0844B1344302183F87F1003E07E4B13443021D97252
:4048C0000120302107F040F8794BDB78DBB2672B2BD1794B1A780132D2B21A70774B1B78042B1ED8DFE803F003070D1319002321734B995415E0724B1344232183F84310CD
:404900000FE06F4B1344232183F8611009E06C4B1344232183F87F1003E0664B13442321D9720120232107F00FF8614BDB78DBB26A2B2BD1604B1A780132D2B21A705F4BE0
:404940001B78042B1ED8DFE803F003070D1319002D215B4B995415E0594B13442D2183F843100FE0564B13442D2183F8611009E0534B13442D2183F87F1003E04D4B13446C
:404980002D21D97201202D2106F0DEFF484BDB78DBB2662B2BD1484B1A780132D2B21A70464B1B78042B1ED8DFE803F003070D1319004021424B995415E0414B134440215C
:4049C00083F843100FE03E4B1344402183F8611009E03B4B1344402183F87F1003E0354B13444021D9720120402106F0ADFF304BDB78DBB2692B2BD12F4B1A780132D2B264
:404A00001A702E4B1B78042B1ED8DFE803F003070D1319002E212A4B995415E0284B13442E2183F843100FE0254B13442E2183F8611009E0224B13442E2183F87F1003E057
:404A40001C4B13442E21D97201202E2106F07CFF174BDB78DBB2682B5ED1174B1A780132D2B21A70154B1B78042B51D8DFE803F00310303E4C00134B1B78012B02D12020C2
:404A800011498854002B43D120210D4B99543FE00C4B1B78012B02D120200C498854002B36D1074B1344202183F8431030E000BFD08AFF1F9486FF1F4D85FF1F9785FF1FEF
:404AC0003487FF1F3688FF1F2885FF1F8083FF1F9A4B1B78012B02D1202099498854BBB9984B1344202183F8611011E0934B1B78012B02D12020944988544BB9914B134434
:404B0000202183F87F1003E0904B13442021D9720120202106F018FF8D4BDB78DBB21A2B70D98B4BDB78DBB2422B6BD80022894B1A6063E0864AD278D2B287491944097A6D
:404B40008A4257D185490A780132D2B20A7084490978042948D8DFE801F003122232420076490878012803D103F141017D4CA154002839D103F141017248815434E06F49CF
:404B80000878012803D103F14101774CA15458BB6C49114403F1410081F8430024E067490878012803D103F14101654CA154D8B96449114403F1410081F8610014E05F4931
:404BC0000878012803D103F141015F4CA15458B95C49114403F1410081F87F0004E05B49114403F14100C87203F141010120C9B206F0AAFE574A136801331360554B1B6888
:404C0000192B97D9524BDB78DBB20B2B76D1534B1A78002A6AD10E22544B1A70544B1B78012B04D101205D2106F030F803E00120702106F02BF84020202105F061FC002225
:404C4000444B1A6008E04B4AD15C3E4A1A4482F8431001333F4A1360464B1A783D4B1B689A42F0D28020202105F04AFC0022394B1A6008E03F4AD15C324A1A4482F8611033
:404C80000133344A13603B4B1A78324B1B689A42F0D2A020202105F033FC00222D4B1A6008E0344AD15C274A1A4482F87F100133284A13602F4B1A78264B1B689A42F0D2BE
:404CC0000020202105F01CFC0022224B1A6006E0284AD15C1B4AD15401331E4A1360254B1A781C4B1B689A42F2D207E00120202106F02AFE194A1378013B1370144BDB78CD
:404D0000DBB20C2B40F0E2800E22184B1A70184B1B78012B04D101205D2105F0B7FF03E00120702105F0B2FF0D4B1B78042B00F2CD80DFE803F0214A729AC0003688FF1F5E
:404D4000D488FF1F3487FF1F3885FF1F9486FF1FD08AFF1F8C83FF1F0C81FF1F4D85FF1F9785FF1F2885FF1F8083FF1F7A83FF1F2785FF1F5485FF1FA34B1B78012B0DD100
:404D8000A24CA34B1B78237040F26A40A14905F079FB40F26A40214605F074FB9A4B1B78002B40F093809C49994B1B780B70002005F068FB002840F089800120552105F0F9
:404DC00065FF6422954B1A7080E08F4B1B78012B0DD1934C8E4B1B78237040F275408D4905F050FB40F27540214605F04BFB864B1B78002B6AD1864B1B78874901F8433FAB
:404E0000402005F03FFB002860D10120552105F03DFF6422814B1A7058E07B4B1B78012B0DD1804C7A4B1B7823704FF49060794905F028FB4FF49060214605F023FB724B1D
:404E40001B78002B42D1724B1B78734901F8613F802005F017FB002838D10120552105F015FF64226D4B1A7030E0674B1B78012B0DD16D4C664B1B78237040F28B406549E2
:404E800005F000FB40F28B40214605F0FBFA5E4B1B78DBB95E4B1B785F4901F87F3FA02005F0F0FA90B90120552105F0EFFE64225A4B1A700AE0564B1A785C4BDA72012002
:404EC000392105F0E3FE2422544B1A7064200EF0DDF90DF037FC38BD0DF00AFC082841F03A84534B1B78DBB2AA2B2DD1504B9B79DBB2C32B28D14E4BDB79DBB23C2B23D1EB
:404F00004B4BDB78DBB25F2B04D07E2B15D05E2B1AD10AE001200B2105F0B8FE0122454B5A700A223D4B1A700EE001201D2105F0ADFE0B22394B1A7006E00120002105F0B9
:404F4000A5FE0022354B1A7046200EF09FF90DF0F9FB38BD0DF0CCFB082841F0FC83344B1B78DBB2AA2B40F0E080314B9B79DBB2C32B40F0DA802E4BDB79DBB23C2B40F052
:404F8000D480234B1B78062B25D8294AD278D2B2092A0FD80133DAB21D4B1A702448C178224B13443031D972C17830310120C9B205F0A2FE1E4BDB78DBB20A2B0BD1144BC8
:404FC0001A780132D2B21A70184B13443021D972012005F091FE164BDB78DBB20B2B3ED10B4B1A7852BB0E220C4B1A70124B1B78012B04D101205D2105F048FE2FE001205C
:40500000702105F043FE2AE03688FF1F2885FF1F4D85FF1F4C81FF1F3487FF1F7A83FF1F8083FF1FD488FF1F3885FF1F9486FF1FD08AFF1F7883FF1F2785FF1F01202021BE
:4050400005F05AFEA44B1B78A44A1A44D27A2C2A02D10021A24A1170013B9F4A1370A14BDB78DBB20C2B60D19B4B1B78032B5CD906229D4B1A700120392105F007FE964B6A
:405080001A78964BDA72994B18780CF097F9002848D0974B93F8A320964B1B789A4204D140F2B310944905F0EDF9914B93F8A320924B1B789A4204D140F2A7108E4905F0EF
:4050C000E1F98B4B93F8A3208D4B1B789A4204D140F2AD10884905F0D5F9854B93F8A320884B1B789A4204D14FF47A70824905F0C9F901203C2105F0C9FD4FF4FA700EF04B
:40510000C5F80E22784B1A707F4B1B78012B04D101205D2105F0BAFD07E00120702105F0B5FD02E00120FDF7FBFB64200EF0AEF80DF008FB38BD0DF0DBFA082841F00B8381
:40514000684B1B78DBB2AA2B59D1664B9B79DBB2C32B54D1634BDB79DBB23C2B4FD1614BDB787E3B042B4AD8DFE803F0420327323A000120582105F089FD0120002173225B
:4051800040F2C31305F0DEFF01200021CF2240F2C51305F0D7FF01200146292240F2C11305F0D0FF012001467B2240F2EE3305F0C9FF1C224C4B1A7021E00120062105F0DE
:4051C00065FD0022444B1A701D22474B1A7016E001206D2105F05AFD1E22434B1A700EE001208A2105F052FD2A223F4B1A7006E00120002105F04AFD00223B4B1A706420F6
:405200000EF044F80DF09EFA38BD0DF071FA082841F0A182334B1B78DBB2AA2B56D1314B9B79DBB2C32B51D12E4BDB79DBB23C2B4CD12C4BDB787E3B042B47D8DFE803F08E
:405240003F03122130000120062105F01FFD0022214B1A700122264B83F8A3201F22224B1A7033E00120062105F010FD00221A4B1A7002221E4B83F8A3201F221A4B1A70A5
:4052800024E00120062105F001FD0022124B1A700322174B83F8A3201F22134B1A7015E00120062105F0F2FC00220B4B1A7004220F4B83F8A3201F220B4B1A7006E00120B0
:4052C000002105F0E3FC0022074B1A7064200DF0DDFF0DF037FA38BD4D85FF1F9486FF1F7B83FF1FD08AFF1F7A83FF1F7083FF1F3487FF1FDF88FF1F9F86FF1F1E88FF1FEE
:405300004C85FF1F7C83FF1F2785FF1F0DF0F0F9082841F02082A64B1B78DBB2AA2B40F0BE80A34B9B79DBB2C32B40F0B880A04BDB79DBB23C2B40F0B2809E4B1B78042B35
:4053400036D89B4AD278D2B2092A0FD80133DAB2984B1A709648C178974B13443031D972C17830310120C9B205F0C6FC904BDB78DBB20A2B0BD18F4B1A780132D2B21A70C3
:405380008D4B13443021D972012005F0B5FC884BDB78DBB2512B0BD1864B1A780132D2B21A70854B13442C21D972012005F0A4FC7F4BDB78DBB20B2B24D17E4B1A7882B9CC
:4053C0000E227E4B1A707E4B1B78012B04D101205D2105F05BFC15E00120702105F056FC10E00120202105F087FC724B1B78724A1A44D27A2C2A02D10021724A1170013BB1
:405400006C4A13706A4BDB78DBB20C2B47D1694B1B78052B43D1684B1B7B353BDBB2022B3DD80120392105F031FC624B1B78624901F80B3F4FF4DD7005F024F8012805D1D1
:405440005D4B1B7B03F00F035F4A137040F25A205E4905F017F8012821D1574A937B03F00F035B490B70137C03F00F03594A13703C2105F00BFC4FF4FA700DF007FF0E2285
:405480004E4B1A704E4B1B78012B04D101205D2105F0FCFB03E00120702105F0F7FB64200DF0F4FE0DF04EF938BD0DF021F9082841F051813E4B1B78DBB2AA2B71D13C4B58
:4054C0009B79DBB2C32B6CD1394BDB79DBB23C2B67D1374BDB78DBB28F2B04D0902B2ED07E2B5ED156E03C49002381F82D3081F82E304FF4DE702D3104F0C4FF01281AD116
:405500000022364B1A703C2105F0C0FB4FF4FA700DF0BCFE2A4B1B78012B04D101205D2105F0B4FB03E00120702105F0AFFB0E22224B1A7035E00120FDF7F2F931E0264991
:40554000012381F82D3081F82E304FF4DE702D3104F098FF012819D1204B18703C2105F095FB4FF4FA700DF091FE154B1B78012B04D101205D2105F089FB03E0012070211E
:4055800005F084FB0E220D4B1A700AE00220FDF7C7F906E00120702105F078FB0E22074B1A7064200DF072FE0DF0CCF838BD00BFD08AFF1F4D85FF1F9486FF1F7A83FF1F78
:4055C0002785FF1F7B83FF1F3385FF1F9F86FF1F7D83FF1F1F88FF1F3487FF1FA285FF1F0DF086F8082841F0B680A64B1B78DBB2AA2B40F0B380A34B9B79DBB2C32B40F0A3
:40560000AD80A04BDB79DBB23C2B40F0A7809E4B1B782BBB9B4AD278D2B2092A0FD80133DAB2994B1A709748C178984B13443031D972C17830310120C9B205F05DFB914BF9
:40564000DB78DBB20A2B0BD18F4B1A780132D2B21A708E4B13443021D972012005F04CFB884BDB78DBB20B2B1BD1874B1A783AB90120002105F00AFB0022854B1A7010E08F
:405680000120202105F038FB7F4B1B787F4A1A44D27A2C2A02D100217E4A1170013B7A4A1370784BDB78DBB20C2B57D1764B1B78012B53D10120392105F0E8FA724B1A7833
:4056C000724BDA72744B93F8A330012B08D16F490A7B724B1A7040F2C1100B3104F0D2FE6D4B93F8A330022B08D168490A7B6C4B1A7040F2C3100B3104F0C4FE664B93F832
:40570000A330032B08D161490A7B664B1A7040F2C5100B3104F0B6FE5F4B93F8A330042B08D15A490A7B604B1A7040F2EE300B3104F0A8FE4FF4FA700DF0A8FD0E22544B89
:405740001A705A4B1B78012B04D101205D2105F09DFA03E00120702105F098FA64200DF095FD0CF0EFFF38BD0CF0C2FF082840F0F287444B1B78DBB2AA2B40F0B682414B1F
:405780009B79DBB2C32B40F0B0823E4BDB79DBB23C2B40F0AA823B4BDB787E3B252B00F2A482DFE813F08102A202A202A202A202A202260017014A003A018700AB00F30068
:4057C000CF00A202A202A202A202A202A202A202A2025F02A202A2023C025E018201A202A202A202A202A202A202A601CA01EE0119022F4901230B7000234B7040F2C7109F
:4058000004F040FE012840F070823C2105F03EFA4FF4FA700DF03AFD0E221D4B1A70234B1B78012B04D101205D2105F02FFA5CE20120702105F02AFA57E21D4901230B7058
:405840000B234B7040F2C71004F01CFE012840F04C823C2105F01AFA4FF4FA700DF016FD0E220B4B1A70114B1B78012B04D101205D2105F00BFA38E20120702105F006FA84
:4058800033E200BFD08AFF1F4D85FF1F9486FF1F7A83FF1F7B83FF1F3487FF1F1E88FF1FDF88FF1F4C85FF1F7C83FF1F2785FF1F4885FF1FC54901230B7004234B7040F299
:4058C000C71004F0DFFD012840F00F823C2105F0DDF94FF4FA700DF0D9FC0E22BC4B1A70BC4B1B78012B04D101205D2105F0CEF9FBE10120702105F0C9F9F6E1B34901237D
:405900000B700C234B7040F2C71004F0BBFD012840F0EB813C2105F0B9F94FF4FA700DF0B5FC0E22AA4B1A70AA4B1B78012B04D101205D2105F0AAF9D7E10120702105F05B
:40594000A5F9D2E1A14901230B7009234B7040F2C71004F097FD012840F0C7813C2105F095F94FF4FA700DF091FC0E22984B1A70984B1B78012B04D101205D2105F086F9F6
:40598000B3E10120702105F081F9AEE18F4901230B7008234B7040F2C71004F073FD012840F0A3813C2105F071F94FF4FA700DF06DFC0E22864B1A70864B1B78012B04D19D
:4059C00001205D2105F062F98FE10120702105F05DF98AE17D4901230B704B7040F2C71004F050FD012840F080813C2105F04EF94FF4FA700DF04AFC0E22754B1A70754B59
:405A00001B78012B04D101205D2105F03FF96CE10120702105F03AF967E16C4901230B7006234B7040F2C71004F02CFD012840F05C813C2105F02AF94FF4FA700DF026FCC2
:405A40000E22634B1A70634B1B78012B04D101205D2105F01BF948E10120702105F016F943E15A4901230B700E234B7040F2C71004F008FD012840F038813C2105F006F93E
:405A80004FF4FA700DF002FC0E22514B1A70514B1B78012B04D101205D2105F0F7F824E10120702105F0F2F81FE1484901230B700D234B7040F2C71004F0E4FC012840F04E
:405AC00014813C2105F0E2F84FF4FA700DF0DEFB0E223F4B1A703F4B1B78012B04D101205D2105F0D3F800E10120702105F0CEF8FBE0364901230B7003234B7040F2C71070
:405B000004F0C0FC012840F0F0803C2105F0BEF84FF4FA700DF0BAFB0E222D4B1A702D4B1B78012B04D101205D2105F0AFF8DCE00120702105F0AAF8D7E0244901230B7044
:405B400005234B7040F2C71004F09CFC012840F0CC803C2105F09AF84FF4FA700DF096FB0E221B4B1A701B4B1B78012B04D101205D2105F08BF8B8E00120702105F086F8FB
:405B8000B3E0124901230B7007234B7040F2C71004F078FC012840F0A8803C2105F076F84FF4FA700DF072FB0E22094B1A70094B1B78012B04D101205D2105F067F894E04D
:405BC0000120702105F062F88FE000BF4885FF1F7A83FF1F2785FF1FB04901230B700A234B7040F2C71004F04DFC01287DD13C2105F04CF84FF4FA700DF048FB0E22A84BC3
:405C00001A70A84B1B78012B04D101205D2105F03DF86AE00120702105F038F865E09F4901230B7002234B7040F2C71004F02AFC01285AD13C2105F029F84FF4FA700DF029
:405C400025FB0E22964B1A70964B1B78012B04D101205D2105F01AF847E00120702105F015F842E08D4900230B704B7040F2C71004F008FC012838D13C2105F007F84FF45B
:405C8000FA700DF003FB0E22854B1A70854B1B78012B04D101205D2104F0F8FF25E00120702104F0F3FF20E07C4900230B704B7040F2C71004F0E6FB01280FD10E22784B72
:405CC0001A70784B1B78012B03D15D2104F0DEFF0BE00120702104F0D9FF06E00120002104F0D4FF00226E4B1A7064200DF0CEFA0CF028FD38BD0CF0FBFC08284ED16A4B62
:405D00001B78DBB2AA2B44D1674B9B79DBB2C32B3FD1654BDB79DBB23C2B3AD1624BDB78DBB20A2B29D10122604B1A6010E0604B5878604B197801225F4B1B7806F04EFABC
:405D40004FF4FA700DF0A2FA584A1368013313605A4B1B7803F00F03544A12689342E6D201200C2104F092FF55480CF00BFF0CF0DBFE64224A4B1A700BE001200C2104F01A
:405D800085FF6422464B1A704D480CF0FBFE0CF0CBFE64200DF07AFA0CF0D4FC494B1B78132B40F2D88401200C2104F06FFF64223B4B1A700022434B1A7038BD0CF098FCB6
:405DC000082840F0C884384B1B78DBB2AA2B5ED1354B9B79DBB2C32B59D1334BDB79DBB23C2B54D1304BDB78DBB2392B0FD002D8382B05D04BE07E2B42D0942B35D046E0AC
:405E00000021274B1970012004F040FF3FE0244D00232B7001203B2104F038FF244C607807F0E8F960780A2104F0B4FB60780A2104F0B0FB60780A2104F0ACFB60781D21E0
:405E400004F0A8FB6078562104F0A4FB6078312104F0A0FB64232B7001221A4B1A7018480CF090FE0CF060FE11E001202F2104F00DFF0022144B1A702822094B1A7006E0FD
:405E80000120002104F002FF0022054B1A7064200DF0FCF90CF056FC38BD00BF4885FF1F7A83FF1F2785FF1FD08AFF1F5085FF1F9086FF1F3788FF1F7083FF1FD088FF1F64
:405EC000752200009685FF1F4D85FF1F0CF010FC082840F04084B24B1B78DBB2AA2B3CD1AF4B9B79DBB2C32B37D1AD4BDB79DBB23C2B32D1AA4BDB78DBB2912B04D0922BC1
:405F000013D07E2B29D121E001200A2104F0BEFE0122A44B1A700422A34B1A700022A34B1A701822A24B1A7017E001206F2104F0ADFE21229B4B1A7004229B4B1A700022A7
:405F40009A4B1A7018229A4B1A7006E00120002104F09CFE0022964B1A7064200DF096F90CF0F0FB38BD934B012013F80B1F8D4A127804F0F5FC012820D16E2104F086FE3F
:405F800023228B4B1A700120014604F00FFC052810D90A200DF07AF9012005F051FC0120212104F003FC052840F2D583012005F0C5FB38BD0120FCF7B3FC38BD0120FCF71E
:405FC000AFFC38BD0CF094FB082840F0C483744B1B78DBB2AA2B77D1714B9B79DBB2C32B72D16F4BDB79DBB23C2B6DD16C4BDB78DBB2392B04D07E2B47D0382B64D13CE0C2
:406000006D4B5A78012A07D16C4901230B704B706B490B7002234B70022A08D1674B01221A7003215970664B1A7004225A7040F26320624904F026FA012845D140F26520CF
:406040005F4904F01FFA01283ED1682104F01EFE4FF4FA700DF01AF90E22554B1A70594B1B78012B04D101205D2104F00FFE2BE00120702104F00AFE26E026224C4B1A7083
:406080000120672104F002FE1EE04F4B5B78012B03D100224C4B5A7002E001224A4B5A7040F2DA30484904F0EDF901203C2104F0EDFD4FF4FA700DF0E9F80120002104F02D
:4060C000E5FD00223A4B1A7064200DF0DFF80CF039FB38BD0CF00CFB082840F03C83304B1B78DBB2AA2B40F0E0802D4B9B79DBB2C32B40F0DA802A4BDB79DBB23C2B40F070
:40610000D480274BDB78DBB28C2B0AD003D87E2B00F0C480C9E08D2B58D08E2B00F09180C3E0254B5B78012B07D1244A0120107002215170224A10705170022B07D11F4B34
:406140000121197004225A701D4B19705A7040F263201A4904F096F9012840F0A68040F26520174904F08EF9012840F09E806A2104F08CFD4FF4FA700DF088F80E220C4BED
:406180001A70104B1B78012B04D101205D2104F07DFD8AE00120702104F078FD85E000BFD08AFF1F9885FF1F9785FF1F4D85FF1F7A83FF1F9486FF1F8C86FF1F9086FF1F1C
:4061C0003087FF1F2785FF1F7883FF1FAE4B5A78012A06D1AD4901230B704B70AC490B704B70022A07D1A94B0121197003225A70A74B19705A7040F26320A44904F042F9F7
:40620000012852D140F26520A14904F03BF901284BD1692104F03AFD4FF4FA700DF036F89C4B1B78012B04D101205D2104F02EFD03E00120702104F029FD0E22964B1A70F4
:4062400033E092490120087000224A70904B18705A7040F2632004F015F9012825D140F265208B4904F00EF901281ED16C2104F00DFD4FF4FA700DF009F80E22864B1A7059
:40628000844B1B78012B04D101205D2104F0FEFC0BE00120702104F0F9FC06E00120002104F0F4FC00227C4B1A7064200CF0EEFF0CF048FA38BD0CF01BFA082840F04B820B
:4062C000764B1B78DBB2AA2B40F0D780734B9B79DBB2C32B40F0D180704BDB79DBB23C2B40F0CB806E4B1A78032A26D86B4BDB78DBB2092B0ED8694BD9786A4B134430317D
:4063000083F88E1001202A2104F0F6FC644A137801331370614BDB78DBB20A2B0DD1604C2278604B1344302183F88E1001202A2104F0E2FC237801332370584BDB78DBB28E
:406340000B2B0ED1564B1B781BB90120FCF7E8FA07E0013BDAB2524B1A700120202104F0CBFC4E4BDB78DBB20C2B40F086804C4B1A78002A72D000234B490B604B490B607B
:4063800012E0591C4A48405C464C234493F88E30984204D1444803680133036002E00020414B1860414B19601046404B1B689A42E7D83F4B1A783C4B1B689A420FD10120BC
:4063C000262104F063FC4FF4FA700CF05FFF2222314B1A700120712104F058FC4DE00023314A1360314A136010E0314A1A4492F824102C4A1A4492F88E20914203D12A49DE
:406400000A6801320A600133284A1360274B1B689842EAD8244B1B68042B0FD10120262104F034FC4FF4FA700CF030FF22221A4B1A700120712104F029FC1EE001202721D8
:4064400004F024FC6422144B1A700122194B1A7019480CF097FB0CF067FB0EE00120272104F014FC64220C4B1A700122114B1A7011480CF087FB0CF057FB64200CF006FFC6
:406480000CF060F938BD00BF8C86FF1F9086FF1F3087FF1F2785FF1F7A83FF1FD08AFF1F4D85FF1F9486FF1FA485FF1F8C83FF1F0C81FF1F9685FF1F752200000CF018F919
:4064C000082840F04881A44B1B78DBB2AA2B7AD1A14B9B79DBB2C32B75D19F4BDB79DBB23C2B70D19D4B1A78032A27D89A4BDB78DBB2092B10D89848C178994B13443031D4
:4065000083F88E10C17830310120C9B204F0F4FB924A1378013313708F4BDB78DBB20A2B0CD18E4C22788E4B1344302183F88E10012004F0E1FB237801332370864BDB78BA
:40654000DBB20B2B0ED1854B1B781BB90120FCF7E7F907E0013BDAB2804B1A700120202104F0CAFB7C4BDB78DBB20C2B2BD17B4B1B78042B27D10120392104F087FB0023C1
:40658000784A1370754A127877490A7077490B6008E0591C7248034493F88E00724B5854724B1960714B1B689A42F2D840F29F206D4903F067FF30B90120552104F066FB18
:4065C0006422684B1A7064200CF060FE0CF0BAF838BD0CF08DF8082840F0BD805E4B1B78DBB2AA2B4FD15C4B9B79DBB2C32B4AD1594BDB79DBB23C2B45D1574BDB78DBB2A6
:40660000BC2B08D002D87E2B36D03CE0BD2B12D0BE2B21D037E00120702104F037FB544901230B704B704FF47D7003F02BFF0E224C4B1A7027E00120702104F027FB4C496A
:4066400001230B7002234B704FF47D7003F01AFF0E22444B1A7016E00120062104F016FB0122444B1A7000233C4A1370424A137005223C4B1A7006E00120702104F006FB97
:406680000E22384B1A7064200CF000FE0CF05AF838BD0CF02DF808285DD12F4B1B78DBB2AA2B58D12C4B9B79DBB2C32B53D12A4BDB79DBB23C2B4ED1274BDB78DBB2772BCB
:4066C00039D002D8762B05D038BD822B12D0832B20D038BD0120302104F0D8FA0023274A13701E4A13700122254B1A7018221D4B1A7038BD0120302104F0C8FA01231F4AFD
:4067000013700021154A11701D4A13701822154B1A7038BD0120302104F0B8FA0222174B1A7000220D4B1A700122154B1A7018220C4B1A7038BD0120302104F0A7FA03225D
:406740000E4B1A700022054B1A7001220C4B1A701822044B1A7038BDD08AFF1F4D85FF1F9486FF1F7A83FF1F0C81FF1F8C83FF1F8C86FF1F8F86FF1F7B83FF1F9785FF1FE2
:406780003688FF1F38B5984B1B78642B03F29785DFE813F074008000951DA100000188013B02D902951D0903F6034004AD0420056C0549065D07AC073808EE086D09D90A10
:4067C0002C0CB00DCB0EAC11FE11D5123613B91389142A15EE15C6182919AE19FB192B1AB41AAC1BAC1C371D951D951D951D951D951D951D951D951D951D951D951D951DDB
:40680000951D951D951D951D951D951D951D951D951D951D951D951D951D951D951D951D951D951D951D951D951D951D951D951D951D951D951D951D951D951D951D951D18
:40684000951D951D951D951D951D951D951D951D951D951D951D951D951D951D6500634B1B78012B43F22B8500245F4B1C700CF051FA0CF0B3F95D4B1C7038BD5C480CF093
:406880003BFA0CF00BFA0022584B1A700122564B1A7038BD0CF01AF8082843F010850CF03FF80CF037FA0CF099F9524B1B78022B04D10220632104F0E9F903E00220452103
:4068C00004F0E4F964200CF0E1FC0CF029F80322454B1A7038BD0BF0F9FF082843F0EF84454B1B78DBB2AA2B4ED1434B9B79DBB2C32B49D1404BDB79DBB23C2B44D13E4B04
:40690000DB78DBB2592B2DD002D8452B1FD03BE05C2B02D07E2B30D036E00022374BDA70344B1B78012B06D10220052104F0AEF904222D4B1A702F4B1B78022B24D102202B
:40694000492104F0A3F91922274B1A701CE00220252104F09BF90022294B1A700F22224B1A7011E00220252104F090F90022244B1A7027221C4B1A7006E00220002104F06A
:4069800085F90022184B1A7064200CF07FFC0BF0C7FF38BD0BF09AFF082843F09084164B1B78DBB2AA2B77D1134B9B79DBB2C32B72D1114BDB79DBB23C2B6DD10F4AD3783A
:4069C00023F00303D3700C4BDB78DBB23B2B4BD004D80F2B16D0102B28D05DE0432B3BD07E2B52D058E000BF4B85FF1F2585FF1FBD2200002785FF1FE48AFF1F3888FF1F13
:406A00002D87FF1F0220062104F040F90022A74B1A700220242104F06FF9A54AD37843F00203D3700522A34B1A7035E002200D2104F02CF900229D4B1A709F4B1A700220B1
:406A4000472104F059F99A4AD37843F00103D3700522984B1A701FE00220072104F016F90622944B1A7017E0944B1B78022B04D10220632104F00AF903E00220452104F0E7
:406A800005F903228B4B1A7006E00220002104F0FDF80022874B1A7064200CF0F7FB0BF03FFF38BD0BF012FF082843F00884844B1B78DBB2AA2B40F0A280814B9B79DBB2A5
:406AC000C32B40F09C807E4BDB79DBB23C2B40F09680764B1B787B4A1278013A93423EDC774AD278D2B2092A0FD80133DAB26F4B1A707348C1786E4B13443031D972C178A2
:406B000030310220C9B204F0F7F86D4BDB78DBB20A2B0BD1654B1A780132D2B21A70644B13443021D972022004F0E6F8644BDB78DBB2512B13D15D4B1B7883B15E4A127822
:406B40006AB90133DAB2594B1A70594B13442C21D972022004F0D0F80122574B1A70584BDB78DBB20B2B1BD1504B1A783AB90220052104F08BF804224E4B1A7010E0022065
:406B8000202104F0B9F8494B1B78494A1A44D27A2C2A02D10021484A1170013B434A1370474BDB78DBB20C2B29D1404B1B786BB1454B1B7853B90220072104F067F83B4BB3
:406BC0001A783B4BDA7206223A4B1A70374B1B78ABB13D4B1B78012B11D10220702104F055F8334B1B7B39490B7040F28D4003F049FC0022344B1A700E222E4B1A70642042
:406C00000CF044FB0BF08CFE38BD64200CF03EFB0BF05CFE082820D1294B1B78DBB2AA2B15D1274B9B79DBB2C32B10D1244BDB79DBB23C2B0BD1224BDB78DBB27E2B06D1DF
:406C40000220002104F022F800221A4B1A7064200CF01CFB0BF064FE38BD1D4B187906F0B5FE072843F02B8332200CF00FFB184B187906F0BFFE174B187032200CF006FBDF
:406C80000B4BDB7813F0030328D0114A1079114A1178114A0AF050F900BB0220002103F0F5FF0022034B1A7038BD00BF2D87FF1F3888FF1F4B85FF1F4E85FF1F2785FF1FD8
:406CC000E48AFF1F3385FF1F8F86FF1FD088FF1F7083FF1F9286FF1F4388FF1F01200CF07DFA9A4B187906F085FE994B1870002803F0E582974B1B7803F00F03834211D0C8
:406D0000954B1B7803F00F0398420BD0934B1B7803F00F03984205D0914B1B7803F00F03984202D102200AF087FD884B187940F010000BF06FF80220082103F0A7FF07222D
:406D4000884B1A7038BD32200CF0A0FA7F4B187906F03CFE0A2813D00B2803D0062843F0AE8218E064200CF091FA784B187906F0B5FE012843F0A3820D227A4B1A7038BDAE
:406D8000724B187906F0AAFE012843F098820D22744B1A7038BD0220002103F077FF0022704B1A7038BD0BF091FD082840F0B9806D4B1B78DBB2AA2B40F0AE806A4B9B7906
:406DC000DBB2C32B40F0A880674BDB79DBB23C2B40F0A2800022654B1A70654B1B78062B65D8614AD278D2B2092A10D80133DAB25F4B1A705C48C1785E4B1344303183F826
:406E00006510C17830310220C9B203F075FF564BDB78DBB20A2B0CD1554B1A780132D2B21A70544B1344302183F86510022003F063FF4D4BDB78DBB26A2B0CD14C4B1A7878
:406E40000132D2B21A704B4B13442D2183F86510022003F051FF444BDB78DBB21A2B26D9414BDB78DBB2422B21D80022424B1A6019E03D4AD278D2B240491944097A8A4210
:406E80000DD13B490A780132D2B20A704133D9B2384B134483F86510022003F02DFF364A136801331360344B1B68192BE1D92E4BDB78DBB20B2B18D12D4B1A786AB902204A
:406EC0000B2103F0E3FE2B4B002283F8652083F883200A22234B1A7007E00220202103F00BFF234A1378013B13701F4BDB78DBB20C2B11D11E4B1B7873B10220052103F0FC
:406F0000C5FE1C4B1A4A127883F86520012283F883200422134B1A7064200CF0B7F90BF0FFFC124B1B781D2B43F2C98102200B2103F0ACFE0F4A002382F8653082F883306A
:406F40000A4A13700A22074B1A7038BD7083FF1F9286FF1F1E88FF1FDF88FF1F4C85FF1F7C83FF1F4B85FF1FE48AFF1F2585FF1F2D87FF1F3888FF1F8C83FF1F0C81FF1FD7
:406F80000BF0A4FC082835D1AC4B1B78DBB2AA2B2BD1AA4B9B79DBB2C32B26D1A74BDB79DBB23C2B21D1A54BDB78DBB2382B15D0392B1AD10022A24B1A70A24BDB7813F02E
:406FC000040F07D102200A2103F060FE09229E4B1A700AE00D229C4B1A7006E00220052103F054FE0422984B1A7064200CF04EF90BF096FC954B1B781D2B43F26081022093
:407000000C2103F043FE0122904B1A7064228E4B1A7038BD0220012103F0C8FB052840D90A200CF033F90220212103F0BFFB052837D9022003F0D2FA012832D133200BF04E
:407040008DFC0220332103F00BFB50B30022804B1A600AE0022003F06DFB7A4B1C4484F829007B4A136801331360794B1C68072CF0D90220132103F009FE724CE37843F0B6
:407080000403E3704FF4FA700CF000F902200E2103F0FCFD00236A4A137023710C226A4B1A700BF013FC082843F00981634B1B78DBB2AA2B15D1614B9B79DBB2C32B10D1A0
:4070C0005E4BDB79DBB23C2B0BD15C4BDB78DBB23B2B06D10220632103F0D8FD03225A4B1A7064200CF0D2F80BF01AFC38BD0BF0EDFB082843F0E380504B1B78DBB2AA2BB4
:4071000062D14E4B9B79DBB2C32B5DD14B4BDB79DBB23C2B58D14A4B1B78052B25D8474AD278D2B2092A0FD80133DAB2444B1A704248C178434B134430311971C1783031EB
:407140000220C9B203F0D8FD3C4BDB78DBB20A2B0BD13B4B1A780132D2B21A70394B134430211971022003F0C7FD344BDB78DBB20B2B12D1324B1A783AB90220052103F095
:4071800085FD0422304B1A7007E00220202103F0B3FD2B4A1378013B1370284BDB78DBB20C2B11D1264B1B7873B1264B5B79302B0AD00220052103F069FD214B1A78214B5D
:4071C0001A710422204B1A7064200CF05FF80BF0A7FB38BD1F4B58781F4B197800221F4B1B7904F0FBFF1E4B1B78012B02D01D4B5B787BB902200C2103F048FD0122134BCC
:407200001A7019480BF078FD0BF048FD64220E4B1A7038BD0220312103F038FD0022084B1A700122094B1A700F480BF065FD0BF035FD2122044B1A7038BD00BFE48AFF1F7C
