:400000000080002011000000F5F80000F5F8000008B5044B1A6803F53F5302331A600FF06BFC00BFFA46004010B5054C237833B9044B13B10448AFF300800123237010BD27
:400040001883FF1F0000000010130100084B10B51BB108480849AFF300800848036803B910BD074B002BFBD0BDE81040184700BF00000000101301001C83FF1F0881FF1FD5
:400080000000000008B510F02BFD0E4B1B78012B13D10D4B1978062907D80131C9B219700120143108F020FE08BD0022064B1A700120142108F018FE08BD034A13780133BF
:4000C000137008BD6A83FF1F8685FF1F08B510F0C1FD0E4B1B78012B13D10D4B1978062907D80131C9B219700220143108F0FCFD08BD0022064B1A700220142108F0F4FD86
:4001000008BD034A13780133137008BD3B85FF1F1585FF1F10B562B60FF022FE10F04EF80FF010FE0FF030FF10F0EAFA10F0D6FB0FF0B8FF052011F065F80024984B1C7012
:400140002046202108F00AFA964B1C6006E0964AD15C964AD1540133924A1360924B1A78904B1B689A42F2D220200F2108F0F6F900228C4B1A6007E08B4AD15C8B4A1A44B1
:4001800091770133874A1360874B1A78854B1B689A42F1D24020202108F0E0F90022814B1A6008E0804AD15C804A1A4482F8431001337C4A13607C4B1A787A4B1B689A42D1
:4001C000F0D28020202108F0C9F90022754B1A6008E0754AD15C754A1A4482F861100133704A1360704B1A786E4B1B689A42F0D2A020202108F0B2F900226A4B1A6008E005
:40020000694AD15C694A1A4482F87F100133654A1360654B1A78634B1B689A42F0D22F200C2108F09BF900225E4B1A6008E05E4AD15C5E4A1A4482F82F100133594A13604A
:40024000594B1A78574B1B689A42F0D26020092108F084F9544B1878431EDBB2082B14D80022504B1A6008E001334F4AD15C4F4A1A4482F8D7104B4A13604A4B1B68072B67
:40028000F2D94A4B83F8D7000EE00122454B1A6006E0464A1A4482F8D7300133414A1360404B1B68082BF4D940F26A400A2108F055F900223B4B1A6006E03B4AD15C3C4A4F
:4002C000D1540133374A1360374B1A78354B1B689A42F2D240F275400A2108F03FF90022304B1A6006E0304AD15C324AD15401332C4A13602C4B1A782A4B1B689A42F2D2B5
:400300004FF490600A2108F029F90022254B1A6006E0254AD15C284AD1540133214A1360214B1A781F4B1B689A42F2D240F28B400A2108F013F900221A4B1A6006E01A4A0C
:40034000D15C1E4AD1540133164A1360164B1A78144B1B689A42F2D240F29640022108F0FDF800220F4B1A6006E00F4AD15C144AD15401330B4A13600B4B1A78094B1B688F
:400380009A42F2D240F29F20052108F0E7F8064B1878042823D10122024B1A6019E000BF7F86FF1F7C83FF1F4485FF1F2487FF1F1885FF1F7083FF1FC488FF1F2885FF1F1B
:4003C000C088FF1FA24AD15CA24AD1540133A24A1360A14B1B68042BF4D99E4B187040F2C110022108F0BAF8994B1B78012B03D1974B5A78994B1A7040F2C310022108F075
:40040000ADF8934B1B78012B03D1914B5A78944B1A7040F2C510022108F0A0F88C4B1B78012B03D18A4B5A788E4B1A7040F2EE30022108F093F8864B1B78012B03D1844B38
:400440005A78894B1A704FF4DD70022108F086F87F4B1B78052B05D17D4B5B7803F00F03824A137040F27A20022108F077F8784B1B78012B03D1764B5A787D4B1A704FF4FD
:400480001F70022108F06AF8714B1B78012B03D16F4B5A78774B1A7040F27E20022108F05DF86B4B1B78012B03D1694B5A78724B1A704FF47C70022108F050F8644B1B78DF
:4004C000012B03D1624B5A786C4B1A7040F25A20062108F043F85E4B1B78052B0AD15C4AD37803F00F0366490B70537903F00F03644A137040F2C710022108F02FF8544BE3
:400500001B78012B06D1604A1370514B5B7803F00F0353704FF4DE70022108F01FF84C4B1B78012B05D14A4B5B7803F00F03574A137040F26320022108F010F8444B1B7847
:40054000012B05D1424B5B7803F00F03504A537040F26520022108F001F83D4B1B78012B05D13B4B5B7803F00F034A4A53704FF42770032107F0F2FF354B1B78022B06D11D
:40058000334B9B7843EA0323434A138002E00122414B1A804FF47670022107F0DFFF2C4B1B78012B04D12A4B5A783C4B5A7007E03A4901230B704B704FF4767007F090FFD5
:4005C0004FF4BB60022107F0C9FF214B1B78012B04D11F4B5A78324B5A7007E0304901230B704B704FF4BB6007F07AFF4FF47D70022107F0B3FF164B187801280ED1002299
:40060000154B1A6006E0124AD15C264AD1540133114A1360104B1B689842F4D240F2D230062107F09BFF0A4B187805283ED10022094B1A6006E0064AD15C1B4AD15401333E
:40064000054A1360044B1B689842F4D23BE000BF4485FF1F0C81FF1F7C83FF1F0E88FF1FCF88FF1F3C85FF1F6D83FF1F2485FF1F1485FF1F7E86FF1F8386FF1F1C87FF1F1F
:400680006E83FF1F0F88FF1F3885FF1F9285FF1F8086FF1F2087FF1F1285FF1F6883FF1F2488FF1F7C86FF1F8C85FF1F174905230B7030234B708B70CB700B714B7140F2F5
:4006C000D23007F00DFF114A537903F00F00137903F00F014FF47A7303FB01F342F2107101FB0033D07800F00F00642101FB0031937803F00F0303EB83035B000B44527846
:4007000002F00F021344024A136010BD8C85FF1F2088FF1F10B500244FE00BF045F9012810D010B102282BD047E001204F2108F0DBFA4FF4FA7010F065FD02204F2108F080
:40074000D3FA3AE0642010F05DFD1D4B18780BF06BF906280FD11A4B18790BF065F9062809D101203C2108F0BFFA02203C2108F0BBFA012421E00120552108F0B5FA1CE03D
:40078000642010F03FFD0E4B18780BF04DF9062813D10B4B18790BF047F9062809D101204A2108F0A1FA02204A2108F09DFA022403E00120552108F097FA002CADD010BD39
:4007C0006083FF1F08B501280ED1552108F08CFA64220D4B1A7001220C4B1A700C4810F0F3F910F0C3F908BD0220552108F07CFA6422084B1A700122074B1A70074810F05B
:400800009DFA10F06DFA08BD6A83FF1F8685FF1F850000003B85FF1F1585FF1FCD00000038B5984B1B78642B03F25787DFE813F074008000551FA100000188013B02D602A2
:40084000551F3D032D048604F3047505A8059A069D0704089E084009CF09470B930C160E350FF61237130E149714FE14E41566164217F1196A1AD91A321B611B071CE01C13
:40088000E21D6D1EE61E551F551F551F551F551F551F551F551F551F551F551F551F551F551F551F551F551F551F551F551F551F551F551F551F551F551F551F551F551F86
:4008C000551F551F551F551F551F551F551F551F551F551F551F551F551F551F551F551F551F551F551F551F551F551F551F551F551F551F551F551F6500634B1B78012B76
:4009000043F2EB8600245F4B1C7010F06BF910F0CDF85D4B1C7038BD5C4810F055F910F025F90022584B1A700122564B1A7038BD0FF000FF082843F0D0860FF025FF10F0E9
:4009400051F910F0B3F8524B1B78022B04D10120632108F0C9F903E00120452108F0C4F90322484B1A70642010F04CFC0FF00CFF38BD0FF0DFFE082843F0AF86454B1B782E
:40098000DBB2AA2B4ED1434B9B79DBB2C32B49D1404BDB79DBB23C2B44D13E4BDB78DBB2592B2DD002D8452B1FD03BE05C2B02D07E2B30D036E00022374BDA70344B1B7841
:4009C000012B06D10120052108F08EF904222D4B1A702F4B1B78022B24D10120492108F083F91922274B1A701CE00120252108F07BF90022294B1A700F22224B1A7011E099
:400A00000120252108F070F90022244B1A7027221C4B1A7006E00120002108F065F90022184B1A70642010F0EDFB0FF0ADFE38BD0FF080FE082843F05086164B1B78DBB2CA
:400A4000AA2B77D1134B9B79DBB2C32B72D1114BDB79DBB23C2B6DD10F4AD37823F00303D3700C4BDB78DBB23B2B4BD004D80F2B16D0102B28D05DE0432B3BD07E2B52D0DF
:400A800058E000BF6A83FF1F8685FF1F850000001785FF1FC08AFF1F8486FF1F3D85FF1F0120062108F020F90022A74B1A700120242108F04FF9A54AD37843F00203D3700A
:400AC0000522A34B1A7035E001200D2108F00CF900229D4B1A709F4B1A700120472108F039F99A4AD37843F00103D3700522984B1A701FE00120072108F0F6F80622944BC9
:400B00001A7017E0944B1B78022B04D10120632108F0EAF803E00120452108F0E5F803228B4B1A7006E00120002108F0DDF80022874B1A70642010F065FB0FF025FE38BD0F
:400B40000FF0F8FD082843F0C885844B1B78DBB2AA2B40F0A280814B9B79DBB2C32B40F09C807E4BDB79DBB23C2B40F09680764B1B787B4A1278013A93423EDC774AD278E5
:400B8000D2B2092A0FD80133DAB26F4B1A707348C1786E4B13443031D972C17830310120C9B208F0D7F86D4BDB78DBB20A2B0BD1654B1A780132D2B21A70644B1344302163
:400BC000D972012008F0C6F8644BDB78DBB2512B13D15D4B1B7883B15E4A12786AB90133DAB2594B1A70594B13442C21D972012008F0B0F80122574B1A70584BDB78DBB20C
:400C00000B2B1BD1504B1A783AB90120052108F06BF804224E4B1A7010E00120202108F099F8494B1B78494A1A44D27A2C2A02D10021484A1170013B434A1370474BDB78BA
:400C4000DBB20C2B29D1404B1B786BB1454B1B7853B90120072108F047F83B4B1A783B4BDA7206223A4B1A70374B1B78ABB13D4B1B78012B11D10120702108F035F8334BBD
:400C80001B7B39490B7040F2964007F029FC0022344B1A700E222E4B1A70642010F0B2FA0FF072FD38BD642010F0ACFA0FF042FD082820D1294B1B78DBB2AA2B15D1274B42
:400CC0009B79DBB2C32B10D1244BDB79DBB23C2B0BD1224BDB78DBB27E2B06D10120002108F002F800221A4B1A70642010F08AFA0FF04AFD38BD1D4B18780AF095FE0728E8
:400D000043F0EB84322010F07DFA184B18780AF09FFE174B1870322010F074FA0B4BDB7813F0030328D0114A1078114A1178114A0EF030F900BB0120002107F0D5FF002237
:400D4000034B1A7038BD00BF3D85FF1F8486FF1F6A83FF1F6B83FF1F1785FF1FC08AFF1F2485FF1F7F86FF1FC088FF1F6083FF1F2788FF1F8F86FF1F994B18780AF068FE81
:400D8000984B1870002803F0A884974B1B7803F00F03834211D0954B1B7803F00F0398420BD0934B1B7803F00F03984205D0914B1B7803F00F03984202D101200EF06AFD68
:400DC000874B187840F010000FF052F80120082107F08AFF0722884B1A7038BD322010F011FA7F4B18780AF01FFE0A282DD00B2803D0062843F071844FE0642010F002FABB
:400E0000774B18780AF098FE01280BD17B4B1B7843B9392107F068FF142010F0F3F90D22754B1A706E4B18780AF086FE012843F05484724B1B78012B43F04F840C2107F084
:400E400053FF00226C4B1A7038BD642010F0DAF9634B18780AF070FE01280BD1674B1B7843B9392107F040FF142010F0CBF90D22614B1A705A4B18780AF05EFE012843F0B1
:400E80002C845E4B1B78012B43F027840C2107F02BFF0022584B1A7038BD0120002107F023FF0022544B1A7038BD0FF043FC082840F0D680524B1B78DBB2AA2B40F0CB800E
:400EC0004F4B9B79DBB2C32B40F0C5804C4BDB79DBB23C2B40F0BF8000224A4B1A704A4B1B78062B65D8464AD278D2B2092A10D80133DAB2444B1A704148C178434B134436
:400F0000303183F86510C17830310120C9B207F021FF3B4BDB78DBB20A2B0CD13A4B1A780132D2B21A70394B1344302183F86510012007F00FFF324BDB78DBB26A2B0CD132
:400F4000314B1A780132D2B21A70304B13442D2183F86510012007F0FDFE294BDB78DBB21A2B26D9264BDB78DBB2422B21D80022274B1A6019E0224AD278D2B225491944A4
:400F8000097A8A420DD120490A780132D2B20A704133D9B21D4B134483F86510012007F0D9FE1B4A136801331360194B1B68192BE1D9134BDB78DBB20B2B35D1124B1A7876
:400FC00052BB01200B2107F08FFE104B002283F8652083F883200A22074B1A7024E000BF6083FF1F2788FF1F0E88FF1FCF88FF1F3C85FF1F6D83FF1F6A83FF1F2385FF1FF8
:40100000C08AFF1F8685FF1F3D85FF1F8486FF1F7C83FF1F0C81FF1F0120202107F09AFEA44A1378013B1370A34BDB78DBB20C2B11D1A04B1B7873B10120052107F054FE0D
:401040009E4B9C4A127883F86520012283F8832004229B4B1A70642010F0D4F80FF094FB984B1B781D2B43F2388301200B2107F03BFE924A002382F8653082F88330914A21
:4010800013700A228E4B1A7038BD0FF053FB082844D1894B1B78DBB2AA2B3AD1864B9B79DBB2C32B35D1844BDB79DBB23C2B30D1814BDB78DBB2382B18D0392B29D10022CE
:4010C0007C4B1A707D4BDB7813F0040F0AD101200A2107F009FE00227B4B1A700922784B1A7016E00D22764B1A7012E00120052107F0FAFD714BDB7813F0040F03D10122AC
:40110000714B1A7002E000226F4B1A7004226C4B1A70642010F076F80FF036FB694B1B781D2B43F2DA8201200C2107F0DDFD0122644B1A706422624B1A7038BD01200146E3
:4011400007F062FB052840D90A2010F05BF80120212107F059FB052837D9012007F06CFA012832D133200FF02DFB0120332107F0A5FA50B30022554B1A600AE0012007F0FD
:4011800007FB4E4B1C4484F82900504A1368013313604E4B1C68072CF0D90120132107F0A3FD464CE37843F00403E3704FF4FA7010F028F801200E2107F096FD00233D4A03
:4011C000137023710C223E4B1A700FF0B3FA082843F08382384B1B78DBB2AA2B15D1364B9B79DBB2C32B10D1334BDB79DBB23C2B0BD1314BDB78DBB23B2B06D10120632154
:4012000007F072FD03222E4B1A7064200FF0FAFF0FF0BAFA38BD0FF08DFA082843F05D82254B1B78DBB2AA2B71D1234B9B79DBB2C32B6CD1204BDB79DBB23C2B67D11D4B00
:401240001B78052B25D81C4AD278D2B2092A0FD80133DAB2174B1A701748C178174B134430311971C17830310120C9B207F072FD114BDB78DBB20A2B0BD10E4B1A78013271
:40128000D2B21A700D4B134430211971012007F061FD094BDB78DBB20B2B21D1054B1A78B2B90120052107F01FFD0422044B1A7016E000BF3D85FF1FC08AFF1F8486FF1FF9
:4012C0006A83FF1F8685FF1F2385FF1F4085FF1F0120202107F03EFD974A1378013B1370964BDB78DBB20C2B11D1934B1B7873B1934B5B79302B0AD00120052107F0F4FCCE
:401300008D4B1A788E4B1A7104228E4B1A7064200FF078FF0FF038FA38BD8B4B58788B4B197800228A4B1B7808F086FF894B1B78012B02D0884B5B787BB901200C2107F09E
:40134000D3FC0122854B1A7085480FF03DFC0FF00DFC64227B4B1A7038BD0120312107F0C3FC0022744B1A7001227C4B1A707C480FF02AFC0FF0FAFB2122724B1A7038BDE5
:401380000FF0D8F9082843F0A8816C4B1B78DBB2AA2B40F0CA80694B9B79DBB2C32B40F0C480664BDB79DBB23C2B40F0BE80634BDB78DBB2652B00F084800AD85A2B50D0F4
:4013C00002D8582B12D0B0E05B2B64D05D2B24D0ABE07E2B00F0A28003D8702B00F09680A3E0932B75D0962B60D09EE00022524B1A7001203E2107F077FC06F0B1FF01282F
:4014000001D107F027FD06F0DBFF012801D107F07FFD10224B4B1A7087E001205C2107F063FC01200021D62240F2AD1307F056FE01200021892240F2B31307F04FFE012013
:401440000146242240F2A71307F048FE0120014678224FF47A7307F041FE1322394B1A7063E00120602107F03FFC012007F0B4FD012007F0F3FE012008F082F8012008F076
:4014800005F9012007F070FF012007F0F3FF12222C4B1A7049E001202F2107F025FC0022254B1A701122274B1A703EE001205F2107F01AFC0022204B1A701B22214B1A7055
:4014C00033E001204D2107F00FFC14221D4B1A702BE001206E2107F007FC0120014607F093F905280ED90A200FF08CFE012008F0D5F90120212107F087F9052802D90120CF
:4015000008F04AF923220F4B1A700EE00120892107F0EAFB29220B4B1A7006E00120002107F0E2FB0022074B1A7064200FF06AFE0FF02AF938BD00BF3D85FF1FC08AFF1F84
:401540008486FF1F6A83FF1F8086FF1F2788FF1F6083FF1F1785FF1F6883FF1F8685FF1F850000000FF0E6F8082843F0B680A64B1B78DBB2AA2B40F0F280A34B9B79DBB248
:40158000C32B40F0EC80A04BDB79DBB23C2B40F0E6809E4B1A78072A26D89B4BDB78DBB2092B0ED8984BD978994B1344303183F88E1001202A2107F0CDFB944A137801339D
:4015C0001370914BDB78DBB20A2B0DD18F4C22788F4B1344302183F88E1001202A2107F0B9FB237801332370874BDB78DBB20B2B0ED1864B1B781BB90120FFF7E3F807E038
:40160000013BDAB2814B1A700120202107F0A2FB7D4BDB78DBB20C2B40F0A1807B4B1A78002A00F08D8000237A490B607A490B6015E0581C7949014491F8D710744C234461
:4016400093F88E30303B994204D172490B6801330B6002E000216F4B19606F4B186010466D4B1B689A42E4D86C4B93F8D720694B1B689A421AD10120262107F035FB4FF49F
:40168000FA700FF0BFFD664B1B78012B04D101205D2107F029FB05E0022B03D10120702107F022FB0E225F4B1A7058E00023594A1360594A136010E05B4A1A4492F82410BE
:4016C000534A1A4492F88E20914203D151490A6801320A600133504A13604F4B1B689842EAD84C4B1B68082B1AD10120262107F0FBFA4FF4FA700FF085FD494B1B78012B60
:4017000004D101205D2107F0EFFA05E0022B03D10120702107F0E8FA0E22424B1A701EE00120272107F0E0FA0122404B1A7040480FF04AFA0FF01AFA64223A4B1A700EE0CC
:401740000120272107F0D0FA0122384B1A7038480FF03AFA0FF00AFA6422324B1A7064200FF050FD0FF010F838BD0EF0E3FF082842F0B387244B1B78DBB2AA2B3ED1224BA4
:401780009B79DBB2C32B39D11F4BDB79DBB23C2B34D11D4BDB78DBB23F2B04D07E2B26D03E2B2BD116E00120402107F09DFA0023164A13701F4A137001206121062207F095
:4017C000C9FA01206D21072207F0C4FA1522154B1A7013E001203F2107F086FA00230B4A1370144A137016220E4B1A7006E00120702107F079FA0E220A4B1A7064200FF002
:4018000001FD0EF0C1FF38BDC08AFF1F3D85FF1F8486FF1F9485FF1F7C83FF1F2487FF1F1785FF1F6A83FF1F0C81FF1F8685FF1F850000006B83FF1F0EF07CFF082842F065
:401840004C87AA4B1B78DBB2AA2B40F08980A74B9B79DBB2C32B40F08380A44BDB79DBB23C2B7DD1A14BDB78DBB2942B06D10120702107F039FA0E229D4B1A709D4B1A78DF
:40188000072A27D8994BDB78DBB2092B10D89748C178994B1344303183F88E10C17830310120C9B207F056FA924A1378013313708E4BDB78DBB20A2B0CD18E4C22788E4B98
:4018C0001344302183F88E10012007F043FA237801332370854BDB78DBB20B2B0ED1854B1B781BB90120FEF76DFF07E0013BDAB2804B1A700120202107F02CFA7B4BDB7856
:40190000DBB20C2B2CD17B4B1B78052B28D90120392107F0E9F9774B1978784B83F8D7100022774B1A600BE0581C734A134493F88E20724B0344303A83F8D720704B186073
:401940006F4B1B689942EFD860206E4906F0C8FD18B90120552107F0C7F90022644B1A7064200FF04FFC0EF00FFF38BD0EF0E2FE082842F0B2865D4B1B78DBB2AA2B40F008
:4019800091805A4B9B79DBB2C32B40F08B80574BDB79DBB23C2B40F08580544BDB78DBB27A2B5FD006D8772B3ED0782B4CD0762B78D10AE0822B17D002D87E2B6BD071E071
:4019C000832B21D0952B5AD06CE00120302107F08BF900234C4A1370464A13704B4A13701822434B1A705DE00120792107F07CF90222454B1A7000233E4A1370434A13708C
:401A000018223B4B1A704DE001207A2107F06CF903223D4B1A700023364A13703B4A13701822334B1A703DE00120782107F05CF90122354B1A7000232E4A1370334A137002
:401A400018222B4B1A702DE00120652107F04CF901222D4B1A700022264B1A701722244B1A701FE00120322107F03EF90023264A1370204A137017221D4B1A7012E0244B98
:401A80001B78022B0ED10120662107F02DF92022174B1A7006E00120702107F025F90E22134B1A7064200FF0ADFB0EF06DFE38BD0EF040FE082842F010860C4B1B78DBB29B
:401AC000AA2B7ED1094B9B79DBB2C32B79D1074BDB79DBB23C2B74D1044BDB787E3B042B6FD8DFE803F067172B3F5300C08AFF1F6A83FF1F3D85FF1F8486FF1F2487FF1FAC
:401B00007C83FF1FFB87FF1F8785FF1F2688FF1F1785FF1F0120062107F0E6F80022B84B1A70B84B1978B84B83F8A3100120242107F010F91A22B54B1A7042E00120062111
:401B400007F0D2F80022AE4B1A70B14B1978AE4B83F8A3100120242107F0FCF81A22AB4B1A702EE00120062107F0BEF80022A44B1A70A84B1978A44B83F8A3100120242199
:401B800007F0E8F81A22A14B1A701AE00120062107F0AAF800229A4B1A709F4B19789A4B83F8A3100120242107F0D4F81A22974B1A7006E00120702107F096F80E22934BA6
:401BC0001A7064200FF01EFB0EF0DEFD38BD0EF0B1FD082842F08185904B1B78DBB2AA2B40F067818D4B9B79DBB2C32B40F061818A4BDB79DBB23C2B40F05B81874BDB782E
:401C0000DBB2642B00F0D48004D8622B09D0632B2ED04EE17E2B00F03D81942B00F0428147E10120392107F05FF864200FF0EAFA7B4B187809F0F8FE062815D1784B187979
:401C400009F0F2FE06280BD101204A2107F04CF84FF42F700FF0D6FA00226C4B1A7028E10120FEF7AFFD24E10120FEF7ABFD20E10120372107F038F86A4B5B78012B45D19D
:401C80000022694B1A600AE0684A1344012093F82C1006F0ADFC644A136801331360624B1B68102BF0D901200A2106F0A1FC01200A2106F09DFC01200A2106F099FC0120A4
:401CC0000A2106F095FC0022574B1A600AE0574A1344022093F82C1006F08AFC524A136801331360504B1B68102BF0D902200A2106F07EFC02200A2106F07AFC02200A210A
:401D000006F076FC02200A2106F072FC454B5B78022B45D10022444B1A600AE0434A1344032093F82C1006F063FC3F4A1368013313603D4B1B68102BF0D903200A2106F0AE
:401D400057FC03200A2106F053FC03200A2106F04FFC03200A2106F04BFC0022324B1A600AE0324A1344042093F82C1006F040FC2D4A1368013313602B4B1B68102BF0D9DA
:401D800004200A2106F034FC04200A2106F030FC04200A2106F02CFC04200A2106F028FC01206B2106F0A0FF2522184B1A7080E0012006F041FC012868D133200EF002FD8B
:401DC0000120332106F07AFC002872D00022184B1A600AE0012006F0DBFC164B1C4484F82900134A136801331360114B1C68072CF0D90023104A13700D4A13602BE000BF6C
:401E00003D85FF1FCF88FF1F2487FF1F6A83FF1F3C85FF1F0E88FF1F6D83FF1FC08AFF1F6083FF1F7C86FF1F7C83FF1F0C81FF1F4085FF1F8486FF1F2585FF1FA14CA24ADB
:401E40001344207893F8291006F03EFF20709F4A1368013313609D4B1B68062BEED99A4B93F83020974B1B789A420BD101204B2106F03AFF4FF47A700FF0C4F90022944BEB
:401E80001A7016E00120FEF79DFC12E00120FEF799FC0EE00120002106F026FF00228C4B1A7006E00120702106F01EFF0E22884B1A7064200FF0A6F90EF066FC38BD0EF0DB
:401EC00039FC082842F00984824B1B78DBB2AA2B40F03B817F4B9B79DBB2C32B40F035817C4BDB79DBB23C2B40F02F817A4B1B78042B00F2B180DFE803F0032C52AF8A00C4
:401F0000744AD278D2B2012A0FD80133DAB2724B1A70704CE17830310120C9B206F01AFFE3781B016D4A82F8A1306A4BDB78DBB20A2B40F09180684B1A780132D2B21A70D1
:401F40000021664B83F8A1100120302106F002FF82E0604AD278D2B2092A11D80133DAB25D4B1A705B4CE17830310120C9B206F0F1FEE178594A92F8A1300B4382F8A13040
:401F8000544BDB78DBB20A2B66D1534B1A780132D2B21A700120302106F0DCFE5CE04D4AD278D2B2052A17D80133DAB24A4C227001203A2106F0CEFE22780132D2B22270BB
:401FC000444CE17830310120C9B206F0C3FEE3781B01424A82F8A0303E4BDB78DBB20A2B3AD13D4C22780132D2B2227001203A2106F0B0FE22780132D2B22270012030216D
:4020000006F0A8FE0022354B83F8A02024E0314AD278D2B2092A11D80133DAB22E4B1A702C4CE17830310120C9B206F093FEE1782A4A92F8A0300B4382F8A030254BDB7824
:40204000DBB20A2B08D1244B1A780132D2B21A700120302106F07EFE1E4BDB78DBB2402B17D11F4B1B783BB901201D4B18707021062206F06FFE07E00022194B1A700120CD
:402080006121062206F066FE01206D21072206F061FE104BDB78DBB20B2B2DD10E4B1A7812BB0E220A4B1A700E4B1B78012B04D101205D2106F018FE1EE00120702106F07B
:4020C00013FE19E02585FF1F8486FF1F4085FF1F6A83FF1FC08AFF1F3D85FF1F2487FF1F6B83FF1F1785FF1F0120202106F032FE9F4A1378013B13709E4BDB78DBB20C2B66
:4021000023D19B4B1B78052B1FD19B4B1B7843F002029A4991F8A13043EA421381F8A13006F07EF9012810D10E22954B1A70954B1B78012B03D15D2106F0D6FD05E0022B7C
:4021400003D10120702106F0CFFD64200FF05AF80EF01AFB38BD0EF0EDFA082842F0BD82844B1B78DBB2AA2B40F07281814B9B79DBB2C32B40F06C817E4BDB79DBB23C2B44
:4021800040F066817A4B1A78072A00F22281DFE812F008003100580020019100B7002001FB00744BDB78DBB2032B0FD8714CE17830310120C9B206F0CDFD6D4A137801330F
:4021C0001370E3781B016D4A82F89D30694BDB78DBB20A2B40F0FD800022684B83F89D20634C01203021227806F0B4FD237801332370EEE05F4BDB78DBB2092B11D85D4C82
:40220000E17830310120C9B206F0A4FDE1785B4A92F89D300B4382F89D30554A137801331370544BDB78DBB20A2B40F0D280504C01203021227806F08DFD23780133237026
:40224000C7E04C4BDB78DBB2012B17D801202F2106F080FD464C22780132D2B22270454DE97830310120C9B206F074FDEB781B01424A82F89E302378013323703D4BDB78E5
:40228000DBB20A2B40F0A580394C01202F21227806F060FD22780132D2B222700120302106F058FD0022354B83F89E202378013323708EE02F4BDB78DBB2092B11D82D4CE9
:4022C000E17830310120C9B206F044FDE1782B4A92F89E300B4382F89E30254A137801331370244BDB78DBB20A2B72D1204C01203021227806F02EFD23780133237068E0DA
:402300001C4BDB78DBB2092B17D801202F2106F021FD174C22780132D2B22270154DE97830310120C9B206F015FDEB781B01134A82F89F302378013323700E4BDB78DBB2E0
:402340000A2B46D10A4C01202F21227806F002FD22780132D2B222700120302106F0FAFC0022064B83F89F2023780133237030E03D85FF1FC08AFF1F6B83FF1F2487FF1F3E
:402380006A83FF1F1785FF1FA34BDB78DBB2092B11D8A14CE17830310120C9B206F0DAFCE1789E4A92F89F300B4382F89F309C4A137801331370984BDB78DBB20A2B08D134
:4023C000974C01203021227806F0C4FC237801332370914BDB78DBB20B2B1BD1904B1B7883B90E228F4B1A708F4B1B78012B04D101205D2106F078FC0CE00120702106F0AF
:4024000073FC07E0013BDAB2854B1A700120202106F0A0FC804BDB78DBB20C2B18D1804B1B78082B14D106F029F8012810D10E227C4B1A707C4B1B78012B03D15D2106F07F
:4024400053FC05E0022B03D10120702106F04CFC64200EF0D7FE0EF097F938BD0EF06AF9082842F03A816C4B1B78DBB2AA2B40F00E81694B9B79DBB2C32B40F00881664BC7
:40248000DB79DBB23C2B40F00281654B1B780C2B61D8614AD278D2B2092A1ED80133DAB25F4B1A70614B1B7813B1012B07D00DE0594BD978594B13443031997706E0564BFD
:4024C000D978564B1344303183F82F10524BD97830310120C9B207F065FA4F4BDB78DBB20A2B18D14E4B1A780132D2B21A704F4B1B7813B1012B05D009E0484B134430211D
:40250000997704E0454B1344302183F82F100120302107F047FA404BDB78DBB2512B1AD13F4B1B78BBB10133DAB23D4B1A703F4B1B7813B1012B05D009E0384B13442E21EA
:40254000997704E0354B13442E2183F82F1001202E2107F027FA304BDB78DBB20B2B49D12F4B1A78002A3DD10E222E4B1A702E4B1B78012B04D101205D2106F0B5FB03E0A8
:402580000120702106F0B0FB2F200C2105F0E6FF0022274B1A6008E0264AD15C1F4A1A4482F82F100133224A1360224B1A78204B1B689A42F0D220200F2105F0CFFF00226C
:4025C0001B4B1A6007E01B4AD15C144A1A4491770133174A1360174B1A78154B1B689A42F1D207E00120202107F0DCF90C4A1378013B1370084BDB78DBB20C2B47D10E22D9
:40260000084B1A70084B1B78012B15D101205D2106F06AFB14E000BFC08AFF1F2487FF1F3D85FF1F6A83FF1F1785FF1F8785FF1F7C83FF1F4485FF1F0120702106F054FB1D
:402640009A4B1B7813B1012B11D020E0984B1B78984901F81E3F202005F042FFB8B90120552106F041FB6422934B1A700FE0904B1B78904901F82F3F2F2005F031FF30B9CC
:402680000120552106F030FB64228B4B1A7064200EF0B8FD0EF078F838BD0EF04BF8082842F01B80854B1B78DBB2AA2B40F09483824B9B79DBB2C32B40F08E837F4BDB79DD
:4026C000DBB23C2B40F08883794B1B78172B00F257827A4AD278D2B2092A61D80133DAB2734B1A70714B1B78042B52D8DFE803F0031427394B00724B1978012904D16F4B16
:40270000DB7830336F488354002942D16B4BDB78303368498B543CE0694B1978012904D1664BDB78303368488354002931D1634BD978604B1344303183F8431029E0604BC0
:402740001978012904D15D4BDB7830335F488354F9B95A4BD978574B1344303183F8611017E0574B1978012904D1544BDB7830335748835469B9514BD9784E4B13443031AB
:4027800083F87F1005E04D4BD978524B13443031D9724A4BD97830310120C9B207F002F9464BDB78DBB20A2B2BD1414B1A780132D2B21A703D4B1B78042B1ED8DFE803F0D1
:4027C00003070D13190030213A4B995415E0394B1344302183F843100FE0364B1344302183F8611009E0334B1344302183F87F1003E0384B13443021D9720120302107F005
:40280000D1F82E4BDB78DBB2672B2BD1284B1A780132D2B21A70254B1B78042B1ED8DFE803F003070D1319002321224B995415E0204B1344232183F843100FE01D4B134468
:40284000232183F8611009E01A4B1344232183F87F1003E01F4B13442321D9720120232107F0A0F8154BDB78DBB26A2B42D1104B1A780132D2B21A700C4B1B78042B35D8D2
:40288000DFE803F003070D2A30002D21094B99542CE0084B13442D2183F8431026E0054B13442D2183F8611020E000BF8785FF1F3D85FF1F2487FF1F6A83FF1FC08AFF1FA0
:4028C0002688FF1F1885FF1F7083FF1FC488FF1F2885FF1F8486FF1F934B13442D2183F87F1003E0914B13442D21D97201202D2107F058F88E4BDB78DBB2662B2BD18D4BD3
:402900001A780132D2B21A708B4B1B78042B1ED8DFE803F003070D1319004021824B995415E0814B1344402183F843100FE07E4B1344402183F8611009E07B4B1344402114
:4029400083F87F1003E0794B13444021D9720120402107F027F8764BDB78DBB2692B2BD1744B1A780132D2B21A70734B1B78042B1ED8DFE803F003070D1319002E216A4BD1
:40298000995415E0684B13442E2183F843100FE0654B13442E2183F8611009E0624B13442E2183F87F1003E0604B13442E21D97201202E2106F0F6FF5D4BDB78DBB2682BA2
:4029C0004BD15C4B1A780132D2B21A705A4B1B78042B3ED8DFE803F0030F1D2B3900574B1B78012B02D12020554988548BBB20214D4B99542DE0514B1B78012B02D1202002
:402A0000504988542BBB484B1344202183F843101FE04A4B1B78012B02D120204A498854BBB9414B1344202183F8611011E0434B1B78012B02D12020444988544BB93A4BA6
:402A40001344202183F87F1003E0384B13442021D9720120202106F0A5FF354BDB78DBB21A2B40F28D80324BDB78DBB2422B00F287800022364B1A607DE02D4AD278D2B209
:402A800034491944097A8A4271D12A490A780132D2B20A7028490978042962D8DFE801F0031223335C0025490878012803D103F14101234CA154002853D103F141011A4844
:402AC00081544EE01D490878012803D103F141011C4CA154002844D11349114403F1410081F843003DE015490878012803D103F14101154CA154A0BB0B49114403F14100C1
:402B000081F861002DE00D490878012803D103F141010E4CA15420BB0349114403F1410081F87F001DE000BF2487FF1F8486FF1FC08AFF1F3D85FF1F8785FF1F2688FF1FC2
:402B40001885FF1F7083FF1FC488FF1F2885FF1F7C83FF1F0C81FF1FA249114403F14100C87203F141010120C9B206F01BFF9E4A1368013313609C4B1B68192B7FF67DAFA2
:402B80009A4BDB78DBB20B2B76D1994B1A78002A6AD10E22974B1A70974B1B78012B04D101205D2106F0A0F803E00120702106F09BF84020202105F0D1FC00228A4B1A60C7
:402BC00008E08E4AD15C8E4A1A4482F843100133854A1360894B1A78834B1B689A42F0D28020202105F0BAFC00227F4B1A6008E0824AD15C824A1A4482F8611001337A4A3A
:402C000013607E4B1A78784B1B689A42F0D2A020202105F0A3FC0022734B1A6008E0774AD15C774A1A4482F87F1001336E4A1360724B1A786C4B1B689A42F0D2002020210E
:402C400005F08CFC0022684B1A6006E06B4AD15C6B4AD1540133644A1360684B1A78624B1B689A42F2D207E00120202106F09AFE5F4A1378013B13705C4BDB78DBB20C2BF4
:402C800040F0AA800E225B4B1A705B4B1B78012B04D101205D2106F027F803E00120702106F022F8574B1B78042B00F29580DFE803F0032446688800534B1B78012B07D110
:402CC00052494B4B1B780B7040F26A4005F008FC4D4B1B78002B7FD14949454B1B780B70002005F0FDFB002876D10120552105F0FBFF64223F4B1A706EE0434B1B78012BB3
:402D000007D143493A4B1B780B7040F2754005F0E7FB3D4B1B78002B5ED1354B1B78384901F8433F402005F0DBFB002854D10120552105F0D9FF64222E4B1A704CE0324B4C
:402D40001B78012B07D13349294B1B780B704FF4906005F0C5FB2C4B1B78002B3CD1244B1B78274901F8613F802005F0B9FB002832D10120552105F0B7FF64221D4B1A705B
:402D80002AE0214B1B78012B07D12349184B1B780B7040F28B4005F0A3FB1B4B1B78DBB9134B1B78164901F87F3FA02005F098FB90B90120552105F097FF64220D4B1A70EA
:402DC0000AE00B4B1A78074BDA720120392105F08BFF2422074B1A7064200EF013FA0DF0D3FC38BD8486FF1F7C83FF1FC08AFF1F3D85FF1F6A83FF1F1785FF1F4485FF1FBE
:402E00002487FF1F8785FF1F2688FF1F1885FF1F7083FF1FC488FF1F2885FF1F0DF08AFC082841F05A84B04B1B78DBB2AA2B30D1AD4B9B79DBB2C32B2BD1AB4BDB79DBB2C5
:402E40003C2B26D1A84BDB78DBB25F2B04D07E2B18D05E2B1DD10AE001200B2105F044FF0122A24B5A700A22A14B1A7011E001201D2105F039FF00229E4B1A700B229C4BAA
:402E80001A7006E00120002105F02EFF0022984B1A7046200EF0B6F90DF076FC38BD0DF049FC082841F019848F4B1B78DBB2AA2B40F0C6808C4B9B79DBB2C32B40F0C080DD
:402EC000894BDB79DBB23C2B40F0BA808A4B1B78062B25D8844AD278D2B2092A0FD80133DAB2854B1A708048C178844B13443031D972C17830310120C9B205F02BFF7A4BF9
:402F0000DB78DBB20A2B0BD17B4B1A780132D2B21A707A4B13443021D972012005F01AFF714BDB78DBB20B2B24D1734B1A7882B90E226F4B1A70724B1B78012B04D10120E8
:402F40005D2105F0D1FE15E00120702105F0CCFE10E00120202105F0FDFE674B1B78674A1A44D27A2C2A02D10021664A1170013B614A13705C4BDB78DBB20C2B60D15E4B4A
:402F80001B78032B5CD90622594B1A700120392105F0AAFE584B1A78584BDA725A4B18780CF03AFA002848D0584B93F8A320584B1B789A4204D140F2B310564905F090FAF9
:402FC000524B93F8A320544B1B789A4204D140F2A710504905F084FA4C4B93F8A3204F4B1B789A4204D140F2AD104A4905F078FA464B93F8A3204A4B1B789A4204D14FF467
:403000007A70444905F06CFA01203C2105F06CFE4FF4FA700EF0F6F80E22354B1A70384B1B78012B04D101205D2105F05DFE07E00120702105F058FE02E00120FDF7C2FB70
:4030400064200EF0DFF80DF09FFB38BD0DF072FB082841F04283244B1B78DBB2AA2B78D1214B9B79DBB2C32B73D11F4BDB79DBB23C2B6ED11C4BDB787E3B042B69D8DFE854
:4030800003F06103275159000120582105F02CFE01200021732240F2C31306F081F801200021CF2240F2C51306F07AF801200146292240F2C11306F073F8012001467B221D
:4030C00040F2EE3306F06CF81C22094B1A7040E00120062105F008FE0022074B1A701D22034B1A7035E000BFC08AFF1F6883FF1F6A83FF1F2385FF1F3D85FF1F8486FF1F71
:403100001785FF1F6B83FF1F6083FF1F2487FF1FCF88FF1F8F86FF1F0E88FF1F3C85FF1F6D83FF1F01206D2105F0DEFD1E22A74B1A700EE001208A2105F0D6FD2A22A34BBF
:403140001A7006E00120002105F0CEFD00229F4B1A7064200EF056F80DF016FB38BD0DF0E9FA082841F0B982994B1B78DBB2AA2B56D1974B9B79DBB2C32B51D1944BDB7932
:40318000DBB23C2B4CD1924BDB787E3B042B47D8DFE803F03F03122130000120062105F0A3FD00228B4B1A7001228B4B83F8A3201F22864B1A7033E00120062105F094FD55
:4031C0000022844B1A700222834B83F8A3201F227E4B1A7024E00120062105F085FD00227C4B1A7003227C4B83F8A3201F22774B1A7015E00120062105F076FD0022754B1C
:403200001A700422744B83F8A3201F226F4B1A7006E00120002105F067FD00226B4B1A7064200DF0EFFF0DF0AFFA38BD0DF082FA082841F05282664B1B78DBB2AA2B40F0EB
:40324000BE80634B9B79DBB2C32B40F0B880604BDB79DBB23C2B40F0B2805E4B1B78042B36D85B4AD278D2B2092A0FD80133DAB2584B1A705648C178584B13443031D972A6
:40328000C17830310120C9B205F064FD504BDB78DBB20A2B0BD14F4B1A780132D2B21A704E4B13443021D972012005F053FD484BDB78DBB2512B0BD1464B1A780132D2B2F2
:4032C0001A70464B13442C21D972012005F042FD3F4BDB78DBB20B2B24D13E4B1A7882B90E223A4B1A703E4B1B78012B04D101205D2105F0F9FC15E00120702105F0F4FC13
:4033000010E00120202105F025FD324B1B78334A1A44D27A2C2A02D10021324A1170013B2C4A13702A4BDB78DBB20C2B47D1294B1B78052B43D1294B1B7B353BDBB2022B4E
:403340003DD80120392105F0CFFC224B1B78234901F80B3F4FF4DD7005F0C2F8012805D11E4B1B7B03F00F031F4A137040F25A201E4905F0B5F8012821D1184A937B03F0ED
:403380000F031B490B70137C03F00F03194A13703C2105F0A9FC4FF4FA700DF033FF0E220A4B1A700E4B1B78012B04D101205D2105F09AFC03E00120702105F095FC64200A
:4033C0000DF020FF0DF0E0F938BD00BF6A83FF1FC08AFF1F3D85FF1F2487FF1F8486FF1F1785FF1F6B83FF1F2485FF1F8F86FF1F6E83FF1F0F88FF1F0DF09CF9082841F06C
:403400006C81A04B1B78DBB2AA2B71D19D4B9B79DBB2C32B6CD19B4BDB79DBB23C2B67D1984BDB78DBB28F2B04D0902B2ED07E2B5ED156E09449002381F82D3081F82E309E
:403440004FF4DE702D3105F04BF801281AD100228E4B1A703C2105F047FC4FF4FA700DF0D1FE8B4B1B78012B04D101205D2105F03BFC03E00120702105F036FC0E22854B8D
:403480001A7035E00120FDF79DF931E07E49012381F82D3081F82E304FF4DE702D3105F01FF8012819D1794B18703C2105F01CFC4FF4FA700DF0A6FE754B1B78012B04D1B3
:4034C00001205D2105F010FC03E00120702105F00BFC0E226F4B1A700AE00220FDF772F906E00120702105F0FFFB0E22694B1A7064200DF087FE0DF047F938BD0DF01AF97F
:40350000082841F0EA805F4B1B78DBB2AA2B40F0B3805C4B9B79DBB2C32B40F0AD80594BDB79DBB23C2B40F0A7805B4B1B782BBB544AD278D2B2092A0FD80133DAB2564BE2
:403540001A705048C178554B13443031D972C17830310120C9B205F0FDFB4A4BDB78DBB20A2B0BD14C4B1A780132D2B21A704B4B13443021D972012005F0ECFB414BDB78D5
:40358000DBB20B2B1BD1444B1A783AB90120002105F0AAFB00223F4B1A7010E00120202105F0D8FB3C4B1B783C4A1A44D27A2C2A02D100213A4A1170013B374A1370314BC7
:4035C000DB78DBB20C2B57D1334B1B78012B53D10120392105F088FB2F4B1A782F4BDA72294B93F8A330012B08D12C490A7B2D4B1A7040F2C1100B3104F072FF224B93F8F7
:40360000A330022B08D125490A7B274B1A7040F2C3100B3104F064FF1B4B93F8A330032B08D11E490A7B214B1A7040F2C5100B3104F056FF144B93F8A330042B08D11749CC
:403640000A7B1B4B1A7040F2EE300B3104F048FF4FF4FA700DF0D6FD0E220E4B1A700C4B1B78012B04D101205D2105F03DFB03E00120702105F038FB64200DF0C3FD0DF0CC
:4036800083F838BDC08AFF1F2487FF1F9285FF1F1785FF1F6A83FF1F3D85FF1F8486FF1F6B83FF1F0E88FF1FCF88FF1F3C85FF1F6D83FF1F0DF03EF8082841F00E80C14B17
:4036C0001B78DBB2AA2B40F09E82BE4B9B79DBB2C32B40F09882BB4BDB79DBB23C2B40F09282B84BDB787E3B252B00F28C82DFE813F069028A028A028A028A028A0226009B
:40370000FE004A0021016E009200DA00B6008A028A028A028A028A028A028A028A0247028A028A022402450171018A028A028A028A028A028A029501B901DD010102A2498C
:4037400001230B7000234B7040F2C71004F0C8FE012840F058823C2105F0C6FA4FF4FA700DF050FD0E22994B1A70994B1B78012B04D101205D2105F0B7FA44E2012070219A
:4037800005F0B2FA3FE2904901230B700B234B7040F2C71004F0A4FE012840F034823C2105F0A2FA4FF4FA700DF02CFD0E22874B1A70874B1B78012B04D101205D2105F0F1
:4037C00093FA20E20120702105F08EFA1BE27E4901230B7004234B7040F2C71004F080FE012840F010823C2105F07EFA4FF4FA700DF008FD0E22754B1A70754B1B78012BEE
:4038000004D101205D2105F06FFAFCE10120702105F06AFAF7E16C4901230B700C234B7040F2C71004F05CFE012840F0EC813C2105F05AFA4FF4FA700DF0E4FC0E22634B8D
:403840001A70634B1B78012B04D101205D2105F04BFAD8E10120702105F046FAD3E15A4901230B7009234B7040F2C71004F038FE012840F0C8813C2105F036FA4FF4FA7022
:403880000DF0C0FC0E22514B1A70514B1B78012B04D101205D2105F027FAB4E10120702105F022FAAFE1484901230B7008234B7040F2C71004F014FE012840F0A4813C212C
:4038C00005F012FA4FF4FA700DF09CFC0E223F4B1A703F4B1B78012B04D101205D2105F003FA90E10120702105F0FEF98BE1364901230B704B7040F2C71004F0F1FD01282A
:4039000040F081813C2105F0EFF94FF4FA700DF079FC0E222D4B1A702D4B1B78012B04D101205D2105F0E0F96DE10120702105F0DBF968E1244901230B7006234B7040F21D
:40394000C71004F0CDFD012840F05D813C2105F0CBF94FF4FA700DF055FC0E221B4B1A701B4B1B78012B04D101205D2105F0BCF949E10120702105F0B7F944E112490123E2
:403980000B700E234B7040F2C71004F0A9FD012840F039813C2105F0A7F94FF4FA700DF031FC0E22094B1A70094B1B78012B04D101205D2105F098F925E10120702105F059
:4039C00093F920E1C08AFF1F3885FF1F6A83FF1F1785FF1FC04901230B700D234B7040F2C71004F07DFD012840F00D813C2105F07BF94FF4FA700DF005FC0E22B74B1A7014
:403A0000B74B1B78012B04D101205D2105F06CF9F9E00120702105F067F9F4E0AE4901230B7003234B7040F2C71004F059FD012840F0E9803C2105F057F94FF4FA700DF06B
:403A4000E1FB0E22A54B1A70A54B1B78012B04D101205D2105F048F9D5E00120702105F043F9D0E09C4901230B7005234B7040F2C71004F035FD012840F0C5803C2105F099
:403A800033F94FF4FA700DF0BDFB0E22934B1A70934B1B78012B04D101205D2105F024F9B1E00120702105F01FF9ACE08A4901230B7007234B7040F2C71004F011FD012856
:403AC00040F0A1803C2105F00FF94FF4FA700DF099FB0E22814B1A70814B1B78012B04D101205D2105F000F98DE00120702105F0FBF888E0784901230B700A234B7040F281
:403B0000C71004F0EDFC01287DD13C2105F0ECF84FF4FA700DF076FB0E22704B1A70704B1B78012B04D101205D2105F0DDF86AE00120702105F0D8F865E0674901230B7087
:403B400002234B7040F2C71004F0CAFC01285AD13C2105F0C9F84FF4FA700DF053FB0E225E4B1A705E4B1B78012B04D101205D2105F0BAF847E00120702105F0B5F842E0C0
:403B8000554900230B704B7040F2C71004F0A8FC012838D13C2105F0A7F84FF4FA700DF031FB0E224D4B1A704D4B1B78012B04D101205D2105F098F825E00120702105F026
:403BC00093F820E0444900230B704B7040F2C71004F086FC01280FD10E22404B1A70404B1B78012B03D15D2105F07EF80BE00120702105F079F806E00120002105F074F8F4
:403C00000022364B1A7064200DF0FCFA0CF0BCFD38BD0CF08FFD08284ED1324B1B78DBB2AA2B44D12F4B9B79DBB2C32B3FD12D4BDB79DBB23C2B3AD12A4BDB78DBB20A2B6A
:403C400029D10122284B1A6010E0284B5878284B19780122274B1B7806F0EEFA4FF4FA700DF0D0FA204A136801331360224B1B7803F00F031C4A12689342E6D201200C213D
:403C800005F032F81D480CF09FFF0CF06FFF6422124B1A700BE001200C2105F025F864220E4B1A7015480CF08FFF0CF05FFF64200DF0A8FA0CF068FD114B1B78132B40F237
:403CC0000C8501200C2105F00FF86422034B1A7000220B4B1A7038BD3885FF1F6A83FF1F1785FF1FC08AFF1F4085FF1F8086FF1F2788FF1F6083FF1FC088FF1F85000000CC
:403D00008685FF1F0CF016FD082840F0E684B04B1B78DBB2AA2B5ED1AD4B9B79DBB2C32B59D1AB4BDB79DBB23C2B54D1A84BDB78DBB2392B0FD002D8382B05D04BE07E2B52
:403D400042D0942B35D046E00021A24B1970012004F0CAFF3FE09F4D00232B7001203B2104F0C2FF9C4C607807F072FA60780A2104F03EFC60780A2104F03AFC60780A2153
:403D800004F036FC60781D2104F032FC6078562104F02EFC6078312104F02AFC64232B7001228E4B1A708E480CF00EFF0CF0DEFE11E001202F2104F097FF0022894B1A7029
:403DC0002822844B1A7006E00120002104F08CFF0022804B1A7064200DF014FA0CF0D4FC38BD0CF0A7FC082840F07784784B1B78DBB2AA2B48D1764B9B79DBB2C32B43D183
:403E0000734BDB79DBB23C2B3ED1714BDB78DBB2912B08D002D87E2B27D035E0922B13D0942B2AD030E001200A2104F05DFF01226D4B1A7004226D4B1A700022694B1A707C
:403E40001822644B1A701FE001206F2104F04CFF2122654B1A700422644B1A700022614B1A7018225B4B1A700EE00120002104F03BFF0022574B1A7006E00120702104F00A
:403E800033FF0E22534B1A7064200DF0BBF90CF07BFC38BD564B012013F80B1F524A127804F08CFD012820D16E2104F01DFF2322484B1A700120014604F0A6FC052810D912
:403EC0000A200DF09FF9012005F0E8FC0120212104F09AFC052840F20084012005F05CFC38BD0120FCF76EFC38BD0120FCF76AFC38BD0CF01FFC082840F0EF83344B1B78F9
:403F0000DBB2AA2B40F09580314B9B79DBB2C32B40F08F802E4BDB79DBB23C2B40F089802B4BDB78DBB2392B04D07E2B47D0382B7FD13CE02F4B5A78012A07D12649012397
:403F40000B704B702C490B7002234B70022A08D1214B01221A7003215970274B1A7004225A7040F263201C4904F0BAFA012860D140F26520204904F0B3FA012859D168218B
:403F800004F0B2FE4FF4FA700DF03CF90E22114B1A701A4B1B78012B04D101205D2104F0A3FE46E00120702104F09EFE41E02622084B1A700120672104F096FE39E0104BE8
:403FC0005B78012B1ED100220D4B5A701DE000BFC08AFF1F6A83FF1F8086FF1F8685FF1F850000003D85FF1F8885FF1F8785FF1F8486FF1F7C86FF1F2087FF1F1785FF1F92
:404000006883FF1F0122B54B5A7040F2DA30B34904F066FA01203C2104F066FE4FF4FA700DF0F0F80120002104F05EFE0022AC4B1A7064200DF0E6F80CF0A6FB38BD0CF074
:4040400079FB082840F04983A64B1B78DBB2AA2B40F0C880A34B9B79DBB2C32B40F0C280A04BDB79DBB23C2B40F0BC809D4BDB78DBB28C2B09D003D87E2B00F0AC80B1E02B
:404080008D2B40D08E2B79D0ACE0974B5B78012B07D1964A0120107002215170944A10705170022B07D1914B0121197004225A708F4B19705A7040F263208C4904F010FA3C
:4040C000012840F08F8040F26520894904F008FA012840F087806A2104F006FE4FF4FA700DF090F80E227E4B1A70824B1B78012B04D101205D2104F0F7FD73E00120702154
:4041000004F0F2FD6EE0784B5A78012A06D1774901230B704B7076490B704B70022A07D1724B0121197003225A70714B19705A7040F263206D4904F0D3F9012852D140F295
:4041400065206B4904F0CCF901284BD1692104F0CBFD4FF4FA700DF055F8664B1B78012B04D101205D2104F0BFFD03E00120702104F0BAFD0E225A4B1A7033E05B490120C0
:40418000087000224A705A4B18705A7040F2632004F0A6F9012825D140F26520544904F09FF901281ED16C2104F09EFD4FF4FA700DF028F80E224A4B1A704E4B1B78012BC8
:4041C00004D101205D2104F08FFD0BE00120702104F08AFD06E00120002104F085FD00223F4B1A7064200DF00DF80CF0CDFA38BD0CF0A0FA082840F070823A4B1B78DBB214
:40420000AA2B40F0F180374B9B79DBB2C32B40F0EB80344BDB79DBB23C2B40F0E580364B1A78032A26D82F4BDB78DBB2092B0ED82C4BD978314B1344303183F88E10012018
:404240002A2104F087FD2C4A137801331370254BDB78DBB20A2B0DD1274C2278274B1344302183F88E1001202A2104F073FD2378013323701B4BDB78DBB20B2B0ED11E4B2A
:404280001B781BB90120FCF79DFA07E0013BDAB2194B1A700120202104F05CFD114BDB78DBB20C2B40F0A080134B1A78002A00F08C80002312490B6012490B602BE0591C98
:4042C0001148405C0D4C234493F88E3098421DD10B480368013303601BE000BF6883FF1F6A83FF1FC08AFF1F7C86FF1F8086FF1F2087FF1F1785FF1F3D85FF1F8486FF1FA2
:404300009485FF1F7C83FF1F0C81FF1F0020AF4B1860AF4B19601046AD4B1B689A42CED8AC4B1A78A94B1B689A420FD10120262104F0DAFC4FF4FA700CF064FF2222A64BF7
:404340001A700120712104F0CFFC4DE000239F4A13609F4A136010E09E4A1A4492F824109E4A1A4492F88E20914203D197490A6801320A600133964A1360954B1B6898426D
:40438000EAD8924B1B68042B0FD10120262104F0ABFC4FF4FA700CF035FF22228E4B1A700120712104F0A0FC1EE00120272104F09BFC6422884B1A700122894B1A708948DB
:4043C0000CF002FC0CF0D2FB0EE00120272104F08BFC6422804B1A700122814B1A7081480CF0F2FB0CF0C2FB64200CF00BFF0CF0CBF938BD0CF09EF9082840F06E817A4B83
:404400001B78DBB2AA2B7AD1774B9B79DBB2C32B75D1754BDB79DBB23C2B70D1734B1A78032A27D8704BDB78DBB2092B10D86E48C1786A4B1344303183F88E10C17830311A
:404440000120C9B204F086FC684A137801331370654BDB78DBB20A2B0CD1644C22785F4B1344302183F88E10012004F073FC2378013323705C4BDB78DBB20B2B0ED15B4BB7
:404480001B781BB90120FCF79DF907E0013BDAB2564B1A700120202104F05CFC524BDB78DBB20C2B2BD1514B1B78042B27D10120392104F019FC0023474A13704B4A127883
:4044C00044490A7042490B6008E0591C4348034493F88E003F4B58543D4B19603C4B1B689A42F2D840F29F203A4903F0F9FF30B90120552104F0F8FB6422374B1A706420B4
:404500000CF080FE0CF040F938BD0CF013F9082840F0E380344B1B78DBB2AA2B4FD1324B9B79DBB2C32B4AD12F4BDB79DBB23C2B45D12D4BDB78DBB2BC2B08D002D87E2BDF
:4045400036D03CE0BD2B12D0BE2B21D037E00120702104F0C9FB264901230B704B704FF47D7003F0BDFF0E221B4B1A7027E00120702104F0B9FB1E4901230B7002234B70E5
:404580004FF47D7003F0ACFF0E22134B1A7016E00120062104F0A8FB0122164B1A700023124A1370144A137005220B4B1A7006E00120702104F098FB0E22074B1A70642099
:4045C0000CF020FE0CF0E0F838BD00BF9485FF1F7C83FF1F0C81FF1F6A83FF1F8486FF1F8685FF1F85000000C08AFF1F3D85FF1F7C86FF1F7F86FF1F6B83FF1F0CF09AF814
:4046000008286AD1354B1B78DBB2AA2B60D1334B9B79DBB2C32B5BD1304BDB79DBB23C2B56D12E4BDB78763B0D2B51D8DFE803F007385050505050504950505017270120F7
:40464000302104F051FB0023254A1370254A13700122254B1A701822244B1A7038E00120302104F041FB01231D4A137000211D4A11701D4A137018221C4B1A7028E0012043
:40468000302104F031FB0222154B1A700022154B1A700122144B1A701822144B1A7017E00120302104F020FB03220D4B1A7000220C4B1A7001220C4B1A7018220B4B1A70A0
:4046C00006E001205F2104F00FFB1B22074B1A7064200CF097FD0CF057F838BDC08AFF1F8785FF1F3D85FF1F2688FF1F6A83FF1F38B5984B1B78642B03F21586DFE813F033
:4047000074008000131EA100000188013B02D902131E410331048A04F7047905AC05A006A3070A08A4083D09CF09470B960C1B0E390F1A125B124913AA132E14FE149C1567
:40474000601638199B19221A7B1AAB1A341B271C2A1DB51D131E131E131E131E131E131E131E131E131E131E131E131E131E131E131E131E131E131E131E131E131E131E47
:40478000131E131E131E131E131E131E131E131E131E131E131E131E131E131E131E131E131E131E131E131E131E131E131E131E131E131E131E131E131E131E131E131ED9
:4047C000131E131E131E131E6500634B1B78012B43F2A98500245F4B1C700CF0BDFA0CF01FFA5D4B1C7038BD5C480CF0A7FA0CF077FA0022584B1A700122564B1A7038BD35
:404800000CF086F8082843F08E850CF0ABF80CF0A3FA0CF005FA524B1B78022B04D10220632104F061FA03E00220452104F05CFA64200CF0E7FC0CF095F80322454B1A704E
:4048400038BD0CF065F8082843F06D85454B1B78DBB2AA2B4ED1434B9B79DBB2C32B49D1404BDB79DBB23C2B44D13E4BDB78DBB2592B2DD002D8452B1FD03BE05C2B02D03B
:404880007E2B30D036E00022374BDA70344B1B78012B06D10220052104F026FA04222D4B1A702F4B1B78022B24D10220492104F01BFA1922274B1A701CE00220252104F05F
:4048C00013FA0022294B1A700F22224B1A7011E00220252104F008FA0022244B1A7027221C4B1A7006E00220002104F0FDF90022184B1A7064200CF085FC0CF033F838BD80
:404900000CF006F8082843F00E85164B1B78DBB2AA2B77D1134B9B79DBB2C32B72D1114BDB79DBB23C2B6DD10F4AD37823F00303D3700C4BDB78DBB23B2B4BD004D80F2B09
:4049400016D0102B28D05DE0432B3BD07E2B52D058E000BF3B85FF1F1585FF1FCD0000001785FF1FD48AFF1F2888FF1F1D87FF1F0220062104F0B8F90022A74B1A700220CF
:40498000242104F0E7F9A54AD37843F00203D3700522A34B1A7035E002200D2104F0A4F900229D4B1A709F4B1A700220472104F0D1F99A4AD37843F00103D3700522984B91
:4049C0001A701FE00220072104F08EF90622944B1A7017E0944B1B78022B04D10220632104F082F903E00220452104F07DF903228B4B1A7006E00220002104F075F9002251
:404A0000874B1A7064200CF0FDFB0BF0ABFF38BD0BF07EFF082843F08684844B1B78DBB2AA2B40F0A280814B9B79DBB2C32B40F09C807E4BDB79DBB23C2B40F09680764B4E
:404A40001B787B4A1278013A93423EDC774AD278D2B2092A0FD80133DAB26F4B1A707348C1786E4B13443031D972C17830310220C9B204F06FF96D4BDB78DBB20A2B0BD191
:404A8000654B1A780132D2B21A70644B13443021D972022004F05EF9644BDB78DBB2512B13D15D4B1B7883B15E4A12786AB90133DAB2594B1A70594B13442C21D97202200E
:404AC00004F048F90122574B1A70584BDB78DBB20B2B1BD1504B1A783AB90220052104F003F904224E4B1A7010E00220202104F031F9494B1B78494A1A44D27A2C2A02D1EE
:404B00000021484A1170013B434A1370474BDB78DBB20C2B29D1404B1B786BB1454B1B7853B90220072104F0DFF83B4B1A783B4BDA7206223A4B1A70374B1B78ABB13D4BBA
:404B40001B78012B11D10220702104F0CDF8334B1B7B39490B7040F2964003F0C1FC0022344B1A700E222E4B1A7064200CF04AFB0BF0F8FE38BD64200CF044FB0BF0C8FED6
:404B8000082820D1294B1B78DBB2AA2B15D1274B9B79DBB2C32B10D1244BDB79DBB23C2B0BD1224BDB78DBB27E2B06D10220002104F09AF800221A4B1A7064200CF022FBCC
:404BC0000BF0D0FE38BD1D4B187906F02DFF072843F0A98332200CF015FB184B187906F037FF174B187032200CF00CFB0B4BDB7813F0030328D0114A1079114A1178114AC4
:404C00000AF0C8F900BB0220002104F06DF80022034B1A7038BD00BF1D87FF1F2888FF1F3B85FF1F3E85FF1F1785FF1FD48AFF1F2485FF1F7F86FF1FC088FF1F6083FF1FDE
:404C40008286FF1F3388FF1F01200CF083FA9A4B187906F0FDFE994B1870002803F06383974B1B7803F00F03834211D0954B1B7803F00F0398420BD0934B1B7803F00F0304
:404C8000984205D0914B1B7803F00F03984202D102200AF0FFFD884B187940F010000BF0E7F80220082104F01FF80722884B1A7038BD32200CF0A6FA7F4B187906F0B4FECC
:404CC0000A282FD00B2803D0062843F02C8350E064200CF097FA784B187906F02DFF01280CD17C4B1B784BB90220392103F0FCFF14200CF087FA0D22754B1A706E4B187974
:404D000006F01AFF012843F00E83724B1B78012B43F0098302200C2103F0E6FF00226C4B1A7038BD644B187906F006FF01280CD1684B1B784BB90220392103F0D5FF1420BB
:404D40000CF060FA0D22624B1A705B4B187906F0F3FE012843F0E7825E4B1B78012B43F0E28202200C2103F0BFFF0022584B1A7038BD0220002103F0B7FF0022544B1A701A
:404D800038BD0BF0C5FD082840F0D680524B1B78DBB2AA2B40F0CB804F4B9B79DBB2C32B40F0C5804C4BDB79DBB23C2B40F0BF8000224A4B1A704A4B1B78062B65D8464A2B
:404DC000D278D2B2092A10D80133DAB2444B1A704148C178434B1344303183F86510C17830310220C9B203F0B5FF3B4BDB78DBB20A2B0CD13A4B1A780132D2B21A70394BC7
:404E00001344302183F86510022003F0A3FF324BDB78DBB26A2B0CD1314B1A780132D2B21A70304B13442D2183F86510022003F091FF294BDB78DBB21A2B26D9264BDB78F4
:404E4000DBB2422B21D80022274B1A6019E0224AD278D2B225491944097A8A420DD120490A780132D2B20A704133D9B21D4B134483F86510022003F06DFF1B4A13680133A7
:404E80001360194B1B68192BE1D9134BDB78DBB20B2B35D1124B1A7852BB02200B2103F023FF104B002283F8652083F883200A22074B1A7024E000BF6083FF1F8286FF1F34
:404EC0000E88FF1FCF88FF1F3C85FF1F6D83FF1F3B85FF1F6C83FF1FD48AFF1F1585FF1F1D87FF1F2888FF1F7C83FF1F0C81FF1F0220202103F02EFFA44A1378013B13706A
:404F0000A34BDB78DBB20C2B11D1A04B1B7873B10220052103F0E8FE9E4B9C4A127883F86520012283F8832004229B4B1A7064200CF068F90BF016FD984B1B781D2B43F2B5
:404F4000F28102200B2103F0CFFE924A002382F8653082F88330914A13700A228E4B1A7038BD0BF0D5FC082844D1894B1B78DBB2AA2B3AD1864B9B79DBB2C32B35D1844B79
:404F8000DB79DBB23C2B30D1814BDB78DBB2382B18D0392B29D100227C4B1A707D4BDB7813F0040F0AD102200A2103F09DFE00227B4B1A700922784B1A7016E00D22764B29
:404FC0001A7012E00220052103F08EFE714BDB7813F0040F03D10122714B1A7002E000226F4B1A7004226C4B1A7064200CF00AF90BF0B8FC694B1B781D2B43F29481022030
:405000000C2103F071FE0122644B1A706422624B1A7038BD0220012103F0F6FB052840D90A200CF0EFF80220212103F0EDFB052837D9022003F000FB012832D133200BF052
:40504000AFFC0220332103F039FB50B30022554B1A600AE0022003F09BFB4E4B1C4484F82900504A1368013313604E4B1C68072CF0D90220132103F037FE464CE37843F003
:405080000403E3704FF4FA700CF0BCF802200E2103F02AFE00233D4A137023710C223E4B1A700BF035FC082843F03D81384B1B78DBB2AA2B15D1364B9B79DBB2C32B10D12F
:4050C000334BDB79DBB23C2B0BD1314BDB78DBB23B2B06D10220632103F006FE03222E4B1A7064200CF08EF80BF03CFC38BD0BF00FFC082843F01781254B1B78DBB2AA2B1C
:4051000071D1234B9B79DBB2C32B6CD1204BDB79DBB23C2B67D11D4B1B78052B25D81C4AD278D2B2092A0FD80133DAB2174B1A701748C178174B134430311971C178303110
:405140000220C9B203F006FE114BDB78DBB20A2B0BD10E4B1A780132D2B21A700D4B134430211971022003F0F5FD094BDB78DBB20B2B21D1054B1A78B2B90220052103F0AD
:40518000B3FD0422044B1A7016E000BF1D87FF1FD48AFF1F2888FF1F3B85FF1F1585FF1F6C83FF1F4085FF1F0220202103F0D2FD984A1378013B1370974BDB78DBB20C2BAF
:4051C00011D1944B1B7873B1944B5B79302B0AD00220052103F088FD8E4B1A788F4B1A7104228F4B1A7064200CF00CF80BF0BAFB38BD8C4B58788C4B197800228B4B1B7971
:4052000005F01AF88A4B1B78012B02D0894B5B787BB902200C2103F067FD0122864B1A7086480BF08BFD0BF05BFD64227C4B1A7038BD0220312103F057FD0022754B1A706B
:4052400001227D4B1A707D480BF078FD0BF048FD2122734B1A7038BD0BF05AFB082843F062806D4B1B78DBB2AA2B40F0CC806A4B9B79DBB2C32B40F0C680674BDB79DBB2B9
:405280003C2B40F0C080644BDB78DBB2652B00F086800AD85A2B52D002D8582B12D0B2E05B2B66D05D2B26D0ADE07E2B00F0A48003D8702B00F09880A5E0932B77D0962B5B
:4052C00062D0A0E00022534B1A7002203E2103F00BFD03F045F8012802D1022003F0BAFD03F06EF8012802D1022003F011FE10224B4B1A7087E002205C2103F0F5FC022067
:405300000021892240F2B31303F0E8FE02200021D62240F2AD1303F0E1FE02200121242240F2A71303F0DAFE0220012178224FF47A7303F0D3FE1322394B1A7063E0022016
:40534000602103F0D1FC022003F046FE022003F085FF022004F014F9022004F097F9022004F002F8022004F085F812222C4B1A7049E002202F2103F0B7FC0022254B1A70FC
:405380001122274B1A703EE002205F2103F0ACFC0022204B1A701B22214B1A7033E002204D2103F0A1FC14221D4B1A702BE002206E2103F099FC0220012103F025FA0528F7
:4053C0000ED90A200BF01EFF022004F067FA0220212103F019FA052802D9022004F0DCF923220F4B1A700EE00220892103F07CFC29220B4B1A7006E00220002103F074FCAB
:405400000022074B1A7064200BF0FCFE0BF0AAFA38BD00BF1D87FF1FD48AFF1F2888FF1F3B85FF1F2087FF1F8286FF1F6083FF1F1785FF1F2488FF1F1585FF1FCD000000C3
:405440000BF066FA082842F06E87A64B1B78DBB2AA2B40F0F280A34B9B79DBB2C32B40F0EC80A04BDB79DBB23C2B40F0E6809E4B1A78072A26D89B4BDB78DBB2092B0ED886
:40548000984BD978994B1344303183F88E1002202A2103F05FFC944A137801331370914BDB78DBB20A2B0DD18F4C22788F4B1344302183F88E1002202A2103F04BFC237807
:4054C00001332370874BDB78DBB20B2B0ED1864B1B781BB90220FBF775F907E0013BDAB2814B1A700220202103F034FC7D4BDB78DBB20C2B40F0A1807B4B1A78002A00F037
:405500008D8000237A490B607A490B6015E0581C7949014491F8D710744C234493F88E30303B994204D172490B6801330B6002E000216F4B19606F4B186010466D4B1B68AE
:405540009A42E4D86C4B93F8D720694B1B689A421AD10220262103F0C7FB4FF4FA700BF051FE0E22654B1A70654B1B78012B04D102205D2103F0B8FB5FE0022B5DD1022097
:40558000702103F0B1FB58E00023594A1360594A136010E05B4A1A4492F82410534A1A4492F88E20914203D151490A6801320A600133504A13604F4B1B689842EAD84C4B6F
:4055C0001B68082B1AD10220262103F08DFB4FF4FA700BF017FE0E22484B1A70484B1B78012B04D102205D2103F07EFB25E0022B23D10220702103F077FB1EE00220272143
:4056000003F072FB64223D4B1A7001223E4B1A703E480BF093FB0BF063FB0EE00220272103F062FB6422354B1A700122364B1A7036480BF083FB0BF053FB64200BF0E2FDD0
:405640000BF090F938BD0BF063F9082842F06B86244B1B78DBB2AA2B3ED1224B9B79DBB2C32B39D11F4BDB79DBB23C2B34D11D4BDB78DBB23F2B04D07E2B26D03E2B2BD14D
:4056800016E00220402103F02FFB0023164A13701F4A137002206121062203F05BFB02206D21072203F056FB1522144B1A7013E002203F2103F018FB00230B4A1370144A3C
:4056C000137016220D4B1A7006E00220702103F00BFB0E22094B1A7064200BF093FD0BF041F938BDD48AFF1F1D87FF1F2888FF1F9485FF1F7C83FF1F2487FF1F3B85FF1F2D
:405700001785FF1F0C81FF1F1585FF1FCD0000003E85FF1F0BF0FCF8082842F00486A64B1B78DBB2AA2B40F08980A34B9B79DBB2C32B40F08380A04BDB79DBB23C2B7DD173
:405740009D4BDB78DBB2942B06D10220702103F0CBFA0E22994B1A70994B1A78072A27D8954BDB78DBB2092B10D89348C178954B1344303183F88E10C17830310220C9B244
:4057800003F0E8FA8E4A1378013313708A4BDB78DBB20A2B0CD18A4C22788A4B1344302183F88E10022003F0D5FA237801332370814BDB78DBB20B2B0ED1814B1B781BB9F3
:4057C0000220FAF7FFFF07E0013BDAB27C4B1A700220202103F0BEFA774BDB78DBB20C2B2CD1774B1B78052B28D90220392103F07BFA734B1978744B83F8D7100022734BFA
:405800001A600BE0581C6F4A134493F88E206E4B0344303A83F8D7206C4B18606B4B1B689942EFD860206A4902F05AFE18B90220552103F059FA0022604B1A7064200BF05E
:40584000E1FC0BF08FF838BD0BF062F8082842F06A85594B1B78DBB2AA2B40F08880564B9B79DBB2C32B40F08280534BDB79DBB23C2B7CD1504BDB78DBB27A2B57D006D8A3
:40588000772B38D0782B44D0762B70D10AE0822B15D002D87E2B63D069E0832B1DD0952B52D064E00220302103F01EFA0023494A1370434A13701822404B1A7057E00220FA
:4058C000792103F011FA0222424B1A7000223C4B1A701822394B1A7049E002207A2103F003FA03223B4B1A700022354B1A701822324B1A703BE00220782103F0F5F9012208
:40590000344B1A7000222E4B1A7018222B4B1A702DE00220652103F0E7F901222D4B1A700022274B1A701722244B1A701FE00220322103F0D9F90023264A1370204A1370C6
:4059400017221E4B1A7012E0234B1B78022B0ED10220662103F0C8F92022184B1A7006E00220702103F0C0F90E22144B1A7064200BF048FC0AF0F6FF38BD0AF0C9FF082879
:4059800042F0D1840C4B1B78DBB2AA2B40F08180094B9B79DBB2C32B7BD1074BDB79DBB23C2B76D1044BDB787E3B042B71D8DFE803F069152A3F5400D48AFF1F3B85FF1FB1
:4059C0001D87FF1F2888FF1F2487FF1F7C83FF1FFB87FF1F8585FF1F1785FF1FBC4C00232370BC4B1A78BC4B83F8A3200220062103F07AF902202421227803F0ABF91A2290
:405A0000B64B1A7045E0B24C00232370B44B1A78B14B83F8A3200220062103F065F902202421227803F096F91A22AC4B1A7030E0A74C00232370AB4B1A78A74B83F8A320EC
:405A40000220062103F050F902202421227803F081F91A22A14B1A701BE09D4C00232370A14B1A789C4B83F8A3200220062103F03BF902202421227803F06CF91A22974B5D
:405A80001A7006E00220002103F02EF90022934B1A7064200BF0B6FB0AF064FF38BD0AF037FF082842F03F84904B1B78DBB2AA2B40F067818D4B9B79DBB2C32B40F0618157
:405AC0008A4BDB79DBB23C2B40F05B81874BDB78DBB2642B00F0D48004D8622B09D0632B2ED04EE17E2B00F03D81942B00F0428147E10220392103F0F7F864200BF082FBB0
:405B00007B4B187905F090FF062815D1784B187905F08AFF06280BD102204A2103F0E4F84FF42F700BF06EFB00226C4B1A7028E10220FAF747FE24E10220FAF743FE20E1DA
:405B40000220372103F0D0F86A4B5B78012B45D10022694B1A600AE0684A1344012093F82C1002F045FD644A136801331360624B1B68102BF0D901200A2102F039FD01202E
:405B80000A2102F035FD01200A2102F031FD01200A2102F02DFD0022574B1A600AE0574A1344022093F82C1002F022FD524A136801331360504B1B68102BF0D902200A217B
:405BC00002F016FD02200A2102F012FD02200A2102F00EFD02200A2102F00AFD454B5B78022B45D10022444B1A600AE0434A1344032093F82C1002F0FBFC3F4A1368013318
:405C000013603D4B1B68102BF0D903200A2102F0EFFC03200A2102F0EBFC03200A2102F0E7FC03200A2102F0E3FC0022324B1A600AE0324A1344042093F82C1002F0D8FCC7
:405C40002D4A1368013313602B4B1B68102BF0D904200A2102F0CCFC04200A2102F0C8FC04200A2102F0C4FC04200A2102F0C0FC02206B2103F038F82522184B1A7080E01D
:405C8000022002F0D9FC012868D133200AF088FE0220332102F012FD002872D00022184B1A600AE0022002F073FD164B1C4484F82900134A136801331360114B1C68072C80
:405CC000F0D90023104A13700D4A13602BE000BF3D85FF1F7E86FF1F2487FF1F3B85FF1F8386FF1F1485FF1F1C87FF1FD48AFF1F6083FF1F7C86FF1F7C83FF1F0C81FF1F9A
:405D00004085FF1F2888FF1F2585FF1FA24CA34A1344207893F8291002F0D6FF2070A04A1368013313609E4B1B68062BEED99B4B93F83020984B1B789A420BD102204B2118
:405D400002F0D2FF4FF47A700BF05CFA0022954B1A7016E00220FAF735FD12E00220FAF731FD0EE00220002102F0BEFF00228D4B1A7006E00220702102F0B6FF0E22894B40
:405D80001A7064200BF03EFA0AF0ECFD38BD0AF0BFFD082842F0C782834B1B78DBB2AA2B40F03E81804B9B79DBB2C32B40F038817D4BDB79DBB23C2B40F032817B4B1B7828
:405DC000042B00F2B180DFE803F0032C52AF8A00754AD278D2B2012A0FD80133DAB2734B1A70714CE17830310220C9B202F0B2FFE3781B016E4A82F8A1306B4BDB78DBB26F
:405E00000A2B40F09180694B1A780132D2B21A700021674B83F8A1100220302102F09AFF82E0614AD278D2B2092A11D80133DAB25E4B1A705C4CE17830310220C9B202F08D
:405E400089FFE1785A4A92F8A1300B4382F8A130554BDB78DBB20A2B66D1544B1A780132D2B21A700220302102F074FF5CE04E4AD278D2B2052A17D80133DAB24B4C2270CA
:405E800002203A2102F066FF22780132D2B22270454CE17830310220C9B202F05BFFE3781B01434A82F8A0303F4BDB78DBB20A2B3AD13E4C22780132D2B2227002203A2115
:405EC00002F048FF22780132D2B222700220302102F040FF0022364B83F8A02024E0324AD278D2B2092A11D80133DAB22F4B1A702D4CE17830310220C9B202F02BFFE17891
:405F00002B4A92F8A0300B4382F8A030264BDB78DBB20A2B08D1254B1A780132D2B21A700220302102F016FF1F4BDB78DBB2402B18D1204B1B7843B901221E4B1A7002200E
:405F40007021062202F006FF07E00022194B1A7002206121062202F0FDFE02206D21072202F0F8FE104BDB78DBB20B2B2ED10F4B1A781ABB0E220B4B1A700F4B1B78012BA6
:405F800004D102205D2102F0AFFE1FE00220702102F0AAFE1AE000BF2585FF1F2888FF1F4085FF1F3B85FF1FD48AFF1F1D87FF1F2487FF1F3E85FF1F1785FF1F022020216C
:405FC00002F0C8FEA04A1378013B13709F4BDB78DBB20C2B24D19C4B1B78052B20D19C4B1B7843F002029B4991F8A13043EA421381F8A13002F014FA012811D10E22964B4D
:406000001A70964B1B78012B04D102205D2102F06BFE05E0022B03D10220702102F064FE64200BF0EFF80AF09DFC38BD0AF070FC082842F07881854B1B78DBB2AA2B40F0D5
:406040007481824B9B79DBB2C32B40F06E817F4BDB79DBB23C2B40F068817B4B1A78072A00F22381DFE812F008003100580021019100B7002101FC00744BDB78DBB2032BB7
:406080000FD8724CE17830310220C9B202F062FE6D4A137801331370E3781B016D4A82F89D306A4BDB78DBB20A2B40F0FE800022684B83F89D20644C02203021227802F0F0
:4060C00049FE237801332370EFE0604BDB78DBB2092B11D85D4CE17830310220C9B202F039FEE1785B4A92F89D300B4382F89D30554A137801331370544BDB78DBB20A2BD8
:4061000040F0D380504C02203021227802F022FE237801332370C8E04C4BDB78DBB2012B17D802202F2102F015FE474C22780132D2B22270454DE97830310220C9B202F0B5
:4061400009FEEB781B01434A82F89E302378013323703E4BDB78DBB20A2B40F0A6803A4C02202F21227802F0F5FD22780132D2B222700220302102F0EDFD0022354B83F8A9
:406180009E202378013323708FE0304BDB78DBB2092B11D82D4CE17830310220C9B202F0D9FDE1782B4A92F89E300B4382F89E30254A137801331370244BDB78DBB20A2B4F
:4061C00073D1214C02203021227802F0C3FD23780133237069E01D4BDB78DBB2092B17D802202F2102F0B6FD174C22780132D2B22270164DE97830310220C9B202F0AAFD61
:40620000EB781B01134A82F89F302378013323700E4BDB78DBB20A2B47D10B4C02202F21227802F097FD22780132D2B222700220302102F08FFD0022064B83F89F2023784C
:406240000133237031E000BF1D87FF1FD48AFF1F3E85FF1F2487FF1F3B85FF1F1785FF1FA34BDB78DBB2092B11D8A14CE17830310220C9B202F06EFDE1789E4A92F89F30E1
:406280000B4382F89F309C4A137801331370984BDB78DBB20A2B08D1974C02203021227802F058FD237801332370914BDB78DBB20B2B1BD1904B1B7883B90E228F4B1A7099
:4062C0008F4B1B78012B04D102205D2102F00CFD0CE00220702102F007FD07E0013BDAB2854B1A700220202102F034FD804BDB78DBB20C2B19D1804B1B78082B15D102F03C
:40630000BDF8012811D10E227C4B1A707C4B1B78012B04D102205D2102F0E6FC05E0022B03D10220702102F0DFFC64200AF06AFF0AF018FB38BD0AF0EBFA082841F0F38744
:406340006B4B1B78DBB2AA2B40F00D81684B9B79DBB2C32B40F00781654BDB79DBB23C2B40F00181644B1B780C2B61D8604AD278D2B2092A1ED80133DAB25F4B1A70614B1D
:406380001B7813B1012B07D00DE0594BD978594B13443031997706E0554BD978554B1344303183F82F10524BD97830310220C9B203F0F8FA4E4BDB78DBB20A2B18D14E4B4B
:4063C0001A780132D2B21A704E4B1B7813B1012B05D009E0474B13443021997704E0454B1344302183F82F100220302103F0DAFA3F4BDB78DBB2512B1AD13F4B1B78BBB13C
:406400000133DAB23C4B1A703E4B1B7813B1012B05D009E0374B13442E21997704E0354B13442E2183F82F1002202E2103F0BAFA2F4BDB78DBB20B2B49D12F4B1A78002ACD
:406440003DD10E222D4B1A702D4B1B78012B04D102205D2102F048FC03E00220702102F043FC2F200C2102F079F80022264B1A6008E0264AD15C1F4A1A4482F82F1001330E
:40648000214A1360214B1A781F4B1B689A42F0D220200F2102F062F800221B4B1A6007E01A4AD15C134A1A4491770133164A1360164B1A78144B1B689A42F1D207E00220F8
:4064C000202103F06FFA0C4A1378013B1370084BDB78DBB20C2B46D10E22084B1A70084B1B78012B14D102205D2102F0FDFB13E0D48AFF1F2487FF1F1D87FF1F3B85FF1F78
:406500001785FF1F8585FF1F7C83FF1F4485FF1F0220702102F0E8FB9A4B1B7813B1012B11D020E0984B1B78984901F81E3F202001F0D6FFB8B90220552102F0D5FB6422A0
:40654000934B1A700FE0904B1B78904901F82F3F2F2001F0C5FF30B90220552102F0C4FB64228B4B1A7064200AF04CFE0AF0FAF938BD0AF0CDF9082841F0D586854B1B7871
:40658000DBB2AA2B40F0D082824B9B79DBB2C32B40F0CA827F4BDB79DBB23C2B40F0C482794B1B78172B00F2BF817A4AD278D2B2092A37D80133DAB2734B1A70714B1B78A1
:4065C000042B28D8DFE803F0030911192100714BDB7830336D498B541DE06E4BD9786B4B1344303183F8431015E06A4BD978674B1344303183F861100DE0664BD978634B23
:406600001344303183F87F1005E0624BD978624B13443031D9725F4BD97830310220C9B203F0C0F95B4BDB78DBB20A2B2BD1564B1A780132D2B21A70524B1B78042B1ED8E0
:40664000DFE803F003070D13190030214F4B995415E04E4B1344302183F843100FE04B4B1344302183F8611009E0484B1344302183F87F1003E0484B13443021D97202206F
:40668000302103F08FF9434BDB78DBB2672B2BD13D4B1A780132D2B21A703A4B1B78042B1ED8DFE803F003070D1319002321374B995415E0354B1344232183F843100FE0FD
:4066C000324B1344232183F8611009E02F4B1344232183F87F1003E02F4B13442321D9720220232103F05EF92A4BDB78DBB26A2B2BD1254B1A780132D2B21A70214B1B7873
:40670000042B1ED8DFE803F003070D1319002D211E4B995415E01D4B13442D2183F843100FE01A4B13442D2183F8611009E0174B13442D2183F87F1003E0174B13442D21FA
:40674000D97202202D2103F02DF9124BDB78DBB2662B37D10C4B1A780132D2B21A70094B1B78042B2AD8DFE803F00307191F25004021064B995421E0044B1344402183F8EA
:4067800043101BE08585FF1F1D87FF1F2487FF1F3B85FF1FD48AFF1F2888FF1F9D4B1344402183F8611009E09A4B1344402183F87F1003E0984B13444021D9720220402148
:4067C00003F0F0F8954BDB78DBB2692B2BD1944B1A780132D2B21A70924B1B78042B1ED8DFE803F003070D1319002E21894B995415E0884B13442E2183F843100FE0854B1F
:4068000013442E2183F8611009E0824B13442E2183F87F1003E0804B13442E21D97202202E2103F0BFF87D4BDB78DBB2682B2BD17B4B1A780132D2B21A707A4B1B78042B4F
:406840001ED8DFE803F003070D1319002021714B995415E06F4B1344202183F843100FE06C4B1344202183F8611009E0694B1344202183F87F1003E0674B13442021D97245
:406880000220202103F08EF8644BDB78DBB21A2B4AD9624BDB78DBB2422B45D80022624B1A603DE05D4BDB78DBB2604A0A44127A934231D15A4B1A780132D2B21A70594B89
:4068C0001B78042B23D8DFE803F003080F161D0001F141034F48835419E04E4B134401F1410083F8430012E04A4B134401F1410083F861000BE0474B134401F1410083F8E7
:406900007F0004E0444B134401F14100D87241310220C9B203F046F8434A136801331360414B19681929BDD93C4BDB78DBB20B2B40F08C803A4B1A78002A7FD10E223C4B9C
:406940001A703C4B1B78012B04D102205D2102F0CBF903E00220702102F0C6F94020202101F0FCFD0022304B1A6008E0324AD15C284A1A4482F8431001332B4A13602E4B70
:406980001A78294B1B689A42F0D28020202101F0E5FD0022244B1A6008E0274AD15C1D4A1A4482F8611001331F4A1360224B1A781D4B1B689A42F0D2A020202101F0CEFD66
:4069C0000022194B1A6008E01B4AD15C114A1A4482F87F100133144A1360174B1A78124B1B689A42F0D20020202101F0B7FD00220D4B1A6006E0104AD15C064AD1540133D4
:406A0000094A13600C4B1A78074B1B689A42F2D21CE000BF2487FF1F2888FF1FD48AFF1F1D87FF1F8585FF1F7C83FF1F0C81FF1F3B85FF1F1785FF1F4485FF1F02202021D0
:406A400002F0B0FF894A1378013B1370884BDB78DBB20C2B68D10E22864B1A70864B1B78012B04D102205D2102F03EF903E00220702102F039F9814B1B78042B54D8DFE841
:406A800003F00314263748007D49784B1B780B70002001F025FD002846D10220552102F023F96422734B1A703EE0704B1B78744901F8433F402001F013FD002834D1022056
:406AC000552102F011F964226A4B1A702CE0674B1B786B4901F8613F802001F001FD18BB0220552102F000F96422624B1A701BE05E4B1B78624901F87F3FA02001F0F0FCE9
:406B000090B90220552102F0EFF86422594B1A700AE0564B1A785B4BDA720220392102F0E3F82422534B1A7064200AF06BFB09F019FF38BD09F0ECFE082841F0F4834C4BE5
:406B40001B78DBB2AA2B30D1494B9B79DBB2C32B2BD1474BDB79DBB23C2B26D1444BDB78DBB25F2B04D07E2B18D05E2B1DD10AE002200B2102F0B8F80122434B5A700A22D9
:406B80003C4B1A7011E002201D2102F0ADF800223E4B1A700B22374B1A7006E00220002102F0A2F80022334B1A7064200AF02AFB09F0D8FE38BD09F0ABFE082841F0B383EF
:406BC0002B4B1B78DBB2AA2B40F0DD80284B9B79DBB2C32B40F0D780254BDB79DBB23C2B40F0D1802A4B1B78062B25D8204AD278D2B2092A0FD80133DAB2254B1A701C4835
:406C0000C178244B13443031D972C17830310220C9B202F09FF8164BDB78DBB20A2B0BD11B4B1A780132D2B21A701A4B13443021D972022002F08EF80D4BDB78DBB20B2BFE
:406C40003BD1134B1A783ABB0E220A4B1A700A4B1B78012B04D102205D2102F045F82CE00220702102F040F827E000BF1D87FF1FD48AFF1F3B85FF1F1785FF1F8585FF1FAF
:406C80002487FF1F2888FF1F6883FF1F6C83FF1F3D85FF1F8486FF1F0220202102F05AF8A04B1B78A04A1A44D27A2C2A02D100219E4A1170013B9B4A13709D4BDB78DBB247
:406CC0000C2B60D1974B1B78032B5CD90622994B1A700220392102F007F8924B1A78924BDA72954B187908F097FB002848D0934B93F8A320924B1B789A4204D140F2B3103C
:406D0000904901F0EDFB8D4B93F8A3208E4B1B789A4204D140F2A7108A4901F0E1FB874B93F8A320894B1B789A4204D140F2AD10844901F0D5FB814B93F8A320844B1B78A4
:406D40009A4204D14FF47A707E4901F0C9FB02203C2101F0C9FF4FF4FA700AF053FA0E22744B1A707B4B1B78012B04D102205D2101F0BAFF07E00220702101F0B5FF02E04F
:406D80000220F9F71FFD64200AF03CFA09F0EAFD38BD09F0BDFD082841F0C582644B1B78DBB2AA2B50D1624B9B79DBB2C32B4BD15F4BDB79DBB23C2B46D15D4BDB787E3BE7
:406DC000032B41D8DFE803F0390226310220582101F08AFF0220002173224FF41F7302F0DFF902200021CF2240F27E2302F0D8F902200121292240F27A2302F0D1F902206E
:406E000001217B224FF47C7302F0CAF91C22494B1A7019E00220062101F066FF00224E4B1A701D22434B1A700EE002206D2101F05BFF1E223F4B1A7006E00220002101F0C5
:406E400053FF00223B4B1A7064200AF0DBF909F089FD38BD09F05CFD082841F06482344B1B78DBB2AA2B56D1314B9B79DBB2C32B51D12F4BDB79DBB23C2B4CD12C4BDB78BE
:406E80007E3B042B47D8DFE803F03F03122130000220062101F028FF00222F4B1A700122264B83F8A3201F22224B1A7033E00220062101F019FF0022274B1A7002221F4BCA
:406EC00083F8A3201F221B4B1A7024E00220062101F00AFF0022204B1A700322174B83F8A3201F22134B1A7015E00220062101F0FBFE0022184B1A700422104B83F8A320E1
:406F00001F220C4B1A7006E00220002101F0ECFE0022084B1A7064200AF074F909F022FD38BD00BF3D85FF1F8486FF1F3E85FF1FD48AFF1F3B85FF1F6083FF1F2487FF1F68
:406F40007E86FF1F8F86FF1F1485FF1F8386FF1F1C87FF1F1785FF1F1D87FF1F09F0D8FC082841F0E081A84B1B78DBB2AA2B40F0BF80A54B9B79DBB2C32B40F0B980A24BE6
:406F8000DB79DBB23C2B40F0B380A04B1B78042B36D89D4AD278D2B2092A0FD80133DAB29A4B1A709848C178994B13443031D972C17830310220C9B201F0CCFE924BDB784B
:406FC000DBB20A2B0BD1914B1A780132D2B21A708F4B13443021D972022001F0BBFE8A4BDB78DBB2512B0BD1884B1A780132D2B21A70874B13442C21D972022001F0AAFE7C
:40700000814BDB78DBB20B2B24D1804B1A7882B90E22804B1A70804B1B78012B04D102205D2101F061FE15E00220702101F05CFE10E00220202101F08DFE744B1B78744A3B
:407040001A44D27A2C2A02D10021744A1170013B6E4A13706C4BDB78DBB20C2B48D16B4B1B78052B44D16A4B1B7B353BDBB2022B3ED80220392101F037FE644B1B786449D5
:4070800001F80B3F4FF4DD7001F02AFA012805D15F4B1B7B03F00F03614A137040F25A20604901F01DFA012822D1594A937B03F00F035D490B70137C03F00F035B4A13706A
:4070C00002203C2101F010FE4FF4FA700AF09AF80E22504B1A70504B1B78012B04D102205D2101F001FE03E00220702101F0FCFD64200AF087F809F035FC38BD09F008FC2C
:40710000082841F01081404B1B78DBB2AA2B74D13D4B9B79DBB2C32B6FD13B4BDB79DBB23C2B6AD1384BDB78DBB28F2B04D0902B2FD07E2B61D159E03D49002381F82D30FA
:4071400081F82E304FF4DE702D3101F0C9F901281BD10022374B1A7002203C2101F0C4FD4FF4FA700AF04EF80E222A4B1A702A4B1B78012B04D102205D2101F0B5FD3CE09E
:407180000220702101F0B0FD37E00220F9F71AFB33E02749012381F82D3081F82E304FF4DE702D3101F09CF901281BD10122214B1A7002203C2101F097FD4FF4FA700AF09E
:4071C00021F80E22134B1A70134B1B78012B04D102205D2101F088FD0FE00220702101F083FD0AE00220F9F7EDFA06E00220002101F07AFD0022074B1A7064200AF002F859
:4072000009F0B0FB38BD00BFD48AFF1F1D87FF1F2888FF1F3B85FF1F1785FF1F3E85FF1F2485FF1F3388FF1F6E83FF1F0F88FF1F2487FF1F9285FF1F09F06AFB082841F050
