:4000000000800020110000009D0000009D00000080B500AF064B064A126842F020021A60044B054A12681A6000F004FB00F03AF8E8460040BC760040FA46004010B5054CEF
:40004000237833B9044B13B10448AFF300800123237010BD2881FF1F00000000901D000008B5064B1BB106480649AFF300800648036813B1054B03B1984708BD00000000C2
:40008000901D00002C81FF1F0881FF1F0000000080B500AF00F078FAFEE700BF80B400AFFEE700BF80B586B000AF224B7B61224B3B61204B7B6135E03B691B68FB603B69C2
:4000C0005B68BB603B699B683B6000237B600CE0FB681A68BB681A60BB680433BB60FB680433FB607B6804337B607A683B689A42EED13B69DB683B6000237B6008E0BB686A
:4001000000221A60BB680433BB607B6804337B607A683B689A42F2D13B6910333B617B69013B7B617B69002BC6D101F0F5FDFFF7AFFFFEE701000000A021000080B582B0DB
:4001400000AF174B174A1A60174B174A126842F400721A6000237B600FE07B68032B04D8124B7A6853F8223000E0114B114A796842F821307B6801337B607B682F2BECD987
:400180000D4B1B78DAB20D4B1A700D4B094A1A6000F026F90B4B00221A600837BD4680BD0CED00E00004FA0514ED00E0000000009D0000000080FF1FBC7600400481FF1F34
:4001C00008ED00E00081FF1F80B582B000AF78603960786800213A6801F0CDFD0837BD4680BD00BF80B584B000AFF860B9607A60F868B9687A6801F0B5FD1037BD4680BD78
:4002000080B584B000AFF860B9607A60F868B9687A6801F0A7FD1037BD4680BD80B483B000AF0346FB71FEE780B487B000AF7860396000233B6100237B6126E07B699B005E
:400240007A6813441B68BB60BB68FB73BB6823F0FF03BB6013E03B695B003A6813441B781A46BB6813443A69520039680A4452781A703B6901333B61FB7B013BFB73FB7B29
:40028000002BE8D17B6901337B617B69102BD5D91C37BD465DF8047B704700BF80B582B000AF304B19221A802F4B18221A702F4B02221A704FF0402308221A702C4B03223B
:4002C0001A702C4B2C4A1278D2B21A702B4B08221A802B4B41F251221A800023FB7019237B6014E0FB785B00DAB2264B1B78DBB203F00103DBB21343DBB203F00303FB70B0
:400300004FF4F07000F00CFF7B68013B7B607B68002B02D0FB78032BE4D17B68002B02D10320FFF77BFF184B4FF480721A80164B07221A70154B00221A70154B48221A70D5
:40034000114B00221A70134B02221A70124B124A1278D2B242F00102D2B21A700837BD4680BD00BF80400040824000400043004000420040A14600400801004922420040FD
:40038000204200402542004004400040064000400840004001400040A243004080B483B000AF0B4B1B78FB710A4BFA7902F00702D2B21A70084BFA791209D2B21A70074B3F
:4003C00044221A700C37BD465DF8047B704700BFCF0100496E5800406F5800407658004080B582B000AF72B6334B334A1278D2B242F02402D2B21A700023FB7113E0FA79A7
:4004000013465B0013445B002C4A13443B603B681A683B689B889BB210461946FFF7D4FEFB790133FB71FB79072BE8D924482549FFF7FAFE244B244A1278D2B242F00202D5
:40044000D2B21A70214B214A1278D2B242F00202D2B21A701E4B1E4A1278D2B242F04002D2B21A701B4B1B4A1278D2B242F01002D2B21A70184819490A22FFF7C1FE184BB3
:40048000174A1278D2B242F00802D2B21A70154B01221A70FFF702FF124B81221A70124B01221A70FFF77AFF104809490E22FFF799FE0837BD4680BDE8460040941D000077
:4004C000C41D0000081E00000350014013500140A0430040C24300406051004068210000224300400048004004000840B043004080B485B000AF78600B467B800023FB8154
:400500000BE07B88013B7A6813441B781A46FB891344FB817B88013B7B807B88002BF0D1FB895B429BB218461437BD465DF8047B704700BF80B586B000AFF860B9607A601C
:400540000023FB75FA680F4B9A4206D0FB68002B03D0002000F070FF0CE00BE07B68013B7B60FA68BB681A447B6813441A78FB7D1344FB757B68002BF0D1FB7D18461837E7
:40058000BD4680BD0080004080B582B000AF06237B60002000F06EF80346002B01D100237B601C4B1B681B68002000211A46FFF7C1FF0346FB70184B1B681B78FA78D31A17
:4005C000FB70FB785B42FB70134B1B681B78FA789A4204D10F4B1B681B68002B02D1002000F02AFF0D4B1B78DBB203F0C003402B02D07B68002B05D0084B00221A7000207A
:4006000000F0AEF8322000F0ABF800F009F80837BD4680BD1081FF1F0C81FF1FFA46004080B500AF024B80221A7000F011FF80BDFA46004080B500AF0C4B1B78DBB203F08D
:40064000C003802B11D1094B00221A700220002100F0DCFB0346002B07D00220002100F0D5FB0346184600F003F880BDFA460040004700BF90B587B000AF0346FB71FB7929
:400680000320194600F0C2FB034601331C02FB790420194600F0BAFB03462344FB600023FB740023BB74FB790320194600F0AEFB034601331B027B6111E07B691B78FB720B
:4006C000FB7A002B04D0FB7AFF2B01D00123FB74BA7CFB7A1344BB747B6901337B617A69FB689A42E9D3FB790320194600F08EFB034601331B02DB087B61FA68174B9A4218
:4007000002D0FB68DB0801E04FF40043FB600AE07B6903F190431B78DAB2BB7C1344BB747B6901337B617A69FB689A42F0D3BB7C5B42BB74BC7CFB790120194600F066FB15
:4007400003469C4202D1FB7C002B01D1062300E0002318461C37BD4690BD00BFC0FF030080B5ADF5247D00AF0246FB1D1A700023A7F88A320023A7F888320A2387F88732ED
:40078000002387F8863200F055FD0346002B02D0002000F051FE00F01BFC62B6002387F88D32FB1D1B78002B02D0FB1D1B7800E0FF2307F59E7107F26A2208464FF49671FB
:4007C00000F034FCC7F87802FB1D1B78002B04D097F88732013B87F8873297F88732002B03D0D7F87832002BDBD1D7F87832002B00D0B0E2B7F86A32062B04D907F59E7338
:400800001B78012B03D0042387F88D3244E007F59E73DB781B029AB207F59E739B781343A7F88A32B7F88A32053307F59E72D35C1B029AB2B7F88A32043307F59E71CB5CE8
:400840001343A7F87632B7F88A32DA1DB7F86A329A4203D9032387F88D321DE0B7F88A32063307F59E72D35C172B03D0042387F88D3211E0B7F88A3204339BB207F59E72D0
:4008800010461946FFF734FE0346B7F876229A4202D0082387F88D320023A7F88E3297F88D32002B40F04C8207F59E731B7987F87532042387F88D3207F59E735B78313B43
:4008C0000A2B00F2398201A252F823F0F908000033090000390D0000CD0900003F0B0000390D0000510B0000A70B0000CD090000EB0B0000210D000097F88632012B17D1CA
:40090000B7F88A32002B13D10020FFF7B3FE0346002B14BF00230123DBB21A4607F59E731A710123A7F88E32002387F88D3207E206E297F88632012B47D1B7F88A32012B8C
:4009400043D197F87532032B3FD8D14B1B681B681B0C87F8743297F8752297F874329A4208D1CB4B1B681B681B0A9BB2DBB2A7F884320DE097F8752297F874329A4203D9FA
:400980000023A7F8843203E04FF48073A7F88432B7F88432DAB207F59E731A71B7F884321B0A9BB2DAB207F59E735A7107F59E73FF229A7107F59E730022DA710423A7F814
:4009C0008E32002387F88D32BAE1B9E107F59E735B78342B23D197F88632012B40F0B081B7F88A32032B40F0AB8197F875323F2B08D997F875325BB2002B03DB1023A7F806
:400A0000883203E04FF49073A7F88832B7F8883207F11002104600211A4601F0ACF997F88632012B40F08A80B7F88A32022B40F28580B7F8883207F11002D118B7F88A3257
:400A4000033B07F59E720732084611461A4601F089F9B7F88822B7F88A3213449BB2033BA7F8883297F875323F2B0AD997F875325BB2002B05DB00F099FC1023A7F88A3298
:400A800003E04FF49073A7F88A32B7F88822B7F88A329A424BD107F59E739B791B029AB207F59E735B791343A7F8883297F875323F2B27D897F875329BB21B029AB2B7F8A2
:400AC00088321344A7F87232714B1B681B681B0AA7F882326E4B1B681B68DBB2002B04D0B7F882320133A7F88232B7F87222B7F882329A4206D20A2387F88D320023A7F8AC
:400B000088321DE197F87502B7F8881207F11002B7F88A3200F0A0FB0346002B01D00A2300E0002387F88D3200F0D6FC02E0032387F88D320023A7F8883201E100E197F825
:400B40008632012B03D10023A7F8883203E1F7E097F88632012B25D1B7F88822B7F88A321344B3F5967F19D8002387F88D32B7F8883207F11002D118B7F88A3207F59E7220
:400B80000432084611461A4601F0ECF8B7F88822B7F88A321344A7F8883203E0032387F88D32CDE0CCE0B7F88A32002B1CD107F10803384A92E8030083E80300012387F87B
:400BC00086320823A7F88E32B7F88E3207F59E72111D07F10802084611461A4601F0C2F8002387F88D32ABE0AAE097F88632012B40F09580B7F88A32032B40F0908007F555
:400C00009E739B791B029AB207F59E735B791343A7F8703297F875323F2B13D997F875325BB2002B0EDBB7F870321B01C7F86C321948D7F86C121022FFF77CFC034687F8EB
:400C4000813212E097F875321A02B7F8703213441B02C7F86C320020D7F86C124FF48072FFF768FC034687F8813297F875323F2B29D897F8753203F510331A02B7F8703265
:400C800013445B01C7F86C320023A7F87E3216E01081FF1F7421000000800040B7F87E22D7F86C3213441B78DAB297F88132134487F88132B7F87E320133A7F87E32B7F82A
:400CC0007E321F2BEAD997F87532032B19D1B7F87032FF2B15D10520002100F097F80346DBB297F88122D31A87F881320620002100F08CF80346DBB297F88122D31A87F86D
:400D0000813297F881325B42DAB207F59E731A71002387F88D320123A7F88E3210E00FE00020FFF7A7FC0346002B02D1114B80221A7000F08DFB03E0052387F88D3200BF32
:400D400097F88D1207F59E72B7F88E32084611461A4600F011F8FB1D1B78002B3FF41EAD97F88632012B3FF419AD07F52477BD4680BD00BFFA46004080B584B000AF3960C5
:400D800013460246FA71BB803B6801221A703B680133FA791A703B680233BA88D2B21A703B680333BA88120A92B2D2B21A70BB8804339BB238681946FFF79AFB0346FB8101
:400DC000BB8804333A681344FA89D2B21A70BB8805333A681344FA89120A92B2D2B21A70BB8806333A68134417221A70BB8807339AB23B1D386811461A46962300F0F2F847
:400E0000034618461037BD4680BD00BF80B586B000AF02460B46FA71BB710223FB740023FB60FB79013B092B00F2928001A252F823F000BF5D0E0000770E0000910E000033
:400E4000A70E0000C10E0000DB0E00000B0F0000F50E0000210F0000370F0000BA7913461B069B1A1B0203F57F3303F570737B610123FB7472E0BA7913461B069B1A1B022E
:400E800003F57F3303F2C1337B610423FB7465E0BA7913461B069B1A1B0203F57F3303F2C5337B615AE0BA7913461B069B1A1B0203F57F3303F2C9337B610423FB744DE003
:400EC000BA7913461B069B1A1B0203F57F3303F574737B610123FB7440E0BA7913461B069B1A1B0203F57F3303F2D1337B610123FB7433E0BA7913461B069B1A1B0203F540
:400F00007F3303F2D6337B6128E0BA7913461B069B1A1B0203F57F3303F2D2337B611DE0BA7913461B069B1A1B0203F57F3303F575737B6112E0BA7913461B069B1A1B02CB
:400F400003F57F3303F576737B610423FB7405E0002000F071FA00237B6100BFFB7C012B03D17B691B78DBB2FB60FB7C022B0BD17B691B78DBB2FB607B6901331B78DBB269
:400F80001B02FA681343FB60FB7C042B1BD17B691B78DBB2FB607B6901331B78DBB21B02FA681343FB607B6902331B78DBB21B04FA681343FB607B6903331B78DBB21B06E2
:400FC000FA681343FB60FB6818461837BD4680BD80B500AF00F0A0FC00F0A0FD00F0F6FD80BD00BF80B586B000AFF8607A600A467A817B720023FB8200F090FD09E0FB8AA3
:40100000FA6813441B78184600F0C6FDFB8A0133FB82FA8A7B899A42F1D37B687A891A80002318461837BD4680BD00BF90B589B000AFF8607A600A467A817B720523BB61CB
:401040000023FB831AE000F021FD0346002B0FD000F01CFD0346FB82192000F009FA00F015FD0346FA8A9A42F2D30023BB610DE0012000F0FDF9FB8B0133FB83F98B7A7A26
:4010800013469B0013445B009942DCDB7B6800221A800023BB8336E000F0F8FC0346BB827B681A88BB8A13449AB27B681A807B681B887A899A421ED90023FB830CE0BB8B5F
:4010C000FA68D41800F098FC03462370BB8B0133BB83FB8B0133FB83FA8BBB8A9A42EED3BB8B013BFA6813441B78172B0BD0052000F0BEF907E07B681A88BB8AD31A9AB24A
:401100007B681A8004E000F0C1FC0346002BC3D1BB6918462437BD4690BD00BF000000000230800800F0058000BF013800467FF4FCAF7047EFF3108072B6704780F310880F
:40114000704700BFAFF3008080B582B000AF00F039FA4FF0FF337B6000F05EFB0346002B24D1012000F026FB0346072B1BD11348022100F049FA0346022B0DD100237B6004
:4011800002E0012000F096F90D4B1B78DBB203F00203002BF5D006E0094B1B78DBB203F00203002BE3D000F06BFB01E004237B607B6818460837BD4680BD00BF5481FF1F72
:4011C0002247004080B582B000AF00F0FBF900F023FB0346002B23D100F07AFB78607B68072B1AD102E0012000F064F9104B1B78DBB203F00203002BF5D00D4B1B78DBB26E
:4012000003F00203002B08D0094B1B78DBB29B08DBB2002B01D100237B6000F031FB01E004237B607B6818460837BD4680BD00BF2247004080B582B000AFFFF7C3FF786047
:401240007B68002B02D1FFF77FFF78607B6818460837BD4680BD00BF80B586B000AFBA600246FA730A46BA81FB8000237B61FB7B3F2B04D8FB7B042B01D901237B61FB7B23
:401280005BB2002B01DA01237B61FB7B3F2B04D9FB7B412B01D901237B61FB7B3F2B06D8BB89B3F5807F0CD901237B6109E0BB89802B01D901237B61FB88102B01D00123AF
:4012C0007B61BB68002B01D101237B617B69002B62D100F0A1FA0346002B5BD1F97BBA89FB8808461146BA6800F0BAF978617B69072B4CD102E0012000F0DCF8294B1B7807
:40130000DBB203F00203002BF5D0264B1B78DBB203F00203002B09D0224B1B78DBB29B08DBB2002B02D100237B6102E04FF0FF337B617B69002B2AD11B4B1A781A4B5B7888
:40134000F87BB98900F0F2F978617B69072B1ED102E0012000F0AEF8124B1B78DBB203F00203002BF5D00F4B1B78DBB203F00203002B09D00B4B1B78DBB29B08DBB2002BBA
:4013800002D100237B6102E04FF0FF337B6100F077FA01E004237B617B6918461837BD4680BD00BF224700405481FF1F80B582B000AFFFF7BFFE0346FB71194B184A1278ED
:4013C000D2B242F00802D2B21A70164B154A1278D2B242F00802D2B21A70134BC8221A70124B124A1278D2B242F01002D2B21A700F4B0F4A1278D2B242F01002D2B21A7009
:4014000000BF0C4B1B78DBB203F02003002BF8D0FB791846FFF792FE0837BD4680BD00BFA0430040B043004001470040AC430040BC4300400047004080B483B000AF0346A5
:40144000FB7101BE0C37BD465DF8047B704700BF80B400AF054B054A1278D2B242F00102D2B21A70BD465DF8047B7047F646004080B582B000AF786008E00C4B1B681846C6
:40148000FFF74EFE7B68A3F500437B607B68B3F5004FF2D8064B1B687A6802FB03F31846FFF73EFE0837BD4680BD00BF2081FF1F1881FF1F80B582B000AF0346FB80FB8863
:4014C000044A127802FB03F31846FFF729FE0837BD4680BD1C81FF1F80B582B000AFFFF729FE0346FB7100BF00BF00BF00BF00BF00BF00BF00BF00BF00BF00BF00BF00BFD1
:4015000000BF00BF00BF094B084A128892B242F0040292B21A80054B1B88BFF36F8FFB791846FFF70BFE0837BD4680BD0048004080B584B000AF03463960FB710F4B1B6816
:40154000FB60FB791F2B02D90020FFF775FFFB7903F01F0310339B00FA6813441B68BB60FB7903F01F0310339B00FA6813443A681A60BB6818461037BD4680BD08ED00E016
:4015800080B582B000AF02460B46FA71BB71BB79072B02D90020FFF74FFFFB791F2B02D90020FFF749FFFB7903F01F0303F1604303F56443BA795201D2B21A700837BD46B4
:4015C00080BD00BF80B582B000AFFFF7B3FD0346FB710B4B0A4A1278D2B242F00802D2B21A70084B074A1278D2B242F00802D2B21A70FB791846FFF7A1FD0837BD4680BD9B
:40160000A0430040B043004080B584B000AF78600B46FB700023FB7314E002E00120FFF749FF0D4B1B78DBB203F00103002BF5D0FB7B7A681344094A1278D2B21A70FB7B73
:401640000133FB73FA7BFB789A42E6D3FB7B18461037BD4680BD00BF224700402047004080B489B000AFBA600246FA730A46BA81FB800723FB612B4B1B78DBB203F00203DC
:40168000002B45D0284BB6221A70274BD5221A70254B02221A70234B1B78DBB203F00203002B32D1204BFA7B1A7000237B8308E01D4B7A8BB9680A4412781A707B8B0133B3
:4016C0007B837A8BFB889A42F2D3FB88B3F5807F20D1FB7B3F2B1DD8FB7B03F510331A02BB8913445B017B6100237B8309E00E4B798B7A690A441278D2B21A707B8B0133C9
:401700007B837B8B1F2BF2D904E00923FB6101E00423FB61FB6918462437BD465DF8047B704700BF224700402047004080B485B000AFF871B980BA71FB700723FB601B4BCB
:401740001B78DBB203F00203002B26D0184BB6221A70174BD8221A70154B05221A70134B1B78DBB203F00203002B13D1104BFA791A700F4BBA88120A92B2D2B21A700C4B36
:40178000BA88D2B21A700A4BBA791A70084BFA781A7004E00923FB6001E00423FB60FB6818461437BD465DF8047B7047224700402047004080B485B000AF0346FB710723C9
:4017C000FB60134B1B78DBB203F00203002B16D0104BB6221A700F4BE1221A700D4B0E221A700B4B1B78DBB203F00203002B03D1084BFA791A7004E00923FB6001E0042321
:40180000FB60FB6818461437BD465DF8047B7047224700402047004080B582B000AF04237B60FFF787FC0346FB70124B1B78002B16D1104B01221A7000237B600E4B1B683A
:4018400003F00103002B0BD00B4B0B4A126822F001021A6000BF00BF00BF084B01221A60FB781846FFF76AFC7B6818460837BD4680BD00BF4481FF1F040008404881FF1FC8
:4018800080B582B000AFFFF755FC0346FB710D4B00221A700C4B1B68012B0BD10B4B0B4A126842F001021A6000BF00BF00BF064B00221A60FB791846FFF740FC0837BD46EC
:4018C00080BD00BF4481FF1F4881FF1F0400084080B483B000AF07237B600D4B1B78DBB203F00203002B09D00A4BB6221A70094BE0221A70074B0D221A7001E004237B60C2
:401900007B6818460C37BD465DF8047B704700BF224700402047004080B500AF054B1B78002B04D100F008F8024B01221A7000F02FF880BD4C81FF1F80B500AF00200D493C
:40194000FFF7F6FD00200721FFF71AFE0A4B00221A700A4B72221A70094B20221A70094B06221A70084B47221A70084B00221A7080BD00BF0D1C00004D81FF1F8C64004008
:401980008A6400402E6400403E6400408B64004080B582B000AFFFF7CDFB0346FB71124B114A1278D2B242F02002D2B21A700F4B0E4A1278D2B242F01002D2B21A700C4BFC
:4019C00001221A600B4B0B4A1278D2B242F01002D2B21A7000F086F9FB791846FFF7AEFB0837BD4680BD00BF9C6400409A64004000E100E09B64004080B483B000AF1C4B26
:401A000001221A601B4B1B78BB711B4B1B787B711A4B1B78DBB2002B03D1BA797B799A4219D0BB79164AD35CFB71BB790133BB71BB795BB2002B01DA0023BB710D4BBA79AB
:401A40001A700E4B1B78DBB2002B03D00B4B00221A7003E002E00B4B1B78FB710A4B01221A60FB7918460C37BD465DF8047B704780E100E04E81FF1F4F81FF1F5081FF1FA9
:401A80005881FF1F4F64004000E100E080B483B000AF1D4B01221A601C4B1B78DAB21C4B1B78DBB29A420AD11A4B1B78DBB2002B02D08023FB711DE00023FB711AE0134B27
:401AC0001B78DAB2124B1B78DBB29A4208D2104B1B78DAB20D4B1B78DBB2D31AFB7109E00B4B1B78DAB2094B1B78DBB2D31ADBB2803BFB71084B01221A60FB7918460C37D1
:401B0000BD465DF8047B704780E100E04E81FF1F4F81FF1F5081FF1F00E100E080B582B000AFFFF707FB0346FB71144B134A1278D2B242F00102D2B21A70104B0F4A12783D
:401B4000D2B222F00102D2B21A70FB791846FFF7F5FA0B4B01221A600A4B00221A700A4B00221A70094B00221A70094B00221A70084B01221A600837BD4680BD9F64004060
:401B800080E100E04E81FF1F4F81FF1F5081FF1F5181FF1F00E100E080B483B000AF0346FB7100BF074B1B78DBB203F00403002BF8D1054BFA791A700C37BD465DF8047B18
:401BC000704700BF6B6400404B64004080B582B000AFFFF7AFFA0346FB710B4B0A4A1278D2B242F00102D2B21A70074B064A1278D2B222F00102D2B21A70FB791846FFF771
:401C00009DFA0837BD4680BD9B64004080B483B000AF0023FB712B4B1B78BB71BB797B71BB7903F01E03002B0BD0BB7903F01E03DAB2254B1B78DBB21343DBB2DAB2224BC7
:401C40001A70BB7903F02003002B31D01F4B1B787B711F4B1B78DBB21E4A7979D1540123FB71FB79002B23D01B4B1B78DBB2002B02D01A4B01221A70154B1B78DBB2013307
:401C8000DAB2134B1A70124B1B78DBB2DBB25BB2002B02DA0E4B00221A700D4B1B78DAB20F4B1B78DBB29A4202D10B4B01221A70BB7903F02003002BADD10C37BD465DF85C
:401CC000047B70476A6400404D81FF1F4F6400404F81FF1F5881FF1F5081FF1F5181FF1F4E81FF1F80B400AF094B094A1278D2B242F00102D2B21A70064B064A1278D2B286
:401D000042F00102D2B21A70BD465DF8047B7047A2430040B243004070B50E4B0E4D0024ED1AAD101E46AC4204D056F8242090470134F8E700F022FA084D094B0024ED1A34
:401D4000AD101E46AC4204D056F8242090470134F8E770BD8821000088210000902100008821000010B50023934203D0CC5CC4540133F9E710BD02440346934202D003F848
:401D8000011BFAE77047000032000000D021000000000000005100406000C05100401000F0510040100000000140001000140140000800400140000A004C01400002005051
:401DC000014020000252004003640040010501404B0A0140420B01403A0C0140430D01405D0E01402F0F014002400140014101400342014004440140034501400246014072
:401E00000350014001510140310134028A388B0F8C72E60102030308051A07040B050C0C0E1110101103120C130C181C1A021C101D031F14201421202C092E102F18301F93
:401E4000311C3303352039083B023F1454185604580459045B045F018002850A860287048A028B058F08900296029D039F0CA001A503A704AD03AF04B002B10FB401BB02F4
:401E8000BE11C053C104C5E0C6CBC80EC9FFCAFFCBFFCEF0CF44D00CD401D804D904DA04DB04DF01E6C0EA40EB02008001020428074009010B060D020E100F2010811180F0
:401EC000150119021E882080210622102340250126022740280129022F2231023342374038283A303B063D803E203F04450246104D014E02548057305A025D015E986080A7
:401F00006150808082109028920293029508974099509E20A140A501C079C23BC419CA59CC19CE77D0C0D210D6F1D80DE4040104050209020D04110215011D0121012704B9
:401F400029082D0133023501370C39803F105602571159045B045F01800F830485C08603880489188C018D44900391E7920C93189402958098039BE39D10A00FA11CA3E14C
:401F8000A40CA51CA7E2A80CA908AA03AC08ADFFB00FB1C0B31FB738BA82BB88D804D904DF010160039009080A400B041219130119811A401BC0228923012540261027109F
:401FC000284029A42E602FA0308031093310344035043688370939423A103B043D023E143F4058805A405E206C206E146F097484752076138D048F409028914293069508B6
:40200000974199509C809D209E029F18A108A320A424A545A748B420B540C00FC20EC40FCAFFCCDFCEFFD620040C05010603070E1001120E1544173119671A031E08200146
:402040002206252227D129672E0C31803360340F350737183A203F404003454049FF4A074BFF4C404D204EF04F055008580459045A045F01604061A8624063208106830166
:40208000850688028B018C028D079204950796049D019E029F06A104A602A902AA01AE01B002B107B404B601B802BE50C042C103C205C401C6E0C70CC818C9FFCAFFCBFFB5
:4020C000CC62CDA0CEF0CF41D00CD804D904DA04DF01E640E702E910EA30EB10ED10EE10EF120320070609200B420E800F2111821608174818081B201D501E802189230460
:402100002602274028202B082D202E0230203108348037083B043C083D203F8141044480459447164B024E025010512056085710C0C4C2BBC4E9CAA6CC56CEF2D0F2D210E6
:402140003240CC10968082409680E68005025910C004D4019D10B502EA0281109D1000010C010E01000300000100020101000100000000006930122E001E0101F8B500BF9B
:40218000F8BC08BC9E467047610000003D010000F8B500BFF8BC08BC9E4670473D000000B02100000881FF1F20000000B000000000000000881D00008C1D000000366E0176
:4021C000C05D0000180000000000E02E000000000000000000000000000000000000000000000000000000000000000000000000000000000000000000000000000000009C
:402200000080002011220000C9100100C910010008B50EF05BFF00BF10B5054C237833B9044B13B10448AFF300800123237010BD5083FF1F00000000C82B0100084B10B5A4
:402240001BB108480849AFF300800848036803B910BD074B002BFBD0BDE81040184700BF00000000C82B01005483FF1F0881FF1F0000000008B510F029F80E4B1B78012BAA
:4022800013D10D4B1978062907D80131C9B219700120143108F018FB08BD0022064B1A700120142108F010FB08BD034A13780133137008BDA283FF1F9A85FF1F08B510F02B
:4022C000BFF80E4B1B78012B13D10D4B1978062907D80131C9B219700220143108F0F4FA08BD0022064B1A700220142108F0ECFA08BD034A13780133137008BD4F85FF1FAF
:402300004185FF1F08B562B60FF014F90FF0C8FA0FF04AFB0FF000F90FF020FA0FF0E6FD0FF0D2FE0FF028FA0FF0EEFD0FF0DAFE0FF0A8FA10F058FB052010F0BFFB00203C
:40234000202107F0FBFE00225E4B1A6006E05E4AD15C5E4AD15401335A4A13605A4B1A78584B1B689A42F2D220200F2107F0E6FE0022544B1A6007E0534AD15C534A1A44E5
:40238000917701334F4A13604F4B1A784D4B1B689A42F1D24020202107F0D0FE0022494B1A6008E0484AD15C484A1A4482F843100133444A1360444B1A78424B1B689A42B3
:4023C000F0D28020202107F0B9FE00223D4B1A6008E03D4AD15C3D4A1A4482F861100133384A1360384B1A78364B1B689A42F0D2A020202107F0A2FE0022324B1A6008E083
:40240000314AD15C314A1A4482F87F1001332D4A13602D4B1A782B4B1B689A42F0D22F200C2107F08BFE0022264B1A6008E0264AD15C264A1A4482F82F100133214A13602C
:40244000214B1A781F4B1B689A42F0D26020092107F074FE1C4B1878431EDBB2082B14D80022184B1A6008E00133174AD15C174A1A4482F8D710134A1360124B1B68072B11
:40248000F2D9124B83F8D7000EE001220D4B1A6006E00E4A1A4482F8D7300133094A1360084B1B68082BF4D940F29F20052107F045FE054B1878042817D10122014B1A60A4
:4024C0000DE000BFA883FF1F5885FF1F3887FF1FA44AD15CA44AD1540133A44A1360A34B1B68042BF4D9A04B187040F2C110022107F024FE9B4B1B78012B03D1994B5A78FE
:402500009B4B1A7040F2C310022107F017FE954B1B78012B03D1934B5A78964B1A7040F2C510022107F00AFE8E4B1B78012B03D18C4B5A78904B1A7040F2EE30022107F05C
:40254000FDFD884B1B78012B03D1864B5A788B4B1A704FF4DD70022107F0F0FD814B1B78052B05D17F4B5B7803F00F03844A137040F27A20022107F0E1FD7A4B1B78012BC1
:4025800003D1784B5A787F4B1A704FF41F70022107F0D4FD734B1B78012B03D1714B5A78794B1A7040F27E20022107F0C7FD6D4B1B78012B03D16B4B5A78744B1A704FF467
:4025C0007C70022107F0BAFD664B1B78012B03D1644B5A786E4B1A7040F25A20062107F0ADFD604B1B78052B0AD15E4AD37803F00F0368490B70537903F00F03664A137031
:4026000040F2C710022107F099FD564B1B78012B06D1624A1370534B5B7803F00F0353704FF4DE70022107F089FD4E4B1B78012B05D14C4B5B7803F00F03594A137040F21C
:402640006320022107F07AFD464B1B78012B05D1444B5B7803F00F03524A537040F26520022107F06BFD3F4B1B78012B05D13D4B5B7803F00F034C4A53704FF4277003214B
:4026800007F05CFD374B1B78022B06D1354B9B7843EA0323454A138002E00122434B1A804FF47670022107F049FD2E4B1B78012B04D12C4B5A783E4B5A7007E03C490123BA
:4026C0000B704B704FF4767007F0FAFC40F2D230062107F033FD234B187805280FD10022224B1A6006E01F4AD15C324AD15401331E4A13601D4B1B689842F4D20CE02D49DF
:4027000005230B7030234B708B70CB700B714B7140F2D23007F0D4FC264A537903F00F00137903F00F014FF47A7303FB01F342F2107101FB0033D07800F00F00642101FBE4
:402740000031937803F00F0303EB83035B000B44527802F00F021344174A13600222174B1A7008BD5885FF1F0C81FF1FA883FF1F2288FF1FD488FF1F5085FF1FA483FF1FC4
:402780004485FF1F4085FF1F9286FF1F9786FF1F3087FF1FA583FF1F2388FF1F4C85FF1FA685FF1F9486FF1F3487FF1F3E85FF1FA083FF1FA085FF1F3488FF1F4385FF1F8C
:4027C00010B5002413E00AF0E1FE02280FD1642010F074F9074B18780AF018FF062806D1044B18790AF012FF062800D10224002CE9D010BD9883FF1F08B501280ED15521FB
:4028000008F062F864220D4B1A7001220C4B1A700C480FF0CFFD0FF09FFD08BD0220552108F052F86422084B1A700122074B1A7007480FF079FE0FF049FE08BDA283FF1F0C
:402840009A85FF1F752200004F85FF1F4185FF1FBD22000038B5984B1B78642B03F29185DFE813F0740080008F1DA100000188011D02B702EA02170302044B04B8042B051E
:40288000760551066507B4074008F6087109E30A340CB70DE20EE2112F1206136713E913B81454151816E1184C19CF191C1A4A1AD21AC31BC61C4F1D8F1D8F1D8F1D8F1DB0
:4028C0008F1D8F1D8F1D8F1D8F1D8F1D8F1D8F1D8F1D8F1D8F1D8F1D8F1D8F1D8F1D8F1D8F1D8F1D8F1D8F1D8F1D8F1D8F1D8F1D8F1D8F1D8F1D8F1D8F1D8F1D8F1D8F1D58
:402900008F1D8F1D8F1D8F1D8F1D8F1D8F1D8F1D8F1D8F1D8F1D8F1D8F1D8F1D8F1D8F1D8F1D8F1D8F1D8F1D8F1D8F1D6500634B1B78012B43F2258500245F4B1C700FF0C5
:4029400047FD0FF0A9FC5D4B1C7038BD5C480FF031FD0FF001FD0022584B1A700122564B1A7038BD0FF0DCFA082843F00A850FF001FB0FF02DFD0FF08FFC524B1B78022B14
:4029800004D10120632107F09FFF03E00120452107F09AFF0322484B1A70642010F08EF80FF0E8FA38BD0FF0BBFA082843F0E984454B1B78DBB2AA2B4ED1434B9B79DBB295
:4029C000C32B49D1404BDB79DBB23C2B44D13E4BDB78DBB2592B2DD002D8452B1FD03BE05C2B02D07E2B30D036E00022374BDA70344B1B78012B06D10120052107F064FFED
:402A000004222D4B1A702F4B1B78022B24D10120492107F059FF1922274B1A701CE00120252107F051FF0022294B1A700F22224B1A7011E00120252107F046FF0022244B17
:402A40001A7027221C4B1A7006E00120002107F03BFF0022184B1A70642010F02FF80FF089FA38BD0FF05CFA082843F08A84164B1B78DBB2AA2B77D1134B9B79DBB2C32BB7
:402A800072D1114BDB79DBB23C2B6DD10F4AD37823F00303D3700C4BDB78DBB23B2B4BD004D80F2B16D0102B28D05DE0432B3BD07E2B52D058E000BFA283FF1F9A85FF1F12
:402AC000752200004385FF1FC88AFF1F9886FF1F5185FF1F0120062107F0F6FE0022984B1A700120242107F025FF964AD37843F00203D3700522944B1A7035E001200D21DC
:402B000007F0E2FE00228E4B1A70904B1A700120472107F00FFF8B4AD37843F00103D3700522894B1A701FE00120072107F0CCFE0622854B1A7017E0854B1B78022B04D140
:402B40000120632107F0C0FE03E00120452107F0BBFE03227C4B1A7006E00120002107F0B3FE0022784B1A7064200FF0A7FF0FF001FA38BD0FF0D4F9082843F00284754B9F
:402B80001B78DBB2AA2B40F08480724B9B79DBB2C32B7ED16F4BDB79DBB23C2B79D1684B1B786D4A1278013A93423EDC694AD278D2B2092A0FD80133DAB2614B1A70654816
:402BC000C178604B13443031D972C17830310120C9B207F0AFFE5F4BDB78DBB20A2B0BD1574B1A780132D2B21A70564B13443021D972012007F09EFE564BDB78DBB2512BBF
:402C000013D14F4B1B7883B1504A12786AB90133DAB24B4B1A704B4B13442C21D972012007F088FE0122494B1A704A4BDB78DBB20B2B1BD1424B1A783AB90120052107F0DD
:402C400043FE0422404B1A7010E00120202107F071FE3B4B1B783B4A1A44D27A2C2A02D100213A4A1170013B354A1370394BDB78DBB20C2B0DD1324B1B7853B10120072175
:402C800007F022FE2E4B1A782E4BDA7206222E4B1A7064200FF012FF0FF06CF938BD64200FF00CFF0FF03CF9082820D1294B1B78DBB2AA2B15D1274B9B79DBB2C32B10D101
:402CC000244BDB79DBB23C2B0BD1224BDB78DBB27E2B06D10120002107F0F6FD00221A4B1A7064200FF0EAFE0FF044F938BD1B4B18780AF08BFC072843F0438332200FF0AB
:402D0000DDFE164B18780AF095FC154B187032200FF0D4FE0B4BDB7813F0030324D00F4A10780F4A11780F4A0DF01EFDE0B90120002107F0C9FD0022034B1A7038BD00BF11
:402D40005185FF1F9886FF1FA283FF1FA383FF1F4385FF1FC88AFF1F4485FF1F9883FF1F3888FF1FA386FF1F01200FF04FFEAF4B18780AF05FFCAE4B1870002803F0018395
:402D8000AC4B1B7803F00F03834211D0AA4B1B7803F00F0398420BD0A84B1B7803F00F03984205D0A64B1B7803F00F03984202D101200EF059F99D4B187840F010000EF005
:402DC00041FC0120082107F07FFD07229D4B1A7038BD32200FF072FE944B18780AF016FC0A2813D00B2803D0062843F0CA821BE064200FF063FE8D4B18780AF08FFC012850
:402E000043F0BF8208228F4B1A7038BD64200FF055FE864B18780AF081FC012843F0B1820822884B1A7038BD0120002107F04CFD0022844B1A7038BD834B1B78012B02D091
:402E4000022B10D038BD01200B2107F03DFD7F480FF0B0FA0FF080FA00227D4B1A700A22784B1A7038BD7B4BDB7813F0040F43F0888201200B2107F027FD74480FF09AFAE4
:402E80000FF06AFA0022724B1A700A226D4B1A7038BD0FF045F8082840F0B3806E4B1B78DBB2AA2B40F0A8806B4B9B79DBB2C32B40F0A280684BDB79DBB23C2B40F09C8030
:402EC0000022634B1A70654B1B78062B65D8624AD278D2B2092A10D80133DAB25F4B1A705D48C1785B4B1344303183F86510C17830310120C9B207F01DFD574BDB78DBB249
:402F00000A2B0CD1554B1A780132D2B21A70514B1344302183F86510012007F00BFD4E4BDB78DBB26A2B0CD14C4B1A780132D2B21A70484B13442D2183F86510012007F023
:402F4000F9FC454BDB78DBB21A2B26D9424BDB78DBB2422B21D80022414B1A6019E03E4AD278D2B23F491944097A8A420DD13B490A780132D2B20A704133D9B2354B13443F
:402F800083F86510012007F0D5FC354A136801331360334B1B68192BE1D92F4BDB78DBB20B2B18D12D4B1A786AB901200B2107F08BFC284B002283F8652083F883200A2248
:402FC000204B1A7007E00120202107F0B3FC234A1378013B1370204BDB78DBB20C2B0BD11E4B1A7842B11B4B83F86520012283F883200D22134B1A7064200FF05FFD0EF04F
:40300000B9FF134B1B781D2B43F2BB8101200B2107F05AFC0F4A002382F8653082F883300B4A13700A22074B1A7038BD9883FF1F3888FF1F2288FF1FD488FF1F5085FF1FBB
:40304000A483FF1FA283FF1F4385FF1F752200009A85FF1F9886FF1FC88AFF1F5185FF1FA883FF1F0C81FF1F0EF05AFF082834D1AB4B1B78DBB2AA2B2AD1A94B9B79DBB273
:40308000C32B25D1A64BDB79DBB23C2B20D1A44BDB78DBB2382B0CD0392B19D101200A2107F012FC00229F4B1A7009229E4B1A700EE001200C2107F007FC01229B4B1A7058
:4030C0009B480FF077F90FF047F96422964B1A7064200FF0F3FC0EF04DFF944B1B781D2B43F24F8101200C2107F0EEFB01228F4B1A7064228C4B1A7038BD0120014607F0E3
:4031000073F9052840D90A200FF0D8FC0120212107F06AF9052837D9012007F07DF8012832D133200EF044FF0120332107F0B6F850B300227F4B1A600AE0012007F018F903
:403140007D4B1C4484F829007A4A136801331360784B1C68072CF0D90120132107F0B4FB754CE37843F00403E3704FF4FA700FF0A5FC01200E2107F0A7FB0023694A137026
:4031800023710C22684B1A700EF0CAFE082843F0F880634B1B78DBB2AA2B15D1604B9B79DBB2C32B10D15E4BDB79DBB23C2B0BD15B4BDB78DBB23B2B06D10120632107F09F
:4031C00083FB0322584B1A7064200FF077FC0EF0D1FE38BD0EF0A4FE082843F0D280504B1B78DBB2AA2B62D14D4B9B79DBB2C32B5DD14B4BDB79DBB23C2B58D1494B1B78AC
:40320000052B25D8464AD278D2B2092A0FD80133DAB2444B1A704248C178474B134430311971C17830310120C9B207F083FB3C4BDB78DBB20A2B0BD13A4B1A780132D2B288
:403240001A703D4B134430211971012007F072FB334BDB78DBB20B2B12D1324B1A783AB90120052107F030FB04222F4B1A7007E00120202107F05EFB2A4A1378013B137022
:40328000274BDB78DBB20C2B11D1264B1B7873B1294B5B79302B0AD00120052107F014FB204B1A78244B1A7104221F4B1A7064200FF004FC0EF05EFE38BD204B5878204B28
:4032C000197800221F4B1B7808F0A6FD1E4B1B78012B02D01D4B5B787BB901200C2107F0F3FA0122114B1A7011480FF063F80FF033F864220C4B1A7038BD0120312107F03C
:40330000E3FA0022074B1A700122084B1A7008480FF050F80FF020F82122034B1A7038BDC88AFF1F5185FF1FA283FF1F9A85FF1F752200005485FF1F9886FF1F9486FF1F0E
:403340003888FF1F9883FF1F4385FF1FA083FF1F0EF0E6FD082843F01480BD4B1B78DBB2AA2B40F0CA80BA4B9B79DBB2C32B40F0C480B74BDB79DBB23C2B40F0BE80B44B01
:40338000DB78DBB2652B00F084800AD85A2B50D002D8582B12D0B0E05B2B64D05D2B24D0ABE07E2B00F0A28003D8702B00F09680A3E0932B75D0962B60D09EE001203E21E6
:4033C00007F082FA0022A34B1A7006F0B9FD012801D107F02FFB06F0E3FD012801D107F087FB10229C4B1A7087E001205C2107F06BFA01200021D62240F2A71307F05EFC33
:4034000001200021892240F2AD1307F057FC01200146242240F2B31307F050FC0120014678224FF47A7307F049FC13228A4B1A7063E00120602107F047FA012007F0BCFB8C
:40344000012007F0FBFC012007F08AFE012007F00DFF012007F078FD012007F0FBFD12227D4B1A7049E001202F2107F02DFA0022784B1A701122784B1A703EE001205F21F0
:4034800007F022FA0022734B1A701B22724B1A7033E001204D2107F017FA14226E4B1A702BE001206E2107F00FFA0120014606F09BFF05280ED90A200FF000FB012007F0E5
:4034C000DDFF0120212106F08FFF052802D9012007F052FF2322604B1A700EE00120892107F0F2F929225C4B1A7006E00120002107F0EAF90022584B1A7064200FF0DEFA5B
:403500000EF038FD38BD0EF00BFD082842F039874F4B1B78DBB2AA2B40F003814C4B9B79DBB2C32B40F0FD80494BDB79DBB23C2B40F0F780474B1A78072A26D8444BDB786D
:40354000DBB2092B0ED8424BD978444B1344303183F88E1001202A2107F0ECF93D4A1378013313703A4BDB78DBB20A2B0DD1394C22783A4B1344302183F88E1001202A210C
:4035800007F0D8F9237801332370314BDB78DBB20B2B0ED12F4B1B781BB90120FFF72CF907E0013BDAB22B4B1A700120202107F0C1F9274BDB78DBB20C2B40F0B280254B36
:4035C0001A78002A00F09E80002325490B6025490B6015E0581C2449014491F8D7101F4C234493F88E30303B994204D11C490B6801330B6002E00021194B1960194B186038
:403600001046184B1B689A42E4D8174B93F8D720134B1B689A422BD10120262107F054F94FF4FA700FF04AFA104B1B78012B04D101205D2107F048F905E0022B03D10120B0
:40364000702107F041F90E22034B1A7069E000BFC88AFF1F5185FF1FA283FF1F9886FF1FA885FF1FA883FF1F3887FF1F4385FF1F0023AF4A1360AF4A136010E0AE4A1A44FD
:4036800092F82410AD4A1A4492F88E20914203D1A7490A6801320A600133A64A1360A54B1B689842EAD8A24B1B68082B1AD10120262107F009F94FF4FA700FF0FFF9A04BF5
:4036C0001B78012B04D101205D2107F0FDF805E0022B03D10120702107F0F6F80E22994B1A701EE00120272107F0EEF80122964B1A7096480EF05EFE0EF02EFE6422914BFA
:403700001A700EE00120272107F0DEF801228E4B1A708E480EF04EFE0EF01EFE6422894B1A7064200FF0CAF90EF024FC38BD0EF0F7FB082842F02586854B1B78DBB2AA2B1C
:403740003ED1834B9B79DBB2C32B39D1804BDB79DBB23C2B34D17E4BDB78DBB23F2B04D07E2B26D03E2B2BD116E00120402107F0ABF80023774A1370774A13700120612170
:40378000062207F0D7F801206D21072207F0D2F815226C4B1A7013E001203F2107F094F800236C4A13706C4A13701622654B1A7006E00120702107F087F80E22614B1A7098
:4037C00064200FF07BF90EF0D5FB38BD0EF0A8FB082842F0D6855E4B1B78DBB2AA2B7BD15B4B9B79DBB2C32B76D1594BDB79DBB23C2B71D1574B1A78072A27D8544BDB78C7
:40380000DBB2092B10D85248C1784C4B1344303183F88E10C17830310120C9B207F08AF84C4A137801331370494BDB78DBB20A2B0CD1484C2278414B1344302183F88E101C
:40384000012007F077F8237801332370404BDB78DBB20B2B0ED13F4B1B781BB90120FEF7CBFF07E0013BDAB23A4B1A700120202107F060F8364BDB78DBB20C2B2CD1354B8A
:403880001B78052B28D90120392107F01DF8314B1978324B83F8D7100022264B1A600BE0581C264A134493F88E202C4B0344303A83F8D7201F4B18601E4B1B689942EFD85B
:4038C0006020274906F0FCFB18B90120552106F0FBFF00221B4B1A7064200FF0EFF80EF049FB38BD0EF01CFB082842F04A85184B1B78DBB2AA2B40F0A580154B9B79DBB2EC
:40390000C32B40F09F80124BDB79DBB23C2B40F099800F4BDB78DBB27A2B73D022D8772B54D0782B60D0762B40F08C8025E000BFA885FF1FA883FF1F0C81FF1F9886FF1F8B
:403940004385FF1FA283FF1F9A85FF1F75220000C88AFF1F5185FF1FA383FF1F3887FF1F0F88FF1F822B15D002D87E2B63D069E0832B1DD0952B52D064E00120302106F056
:40398000A3FF0023B04A1370B04A13701822B04B1A7057E00120792106F096FF0222AA4B1A700022A94B1A701822A94B1A7049E001207A2106F088FF0322A34B1A700022F0
:4039C000A24B1A701822A24B1A703BE00120782106F07AFF01229C4B1A7000229B4B1A7018229B4B1A702DE00120652106F06CFF0122954B1A700022944B1A701722944B46
:403A00001A701FE00120322106F05EFF00238E4A13708E4A137017228D4B1A7012E08D4B1B78022B0ED10120662106F04DFF2022874B1A7006E00120702106F045FF0E22CF
:403A4000834B1A7064200FF039F80EF093FA38BD0EF066FA082842F094847F4B1B78DBB2AA2B6AD17C4B9B79DBB2C32B65D17A4BDB79DBB23C2B60D1774BDB787E3B042B21
:403A80005BD8DFE803F05303172B3F000120062106F01AFF00226D4B1A70704B1978704B83F8A3100120242106F044FF1A22684B1A7042E00120062106F006FF0022634B05
:403AC0001A70684B1978664B83F8A3100120242106F030FF1A225E4B1A702EE00120062106F0F2FE0022594B1A705F4B19785C4B83F8A3100120242106F01CFF1A22544B31
:403B00001A701AE00120062106F0DEFE00224F4B1A70564B1978524B83F8A3100120242106F008FF1A224A4B1A7006E00120702106F0CAFE0E22464B1A7064200EF0BEFF06
:403B40000EF018FA38BD0EF0EBF9082842F01984414B1B78DBB2AA2B40F061813E4B9B79DBB2C32B40F05B813B4BDB79DBB23C2B40F05581384BDB78DBB2632B35D002D804
:403B8000622B07D04BE1642B00F0EB807E2B00F03F8144E10120392106F096FE64200EF08DFF334B187809F031FD062819D1304B187909F02BFD06280FD101204A2106F0F0
:403BC00083FE4FF47A700EF079FF0120002106F07BFE00221E4B1A7021E10120FEF70CFE1DE10120FEF708FE19E10120372106F06BFE204B5B78012B61D100221E4B1A602C
:403C00000AE01E4A1344012093F82C1006F0E0FA194A136801331360174B1B68102BF0D901200A2106F0D4FA01200A2106F0D0FA01200A2106F0CCFA01200A2106F0C8FA8D
:403C400000220D4B1A6026E09B85FF1F5185FF1FA283FF1F4385FF1FC88AFF1F2288FF1F3887FF1FD488FF1F5085FF1FA483FF1F9883FF1F9086FF1FA883FF1F0C81FF1FC7
:403C8000A34A1344022093F82C1006F0A1FAA14A1368013313609F4B1B68102BF0D902200A2106F095FA02200A2106F091FA02200A2106F08DFA02200A2106F089FA964BB7
:403CC0005B78022B45D10022924B1A600AE0904A1344032093F82C1006F07AFA8D4A1368013313608B4B1B68102BF0D903200A2106F06EFA03200A2106F06AFA03200A21CE
:403D000006F066FA03200A2106F062FA0022814B1A600AE07E4A1344042093F82C1006F057FA7C4A1368013313607A4B1B68102BF0D904200A2106F04BFA04200A2106F0E7
:403D400047FA04200A2106F043FA04200A2106F03FFA01206B2106F0B7FD25226F4B1A705DE0012006F058FA01284DD133200EF01FF90120332106F091FA00284FD000226B
:403D8000674B1A600AE0012006F0F2FA654B1C4484F82900624A136801331360604B1C68072CF0D90023604A13705D4A13600CE05D4C5C4A1344207893F8291006F074FD7D
:403DC0002070574A136801331360554B1B68062BEED9544B93F83020534B1B789A420FD101204B2106F070FD4FF47A700EF066FE0120702106F068FD0E22484B1A700EE027
:403E00000120FEF7F9FC0AE00120FEF7F5FC06E00120702106F058FD0E22404B1A7064200EF04CFE0EF0A6F838BD0EF079F8082842F0A7823D4B1B78DBB2AA2B40F0408199
:403E40003A4B9B79DBB2C32B40F03A81374BDB79DBB23C2B40F03481354B1B78042B00F2C880DFE813F005002E006900C600A1002E4AD278D2B2012A0FD80133DAB22C4BBC
:403E80001A702A4CE17830310120C9B206F052FDE3781B01274A82F8A130244BDB78DBB20A2B40F0A680224B1A780132D2B21A700021204B83F8A1100120302106F03AFDC3
:403EC00097E01A4AD278D2B2092A11D80133DAB2174B1A70154CE17830310120C9B206F029FDE178134A92F8A1300B4382F8A1300E4BDB78DBB20A2B7BD10D4B1A780132FD
:403F0000D2B21A700120302106F014FD71E000BF0C81FF1FA883FF1F9086FF1FA283FF1F5485FF1F9886FF1F4585FF1FC88AFF1F5185FF1F3887FF1F9F4AD278D2B2052A3D
:403F400017D80133DAB29D4C227001203A2106F0F1FC22780132D2B22270974CE17830310120C9B206F0E6FCE3781B01944A82F8A030914BDB78DBB20A2B3AD18F4C2278B4
:403F80000132D2B2227001203A2106F0D3FC22780132D2B222700120302106F0CBFC0022874B83F8A02024E0834AD278D2B2092A11D80133DAB2814B1A707F4CE1783031E0
:403FC0000120C9B206F0B6FCE1787D4A92F8A0300B4382F8A030784BDB78DBB20A2B08D1764B1A780132D2B21A700120302106F0A1FC714BDB78DBB2402B17D1714B1B78E3
:404000003BB901206F4B18707021062206F092FC07E000226B4B1A7001206121062206F089FC01206D21072206F084FC624BDB78DBB20B2B1BD1614B1A7882B9624B1B78A7
:40404000012B04D101205D2106F03EFC03E00120702106F039FC0E225C4B1A7007E00120202106F067FC554A1378013B1370524BDB78DBB20C2B23D1504B1B78052B1FD1CE
:40408000504B1B7843F002024D4991F8A13043EA421381F8A13005F0B3FF012810D14A4B1B78012B03D15D2106F00EFC05E0022B03D10120702106F007FC0E22434B1A70AF
:4040C00064200EF0FBFC0DF055FF38BD0DF028FF082842F05681384B1B78DBB2AA2B40F07281354B9B79DBB2C32B40F06C81324BDB79DBB23C2B40F06681304B1A78072AC3
:4041000000F22281DFE812F008003100640020019D00C3002001FB00274BDB78DBB2032B0FD8254CE17830310120C9B206F002FC224A137801331370E3781B01204A82F8BC
:404140009D301D4BDB78DBB20A2B40F0FD8000221B4B83F89D20194C01203021227806F0E9FB237801332370EEE0134BDB78DBB2092B11D8104CE17830310120C9B206F00A
:40418000D9FBE1780E4A92F89D300B4382F89D300A4A137801331370074BDB78DBB20A2B40F0D280054C01203021227806F0C2FB237801332370C7E0C88AFF1F5185FF1F92
:4041C0003887FF1FA383FF1F4385FF1FA283FF1FAA4BDB78DBB2012B17D801202F2106F0A9FBA74C22780132D2B22270A34DE97830310120C9B206F09DFBEB781B01A14A5E
:4042000082F89E302378013323709C4BDB78DBB20A2B40F099809A4C01202F21227806F089FB22780132D2B222700120302106F081FB0022934B83F89E20237801332370C2
:4042400082E08E4BDB78DBB2092B11D88B4CE17830310120C9B206F06DFBE178894A92F89E300B4382F89E30854A137801331370824BDB78DBB20A2B66D1814C01203021F8
:40428000227806F057FB2378013323705CE07B4BDB78DBB2092B17D801202F2106F04AFB774C22780132D2B22270744DE97830310120C9B206F03EFBEB781B01714A82F861
:4042C0009F302378013323706C4BDB78DBB20A2B3AD16B4C01202F21227806F02BFB22780132D2B222700120302106F023FB0022644B83F89F2023780133237024E05F4B54
:40430000DB78DBB2092B11D85C4CE17830310120C9B206F00FFBE1785A4A92F89F300B4382F89F30564A137801331370534BDB78DBB20A2B08D1524C01203021227806F087
:40434000F9FA2378013323704C4BDB78DBB20B2B1BD14B4B1B7883B94B4B1B78012B04D101205D2106F0B0FA03E00120702106F0ABFA0E22454B1A7007E0013BDAB2404BCD
:404380001A700120202106F0D5FA3C4BDB78DBB20C2B18D13A4B1B78082B14D105F05EFE012810D1384B1B78012B03D15D2106F08BFA05E0022B03D10120702106F084FA1F
:4043C0000E22324B1A7064200EF078FB0DF0D2FD38BD0DF0A5FD082841F0D387274B1B78DBB2AA2B40F01A81244B9B79DBB2C32B40F01481214BDB79DBB23C2B40F00E810E
:404400001F4B1B780C2B6ED81C4AD278D2B2092A1ED80133DAB21A4B1A701D4B1B7813B1012B07D00DE0154BD978164B13443031997706E0114BD978124B1344303183F84A
:404440002F100E4BD97830310120C9B207F09AF80A4BDB78DBB20A2B25D1094B1A780132D2B21A700A4B1B7813B1012B12D016E0044B13443021997711E000BFC88AFF1F6F
:404480005185FF1F3887FF1F4385FF1FA283FF1F9B85FF1FA24B1344302183F82F100120302107F06FF89F4BDB78DBB2512B1AD19D4B1B78BBB10133DAB29B4B1A709B4B77
:4044C0001B7813B1012B05D009E0954B13442E21997704E0924B13442E2183F82F1001202E2107F04FF88F4BDB78DBB20B2B49D18D4B1A78002A3DD18D4B1B78012B04D1FE
:4045000001205D2106F0E0F903E00120702106F0DBF90E22874B1A702F200C2105F00EFE0022854B1A6008E0844AD15C7C4A1A4482F82F100133804A1360804B1A787E4BE2
:404540001B689A42F0D220200F2105F0F7FD0022794B1A6007E0794AD15C714A1A4491770133754A1360754B1A78734B1B689A42F1D207E00120202107F004F86A4A137856
:40458000013B1370674BDB78DBB20C2B46D1684B1B78012B04D101205D2106F095F903E00120702106F090F90E22624B1A705F4B1B7813B1012B19D030E05B4B1B78584977
:4045C00001F81E3F202005F07BFD38BB0120552106F07AF94FF47A700EF070FA0120002106F072F96422534B1A7017E04E4B1B784B4901F82F3F2F2005F062FD70B90120D4
:40460000552106F061F94FF47A700EF057FA0120002106F059F96422464B1A7064200EF04DFA0DF0A7FC38BD0DF07AFC082841F0A8863C4B1B78DBB2AA2B40F0EF82394B0C
:404640009B79DBB2C32B40F0E982364BDB79DBB23C2B40F0E382344B1B78172B00F2D381304AD278D2B2092A37D80133DAB22E4B1A702E4B1B78042B28D8DFE803F00309CA
:4046800011192100274BDB78303325498B541DE0244BD978224B1344303183F8431015E0204BD9781E4B1344303183F861100DE01C4BD9781A4B1344303183F87F1005E01B
:4046C000184BD9781E4B13443031D972154BD97830310120C9B206F055FF124BDB78DBB20A2B3DD1104B1A780132D2B21A700F4B1B78042B30D8DFE803F003070D252B00AF
:404700003021074B995427E0054B1344302183F8431021E0024B1344302183F861101BE03887FF1FC88AFF1F5185FF1F9B85FF1F4385FF1FA283FF1FA883FF1F5885FF1F53
:404740009886FF1F9C4B1344302183F87F1003E09A4B13443021D9720120302106F012FF974BDB78DBB2672B2BD1964B1A780132D2B21A70944B1B78042B1ED8DFE803F0DB
:4047800003070D13190023218B4B995415E08A4B1344232183F843100FE0874B1344232183F8611009E0844B1344232183F87F1003E0824B13442321D9720120232106F0E6
:4047C000E1FE7F4BDB78DBB26A2B2BD17D4B1A780132D2B21A707C4B1B78042B1ED8DFE803F003070D1319002D21734B995415E0714B13442D2183F843100FE06E4B13446C
:404800002D2183F8611009E06B4B13442D2183F87F1003E0694B13442D21D97201202D2106F0B0FE664BDB78DBB2662B2BD1654B1A780132D2B21A70634B1B78042B1ED84F
:40484000DFE803F003070D13190040215A4B995415E0594B1344402183F843100FE0564B1344402183F8611009E0534B1344402183F87F1003E0514B13444021D972012009
:40488000402106F07FFE4E4BDB78DBB2692B2BD14C4B1A780132D2B21A704B4B1B78042B1ED8DFE803F003070D1319002E21424B995415E0404B13442E2183F843100FE0BA
:4048C0003D4B13442E2183F8611009E03A4B13442E2183F87F1003E0384B13442E21D97201202E2106F04EFE354BDB78DBB2682B2BD1344B1A780132D2B21A70324B1B7826
:40490000042B1ED8DFE803F003070D1319002021294B995415E0284B1344202183F843100FE0254B1344202183F8611009E0224B1344202183F87F1003E0204B1344202124
:40494000D9720120202106F01DFE1D4BDB78DBB21A2B58D91A4BDB78DBB2422B53D800221A4B1A604BE0164BDB78DBB2184A0A44127A93423FD1134B1A780132D2B21A701F
:40498000114B1B78042B31D8DFE803F003080F242B0001F141030848835427E0064B134401F1410083F8430020E0034B134401F1410083F8610019E03887FF1F9886FF1FEA
:4049C000C88AFF1F5185FF1F9B85FF1FA883FF1F0C81FF1FAB4B134401F1410083F87F0004E0A94B134401F14100D87241310120C9B206F0C7FDA54A136801331360A34B34
:404A000019681929AFD9A24BDB78DBB20B2B76D1A04B1A78002A6AD19F4B1B78012B04D101205D2105F050FF03E00120702105F04BFF0E22994B1A704020202105F07EFB1D
:404A40000022924B1A6008E0954AD15C8D4A1A4482F8431001338D4A1360914B1A788B4B1B689A42F0D28020202105F067FB0022864B1A6008E08A4AD15C824A1A4482F8B2
:404A800061100133814A1360854B1A787F4B1B689A42F0D2A020202105F050FB00227B4B1A6008E07E4AD15C764A1A4482F87F100133764A13607A4B1A78744B1B689A4243
:404AC000F0D20020202105F039FB00226F4B1A6006E0734AD15C6B4AD15401336B4A13606F4B1A78694B1B689A42F2D207E00120202106F047FD674A1378013B1370644BBE
:404B0000DB78DBB20C2B40F08980634B1B78012B04D101205D2105F0D7FE03E00120702105F0D2FE0E225D4B1A705E4B1B78042B74D8DFE803F0031C364F68005149554B07
:404B40001B780B70002005F0BBFA002866D10120552105F0B9FE4FF42F700DF0AFFF0120002105F0B1FE64224C4B1A7056E0494B1B78444901F8433F402005F0A1FA002824
:404B80004CD10120552105F09FFE4FF42F700DF095FF0120002105F097FE64223F4B1A703CE03C4B1B78374901F8613F802005F087FA98BB0120552105F086FE4FF42F702C
:404BC0000DF07CFF0120002105F07EFE6422334B1A7023E02F4B1B782A4901F87F3FA02005F06EFAD0B90120552105F06DFE4FF42F700DF063FF0120002105F065FE6422C4
:404C0000264B1A700AE00120392105F05DFE214B1A781D4BDA722422204B1A7064200DF04DFF0DF0A7F938BD0DF07AF9082841F0A883174B1B78DBB2AA2B3CD1144B9B79A5
:404C4000DBB2C32B37D1124BDB79DBB23C2B32D10F4BDB78DBB25F2B04D07E2B24D05E2B29D107E00120052105F02EFE04220B4B1A7020E001201D2105F026FE0B22074B05
:404C80001A7018E03887FF1F9886FF1FA883FF1FC88AFF1F5185FF1F4385FF1FA283FF1F5885FF1F9B85FF1F0120002105F00CFE0022AF4B1A7064200DF000FF0DF05AF993
:404CC00038BD0DF02DF9082841F05B83A94B1B78DBB2AA2B40F0C680A64B9B79DBB2C32B40F0C080A34BDB79DBB23C2B40F0BA80A14B1B78062B25D89E4AD278D2B2092AD8
:404D00000FD80133DAB29C4B1A709A48C1789B4B13443031D972C17830310120C9B205F009FE944BDB78DBB20A2B0BD1924B1A780132D2B21A70914B13443021D9720120B5
:404D400005F0F8FD8B4BDB78DBB20B2B24D18A4B1A7882B98A4B1B78012B04D101205D2105F0B2FD03E00120702105F0ADFD0E227F4B1A7010E00120202105F0DBFD7E4B7A
:404D80001B787E4A1A44D27A2C2A02D100217D4A1170013B784A1370764BDB78DBB20C2B60D1754B1B78032B5CD90622704B1A700120392105F088FD6F4B1A786F4BDA7268
:404DC000714B18780BF012FF002848D06F4B93F8A3206F4B1B789A4204D140F2A7106D4905F06EF9694B93F8A3206B4B1B789A4204D140F2AD10674905F062F9634B93F8F6
:404E0000A320664B1B789A4204D140F2B310614905F056F95D4B93F8A320614B1B789A4204D14FF47A705B4905F04AF901203C2105F04AFD4FF4FA700DF040FE504B1B7818
:404E4000012B04D101205D2105F03EFD03E00120702105F039FD0E22454B1A7002E00120FDF7CAFC64200DF029FE0DF083F838BD0DF056F8082841F084823E4B1B78DBB22B
:404E8000AA2B50D13B4B9B79DBB2C32B4BD1394BDB79DBB23C2B46D1364BDB787E3B032B41D8DFE803F0390226310120582105F00BFD01200021732240F2C11305F060FF00
:404EC00001200021CF2240F2C31305F059FF01200146292240F2C51305F052FF012001467B2240F2EE3305F04BFF1C22204B1A7019E00120062105F0E7FC00221E4B1A702F
:404F00001D221B4B1A700EE001206D2105F0DCFC1E22174B1A7006E00120702105F0D4FC0E22134B1A7064200DF0C8FD0DF022F838BD0CF0F5FF082841F023820D4B1B7804
:404F4000DBB2AA2B71D10B4B9B79DBB2C32B6CD1084BDB79DBB23C2B67D1064BDB787E3B042B62D8DFE803F05A1E2D3C4B0000BFA283FF1FC88AFF1F5185FF1F9886FF1F4A
:404F80004385FF1FA383FF1F9883FF1F3887FF1FD488FF1FA386FF1F2288FF1F5085FF1FA483FF1F0120062105F08EFC0022AF4B1A700122AE4B83F8A3201F22AD4B1A7066
:404FC00033E00120062105F07FFC0022A74B1A700222A74B83F8A3201F22A64B1A7024E00120062105F070FC0022A04B1A7003229F4B83F8A3201F229E4B1A7015E00120DD
:40500000062105F061FC0022984B1A700422984B83F8A3201F22974B1A7006E00120702105F052FC0E22934B1A7064200DF046FD0CF0A0FF38BD0CF073FF082841F0A181BC
:405040008D4B1B78DBB2AA2B40F0BE808A4B9B79DBB2C32B40F0B880874BDB79DBB23C2B40F0B280814B1B78042B36D8824AD278D2B2092A0FD80133DAB27C4B1A707E4886
:40508000C1787E4B13443031D972C17830310120C9B205F04FFC784BDB78DBB20A2B0BD1724B1A780132D2B21A70744B13443021D972012005F03EFC6F4BDB78DBB2512B19
:4050C0000BD16A4B1A780132D2B21A706B4B13442C21D972012005F02DFC674BDB78DBB20B2B24D1614B1A7882B9654B1B78012B04D101205D2105F0E7FB03E001207021E3
:4051000005F0E2FB0E225B4B1A7010E00120202105F010FC554B1B78584A1A44D27A2C2A02D10021574A1170013B504A1370524BDB78DBB20C2B47D14C4B1B78052B43D16C
:405140004E4B1B7B353BDBB2022B3DD80120392105F0BAFB454B1B78484901F80B3F4FF4DD7004F0ADFF012805D1444B1B7B03F00F03454A137040F25A20444904F0A0FF6E
:40518000012821D13D4A937B03F00F0340490B70137C03F00F033F4A13703C2105F094FB4FF4FA700DF08AFC354B1B78012B04D101205D2105F088FB03E00120702105F0D0
:4051C00083FB0E222B4B1A7064200DF077FC0CF0D1FE38BD0CF0A4FE082841F0D280264B1B78DBB2AA2B40F08B80234B9B79DBB2C32B40F08580204BDB79DBB23C2B7FD126
:405200001D4BDB78DBB28F2B04D0902B46D07E2B76D16EE01649002381F82D3081F82E304FF4DE702D3104F04BFF01281AD10022194B1A703C2105F047FB4FF4FA700DF0CB
:405240003DFC0F4B1B78012B04D101205D2105F03BFB03E00120702105F036FB0E22054B1A704DE00120FDF7C7FA49E05185FF1F3887FF1FA283FF1FC88AFF1F9886FF1F8C
:405280004385FF1FA383FF1F4485FF1FA386FF1FA583FF1F2388FF1FA685FF1FAE49012381F82D3081F82E304FF4DE702D3104F007FF012819D1A94B18703C2105F004FBAD
:4052C0004FF4FA700DF0FAFBA54B1B78012B04D101205D2105F0F8FA03E00120702105F0F3FA0E229F4B1A700AE00220FDF784FA06E00120702105F0E7FA0E22994B1A7060
:4053000064200DF0DBFB0CF035FE38BD0CF008FE082841F03680944B1B78DBB2AA2B40F0B380914B9B79DBB2C32B40F0AD808E4BDB79DBB23C2B40F0A7808C4B1B782BBB12
:40534000894AD278D2B2092A0FD80133DAB2874B1A708548C178864B13443031D972C17830310120C9B205F0E5FA7F4BDB78DBB20A2B0BD17D4B1A780132D2B21A707C4B55
:4053800013443021D972012005F0D4FA764BDB78DBB20B2B1BD1754B1A783AB90120702105F092FA0E226F4B1A7010E00120202105F0C0FA6D4B1B786D4A1A44D27A2C2A64
:4053C00002D100216B4A1170013B684A1370664BDB78DBB20C2B57D1644B1B78012B53D10120392105F070FA604B1A78604BDA72594B93F8A330012B08D15D490A7B5E4BA7
:405400001A7040F2C1100B3104F05AFE524B93F8A330022B08D156490A7B584B1A7040F2C3100B3104F04CFE4B4B93F8A330032B08D14F490A7B524B1A7040F2C5100B3104
:4054400004F03EFE444B93F8A330042B08D148490A7B4C4B1A7040F2EE300B3104F030FE4FF4FA700DF02AFB3D4B1B78012B04D101205D2105F028FA03E00120702105F0F7
:4054800023FA0E22374B1A7064200DF017FB0CF071FD38BD0CF044FD082840F07287324B1B78DBB2AA2B40F0B8822F4B9B79DBB2C32B40F0B2822C4BDB79DBB23C2B40F0D3
:4054C000AC82294BDB787E3B252B00F2A682DFE813F08302A402A402A402A402A4022600190165003C018900AD00F500D100A402A402A402A402A402A402A402A402610296
:40550000A402A4023E0260018401A402A402A402A402A402A402A801CC01F7011B021A4901230B7000234B7040F2C71004F0C8FD012840F072823C2105F0C6F94FF4FA70DD
:405540000DF0BCFA064B1B78012B1FD101205D2105F0BAF91EE000BF3887FF1FA685FF1F4385FF1FA283FF1FC88AFF1F5185FF1F9886FF1FA383FF1F2288FF1FD488FF1FFF
:405580005085FF1FA483FF1F4C85FF1F0120702105F09AF90E22C74B1A703EE2C64901230B700B234B7040F2C71004F089FD012840F033823C2105F087F94FF4FA700DF0FA
:4055C0007DFABE4B1B78012B04D101205D2105F07BF903E00120702105F076F90E22B54B1A701AE2B44901230B7004234B7040F2C71004F065FD012840F00F823C2105F0C7
:4056000063F94FF4FA700DF059FAAC4B1B78012B04D101205D2105F057F903E00120702105F052F90E22A34B1A70F6E1A24901230B700C234B7040F2C71004F041FD012876
:4056400040F0EB813C2105F03FF94FF4FA700DF035FA9A4B1B78012B04D101205D2105F033F903E00120702105F02EF90E22914B1A70D2E1904901230B7009234B7040F267
:40568000C71004F01DFD012840F0C7813C2105F01BF94FF4FA700DF011FA884B1B78012B04D101205D2105F00FF903E00120702105F00AF90E227F4B1A70AEE17E490123BB
:4056C0000B7008234B7040F2C71004F0F9FC012840F0A3813C2105F0F7F84FF4FA700DF0EDF9764B1B78012B04D101205D2105F0EBF803E00120702105F0E6F80E226D4BED
:405700001A708AE16C4901230B704B7040F2C71004F0D6FC012840F080813C2105F0D4F84FF4FA700DF0CAF9644B1B78012B04D101205D2105F0C8F803E00120702105F090
:40574000C3F80E225B4B1A7067E15B4901230B7006234B7040F2C71004F0B2FC012840F05C813C2105F0B0F84FF4FA700DF0A6F9524B1B78012B04D101205D2105F0A4F81A
:4057800003E00120702105F09FF80E22494B1A7043E1494901230B700E234B7040F2C71004F08EFC012840F038813C2105F08CF84FF4FA700DF082F9404B1B78012B04D186
:4057C00001205D2105F080F803E00120702105F07BF80E22374B1A701FE1374901230B700D234B7040F2C71004F06AFC012840F014813C2105F068F84FF4FA700DF05EF956
:405800002E4B1B78012B04D101205D2105F05CF803E00120702105F057F80E22254B1A70FBE0254901230B7003234B7040F2C71004F046FC012840F0F0803C2105F044F811
:405840004FF4FA700DF03AF91C4B1B78012B04D101205D2105F038F803E00120702105F033F80E22134B1A70D7E0134901230B7005234B7040F2C71004F022FC012840F0B6
:40588000CC803C2105F020F84FF4FA700DF016F90A4B1B78012B04D101205D2105F014F803E00120702105F00FF80E22014B1A70B3E000BFA283FF1F4C85FF1F4385FF1FEF
:4058C000BF4901230B7007234B7040F2C71004F0F7FB012840F0A1803C2104F0F5FF4FF4FA700DF0EBF8B74B1B78012B04D101205D2104F0E9FF03E00120702104F0E4FF64
:405900000E22B14B1A7088E0AD4901230B700A234B7040F2C71004F0D3FB01287DD13C2104F0D2FF4FF4FA700DF0C8F8A54B1B78012B04D101205D2104F0C6FF03E001201E
:40594000702104F0C1FF0E229F4B1A7065E09C4901230B7002234B7040F2C71004F0B0FB01285AD13C2104F0AFFF4FF4FA700DF0A5F8944B1B78012B04D101205D2104F04D
:40598000A3FF03E00120702104F09EFF0E228E4B1A7042E08A4900230B704B7040F2C71004F08EFB012838D13C2104F08DFF4FF4FA700DF083F8834B1B78012B04D1012001
:4059C0005D2104F081FF03E00120702104F07CFF0E227D4B1A7020E0794900230B704B7040F2C71004F06CFB01280FD1754B1B78012B03D15D2104F067FF03E001207021E7
:405A000004F062FF0E22704B1A7006E00120002104F05AFF00226C4B1A7064200DF04EF80CF0A8FA38BD0CF07BFA08284ED1674B1B78DBB2AA2B44D1644B9B79DBB2C32BB0
:405A40003FD1624BDB79DBB23C2B3AD15F4BDB78DBB20A2B21D15E4B58785E4B197801225D4B1B7806F0D8F94FF4FA700DF026F801200C2104F028FF4FF42F700DF01EF867
:405A80000120002104F020FF54480CF093FC0CF063FC64224C4B1A7013E001200C2104F013FF4FF42F700DF009F80120002104F00BFF4A480CF07EFC0CF04EFC6422424BA0
:405AC0001A7064200CF0FAFF0CF054FA444B1B78132B40F2568401200C2104F0F5FE4FF4FA700CF0EBFF0120002104F0EDFE00223B4B1A706422344B1A7038BD0CF010FA48
:405B0000082840F03E84314B1B78DBB2AA2B72D12E4B9B79DBB2C32B6DD12C4BDB79DBB23C2B68D1294BDB78DBB2392B10D002D8382B05D05FE07E2B56D0942B34D05AE09C
:405B40000120002104F0C0FE00221F4B1A7052E001203B2104F0B8FE1D4C607807F06AF960780A2104F034FB60780A2104F030FB60780A2104F02CFB60781D2104F028FB94
:405B80006078562104F024FB6078312104F020FB0122134B1A7011480CF00CFC0CF0DCFB0022094B1A7026E001202F2104F08CFE00220C4B1A702822034B1A701BE000BF3B
:405BC0004C85FF1F4385FF1FA283FF1FC88AFF1F9486FF1F3888FF1F9883FF1F752200009A85FF1F5185FF1F0120002104F06CFE0022B84B1A7064200CF060FF0CF0BAF929
:405C000038BD0CF08DF9082840F0BB83B24B1B78DBB2AA2B3CD1B04B9B79DBB2C32B37D1AD4BDB79DBB23C2B32D1AB4BDB78DBB2912B04D0922B13D07E2B29D121E00120B0
:405C40000A2104F041FE0122A44B1A700422A44B1A700022A34B1A7018229E4B1A7017E001206F2104F030FE21229C4B1A7004229B4B1A7000229B4B1A701822954B1A70FA
:405C800006E00120002104F01FFE0022914B1A7064200CF013FF0CF06DF938BD924B012013F80B1F8D4A127804F078FC01281FD16E2104F009FE0120014604F095FB052882
:405CC0000FD90A200CF0FAFE012005F0D7FB0120212104F089FB052806D9012005F04CFB02E00120FCF788FD23227A4B1A7038BD0120FCF781FD38BD0CF012F9082840F080
:405D00004083754B1B78DBB2AA2B77D1724B9B79DBB2C32B72D1704BDB79DBB23C2B6DD16D4BDB78DBB2392B04D07E2B47D0382B64D13CE06D4B5A78012A07D16C49012329
:405D40000B704B706B490B7002234B70022A08D1674B01221A7003215970664B1A7004225A7040F26320624904F0AAF9012845D140F265205F4904F0A3F901283ED168217C
:405D800004F0A2FD4FF4FA700CF098FE5A4B1B78012B04D101205D2104F096FD03E00120702104F091FD0E224A4B1A7026E00120672104F089FD2622464B1A701EE04F4B28
:405DC0005B78012B03D100224C4B5A7002E001224A4B5A7040F2DA30484904F071F901203C2104F071FD4FF4FA700CF067FE0120702104F069FD0E22364B1A7064200CF009
:405E00005DFE0CF0B7F838BD0CF08AF8082840F0B882314B1B78DBB2AA2B40F0E0802E4B9B79DBB2C32B40F0DA802B4BDB79DBB23C2B40F0D480284BDB78DBB28C2B0AD096
:405E400003D87E2B00F0C480C9E08D2B58D08E2B00F09180C3E0254B5B78012B07D1244A0120107002215170224A10705170022B07D11F4B0121197004225A701D4B1970A2
:405E80005A7040F263201A4904F01AF9012840F0A68040F26520174904F012F9012840F09E806A2104F010FD4FF4FA700CF006FE114B1B78012B04D101205D2104F004FD30
:405EC00003E00120702104F0FFFC0E22014B1A7085E000BFA283FF1FC88AFF1F9C85FF1F9B85FF1F5185FF1F9886FF1F9086FF1F9486FF1F3487FF1F4385FF1FA083FF1F28
:405F0000AE4B5A78012A06D1AD4901230B704B70AC490B704B70022A07D1A94B0121197003225A70A74B19705A7040F26320A44904F0C6F8012852D140F26520A14904F00D
:405F4000BFF801284BD1692104F0BEFC4FF4FA700CF0B4FD9C4B1B78012B04D101205D2104F0B2FC03E00120702104F0ADFC0E22964B1A7033E092490120087000224A70A7
:405F8000904B18705A7040F2632004F099F8012825D140F265208B4904F092F801281ED16C2104F091FC4FF4FA700CF087FD864B1B78012B04D101205D2104F085FC03E0A3
:405FC0000120702104F080FC0E22804B1A7006E00120702104F078FC0E227C4B1A7064200CF06CFD0BF0C6FF38BD0BF099FF082840F0C781764B1B78DBB2AA2B40F0D78063
:40600000734B9B79DBB2C32B40F0D180704BDB79DBB23C2B40F0CB806E4B1A78032A26D86B4BDB78DBB2092B0ED8694BD9786A4B1344303183F88E1001202A2104F07AFC8D
:40604000644A137801331370614BDB78DBB20A2B0DD1604C2278604B1344302183F88E1001202A2104F066FC237801332370584BDB78DBB20B2B0ED1564B1B781BB90120FA
:40608000FCF7BAFB07E0013BDAB2524B1A700120202104F04FFC4E4BDB78DBB20C2B40F086804C4B1A78002A72D000234B490B604B490B6012E0591C4A48405C464C234497
:4060C00093F88E30984204D1444803680133036002E00020414B1860414B19601046404B1B689A42E7D83F4B1A783C4B1B689A420FD10120262104F0E7FB4FF4FA700CF047
:40610000DDFC0120712104F0DFFB22222F4B1A704DE00023314A1360314A136010E0314A1A4492F824102C4A1A4492F88E20914203D12A490A6801320A600133284A1360BC
:40614000274B1B689842EAD8244B1B68042B0FD10120262104F0B8FB4FF4FA700CF0AEFC0120712104F0B0FB2222184B1A701EE00120272104F0A8FB01221B4B1A701B4834
:406180000CF018F90CF0E8F86422104B1A700EE00120272104F098FB0122134B1A7013480CF008F90CF0D8F86422084B1A7064200CF084FC0BF0DEFE38BD00BF9086FF1F5C
:4061C0009486FF1F3487FF1F4385FF1FA283FF1FC88AFF1F5185FF1F9886FF1FA885FF1FA883FF1F0C81FF1F9A85FF1F752200000BF096FE082840F0C480624B1B78DBB2B2
:40620000AA2B78D15F4B9B79DBB2C32B73D15D4BDB79DBB23C2B6ED15B4B1A78032A27D8584BDB78DBB2092B10D85648C178574B1344303183F88E10C17830310120C9B211
:4062400004F078FB504A1378013313704D4BDB78DBB20A2B0CD14C4C22784C4B1344302183F88E10012004F065FB237801332370444BDB78DBB20B2B0ED1434B1B781BB977
:406280000120FCF7B9FA07E0013BDAB23E4B1A700120202104F04EFB3A4BDB78DBB20C2B29D1394B1B78042B25D10120392104F00BFB354B1A78364B1A700021354B196038
:4062C00008E0591C3148034493F88E00304B5854304B19602F4B1B689A42F2D840F29F202B4903F0EDFE18B90120552104F0ECFA0022294B1A7064200CF0E0FB0BF03AFE77
:4063000038BD0BF00DFE08283BD11E4B1B78DBB2AA2B31D11B4B9B79DBB2C32B2CD1194BDB79DBB23C2B27D1164BDB78DBB2BC2B02D0BD2B10D01FE0184901240C704C70B1
:406340004FF47D7003F0BCFE2046702104F0BCFA0E22114B1A700FE0104901240C7002234B704FF47D7003F0ABFE2046702104F0ABFA0E22084B1A7064200CF09FFB0BF042
:40638000F9FD38BDC88AFF1F5185FF1F9886FF1F0C81FF1FA883FF1FA283FF1F9086FF1F38B5994B1B78642B03F2AA85DFE813F074008000A81DA40003018A011F02B9023E
:4063C000E902160302044B04B8042B05760553066707B6074208F8087309E50A3A0CBE0DE90EEB11391210138C13F313C31461153E1600197E19EC19391A681A0C1BE81B38
:40640000E81C711DA81DA81DA81DA81DA81DA81DA81DA81DA81DA81DA81DA81DA81DA81DA81DA81DA81DA81DA81DA81DA81DA81DA81DA81DA81DA81DA81DA81DA81DA81DB4
:40644000A81DA81DA81DA81DA81DA81DA81DA81DA81DA81DA81DA81DA81DA81DA81DA81DA81DA81DA81DA81DA81DA81DA81DA81DA81DA81DA81DA81D6500644B1B78012BBD
:4064800043F23E850024604B1C700CF05BF80BF0BDFF5E4B1C7038BD5D480CF045F80CF015F80022594B1A700122574B1A7038BD0BF024FE082843F023850222524B1A706B
:4064C0000BF046FE0CF03EF80BF0A0FF514B1B78022B04D10220632104F0F6F903E00220452104F0F1F90322474B1A7064200CF0E5FA0BF02DFE38BD0BF000FE082843F077
:40650000FF84454B1B78DBB2AA2B4ED1424B9B79DBB2C32B49D1404BDB79DBB23C2B44D13D4BDB78DBB2592B2DD002D8452B1FD03BE05C2B02D07E2B30D036E00022374B1D
:40654000DA70344B1B78012B06D10220052104F0BBF904222C4B1A702E4B1B78022B24D10220492104F0B0F91922274B1A701CE00220252104F0A8F90022294B1A700F22CD
:40658000214B1A7011E00220252104F09DF90022234B1A7027221C4B1A7006E00220002104F092F90022184B1A7064200CF086FA0BF0CEFD38BD0BF0A1FD082843F0A0841C
:4065C000154B1B78DBB2AA2B76D1134B9B79DBB2C32B71D1104BDB79DBB23C2B6CD10F4AD37823F00303D3700B4BDB78DBB23B2B4AD004D80F2B15D0102B27D05CE0432B63
:406600003AD07E2B51D057E04F85FF1F4185FF1FBD2200004385FF1FDC8AFF1F3C88FF1F3187FF1F0220062104F04EF90022984B1A700220242104F07DF9964AD37843F036
:406640000203D3700522944B1A7035E002200D2104F03AF900228E4B1A70904B1A700220472104F067F98B4AD37843F00103D3700522894B1A701FE00220072104F024F975
:406680000622854B1A7017E0854B1B78022B04D10220632104F018F903E00220452104F013F903227C4B1A7006E00220002104F00BF90022784B1A7064200CF0FFF90BF06D
:4066C00047FD38BD0BF01AFD082843F01984754B1B78DBB2AA2B40F08480724B9B79DBB2C32B7ED16F4BDB79DBB23C2B79D1684B1B786D4A1278013A93423EDC694AD278D1
:40670000D2B2092A0FD80133DAB2614B1A706548C178604B13443031D972C17830310220C9B204F007F95F4BDB78DBB20A2B0BD1574B1A780132D2B21A70564B13443021AD
:40674000D972022004F0F6F8564BDB78DBB2512B13D14F4B1B7883B1504A12786AB90133DAB24B4B1A704B4B13442C21D972022004F0E0F80122494B1A704A4BDB78DBB238
:406780000B2B1BD1424B1A783AB90220052104F09BF80422404B1A7010E00220202104F0C9F83B4B1B783B4A1A44D27A2C2A02D100213A4A1170013B354A1370394BDB78E7
:4067C000DBB20C2B0DD1324B1B7853B10220072104F07AF82E4B1A782E4BDA7206222E4B1A7064200CF06AF90BF0B2FC38BD64200CF064F90BF082FC082820D1294B1B7839
:40680000DBB2AA2B15D1274B9B79DBB2C32B10D1244BDB79DBB23C2B0BD1224BDB78DBB27E2B06D10220002104F04EF800221A4B1A7064200CF042F90BF08AFC38BD1B4BA9
:40684000187906F0E3FE072843F05A8332200CF035F9164B187906F0EDFE154B187032200CF02CF90B4BDB7813F0030324D00F4A10790F4A11780F4A09F076FFE0B90220DB
:40688000002104F021F80022034B1A7038BD00BF3187FF1F3C88FF1F4F85FF1F5285FF1F4385FF1FDC8AFF1F4485FF1F9883FF1F9686FF1F4788FF1F01200CF0A7F8AE4BF7
:4068C000187906F0B7FEAD4B1870002803F01883AB4B1B7803F00F03834211D0A94B1B7803F00F0398420BD0A74B1B7803F00F03984205D0A54B1B7803F00F03984202D143
:4069000002200AF0B1FB9C4B187940F010000AF099FE0220082103F0D7FF07229C4B1A7038BD32200CF0CAF8934B187906F06EFE0A2813D00B2803D0062843F0E18218E0EB
:4069400064200CF0BBF88C4B187906F0E7FE012843F0D68208228E4B1A7038BD864B187906F0DCFE012843F0CB820822884B1A7038BD0220002103F0A7FF0022844B1A70BD
:4069800038BD844B1B78012B02D0022B10D038BD02200B2103F098FF7F480BF0C5FD0BF095FD00227D4B1A700A22794B1A7038BD7B4BDB7813F0040F43F0A28202200B21E0
:4069C00003F082FF74480BF0AFFD0BF07FFD0022724B1A700A226E4B1A7038BD0BF08EFB082840F0B3806F4B1B78DBB2AA2B40F0A8806C4B9B79DBB2C32B40F0A280694B12
:406A0000DB79DBB23C2B40F09C800022634B1A70654B1B78062B65D8624AD278D2B2092A10D80133DAB2604B1A705E48C1785C4B1344303183F86510C17830310220C9B2C8
:406A400003F078FF574BDB78DBB20A2B0CD1564B1A780132D2B21A70514B1344302183F86510022003F066FF4E4BDB78DBB26A2B0CD14D4B1A780132D2B21A70484B1344B6
:406A80002D2183F86510022003F054FF454BDB78DBB21A2B26D9434BDB78DBB2422B21D80022424B1A6019E03E4AD278D2B240491944097A8A420DD13B490A780132D2B260
:406AC0000A704133D9B2364B134483F86510022003F030FF354A136801331360334B1B68192BE1D92F4BDB78DBB20B2B18D12E4B1A786AB902200B2103F0E6FE284B002210
:406B000083F8652083F883200A22214B1A7007E00220202103F00EFF234A1378013B1370204BDB78DBB20C2B0BD11F4B1A7842B11B4B83F86520012283F883200D22144B92
:406B40001A7064200BF0BAFF0BF002FB134B1B781D2B43F2D58102200B2103F0B5FE104A002382F8653082F883300C4A13700A22074B1A7038BD00BF9883FF1F9686FF1FE2
:406B80002288FF1FD488FF1F5085FF1FA483FF1F4F85FF1F4385FF1FBD2200004185FF1F3C88FF1FDC8AFF1F3187FF1FA883FF1F0C81FF1F0BF0A2FA082834D1AB4B1B783B
:406BC000DBB2AA2B2AD1A94B9B79DBB2C32B25D1A64BDB79DBB23C2B20D1A44BDB78DBB2382B0CD0392B19D102200A2103F06CFE00229F4B1A7009229E4B1A700EE002204B
:406C00000C2103F061FE01229B4B1A709B480BF08BFC0BF05BFC6422964B1A7064200BF04DFF0BF095FA944B1B781D2B43F2688102200C2103F048FE01228F4B1A706422D8
:406C40008C4B1A7038BD0220012103F0CDFB052840D90A200BF032FF0220212103F0C4FB052837D9022003F0D7FA012832D133200BF08CFA0220332103F010FB50B3002251
:406C80007F4B1A600AE0022003F072FB7D4B1C4484F829007A4A136801331360784B1C68072CF0D90220132103F00EFE754CE37843F00403E3704FF4FA700BF0FFFE022069
:406CC0000E2103F001FE0023694A137023710C22684B1A700BF012FA082843F01181634B1B78DBB2AA2B15D1604B9B79DBB2C32B10D15E4BDB79DBB23C2B0BD15B4BDB78B5
:406D0000DBB23B2B06D10220632103F0DDFD0322584B1A7064200BF0D1FE0BF019FA38BD0BF0ECF9082843F0EB80504B1B78DBB2AA2B62D14D4B9B79DBB2C32B5DD14B4B17
:406D4000DB79DBB23C2B58D1494B1B78052B25D8464AD278D2B2092A0FD80133DAB2444B1A704248C178474B134430311971C17830310220C9B203F0DDFD3C4BDB78DBB2FB
:406D80000A2B0BD13A4B1A780132D2B21A703D4B134430211971022003F0CCFD334BDB78DBB20B2B12D1324B1A783AB90220052103F08AFD04222F4B1A7007E00220202123
:406DC00003F0B8FD2A4A1378013B1370274BDB78DBB20C2B11D1264B1B7873B1294B5B79302B0AD00220052103F06EFD204B1A78244B1A7104221F4B1A7064200BF05EFE8B
:406E00000BF0A6F938BD204B5878204B197800221F4B1B7905F000F81E4B1B78012B02D01D4B5B787BB902200C2103F04DFD0122114B1A7011480BF077FB0BF047FB6422F8
:406E40000C4B1A7038BD0220312103F03DFD0022074B1A700122084B1A7008480BF064FB0BF034FB2122034B1A7038BDDC8AFF1F3187FF1F4F85FF1F4185FF1FBD220000AA
:406E80005485FF1F3C88FF1F3487FF1F9686FF1F9883FF1F4385FF1FA083FF1F0BF02EF9082843F02D80BE4B1B78DBB2AA2B40F0CC80BB4B9B79DBB2C32B40F0C680B84BCC
:406EC000DB79DBB23C2B40F0C080B54BDB78DBB2652B00F086800AD85A2B52D002D8582B12D0B2E05B2B66D05D2B26D0ADE07E2B00F0A48003D8702B00F09880A5E0932BD5
:406F000077D0962B62D0A0E002203E2103F0DCFC0022A44B1A7003F013F8012802D1022003F088FD03F03CF8012802D1022003F0DFFD10229C4B1A7087E002205C2103F06C
:406F4000C3FC02200021892240F2AD1303F0B6FE02200021D62240F2A71303F0AFFE02200121242240F2B31303F0A8FE0220012178224FF47A7303F0A1FE13228A4B1A70B5
:406F800063E00220602103F09FFC022003F014FE022003F053FF022004F0E2F8022004F065F9022003F0D0FF022004F053F812227D4B1A7049E002202F2103F085FC00226F
:406FC000784B1A701122784B1A703EE002205F2103F07AFC0022734B1A701B22724B1A7033E002204D2103F06FFC14226E4B1A702BE002206E2103F067FC0220012103F0EA
:40700000F3F905280ED90A200BF058FD022004F035FA0220212103F0E7F9052802D9022004F0AAF92322604B1A700EE00220892103F04AFC29225C4B1A7006E00220002187
:4070400003F042FC0022584B1A7064200BF036FD0BF07EF838BD0BF051F8082842F050874F4B1B78DBB2AA2B40F003814C4B9B79DBB2C32B40F0FD80494BDB79DBB23C2B09
:4070800040F0F780474B1A78072A26D8444BDB78DBB2092B0ED8424BD978444B1344303183F88E1002202A2103F044FC3D4A1378013313703A4BDB78DBB20A2B0DD1394CA9
:4070C00022783A4B1344302183F88E1002202A2103F030FC237801332370314BDB78DBB20B2B0ED12F4B1B781BB90220FBF784FB07E0013BDAB22B4B1A700220202103F0D8
:4071000019FC274BDB78DBB20C2B40F0B280254B1A78002A00F09E80002325490B6025490B6015E0581C2449014491F8D7101F4C234493F88E30303B994204D11C490B68A7
:4071400001330B6002E00021194B1960194B18601046184B1B689A42E4D8174B93F8D720134B1B689A422BD10220262103F0ACFB4FF4FA700BF0A2FC104B1B78012B04D10B
:4071800002205D2103F0A0FB05E0022B03D10220702103F099FB0E22034B1A7069E000BFDC8AFF1F3187FF1F4F85FF1F3C88FF1FA885FF1FA883FF1F3887FF1F4385FF1FEC
:4071C0000023AF4A1360AF4A136010E0AE4A1A4492F82410AD4A1A4492F88E20914203D1A7490A6801320A600133A64A1360A54B1B689842EAD8A24B1B68082B1AD1022007
:40720000262103F061FB4FF4FA700BF057FCA04B1B78012B04D102205D2103F055FB05E0022B03D10220702103F04EFB0E22994B1A701EE00220272103F046FB0122964B48
