:4000000000800020110000009D0000009D00000080B500AF064B064A126842F020021A60044B054A12681A6000F004FB00F03AF8E8460040BC760040FA46004010B5054CEF
:40004000237833B9044B13B10448AFF300800123237010BD2881FF1F00000000901D000008B5064B1BB106480649AFF300800648036813B1054B03B1984708BD00000000C2
:40008000901D00002C81FF1F0881FF1F0000000080B500AF00F078FAFEE700BF80B400AFFEE700BF80B586B000AF224B7B61224B3B61204B7B6135E03B691B68FB603B69C2
:4000C0005B68BB603B699B683B6000237B600CE0FB681A68BB681A60BB680433BB60FB680433FB607B6804337B607A683B689A42EED13B69DB683B6000237B6008E0BB686A
:4001000000221A60BB680433BB607B6804337B607A683B689A42F2D13B6910333B617B69013B7B617B69002BC6D101F0F5FDFFF7AFFFFEE701000000A021000080B582B0DB
:4001400000AF174B174A1A60174B174A126842F400721A6000237B600FE07B68032B04D8124B7A6853F8223000E0114B114A796842F821307B6801337B607B682F2BECD987
:400180000D4B1B78DAB20D4B1A700D4B094A1A6000F026F90B4B00221A600837BD4680BD0CED00E00004FA0514ED00E0000000009D0000000080FF1FBC7600400481FF1F34
:4001C00008ED00E00081FF1F80B582B000AF78603960786800213A6801F0CDFD0837BD4680BD00BF80B584B000AFF860B9607A60F868B9687A6801F0B5FD1037BD4680BD78
:4002000080B584B000AFF860B9607A60F868B9687A6801F0A7FD1037BD4680BD80B483B000AF0346FB71FEE780B487B000AF7860396000233B6100237B6126E07B699B005E
:400240007A6813441B68BB60BB68FB73BB6823F0FF03BB6013E03B695B003A6813441B781A46BB6813443A69520039680A4452781A703B6901333B61FB7B013BFB73FB7B29
:40028000002BE8D17B6901337B617B69102BD5D91C37BD465DF8047B704700BF80B582B000AF304B19221A802F4B18221A702F4B02221A704FF0402308221A702C4B03223B
:4002C0001A702C4B2C4A1278D2B21A702B4B08221A802B4B41F251221A800023FB7019237B6014E0FB785B00DAB2264B1B78DBB203F00103DBB21343DBB203F00303FB70B0
:400300004FF4F07000F00CFF7B68013B7B607B68002B02D0FB78032BE4D17B68002B02D10320FFF77BFF184B4FF480721A80164B07221A70154B00221A70154B48221A70D5
:40034000114B00221A70134B02221A70124B124A1278D2B242F00102D2B21A700837BD4680BD00BF80400040824000400043004000420040A14600400801004922420040FD
:40038000204200402542004004400040064000400840004001400040A243004080B483B000AF0B4B1B78FB710A4BFA7902F00702D2B21A70084BFA791209D2B21A70074B3F
:4003C00044221A700C37BD465DF8047B704700BFCF0100496E5800406F5800407658004080B582B000AF72B6334B334A1278D2B242F02402D2B21A700023FB7113E0FA79A7
:4004000013465B0013445B002C4A13443B603B681A683B689B889BB210461946FFF7D4FEFB790133FB71FB79072BE8D924482549FFF7FAFE244B244A1278D2B242F00202D5
:40044000D2B21A70214B214A1278D2B242F00202D2B21A701E4B1E4A1278D2B242F04002D2B21A701B4B1B4A1278D2B242F01002D2B21A70184819490A22FFF7C1FE184BB3
:40048000174A1278D2B242F00802D2B21A70154B01221A70FFF702FF124B81221A70124B01221A70FFF77AFF104809490E22FFF799FE0837BD4680BDE8460040941D000077
:4004C000C41D0000081E00000350014013500140A0430040C24300406051004068210000224300400048004004000840B043004080B485B000AF78600B467B800023FB8154
:400500000BE07B88013B7A6813441B781A46FB891344FB817B88013B7B807B88002BF0D1FB895B429BB218461437BD465DF8047B704700BF80B586B000AFF860B9607A601C
:400540000023FB75FA680F4B9A4206D0FB68002B03D0002000F070FF0CE00BE07B68013B7B60FA68BB681A447B6813441A78FB7D1344FB757B68002BF0D1FB7D18461837E7
:40058000BD4680BD0080004080B582B000AF06237B60002000F06EF80346002B01D100237B601C4B1B681B68002000211A46FFF7C1FF0346FB70184B1B681B78FA78D31A17
:4005C000FB70FB785B42FB70134B1B681B78FA789A4204D10F4B1B681B68002B02D1002000F02AFF0D4B1B78DBB203F0C003402B02D07B68002B05D0084B00221A7000207A
:4006000000F0AEF8322000F0ABF800F009F80837BD4680BD1081FF1F0C81FF1FFA46004080B500AF024B80221A7000F011FF80BDFA46004080B500AF0C4B1B78DBB203F08D
:40064000C003802B11D1094B00221A700220002100F0DCFB0346002B07D00220002100F0D5FB0346184600F003F880BDFA460040004700BF90B587B000AF0346FB71FB7929
:400680000320194600F0C2FB034601331C02FB790420194600F0BAFB03462344FB600023FB740023BB74FB790320194600F0AEFB034601331B027B6111E07B691B78FB720B
:4006C000FB7A002B04D0FB7AFF2B01D00123FB74BA7CFB7A1344BB747B6901337B617A69FB689A42E9D3FB790320194600F08EFB034601331B02DB087B61FA68174B9A4218
:4007000002D0FB68DB0801E04FF40043FB600AE07B6903F190431B78DAB2BB7C1344BB747B6901337B617A69FB689A42F0D3BB7C5B42BB74BC7CFB790120194600F066FB15
:4007400003469C4202D1FB7C002B01D1062300E0002318461C37BD4690BD00BFC0FF030080B5ADF5247D00AF0246FB1D1A700023A7F88A320023A7F888320A2387F88732ED
:40078000002387F8863200F055FD0346002B02D0002000F051FE00F01BFC62B6002387F88D32FB1D1B78002B02D0FB1D1B7800E0FF2307F59E7107F26A2208464FF49671FB
:4007C00000F034FCC7F87802FB1D1B78002B04D097F88732013B87F8873297F88732002B03D0D7F87832002BDBD1D7F87832002B00D0B0E2B7F86A32062B04D907F59E7338
:400800001B78012B03D0042387F88D3244E007F59E73DB781B029AB207F59E739B781343A7F88A32B7F88A32053307F59E72D35C1B029AB2B7F88A32043307F59E71CB5CE8
:400840001343A7F87632B7F88A32DA1DB7F86A329A4203D9032387F88D321DE0B7F88A32063307F59E72D35C172B03D0042387F88D3211E0B7F88A3204339BB207F59E72D0
:4008800010461946FFF734FE0346B7F876229A4202D0082387F88D320023A7F88E3297F88D32002B40F04C8207F59E731B7987F87532042387F88D3207F59E735B78313B43
:4008C0000A2B00F2398201A252F823F0F908000033090000390D0000CD0900003F0B0000390D0000510B0000A70B0000CD090000EB0B0000210D000097F88632012B17D1CA
:40090000B7F88A32002B13D10020FFF7B3FE0346002B14BF00230123DBB21A4607F59E731A710123A7F88E32002387F88D3207E206E297F88632012B47D1B7F88A32012B8C
:4009400043D197F87532032B3FD8D14B1B681B681B0C87F8743297F8752297F874329A4208D1CB4B1B681B681B0A9BB2DBB2A7F884320DE097F8752297F874329A4203D9FA
:400980000023A7F8843203E04FF48073A7F88432B7F88432DAB207F59E731A71B7F884321B0A9BB2DAB207F59E735A7107F59E73FF229A7107F59E730022DA710423A7F814
:4009C0008E32002387F88D32BAE1B9E107F59E735B78342B23D197F88632012B40F0B081B7F88A32032B40F0AB8197F875323F2B08D997F875325BB2002B03DB1023A7F806
:400A0000883203E04FF49073A7F88832B7F8883207F11002104600211A4601F0ACF997F88632012B40F08A80B7F88A32022B40F28580B7F8883207F11002D118B7F88A3257
:400A4000033B07F59E720732084611461A4601F089F9B7F88822B7F88A3213449BB2033BA7F8883297F875323F2B0AD997F875325BB2002B05DB00F099FC1023A7F88A3298
:400A800003E04FF49073A7F88A32B7F88822B7F88A329A424BD107F59E739B791B029AB207F59E735B791343A7F8883297F875323F2B27D897F875329BB21B029AB2B7F8A2
:400AC00088321344A7F87232714B1B681B681B0AA7F882326E4B1B681B68DBB2002B04D0B7F882320133A7F88232B7F87222B7F882329A4206D20A2387F88D320023A7F8AC
:400B000088321DE197F87502B7F8881207F11002B7F88A3200F0A0FB0346002B01D00A2300E0002387F88D3200F0D6FC02E0032387F88D320023A7F8883201E100E197F825
:400B40008632012B03D10023A7F8883203E1F7E097F88632012B25D1B7F88822B7F88A321344B3F5967F19D8002387F88D32B7F8883207F11002D118B7F88A3207F59E7220
:400B80000432084611461A4601F0ECF8B7F88822B7F88A321344A7F8883203E0032387F88D32CDE0CCE0B7F88A32002B1CD107F10803384A92E8030083E80300012387F87B
:400BC00086320823A7F88E32B7F88E3207F59E72111D07F10802084611461A4601F0C2F8002387F88D32ABE0AAE097F88632012B40F09580B7F88A32032B40F0908007F555
:400C00009E739B791B029AB207F59E735B791343A7F8703297F875323F2B13D997F875325BB2002B0EDBB7F870321B01C7F86C321948D7F86C121022FFF77CFC034687F8EB
:400C4000813212E097F875321A02B7F8703213441B02C7F86C320020D7F86C124FF48072FFF768FC034687F8813297F875323F2B29D897F8753203F510331A02B7F8703265
:400C800013445B01C7F86C320023A7F87E3216E01081FF1F7421000000800040B7F87E22D7F86C3213441B78DAB297F88132134487F88132B7F87E320133A7F87E32B7F82A
:400CC0007E321F2BEAD997F87532032B19D1B7F87032FF2B15D10520002100F097F80346DBB297F88122D31A87F881320620002100F08CF80346DBB297F88122D31A87F86D
:400D0000813297F881325B42DAB207F59E731A71002387F88D320123A7F88E3210E00FE00020FFF7A7FC0346002B02D1114B80221A7000F08DFB03E0052387F88D3200BF32
:400D400097F88D1207F59E72B7F88E32084611461A4600F011F8FB1D1B78002B3FF41EAD97F88632012B3FF419AD07F52477BD4680BD00BFFA46004080B584B000AF3960C5
:400D800013460246FA71BB803B6801221A703B680133FA791A703B680233BA88D2B21A703B680333BA88120A92B2D2B21A70BB8804339BB238681946FFF79AFB0346FB8101
:400DC000BB8804333A681344FA89D2B21A70BB8805333A681344FA89120A92B2D2B21A70BB8806333A68134417221A70BB8807339AB23B1D386811461A46962300F0F2F847
:400E0000034618461037BD4680BD00BF80B586B000AF02460B46FA71BB710223FB740023FB60FB79013B092B00F2928001A252F823F000BF5D0E0000770E0000910E000033
:400E4000A70E0000C10E0000DB0E00000B0F0000F50E0000210F0000370F0000BA7913461B069B1A1B0203F57F3303F570737B610123FB7472E0BA7913461B069B1A1B022E
:400E800003F57F3303F2C1337B610423FB7465E0BA7913461B069B1A1B0203F57F3303F2C5337B615AE0BA7913461B069B1A1B0203F57F3303F2C9337B610423FB744DE003
:400EC000BA7913461B069B1A1B0203F57F3303F574737B610123FB7440E0BA7913461B069B1A1B0203F57F3303F2D1337B610123FB7433E0BA7913461B069B1A1B0203F540
:400F00007F3303F2D6337B6128E0BA7913461B069B1A1B0203F57F3303F2D2337B611DE0BA7913461B069B1A1B0203F57F3303F575737B6112E0BA7913461B069B1A1B02CB
:400F400003F57F3303F576737B610423FB7405E0002000F071FA00237B6100BFFB7C012B03D17B691B78DBB2FB60FB7C022B0BD17B691B78DBB2FB607B6901331B78DBB269
:400F80001B02FA681343FB60FB7C042B1BD17B691B78DBB2FB607B6901331B78DBB21B02FA681343FB607B6902331B78DBB21B04FA681343FB607B6903331B78DBB21B06E2
:400FC000FA681343FB60FB6818461837BD4680BD80B500AF00F0A0FC00F0A0FD00F0F6FD80BD00BF80B586B000AFF8607A600A467A817B720023FB8200F090FD09E0FB8AA3
:40100000FA6813441B78184600F0C6FDFB8A0133FB82FA8A7B899A42F1D37B687A891A80002318461837BD4680BD00BF90B589B000AFF8607A600A467A817B720523BB61CB
:401040000023FB831AE000F021FD0346002B0FD000F01CFD0346FB82192000F009FA00F015FD0346FA8A9A42F2D30023BB610DE0012000F0FDF9FB8B0133FB83F98B7A7A26
:4010800013469B0013445B009942DCDB7B6800221A800023BB8336E000F0F8FC0346BB827B681A88BB8A13449AB27B681A807B681B887A899A421ED90023FB830CE0BB8B5F
:4010C000FA68D41800F098FC03462370BB8B0133BB83FB8B0133FB83FA8BBB8A9A42EED3BB8B013BFA6813441B78172B0BD0052000F0BEF907E07B681A88BB8AD31A9AB24A
:401100007B681A8004E000F0C1FC0346002BC3D1BB6918462437BD4690BD00BF000000000230800800F0058000BF013800467FF4FCAF7047EFF3108072B6704780F310880F
:40114000704700BFAFF3008080B582B000AF00F039FA4FF0FF337B6000F05EFB0346002B24D1012000F026FB0346072B1BD11348022100F049FA0346022B0DD100237B6004
:4011800002E0012000F096F90D4B1B78DBB203F00203002BF5D006E0094B1B78DBB203F00203002BE3D000F06BFB01E004237B607B6818460837BD4680BD00BF5481FF1F72
:4011C0002247004080B582B000AF00F0FBF900F023FB0346002B23D100F07AFB78607B68072B1AD102E0012000F064F9104B1B78DBB203F00203002BF5D00D4B1B78DBB26E
:4012000003F00203002B08D0094B1B78DBB29B08DBB2002B01D100237B6000F031FB01E004237B607B6818460837BD4680BD00BF2247004080B582B000AFFFF7C3FF786047
:401240007B68002B02D1FFF77FFF78607B6818460837BD4680BD00BF80B586B000AFBA600246FA730A46BA81FB8000237B61FB7B3F2B04D8FB7B042B01D901237B61FB7B23
:401280005BB2002B01DA01237B61FB7B3F2B04D9FB7B412B01D901237B61FB7B3F2B06D8BB89B3F5807F0CD901237B6109E0BB89802B01D901237B61FB88102B01D00123AF
:4012C0007B61BB68002B01D101237B617B69002B62D100F0A1FA0346002B5BD1F97BBA89FB8808461146BA6800F0BAF978617B69072B4CD102E0012000F0DCF8294B1B7807
:40130000DBB203F00203002BF5D0264B1B78DBB203F00203002B09D0224B1B78DBB29B08DBB2002B02D100237B6102E04FF0FF337B617B69002B2AD11B4B1A781A4B5B7888
:40134000F87BB98900F0F2F978617B69072B1ED102E0012000F0AEF8124B1B78DBB203F00203002BF5D00F4B1B78DBB203F00203002B09D00B4B1B78DBB29B08DBB2002BBA
:4013800002D100237B6102E04FF0FF337B6100F077FA01E004237B617B6918461837BD4680BD00BF224700405481FF1F80B582B000AFFFF7BFFE0346FB71194B184A1278ED
:4013C000D2B242F00802D2B21A70164B154A1278D2B242F00802D2B21A70134BC8221A70124B124A1278D2B242F01002D2B21A700F4B0F4A1278D2B242F01002D2B21A7009
:4014000000BF0C4B1B78DBB203F02003002BF8D0FB791846FFF792FE0837BD4680BD00BFA0430040B043004001470040AC430040BC4300400047004080B483B000AF0346A5
:40144000FB7101BE0C37BD465DF8047B704700BF80B400AF054B054A1278D2B242F00102D2B21A70BD465DF8047B7047F646004080B582B000AF786008E00C4B1B681846C6
:40148000FFF74EFE7B68A3F500437B607B68B3F5004FF2D8064B1B687A6802FB03F31846FFF73EFE0837BD4680BD00BF2081FF1F1881FF1F80B582B000AF0346FB80FB8863
:4014C000044A127802FB03F31846FFF729FE0837BD4680BD1C81FF1F80B582B000AFFFF729FE0346FB7100BF00BF00BF00BF00BF00BF00BF00BF00BF00BF00BF00BF00BFD1
:4015000000BF00BF00BF094B084A128892B242F0040292B21A80054B1B88BFF36F8FFB791846FFF70BFE0837BD4680BD0048004080B584B000AF03463960FB710F4B1B6816
:40154000FB60FB791F2B02D90020FFF775FFFB7903F01F0310339B00FA6813441B68BB60FB7903F01F0310339B00FA6813443A681A60BB6818461037BD4680BD08ED00E016
:4015800080B582B000AF02460B46FA71BB71BB79072B02D90020FFF74FFFFB791F2B02D90020FFF749FFFB7903F01F0303F1604303F56443BA795201D2B21A700837BD46B4
:4015C00080BD00BF80B582B000AFFFF7B3FD0346FB710B4B0A4A1278D2B242F00802D2B21A70084B074A1278D2B242F00802D2B21A70FB791846FFF7A1FD0837BD4680BD9B
:40160000A0430040B043004080B584B000AF78600B46FB700023FB7314E002E00120FFF749FF0D4B1B78DBB203F00103002BF5D0FB7B7A681344094A1278D2B21A70FB7B73
:401640000133FB73FA7BFB789A42E6D3FB7B18461037BD4680BD00BF224700402047004080B489B000AFBA600246FA730A46BA81FB800723FB612B4B1B78DBB203F00203DC
:40168000002B45D0284BB6221A70274BD5221A70254B02221A70234B1B78DBB203F00203002B32D1204BFA7B1A7000237B8308E01D4B7A8BB9680A4412781A707B8B0133B3
:4016C0007B837A8BFB889A42F2D3FB88B3F5807F20D1FB7B3F2B1DD8FB7B03F510331A02BB8913445B017B6100237B8309E00E4B798B7A690A441278D2B21A707B8B0133C9
:401700007B837B8B1F2BF2D904E00923FB6101E00423FB61FB6918462437BD465DF8047B704700BF224700402047004080B485B000AFF871B980BA71FB700723FB601B4BCB
:401740001B78DBB203F00203002B26D0184BB6221A70174BD8221A70154B05221A70134B1B78DBB203F00203002B13D1104BFA791A700F4BBA88120A92B2D2B21A700C4B36
:40178000BA88D2B21A700A4BBA791A70084BFA781A7004E00923FB6001E00423FB60FB6818461437BD465DF8047B7047224700402047004080B485B000AF0346FB710723C9
:4017C000FB60134B1B78DBB203F00203002B16D0104BB6221A700F4BE1221A700D4B0E221A700B4B1B78DBB203F00203002B03D1084BFA791A7004E00923FB6001E0042321
:40180000FB60FB6818461437BD465DF8047B7047224700402047004080B582B000AF04237B60FFF787FC0346FB70124B1B78002B16D1104B01221A7000237B600E4B1B683A
:4018400003F00103002B0BD00B4B0B4A126822F001021A6000BF00BF00BF084B01221A60FB781846FFF76AFC7B6818460837BD4680BD00BF4481FF1F040008404881FF1FC8
:4018800080B582B000AFFFF755FC0346FB710D4B00221A700C4B1B68012B0BD10B4B0B4A126842F001021A6000BF00BF00BF064B00221A60FB791846FFF740FC0837BD46EC
:4018C00080BD00BF4481FF1F4881FF1F0400084080B483B000AF07237B600D4B1B78DBB203F00203002B09D00A4BB6221A70094BE0221A70074B0D221A7001E004237B60C2
:401900007B6818460C37BD465DF8047B704700BF224700402047004080B500AF054B1B78002B04D100F008F8024B01221A7000F02FF880BD4C81FF1F80B500AF00200D493C
:40194000FFF7F6FD00200721FFF71AFE0A4B00221A700A4B72221A70094B20221A70094B06221A70084B47221A70084B00221A7080BD00BF0D1C00004D81FF1F8C64004008
:401980008A6400402E6400403E6400408B64004080B582B000AFFFF7CDFB0346FB71124B114A1278D2B242F02002D2B21A700F4B0E4A1278D2B242F01002D2B21A700C4BFC
:4019C00001221A600B4B0B4A1278D2B242F01002D2B21A7000F086F9FB791846FFF7AEFB0837BD4680BD00BF9C6400409A64004000E100E09B64004080B483B000AF1C4B26
:401A000001221A601B4B1B78BB711B4B1B787B711A4B1B78DBB2002B03D1BA797B799A4219D0BB79164AD35CFB71BB790133BB71BB795BB2002B01DA0023BB710D4BBA79AB
:401A40001A700E4B1B78DBB2002B03D00B4B00221A7003E002E00B4B1B78FB710A4B01221A60FB7918460C37BD465DF8047B704780E100E04E81FF1F4F81FF1F5081FF1FA9
:401A80005881FF1F4F64004000E100E080B483B000AF1D4B01221A601C4B1B78DAB21C4B1B78DBB29A420AD11A4B1B78DBB2002B02D08023FB711DE00023FB711AE0134B27
:401AC0001B78DAB2124B1B78DBB29A4208D2104B1B78DAB20D4B1B78DBB2D31AFB7109E00B4B1B78DAB2094B1B78DBB2D31ADBB2803BFB71084B01221A60FB7918460C37D1
:401B0000BD465DF8047B704780E100E04E81FF1F4F81FF1F5081FF1F00E100E080B582B000AFFFF707FB0346FB71144B134A1278D2B242F00102D2B21A70104B0F4A12783D
:401B4000D2B222F00102D2B21A70FB791846FFF7F5FA0B4B01221A600A4B00221A700A4B00221A70094B00221A70094B00221A70084B01221A600837BD4680BD9F64004060
:401B800080E100E04E81FF1F4F81FF1F5081FF1F5181FF1F00E100E080B483B000AF0346FB7100BF074B1B78DBB203F00403002BF8D1054BFA791A700C37BD465DF8047B18
:401BC000704700BF6B6400404B64004080B582B000AFFFF7AFFA0346FB710B4B0A4A1278D2B242F00102D2B21A70074B064A1278D2B222F00102D2B21A70FB791846FFF771
:401C00009DFA0837BD4680BD9B64004080B483B000AF0023FB712B4B1B78BB71BB797B71BB7903F01E03002B0BD0BB7903F01E03DAB2254B1B78DBB21343DBB2DAB2224BC7
:401C40001A70BB7903F02003002B31D01F4B1B787B711F4B1B78DBB21E4A7979D1540123FB71FB79002B23D01B4B1B78DBB2002B02D01A4B01221A70154B1B78DBB2013307
:401C8000DAB2134B1A70124B1B78DBB2DBB25BB2002B02DA0E4B00221A700D4B1B78DAB20F4B1B78DBB29A4202D10B4B01221A70BB7903F02003002BADD10C37BD465DF85C
:401CC000047B70476A6400404D81FF1F4F6400404F81FF1F5881FF1F5081FF1F5181FF1F4E81FF1F80B400AF094B094A1278D2B242F00102D2B21A70064B064A1278D2B286
:401D000042F00102D2B21A70BD465DF8047B7047A2430040B243004070B50E4B0E4D0024ED1AAD101E46AC4204D056F8242090470134F8E700F022FA084D094B0024ED1A34
:401D4000AD101E46AC4204D056F8242090470134F8E770BD8821000088210000902100008821000010B50023934203D0CC5CC4540133F9E710BD02440346934202D003F848
:401D8000011BFAE77047000032000000D021000000000000005100406000C05100401000F0510040100000000140001000140140000800400140000A004C01400002005051
:401DC000014020000252004003640040010501404B0A0140420B01403A0C0140430D01405D0E01402F0F014002400140014101400342014004440140034501400246014072
:401E00000350014001510140310134028A388B0F8C72E60102030308051A07040B050C0C0E1110101103120C130C181C1A021C101D031F14201421202C092E102F18301F93
:401E4000311C3303352039083B023F1454185604580459045B045F018002850A860287048A028B058F08900296029D039F0CA001A503A704AD03AF04B002B10FB401BB02F4
:401E8000BE11C053C104C5E0C6CBC80EC9FFCAFFCBFFCEF0CF44D00CD401D804D904DA04DB04DF01E6C0EA40EB02008001020428074009010B060D020E100F2010811180F0
:401EC000150119021E882080210622102340250126022740280129022F2231023342374038283A303B063D803E203F04450246104D014E02548057305A025D015E986080A7
:401F00006150808082109028920293029508974099509E20A140A501C079C23BC419CA59CC19CE77D0C0D210D6F1D80DE4040104050209020D04110215011D0121012704B9
:401F400029082D0133023501370C39803F105602571159045B045F01800F830485C08603880489188C018D44900391E7920C93189402958098039BE39D10A00FA11CA3E14C
:401F8000A40CA51CA7E2A80CA908AA03AC08ADFFB00FB1C0B31FB738BA82BB88D804D904DF010160039009080A400B041219130119811A401BC0228923012540261027109F
:401FC000284029A42E602FA0308031093310344035043688370939423A103B043D023E143F4058805A405E206C206E146F097484752076138D048F409028914293069508B6
:40200000974199509C809D209E029F18A108A320A424A545A748B420B540C00FC20EC40FCAFFCCDFCEFFD620040C05010603070E1001120E1544173119671A031E08200146
:402040002206252227D129672E0C31803360340F350737183A203F404003454049FF4A074BFF4C404D204EF04F055008580459045A045F01604061A8624063208106830166
:40208000850688028B018C028D079204950796049D019E029F06A104A602A902AA01AE01B002B107B404B601B802BE50C042C103C205C401C6E0C70CC818C9FFCAFFCBFFB5
:4020C000CC62CDA0CEF0CF41D00CD804D904DA04DF01E640E702E910EA30EB10ED10EE10EF120320070609200B420E800F2111821608174818081B201D501E802189230460
:402100002602274028202B082D202E0230203108348037083B043C083D203F8141044480459447164B024E025010512056085710C0C4C2BBC4E9CAA6CC56CEF2D0F2D210E6
:402140003240CC10968082409680E68005025910C004D4019D10B502EA0281109D1000010C010E01000300000100020101000100000000006930122E001E0101F8B500BF9B
:40218000F8BC08BC9E467047610000003D010000F8B500BFF8BC08BC9E4670473D000000B02100000881FF1F20000000B000000000000000881D00008C1D000000366E0176
:4021C000C05D0000180000000000E02E000000000000000000000000000000000000000000000000000000000000000000000000000000000000000000000000000000009C
:402200000080002011220000711A0100711A010008B50FF02FFC00BF10B5054C237833B9044B13B10448AFF300800123237010BD0883FF1F0000000070350100084B10B504
:402240001BB108480849AFF300800848036803B910BD074B002BFBD0BDE81040184700BF00000000703501000C83FF1F0881FF1F0000000008B510F0FDFC0E4B1B78012B68
:4022800013D10D4B1978062907D80131C9B219700120143108F0E8FD08BD0022064B1A700120142108F0E0FD08BD034A13780133137008BD5A83FF1F7685FF1F08B510F0F3
:4022C00093FD0E4B1B78012B13D10D4B1978062907D80131C9B219700220143108F0C4FD08BD0022064B1A700220142108F0BCFD08BD034A13780133137008BD2B85FF1F54
:402300000585FF1F10B562B60FF0E8FD0FF09CFF10F01EF80FF0D4FD0FF0F4FE10F0BAFA10F0A6FB0FF0FCFE10F0C2FA10F0AEFB0FF07CFF11F02CF8052011F093F800249C
:40234000984B1C702046202108F0C8F9964B1C6006E0964AD15C964AD1540133924A1360924B1A78904B1B689A42F2D220200F2108F0B4F900228C4B1A6007E08B4AD15CD8
:402380008B4A1A4491770133874A1360874B1A78854B1B689A42F1D24020202108F09EF90022814B1A6008E0804AD15C804A1A4482F8431001337C4A13607C4B1A787A4B1D
:4023C0001B689A42F0D28020202108F087F90022754B1A6008E0754AD15C754A1A4482F861100133704A1360704B1A786E4B1B689A42F0D2A020202108F070F900226A4B6A
:402400001A6008E0694AD15C694A1A4482F87F100133654A1360654B1A78634B1B689A42F0D22F200C2108F059F900225E4B1A6008E05E4AD15C5E4A1A4482F82F1001331E
:40244000594A1360594B1A78574B1B689A42F0D26020092108F042F9544B1878431EDBB2082B14D80022504B1A6008E001334F4AD15C4F4A1A4482F8D7104B4A13604A4B26
:402480001B68072BF2D94A4B83F8D7000EE00122454B1A6006E0464A1A4482F8D7300133414A1360404B1B68082BF4D940F26A400A2108F013F900223B4B1A6006E03B4A6D
:4024C000D15C3C4AD1540133374A1360374B1A78354B1B689A42F2D240F275400A2108F0FDF80022304B1A6006E0304AD15C324AD15401332C4A13602C4B1A782A4B1B68C3
:402500009A42F2D24FF490600A2108F0E7F80022254B1A6006E0254AD15C284AD1540133214A1360214B1A781F4B1B689A42F2D240F28B400A2108F0D1F800221A4B1A601A
:4025400006E01A4AD15C1E4AD1540133164A1360164B1A78144B1B689A42F2D240F28D40022108F0BBF800220F4B1A6006E00F4AD15C144AD15401330B4A13600B4B1A7845
:40258000094B1B689A42F2D240F29F20052108F0A5F8064B1878042823D10122024B1A6019E000BF6F86FF1F6C83FF1F3485FF1F1487FF1F0885FF1F6083FF1FB488FF1F9F
:4025C0001885FF1FB088FF1FAF4AD15CAF4AD1540133AF4A1360AE4B1B68042BF4D9AB4B187040F2C110022108F078F8A64B1B78012B03D1A44B5A78A64B1A7040F2C3109D
:40260000022108F06BF8A04B1B78012B03D19E4B5A78A14B1A7040F2C510022108F05EF8994B1B78012B03D1974B5A789B4B1A7040F2EE30022108F051F8934B1B78012B09
:4026400003D1914B5A78964B1A704FF4DD70022108F044F88C4B1B78052B05D18A4B5B7803F00F038F4A137040F27A20022108F035F8854B1B78012B03D1834B5A788A4B21
:402680001A704FF41F70022108F028F87E4B1B78012B03D17C4B5A78844B1A7040F27E20022108F01BF8784B1B78012B03D1764B5A787F4B1A704FF47C70022108F00EF8AA
:4026C000714B1B78012B03D16F4B5A78794B1A7040F25A20062108F001F86B4B1B78052B0AD1694AD37803F00F0373490B70537903F00F03714A137040F2C710022107F02D
:40270000EDFF614B1B78012B06D16D4A13705E4B5B7803F00F0353704FF4DE70022107F0DDFF594B1B78012B05D1574B5B7803F00F03644A137040F26320022107F0CEFFE6
:40274000514B1B78012B05D14F4B5B7803F00F035D4A537040F26520022107F0BFFF4A4B1B78012B05D1484B5B7803F00F03574A53704FF42770032107F0B0FF424B1B7800
:40278000022B06D1404B9B7843EA0323504A138002E001224E4B1A804FF47670022107F09DFF394B1B78012B04D1374B5A78494B5A7007E0474901230B704B704FF476701C
:4027C00007F04EFF40F28F40022107F087FF2E4B1B78012B04D12C4B5A783F4B5A7007E03D4901230B704B7040F28F4007F038FF40F2D230062107F071FF234B1878052867
:402800000FD10022224B1A6006E01F4AD15C334AD15401331E4A13601D4B1B689842F4D20CE02E4905230B7030234B708B70CB700B714B7140F2D23007F012FF274A5379FC
:4028400003F00F00137903F00F014FF47A7303FB01F342F2107101FB0033D07800F00F00642101FB0031937803F00F0303EB83035B000B44527802F00F021344184A1360A1
:402880000222184B1A7010BD3485FF1F0C81FF1F6C83FF1FFE87FF1FBF88FF1F2C85FF1F5D83FF1F1485FF1F0485FF1F6E86FF1F7386FF1F0C87FF1F5E83FF1FFF87FF1FFB
:4028C0002885FF1F8285FF1F7086FF1F1087FF1F0285FF1F5883FF1F1488FF1F7C85FF1F1088FF1F0785FF1F10B5002422E00BF019F910B102280DD01CE001204F2108F003
:40290000B3FA4FF4FA7010F0ADFD02204F2108F0ABFA0FE0642010F0A5FD084B18780BF041F9062806D1054B18790BF03BF9062800D10224002CDAD010BD00BF5083FF1FAA
:4029400008B501280ED1552108F08EFA64220D4B1A7001220C4B1A700C4810F0FFF910F0CFF908BD0220552108F07EFA6422084B1A700122074B1A70074810F0A9FA10F0FB
:4029800079FA08BD5A83FF1F7685FF1F752200002B85FF1F0585FF1FBD22000038B5984B1B78642B03F26987DFE813F074008000671FA100000188013B02D902671F4003B8
:4029C0002F047F04EC046D05A00592069507FC0796083809C7093F0B8B0C0E0E2D0F0F134D132414AA141115F61578165417031A7C1AEB1A441B731B191CF21CF41D7F1EC3
:402A0000F81E671F671F671F671F671F671F671F671F671F671F671F671F671F671F671F671F671F671F671F671F671F671F671F671F671F671F671F671F671F671F671F46
:402A4000671F671F671F671F671F671F671F671F671F671F671F671F671F671F671F671F671F671F671F671F671F671F671F671F671F671F6500634B1B78012B43F2FD8630
:402A800000245F4B1C7010F077F910F0D9F85D4B1C7038BD5C4810F061F910F031F90022584B1A700122564B1A7038BD0FF00CFF082843F0E2860FF031FF10F05DF910F03E
:402AC000BFF8524B1B78022B04D10120632108F0CBF903E00120452108F0C6F90322484B1A70642010F0BEFC0FF018FF38BD0FF0EBFE082843F0C186454B1B78DBB2AA2BC9
:402B00004ED1434B9B79DBB2C32B49D1404BDB79DBB23C2B44D13E4BDB78DBB2592B2DD002D8452B1FD03BE05C2B02D07E2B30D036E00022374BDA70344B1B78012B06D1FE
:402B40000120052108F090F904222D4B1A702F4B1B78022B24D10120492108F085F91922274B1A701CE00120252108F07DF90022294B1A700F22224B1A7011E0012025218D
:402B800008F072F90022244B1A7027221C4B1A7006E00120002108F067F90022184B1A70642010F05FFC0FF0B9FE38BD0FF08CFE082843F06286164B1B78DBB2AA2B77D1D2
:402BC000134B9B79DBB2C32B72D1114BDB79DBB23C2B6DD10F4AD37823F00303D3700C4BDB78DBB23B2B4BD004D80F2B16D0102B28D05DE0432B3BD07E2B52D058E000BF64
:402C00005A83FF1F7685FF1F752200000785FF1FB08AFF1F7486FF1F2D85FF1F0120062108F022F90022A74B1A700120482108F051F9A54AD37843F00203D3700522A34B70
:402C40001A7035E001200D2108F00EF900229D4B1A709F4B1A700120472108F03BF99A4AD37843F00103D3700522984B1A701FE00120072108F0F8F80622944B1A7017E0B5
:402C8000944B1B78022B04D10120632108F0ECF803E00120452108F0E7F803228B4B1A7006E00120002108F0DFF80022874B1A70642010F0D7FB0FF031FE38BD0FF004FE6A
:402CC000082843F0DA85844B1B78DBB2AA2B40F0A280814B9B79DBB2C32B40F09C807E4BDB79DBB23C2B40F09680764B1B787B4A1278013A93423EDC774AD278D2B2092A6F
:402D00000FD80133DAB26F4B1A707348C1786E4B13443031D972C17830310120C9B208F0D9F86D4BDB78DBB20A2B0BD1654B1A780132D2B21A70644B13443021D97201200A
:402D400008F0C8F8644BDB78DBB2512B13D15D4B1B7883B15E4A12786AB90133DAB2594B1A70594B13442C21D972012008F0B2F80122574B1A70584BDB78DBB20B2B1BD1B0
:402D8000504B1A783AB90120052108F06DF804224E4B1A7010E00120202108F09BF8494B1B78494A1A44D27A2C2A02D10021484A1170013B434A1370474BDB78DBB20C2B73
:402DC00029D1404B1B786BB1454B1B7853B90120072108F049F83B4B1A783B4BDA7206223A4B1A70374B1B78ABB13D4B1B78012B11D10120702108F037F8334B1B7B3949C4
:402E00000B7040F28D4007F02BFC0022344B1A700E222E4B1A70642010F024FB0FF07EFD38BD642010F01EFB0FF04EFD082820D1294B1B78DBB2AA2B15D1274B9B79DBB220
:402E4000C32B10D1244BDB79DBB23C2B0BD1224BDB78DBB27E2B06D10120002108F004F800221A4B1A70642010F0FCFA0FF056FD38BD1D4B18780AF095FE072843F0FD84B3
:402E8000322010F0EFFA184B18780AF09FFE174B1870322010F0E6FA0B4BDB7813F0030328D0114A1078114A1178114A0EF030F900BB0120002107F0D7FF0022034B1A707A
:402EC00038BD00BF2D85FF1F7486FF1F5A83FF1F5B83FF1F0785FF1FB08AFF1F1485FF1F6F86FF1FB088FF1F5083FF1F1788FF1F7F86FF1F012010F05DFA994B18780AF066
:402F000065FE984B1870002803F0B784964B1B7803F00F03834211D0944B1B7803F00F0398420BD0924B1B7803F00F03984205D0904B1B7803F00F03984202D101200EF0BF
:402F400067FD874B187840F010000FF04FF80120082107F089FF0722874B1A7038BD322010F080FA7E4B18780AF01CFE0A282DD00B2803D0062843F080844FE0642010F03C
:402F800071FA774B18780AF095FE01280BD17B4B1B7843B9392107F067FF142010F062FA0D22754B1A706E4B18780AF083FE012843F06384714B1B78012B43F05E840C21E9
:402FC00007F052FF00226C4B1A7038BD642010F049FA634B18780AF06DFE01280BD1674B1B7843B9392107F03FFF142010F03AFA0D22614B1A705A4B18780AF05BFE012874
:4030000043F03B845D4B1B78012B43F036840C2107F02AFF0022584B1A7038BD0120002107F022FF0022544B1A7038BD0FF04CFC082840F0D580524B1B78DBB2AA2B40F061
:40304000CA804F4B9B79DBB2C32B40F0C4804C4BDB79DBB23C2B40F0BE800022494B1A70494B1B78062B65D8454AD278D2B2092A10D80133DAB2444B1A704148C178434BA6
:403080001344303183F86510C17830310120C9B207F020FF3A4BDB78DBB20A2B0CD13A4B1A780132D2B21A70384B1344302183F86510012007F00EFF314BDB78DBB26A2B1C
:4030C0000CD1314B1A780132D2B21A702F4B13442D2183F86510012007F0FCFE284BDB78DBB21A2B26D9264BDB78DBB2422B21D80022274B1A6019E0214AD278D2B2254987
:403100001944097A8A420DD11F490A780132D2B20A704133D9B21D4B134483F86510012007F0D8FE1A4A136801331360184B1B68192BE1D9124BDB78DBB20B2B34D1124B0F
:403140001A784ABB01200B2107F08EFE0F4B002283F8652083F883200A22074B1A7023E05083FF1F1788FF1FFE87FF1FBF88FF1F2C85FF1F5D83FF1F5A83FF1F1385FF1F0F
:40318000B08AFF1F7685FF1F2D85FF1F7486FF1F6C83FF1F0C81FF1F0120202107F09AFE9F4A1378013B13709E4BDB78DBB20C2B11D19B4B1B7873B10120052107F054FECB
:4031C000994B974A127883F86520012283F883200422964B1A70642010F044F90FF09EFB934B1B781D2B43F2488301200B2107F03BFE8D4A002382F8653082F883308C4A13
:4032000013700A22894B1A7038BD0FF05DFB08283BD1844B1B78DBB2AA2B31D1814B9B79DBB2C32B2CD17F4BDB79DBB23C2B27D17C4BDB78DBB2382B18D0392B20D1002268
:40324000774B1A70784BDB7813F0040F0AD101200A2107F009FE0022764B1A700922734B1A700DE00D22714B1A7009E00120052107F0FAFD01226F4B1A7004226B4B1A7084
:40328000642010F0EFF80FF049FB694B1B781D2B43F2F38201200C2107F0E6FD0122644B1A706422614B1A7038BD0120014607F06BFB052840D90A2010F0D4F8012021218E
:4032C00007F062FB052837D9012007F075FA012832D133200FF040FB0120332107F0AEFA50B30022544B1A600AE0012007F010FB4D4B1C4484F829004F4A13680133136046
:403300004D4B1C68072CF0D90120132107F0ACFD454CE37843F00403E3704FF4FA7010F0A1F801200E2107F09FFD00233C4A137023710C223D4B1A700FF0C6FA082843F0BC
:403340009C82384B1B78DBB2AA2B15D1354B9B79DBB2C32B10D1334BDB79DBB23C2B0BD1304BDB78DBB23B2B06D10120632107F07BFD03222D4B1A70642010F073F80FF07E
:40338000CDFA38BD0FF0A0FA082843F07682254B1B78DBB2AA2B70D1224B9B79DBB2C32B6BD1204BDB79DBB23C2B66D11C4B1B78052B25D81B4AD278D2B2092A0FD80133ED
:4033C000DAB2174B1A701748C178174B134430311971C17830310120C9B207F07BFD114BDB78DBB20A2B0BD10D4B1A780132D2B21A700D4B134430211971012007F06AFDF3
:40340000084BDB78DBB20B2B20D1054B1A78AAB90120052107F028FD0422044B1A7015E02D85FF1FB08AFF1F7486FF1F5A83FF1F7685FF1F1385FF1F3085FF1F0120202157
:4034400007F048FD974A1378013B1370964BDB78DBB20C2B11D1934B1B7873B1934B5B79302B0AD00120052107F0FEFC8D4B1A788E4B1A7104228E4B1A7064200FF0F2FF8C
:403480000FF04CFA38BD8B4B58788B4B197800228A4B1B7808F090FF894B1B78012B02D0884B5B787BB901200C2107F0DDFC0122854B1A7085480FF051FC0FF021FC64221F
:4034C0007B4B1A7038BD0120312107F0CDFC0022744B1A7001227C4B1A707C480FF03EFC0FF00EFC2122724B1A7038BD0FF0ECF9082843F0C2816C4B1B78DBB2AA2B40F08A
:40350000CA80694B9B79DBB2C32B40F0C480664BDB79DBB23C2B40F0BE80634BDB78DBB2652B00F084800AD85A2B50D002D8582B12D0B0E05B2B64D05D2B24D0ABE07E2B51
:4035400000F0A28003D8702B00F09680A3E0932B75D0962B60D09EE00022524B1A7001203E2107F081FC06F0BBFF012801D107F031FD06F0E5FF012801D107F089FD102237
:403580004B4B1A7087E001205C2107F06DFC01200021D62240F2AD1307F060FE01200021892240F2B31307F059FE01200146242240F2A71307F052FE0120014678224FF4AC
:4035C0007A7307F04BFE1322394B1A7063E00120602107F049FC012007F0BEFD012007F0FDFE012008F08CF8012008F00FF9012007F07AFF012007F0FDFF12222C4B1A70BC
:4036000049E001202F2107F02FFC0022254B1A701122274B1A703EE001205F2107F024FC0022204B1A701B22214B1A7033E001204D2107F019FC14221D4B1A702BE0012061
:403640006E2107F011FC0120014607F09DF905280ED90A200FF006FF012008F0DFF90120212107F091F9052802D9012008F054F923220F4B1A700EE00120892107F0F4FB75
:4036800029220B4B1A7006E00120002107F0ECFB0022074B1A7064200FF0E4FE0FF03EF938BD00BF2D85FF1FB08AFF1F7486FF1F5A83FF1F7086FF1F1788FF1F5083FF1F8F
:4036C0000785FF1F5883FF1F7685FF1F752200000FF0FAF8082843F0D080A64B1B78DBB2AA2B40F0F280A34B9B79DBB2C32B40F0EC80A04BDB79DBB23C2B40F0E6809E4B80
:403700001A78072A26D89B4BDB78DBB2092B0ED8984BD978994B1344303183F88E1001202A2107F0D7FB944A137801331370914BDB78DBB20A2B0DD18F4C22788F4B134435
:40374000302183F88E1001202A2107F0C3FB237801332370874BDB78DBB20B2B0ED1864B1B781BB90120FFF7EBF807E0013BDAB2814B1A700120202107F0ACFB7D4BDB7843
:40378000DBB20C2B40F0A1807B4B1A78002A00F08D8000237A490B607A490B6015E0581C7949014491F8D710744C234493F88E30303B994204D172490B6801330B6002E0DC
:4037C00000216F4B19606F4B186010466D4B1B689A42E4D86C4B93F8D720694B1B689A421AD10120262107F03FFB4FF4FA700FF039FE664B1B78012B04D101205D2107F08C
:4038000033FB05E0022B03D10120702107F02CFB0E225F4B1A7058E00023594A1360594A136010E05B4A1A4492F82410534A1A4492F88E20914203D151490A6801320A6085
:403840000133504A13604F4B1B689842EAD84C4B1B68082B1AD10120262107F005FB4FF4FA700FF0FFFD494B1B78012B04D101205D2107F0F9FA05E0022B03D101207021C6
:4038800007F0F2FA0E22424B1A701EE00120272107F0EAFA0122404B1A7040480FF05EFA0FF02EFA64223A4B1A700EE00120272107F0DAFA0122384B1A7038480FF04EFAB0
:4038C0000FF01EFA6422324B1A7064200FF0CAFD0FF024F838BD0EF0F7FF082842F0CD87244B1B78DBB2AA2B3ED1224B9B79DBB2C32B39D11F4BDB79DBB23C2B34D11D4B88
:40390000DB78DBB23F2B04D07E2B26D03E2B2BD116E00120402107F0A7FA0023164A13701F4A137001206121062207F0D3FA01206D21072207F0CEFA1522154B1A7013E029
:4039400001203F2107F090FA00230B4A1370144A137016220E4B1A7006E00120702107F083FA0E220A4B1A7064200FF07BFD0EF0D5FF38BDB08AFF1F2D85FF1F7486FF1F31
:403980008485FF1F6C83FF1F1487FF1F0785FF1F5A83FF1F0C81FF1F7685FF1F752200005B83FF1F0EF090FF082842F06687AA4B1B78DBB2AA2B40F08980A74B9B79DBB28C
:4039C000C32B40F08380A44BDB79DBB23C2B7DD1A14BDB78DBB2942B06D10120702107F043FA0E229D4B1A709D4B1A78072A27D8994BDB78DBB2092B10D89748C178994BB1
:403A00001344303183F88E10C17830310120C9B207F060FA924A1378013313708E4BDB78DBB20A2B0CD18E4C22788E4B1344302183F88E10012007F04DFA23780133237076
:403A4000854BDB78DBB20B2B0ED1854B1B781BB90120FEF775FF07E0013BDAB2804B1A700120202107F036FA7B4BDB78DBB20C2B2CD17B4B1B78052B28D90120392107F05D
:403A8000F3F9774B1978784B83F8D7100022774B1A600BE0581C734A134493F88E20724B0344303A83F8D720704B18606F4B1B689942EFD860206E4906F0D2FD18B90120B8
:403AC000552107F0D1F90022644B1A7064200FF0C9FC0EF023FF38BD0EF0F6FE082842F0CC865D4B1B78DBB2AA2B40F091805A4B9B79DBB2C32B40F08B80574BDB79DBB261
:403B00003C2B40F08580544BDB78DBB27A2B5FD006D8772B3ED0782B4CD0762B78D10AE0822B17D002D87E2B6BD071E0832B21D0952B5AD06CE00120302107F095F90023E3
:403B40004C4A1370464A13704B4A13701822434B1A705DE00120792107F086F90222454B1A7000233E4A1370434A137018223B4B1A704DE001207A2107F076F903223D4B7F
:403B80001A700023364A13703B4A13701822334B1A703DE00120782107F066F90122354B1A7000232E4A1370334A137018222B4B1A702DE00120652107F056F901222D4BC4
:403BC0001A700022264B1A701722244B1A701FE00120322107F048F90023264A1370204A137017221D4B1A7012E0244B1B78022B0ED10120662107F037F92022174B1A7016
:403C000006E00120702107F02FF90E22134B1A7064200FF027FC0EF081FE38BD0EF054FE082842F02A860C4B1B78DBB2AA2B7ED1094B9B79DBB2C32B79D1074BDB79DBB240
:403C40003C2B74D1044BDB787E3B042B6FD8DFE803F067172B3F5300B08AFF1F5A83FF1F2D85FF1F7486FF1F1487FF1F6C83FF1FEB87FF1F7785FF1F1688FF1F0785FF1FC1
:403C80000120062107F0F0F80022B84B1A70B84B1978B84B83F8A3100120482107F01AF91A22B54B1A7042E00120062107F0DCF80022AE4B1A70B14B1978AE4B83F8A31081
:403CC0000120482107F006F91A22AB4B1A702EE00120062107F0C8F80022A44B1A70A84B1978A44B83F8A3100120482107F0F2F81A22A14B1A701AE00120062107F0B4F83D
:403D000000229A4B1A709F4B19789A4B83F8A3100120482107F0DEF81A22974B1A7006E00120702107F0A0F80E22934B1A7064200FF098FB0EF0F2FD38BD0EF0C5FD0828BE
:403D400042F09B85904B1B78DBB2AA2B40F067818D4B9B79DBB2C32B40F061818A4BDB79DBB23C2B40F05B81874BDB78DBB2642B00F0D48004D8622B09D0632B2ED04EE1E5
:403D80007E2B00F03D81942B00F0428147E10120392107F069F864200FF064FB7B4B187809F000FF062815D1784B187909F0FAFE06280BD101204A2107F056F84FF42F70F9
:403DC0000FF050FB00226C4B1A7028E10120FEF7B7FD24E10120FEF7B3FD20E10120372107F042F86A4B5B78012B45D10022694B1A600AE0684A1344012093F82C1006F0E2
:403E0000B7FC644A136801331360624B1B68102BF0D901200A2106F0ABFC01200A2106F0A7FC01200A2106F0A3FC01200A2106F09FFC0022574B1A600AE0574A13440220FD
:403E400093F82C1006F094FC524A136801331360504B1B68102BF0D902200A2106F088FC02200A2106F084FC02200A2106F080FC02200A2106F07CFC454B5B78022B45D16B
:403E80000022444B1A600AE0434A1344032093F82C1006F06DFC3F4A1368013313603D4B1B68102BF0D903200A2106F061FC03200A2106F05DFC03200A2106F059FC03200C
:403EC0000A2106F055FC0022324B1A600AE0324A1344042093F82C1006F04AFC2D4A1368013313602B4B1B68102BF0D904200A2106F03EFC04200A2106F03AFC04200A2174
:403F000006F036FC04200A2106F032FC01206B2106F0AAFF2522184B1A7080E0012006F04BFC012868D133200EF016FD0120332106F084FC002872D00022184B1A600AE0A4
:403F4000012006F0E5FC164B1C4484F82900134A136801331360114B1C68072CF0D90023104A13700D4A13602BE000BF2D85FF1FBF88FF1F1487FF1F5A83FF1F2C85FF1F3C
:403F8000FE87FF1F5D83FF1FB08AFF1F5083FF1F6C86FF1F6C83FF1F0C81FF1F3085FF1F7486FF1F1585FF1FA14CA24A1344207893F8291006F048FF20709F4A13680133BB
:403FC00013609D4B1B68062BEED99A4B93F83020974B1B789A420BD101204B2106F044FF4FF47A700FF03EFA0022944B1A7016E00120FEF7A5FC12E00120FEF7A1FC0EE009
:404000000120002106F030FF00228C4B1A7006E00120702106F028FF0E22884B1A7064200FF020FA0EF07AFC38BD0EF04DFC082842F02384824B1B78DBB2AA2B40F03B8150
:404040007F4B9B79DBB2C32B40F035817C4BDB79DBB23C2B40F02F817A4B1B78042B00F2B180DFE803F0032C52AF8A00744AD278D2B2012A0FD80133DAB2724B1A70704C93
:40408000E17830310120C9B206F024FFE3781B016D4A82F8A1306A4BDB78DBB20A2B40F09180684B1A780132D2B21A700021664B83F8A1100120302106F00CFF82E0604A0A
:4040C000D278D2B2092A11D80133DAB25D4B1A705B4CE17830310120C9B206F0FBFEE178594A92F8A1300B4382F8A130544BDB78DBB20A2B66D1534B1A780132D2B21A70AC
:404100000120302106F0E6FE5CE04D4AD278D2B2052A17D80133DAB24A4C227001203A2106F0D8FE22780132D2B22270444CE17830310120C9B206F0CDFEE3781B01424AB7
:4041400082F8A0303E4BDB78DBB20A2B3AD13D4C22780132D2B2227001203A2106F0BAFE22780132D2B222700120302106F0B2FE0022354B83F8A02024E0314AD278D2B291
:40418000092A11D80133DAB22E4B1A702C4CE17830310120C9B206F09DFEE1782A4A92F8A0300B4382F8A030254BDB78DBB20A2B08D1244B1A780132D2B21A7001203021F0
:4041C00006F088FE1E4BDB78DBB2402B17D11F4B1B783BB901201D4B18707021062206F079FE07E00022194B1A7001206121062206F070FE01206D21072206F06BFE104BC7
:40420000DB78DBB20B2B2DD10E4B1A7812BB0E220A4B1A700E4B1B78012B04D101205D2106F022FE1EE00120702106F01DFE19E01585FF1F7486FF1F3085FF1F5A83FF1FA9
:40424000B08AFF1F2D85FF1F1487FF1F5B83FF1F0785FF1F0120202106F03CFE9F4A1378013B13709E4BDB78DBB20C2B23D19B4B1B78052B1FD19B4B1B7843F002029A49D2
:4042800091F8A13043EA421381F8A13006F088F9012810D10E22954B1A70954B1B78012B03D15D2106F0E0FD05E0022B03D10120702106F0D9FD64200FF0D4F80EF02EFB1F
:4042C00038BD0EF001FB082842F0D782844B1B78DBB2AA2B40F07281814B9B79DBB2C32B40F06C817E4BDB79DBB23C2B40F066817A4B1A78072A00F22281DFE812F008009F
:404300003100580020019100B7002001FB00744BDB78DBB2032B0FD8714CE17830310120C9B206F0D7FD6D4A137801331370E3781B016D4A82F89D30694BDB78DBB20A2BA7
:4043400040F0FD800022684B83F89D20634C01203021227806F0BEFD237801332370EEE05F4BDB78DBB2092B11D85D4CE17830310120C9B206F0AEFDE1785B4A92F89D304B
:404380000B4382F89D30554A137801331370544BDB78DBB20A2B40F0D280504C01203021227806F097FD237801332370C7E04C4BDB78DBB2012B17D801202F2106F08AFD96
:4043C000464C22780132D2B22270454DE97830310120C9B206F07EFDEB781B01424A82F89E302378013323703D4BDB78DBB20A2B40F0A580394C01202F21227806F06AFD53
:4044000022780132D2B222700120302106F062FD0022354B83F89E202378013323708EE02F4BDB78DBB2092B11D82D4CE17830310120C9B206F04EFDE1782B4A92F89E307A
:404440000B4382F89E30254A137801331370244BDB78DBB20A2B72D1204C01203021227806F038FD23780133237068E01C4BDB78DBB2092B17D801202F2106F02BFD174C85
:4044800022780132D2B22270154DE97830310120C9B206F01FFDEB781B01134A82F89F302378013323700E4BDB78DBB20A2B46D10A4C01202F21227806F00CFD227801320E
:4044C000D2B222700120302106F004FD0022064B83F89F2023780133237030E02D85FF1FB08AFF1F5B83FF1F1487FF1F5A83FF1F0785FF1FA34BDB78DBB2092B11D8A14CC4
:40450000E17830310120C9B206F0E4FCE1789E4A92F89F300B4382F89F309C4A137801331370984BDB78DBB20A2B08D1974C01203021227806F0CEFC237801332370914B38
:40454000DB78DBB20B2B1BD1904B1B7883B90E228F4B1A708F4B1B78012B04D101205D2106F082FC0CE00120702106F07DFC07E0013BDAB2854B1A700120202106F0AAFC66
:40458000804BDB78DBB20C2B18D1804B1B78082B14D106F033F8012810D10E227C4B1A707C4B1B78012B03D15D2106F05DFC05E0022B03D10120702106F056FC64200EF085
:4045C00051FF0EF0ABF938BD0EF07EF9082842F054816C4B1B78DBB2AA2B40F00E81694B9B79DBB2C32B40F00881664BDB79DBB23C2B40F00281654B1B780C2B61D8614AB7
:40460000D278D2B2092A1ED80133DAB25F4B1A70614B1B7813B1012B07D00DE0594BD978594B13443031997706E0564BD978564B1344303183F82F10524BD97830310120E0
:40464000C9B207F06FFA4F4BDB78DBB20A2B18D14E4B1A780132D2B21A704F4B1B7813B1012B05D009E0484B13443021997704E0454B1344302183F82F100120302107F0F6
:4046800051FA404BDB78DBB2512B1AD13F4B1B78BBB10133DAB23D4B1A703F4B1B7813B1012B05D009E0384B13442E21997704E0354B13442E2183F82F1001202E2107F053
:4046C00031FA304BDB78DBB20B2B49D12F4B1A78002A3DD10E222E4B1A702E4B1B78012B04D101205D2106F0BFFB03E00120702106F0BAFB2F200C2105F0F0FF0022274BDD
:404700001A6008E0264AD15C1F4A1A4482F82F100133224A1360224B1A78204B1B689A42F0D220200F2105F0D9FF00221B4B1A6007E01B4AD15C144A1A4491770133174A4B
:404740001360174B1A78154B1B689A42F1D207E00120202107F0E6F90C4A1378013B1370084BDB78DBB20C2B47D10E22084B1A70084B1B78012B15D101205D2106F074FB06
:4047800014E000BFB08AFF1F1487FF1F2D85FF1F5A83FF1F0785FF1F7785FF1F6C83FF1F3485FF1F0120702106F05EFB9A4B1B7813B1012B11D020E0984B1B78984901F828
:4047C0001E3F202005F04CFFB8B90120552106F04BFB6422934B1A700FE0904B1B78904901F82F3F2F2005F03BFF30B90120552106F03AFB64228B4B1A7064200EF032FE4C
:404800000EF08CF838BD0EF05FF8082842F03580854B1B78DBB2AA2B40F0D183824B9B79DBB2C32B40F0CB837F4BDB79DBB23C2B40F0C583794B1B78172B00F257827A4AC0
:40484000D278D2B2092A61D80133DAB2734B1A70714B1B78042B52D8DFE803F0031427394B00724B1978012904D16F4BDB7830336F488354002942D16B4BDB78303368492E
:404880008B543CE0694B1978012904D1664BDB78303368488354002931D1634BD978604B1344303183F8431029E0604B1978012904D15D4BDB7830335F488354F9B95A4BF9
:4048C000D978574B1344303183F8611017E0574B1978012904D1544BDB7830335748835469B9514BD9784E4B1344303183F87F1005E04D4BD978524B13443031D9724A4BC0
:40490000D97830310120C9B207F00CF9464BDB78DBB20A2B2BD1414B1A780132D2B21A703D4B1B78042B1ED8DFE803F003070D13190030213A4B995415E0394B134430210B
:4049400083F843100FE0364B1344302183F8611009E0334B1344302183F87F1003E0384B13443021D9720120302107F0DBF82E4BDB78DBB2672B2BD1284B1A780132D2B214
:404980001A70254B1B78042B1ED8DFE803F003070D1319002321224B995415E0204B1344232183F843100FE01D4B1344232183F8611009E01A4B1344232183F87F1003E02D
:4049C0001F4B13442321D9720120232107F0AAF8154BDB78DBB26A2B42D1104B1A780132D2B21A700C4B1B78042B35D8DFE803F003070D2A30002D21094B99542CE0084B14
:404A000013442D2183F8431026E0054B13442D2183F8611020E000BF7785FF1F2D85FF1F1487FF1F5A83FF1FB08AFF1F1688FF1F0885FF1F6083FF1FB488FF1F1885FF1FEA
:404A40007486FF1F934B13442D2183F87F1003E0914B13442D21D97201202D2107F062F88E4BDB78DBB2662B2BD18D4B1A780132D2B21A708B4B1B78042B1ED8DFE803F0E9
:404A800003070D1319004021824B995415E0814B1344402183F843100FE07E4B1344402183F8611009E07B4B1344402183F87F1003E0794B13444021D9720120402107F061
:404AC00031F8764BDB78DBB2692B2BD1744B1A780132D2B21A70734B1B78042B1ED8DFE803F003070D1319002E216A4B995415E0684B13442E2183F843100FE0654B134454
:404B00002E2183F8611009E0624B13442E2183F87F1003E0604B13442E21D97201202E2107F000F85D4BDB78DBB2682B4BD15C4B1A780132D2B21A705A4B1B78042B3ED8E8
:404B4000DFE803F0030F1D2B3900574B1B78012B02D12020554988548BBB20214D4B99542DE0514B1B78012B02D12020504988542BBB484B1344202183F843101FE04A4B8B
:404B80001B78012B02D120204A498854BBB9414B1344202183F8611011E0434B1B78012B02D12020444988544BB93A4B1344202183F87F1003E0384B13442021D9720120E1
:404BC000202106F0AFFF354BDB78DBB21A2B40F28D80324BDB78DBB2422B00F287800022364B1A607DE02D4AD278D2B234491944097A8A4271D12A490A780132D2B20A70D9
:404C000028490978042962D8DFE801F0031223335C0025490878012803D103F14101234CA154002853D103F141011A4881544EE01D490878012803D103F141011C4CA154BA
:404C4000002844D11349114403F1410081F843003DE015490878012803D103F14101154CA154A0BB0B49114403F1410081F861002DE00D490878012803D103F141010E4C4E
:404C8000A15420BB0349114403F1410081F87F001DE000BF1487FF1F7486FF1FB08AFF1F2D85FF1F7785FF1F1688FF1F0885FF1F6083FF1FB488FF1F1885FF1F6C83FF1FFD
:404CC0000C81FF1FA949114403F14100C87203F141010120C9B206F025FFA54A136801331360A34B1B68192B7FF67DAFA14BDB78DBB20B2B76D1A04B1A78002A6AD10E22A5
:404D00009E4B1A709E4B1B78012B04D101205D2106F0AAF803E00120702106F0A5F84020202105F0DBFC0022914B1A6008E0954AD15C954A1A4482F8431001338C4A1360C4
:404D4000904B1A788A4B1B689A42F0D28020202105F0C4FC0022864B1A6008E0894AD15C894A1A4482F861100133814A1360854B1A787F4B1B689A42F0D2A020202105F014
:404D8000ADFC00227A4B1A6008E07E4AD15C7E4A1A4482F87F100133754A1360794B1A78734B1B689A42F0D20020202105F096FC00226F4B1A6006E0724AD15C724AD15454
:404DC00001336B4A13606F4B1A78694B1B689A42F2D207E00120202106F0A4FE664A1378013B1370634BDB78DBB20C2B40F0E7800E22624B1A70624B1B78012B04D1012034
:404E00005D2106F031F803E00120702106F02CF85E4B1B78042B00F2D280DFE813F005002E0058008000C500594B1B78012B0DD1584C514B1B78237040F26A40564905F0C6
:404E40000FFC40F26A40214605F00AFC504B1B78002B40F0B4804C49474B1B780B70002005F0FEFB002840F0AA800120552105F0FBFF6422414B1A70A1E0454B1B78012B75
:404E80000DD1464C3C4B1B78237040F27540424905F0E6FB40F27540214605F0E1FB3C4B1B78002B40F08B80334B1B78364901F8433F402005F0D4FB002840F08080012046
:404EC000552105F0D1FF64222C4B1A7077E0304B1B78012B0DD1324C274B1B7823704FF490602D4905F0BCFB4FF49060214605F0B7FB274B1B78002B61D11F4B1B7822490B
:404F000001F8613F802005F0ABFB002857D10120552105F0A9FF6422184B1A704FE01C4B1B78012B0DD11F4C134B1B78237040F28B40194905F094FB40F28B40214605F048
:404F40008FFB134B1B78002B39D10B4B1B780E4901F87F3FA02005F083FB80BB0120552105F082FF6422054B1A7028E07486FF1F6C83FF1FB08AFF1F2D85FF1F5A83FF1F5F
:404F80000785FF1F3485FF1F1487FF1F7785FF1F1688FF1F0885FF1F4C81FF1F6083FF1FB488FF1F1885FF1FA14B1A78A14BDA720120392105F058FF24229F4B1A7064207A
:404FC0000EF050FA0DF0AAFC38BD0DF07DFC082841F05384994B1B78DBB2AA2B2DD1974B9B79DBB2C32B28D1944BDB79DBB23C2B23D1924BDB78DBB25F2B04D07E2B15D01E
:405000005E2B1AD10AE001200B2105F02DFF01228B4B5A700A22884B1A700EE001201D2105F022FF0B22844B1A7006E00120002105F01AFF0022804B1A7046200EF012FA52
:405040000DF06CFC38BD0DF03FFC082841F015847A4B1B78DBB2AA2B40F0C680774B9B79DBB2C32B40F0C080744BDB79DBB23C2B40F0BA806E4B1B78062B25D86F4AD278C5
:40508000D2B2092A0FD80133DAB2694B1A706B48C178684B13443031D972C17830310120C9B205F017FF654BDB78DBB20A2B0BD15F4B1A780132D2B21A705E4B1344302102
:4050C000D972012005F006FF5C4BDB78DBB20B2B24D1574B1A7882B90E22574B1A70594B1B78012B04D101205D2105F0BDFE15E00120702105F0B8FE10E00120202105F0AD
:40510000E9FE4B4B1B784B4A1A44D27A2C2A02D100214D4A1170013B454A1370474BDB78DBB20C2B60D1424B1B78032B5CD90622414B1A700120392105F096FE3C4B1A78B8
:405140003C4BDA72414B18780CF024FA002848D03F4B93F8A3203F4B1B789A4204D140F2B3103D4905F07CFA394B93F8A3203B4B1B789A4204D140F2A710374905F070FAF6
:40518000334B93F8A320364B1B789A4204D140F2AD10314905F064FA2D4B93F8A320314B1B789A4204D14FF47A702B4905F058FA01203C2105F058FE4FF4FA700EF052F975
:4051C0000E221D4B1A701F4B1B78012B04D101205D2105F049FE07E00120702105F044FE02E00120FDF7ACFB64200EF03BF90DF095FB38BD0DF068FB082841F03E830F4B32
:405200001B78DBB2AA2B75D10C4B9B79DBB2C32B70D10A4BDB79DBB23C2B6BD1074BDB787E3B042B66D8DFE803F05E1F434E56002D85FF1F7486FF1F5A83FF1FB08AFF1F0F
:405240005883FF1F0785FF1F5B83FF1F5083FF1F1487FF1FBF88FF1F7F86FF1FFE87FF1F2C85FF1F5D83FF1F0120582105F0FCFD01200021732240F2C31306F051F8012026
:405280000021CF2240F2C51306F04AF801200146292240F2C11306F043F8012001467B2240F2EE3306F03CF81C22B04B1A7021E00120062105F0D8FD0022AD4B1A701D2275
:4052C000AA4B1A7016E001206D2105F0CDFD1E22A64B1A700EE001208A2105F0C5FD2A22A24B1A7006E00120002105F0BDFD00229E4B1A7064200EF0B5F80DF00FFB38BD45
:405300000DF0E2FA082841F0B8829A4B1B78DBB2AA2B56D1974B9B79DBB2C32B51D1954BDB79DBB23C2B4CD1924BDB787E3B042B47D8DFE803F03F03122130000120062142
:4053400005F092FD00228A4B1A7001228A4B83F8A3201F22854B1A7033E00120062105F083FD0022824B1A700222834B83F8A3201F227E4B1A7024E00120062105F074FD98
:4053800000227B4B1A7003227B4B83F8A3201F22764B1A7015E00120062105F065FD0022734B1A700422744B83F8A3201F226F4B1A7006E00120002105F056FD00226B4BD8
:4053C0001A7064200EF04EF80DF0A8FA38BD0DF07BFA082841F05182664B1B78DBB2AA2B40F0BE80634B9B79DBB2C32B40F0B880604BDB79DBB23C2B40F0B2805C4B1B78D9
:40540000042B36D85B4AD278D2B2092A0FD80133DAB2574B1A705748C178584B13443031D972C17830310120C9B205F053FD514BDB78DBB20A2B0BD14D4B1A780132D2B24F
:405440001A704E4B13443021D972012005F042FD484BDB78DBB2512B0BD1454B1A780132D2B21A70454B13442C21D972012005F031FD404BDB78DBB20B2B24D13C4B1A7821
:4054800082B90E22394B1A703D4B1B78012B04D101205D2105F0E8FC15E00120702105F0E3FC10E00120202105F014FD304B1B78324A1A44D27A2C2A02D10021314A117092
:4054C000013B2B4A13702B4BDB78DBB20C2B47D1274B1B78052B43D1284B1B7B353BDBB2022B3DD80120392105F0BEFC204B1B78224901F80B3F4FF4DD7005F0B1F8012815
:4055000005D11E4B1B7B03F00F031F4A137040F25A201E4905F0A4F8012821D1174A937B03F00F031A490B70137C03F00F03194A13703C2105F098FC4FF4FA700DF092FFF9
:405540000E220A4B1A700E4B1B78012B04D101205D2105F089FC03E00120702105F084FC64200DF07FFF0DF0D9F938BD5A83FF1F2D85FF1FB08AFF1F1487FF1F7486FF1F55
:405580000785FF1F5B83FF1F1485FF1F7F86FF1F5E83FF1FFF87FF1F0DF096F9082841F06C81A04B1B78DBB2AA2B71D19D4B9B79DBB2C32B6CD19B4BDB79DBB23C2B67D1B2
:4055C000984BDB78DBB28F2B04D0902B2ED07E2B5ED156E09449002381F82D3081F82E304FF4DE702D3105F03BF801281AD100228E4B1A703C2105F037FC4FF4FA700DF007
:4056000031FF8B4B1B78012B04D101205D2105F02BFC03E00120702105F026FC0E22854B1A7035E00120FDF78BF931E07E49012381F82D3081F82E304FF4DE702D3105F0A4
:405640000FF8012819D1794B18703C2105F00CFC4FF4FA700DF006FF754B1B78012B04D101205D2105F000FC03E00120702105F0FBFB0E226F4B1A700AE00220FDF760F98A
:4056800006E00120702105F0EFFB0E22694B1A7064200DF0E7FE0DF041F938BD0DF014F9082841F0EA805F4B1B78DBB2AA2B40F0B3805C4B9B79DBB2C32B40F0AD80594B65
:4056C000DB79DBB23C2B40F0A7805B4B1B782BBB544AD278D2B2092A0FD80133DAB2564B1A705048C178554B13443031D972C17830310120C9B205F0EDFB4A4BDB78DBB27F
:405700000A2B0BD14C4B1A780132D2B21A704B4B13443021D972012005F0DCFB414BDB78DBB20B2B1BD1444B1A783AB90120002105F09AFB00223F4B1A7010E00120202182
:4057400005F0C8FB3C4B1B783C4A1A44D27A2C2A02D100213A4A1170013B374A1370314BDB78DBB20C2B57D1334B1B78012B53D10120392105F078FB2F4B1A782F4BDA72C7
:40578000294B93F8A330012B08D12C490A7B2D4B1A7040F2C1100B3104F062FF224B93F8A330022B08D125490A7B274B1A7040F2C3100B3104F054FF1B4B93F8A330032B48
:4057C00008D11E490A7B214B1A7040F2C5100B3104F046FF144B93F8A330042B08D117490A7B1B4B1A7040F2EE300B3104F038FF4FF4FA700DF036FE0E220E4B1A700C4BD9
:405800001B78012B04D101205D2105F02DFB03E00120702105F028FB64200DF023FE0DF07DF838BDB08AFF1F1487FF1F8285FF1F0785FF1F5A83FF1F2D85FF1F7486FF1F9F
:405840005B83FF1FFE87FF1FBF88FF1F2C85FF1F5D83FF1F0DF038F8082841F00E80C14B1B78DBB2AA2B40F09E82BE4B9B79DBB2C32B40F09882BB4BDB79DBB23C2B40F08A
:405880009282B84BDB787E3B252B00F28C82DFE813F069028A028A028A028A028A022600FE004A0021016E009200DA00B6008A028A028A028A028A028A028A028A024702BB
:4058C0008A028A022402450171018A028A028A028A028A028A029501B901DD010102A24901230B7000234B7040F2C71004F0B8FE012840F058823C2105F0B6FA4FF4FA703C
:405900000DF0B0FD0E22994B1A70994B1B78012B04D101205D2105F0A7FA44E20120702105F0A2FA3FE2904901230B700B234B7040F2C71004F094FE012840F034823C218C
:4059400005F092FA4FF4FA700DF08CFD0E22874B1A70874B1B78012B04D101205D2105F083FA20E20120702105F07EFA1BE27E4901230B7004234B7040F2C71004F070FE9F
:40598000012840F010823C2105F06EFA4FF4FA700DF068FD0E22754B1A70754B1B78012B04D101205D2105F05FFAFCE10120702105F05AFAF7E16C4901230B700C234B708A
:4059C00040F2C71004F04CFE012840F0EC813C2105F04AFA4FF4FA700DF044FD0E22634B1A70634B1B78012B04D101205D2105F03BFAD8E10120702105F036FAD3E15A49BF
:405A000001230B7009234B7040F2C71004F028FE012840F0C8813C2105F026FA4FF4FA700DF020FD0E22514B1A70514B1B78012B04D101205D2105F017FAB4E10120702170
:405A400005F012FAAFE1484901230B7008234B7040F2C71004F004FE012840F0A4813C2105F002FA4FF4FA700DF0FCFC0E223F4B1A703F4B1B78012B04D101205D2105F01C
:405A8000F3F990E10120702105F0EEF98BE1364901230B704B7040F2C71004F0E1FD012840F081813C2105F0DFF94FF4FA700DF0D9FC0E222D4B1A702D4B1B78012B04D199
:405AC00001205D2105F0D0F96DE10120702105F0CBF968E1244901230B7006234B7040F2C71004F0BDFD012840F05D813C2105F0BBF94FF4FA700DF0B5FC0E221B4B1A70E8
:405B00001B4B1B78012B04D101205D2105F0ACF949E10120702105F0A7F944E1124901230B700E234B7040F2C71004F099FD012840F039813C2105F097F94FF4FA700DF084
:405B400091FC0E22094B1A70094B1B78012B04D101205D2105F088F925E10120702105F083F920E1B08AFF1F2885FF1F5A83FF1F0785FF1FC04901230B700D234B7040F2D6
:405B8000C71004F06DFD012840F00D813C2105F06BF94FF4FA700DF065FC0E22B74B1A70B74B1B78012B04D101205D2105F05CF9F9E00120702105F057F9F4E0AE4901230E
:405BC0000B7003234B7040F2C71004F049FD012840F0E9803C2105F047F94FF4FA700DF041FC0E22A54B1A70A54B1B78012B04D101205D2105F038F9D5E00120702105F07C
:405C000033F9D0E09C4901230B7005234B7040F2C71004F025FD012840F0C5803C2105F023F94FF4FA700DF01DFC0E22934B1A70934B1B78012B04D101205D2105F014F988
:405C4000B1E00120702105F00FF9ACE08A4901230B7007234B7040F2C71004F001FD012840F0A1803C2105F0FFF84FF4FA700DF0F9FB0E22814B1A70814B1B78012B04D1BF
:405C800001205D2105F0F0F88DE00120702105F0EBF888E0784901230B700A234B7040F2C71004F0DDFC01287DD13C2105F0DCF84FF4FA700DF0D6FB0E22704B1A70704BA3
:405CC0001B78012B04D101205D2105F0CDF86AE00120702105F0C8F865E0674901230B7002234B7040F2C71004F0BAFC01285AD13C2105F0B9F84FF4FA700DF0B3FB0E2200
:405D00005E4B1A705E4B1B78012B04D101205D2105F0AAF847E00120702105F0A5F842E0554900230B704B7040F2C71004F098FC012838D13C2105F097F84FF4FA700DF0EB
:405D400091FB0E224D4B1A704D4B1B78012B04D101205D2105F088F825E00120702105F083F820E0444900230B704B7040F2C71004F076FC01280FD10E22404B1A70404BB0
:405D80001B78012B03D15D2105F06EF80BE00120702105F069F806E00120002105F064F80022364B1A7064200DF05CFB0CF0B6FD38BD0CF089FD08284ED1324B1B78DBB2F4
:405DC000AA2B44D12F4B9B79DBB2C32B3FD12D4BDB79DBB23C2B3AD12A4BDB78DBB20A2B29D10122284B1A6010E0284B5878284B19780122274B1B7806F0DEFA4FF4FA7067
:405E00000DF030FB204A136801331360224B1B7803F00F031C4A12689342E6D201200C2105F022F81D480CF099FF0CF069FF6422124B1A700BE001200C2105F015F8642254
:405E40000E4B1A7015480CF089FF0CF059FF64200DF008FB0CF062FD114B1B78132B40F20C8501200C2104F0FFFF6422034B1A7000220B4B1A7038BD2885FF1F5A83FF1FE0
:405E80000785FF1FB08AFF1F3085FF1F7086FF1F1788FF1F5083FF1FB088FF1F752200007685FF1F0CF010FD082840F0E684B04B1B78DBB2AA2B5ED1AD4B9B79DBB2C32BCC
:405EC00059D1AB4BDB79DBB23C2B54D1A84BDB78DBB2392B0FD002D8382B05D04BE07E2B42D0942B35D046E00021A24B1970012004F0BAFF3FE09F4D00232B7001203B2172
:405F000004F0B2FF9C4C607807F060FA60780A2104F02EFC60780A2104F02AFC60780A2104F026FC60781D2104F022FC6078562104F01EFC6078312104F01AFC64232B7079
:405F400001228E4B1A708E480CF008FF0CF0D8FE11E001202F2104F087FF0022894B1A702822844B1A7006E00120002104F07CFF0022804B1A7064200DF074FA0CF0CEFC2E
:405F800038BD0CF0A1FC082840F07784784B1B78DBB2AA2B48D1764B9B79DBB2C32B43D1734BDB79DBB23C2B3ED1714BDB78DBB2912B08D002D87E2B27D035E0922B13D04F
:405FC000942B2AD030E001200A2104F04DFF01226D4B1A7004226D4B1A700022694B1A701822644B1A701FE001206F2104F03CFF2122654B1A700422644B1A700022614B23
:406000001A7018225B4B1A700EE00120002104F02BFF0022574B1A7006E00120702104F023FF0E22534B1A7064200DF01BFA0CF075FC38BD564B012013F80B1F524A1278B5
:4060400004F07CFD012820D16E2104F00DFF2322484B1A700120014604F096FC052810D90A200DF0FFF9012005F0D8FC0120212104F08AFC052840F20084012005F04CFC7D
:4060800038BD0120FCF75CFC38BD0120FCF758FC38BD0CF019FC082840F0EF83344B1B78DBB2AA2B40F09580314B9B79DBB2C32B40F08F802E4BDB79DBB23C2B40F089804D
:4060C0002B4BDB78DBB2392B04D07E2B47D0382B7FD13CE02F4B5A78012A07D1264901230B704B702C490B7002234B70022A08D1214B01221A7003215970274B1A7004226E
:406100005A7040F263201C4904F0AAFA012860D140F26520204904F0A3FA012859D1682104F0A2FE4FF4FA700DF09CF90E22114B1A701A4B1B78012B04D101205D2104F087
:4061400093FE46E00120702104F08EFE41E02622084B1A700120672104F086FE39E0104B5B78012B1ED100220D4B5A701DE000BFB08AFF1F5A83FF1F7086FF1F7685FF1FED
:40618000752200002D85FF1F7885FF1F7785FF1F7486FF1F6C86FF1F1087FF1F0785FF1F5883FF1F0122B54B5A7040F2DA30B34904F056FA01203C2104F056FE4FF4FA70E7
:4061C0000DF050F90120002104F04EFE0022AC4B1A7064200DF046F90CF0A0FB38BD0CF073FB082840F04983A64B1B78DBB2AA2B40F0C880A34B9B79DBB2C32B40F0C28005
:40620000A04BDB79DBB23C2B40F0BC809D4BDB78DBB28C2B09D003D87E2B00F0AC80B1E08D2B40D08E2B79D0ACE0974B5B78012B07D1964A0120107002215170944A107064
:406240005170022B07D1914B0121197004225A708F4B19705A7040F263208C4904F000FA012840F08F8040F26520894904F0F8F9012840F087806A2104F0F6FD4FF4FA70E7
:406280000DF0F0F80E227E4B1A70824B1B78012B04D101205D2104F0E7FD73E00120702104F0E2FD6EE0784B5A78012A06D1774901230B704B7076490B704B70022A07D1CE
:4062C000724B0121197003225A70714B19705A7040F263206D4904F0C3F9012852D140F265206B4904F0BCF901284BD1692104F0BBFD4FF4FA700DF0B5F8664B1B78012B7B
:4063000004D101205D2104F0AFFD03E00120702104F0AAFD0E225A4B1A7033E05B490120087000224A705A4B18705A7040F2632004F096F9012825D140F26520544904F0F8
:406340008FF901281ED16C2104F08EFD4FF4FA700DF088F80E224A4B1A704E4B1B78012B04D101205D2104F07FFD0BE00120702104F07AFD06E00120002104F075FD002204
:406380003F4B1A7064200DF06DF80CF0C7FA38BD0CF09AFA082840F070823A4B1B78DBB2AA2B40F0F180374B9B79DBB2C32B40F0EB80344BDB79DBB23C2B40F0E580364BAB
:4063C0001A78032A26D82F4BDB78DBB2092B0ED82C4BD978314B1344303183F88E1001202A2104F077FD2C4A137801331370254BDB78DBB20A2B0DD1274C2278274B134492
:40640000302183F88E1001202A2104F063FD2378013323701B4BDB78DBB20B2B0ED11E4B1B781BB90120FCF78BFA07E0013BDAB2194B1A700120202104F04CFD114BDB7821
:40644000DBB20C2B40F0A080134B1A78002A00F08C80002312490B6012490B602BE0591C1148405C0D4C234493F88E3098421DD10B480368013303601BE000BF5883FF1FF5
:406480005A83FF1FB08AFF1F6C86FF1F7086FF1F1087FF1F0785FF1F2D85FF1F7486FF1F8485FF1F6C83FF1F0C81FF1F0020AF4B1860AF4B19601046AD4B1B689A42CED8E7
:4064C000AC4B1A78A94B1B689A420FD10120262104F0CAFC4FF4FA700CF0C4FF2222A64B1A700120712104F0BFFC4DE000239F4A13609F4A136010E09E4A1A4492F8241035
:406500009E4A1A4492F88E20914203D197490A6801320A600133964A1360954B1B689842EAD8924B1B68042B0FD10120262104F09BFC4FF4FA700CF095FF22228E4B1A707B
:406540000120712104F090FC1EE00120272104F08BFC6422884B1A700122894B1A7089480CF0FCFB0CF0CCFB0EE00120272104F07BFC6422804B1A700122814B1A7081483C
:406580000CF0ECFB0CF0BCFB64200CF06BFF0CF0C5F938BD0CF098F9082840F06E817A4B1B78DBB2AA2B7AD1774B9B79DBB2C32B75D1754BDB79DBB23C2B70D1734B1A789B
:4065C000032A27D8704BDB78DBB2092B10D86E48C1786A4B1344303183F88E10C17830310120C9B204F076FC684A137801331370654BDB78DBB20A2B0CD1644C22785F4B1D
:406600001344302183F88E10012004F063FC2378013323705C4BDB78DBB20B2B0ED15B4B1B781BB90120FCF78BF907E0013BDAB2564B1A700120202104F04CFC524BDB781A
:40664000DBB20C2B2BD1514B1B78042B27D10120392104F009FC0023474A13704B4A127844490A7042490B6008E0591C4348034493F88E003F4B58543D4B19603C4B1B68B4
:406680009A42F2D840F29F203A4903F0E9FF30B90120552104F0E8FB6422374B1A7064200CF0E0FE0CF03AF938BD0CF00DF9082840F0E380344B1B78DBB2AA2B4FD1324BA4
:4066C0009B79DBB2C32B4AD12F4BDB79DBB23C2B45D12D4BDB78DBB2BC2B08D002D87E2B36D03CE0BD2B12D0BE2B21D037E00120702104F0B9FB264901230B704B704FF43B
:406700007D7003F0ADFF0E221B4B1A7027E00120702104F0A9FB1E4901230B7002234B704FF47D7003F09CFF0E22134B1A7016E00120062104F098FB0122164B1A700023AA
:40674000124A1370144A137005220B4B1A7006E00120702104F088FB0E22074B1A7064200CF080FE0CF0DAF838BD00BF8485FF1F6C83FF1F0C81FF1F5A83FF1F7486FF1FC5
:406780007685FF1F75220000B08AFF1F2D85FF1F6C86FF1F6F86FF1F5B83FF1F0CF094F808286AD1354B1B78DBB2AA2B60D1334B9B79DBB2C32B5BD1304BDB79DBB23C2B4D
:4067C00056D12E4BDB78763B0D2B51D8DFE803F007385050505050504950505017270120302104F041FB0023254A1370254A13700122254B1A701822244B1A7038E0012012
:40680000302104F031FB01231D4A137000211D4A11701D4A137018221C4B1A7028E00120302104F021FB0222154B1A700022154B1A700122144B1A701822144B1A7017E0F1
:406840000120302104F010FB03220D4B1A7000220C4B1A7001220C4B1A7018220B4B1A7006E001205F2104F0FFFA1B22074B1A7064200CF0F7FD0CF051F838BDB08AFF1FEC
:406880007785FF1F2D85FF1F1688FF1F5A83FF1F38B5984B1B78642B03F20586DFE813F074008000031EA100000188013B02D902031E410331048104EE046F05A2059606DB
:4068C000990700089A083309C5093D0B8C0C110E2F0F10124E1239139A131E14EE148C15501628198B19121A6B1A9B1A241B171C1A1DA51D031E031E031E031E031E031ED5
:40690000031E031E031E031E031E031E031E031E031E031E031E031E031E031E031E031E031E031E031E031E031E031E031E031E031E031E031E031E031E031E031E031E37
:40694000031E031E031E031E031E031E031E031E031E031E031E031E031E031E031E031E031E031E031E031E6500634B1B78012B43F2998500245F4B1C700CF0B7FA0CF05B
:4069800019FA5D4B1C7038BD5C480CF0A1FA0CF071FA0022584B1A700122564B1A7038BD0CF080F8082843F07E850CF0A5F80CF09DFA0CF0FFF9524B1B78022B04D1022019
:4069C000632104F051FA03E00220452104F04CFA64200CF047FD0CF08FF80322454B1A7038BD0CF05FF8082843F05D85454B1B78DBB2AA2B4ED1434B9B79DBB2C32B49D141
:406A0000404BDB79DBB23C2B44D13E4BDB78DBB2592B2DD002D8452B1FD03BE05C2B02D07E2B30D036E00022374BDA70344B1B78012B06D10220052104F016FA04222D4B2B
:406A40001A702F4B1B78022B24D10220492104F00BFA1922274B1A701CE00220252104F003FA0022294B1A700F22224B1A7011E00220252104F0F8F90022244B1A70272262
:406A80001C4B1A7006E00220002104F0EDF90022184B1A7064200CF0E5FC0CF02DF838BD0CF000F8082843F0FE84164B1B78DBB2AA2B77D1134B9B79DBB2C32B72D1114B59
:406AC000DB79DBB23C2B6DD10F4AD37823F00303D3700C4BDB78DBB23B2B4BD004D80F2B16D0102B28D05DE0432B3BD07E2B52D058E000BF2B85FF1F0585FF1FBD2200005C
:406B00000785FF1FC48AFF1F1888FF1F0D87FF1F0220062104F0A8F90022A74B1A700220482104F0D7F9A54AD37843F00203D3700522A34B1A7035E002200D2104F094F9CA
:406B400000229D4B1A709F4B1A700220472104F0C1F99A4AD37843F00103D3700522984B1A701FE00220072104F07EF90622944B1A7017E0944B1B78022B04D10220632142
:406B800004F072F903E00220452104F06DF903228B4B1A7006E00220002104F065F90022874B1A7064200CF05DFC0BF0A5FF38BD0BF078FF082843F07684844B1B78DBB208
:406BC000AA2B40F0A280814B9B79DBB2C32B40F09C807E4BDB79DBB23C2B40F09680764B1B787B4A1278013A93423EDC774AD278D2B2092A0FD80133DAB26F4B1A7073483B
:406C0000C1786E4B13443031D972C17830310220C9B204F05FF96D4BDB78DBB20A2B0BD1654B1A780132D2B21A70644B13443021D972022004F04EF9644BDB78DBB2512BA6
:406C400013D15D4B1B7883B15E4A12786AB90133DAB2594B1A70594B13442C21D972022004F038F90122574B1A70584BDB78DBB20B2B1BD1504B1A783AB90220052104F054
:406C8000F3F804224E4B1A7010E00220202104F021F9494B1B78494A1A44D27A2C2A02D10021484A1170013B434A1370474BDB78DBB20C2B29D1404B1B786BB1454B1B7832
:406CC00053B90220072104F0CFF83B4B1A783B4BDA7206223A4B1A70374B1B78ABB13D4B1B78012B11D10220702104F0BDF8334B1B7B39490B7040F28D4003F0B1FC00229A
:406D0000344B1A700E222E4B1A7064200CF0AAFB0BF0F2FE38BD64200CF0A4FB0BF0C2FE082820D1294B1B78DBB2AA2B15D1274B9B79DBB2C32B10D1244BDB79DBB23C2B2F
:406D40000BD1224BDB78DBB27E2B06D10220002104F08AF800221A4B1A7064200CF082FB0BF0CAFE38BD1D4B187906F01BFF072843F0998332200CF075FB184B187906F0BC
:406D800025FF174B187032200CF06CFB0B4BDB7813F0030328D0114A1079114A1178114A0AF0B6F900BB0220002104F05DF80022034B1A7038BD00BF0D87FF1F1888FF1F35
:406DC0002B85FF1F2E85FF1F0785FF1FC48AFF1F1485FF1F6F86FF1FB088FF1F5083FF1F7286FF1F2388FF1F01200CF0E3FA9A4B187906F0EBFE994B1870002803F0538342
:406E0000974B1B7803F00F03834211D0954B1B7803F00F0398420BD0934B1B7803F00F03984205D0914B1B7803F00F03984202D102200AF0EDFD884B187940F010000BF01A
:406E4000D5F80220082104F00FF80722884B1A7038BD32200CF006FB7F4B187906F0A2FE0A282FD00B2803D0062843F01C8350E064200CF0F7FA784B187906F01BFF0128DF
:406E80000CD17C4B1B784BB90220392103F0ECFF14200CF0E7FA0D22754B1A706E4B187906F008FF012843F0FE82724B1B78012B43F0F98202200C2103F0D6FF00226C4B76
:406EC0001A7038BD644B187906F0F4FE01280CD1684B1B784BB90220392103F0C5FF14200CF0C0FA0D22624B1A705B4B187906F0E1FE012843F0D7825E4B1B78012B43F0BC
:406F0000D28202200C2103F0AFFF0022584B1A7038BD0220002103F0A7FF0022544B1A7038BD0BF0BFFD082840F0D680524B1B78DBB2AA2B40F0CB804F4B9B79DBB2C32B0A
:406F400040F0C5804C4BDB79DBB23C2B40F0BF8000224A4B1A704A4B1B78062B65D8464AD278D2B2092A10D80133DAB2444B1A704148C178434B1344303183F86510C178F4
:406F800030310220C9B203F0A5FF3B4BDB78DBB20A2B0CD13A4B1A780132D2B21A70394B1344302183F86510022003F093FF324BDB78DBB26A2B0CD1314B1A780132D2B215
:406FC0001A70304B13442D2183F86510022003F081FF294BDB78DBB21A2B26D9264BDB78DBB2422B21D80022274B1A6019E0224AD278D2B225491944097A8A420DD1204971
:407000000A780132D2B20A704133D9B21D4B134483F86510022003F05DFF1B4A136801331360194B1B68192BE1D9134BDB78DBB20B2B35D1124B1A7852BB02200B2103F05B
:4070400013FF104B002283F8652083F883200A22074B1A7024E000BF5083FF1F7286FF1FFE87FF1FBF88FF1F2C85FF1F5D83FF1F2B85FF1F5C83FF1FC48AFF1F0585FF1FDD
:407080000D87FF1F1888FF1F6C83FF1F0C81FF1F0220202103F01EFF9F4A1378013B13709E4BDB78DBB20C2B11D19B4B1B7873B10220052103F0D8FE994B974A127883F8A8
:4070C0006520012283F883200422964B1A7064200CF0C8F90BF010FD934B1B781D2B43F2E28102200B2103F0BFFE8D4A002382F8653082F883308C4A13700A22894B1A7088
:4071000038BD0BF0CFFC08283BD1844B1B78DBB2AA2B31D1814B9B79DBB2C32B2CD17F4BDB79DBB23C2B27D17C4BDB78DBB2382B18D0392B20D10022774B1A70784BDB7865
:4071400013F0040F0AD102200A2103F08DFE0022764B1A700922734B1A700DE00D22714B1A7009E00220052103F07EFE01226F4B1A7004226B4B1A7064200CF073F90BF0BD
:40718000BBFC694B1B781D2B43F28D8102200C2103F06AFE0122644B1A706422614B1A7038BD0220012103F0EFFB052840D90A200CF058F90220212103F0E6FB052837D93C
:4071C000022003F0F9FA012832D133200BF0B2FC0220332103F032FB50B30022544B1A600AE0022003F094FB4D4B1C4484F829004F4A1368013313604D4B1C68072CF0D98D
:407200000220132103F030FE454CE37843F00403E3704FF4FA700CF025F902200E2103F023FE00233C4A137023710C223D4B1A700BF038FC082843F03681384B1B78DBB246
