:4000000000800020110000009D0000009D00000080B500AF064B064A126842F020021A60044B054A12681A6000F004FB00F03AF8E8460040BC760040FA46004010B5054CEF
:40004000237833B9044B13B10448AFF300800123237010BD2881FF1F00000000901D000008B5064B1BB106480649AFF300800648036813B1054B03B1984708BD00000000C2
:40008000901D00002C81FF1F0881FF1F0000000080B500AF00F078FAFEE700BF80B400AFFEE700BF80B586B000AF224B7B61224B3B61204B7B6135E03B691B68FB603B69C2
:4000C0005B68BB603B699B683B6000237B600CE0FB681A68BB681A60BB680433BB60FB680433FB607B6804337B607A683B689A42EED13B69DB683B6000237B6008E0BB686A
:4001000000221A60BB680433BB607B6804337B607A683B689A42F2D13B6910333B617B69013B7B617B69002BC6D101F0F5FDFFF7AFFFFEE701000000A021000080B582B0DB
:4001400000AF174B174A1A60174B174A126842F400721A6000237B600FE07B68032B04D8124B7A6853F8223000E0114B114A796842F821307B6801337B607B682F2BECD987
:400180000D4B1B78DAB20D4B1A700D4B094A1A6000F026F90B4B00221A600837BD4680BD0CED00E00004FA0514ED00E0000000009D0000000080FF1FBC7600400481FF1F34
:4001C00008ED00E00081FF1F80B582B000AF78603960786800213A6801F0CDFD0837BD4680BD00BF80B584B000AFF860B9607A60F868B9687A6801F0B5FD1037BD4680BD78
:4002000080B584B000AFF860B9607A60F868B9687A6801F0A7FD1037BD4680BD80B483B000AF0346FB71FEE780B487B000AF7860396000233B6100237B6126E07B699B005E
:400240007A6813441B68BB60BB68FB73BB6823F0FF03BB6013E03B695B003A6813441B781A46BB6813443A69520039680A4452781A703B6901333B61FB7B013BFB73FB7B29
:40028000002BE8D17B6901337B617B69102BD5D91C37BD465DF8047B704700BF80B582B000AF304B19221A802F4B18221A702F4B02221A704FF0402308221A702C4B03223B
:4002C0001A702C4B2C4A1278D2B21A702B4B08221A802B4B41F251221A800023FB7019237B6014E0FB785B00DAB2264B1B78DBB203F00103DBB21343DBB203F00303FB70B0
:400300004FF4F07000F00CFF7B68013B7B607B68002B02D0FB78032BE4D17B68002B02D10320FFF77BFF184B4FF480721A80164B07221A70154B00221A70154B48221A70D5
:40034000114B00221A70134B02221A70124B124A1278D2B242F00102D2B21A700837BD4680BD00BF80400040824000400043004000420040A14600400801004922420040FD
:40038000204200402542004004400040064000400840004001400040A243004080B483B000AF0B4B1B78FB710A4BFA7902F00702D2B21A70084BFA791209D2B21A70074B3F
:4003C00044221A700C37BD465DF8047B704700BFCF0100496E5800406F5800407658004080B582B000AF72B6334B334A1278D2B242F02402D2B21A700023FB7113E0FA79A7
:4004000013465B0013445B002C4A13443B603B681A683B689B889BB210461946FFF7D4FEFB790133FB71FB79072BE8D924482549FFF7FAFE244B244A1278D2B242F00202D5
:40044000D2B21A70214B214A1278D2B242F00202D2B21A701E4B1E4A1278D2B242F04002D2B21A701B4B1B4A1278D2B242F01002D2B21A70184819490A22FFF7C1FE184BB3
:40048000174A1278D2B242F00802D2B21A70154B01221A70FFF702FF124B81221A70124B01221A70FFF77AFF104809490E22FFF799FE0837BD4680BDE8460040941D000077
:4004C000C41D0000081E00000350014013500140A0430040C24300406051004068210000224300400048004004000840B043004080B485B000AF78600B467B800023FB8154
:400500000BE07B88013B7A6813441B781A46FB891344FB817B88013B7B807B88002BF0D1FB895B429BB218461437BD465DF8047B704700BF80B586B000AFF860B9607A601C
:400540000023FB75FA680F4B9A4206D0FB68002B03D0002000F070FF0CE00BE07B68013B7B60FA68BB681A447B6813441A78FB7D1344FB757B68002BF0D1FB7D18461837E7
:40058000BD4680BD0080004080B582B000AF06237B60002000F06EF80346002B01D100237B601C4B1B681B68002000211A46FFF7C1FF0346FB70184B1B681B78FA78D31A17
:4005C000FB70FB785B42FB70134B1B681B78FA789A4204D10F4B1B681B68002B02D1002000F02AFF0D4B1B78DBB203F0C003402B02D07B68002B05D0084B00221A7000207A
:4006000000F0AEF8322000F0ABF800F009F80837BD4680BD1081FF1F0C81FF1FFA46004080B500AF024B80221A7000F011FF80BDFA46004080B500AF0C4B1B78DBB203F08D
:40064000C003802B11D1094B00221A700220002100F0DCFB0346002B07D00220002100F0D5FB0346184600F003F880BDFA460040004700BF90B587B000AF0346FB71FB7929
:400680000320194600F0C2FB034601331C02FB790420194600F0BAFB03462344FB600023FB740023BB74FB790320194600F0AEFB034601331B027B6111E07B691B78FB720B
:4006C000FB7A002B04D0FB7AFF2B01D00123FB74BA7CFB7A1344BB747B6901337B617A69FB689A42E9D3FB790320194600F08EFB034601331B02DB087B61FA68174B9A4218
:4007000002D0FB68DB0801E04FF40043FB600AE07B6903F190431B78DAB2BB7C1344BB747B6901337B617A69FB689A42F0D3BB7C5B42BB74BC7CFB790120194600F066FB15
:4007400003469C4202D1FB7C002B01D1062300E0002318461C37BD4690BD00BFC0FF030080B5ADF5247D00AF0246FB1D1A700023A7F88A320023A7F888320A2387F88732ED
:40078000002387F8863200F055FD0346002B02D0002000F051FE00F01BFC62B6002387F88D32FB1D1B78002B02D0FB1D1B7800E0FF2307F59E7107F26A2208464FF49671FB
:4007C00000F034FCC7F87802FB1D1B78002B04D097F88732013B87F8873297F88732002B03D0D7F87832002BDBD1D7F87832002B00D0B0E2B7F86A32062B04D907F59E7338
:400800001B78012B03D0042387F88D3244E007F59E73DB781B029AB207F59E739B781343A7F88A32B7F88A32053307F59E72D35C1B029AB2B7F88A32043307F59E71CB5CE8
:400840001343A7F87632B7F88A32DA1DB7F86A329A4203D9032387F88D321DE0B7F88A32063307F59E72D35C172B03D0042387F88D3211E0B7F88A3204339BB207F59E72D0
:4008800010461946FFF734FE0346B7F876229A4202D0082387F88D320023A7F88E3297F88D32002B40F04C8207F59E731B7987F87532042387F88D3207F59E735B78313B43
:4008C0000A2B00F2398201A252F823F0F908000033090000390D0000CD0900003F0B0000390D0000510B0000A70B0000CD090000EB0B0000210D000097F88632012B17D1CA
:40090000B7F88A32002B13D10020FFF7B3FE0346002B14BF00230123DBB21A4607F59E731A710123A7F88E32002387F88D3207E206E297F88632012B47D1B7F88A32012B8C
:4009400043D197F87532032B3FD8D14B1B681B681B0C87F8743297F8752297F874329A4208D1CB4B1B681B681B0A9BB2DBB2A7F884320DE097F8752297F874329A4203D9FA
:400980000023A7F8843203E04FF48073A7F88432B7F88432DAB207F59E731A71B7F884321B0A9BB2DAB207F59E735A7107F59E73FF229A7107F59E730022DA710423A7F814
:4009C0008E32002387F88D32BAE1B9E107F59E735B78342B23D197F88632012B40F0B081B7F88A32032B40F0AB8197F875323F2B08D997F875325BB2002B03DB1023A7F806
:400A0000883203E04FF49073A7F88832B7F8883207F11002104600211A4601F0ACF997F88632012B40F08A80B7F88A32022B40F28580B7F8883207F11002D118B7F88A3257
:400A4000033B07F59E720732084611461A4601F089F9B7F88822B7F88A3213449BB2033BA7F8883297F875323F2B0AD997F875325BB2002B05DB00F099FC1023A7F88A3298
:400A800003E04FF49073A7F88A32B7F88822B7F88A329A424BD107F59E739B791B029AB207F59E735B791343A7F8883297F875323F2B27D897F875329BB21B029AB2B7F8A2
:400AC00088321344A7F87232714B1B681B681B0AA7F882326E4B1B681B68DBB2002B04D0B7F882320133A7F88232B7F87222B7F882329A4206D20A2387F88D320023A7F8AC
:400B000088321DE197F87502B7F8881207F11002B7F88A3200F0A0FB0346002B01D00A2300E0002387F88D3200F0D6FC02E0032387F88D320023A7F8883201E100E197F825
:400B40008632012B03D10023A7F8883203E1F7E097F88632012B25D1B7F88822B7F88A321344B3F5967F19D8002387F88D32B7F8883207F11002D118B7F88A3207F59E7220
:400B80000432084611461A4601F0ECF8B7F88822B7F88A321344A7F8883203E0032387F88D32CDE0CCE0B7F88A32002B1CD107F10803384A92E8030083E80300012387F87B
:400BC00086320823A7F88E32B7F88E3207F59E72111D07F10802084611461A4601F0C2F8002387F88D32ABE0AAE097F88632012B40F09580B7F88A32032B40F0908007F555
:400C00009E739B791B029AB207F59E735B791343A7F8703297F875323F2B13D997F875325BB2002B0EDBB7F870321B01C7F86C321948D7F86C121022FFF77CFC034687F8EB
:400C4000813212E097F875321A02B7F8703213441B02C7F86C320020D7F86C124FF48072FFF768FC034687F8813297F875323F2B29D897F8753203F510331A02B7F8703265
:400C800013445B01C7F86C320023A7F87E3216E01081FF1F7421000000800040B7F87E22D7F86C3213441B78DAB297F88132134487F88132B7F87E320133A7F87E32B7F82A
:400CC0007E321F2BEAD997F87532032B19D1B7F87032FF2B15D10520002100F097F80346DBB297F88122D31A87F881320620002100F08CF80346DBB297F88122D31A87F86D
:400D0000813297F881325B42DAB207F59E731A71002387F88D320123A7F88E3210E00FE00020FFF7A7FC0346002B02D1114B80221A7000F08DFB03E0052387F88D3200BF32
:400D400097F88D1207F59E72B7F88E32084611461A4600F011F8FB1D1B78002B3FF41EAD97F88632012B3FF419AD07F52477BD4680BD00BFFA46004080B584B000AF3960C5
:400D800013460246FA71BB803B6801221A703B680133FA791A703B680233BA88D2B21A703B680333BA88120A92B2D2B21A70BB8804339BB238681946FFF79AFB0346FB8101
:400DC000BB8804333A681344FA89D2B21A70BB8805333A681344FA89120A92B2D2B21A70BB8806333A68134417221A70BB8807339AB23B1D386811461A46962300F0F2F847
:400E0000034618461037BD4680BD00BF80B586B000AF02460B46FA71BB710223FB740023FB60FB79013B092B00F2928001A252F823F000BF5D0E0000770E0000910E000033
:400E4000A70E0000C10E0000DB0E00000B0F0000F50E0000210F0000370F0000BA7913461B069B1A1B0203F57F3303F570737B610123FB7472E0BA7913461B069B1A1B022E
:400E800003F57F3303F2C1337B610423FB7465E0BA7913461B069B1A1B0203F57F3303F2C5337B615AE0BA7913461B069B1A1B0203F57F3303F2C9337B610423FB744DE003
:400EC000BA7913461B069B1A1B0203F57F3303F574737B610123FB7440E0BA7913461B069B1A1B0203F57F3303F2D1337B610123FB7433E0BA7913461B069B1A1B0203F540
:400F00007F3303F2D6337B6128E0BA7913461B069B1A1B0203F57F3303F2D2337B611DE0BA7913461B069B1A1B0203F57F3303F575737B6112E0BA7913461B069B1A1B02CB
:400F400003F57F3303F576737B610423FB7405E0002000F071FA00237B6100BFFB7C012B03D17B691B78DBB2FB60FB7C022B0BD17B691B78DBB2FB607B6901331B78DBB269
:400F80001B02FA681343FB60FB7C042B1BD17B691B78DBB2FB607B6901331B78DBB21B02FA681343FB607B6902331B78DBB21B04FA681343FB607B6903331B78DBB21B06E2
:400FC000FA681343FB60FB6818461837BD4680BD80B500AF00F0A0FC00F0A0FD00F0F6FD80BD00BF80B586B000AFF8607A600A467A817B720023FB8200F090FD09E0FB8AA3
:40100000FA6813441B78184600F0C6FDFB8A0133FB82FA8A7B899A42F1D37B687A891A80002318461837BD4680BD00BF90B589B000AFF8607A600A467A817B720523BB61CB
:401040000023FB831AE000F021FD0346002B0FD000F01CFD0346FB82192000F009FA00F015FD0346FA8A9A42F2D30023BB610DE0012000F0FDF9FB8B0133FB83F98B7A7A26
:4010800013469B0013445B009942DCDB7B6800221A800023BB8336E000F0F8FC0346BB827B681A88BB8A13449AB27B681A807B681B887A899A421ED90023FB830CE0BB8B5F
:4010C000FA68D41800F098FC03462370BB8B0133BB83FB8B0133FB83FA8BBB8A9A42EED3BB8B013BFA6813441B78172B0BD0052000F0BEF907E07B681A88BB8AD31A9AB24A
:401100007B681A8004E000F0C1FC0346002BC3D1BB6918462437BD4690BD00BF000000000230800800F0058000BF013800467FF4FCAF7047EFF3108072B6704780F310880F
:40114000704700BFAFF3008080B582B000AF00F039FA4FF0FF337B6000F05EFB0346002B24D1012000F026FB0346072B1BD11348022100F049FA0346022B0DD100237B6004
:4011800002E0012000F096F90D4B1B78DBB203F00203002BF5D006E0094B1B78DBB203F00203002BE3D000F06BFB01E004237B607B6818460837BD4680BD00BF5481FF1F72
:4011C0002247004080B582B000AF00F0FBF900F023FB0346002B23D100F07AFB78607B68072B1AD102E0012000F064F9104B1B78DBB203F00203002BF5D00D4B1B78DBB26E
:4012000003F00203002B08D0094B1B78DBB29B08DBB2002B01D100237B6000F031FB01E004237B607B6818460837BD4680BD00BF2247004080B582B000AFFFF7C3FF786047
:401240007B68002B02D1FFF77FFF78607B6818460837BD4680BD00BF80B586B000AFBA600246FA730A46BA81FB8000237B61FB7B3F2B04D8FB7B042B01D901237B61FB7B23
:401280005BB2002B01DA01237B61FB7B3F2B04D9FB7B412B01D901237B61FB7B3F2B06D8BB89B3F5807F0CD901237B6109E0BB89802B01D901237B61FB88102B01D00123AF
:4012C0007B61BB68002B01D101237B617B69002B62D100F0A1FA0346002B5BD1F97BBA89FB8808461146BA6800F0BAF978617B69072B4CD102E0012000F0DCF8294B1B7807
:40130000DBB203F00203002BF5D0264B1B78DBB203F00203002B09D0224B1B78DBB29B08DBB2002B02D100237B6102E04FF0FF337B617B69002B2AD11B4B1A781A4B5B7888
:40134000F87BB98900F0F2F978617B69072B1ED102E0012000F0AEF8124B1B78DBB203F00203002BF5D00F4B1B78DBB203F00203002B09D00B4B1B78DBB29B08DBB2002BBA
:4013800002D100237B6102E04FF0FF337B6100F077FA01E004237B617B6918461837BD4680BD00BF224700405481FF1F80B582B000AFFFF7BFFE0346FB71194B184A1278ED
:4013C000D2B242F00802D2B21A70164B154A1278D2B242F00802D2B21A70134BC8221A70124B124A1278D2B242F01002D2B21A700F4B0F4A1278D2B242F01002D2B21A7009
:4014000000BF0C4B1B78DBB203F02003002BF8D0FB791846FFF792FE0837BD4680BD00BFA0430040B043004001470040AC430040BC4300400047004080B483B000AF0346A5
:40144000FB7101BE0C37BD465DF8047B704700BF80B400AF054B054A1278D2B242F00102D2B21A70BD465DF8047B7047F646004080B582B000AF786008E00C4B1B681846C6
:40148000FFF74EFE7B68A3F500437B607B68B3F5004FF2D8064B1B687A6802FB03F31846FFF73EFE0837BD4680BD00BF2081FF1F1881FF1F80B582B000AF0346FB80FB8863
:4014C000044A127802FB03F31846FFF729FE0837BD4680BD1C81FF1F80B582B000AFFFF729FE0346FB7100BF00BF00BF00BF00BF00BF00BF00BF00BF00BF00BF00BF00BFD1
:4015000000BF00BF00BF094B084A128892B242F0040292B21A80054B1B88BFF36F8FFB791846FFF70BFE0837BD4680BD0048004080B584B000AF03463960FB710F4B1B6816
:40154000FB60FB791F2B02D90020FFF775FFFB7903F01F0310339B00FA6813441B68BB60FB7903F01F0310339B00FA6813443A681A60BB6818461037BD4680BD08ED00E016
:4015800080B582B000AF02460B46FA71BB71BB79072B02D90020FFF74FFFFB791F2B02D90020FFF749FFFB7903F01F0303F1604303F56443BA795201D2B21A700837BD46B4
:4015C00080BD00BF80B582B000AFFFF7B3FD0346FB710B4B0A4A1278D2B242F00802D2B21A70084B074A1278D2B242F00802D2B21A70FB791846FFF7A1FD0837BD4680BD9B
:40160000A0430040B043004080B584B000AF78600B46FB700023FB7314E002E00120FFF749FF0D4B1B78DBB203F00103002BF5D0FB7B7A681344094A1278D2B21A70FB7B73
:401640000133FB73FA7BFB789A42E6D3FB7B18461037BD4680BD00BF224700402047004080B489B000AFBA600246FA730A46BA81FB800723FB612B4B1B78DBB203F00203DC
:40168000002B45D0284BB6221A70274BD5221A70254B02221A70234B1B78DBB203F00203002B32D1204BFA7B1A7000237B8308E01D4B7A8BB9680A4412781A707B8B0133B3
:4016C0007B837A8BFB889A42F2D3FB88B3F5807F20D1FB7B3F2B1DD8FB7B03F510331A02BB8913445B017B6100237B8309E00E4B798B7A690A441278D2B21A707B8B0133C9
:401700007B837B8B1F2BF2D904E00923FB6101E00423FB61FB6918462437BD465DF8047B704700BF224700402047004080B485B000AFF871B980BA71FB700723FB601B4BCB
:401740001B78DBB203F00203002B26D0184BB6221A70174BD8221A70154B05221A70134B1B78DBB203F00203002B13D1104BFA791A700F4BBA88120A92B2D2B21A700C4B36
:40178000BA88D2B21A700A4BBA791A70084BFA781A7004E00923FB6001E00423FB60FB6818461437BD465DF8047B7047224700402047004080B485B000AF0346FB710723C9
:4017C000FB60134B1B78DBB203F00203002B16D0104BB6221A700F4BE1221A700D4B0E221A700B4B1B78DBB203F00203002B03D1084BFA791A7004E00923FB6001E0042321
:40180000FB60FB6818461437BD465DF8047B7047224700402047004080B582B000AF04237B60FFF787FC0346FB70124B1B78002B16D1104B01221A7000237B600E4B1B683A
:4018400003F00103002B0BD00B4B0B4A126822F001021A6000BF00BF00BF084B01221A60FB781846FFF76AFC7B6818460837BD4680BD00BF4481FF1F040008404881FF1FC8
:4018800080B582B000AFFFF755FC0346FB710D4B00221A700C4B1B68012B0BD10B4B0B4A126842F001021A6000BF00BF00BF064B00221A60FB791846FFF740FC0837BD46EC
:4018C00080BD00BF4481FF1F4881FF1F0400084080B483B000AF07237B600D4B1B78DBB203F00203002B09D00A4BB6221A70094BE0221A70074B0D221A7001E004237B60C2
:401900007B6818460C37BD465DF8047B704700BF224700402047004080B500AF054B1B78002B04D100F008F8024B01221A7000F02FF880BD4C81FF1F80B500AF00200D493C
:40194000FFF7F6FD00200721FFF71AFE0A4B00221A700A4B72221A70094B20221A70094B06221A70084B47221A70084B00221A7080BD00BF0D1C00004D81FF1F8C64004008
:401980008A6400402E6400403E6400408B64004080B582B000AFFFF7CDFB0346FB71124B114A1278D2B242F02002D2B21A700F4B0E4A1278D2B242F01002D2B21A700C4BFC
:4019C00001221A600B4B0B4A1278D2B242F01002D2B21A7000F086F9FB791846FFF7AEFB0837BD4680BD00BF9C6400409A64004000E100E09B64004080B483B000AF1C4B26
:401A000001221A601B4B1B78BB711B4B1B787B711A4B1B78DBB2002B03D1BA797B799A4219D0BB79164AD35CFB71BB790133BB71BB795BB2002B01DA0023BB710D4BBA79AB
:401A40001A700E4B1B78DBB2002B03D00B4B00221A7003E002E00B4B1B78FB710A4B01221A60FB7918460C37BD465DF8047B704780E100E04E81FF1F4F81FF1F5081FF1FA9
:401A80005881FF1F4F64004000E100E080B483B000AF1D4B01221A601C4B1B78DAB21C4B1B78DBB29A420AD11A4B1B78DBB2002B02D08023FB711DE00023FB711AE0134B27
:401AC0001B78DAB2124B1B78DBB29A4208D2104B1B78DAB20D4B1B78DBB2D31AFB7109E00B4B1B78DAB2094B1B78DBB2D31ADBB2803BFB71084B01221A60FB7918460C37D1
:401B0000BD465DF8047B704780E100E04E81FF1F4F81FF1F5081FF1F00E100E080B582B000AFFFF707FB0346FB71144B134A1278D2B242F00102D2B21A70104B0F4A12783D
:401B4000D2B222F00102D2B21A70FB791846FFF7F5FA0B4B01221A600A4B00221A700A4B00221A70094B00221A70094B00221A70084B01221A600837BD4680BD9F64004060
:401B800080E100E04E81FF1F4F81FF1F5081FF1F5181FF1F00E100E080B483B000AF0346FB7100BF074B1B78DBB203F00403002BF8D1054BFA791A700C37BD465DF8047B18
:401BC000704700BF6B6400404B64004080B582B000AFFFF7AFFA0346FB710B4B0A4A1278D2B242F00102D2B21A70074B064A1278D2B222F00102D2B21A70FB791846FFF771
:401C00009DFA0837BD4680BD9B64004080B483B000AF0023FB712B4B1B78BB71BB797B71BB7903F01E03002B0BD0BB7903F01E03DAB2254B1B78DBB21343DBB2DAB2224BC7
:401C40001A70BB7903F02003002B31D01F4B1B787B711F4B1B78DBB21E4A7979D1540123FB71FB79002B23D01B4B1B78DBB2002B02D01A4B01221A70154B1B78DBB2013307
:401C8000DAB2134B1A70124B1B78DBB2DBB25BB2002B02DA0E4B00221A700D4B1B78DAB20F4B1B78DBB29A4202D10B4B01221A70BB7903F02003002BADD10C37BD465DF85C
:401CC000047B70476A6400404D81FF1F4F6400404F81FF1F5881FF1F5081FF1F5181FF1F4E81FF1F80B400AF094B094A1278D2B242F00102D2B21A70064B064A1278D2B286
:401D000042F00102D2B21A70BD465DF8047B7047A2430040B243004070B50E4B0E4D0024ED1AAD101E46AC4204D056F8242090470134F8E700F022FA084D094B0024ED1A34
:401D4000AD101E46AC4204D056F8242090470134F8E770BD8821000088210000902100008821000010B50023934203D0CC5CC4540133F9E710BD02440346934202D003F848
:401D8000011BFAE77047000032000000D021000000000000005100406000C05100401000F0510040100000000140001000140140000800400140000A004C01400002005051
:401DC000014020000252004003640040010501404B0A0140420B01403A0C0140430D01405D0E01402F0F014002400140014101400342014004440140034501400246014072
:401E00000350014001510140310134028A388B0F8C72E60102030308051A07040B050C0C0E1110101103120C130C181C1A021C101D031F14201421202C092E102F18301F93
:401E4000311C3303352039083B023F1454185604580459045B045F018002850A860287048A028B058F08900296029D039F0CA001A503A704AD03AF04B002B10FB401BB02F4
:401E8000BE11C053C104C5E0C6CBC80EC9FFCAFFCBFFCEF0CF44D00CD401D804D904DA04DB04DF01E6C0EA40EB02008001020428074009010B060D020E100F2010811180F0
:401EC000150119021E882080210622102340250126022740280129022F2231023342374038283A303B063D803E203F04450246104D014E02548057305A025D015E986080A7
:401F00006150808082109028920293029508974099509E20A140A501C079C23BC419CA59CC19CE77D0C0D210D6F1D80DE4040104050209020D04110215011D0121012704B9
:401F400029082D0133023501370C39803F105602571159045B045F01800F830485C08603880489188C018D44900391E7920C93189402958098039BE39D10A00FA11CA3E14C
:401F8000A40CA51CA7E2A80CA908AA03AC08ADFFB00FB1C0B31FB738BA82BB88D804D904DF010160039009080A400B041219130119811A401BC0228923012540261027109F
:401FC000284029A42E602FA0308031093310344035043688370939423A103B043D023E143F4058805A405E206C206E146F097484752076138D048F409028914293069508B6
:40200000974199509C809D209E029F18A108A320A424A545A748B420B540C00FC20EC40FCAFFCCDFCEFFD620040C05010603070E1001120E1544173119671A031E08200146
:402040002206252227D129672E0C31803360340F350737183A203F404003454049FF4A074BFF4C404D204EF04F055008580459045A045F01604061A8624063208106830166
:40208000850688028B018C028D079204950796049D019E029F06A104A602A902AA01AE01B002B107B404B601B802BE50C042C103C205C401C6E0C70CC818C9FFCAFFCBFFB5
:4020C000CC62CDA0CEF0CF41D00CD804D904DA04DF01E640E702E910EA30EB10ED10EE10EF120320070609200B420E800F2111821608174818081B201D501E802189230460
:402100002602274028202B082D202E0230203108348037083B043C083D203F8141044480459447164B024E025010512056085710C0C4C2BBC4E9CAA6CC56CEF2D0F2D210E6
:402140003240CC10968082409680E68005025910C004D4019D10B502EA0281109D1000010C010E01000300000100020101000100000000006930122E001E0101F8B500BF9B
:40218000F8BC08BC9E467047610000003D010000F8B500BFF8BC08BC9E4670473D000000B02100000881FF1F20000000B000000000000000881D00008C1D000000366E0176
:4021C000C05D0000180000000000E02E000000000000000000000000000000000000000000000000000000000000000000000000000000000000000000000000000000009C
:402200000080002011220000751801007518010008B50FF031FB00BF10B5054C237833B9044B13B10448AFF300800123237010BD2883FF1F0000000070330100084B10B5E1
:402240001BB108480849AFF300800848036803B910BD074B002BFBD0BDE81040184700BF00000000703301002C83FF1F0881FF1F0000000008B510F0FFFB0E4B1B78012B49
:4022800013D10D4B1978062907D80131C9B219700120143108F0E8FC08BD0022064B1A700120142108F0E0FC08BD034A13780133137008BD7A83FF1F9685FF1F08B510F0B5
:4022C00095FC0E4B1B78012B13D10D4B1978062907D80131C9B219700220143108F0C4FC08BD0022064B1A700220142108F0BCFC08BD034A13780133137008BD4B85FF1F35
:402300002585FF1F10B562B60FF0EAFC0FF09EFE0FF020FF0FF0D6FC0FF0F6FD10F0BCF910F0A8FA0FF0FEFD10F0C4F910F0B0FA0FF07EFE10F02EFF052010F093FF00245C
:40234000984B1C702046202108F0C8F8964B1C6006E0964AD15C964AD1540133924A1360924B1A78904B1B689A42F2D220200F2108F0B4F800228C4B1A6007E08B4AD15CDA
:402380008B4A1A4491770133874A1360874B1A78854B1B689A42F1D24020202108F09EF80022814B1A6008E0804AD15C804A1A4482F8431001337C4A13607C4B1A787A4B1E
:4023C0001B689A42F0D28020202108F087F80022754B1A6008E0754AD15C754A1A4482F861100133704A1360704B1A786E4B1B689A42F0D2A020202108F070F800226A4B6C
:402400001A6008E0694AD15C694A1A4482F87F100133654A1360654B1A78634B1B689A42F0D22F200C2108F059F800225E4B1A6008E05E4AD15C5E4A1A4482F82F1001331F
:40244000594A1360594B1A78574B1B689A42F0D26020092108F042F8544B1878431EDBB2082B14D80022504B1A6008E001334F4AD15C4F4A1A4482F8D7104B4A13604A4B27
:402480001B68072BF2D94A4B83F8D7000EE00122454B1A6006E0464A1A4482F8D7300133414A1360404B1B68082BF4D940F26A400A2108F013F800223B4B1A6006E03B4A6E
:4024C000D15C3C4AD1540133374A1360374B1A78354B1B689A42F2D240F275400A2107F0FDFF0022304B1A6006E0304AD15C324AD15401332C4A13602C4B1A782A4B1B68BD
:402500009A42F2D24FF490600A2107F0E7FF0022254B1A6006E0254AD15C284AD1540133214A1360214B1A781F4B1B689A42F2D240F28B400A2107F0D1FF00221A4B1A600E
:4025400006E01A4AD15C1E4AD1540133164A1360164B1A78144B1B689A42F2D240F28D40022107F0BBFF00220F4B1A6006E00F4AD15C144AD15401330B4A13600B4B1A783F
:40258000094B1B689A42F2D240F29F20052107F0A5FF064B1878042823D10122024B1A6019E000BF8F86FF1F8C83FF1F5485FF1F3487FF1F2885FF1F8083FF1FD488FF1FB9
:4025C0003885FF1FD088FF1FA44AD15CA44AD1540133A44A1360A34B1B68042BF4D9A04B187040F2C110022107F078FF9B4B1B78012B03D1994B5A789B4B1A7040F2C310AF
:40260000022107F06BFF954B1B78012B03D1934B5A78964B1A7040F2C510022107F05EFF8E4B1B78012B03D18C4B5A78904B1A7040F2EE30022107F051FF884B1B78012B44
:4026400003D1864B5A788B4B1A704FF4DD70022107F044FF814B1B78052B05D17F4B5B7803F00F03844A137040F27A20022107F035FF7A4B1B78012B03D1784B5A787F4B6D
:402680001A704FF41F70022107F028FF734B1B78012B03D1714B5A78794B1A7040F27E20022107F01BFF6D4B1B78012B03D16B4B5A78744B1A704FF47C70022107F00EFFDA
:4026C000664B1B78012B03D1644B5A786E4B1A7040F25A20062107F001FF604B1B78052B0AD15E4AD37803F00F0368490B70537903F00F03664A137040F2C710022107F074
:40270000EDFE564B1B78012B06D1624A1370534B5B7803F00F0353704FF4DE70022107F0DDFE4E4B1B78012B05D14C4B5B7803F00F03594A137040F26320022107F0CEFE2B
:40274000464B1B78012B05D1444B5B7803F00F03524A537040F26520022107F0BFFE3F4B1B78012B05D13D4B5B7803F00F034C4A53704FF42770032107F0B0FE374B1B784F
:40278000022B06D1354B9B7843EA0323454A138002E00122434B1A804FF47670022107F09DFE2E4B1B78012B04D12C4B5A783E4B5A7007E03C4901230B704B704FF476706A
:4027C00007F04EFE40F2D230062107F087FE234B187805280FD10022224B1A6006E01F4AD15C324AD15401331E4A13601D4B1B689842F4D20CE02D4905230B7030234B70E1
:402800008B70CB700B714B7140F2D23007F028FE264A537903F00F00137903F00F014FF47A7303FB01F342F2107101FB0033D07800F00F00642101FB0031937803F00F03FD
:4028400003EB83035B000B44527802F00F021344174A13600222174B1A7010BD5485FF1F0C81FF1F8C83FF1F1E88FF1FDF88FF1F4C85FF1F7C83FF1F3385FF1F2485FF1FA4
:402880008E86FF1F9386FF1F2C87FF1F7D83FF1F1F88FF1F4885FF1FA285FF1F9086FF1F3087FF1F2285FF1F7883FF1F9C85FF1F3088FF1F2785FF1F10B5002413E00BF02E
:4028C00033F802280FD1642010F0CCFC074B18780BF06AF8062806D1044B18790BF064F8062800D10224002CE9D010BD7083FF1F08B501280ED1552108F0B6F964220D4B34
:402900001A7001220C4B1A700C4810F029F910F0F9F808BD0220552108F0A6F96422084B1A700122074B1A70074810F0D3F910F0A3F908BD7A83FF1F9685FF1F75220000E5
:402940004B85FF1F2585FF1FBD22000038B5984B1B78642B03F2ED86DFE813F074008000EB1EA100000188013B02D902EB1E0C03FA034C04B9042C05770552066707B6070C
:402980005E0800097B09E50A380CBC0DD70EAA12E812DB134514C61495153016F416BB191E1AA61AF31A221BAA1B9B1C9E1D291E891EEB1EEB1EEB1EEB1EEB1EEB1EEB1EF8
:4029C000EB1EEB1EEB1EEB1EEB1EEB1EEB1EEB1EEB1EEB1EEB1EEB1EEB1EEB1EEB1EEB1EEB1EEB1EEB1EEB1EEB1EEB1EEB1EEB1EEB1EEB1EEB1EEB1EEB1EEB1EEB1EEB1EB7
:402A0000EB1EEB1EEB1EEB1EEB1EEB1EEB1EEB1EEB1EEB1EEB1EEB1EEB1EEB1EEB1EEB1EEB1EEB1E6500634B1B78012B43F2818600245F4B1C7010F0A1F810F003F85D4B50
:402A40001C7038BD5C4810F08BF810F05BF80022584B1A700122564B1A7038BD0FF036FE082843F066860FF05BFE10F087F80FF0E9FF524B1B78022B04D10120632108F0BA
:402A8000F3F803E00120452108F0EEF80322484B1A70642010F0E6FB0FF042FE38BD0FF015FE082843F04586454B1B78DBB2AA2B4ED1434B9B79DBB2C32B49D1404BDB790E
:402AC000DBB23C2B44D13E4BDB78DBB2592B2DD002D8452B1FD03BE05C2B02D07E2B30D036E00022374BDA70344B1B78012B06D10120052108F0B8F804222D4B1A702F4BE3
:402B00001B78022B24D10120492108F0ADF81922274B1A701CE00120252108F0A5F80022294B1A700F22224B1A7011E00120252108F09AF80022244B1A7027221C4B1A700A
:402B400006E00120002108F08FF80022184B1A70642010F087FB0FF0E3FD38BD0FF0B6FD082843F0E685164B1B78DBB2AA2B77D1134B9B79DBB2C32B72D1114BDB79DBB23A
:402B80003C2B6DD10F4AD37823F00303D3700C4BDB78DBB23B2B4BD004D80F2B16D0102B28D05DE0432B3BD07E2B52D058E000BF7A83FF1F9685FF1F752200002785FF1F5C
:402BC000D08AFF1F9486FF1F4D85FF1F0120062108F04AF80022A74B1A700120242108F079F8A54AD37843F00203D3700522A34B1A7035E001200D2108F036F800229D4B5E
:402C00001A709F4B1A700120472108F063F89A4AD37843F00103D3700522984B1A701FE00120072108F020F80622944B1A7017E0944B1B78022B04D10120632108F014F880
:402C400003E00120452108F00FF803228B4B1A7006E00120002108F007F80022874B1A70642010F0FFFA0FF05BFD38BD0FF02EFD082843F05E85844B1B78DBB2AA2B40F09C
:402C8000A280814B9B79DBB2C32B40F09C807E4BDB79DBB23C2B40F09680764B1B787B4A1278013A93423EDC774AD278D2B2092A0FD80133DAB26F4B1A707348C1786E4BCD
:402CC00013443031D972C17830310120C9B208F001F86D4BDB78DBB20A2B0BD1654B1A780132D2B21A70644B13443021D972012007F0F0FF644BDB78DBB2512B13D15D4B3E
:402D00001B7883B15E4A12786AB90133DAB2594B1A70594B13442C21D972012007F0DAFF0122574B1A70584BDB78DBB20B2B1BD1504B1A783AB90120052107F095FF0422F9
:402D40004E4B1A7010E00120202107F0C3FF494B1B78494A1A44D27A2C2A02D10021484A1170013B434A1370474BDB78DBB20C2B29D1404B1B786BB1454B1B7853B90120EB
:402D8000072107F071FF3B4B1A783B4BDA7206223A4B1A70374B1B78ABB13D4B1B78012B11D10120702107F05FFF334B1B7B39490B7040F28D4007F053FB0022344B1A7042
:402DC0000E222E4B1A70642010F04CFA0FF0A8FC38BD642010F046FA0FF078FC082820D1294B1B78DBB2AA2B15D1274B9B79DBB2C32B10D1244BDB79DBB23C2B0BD1224BB5
:402E0000DB78DBB27E2B06D10120002107F02CFF00221A4B1A70642010F024FA0FF080FC38BD1D4B18780AF0BFFD072843F08184322010F017FA184B18780AF0C9FD174B1E
:402E40001870322010F00EFA0B4BDB7813F0030328D0114A1078114A1178114A0EF05AF800BB0120002107F0FFFE0022034B1A7038BD00BF4D85FF1F9486FF1F7A83FF1F72
:402E80007B83FF1F2785FF1FD08AFF1F3385FF1F8F86FF1FD088FF1F7083FF1F3588FF1F9F86FF1F012010F087F99C4B18780AF08FFD9B4B1870002803F03B84994B1B78A9
:402EC00003F00F03834211D0974B1B7803F00F0398420BD0954B1B7803F00F03984205D0934B1B7803F00F03984202D101200EF091FC8A4B187840F010000EF079FF0120C6
:402F0000082107F0B1FE07228A4B1A7038BD322010F0A8F9814B18780AF046FD0A2813D00B2803D0062843F004841BE0642010F099F97A4B18780AF0BFFD012843F0F983C1
:402F40000D227C4B1A7038BD642010F08BF9734B18780AF0B1FD012843F0EB830D22754B1A7038BD0120002107F07EFE0022714B1A7038BD0FF0AAFB082840F0B9806E4B9E
:402F80001B78DBB2AA2B40F0AE806B4B9B79DBB2C32B40F0A880684BDB79DBB23C2B40F0A2800022654B1A70654B1B78062B65D8614AD278D2B2092A10D80133DAB2604BC8
:402FC0001A705D48C1785F4B1344303183F86510C17830310120C9B207F07CFE564BDB78DBB20A2B0CD1564B1A780132D2B21A70544B1344302183F86510012007F06AFEB2
:403000004D4BDB78DBB26A2B0CD14D4B1A780132D2B21A704B4B13442D2183F86510012007F058FE444BDB78DBB21A2B26D9424BDB78DBB2422B21D80022434B1A6019E0F9
:403040003D4AD278D2B241491944097A8A420DD13B490A780132D2B20A704133D9B2394B134483F86510012007F034FE364A136801331360344B1B68192BE1D92E4BDB782E
:40308000DBB20B2B18D12E4B1A786AB901200B2107F0EAFD2B4B002283F8652083F883200A22244B1A7007E00120202107F012FE234A1378013B13701F4BDB78DBB20C2BA8
:4030C00011D11F4B1B7873B10120052107F0CCFD1C4B1B4A127883F86520012283F883200422144B1A70642010F0BCF80FF018FB124B1B781D2B43F21C8301200B2107F086
:40310000B3FD104A002382F8653082F883300B4A13700A22074B1A7038BD00BF7083FF1F3588FF1F1E88FF1FDF88FF1F4C85FF1F7C83FF1F7A83FF1FD08AFF1F9685FF1F85
:403140004D85FF1F9486FF1F8C83FF1F0C81FF1F0FF0BCFA08283DD1A64B1B78DBB2AA2B33D1A44B9B79DBB2C32B2ED1A14BDB79DBB23C2B29D19F4BDB78DBB2382B15D0B5
:40318000392B22D100229C4B1A709C4BDB7813F0040F07D101200A2107F066FD0922984B1A7012E00D22964B1A700EE001200C2107F05AFD0122934B1A7093480FF0D0FC78
:4031C0000FF0A0FC64228E4B1A70642010F04AF80FF0A6FA8B4B1B781D2B43F2AA8201200C2107F041FD0122864B1A706422844B1A7038BD0120014607F0C6FA052840D99A
:403200000A2010F02FF80120212107F0BDFA052837D9012007F0D0F9012832D133200FF09DFA0120332107F009FA50B30022774B1A600AE0012007F06BFA704B1C4484F82B
:403240002900724A136801331360704B1C68072CF0D90120132107F007FD684CE37843F00403E3704FF4FA700FF0FCFF01200E2107F0FAFC0023604A137023710C22604B7F
:403280001A700FF023FA082843F05382594B1B78DBB2AA2B15D1574B9B79DBB2C32B10D1544BDB79DBB23C2B0BD1524BDB78DBB23B2B06D10120632107F0D6FC0322504BF4
:4032C0001A7064200FF0CEFF0FF02AFA38BD0FF0FDF9082843F02D82464B1B78DBB2AA2B62D1444B9B79DBB2C32B5DD1414BDB79DBB23C2B58D1404B1B78052B25D83D4A01
:40330000D278D2B2092A0FD80133DAB23A4B1A703848C178394B134430311971C17830310120C9B207F0D6FC324BDB78DBB20A2B0BD1314B1A780132D2B21A702F4B1344CA
:4033400030211971012007F0C5FC2A4BDB78DBB20B2B12D1284B1A783AB90120052107F083FC0422264B1A7007E00120202107F0B1FC214A1378013B13701E4BDB78DBB26A
:403380000C2B11D11C4B1B7873B11C4B5B79302B0AD00120052107F067FC174B1A78174B1A710422164B1A7064200FF05BFF0FF0B7F938BD164B5878164B19780022164BAC
:4033C0001B7808F0F9FE154B1B78012B02D0144B5B783BBB01200C2107F046FC0122094B1A7009480FF0BCFB0FF08CFB6422044B1A7038BDD08AFF1F4D85FF1F9486FF1F29
:403400007A83FF1F9685FF1F752200005085FF1F9086FF1F3588FF1F7083FF1F2785FF1F7883FF1F0120312107F01EFC0022B04B1A700122AF4B1A70AF480FF091FB0FF058
:4034400061FB2122AD4B1A7038BD0FF03FF9082843F06F81AA4B1B78DBB2AA2B40F0CA80A74B9B79DBB2C32B40F0C480A44BDB79DBB23C2B40F0BE80A14BDB78DBB2652B52
:4034800000F084800AD85A2B50D002D8582B12D0B0E05B2B64D05D2B24D0ABE07E2B00F0A28003D8702B00F09680A3E0932B75D0962B60D09EE000228D4B1A7001203E21D1
:4034C00007F0D2FB06F00CFF012801D107F082FC06F036FF012801D107F0DAFC1022874B1A7087E001205C2107F0BEFB01200021D62240F2AD1307F0B1FD012000218922A3
:4035000040F2B31307F0AAFD01200146242240F2A71307F0A3FD0120014678224FF47A7307F09CFD1322754B1A7063E00120602107F09AFB012007F00FFD012007F04EFE8A
:40354000012007F0DDFF012008F060F8012007F0CBFE012007F04EFF1222684B1A7049E001202F2107F080FB0022614B1A701122624B1A703EE001205F2107F075FB002219
:403580005B4B1A701B225D4B1A7033E001204D2107F06AFB1422594B1A702BE001206E2107F062FB0120014607F0EEF805280ED90A200FF057FE012008F030F9012021217F
:4035C00007F0E2F8052802D9012008F0A5F823224A4B1A700EE00120892107F045FB2922464B1A7006E00120002107F03DFB0022424B1A7064200FF035FE0FF091F838BDBF
:403600000FF064F8082843F094803D4B1B78DBB2AA2B40F004813A4B9B79DBB2C32B40F0FE80374BDB79DBB23C2B40F0F880304B1A78072A26D8324BDB78DBB2092B0ED89F
:403640002F4BD9782F4B1344303183F88E1001202A2107F03FFB264A137801331370284BDB78DBB20A2B0DD1214C2278254B1344302183F88E1001202A2107F02BFB237823
:40368000013323701E4BDB78DBB20B2B0ED1184B1B781BB90120FFF72BF907E0013BDAB2134B1A700120202107F014FB144BDB78DBB20C2B40F0B3800D4B1A78002A00F004
:4036C0009F80002310490B6010490B6027E0581C0F49014491F8D7100A4C234493F88E30303B994216D108490B6801330B6014E04D85FF1F9685FF1F752200007A83FF1F13
:40370000D08AFF1F9486FF1FA485FF1F8C83FF1F3487FF1F0021A34B1960A34B18601046A14B1B689A42D2D8A04B93F8D7209D4B1B689A421AD10120262107F095FA4FF483
:40374000FA700FF08FFD9A4B1B78012B04D101205D2107F089FA05E0022B03D10120702107F082FA0E22934B1A7058E000238D4A13608D4A136010E08F4A1A4492F824104B
:403780008E4A1A4492F88E20914203D185490A6801320A600133844A1360834B1B689842EAD8804B1B68082B1AD10120262107F05BFA4FF4FA700FF055FD7D4B1B78012B10
:4037C00004D101205D2107F04FFA05E0022B03D10120702107F048FA0E22764B1A701EE00120272107F040FA0122754B1A7075480FF0B6F90FF086F964226E4B1A700EE024
:403800000120272107F030FA01226D4B1A706D480FF0A6F90FF076F96422664B1A7064200FF020FD0EF07CFF38BD0EF04FFF082842F07F87644B1B78DBB2AA2B3ED1624BF5
:403840009B79DBB2C32B39D15F4BDB79DBB23C2B34D15D4BDB78DBB23F2B04D07E2B26D03E2B2BD116E00120402107F0FDF90023564A1370564A137001206121062207F05E
:4038800029FA01206D21072207F024FA1522494B1A7013E001203F2107F0E6F900234B4A13704B4A13701622424B1A7006E00120702107F0D9F90E223E4B1A7064200FF090
:4038C000D1FC0EF02DFF38BD0EF000FF082842F030873D4B1B78DBB2AA2B40F097803A4B9B79DBB2C32B40F09180374BDB79DBB23C2B40F08B80354B1A78072A27D8324BE9
:40390000DB78DBB2092B10D82F48C1782B4B1344303183F88E10C17830310120C9B207F0D9F92A4A137801331370274BDB78DBB20A2B0CD1254C2278204B1344302183F8E2
:403940008E10012007F0C6F92378013323701E4BDB78DBB20B2B0ED11C4B1B781BB90120FEF7C6FF07E0013BDAB2184B1A700120202107F0AFF9144BDB78DBB20C2B45D140
:40398000124B1B78052B41D90120392107F06CF90E4B1978054B83F8D7100022024B1A6024E000BFA485FF1F8C83FF1F3487FF1F2785FF1F7A83FF1F0C81FF1F9486FF1F99
:4039C0009685FF1F75220000D08AFF1F4D85FF1F7B83FF1F581CB24A134493F88E20B14B0344303A83F8D720AF4B1860AE4B1B689942EFD86020AD4906F032FD18B9012037
:403A0000552107F031F90022A94B1A7064200FF029FC0EF085FE38BD0EF058FE082842F08886A44B1B78DBB2AA2B40F09180A14B9B79DBB2C32B40F08B809E4BDB79DBB2C8
:403A40003C2B40F085809B4BDB78DBB27A2B5FD006D8772B3ED0782B4CD0762B78D10AE0822B17D002D87E2B6BD071E0832B21D0952B5AD06CE00120302107F0F5F80023FE
:403A80008D4A13708D4A13708D4A13701822884B1A705DE00120792107F0E6F80222864B1A700023854A1370854A13701822804B1A704DE001207A2107F0D6F803227E4B23
:403AC0001A7000237D4A13707D4A13701822784B1A703DE00120782107F0C6F80122764B1A700023754A1370754A13701822704B1A702DE00120652107F0B6F801226E4BA9
:403B00001A7000226D4B1A701722694B1A701FE00120322107F0A8F80023674A1370674A13701722624B1A7012E0664B1B78022B0ED10120662107F097F820225C4B1A7038
:403B400006E00120702107F08FF80E22584B1A7064200FF087FB0EF0E3FD38BD0EF0B6FD082842F0E685534B1B78DBB2AA2B6AD1504B9B79DBB2C32B65D14E4BDB79DBB2D4
:403B80003C2B60D14B4BDB787E3B042B5BD8DFE803F05303172B3F000120062107F064F80022464B1A70484B19783E4B83F8A3100120242107F08EF81A223D4B1A7042E0D2
:403BC0000120062107F050F800223C4B1A703F4B1978344B83F8A3100120242107F07AF81A22334B1A702EE00120062107F03CF80022324B1A70364B19782A4B83F8A310D1
:403C00000120242107F066F81A22294B1A701AE00120062107F028F80022284B1A702D4B1978204B83F8A3100120242107F052F81A221F4B1A7006E00120702107F014F803
:403C40000E221B4B1A7064200FF00CFB0EF068FD38BD0EF03BFD082842F06B85154B1B78DBB2AA2B40F05981124B9B79DBB2C32B40F053810F4BDB79DBB23C2B40F04D81CB
:403C80000C4BDB78DBB2632B4DD002D8622B23D043E1642B00F0E7807E2B00F037813CE19486FF1F3487FF1F8C83FF1F0B88FF1F7A83FF1FD08AFF1F9785FF1F4D85FF1FA4
:403CC0003488FF1F2785FF1FDF88FF1F4C85FF1F1E88FF1F7C83FF1F0120392106F0C4FF64200FF0BFFAB64B187809F05DFE062815D1B34B187909F057FE06280BD101205A
:403D00004A2106F0B1FF4FF42F700FF0ABFA0022AC4B1A7001E10120FEF7EAFDFDE00120FEF7E6FDF9E00120372106F09DFFA64B5B78012B45D10022A44B1A600AE0A44A47
:403D40001344012093F82C1006F012FC9F4A1368013313609D4B1B68102BF0D901200A2106F006FC01200A2106F002FC01200A2106F0FEFB01200A2106F0FAFB0022934B90
:403D80001A600AE0924A1344022093F82C1006F0EFFB8E4A1368013313608C4B1B68102BF0D902200A2106F0E3FB02200A2106F0DFFB02200A2106F0DBFB02200A2106F0B1
:403DC000D7FB814B5B78022B45D100227F4B1A600AE07F4A1344032093F82C1006F0C8FB7A4A136801331360784B1B68102BF0D903200A2106F0BCFB03200A2106F0B8FBDA
:403E000003200A2106F0B4FB03200A2106F0B0FB00226E4B1A600AE06D4A1344042093F82C1006F0A5FB694A136801331360674B1B68102BF0D904200A2106F099FB0420C7
:403E40000A2106F095FB04200A2106F091FB04200A2106F08DFB01206B2106F005FF2522584B1A7059E0012006F0A6FB012849D133200EF073FC0120332106F0DFFB002877
:403E80004BD00022534B1A600AE0012006F040FC514B1C4484F829004E4A1368013313604C4B1C68072CF0D900234C4A1370494A13600CE0494C484A1344207893F82910F6
:403EC00006F0C2FE2070434A136801331360414B1B68062BEED9404B93F830203F4B1B789A420BD101204B2106F0BEFE4FF47A700FF0B8F90022334B1A700EE00120FEF741
:403F0000F7FC0AE00120FEF7F3FC06E00120002106F0AAFE00222B4B1A7064200FF0A2F90EF0FEFB38BD0EF0D1FB082842F001842B4B1B78DBB2AA2B40F04281284B9B7917
:403F4000DBB2C32B40F03C81254BDB79DBB23C2B40F03681234B1B78042B00F2CA80DFE813F0050045006B00C800A3001C4AD278D2B2012A0FD80133DAB21A4B1A70184C8B
:403F8000E17830310120C9B206F0A4FEE3781B01154A82F8A130124BDB78DBB20A2B40F0A880104B1A780132D2B21A7000210E4B83F8A1100120302106F08CFE99E000BF2A
:403FC0007083FF1F7A83FF1F8C86FF1F8C83FF1F0C81FF1F5085FF1F9486FF1F3485FF1FD08AFF1F4D85FF1F3487FF1F9F4AD278D2B2092A11D80133DAB29D4B1A709B4C5E
:40400000E17830310120C9B206F064FEE178994A92F8A1300B4382F8A130944BDB78DBB20A2B66D1924B1A780132D2B21A700120302106F04FFE5CE08C4AD278D2B2052A03
:4040400017D80133DAB28A4C227001203A2106F041FE22780132D2B22270844CE17830310120C9B206F036FEE3781B01814A82F8A0307E4BDB78DBB20A2B3AD17C4C22786E
:404080000132D2B2227001203A2106F023FE22780132D2B222700120302106F01BFE0022744B83F8A02024E0704AD278D2B2092A11D80133DAB26E4B1A706C4CE178303187
:4040C0000120C9B206F006FEE1786A4A92F8A0300B4382F8A030654BDB78DBB20A2B08D1634B1A780132D2B21A700120302106F0F1FD5E4BDB78DBB2402B17D15E4B1B789E
:404100003BB901205C4B18707021062206F0E2FD07E00022584B1A7001206121062206F0D9FD01206D21072206F0D4FD4F4BDB78DBB20B2B1BD14E4B1A7882B90E224F4B75
:404140001A704F4B1B78012B04D101205D2106F08BFD0CE00120702106F086FD07E00120202106F0B7FD424A1378013B13703F4BDB78DBB20C2B23D13D4B1B78052B1FD1BA
:404180003D4B1B7843F002023A4991F8A13043EA421381F8A13006F003F9012810D10E22364B1A70364B1B78012B03D15D2106F05BFD05E0022B03D10120702106F054FD0E
:4041C00064200FF04FF80EF0ABFA38BD0EF07EFA082842F0AE82254B1B78DBB2AA2B40F07381224B9B79DBB2C32B40F06D811F4BDB79DBB23C2B40F067811D4B1A78072ABD
:4042000000F22381DFE812F008003E00650021019E00C4002101FC00144BDB78DBB2032B0FD8124CE17830310120C9B206F052FD0F4A137801331370E3781B010D4A82F8A2
:404240009D300A4BDB78DBB20A2B40F0FE800022084B83F89D20064C01203021227806F039FD237801332370EFE000BFD08AFF1F4D85FF1F3487FF1F7B83FF1F7A83FF1FBA
:404280002785FF1FAC4BDB78DBB2092B11D8AA4CE17830310120C9B206F01CFDE178A74A92F89D300B4382F89D30A54A137801331370A14BDB78DBB20A2B40F0C680A04C1B
:4042C00001203021227806F005FD237801332370BBE0994BDB78DBB2012B17D801202F2106F0F8FC964C22780132D2B22270924DE97830310120C9B206F0ECFCEB781B0124
:404300008E4A82F89E302378013323708A4BDB78DBB20A2B40F09980894C01202F21227806F0D8FC22780132D2B222700120302106F0D0FC0022814B83F89E202378013311
:40434000237082E07C4BDB78DBB2092B11D87A4CE17830310120C9B206F0BCFCE178774A92F89E300B4382F89E30754A137801331370714BDB78DBB20A2B66D1704C0120CC
:404380003021227806F0A6FC2378013323705CE0694BDB78DBB2092B17D801202F2106F099FC674C22780132D2B22270624DE97830310120C9B206F08DFCEB781B015F4ADF
:4043C00082F89F302378013323705B4BDB78DBB20A2B3AD15A4C01202F21227806F07AFC22780132D2B222700120302106F072FC0022524B83F89F2023780133237024E017
:404400004D4BDB78DBB2092B11D84B4CE17830310120C9B206F05EFCE178484A92F89F300B4382F89F30464A137801331370424BDB78DBB20A2B08D1414C012030212278E9
:4044400006F048FC2378013323703B4BDB78DBB20B2B1BD13A4B1B7883B90E22394B1A70394B1B78012B04D101205D2106F0FCFB0CE00120702106F0F7FB07E0013BDAB2AD
:404480002F4B1A700120202106F024FC2A4BDB78DBB20C2B18D12A4B1B78082B14D105F0ADFF012810D10E22264B1A70264B1B78012B03D15D2106F0D7FB05E0022B03D1E5
:4044C0000120702106F0D0FB64200EF0CBFE0EF027F938BD0EF0FAF8082842F02A81164B1B78DBB2AA2B40F00A81134B9B79DBB2C32B40F00481104BDB79DBB23C2B40F068
:40450000FE800F4B1B780C2B6ED80B4AD278D2B2092A2BD80133DAB2094B1A700B4B1B7813B1012B14D01AE0034BD978034B13443031997713E000BFD08AFF1F3487FF1F2D
:404540004D85FF1F7A83FF1F2785FF1F9785FF1FA04BD978A04B1344303183F82F109D4BD97830310120C9B207F0DCF9994BDB78DBB20A2B18D1994B1A780132D2B21A70F8
:40458000974B1B7813B1012B05D009E0924B13443021997704E0904B1344302183F82F100120302107F0BEF98A4BDB78DBB2512B1AD18A4B1B78BBB10133DAB2874B1A70F6
:4045C000874B1B7813B1012B05D009E0824B13442E21997704E0804B13442E2183F82F1001202E2107F09EF97A4BDB78DBB20B2B49D17A4B1A78002A3DD10E22794B1A7016
:40460000794B1B78012B04D101205D2106F02CFB03E00120702106F027FB2F200C2105F05DFF0022714B1A6008E0714AD15C6A4A1A4482F82F1001336C4A13606C4B1A7853
:404640006A4B1B689A42F0D220200F2105F046FF0022664B1A6007E0654AD15C5E4A1A4491770133614A1360614B1A785F4B1B689A42F1D207E00120202107F053F9574A13
:404680001378013B1370534BDB78DBB20C2B36D10E22544B1A70544B1B78012B04D101205D2106F0E1FA03E00120702106F0DCFA4B4B1B7813B1012B11D020E0474B1B7878
:4046C000454901F81E3F202005F0CAFEB8B90120552106F0C9FA6422424B1A700FE03F4B1B783D4901F82F3F2F2005F0B9FE30B90120552106F0B8FA64223A4B1A70642046
:404700000EF0B0FD0EF00CF838BD0DF0DFFF082842F00F802F4B1B78DBB2AA2B40F0C2832C4B9B79DBB2C32B40F0BC83294BDB79DBB23C2B40F0B683284B1B78172B00F253
:404740004D82244AD278D2B2092A7AD80133DAB2224B1A70224B1B78042B6BD8DFE803F0031427526400234B1978012904D1194BDB7830332048835400295BD1154BDB7873
:40478000303315498B5455E01A4B1978012904D1104BDB7830331948835400294AD10D4BD9780D4B1344303183F8431042E0114B1978012904D1074BDB78303310488354D6
:4047C000002937D1034BD978034B1344303183F861102FE0D08AFF1F3487FF1F4D85FF1F9785FF1F7A83FF1F2785FF1F8C83FF1F5485FF1F3488FF1F2885FF1F8083FF1F9E
:40480000D488FF1F994B1978012904D1984BDB7830339848835469B9954BD978964B1344303183F87F1005E0914BD978934B13443031D9728E4BD97830310120C9B207F033
:4048400071F88B4BDB78DBB20A2B2BD18C4B1A780132D2B21A708B4B1B78042B1ED8DFE803F003070D1319003021834B995415E0814B1344302183F843100FE07E4B134461
:40488000302183F8611009E07B4B1344302183F87F1003E0794B13443021D9720120302107F040F8724BDB78DBB2672B2BD1744B1A780132D2B21A70724B1B78042B1ED8ED
:4048C000DFE803F003070D13190023216A4B995415E0694B1344232183F843100FE0664B1344232183F8611009E0634B1344232183F87F1003E0614B13442321D9720120CA
:40490000232107F00FF85A4BDB78DBB26A2B2BD15B4B1A780132D2B21A705A4B1B78042B1ED8DFE803F003070D1319002D21524B995415E0504B13442D2183F843100FE082
:404940004D4B13442D2183F8611009E04A4B13442D2183F87F1003E0484B13442D21D97201202D2106F0DEFF414BDB78DBB2662B2BD1434B1A780132D2B21A70414B1B78C0
:40498000042B1ED8DFE803F003070D1319004021394B995415E0384B1344402183F843100FE0354B1344402183F8611009E0324B1344402183F87F1003E0304B13444021B4
:4049C000D9720120402106F0ADFF294BDB78DBB2692B2BD12A4B1A780132D2B21A70294B1B78042B1ED8DFE803F003070D1319002E21214B995415E01F4B13442E2183F8CB
:404A000043100FE01C4B13442E2183F8611009E0194B13442E2183F87F1003E0174B13442E21D97201202E2106F07CFF104BDB78DBB2682B5CD1124B1A780132D2B21A70FC
:404A4000104B1B78042B4FD8DFE803F003202E3C4A00064B1B78012B02D120200A498854002B41D12021044B99543DE03488FF1FD08AFF1F3885FF1F3487FF1F9486FF1FFA
:404A80004D85FF1F9785FF1F2885FF1F9A4B1B78012B02D12020994988542BBB984B1344202183F843101FE0934B1B78012B02D1202094498854BBB9914B1344202183F892
:404AC000611011E08C4B1B78012B02D120208E4988544BB98A4B1344202183F87F1003E08A4B13442021D9720120202106F01AFF874BDB78DBB21A2B70D9854BDB78DBB281
:404B0000422B6BD80022834B1A6063E0804AD278D2B281491944097A8A4257D17F490A780132D2B20A707E490978042948D8DFE801F00312223242006F490878012803D13A
:404B400003F14101774CA154002839D103F141016B48815434E068490878012803D103F14101664CA15458BB6549114403F1410081F8430024E060490878012803D103F113
:404B80004101604CA154D8B95D49114403F1410081F8610014E058490878012803D103F14101594CA15458B95549114403F1410081F87F0004E05549114403F14100C8721E
:404BC00003F141010120C9B206F0ACFE514A1368013313604F4B1B68192B97D94C4BDB78DBB20B2B76D14D4B1A78002A6AD10E224D4B1A704D4B1B78012B04D101205D2115
:404C000006F032F803E00120702106F02DF84020202105F063FC00223E4B1A6008E0444AD15C374A1A4482F843100133394A13603F4B1A78374B1B689A42F0D28020202171
:404C400005F04CFC0022334B1A6008E0384AD15C2B4A1A4482F8611001332E4A1360344B1A782C4B1B689A42F0D2A020202105F035FC0022274B1A6008E02D4AD15C204A95
:404C80001A4482F87F100133224A1360284B1A78204B1B689A42F0D20020202105F01EFC00221C4B1A6006E0214AD15C144AD1540133184A13601E4B1A78164B1B689A42B1
:404CC000F2D207E00120202106F02CFE134A1378013B13700E4BDB78DBB20C2B40F0E2800E22114B1A70114B1B78012B22D101205D2105F0B9FF21E03488FF1F8083FF1F72
:404D00003487FF1FD488FF1F3885FF1F9486FF1FD08AFF1F8C83FF1F0C81FF1F4D85FF1F9785FF1F2885FF1F7A83FF1F2785FF1F5485FF1F0120702105F096FFA84B1B782A
:404D4000042B00F2AF80DFE803F0032C547CA200A44B1B78012B0DD1A34CA44B1B78237040F26A40A24905F07BFB40F26A40214605F076FB9B4B1B78002B40F093809D4950
:404D80009A4B1B780B70002005F06AFB002840F089800120552105F067FF6422964B1A7080E0904B1B78012B0DD1944C8F4B1B78237040F275408E4905F052FB40F27540A3
:404DC000214605F04DFB874B1B78002B6AD1874B1B78884901F8433F402005F041FB002860D10120552105F03FFF6422824B1A7058E07C4B1B78012B0DD1814C7B4B1B7840
:404E000023704FF490607A4905F02AFB4FF49060214605F025FB734B1B78002B42D1734B1B78744901F8613F802005F019FB002838D10120552105F017FF64226E4B1A70A5
:404E400030E0684B1B78012B0DD16E4C674B1B78237040F28B40664905F002FB40F28B40214605F0FDFA5F4B1B78DBB95F4B1B78604901F87F3FA02005F0F2FA90B90120D9
:404E8000552105F0F1FE64225B4B1A700AE0574B1A785D4BDA720120392105F0E5FE2422554B1A7064200EF0DDF90DF039FC38BD0DF00CFC082841F03C84544B1B78DBB2A9
:404EC000AA2B2DD1514B9B79DBB2C32B28D14F4BDB79DBB23C2B23D14C4BDB78DBB25F2B04D07E2B15D05E2B1AD10AE001200B2105F0BAFE0122464B5A700A223E4B1A706D
:404F00000EE001201D2105F0AFFE0B223A4B1A7006E00120002105F0A7FE0022364B1A7046200EF09FF90DF0FBFB38BD0DF0CEFB082841F0FE83354B1B78DBB2AA2B40F026
:404F4000E280324B9B79DBB2C32B40F0DC802F4BDB79DBB23C2B40F0D680244B1B78062B25D82A4AD278D2B2092A0FD80133DAB21E4B1A702548C178234B13443031D97299
:404F8000C17830310120C9B205F0A4FE1F4BDB78DBB20A2B0BD1154B1A780132D2B21A70194B13443021D972012005F093FE174BDB78DBB20B2B40D10C4B1A7862BB0E22D9
:404FC0000D4B1A70134B1B78012B04D101205D2105F04AFE31E00120702105F045FE2CE09785FF1F3488FF1F2885FF1F4D85FF1F4C81FF1F3487FF1F7A83FF1F8083FF1F2B
:40500000D488FF1F3885FF1F9486FF1FD08AFF1F7883FF1F2785FF1F0120202105F05AFEA44B1B78A44A1A44D27A2C2A02D10021A24A1170013B9F4A1370A14BDB78DBB294
:405040000C2B60D19B4B1B78032B5CD906229D4B1A700120392105F007FE964B1A78964BDA72994B18780CF097F9002848D0974B93F8A320964B1B789A4204D140F2B310B3
:40508000944905F0EDF9914B93F8A320924B1B789A4204D140F2A7108E4905F0E1F98B4B93F8A3208D4B1B789A4204D140F2AD10884905F0D5F9854B93F8A320884B1B7817
:4050C0009A4204D14FF47A70824905F0C9F901203C2105F0C9FD4FF4FA700EF0C3F80E22784B1A707F4B1B78012B04D101205D2105F0BAFD07E00120702105F0B5FD02E069
:405100000120FDF7F5FB64200EF0ACF80DF008FB38BD0DF0DBFA082841F00B83684B1B78DBB2AA2B59D1664B9B79DBB2C32B54D1634BDB79DBB23C2B4FD1614BDB787E3B89
:40514000042B4AD8DFE803F0420327323A000120582105F089FD01200021732240F2C31305F0DEFF01200021CF2240F2C51305F0D7FF01200146292240F2C11305F0D0FF01
:40518000012001467B2240F2EE3305F0C9FF1C224C4B1A7021E00120062105F065FD0022444B1A701D22474B1A7016E001206D2105F05AFD1E22434B1A700EE001208A2142
:4051C00005F052FD2A223F4B1A7006E00120002105F04AFD00223B4B1A7064200EF042F80DF09EFA38BD0DF071FA082841F0A182334B1B78DBB2AA2B56D1314B9B79DBB28C
:40520000C32B51D12E4BDB79DBB23C2B4CD12C4BDB787E3B042B47D8DFE803F03F03122130000120062105F01FFD0022214B1A700122264B83F8A3201F22224B1A7033E0C2
:405240000120062105F010FD00221A4B1A7002221E4B83F8A3201F221A4B1A7024E00120062105F001FD0022124B1A700322174B83F8A3201F22134B1A7015E00120062165
:4052800005F0F2FC00220B4B1A7004220F4B83F8A3201F220B4B1A7006E00120002105F0E3FC0022074B1A7064200DF0DBFF0DF037FA38BD4D85FF1F9486FF1F7B83FF1F6E
:4052C000D08AFF1F7A83FF1F7083FF1F3487FF1FDF88FF1F9F86FF1F1E88FF1F4C85FF1F7C83FF1F2785FF1F0DF0F0F9082841F02082A64B1B78DBB2AA2B40F0BE80A34BA4
:405300009B79DBB2C32B40F0B880A04BDB79DBB23C2B40F0B2809E4B1B78042B36D89B4AD278D2B2092A0FD80133DAB2984B1A709648C178974B13443031D972C178303198
:405340000120C9B205F0C6FC904BDB78DBB20A2B0BD18F4B1A780132D2B21A708D4B13443021D972012005F0B5FC884BDB78DBB2512B0BD1864B1A780132D2B21A70854B50
:4053800013442C21D972012005F0A4FC7F4BDB78DBB20B2B24D17E4B1A7882B90E227E4B1A707E4B1B78012B04D101205D2105F05BFC15E00120702105F056FC10E0012013
:4053C000202105F087FC724B1B78724A1A44D27A2C2A02D10021724A1170013B6C4A13706A4BDB78DBB20C2B47D1694B1B78052B43D1684B1B7B353BDBB2022B3DD801202A
:40540000392105F031FC624B1B78624901F80B3F4FF4DD7005F024F8012805D15D4B1B7B03F00F035F4A137040F25A205E4905F017F8012821D1574A937B03F00F035B49E9
:405440000B70137C03F00F03594A13703C2105F00BFC4FF4FA700DF005FF0E224E4B1A704E4B1B78012B04D101205D2105F0FCFB03E00120702105F0F7FB64200DF0F2FEF8
:405480000DF04EF938BD0DF021F9082841F051813E4B1B78DBB2AA2B71D13C4B9B79DBB2C32B6CD1394BDB79DBB23C2B67D1374BDB78DBB28F2B04D0902B2ED07E2B5ED1D1
:4054C00056E03C49002381F82D3081F82E304FF4DE702D3104F0C4FF01281AD10022364B1A703C2105F0C0FB4FF4FA700DF0BAFE2A4B1B78012B04D101205D2105F0B4FB7F
:4055000003E00120702105F0AFFB0E22224B1A7035E00120FDF7ECF931E02649012381F82D3081F82E304FF4DE702D3104F098FF012819D1204B18703C2105F095FB4FF40B
:40554000FA700DF08FFE154B1B78012B04D101205D2105F089FB03E00120702105F084FB0E220D4B1A700AE00220FDF7C1F906E00120702105F078FB0E22074B1A706420C6
:405580000DF070FE0DF0CCF838BD00BFD08AFF1F4D85FF1F9486FF1F7A83FF1F2785FF1F7B83FF1F3385FF1F9F86FF1F7D83FF1F1F88FF1F3487FF1FA285FF1F0DF086F8D5
:4055C000082841F0B680A64B1B78DBB2AA2B40F0B380A34B9B79DBB2C32B40F0AD80A04BDB79DBB23C2B40F0A7809E4B1B782BBB9B4AD278D2B2092A0FD80133DAB2994B94
:405600001A709748C178984B13443031D972C17830310120C9B205F05DFB914BDB78DBB20A2B0BD18F4B1A780132D2B21A708E4B13443021D972012005F04CFB884BDB7896
:40564000DBB20B2B1BD1874B1A783AB90120002105F00AFB0022854B1A7010E00120202105F038FB7F4B1B787F4A1A44D27A2C2A02D100217E4A1170013B7A4A1370784B49
:40568000DB78DBB20C2B57D1764B1B78012B53D10120392105F0E8FA724B1A78724BDA72744B93F8A330012B08D16F490A7B724B1A7040F2C1100B3104F0D2FE6D4B93F871
:4056C000A330022B08D168490A7B6C4B1A7040F2C3100B3104F0C4FE664B93F8A330032B08D161490A7B664B1A7040F2C5100B3104F0B6FE5F4B93F8A330042B08D15A4945
:405700000A7B604B1A7040F2EE300B3104F0A8FE4FF4FA700DF0A6FD0E22544B1A705A4B1B78012B04D101205D2105F09DFA03E00120702105F098FA64200DF093FD0CF056
:40574000EFFF38BD0CF0C2FF082840F0F287444B1B78DBB2AA2B40F0B682414B9B79DBB2C32B40F0B0823E4BDB79DBB23C2B40F0AA823B4BDB787E3B252B00F2A482DFE859
:4057800013F08102A202A202A202A202A202260017014A003A018700AB00F300CF00A202A202A202A202A202A202A202A2025F02A202A2023C025E018201A202A202A202A3
:4057C000A202A202A202A601CA01EE0119022F4901230B7000234B7040F2C71004F040FE012840F070823C2105F03EFA4FF4FA700DF038FD0E221D4B1A70234B1B78012B0E
:4058000004D101205D2105F02FFA5CE20120702105F02AFA57E21D4901230B700B234B7040F2C71004F01CFE012840F04C823C2105F01AFA4FF4FA700DF014FD0E220B4BC1
:405840001A70114B1B78012B04D101205D2105F00BFA38E20120702105F006FA33E200BFD08AFF1F4D85FF1F9486FF1F7A83FF1F7B83FF1F3487FF1F1E88FF1FDF88FF1F87
:405880004C85FF1F7C83FF1F2785FF1F4885FF1FC54901230B7004234B7040F2C71004F0DFFD012840F00F823C2105F0DDF94FF4FA700DF0D7FC0E22BC4B1A70BC4B1B78D5
:4058C000012B04D101205D2105F0CEF9FBE10120702105F0C9F9F6E1B34901230B700C234B7040F2C71004F0BBFD012840F0EB813C2105F0B9F94FF4FA700DF0B3FC0E22A4
:40590000AA4B1A70AA4B1B78012B04D101205D2105F0AAF9D7E10120702105F0A5F9D2E1A14901230B7009234B7040F2C71004F097FD012840F0C7813C2105F095F94FF4B3
:40594000FA700DF08FFC0E22984B1A70984B1B78012B04D101205D2105F086F9B3E10120702105F081F9AEE18F4901230B7008234B7040F2C71004F073FD012840F0A38183
:405980003C2105F071F94FF4FA700DF06BFC0E22864B1A70864B1B78012B04D101205D2105F062F98FE10120702105F05DF98AE17D4901230B704B7040F2C71004F050FDF9
:4059C000012840F080813C2105F04EF94FF4FA700DF048FC0E22754B1A70754B1B78012B04D101205D2105F03FF96CE10120702105F03AF967E16C4901230B7006234B7085
:405A000040F2C71004F02CFD012840F05C813C2105F02AF94FF4FA700DF024FC0E22634B1A70634B1B78012B04D101205D2105F01BF948E10120702105F016F943E15A49D3
:405A400001230B700E234B7040F2C71004F008FD012840F038813C2105F006F94FF4FA700DF000FC0E22514B1A70514B1B78012B04D101205D2105F0F7F824E101207021D0
:405A800005F0F2F81FE1484901230B700D234B7040F2C71004F0E4FC012840F014813C2105F0E2F84FF4FA700DF0DCFB0E223F4B1A703F4B1B78012B04D101205D2105F07E
:405AC000D3F800E10120702105F0CEF8FBE0364901230B7003234B7040F2C71004F0C0FC012840F0F0803C2105F0BEF84FF4FA700DF0B8FB0E222D4B1A702D4B1B78012B63
:405B000004D101205D2105F0AFF8DCE00120702105F0AAF8D7E0244901230B7005234B7040F2C71004F09CFC012840F0CC803C2105F09AF84FF4FA700DF094FB0E221B4BBD
:405B40001A701B4B1B78012B04D101205D2105F08BF8B8E00120702105F086F8B3E0124901230B7007234B7040F2C71004F078FC012840F0A8803C2105F076F84FF4FA70FC
:405B80000DF070FB0E22094B1A70094B1B78012B04D101205D2105F067F894E00120702105F062F88FE000BF4885FF1F7A83FF1F2785FF1FB04901230B700A234B7040F26F
:405BC000C71004F04DFC01287DD13C2105F04CF84FF4FA700DF046FB0E22A84B1A70A84B1B78012B04D101205D2105F03DF86AE00120702105F038F865E09F4901230B70AF
:405C000002234B7040F2C71004F02AFC01285AD13C2105F029F84FF4FA700DF023FB0E22964B1A70964B1B78012B04D101205D2105F01AF847E00120702105F015F842E01F
:405C40008D4900230B704B7040F2C71004F008FC012838D13C2105F007F84FF4FA700DF001FB0E22854B1A70854B1B78012B04D101205D2104F0F8FF25E00120702104F0A8
:405C8000F3FF20E07C4900230B704B7040F2C71004F0E6FB01280FD10E22784B1A70784B1B78012B03D15D2104F0DEFF0BE00120702104F0D9FF06E00120002104F0D4FF73
:405CC00000226E4B1A7064200DF0CCFA0CF028FD38BD0CF0FBFC08284ED16A4B1B78DBB2AA2B44D1674B9B79DBB2C32B3FD1654BDB79DBB23C2B3AD1624BDB78DBB20A2BCB
:405D000029D10122604B1A6010E0604B5878604B197801225F4B1B7806F04EFA4FF4FA700DF0A0FA584A1368013313605A4B1B7803F00F03544A12689342E6D201200C21A4
:405D400004F092FF55480CF00BFF0CF0DBFE64224A4B1A700BE001200C2104F085FF6422464B1A704D480CF0FBFE0CF0CBFE64200DF078FA0CF0D4FC494B1B78132B40F28A
:405D8000D88401200C2104F06FFF64223B4B1A700022434B1A7038BD0CF098FC082840F0C884384B1B78DBB2AA2B5ED1354B9B79DBB2C32B59D1334BDB79DBB23C2B54D10B
:405DC000304BDB78DBB2392B0FD002D8382B05D04BE07E2B42D0942B35D046E00021274B1970012004F040FF3FE0244D00232B7001203B2104F038FF244C607807F0E8F99D
:405E000060780A2104F0B4FB60780A2104F0B0FB60780A2104F0ACFB60781D2104F0A8FB6078562104F0A4FB6078312104F0A0FB64232B7001221A4B1A7018480CF090FE16
:405E40000CF060FE11E001202F2104F00DFF0022144B1A702822094B1A7006E00120002104F002FF0022054B1A7064200DF0FAF90CF056FC38BD00BF4885FF1F7A83FF1F9E
:405E80002785FF1FD08AFF1F5085FF1F9086FF1F3588FF1F7083FF1FD088FF1F752200009685FF1F4D85FF1F0CF010FC082840F04084B24B1B78DBB2AA2B3CD1AF4B9B791E
:405EC000DBB2C32B37D1AD4BDB79DBB23C2B32D1AA4BDB78DBB2912B04D0922B13D07E2B29D121E001200A2104F0BEFE0122A44B1A700422A34B1A700022A34B1A70182229
:405F0000A24B1A7017E001206F2104F0ADFE21229B4B1A7004229B4B1A7000229A4B1A7018229A4B1A7006E00120002104F09CFE0022964B1A7064200DF094F90CF0F0FBE8
:405F400038BD934B012013F80B1F8D4A127804F0F5FC012820D16E2104F086FE23228B4B1A700120014604F00FFC052810D90A200DF078F9012005F051FC0120212104F01D
:405F800003FC052840F2D583012005F0C5FB38BD0120FCF7ADFC38BD0120FCF7A9FC38BD0CF094FB082840F0C483744B1B78DBB2AA2B77D1714B9B79DBB2C32B72D16F4B8A
:405FC000DB79DBB23C2B6DD16C4BDB78DBB2392B04D07E2B47D0382B64D13CE06D4B5A78012A07D16C4901230B704B706B490B7002234B70022A08D1674B01221A700321A5
:406000005970664B1A7004225A7040F26320624904F026FA012845D140F265205F4904F01FFA01283ED1682104F01EFE4FF4FA700DF018F90E22554B1A70594B1B78012B04
:4060400004D101205D2104F00FFE2BE00120702104F00AFE26E026224C4B1A700120672104F002FE1EE04F4B5B78012B03D100224C4B5A7002E001224A4B5A7040F2DA3058
:40608000484904F0EDF901203C2104F0EDFD4FF4FA700DF0E7F80120002104F0E5FD00223A4B1A7064200DF0DDF80CF039FB38BD0CF00CFB082840F03C83304B1B78DBB20F
:4060C000AA2B40F0E0802D4B9B79DBB2C32B40F0DA802A4BDB79DBB23C2B40F0D480274BDB78DBB28C2B0AD003D87E2B00F0C480C9E08D2B58D08E2B00F09180C3E0254B78
:406100005B78012B07D1244A0120107002215170224A10705170022B07D11F4B0121197004225A701D4B19705A7040F263201A4904F096F9012840F0A68040F265201749F2
:4061400004F08EF9012840F09E806A2104F08CFD4FF4FA700DF086F80E220C4B1A70104B1B78012B04D101205D2104F07DFD8AE00120702104F078FD85E000BFD08AFF1FCF
:406180009885FF1F9785FF1F4D85FF1F7A83FF1F9486FF1F8C86FF1F9086FF1F3087FF1F2785FF1F7883FF1FAE4B5A78012A06D1AD4901230B704B70AC490B704B70022A97
:4061C00007D1A94B0121197003225A70A74B19705A7040F26320A44904F042F9012852D140F26520A14904F03BF901284BD1692104F03AFD4FF4FA700DF034F89C4B1B78C4
:40620000012B04D101205D2104F02EFD03E00120702104F029FD0E22964B1A7033E092490120087000224A70904B18705A7040F2632004F015F9012825D140F265208B4964
:4062400004F00EF901281ED16C2104F00DFD4FF4FA700DF007F80E22864B1A70844B1B78012B04D101205D2104F0FEFC0BE00120702104F0F9FC06E00120002104F0F4FCCA
:4062800000227C4B1A7064200CF0ECFF0CF048FA38BD0CF01BFA082840F04B82764B1B78DBB2AA2B40F0D780734B9B79DBB2C32B40F0D180704BDB79DBB23C2B40F0CB8006
:4062C0006E4B1A78032A26D86B4BDB78DBB2092B0ED8694BD9786A4B1344303183F88E1001202A2104F0F6FC644A137801331370614BDB78DBB20A2B0DD1604C2278604B1B
:406300001344302183F88E1001202A2104F0E2FC237801332370584BDB78DBB20B2B0ED1564B1B781BB90120FCF7E2FA07E0013BDAB2524B1A700120202104F0CBFC4E4BE0
:40634000DB78DBB20C2B40F086804C4B1A78002A72D000234B490B604B490B6012E0591C4A48405C464C234493F88E30984204D1444803680133036002E00020414B186000
:40638000414B19601046404B1B689A42E7D83F4B1A783C4B1B689A420FD10120262104F063FC4FF4FA700CF05DFF2222314B1A700120712104F058FC4DE00023314A1360B4
:4063C000314A136010E0314A1A4492F824102C4A1A4492F88E20914203D12A490A6801320A600133284A1360274B1B689842EAD8244B1B68042B0FD10120262104F034FCBC
:406400004FF4FA700CF02EFF22221A4B1A700120712104F029FC1EE00120272104F024FC6422144B1A700122194B1A7019480CF097FB0CF067FB0EE00120272104F014FCE4
:4064400064220C4B1A700122114B1A7011480CF087FB0CF057FB64200CF004FF0CF060F938BD00BF8C86FF1F9086FF1F3087FF1F2785FF1F7A83FF1FD08AFF1F4D85FF1F75
:406480009486FF1FA485FF1F8C83FF1F0C81FF1F9685FF1F752200000CF018F9082840F04881A44B1B78DBB2AA2B7AD1A14B9B79DBB2C32B75D19F4BDB79DBB23C2B70D11C
:4064C0009D4B1A78032A27D89A4BDB78DBB2092B10D89848C178994B1344303183F88E10C17830310120C9B204F0F4FB924A1378013313708F4BDB78DBB20A2B0CD18E4C6A
:4065000022788E4B1344302183F88E10012004F0E1FB237801332370864BDB78DBB20B2B0ED1854B1B781BB90120FCF7E1F907E0013BDAB2804B1A700120202104F0CAFBCA
:406540007C4BDB78DBB20C2B2BD17B4B1B78042B27D10120392104F087FB0023784A1370754A127877490A7077490B6008E0591C7248034493F88E00724B5854724B1960A4
:40658000714B1B689A42F2D840F29F206D4903F067FF30B90120552104F066FB6422684B1A7064200CF05EFE0CF0BAF838BD0CF08DF8082840F0BD805E4B1B78DBB2AA2B23
:4065C0004FD15C4B9B79DBB2C32B4AD1594BDB79DBB23C2B45D1574BDB78DBB2BC2B08D002D87E2B36D03CE0BD2B12D0BE2B21D037E00120702104F037FB544901230B7073
:406600004B704FF47D7003F02BFF0E224C4B1A7027E00120702104F027FB4C4901230B7002234B704FF47D7003F01AFF0E22444B1A7016E00120062104F016FB0122444BA4
:406640001A7000233C4A1370424A137005223C4B1A7006E00120702104F006FB0E22384B1A7064200CF0FEFD0CF05AF838BD0CF02DF808285DD12F4B1B78DBB2AA2B58D17E
:406680002C4B9B79DBB2C32B53D12A4BDB79DBB23C2B4ED1274BDB78DBB2772B39D002D8762B05D038BD822B12D0832B20D038BD0120302104F0D8FA0023274A13701E4AB9
:4066C00013700122254B1A7018221D4B1A7038BD0120302104F0C8FA01231F4A13700021154A11701D4A13701822154B1A7038BD0120302104F0B8FA0222174B1A70002253
:406700000D4B1A700122154B1A7018220C4B1A7038BD0120302104F0A7FA03220E4B1A700022054B1A7001220C4B1A701822044B1A7038BDD08AFF1F4D85FF1F9486FF1FA3
:406740007A83FF1F0C81FF1F8C83FF1F8C86FF1F8F86FF1F7B83FF1F9785FF1F3488FF1F38B5984B1B78642B03F29785DFE813F074008000951DA100000188013B02D902DD
:40678000951D0903F6034804B5042805730550066507B4075C08F5087409DF0A340CB90DD40EC2110012D7125713BE13A41429150616C7184019AF19FC192C1AD01AAC1B25
:4067C000AC1C371D951D951D951D951D951D951D951D951D951D951D951D951D951D951D951D951D951D951D951D951D951D951D951D951D951D951D951D951D951D951DA1
:40680000951D951D951D951D951D951D951D951D951D951D951D951D951D951D951D951D951D951D951D951D951D951D951D951D951D951D951D951D6500634B1B78012B0E
:4068400043F22B8500245F4B1C700CF051FA0CF0B3F95D4B1C7038BD5C480CF03BFA0CF00BFA0022584B1A700122564B1A7038BD0CF01AF8082843F010850CF03FF80CF024
:4068800037FA0CF099F9524B1B78022B04D10220632104F0E9F903E00220452104F0E4F964200CF0DFFC0CF029F80322454B1A7038BD0BF0F9FF082843F0EF84454B1B7897
:4068C000DBB2AA2B4ED1434B9B79DBB2C32B49D1404BDB79DBB23C2B44D13E4BDB78DBB2592B2DD002D8452B1FD03BE05C2B02D07E2B30D036E00022374BDA70344B1B78A2
:40690000012B06D10220052104F0AEF904222D4B1A702F4B1B78022B24D10220492104F0A3F91922274B1A701CE00220252104F09BF90022294B1A700F22224B1A7011E0A2
:406940000220252104F090F90022244B1A7027221C4B1A7006E00220002104F085F90022184B1A7064200CF07DFC0BF0C7FF38BD0BF09AFF082843F09084164B1B78DBB2F8
:40698000AA2B77D1134B9B79DBB2C32B72D1114BDB79DBB23C2B6DD10F4AD37823F00303D3700C4BDB78DBB23B2B4BD004D80F2B16D0102B28D05DE0432B3BD07E2B52D040
:4069C00058E000BF4B85FF1F2585FF1FBD2200002785FF1FE48AFF1F3888FF1F2D87FF1F0220062104F040F90022A74B1A700220242104F06FF9A54AD37843F00203D37079
:406A00000522A34B1A7035E002200D2104F02CF900229D4B1A709F4B1A700220472104F059F99A4AD37843F00103D3700522984B1A701FE00220072104F016F90622944BD1
:406A40001A7017E0944B1B78022B04D10220632104F00AF903E00220452104F005F903228B4B1A7006E00220002104F0FDF80022874B1A7064200CF0F5FB0BF03FFF38BD74
:406A80000BF012FF082843F00884844B1B78DBB2AA2B40F0A280814B9B79DBB2C32B40F09C807E4BDB79DBB23C2B40F09680764B1B787B4A1278013A93423EDC774AD278EF
:406AC000D2B2092A0FD80133DAB26F4B1A707348C1786E4B13443031D972C17830310220C9B204F0F7F86D4BDB78DBB20A2B0BD1654B1A780132D2B21A70644B13443021A7
:406B0000D972022004F0E6F8644BDB78DBB2512B13D15D4B1B7883B15E4A12786AB90133DAB2594B1A70594B13442C21D972022004F0D0F80122574B1A70584BDB78DBB232
:406B40000B2B1BD1504B1A783AB90220052104F08BF804224E4B1A7010E00220202104F0B9F8494B1B78494A1A44D27A2C2A02D10021484A1170013B434A1370474BDB78E1
:406B8000DBB20C2B29D1404B1B786BB1454B1B7853B90220072104F067F83B4B1A783B4BDA7206223A4B1A70374B1B78ABB13D4B1B78012B11D10220702104F055F8334BE4
:406BC0001B7B39490B7040F28D4003F049FC0022344B1A700E222E4B1A7064200CF042FB0BF08CFE38BD64200CF03CFB0BF05CFE082820D1294B1B78DBB2AA2B15D1274B48
:406C00009B79DBB2C32B10D1244BDB79DBB23C2B0BD1224BDB78DBB27E2B06D10220002104F022F800221A4B1A7064200CF01AFB0BF064FE38BD1D4B187906F0B5FE07286A
:406C400043F02B8332200CF00DFB184B187906F0BFFE174B187032200CF004FB0B4BDB7813F0030328D0114A1079114A1178114A0AF050F900BB0220002103F0F5FF0022E8
:406C8000034B1A7038BD00BF2D87FF1F3888FF1F4B85FF1F4E85FF1F2785FF1FE48AFF1F3385FF1F8F86FF1FD088FF1F7083FF1F9286FF1F4388FF1F01200CF07DFA9A4B3B
:406CC000187906F085FE994B1870002803F0E582974B1B7803F00F03834211D0954B1B7803F00F0398420BD0934B1B7803F00F03984205D0914B1B7803F00F03984202D109
:406D000002200AF087FD884B187940F010000BF06FF80220082103F0A7FF0722884B1A7038BD32200CF09EFA7F4B187906F03CFE0A2813D00B2803D0062843F0AE8218E039
:406D400064200CF08FFA784B187906F0B5FE012843F0A3820D227A4B1A7038BD724B187906F0AAFE012843F098820D22744B1A7038BD0220002103F077FF0022704B1A7037
:406D800038BD0BF091FD082840F0B9806D4B1B78DBB2AA2B40F0AE806A4B9B79DBB2C32B40F0A880674BDB79DBB23C2B40F0A2800022654B1A70654B1B78062B65D8614A11
:406DC000D278D2B2092A10D80133DAB25F4B1A705C48C1785E4B1344303183F86510C17830310220C9B203F075FF564BDB78DBB20A2B0CD1554B1A780132D2B21A70544B45
:406E00001344302183F86510022003F063FF4D4BDB78DBB26A2B0CD14C4B1A780132D2B21A704B4B13442D2183F86510022003F051FF444BDB78DBB21A2B26D9414BDB78CD
:406E4000DBB2422B21D80022424B1A6019E03D4AD278D2B240491944097A8A420DD13B490A780132D2B20A704133D9B2384B134483F86510022003F02DFF364A1368013325
:406E80001360344B1B68192BE1D92E4BDB78DBB20B2B18D12D4B1A786AB902200B2103F0E3FE2B4B002283F8652083F883200A22234B1A7007E00220202103F00BFF234A0A
:406EC0001378013B13701F4BDB78DBB20C2B11D11E4B1B7873B10220052103F0C5FE1C4B1A4A127883F86520012283F883200422134B1A7064200CF0B5F90BF0FFFC124BA2
:406F00001B781D2B43F2C98102200B2103F0ACFE0F4A002382F8653082F883300A4A13700A22074B1A7038BD7083FF1F9286FF1F1E88FF1FDF88FF1F4C85FF1F7C83FF1FE4
:406F40004B85FF1FE48AFF1F2585FF1F2D87FF1F3888FF1F8C83FF1F0C81FF1F0BF0A4FC08283DD1A64B1B78DBB2AA2B33D1A44B9B79DBB2C32B2ED1A14BDB79DBB23C2BD3
:406F800029D19F4BDB78DBB2382B15D0392B22D100229C4B1A709C4BDB7813F0040F07D102200A2103F060FE0922984B1A7012E00D22964B1A700EE002200C2103F054FE6F
:406FC0000122934B1A7093480BF084FE0BF054FE64228E4B1A7064200CF044F90BF08EFC8B4B1B781D2B43F2588102200C2103F03BFE0122864B1A706422844B1A7038BDAA
:407000000220012103F0C0FB052840D90A200CF029F90220212103F0B7FB052837D9022003F0CAFA012832D133200BF085FC0220332103F003FB50B30022774B1A600AE004
:40704000022003F065FB704B1C4484F82900724A136801331360704B1C68072CF0D90220132103F001FE684CE37843F00403E3704FF4FA700CF0F6F802200E2103F0F4FD12
:407080000023604A137023710C22604B1A700BF00BFC082843F00181594B1B78DBB2AA2B15D1574B9B79DBB2C32B10D1544BDB79DBB23C2B0BD1524BDB78DBB23B2B06D194
:4070C0000220632103F0D0FD0322504B1A7064200CF0C8F80BF012FC38BD0BF0E5FB082843F0DB80464B1B78DBB2AA2B62D1444B9B79DBB2C32B5DD1414BDB79DBB23C2B30
:4071000058D1404B1B78052B25D83D4AD278D2B2092A0FD80133DAB23A4B1A703848C178394B134430311971C17830310220C9B203F0D0FD324BDB78DBB20A2B0BD1314B3D
:407140001A780132D2B21A702F4B134430211971022003F0BFFD2A4BDB78DBB20B2B12D1284B1A783AB90220052103F07DFD0422264B1A7007E00220202103F0ABFD214A33
:407180001378013B13701E4BDB78DBB20C2B11D11C4B1B7873B11C4B5B79302B0AD00220052103F061FD174B1A78174B1A710422164B1A7064200CF055F80BF09FFB38BDB3
:4071C000164B5878164B19780022164B1B7904F0F3FF154B1B78012B02D0144B5B783BBB02200C2103F040FD0122094B1A7009480BF070FD0BF040FD6422044B1A7038BD91
:40720000E48AFF1F2D87FF1F3888FF1F4B85FF1F2585FF1FBD2200005085FF1F3087FF1F9286FF1F7083FF1F2785FF1F7883FF1F0220312103F018FD0022B14B1A70012244
