:4000000000800020110000009D0000009D00000080B500AF064B064A126842F020021A60044B054A12681A6000F004FB00F03AF8E8460040BC760040FA46004010B5054CEF
:40004000237833B9044B13B10448AFF300800123237010BD2881FF1F00000000901D000008B5064B1BB106480649AFF300800648036813B1054B03B1984708BD00000000C2
:40008000901D00002C81FF1F0881FF1F0000000080B500AF00F078FAFEE700BF80B400AFFEE700BF80B586B000AF224B7B61224B3B61204B7B6135E03B691B68FB603B69C2
:4000C0005B68BB603B699B683B6000237B600CE0FB681A68BB681A60BB680433BB60FB680433FB607B6804337B607A683B689A42EED13B69DB683B6000237B6008E0BB686A
:4001000000221A60BB680433BB607B6804337B607A683B689A42F2D13B6910333B617B69013B7B617B69002BC6D101F0F5FDFFF7AFFFFEE701000000A021000080B582B0DB
:4001400000AF174B174A1A60174B174A126842F400721A6000237B600FE07B68032B04D8124B7A6853F8223000E0114B114A796842F821307B6801337B607B682F2BECD987
:400180000D4B1B78DAB20D4B1A700D4B094A1A6000F026F90B4B00221A600837BD4680BD0CED00E00004FA0514ED00E0000000009D0000000080FF1FBC7600400481FF1F34
:4001C00008ED00E00081FF1F80B582B000AF78603960786800213A6801F0CDFD0837BD4680BD00BF80B584B000AFF860B9607A60F868B9687A6801F0B5FD1037BD4680BD78
:4002000080B584B000AFF860B9607A60F868B9687A6801F0A7FD1037BD4680BD80B483B000AF0346FB71FEE780B487B000AF7860396000233B6100237B6126E07B699B005E
:400240007A6813441B68BB60BB68FB73BB6823F0FF03BB6013E03B695B003A6813441B781A46BB6813443A69520039680A4452781A703B6901333B61FB7B013BFB73FB7B29
:40028000002BE8D17B6901337B617B69102BD5D91C37BD465DF8047B704700BF80B582B000AF304B19221A802F4B18221A702F4B02221A704FF0402308221A702C4B03223B
:4002C0001A702C4B2C4A1278D2B21A702B4B08221A802B4B41F251221A800023FB7019237B6014E0FB785B00DAB2264B1B78DBB203F00103DBB21343DBB203F00303FB70B0
:400300004FF4F07000F00CFF7B68013B7B607B68002B02D0FB78032BE4D17B68002B02D10320FFF77BFF184B4FF480721A80164B07221A70154B00221A70154B48221A70D5
:40034000114B00221A70134B02221A70124B124A1278D2B242F00102D2B21A700837BD4680BD00BF80400040824000400043004000420040A14600400801004922420040FD
:40038000204200402542004004400040064000400840004001400040A243004080B483B000AF0B4B1B78FB710A4BFA7902F00702D2B21A70084BFA791209D2B21A70074B3F
:4003C00044221A700C37BD465DF8047B704700BFCF0100496E5800406F5800407658004080B582B000AF72B6334B334A1278D2B242F02402D2B21A700023FB7113E0FA79A7
:4004000013465B0013445B002C4A13443B603B681A683B689B889BB210461946FFF7D4FEFB790133FB71FB79072BE8D924482549FFF7FAFE244B244A1278D2B242F00202D5
:40044000D2B21A70214B214A1278D2B242F00202D2B21A701E4B1E4A1278D2B242F04002D2B21A701B4B1B4A1278D2B242F01002D2B21A70184819490A22FFF7C1FE184BB3
:40048000174A1278D2B242F00802D2B21A70154B01221A70FFF702FF124B81221A70124B01221A70FFF77AFF104809490E22FFF799FE0837BD4680BDE8460040941D000077
:4004C000C41D0000081E00000350014013500140A0430040C24300406051004068210000224300400048004004000840B043004080B485B000AF78600B467B800023FB8154
:400500000BE07B88013B7A6813441B781A46FB891344FB817B88013B7B807B88002BF0D1FB895B429BB218461437BD465DF8047B704700BF80B586B000AFF860B9607A601C
:400540000023FB75FA680F4B9A4206D0FB68002B03D0002000F070FF0CE00BE07B68013B7B60FA68BB681A447B6813441A78FB7D1344FB757B68002BF0D1FB7D18461837E7
:40058000BD4680BD0080004080B582B000AF06237B60002000F06EF80346002B01D100237B601C4B1B681B68002000211A46FFF7C1FF0346FB70184B1B681B78FA78D31A17
:4005C000FB70FB785B42FB70134B1B681B78FA789A4204D10F4B1B681B68002B02D1002000F02AFF0D4B1B78DBB203F0C003402B02D07B68002B05D0084B00221A7000207A
:4006000000F0AEF8322000F0ABF800F009F80837BD4680BD1081FF1F0C81FF1FFA46004080B500AF024B80221A7000F011FF80BDFA46004080B500AF0C4B1B78DBB203F08D
:40064000C003802B11D1094B00221A700220002100F0DCFB0346002B07D00220002100F0D5FB0346184600F003F880BDFA460040004700BF90B587B000AF0346FB71FB7929
:400680000320194600F0C2FB034601331C02FB790420194600F0BAFB03462344FB600023FB740023BB74FB790320194600F0AEFB034601331B027B6111E07B691B78FB720B
:4006C000FB7A002B04D0FB7AFF2B01D00123FB74BA7CFB7A1344BB747B6901337B617A69FB689A42E9D3FB790320194600F08EFB034601331B02DB087B61FA68174B9A4218
:4007000002D0FB68DB0801E04FF40043FB600AE07B6903F190431B78DAB2BB7C1344BB747B6901337B617A69FB689A42F0D3BB7C5B42BB74BC7CFB790120194600F066FB15
:4007400003469C4202D1FB7C002B01D1062300E0002318461C37BD4690BD00BFC0FF030080B5ADF5247D00AF0246FB1D1A700023A7F88A320023A7F888320A2387F88732ED
:40078000002387F8863200F055FD0346002B02D0002000F051FE00F01BFC62B6002387F88D32FB1D1B78002B02D0FB1D1B7800E0FF2307F59E7107F26A2208464FF49671FB
:4007C00000F034FCC7F87802FB1D1B78002B04D097F88732013B87F8873297F88732002B03D0D7F87832002BDBD1D7F87832002B00D0B0E2B7F86A32062B04D907F59E7338
:400800001B78012B03D0042387F88D3244E007F59E73DB781B029AB207F59E739B781343A7F88A32B7F88A32053307F59E72D35C1B029AB2B7F88A32043307F59E71CB5CE8
:400840001343A7F87632B7F88A32DA1DB7F86A329A4203D9032387F88D321DE0B7F88A32063307F59E72D35C172B03D0042387F88D3211E0B7F88A3204339BB207F59E72D0
:4008800010461946FFF734FE0346B7F876229A4202D0082387F88D320023A7F88E3297F88D32002B40F04C8207F59E731B7987F87532042387F88D3207F59E735B78313B43
:4008C0000A2B00F2398201A252F823F0F908000033090000390D0000CD0900003F0B0000390D0000510B0000A70B0000CD090000EB0B0000210D000097F88632012B17D1CA
:40090000B7F88A32002B13D10020FFF7B3FE0346002B14BF00230123DBB21A4607F59E731A710123A7F88E32002387F88D3207E206E297F88632012B47D1B7F88A32012B8C
:4009400043D197F87532032B3FD8D14B1B681B681B0C87F8743297F8752297F874329A4208D1CB4B1B681B681B0A9BB2DBB2A7F884320DE097F8752297F874329A4203D9FA
:400980000023A7F8843203E04FF48073A7F88432B7F88432DAB207F59E731A71B7F884321B0A9BB2DAB207F59E735A7107F59E73FF229A7107F59E730022DA710423A7F814
:4009C0008E32002387F88D32BAE1B9E107F59E735B78342B23D197F88632012B40F0B081B7F88A32032B40F0AB8197F875323F2B08D997F875325BB2002B03DB1023A7F806
:400A0000883203E04FF49073A7F88832B7F8883207F11002104600211A4601F0ACF997F88632012B40F08A80B7F88A32022B40F28580B7F8883207F11002D118B7F88A3257
:400A4000033B07F59E720732084611461A4601F089F9B7F88822B7F88A3213449BB2033BA7F8883297F875323F2B0AD997F875325BB2002B05DB00F099FC1023A7F88A3298
:400A800003E04FF49073A7F88A32B7F88822B7F88A329A424BD107F59E739B791B029AB207F59E735B791343A7F8883297F875323F2B27D897F875329BB21B029AB2B7F8A2
:400AC00088321344A7F87232714B1B681B681B0AA7F882326E4B1B681B68DBB2002B04D0B7F882320133A7F88232B7F87222B7F882329A4206D20A2387F88D320023A7F8AC
:400B000088321DE197F87502B7F8881207F11002B7F88A3200F0A0FB0346002B01D00A2300E0002387F88D3200F0D6FC02E0032387F88D320023A7F8883201E100E197F825
:400B40008632012B03D10023A7F8883203E1F7E097F88632012B25D1B7F88822B7F88A321344B3F5967F19D8002387F88D32B7F8883207F11002D118B7F88A3207F59E7220
:400B80000432084611461A4601F0ECF8B7F88822B7F88A321344A7F8883203E0032387F88D32CDE0CCE0B7F88A32002B1CD107F10803384A92E8030083E80300012387F87B
:400BC00086320823A7F88E32B7F88E3207F59E72111D07F10802084611461A4601F0C2F8002387F88D32ABE0AAE097F88632012B40F09580B7F88A32032B40F0908007F555
:400C00009E739B791B029AB207F59E735B791343A7F8703297F875323F2B13D997F875325BB2002B0EDBB7F870321B01C7F86C321948D7F86C121022FFF77CFC034687F8EB
:400C4000813212E097F875321A02B7F8703213441B02C7F86C320020D7F86C124FF48072FFF768FC034687F8813297F875323F2B29D897F8753203F510331A02B7F8703265
:400C800013445B01C7F86C320023A7F87E3216E01081FF1F7421000000800040B7F87E22D7F86C3213441B78DAB297F88132134487F88132B7F87E320133A7F87E32B7F82A
:400CC0007E321F2BEAD997F87532032B19D1B7F87032FF2B15D10520002100F097F80346DBB297F88122D31A87F881320620002100F08CF80346DBB297F88122D31A87F86D
:400D0000813297F881325B42DAB207F59E731A71002387F88D320123A7F88E3210E00FE00020FFF7A7FC0346002B02D1114B80221A7000F08DFB03E0052387F88D3200BF32
:400D400097F88D1207F59E72B7F88E32084611461A4600F011F8FB1D1B78002B3FF41EAD97F88632012B3FF419AD07F52477BD4680BD00BFFA46004080B584B000AF3960C5
:400D800013460246FA71BB803B6801221A703B680133FA791A703B680233BA88D2B21A703B680333BA88120A92B2D2B21A70BB8804339BB238681946FFF79AFB0346FB8101
:400DC000BB8804333A681344FA89D2B21A70BB8805333A681344FA89120A92B2D2B21A70BB8806333A68134417221A70BB8807339AB23B1D386811461A46962300F0F2F847
:400E0000034618461037BD4680BD00BF80B586B000AF02460B46FA71BB710223FB740023FB60FB79013B092B00F2928001A252F823F000BF5D0E0000770E0000910E000033
:400E4000A70E0000C10E0000DB0E00000B0F0000F50E0000210F0000370F0000BA7913461B069B1A1B0203F57F3303F570737B610123FB7472E0BA7913461B069B1A1B022E
:400E800003F57F3303F2C1337B610423FB7465E0BA7913461B069B1A1B0203F57F3303F2C5337B615AE0BA7913461B069B1A1B0203F57F3303F2C9337B610423FB744DE003
:400EC000BA7913461B069B1A1B0203F57F3303F574737B610123FB7440E0BA7913461B069B1A1B0203F57F3303F2D1337B610123FB7433E0BA7913461B069B1A1B0203F540
:400F00007F3303F2D6337B6128E0BA7913461B069B1A1B0203F57F3303F2D2337B611DE0BA7913461B069B1A1B0203F57F3303F575737B6112E0BA7913461B069B1A1B02CB
:400F400003F57F3303F576737B610423FB7405E0002000F071FA00237B6100BFFB7C012B03D17B691B78DBB2FB60FB7C022B0BD17B691B78DBB2FB607B6901331B78DBB269
:400F80001B02FA681343FB60FB7C042B1BD17B691B78DBB2FB607B6901331B78DBB21B02FA681343FB607B6902331B78DBB21B04FA681343FB607B6903331B78DBB21B06E2
:400FC000FA681343FB60FB6818461837BD4680BD80B500AF00F0A0FC00F0A0FD00F0F6FD80BD00BF80B586B000AFF8607A600A467A817B720023FB8200F090FD09E0FB8AA3
:40100000FA6813441B78184600F0C6FDFB8A0133FB82FA8A7B899A42F1D37B687A891A80002318461837BD4680BD00BF90B589B000AFF8607A600A467A817B720523BB61CB
:401040000023FB831AE000F021FD0346002B0FD000F01CFD0346FB82192000F009FA00F015FD0346FA8A9A42F2D30023BB610DE0012000F0FDF9FB8B0133FB83F98B7A7A26
:4010800013469B0013445B009942DCDB7B6800221A800023BB8336E000F0F8FC0346BB827B681A88BB8A13449AB27B681A807B681B887A899A421ED90023FB830CE0BB8B5F
:4010C000FA68D41800F098FC03462370BB8B0133BB83FB8B0133FB83FA8BBB8A9A42EED3BB8B013BFA6813441B78172B0BD0052000F0BEF907E07B681A88BB8AD31A9AB24A
:401100007B681A8004E000F0C1FC0346002BC3D1BB6918462437BD4690BD00BF000000000230800800F0058000BF013800467FF4FCAF7047EFF3108072B6704780F310880F
:40114000704700BFAFF3008080B582B000AF00F039FA4FF0FF337B6000F05EFB0346002B24D1012000F026FB0346072B1BD11348022100F049FA0346022B0DD100237B6004
:4011800002E0012000F096F90D4B1B78DBB203F00203002BF5D006E0094B1B78DBB203F00203002BE3D000F06BFB01E004237B607B6818460837BD4680BD00BF5481FF1F72
:4011C0002247004080B582B000AF00F0FBF900F023FB0346002B23D100F07AFB78607B68072B1AD102E0012000F064F9104B1B78DBB203F00203002BF5D00D4B1B78DBB26E
:4012000003F00203002B08D0094B1B78DBB29B08DBB2002B01D100237B6000F031FB01E004237B607B6818460837BD4680BD00BF2247004080B582B000AFFFF7C3FF786047
:401240007B68002B02D1FFF77FFF78607B6818460837BD4680BD00BF80B586B000AFBA600246FA730A46BA81FB8000237B61FB7B3F2B04D8FB7B042B01D901237B61FB7B23
:401280005BB2002B01DA01237B61FB7B3F2B04D9FB7B412B01D901237B61FB7B3F2B06D8BB89B3F5807F0CD901237B6109E0BB89802B01D901237B61FB88102B01D00123AF
:4012C0007B61BB68002B01D101237B617B69002B62D100F0A1FA0346002B5BD1F97BBA89FB8808461146BA6800F0BAF978617B69072B4CD102E0012000F0DCF8294B1B7807
:40130000DBB203F00203002BF5D0264B1B78DBB203F00203002B09D0224B1B78DBB29B08DBB2002B02D100237B6102E04FF0FF337B617B69002B2AD11B4B1A781A4B5B7888
:40134000F87BB98900F0F2F978617B69072B1ED102E0012000F0AEF8124B1B78DBB203F00203002BF5D00F4B1B78DBB203F00203002B09D00B4B1B78DBB29B08DBB2002BBA
:4013800002D100237B6102E04FF0FF337B6100F077FA01E004237B617B6918461837BD4680BD00BF224700405481FF1F80B582B000AFFFF7BFFE0346FB71194B184A1278ED
:4013C000D2B242F00802D2B21A70164B154A1278D2B242F00802D2B21A70134BC8221A70124B124A1278D2B242F01002D2B21A700F4B0F4A1278D2B242F01002D2B21A7009
:4014000000BF0C4B1B78DBB203F02003002BF8D0FB791846FFF792FE0837BD4680BD00BFA0430040B043004001470040AC430040BC4300400047004080B483B000AF0346A5
:40144000FB7101BE0C37BD465DF8047B704700BF80B400AF054B054A1278D2B242F00102D2B21A70BD465DF8047B7047F646004080B582B000AF786008E00C4B1B681846C6
:40148000FFF74EFE7B68A3F500437B607B68B3F5004FF2D8064B1B687A6802FB03F31846FFF73EFE0837BD4680BD00BF2081FF1F1881FF1F80B582B000AF0346FB80FB8863
:4014C000044A127802FB03F31846FFF729FE0837BD4680BD1C81FF1F80B582B000AFFFF729FE0346FB7100BF00BF00BF00BF00BF00BF00BF00BF00BF00BF00BF00BF00BFD1
:4015000000BF00BF00BF094B084A128892B242F0040292B21A80054B1B88BFF36F8FFB791846FFF70BFE0837BD4680BD0048004080B584B000AF03463960FB710F4B1B6816
:40154000FB60FB791F2B02D90020FFF775FFFB7903F01F0310339B00FA6813441B68BB60FB7903F01F0310339B00FA6813443A681A60BB6818461037BD4680BD08ED00E016
:4015800080B582B000AF02460B46FA71BB71BB79072B02D90020FFF74FFFFB791F2B02D90020FFF749FFFB7903F01F0303F1604303F56443BA795201D2B21A700837BD46B4
:4015C00080BD00BF80B582B000AFFFF7B3FD0346FB710B4B0A4A1278D2B242F00802D2B21A70084B074A1278D2B242F00802D2B21A70FB791846FFF7A1FD0837BD4680BD9B
:40160000A0430040B043004080B584B000AF78600B46FB700023FB7314E002E00120FFF749FF0D4B1B78DBB203F00103002BF5D0FB7B7A681344094A1278D2B21A70FB7B73
:401640000133FB73FA7BFB789A42E6D3FB7B18461037BD4680BD00BF224700402047004080B489B000AFBA600246FA730A46BA81FB800723FB612B4B1B78DBB203F00203DC
:40168000002B45D0284BB6221A70274BD5221A70254B02221A70234B1B78DBB203F00203002B32D1204BFA7B1A7000237B8308E01D4B7A8BB9680A4412781A707B8B0133B3
:4016C0007B837A8BFB889A42F2D3FB88B3F5807F20D1FB7B3F2B1DD8FB7B03F510331A02BB8913445B017B6100237B8309E00E4B798B7A690A441278D2B21A707B8B0133C9
:401700007B837B8B1F2BF2D904E00923FB6101E00423FB61FB6918462437BD465DF8047B704700BF224700402047004080B485B000AFF871B980BA71FB700723FB601B4BCB
:401740001B78DBB203F00203002B26D0184BB6221A70174BD8221A70154B05221A70134B1B78DBB203F00203002B13D1104BFA791A700F4BBA88120A92B2D2B21A700C4B36
:40178000BA88D2B21A700A4BBA791A70084BFA781A7004E00923FB6001E00423FB60FB6818461437BD465DF8047B7047224700402047004080B485B000AF0346FB710723C9
:4017C000FB60134B1B78DBB203F00203002B16D0104BB6221A700F4BE1221A700D4B0E221A700B4B1B78DBB203F00203002B03D1084BFA791A7004E00923FB6001E0042321
:40180000FB60FB6818461437BD465DF8047B7047224700402047004080B582B000AF04237B60FFF787FC0346FB70124B1B78002B16D1104B01221A7000237B600E4B1B683A
:4018400003F00103002B0BD00B4B0B4A126822F001021A6000BF00BF00BF084B01221A60FB781846FFF76AFC7B6818460837BD4680BD00BF4481FF1F040008404881FF1FC8
:4018800080B582B000AFFFF755FC0346FB710D4B00221A700C4B1B68012B0BD10B4B0B4A126842F001021A6000BF00BF00BF064B00221A60FB791846FFF740FC0837BD46EC
:4018C00080BD00BF4481FF1F4881FF1F0400084080B483B000AF07237B600D4B1B78DBB203F00203002B09D00A4BB6221A70094BE0221A70074B0D221A7001E004237B60C2
:401900007B6818460C37BD465DF8047B704700BF224700402047004080B500AF054B1B78002B04D100F008F8024B01221A7000F02FF880BD4C81FF1F80B500AF00200D493C
:40194000FFF7F6FD00200721FFF71AFE0A4B00221A700A4B72221A70094B20221A70094B06221A70084B47221A70084B00221A7080BD00BF0D1C00004D81FF1F8C64004008
:401980008A6400402E6400403E6400408B64004080B582B000AFFFF7CDFB0346FB71124B114A1278D2B242F02002D2B21A700F4B0E4A1278D2B242F01002D2B21A700C4BFC
:4019C00001221A600B4B0B4A1278D2B242F01002D2B21A7000F086F9FB791846FFF7AEFB0837BD4680BD00BF9C6400409A64004000E100E09B64004080B483B000AF1C4B26
:401A000001221A601B4B1B78BB711B4B1B787B711A4B1B78DBB2002B03D1BA797B799A4219D0BB79164AD35CFB71BB790133BB71BB795BB2002B01DA0023BB710D4BBA79AB
:401A40001A700E4B1B78DBB2002B03D00B4B00221A7003E002E00B4B1B78FB710A4B01221A60FB7918460C37BD465DF8047B704780E100E04E81FF1F4F81FF1F5081FF1FA9
:401A80005881FF1F4F64004000E100E080B483B000AF1D4B01221A601C4B1B78DAB21C4B1B78DBB29A420AD11A4B1B78DBB2002B02D08023FB711DE00023FB711AE0134B27
:401AC0001B78DAB2124B1B78DBB29A4208D2104B1B78DAB20D4B1B78DBB2D31AFB7109E00B4B1B78DAB2094B1B78DBB2D31ADBB2803BFB71084B01221A60FB7918460C37D1
:401B0000BD465DF8047B704780E100E04E81FF1F4F81FF1F5081FF1F00E100E080B582B000AFFFF707FB0346FB71144B134A1278D2B242F00102D2B21A70104B0F4A12783D
:401B4000D2B222F00102D2B21A70FB791846FFF7F5FA0B4B01221A600A4B00221A700A4B00221A70094B00221A70094B00221A70084B01221A600837BD4680BD9F64004060
:401B800080E100E04E81FF1F4F81FF1F5081FF1F5181FF1F00E100E080B483B000AF0346FB7100BF074B1B78DBB203F00403002BF8D1054BFA791A700C37BD465DF8047B18
:401BC000704700BF6B6400404B64004080B582B000AFFFF7AFFA0346FB710B4B0A4A1278D2B242F00102D2B21A70074B064A1278D2B222F00102D2B21A70FB791846FFF771
:401C00009DFA0837BD4680BD9B64004080B483B000AF0023FB712B4B1B78BB71BB797B71BB7903F01E03002B0BD0BB7903F01E03DAB2254B1B78DBB21343DBB2DAB2224BC7
:401C40001A70BB7903F02003002B31D01F4B1B787B711F4B1B78DBB21E4A7979D1540123FB71FB79002B23D01B4B1B78DBB2002B02D01A4B01221A70154B1B78DBB2013307
:401C8000DAB2134B1A70124B1B78DBB2DBB25BB2002B02DA0E4B00221A700D4B1B78DAB20F4B1B78DBB29A4202D10B4B01221A70BB7903F02003002BADD10C37BD465DF85C
:401CC000047B70476A6400404D81FF1F4F6400404F81FF1F5881FF1F5081FF1F5181FF1F4E81FF1F80B400AF094B094A1278D2B242F00102D2B21A70064B064A1278D2B286
:401D000042F00102D2B21A70BD465DF8047B7047A2430040B243004070B50E4B0E4D0024ED1AAD101E46AC4204D056F8242090470134F8E700F022FA084D094B0024ED1A34
:401D4000AD101E46AC4204D056F8242090470134F8E770BD8821000088210000902100008821000010B50023934203D0CC5CC4540133F9E710BD02440346934202D003F848
:401D8000011BFAE77047000032000000D021000000000000005100406000C05100401000F0510040100000000140001000140140000800400140000A004C01400002005051
:401DC000014020000252004003640040010501404B0A0140420B01403A0C0140430D01405D0E01402F0F014002400140014101400342014004440140034501400246014072
:401E00000350014001510140310134028A388B0F8C72E60102030308051A07040B050C0C0E1110101103120C130C181C1A021C101D031F14201421202C092E102F18301F93
:401E4000311C3303352039083B023F1454185604580459045B045F018002850A860287048A028B058F08900296029D039F0CA001A503A704AD03AF04B002B10FB401BB02F4
:401E8000BE11C053C104C5E0C6CBC80EC9FFCAFFCBFFCEF0CF44D00CD401D804D904DA04DB04DF01E6C0EA40EB02008001020428074009010B060D020E100F2010811180F0
:401EC000150119021E882080210622102340250126022740280129022F2231023342374038283A303B063D803E203F04450246104D014E02548057305A025D015E986080A7
:401F00006150808082109028920293029508974099509E20A140A501C079C23BC419CA59CC19CE77D0C0D210D6F1D80DE4040104050209020D04110215011D0121012704B9
:401F400029082D0133023501370C39803F105602571159045B045F01800F830485C08603880489188C018D44900391E7920C93189402958098039BE39D10A00FA11CA3E14C
:401F8000A40CA51CA7E2A80CA908AA03AC08ADFFB00FB1C0B31FB738BA82BB88D804D904DF010160039009080A400B041219130119811A401BC0228923012540261027109F
:401FC000284029A42E602FA0308031093310344035043688370939423A103B043D023E143F4058805A405E206C206E146F097484752076138D048F409028914293069508B6
:40200000974199509C809D209E029F18A108A320A424A545A748B420B540C00FC20EC40FCAFFCCDFCEFFD620040C05010603070E1001120E1544173119671A031E08200146
:402040002206252227D129672E0C31803360340F350737183A203F404003454049FF4A074BFF4C404D204EF04F055008580459045A045F01604061A8624063208106830166
:40208000850688028B018C028D079204950796049D019E029F06A104A602A902AA01AE01B002B107B404B601B802BE50C042C103C205C401C6E0C70CC818C9FFCAFFCBFFB5
:4020C000CC62CDA0CEF0CF41D00CD804D904DA04DF01E640E702E910EA30EB10ED10EE10EF120320070609200B420E800F2111821608174818081B201D501E802189230460
:402100002602274028202B082D202E0230203108348037083B043C083D203F8141044480459447164B024E025010512056085710C0C4C2BBC4E9CAA6CC56CEF2D0F2D210E6
:402140003240CC10968082409680E68005025910C004D4019D10B502EA0281109D1000010C010E01000300000100020101000100000000006930122E001E0101F8B500BF9B
:40218000F8BC08BC9E467047610000003D010000F8B500BFF8BC08BC9E4670473D000000B02100000881FF1F20000000B000000000000000881D00008C1D000000366E0176
:4021C000C05D0000180000000000E02E000000000000000000000000000000000000000000000000000000000000000000000000000000000000000000000000000000009C
:402200000080002011220000651901006519010008B50FF0A9FB00BF10B5054C237833B9044B13B10448AFF300800123237010BD2883FF1F0000000060340100084B10B596
:402240001BB108480849AFF300800848036803B910BD074B002BFBD0BDE81040184700BF00000000603401002C83FF1F0881FF1F0000000008B510F077FC0E4B1B78012BDF
:4022800013D10D4B1978062907D80131C9B219700120143108F060FD08BD0022064B1A700120142108F058FD08BD034A13780133137008BD7A83FF1F9685FF1F08B510F0C3
:4022C0000DFD0E4B1B78012B13D10D4B1978062907D80131C9B219700220143108F03CFD08BD0022064B1A700220142108F034FD08BD034A13780133137008BD4B85FF1FCA
:402300002585FF1F10B562B60FF062FD0FF016FF0FF098FF0FF04EFD0FF06EFE10F034FA10F020FB0FF076FE10F03CFA10F028FB0FF0F6FE10F0A6FF052011F00BF8002441
:40234000984B1C702046202108F040F9964B1C6006E0964AD15C964AD1540133924A1360924B1A78904B1B689A42F2D220200F2108F02CF900228C4B1A6007E08B4AD15CE8
:402380008B4A1A4491770133874A1360874B1A78854B1B689A42F1D24020202108F016F90022814B1A6008E0804AD15C804A1A4482F8431001337C4A13607C4B1A787A4BA5
:4023C0001B689A42F0D28020202108F0FFF80022754B1A6008E0754AD15C754A1A4482F861100133704A1360704B1A786E4B1B689A42F0D2A020202108F0E8F800226A4B7C
:402400001A6008E0694AD15C694A1A4482F87F100133654A1360654B1A78634B1B689A42F0D22F200C2108F0D1F800225E4B1A6008E05E4AD15C5E4A1A4482F82F100133A7
:40244000594A1360594B1A78574B1B689A42F0D26020092108F0BAF8544B1878431EDBB2082B14D80022504B1A6008E001334F4AD15C4F4A1A4482F8D7104B4A13604A4BAF
:402480001B68072BF2D94A4B83F8D7000EE00122454B1A6006E0464A1A4482F8D7300133414A1360404B1B68082BF4D940F26A400A2108F08BF800223B4B1A6006E03B4AF6
:4024C000D15C3C4AD1540133374A1360374B1A78354B1B689A42F2D240F275400A2108F075F80022304B1A6006E0304AD15C324AD15401332C4A13602C4B1A782A4B1B684B
:402500009A42F2D24FF490600A2108F05FF80022254B1A6006E0254AD15C284AD1540133214A1360214B1A781F4B1B689A42F2D240F28B400A2108F049F800221A4B1A602A
:4025400006E01A4AD15C1E4AD1540133164A1360164B1A78144B1B689A42F2D240F28D40022108F033F800220F4B1A6006E00F4AD15C144AD15401330B4A13600B4B1A78CD
:40258000094B1B689A42F2D240F29F20052108F01DF8064B1878042823D10122024B1A6019E000BF8F86FF1F8C83FF1F5485FF1F3487FF1F2885FF1F8083FF1FD488FF1F47
:4025C0003885FF1FD088FF1FA44AD15CA44AD1540133A44A1360A34B1B68042BF4D9A04B187040F2C110022107F0F0FF9B4B1B78012B03D1994B5A789B4B1A7040F2C31037
:40260000022107F0E3FF954B1B78012B03D1934B5A78964B1A7040F2C510022107F0D6FF8E4B1B78012B03D18C4B5A78904B1A7040F2EE30022107F0C9FF884B1B78012BDC
:4026400003D1864B5A788B4B1A704FF4DD70022107F0BCFF814B1B78052B05D17F4B5B7803F00F03844A137040F27A20022107F0ADFF7A4B1B78012B03D1784B5A787F4B7D
:402680001A704FF41F70022107F0A0FF734B1B78012B03D1714B5A78794B1A7040F27E20022107F093FF6D4B1B78012B03D16B4B5A78744B1A704FF47C70022107F086FF72
:4026C000664B1B78012B03D1644B5A786E4B1A7040F25A20062107F079FF604B1B78052B0AD15E4AD37803F00F0368490B70537903F00F03664A137040F2C710022107F0FC
:4027000065FF564B1B78012B06D1624A1370534B5B7803F00F0353704FF4DE70022107F055FF4E4B1B78012B05D14C4B5B7803F00F03594A137040F26320022107F046FFC0
:40274000464B1B78012B05D1444B5B7803F00F03524A537040F26520022107F037FF3F4B1B78012B05D13D4B5B7803F00F034C4A53704FF42770032107F028FF374B1B785D
:40278000022B06D1354B9B7843EA0323454A138002E00122434B1A804FF47670022107F015FF2E4B1B78012B04D12C4B5A783E4B5A7007E03C4901230B704B704FF47670F1
:4027C00007F0C6FE40F2D230062107F0FFFE234B187805280FD10022224B1A6006E01F4AD15C324AD15401331E4A13601D4B1B689842F4D20CE02D4905230B7030234B70F1
:402800008B70CB700B714B7140F2D23007F0A0FE264A537903F00F00137903F00F014FF47A7303FB01F342F2107101FB0033D07800F00F00642101FB0031937803F00F0385
:4028400003EB83035B000B44527802F00F021344174A13600222174B1A7010BD5485FF1F0C81FF1F8C83FF1F1E88FF1FDF88FF1F4C85FF1F7C83FF1F3385FF1F2485FF1FA4
:402880008E86FF1F9386FF1F2C87FF1F7D83FF1F1F88FF1F4885FF1FA285FF1F9086FF1F3087FF1F2285FF1F7883FF1F9C85FF1F3088FF1F2785FF1F10B5002413E00BF02E
:4028C000ABF802280FD1642010F044FD074B18780BF0E2F8062806D1044B18790BF0DCF8062800D10224002CE9D010BD7083FF1F08B501280ED1552108F02EFA64220D4BDA
:402900001A7001220C4B1A700C4810F0A1F910F071F908BD0220552108F01EFA6422084B1A700122074B1A70074810F04BFA10F01BFA08BD7A83FF1F9685FF1F7522000089
:402940004B85FF1F2585FF1FBD22000038B5984B1B78642B03F22587DFE813F074008000231FA100000188013B02D9020C034B0337048904F6047805AB058606A407F3076F
:402980009A083C09B709210B740CF80D130FE612211313147D14FE14CD1568162C17F319561ADE1A2B1B5A1BE21BD31CD61D611EC11E231F231F231F231F231F231F231FCA
:4029C000231F231F231F231F231F231F231F231F231F231F231F231F231F231F231F231F231F231F231F231F231F231F231F231F231F231F231F231F231F231F231F231F97
:402A0000231F231F231F231F231F231F231F231F231F231F231F231F231F231F231F231F231F231F6500634B1B78012B43F2B98600245F4B1C7010F019F910F07BF85D4B25
:402A40001C7038BD5C4810F003F910F0D3F80022584B1A700122564B1A7038BD0FF0AEFE082843F09E860FF0D3FE10F0FFF810F061F8524B1B78022B04D10120632108F0B7
:402A80006BF903E00120452108F066F90322484B1A70642010F05EFC0FF0BAFE38BD0FF08DFE082843F07D86454B1B78DBB2AA2B4ED1434B9B79DBB2C32B49D1404BDB797B
:402AC000DBB23C2B44D13E4BDB78DBB2592B2DD002D8452B1FD03BE05C2B02D07E2B30D036E00022374BDA70344B1B78012B06D10120052108F030F904222D4B1A702F4B6A
:402B00001B78022B24D10120492108F025F91922274B1A701CE00120252108F01DF90022294B1A700F22224B1A7011E00120252108F012F90022244B1A7027221C4B1A709F
:402B400006E00120002108F007F90022184B1A70642010F0FFFB0FF05BFE38BD0FF02EFE082843F01E86164B1B78DBB2AA2B77D1134B9B79DBB2C32B72D1114BDB79DBB21E
:402B80003C2B6DD10F4AD37823F00303D3700C4BDB78DBB23B2B4BD004D80F2B16D0102B28D05DE0432B3BD07E2B52D058E000BF7A83FF1F9685FF1F752200002785FF1F5C
:402BC000D08AFF1F9486FF1F4D85FF1F0120062108F0C2F80022A74B1A700120242108F0F1F8A54AD37843F00203D3700522A34B1A7035E001200D2108F0AEF800229D4BF6
:402C00001A709F4B1A700120472108F0DBF89A4AD37843F00103D3700522984B1A701FE00120072108F098F80622944B1A7017E0944B1B78022B04D10120632108F08CF818
:402C400003E00120452108F087F803228B4B1A7006E00120002108F07FF80022874B1A70642010F077FB0FF0D3FD38BD0FF0A6FD082843F09685844B1B78DBB2AA2B40F00B
:402C8000A280814B9B79DBB2C32B40F09C807E4BDB79DBB23C2B40F09680764B1B787B4A1278013A93423EDC774AD278D2B2092A0FD80133DAB26F4B1A707348C1786E4BCD
:402CC00013443031D972C17830310120C9B208F079F86D4BDB78DBB20A2B0BD1654B1A780132D2B21A70644B13443021D972012008F068F8644BDB78DBB2512B13D15D4B54
:402D00001B7883B15E4A12786AB90133DAB2594B1A70594B13442C21D972012008F052F80122574B1A70584BDB78DBB20B2B1BD1504B1A783AB90120052108F00DF8042215
:402D40004E4B1A7010E00120202108F03BF8494B1B78494A1A44D27A2C2A02D10021484A1170013B434A1370474BDB78DBB20C2B29D1404B1B786BB1454B1B7853B9012079
:402D8000072107F0E9FF3B4B1A783B4BDA7206223A4B1A70374B1B78ABB13D4B1B78012B11D10120702107F0D7FF334B1B7B39490B7040F28D4007F0CBFB0022344B1A70DA
:402DC0000E222E4B1A70642010F0C4FA0FF020FD38BD642010F0BEFA0FF0F0FC082820D1294B1B78DBB2AA2B15D1274B9B79DBB2C32B10D1244BDB79DBB23C2B0BD1224BD4
:402E0000DB78DBB27E2B06D10120002107F0A4FF00221A4B1A70642010F09CFA0FF0F8FC38BD1D4B18780AF037FE072843F0B984322010F08FFA184B18780AF041FE174B14
:402E40001870322010F086FA0B4BDB7813F0030328D0114A1078114A1178114A0EF0D2F800BB0120002107F077FF0022034B1A7038BD00BF4D85FF1F9486FF1F7A83FF1F09
:402E80007B83FF1F2785FF1FD08AFF1F3385FF1F8F86FF1FD088FF1F7083FF1F3588FF1F9F86FF1F012010F0FFF99F4B18780AF007FE9E4B1870002803F073849C4B1B7877
:402EC00003F00F03834211D09A4B1B7803F00F0398420BD0984B1B7803F00F03984205D0964B1B7803F00F03984202D101200EF009FD8D4B187840F010000EF0F1FF0120C9
:402F0000082107F029FF07228D4B1A7038BD322010F020FA844B18780AF0BEFD0A2813D00B2803D0062843F03C841BE0642010F011FA7D4B18780AF037FE012843F03184EB
:402F400008227F4B1A7038BD642010F003FA764B18780AF029FE012843F023840822784B1A7038BD0120002107F0F6FE0022744B1A7038BD734B1B78012B02D0022B10D093
:402F800038BD01200B2107F0E7FE6F480FF060FE0FF030FE00226D4B1A700A22684B1A7038BD6B4BDB7813F0040F0FD101200B2107F0D2FE64480FF04BFE0FF01BFE0022AF
:402FC000624B1A700A225E4B1A7038BD01200B2107F0C2FE00245E4B83F883405A480FF037FE0FF007FE594B1C700A22544B1A7038BD0FF0E3FB082840F0D280554B1B7821
:40300000DBB2AA2B40F0C780524B9B79DBB2C32B40F0C1804F4BDB79DBB23C2B40F0BB8000224A4B1A704C4B1B78062B65D8494AD278D2B2092A10D80133DAB2464B1A709D
:403040004448C178424B1344303183F86510C17830310120C9B207F0B5FE3E4BDB78DBB20A2B0CD13C4B1A780132D2B21A70384B1344302183F86510012007F0A3FE354B4D
:40308000DB78DBB26A2B0CD1334B1A780132D2B21A702F4B13442D2183F86510012007F091FE2C4BDB78DBB21A2B26D9294BDB78DBB2422B21D80022284B1A6019E0254AEB
:4030C000D278D2B226491944097A8A420DD122490A780132D2B20A704133D9B21C4B134483F86510012007F06DFE1C4A1368013313601A4B1B68192BE1D9164BDB78DBB20C
:403100000B2B37D1144B1A7862BB01200B2107F023FE0F4B002283F8652083F883200A22074B1A7026E000BF7083FF1F3588FF1F1E88FF1FDF88FF1F4C85FF1F7C83FF1F36
:403140007A83FF1F2785FF1F752200009685FF1F9486FF1FD08AFF1F4D85FF1F8C83FF1F0C81FF1F0120202107F02CFEB04A1378013B1370AF4BDB78DBB20C2B0BD1AC4B77
:403180001A7842B1AC4B83F86520012283F883200D22AA4B1A70642010F0DCF80FF038FBA74B1B781D2B43F2FC8201200B2107F0D3FDA14A002382F8653082F88330A04A52
:4031C00013700A229D4B1A7038BD0FF0F7FA08283DD1984B1B78DBB2AA2B33D1954B9B79DBB2C32B2ED1934BDB79DBB23C2B29D1904BDB78DBB2382B15D0392B22D10022A5
:403200008B4B1A708C4BDB7813F0040F07D101200A2107F0A1FD0922884B1A7012E00D22864B1A700EE001200C2107F095FD0122834B1A7083480FF00BFD0FF0DBFC6422C3
:403240007E4B1A70642010F085F80FF0E1FA7C4B1B781D2B43F2A58201200C2107F07CFD0122774B1A706422744B1A7038BD0120014607F001FB052840D90A2010F06AF804
:403280000120212107F0F8FA052837D9012007F00BFA012832D133200FF0D8FA0120332107F044FA50B30022674B1A600AE0012007F0A6FA604B1C4484F82900624A1368A4
:4032C00001331360604B1C68072CF0D90120132107F042FD584CE37843F00403E3704FF4FA7010F037F801200E2107F035FD00234F4A137023710C22504B1A700FF05EFA13
:40330000082843F04E824B4B1B78DBB2AA2B15D1484B9B79DBB2C32B10D1464BDB79DBB23C2B0BD1434BDB78DBB23B2B06D10120632107F011FD0322404B1A70642010F01E
:4033400009F80FF065FA38BD0FF038FA082843F02882384B1B78DBB2AA2B62D1354B9B79DBB2C32B5DD1334BDB79DBB23C2B58D12F4B1B78052B25D82E4AD278D2B2092A31
:403380000FD80133DAB22A4B1A702A48C1782A4B134430311971C17830310120C9B207F011FD244BDB78DBB20A2B0BD1204B1A780132D2B21A70204B13443021197101206E
:4033C00007F000FD1B4BDB78DBB20B2B12D1184B1A783AB90120052107F0BEFC0422174B1A7007E00120202107F0ECFC104A1378013B13700F4BDB78DBB20C2B11D10C4B12
:403400001B7873B10C4B5B79302B0AD00120052107F0A2FC064B1A78074B1A710422074B1A7064200FF096FF0FF0F2F938BD00BF4D85FF1FD08AFF1F9486FF1F7A83FF1F66
:403440009685FF1F752200005085FF1FBA4B5878BA4B19780022BA4B1B7808F025FFB94B1B78012B02D0B84B5B787BB901200C2107F072FC0122B54B1A70B5480FF0E8FB6A
:403480000FF0B8FB6422B34B1A7038BD0120312107F062FC0022B04B1A700122AB4B1A70AB480FF0D5FB0FF0A5FB2122A94B1A7038BD0FF083F9082843F07381A74B1B78D7
:4034C000DBB2AA2B40F0CA80A44B9B79DBB2C32B40F0C480A14BDB79DBB23C2B40F0BE809E4BDB78DBB2652B00F084800AD85A2B50D002D8582B12D0B0E05B2B64D05D2B77
:4035000024D0ABE07E2B00F0A28003D8702B00F09680A3E0932B75D0962B60D09EE000228D4B1A7001203E2107F016FC06F050FF012801D107F0C6FC06F07AFF012801D170
:4035400007F01EFD1022834B1A7087E001205C2107F002FC01200021D62240F2AD1307F0F5FD01200021892240F2B31307F0EEFD01200146242240F2A71307F0E7FD012043
:40358000014678224FF47A7307F0E0FD1322714B1A7063E00120602107F0DEFB012007F053FD012007F092FE012008F021F8012008F0A4F8012007F00FFF012007F092FF30
:4035C0001222644B1A7049E001202F2107F0C4FB0022614B1A7011225E4B1A703EE001205F2107F0B9FB00225B4B1A701B22594B1A7033E001204D2107F0AEFB1422554B11
:403600001A702BE001206E2107F0A6FB0120014607F032F905280ED90A200FF09BFE012008F074F90120212107F026F9052802D9012008F0E9F82322464B1A700EE00120DD
:40364000892107F089FB2922424B1A7006E00120002107F081FB00223E4B1A7064200FF079FE0FF0D5F838BD0FF0A8F8082843F098803A4B1B78DBB2AA2B40F00D81374B64
:403680009B79DBB2C32B40F00781344BDB79DBB23C2B40F00181304B1A78072A26D82F4BDB78DBB2092B0ED82C4BD9782C4B1344303183F88E1001202A2107F083FB264A39
:4036C000137801331370254BDB78DBB20A2B0DD1214C2278224B1344302183F88E1001202A2107F06FFB2378013323701B4BDB78DBB20B2B0ED1184B1B781BB90120FFF785
:40370000F7F807E0013BDAB2134B1A700120202107F058FB114BDB78DBB20C2B40F0BC800D4B1A78002A00F0A88000230D490B600D490B6030E000BF9086FF1F3588FF1FC9
:403740007083FF1F2785FF1F7883FF1F9685FF1F752200007A83FF1F4D85FF1FD08AFF1F9486FF1FA485FF1F8C83FF1F581CAB49014491F8D710AA4C234493F88E30303B28
:40378000994204D1A7490B6801330B6002E00021A44B1960A44B18601046A34B1B689A42E4D89E4B93F8D7209E4B1B689A421AD10120262107F0D0FA4FF4FA700FF0CAFDEC
:4037C0009A4B1B78012B04D101205D2107F0C4FA05E0022B03D10120702107F0BDFA0E22934B1A7058E000238E4A13608E4A136010E0904A1A4492F82410894A1A4492F88C
:403800008E20914203D187490A6801320A600133854A1360844B1B689842EAD8814B1B68082B1AD10120262107F096FA4FF4FA700FF090FD7D4B1B78012B04D101205D2160
:4038400007F08AFA05E0022B03D10120702107F083FA0E22764B1A701EE00120272107F07BFA0122744B1A7074480FF0F1F90FF0C1F964226E4B1A700EE00120272107F092
:403880006BFA01226C4B1A706C480FF0E1F90FF0B1F96422664B1A7064200FF05BFD0EF0B7FF38BD0EF08AFF082842F07A87644B1B78DBB2AA2B3ED1614B9B79DBB2C32BEC
:4038C00039D15F4BDB79DBB23C2B34D15C4BDB78DBB23F2B04D07E2B26D03E2B2BD116E00120402107F038FA0023564A1370564A137001206121062207F064FA01206D2125
:40390000072207F05FFA1522494B1A7013E001203F2107F021FA00234A4A13704A4A13701622434B1A7006E00120702107F014FA0E223F4B1A7064200FF00CFD0EF068FFC0
:4039400038BD0EF03BFF082842F02B873C4B1B78DBB2AA2B40F09680394B9B79DBB2C32B40F09080364BDB79DBB23C2B40F08A80344B1A78072A27D8314BDB78DBB2092B1D
:4039800010D82F48C178264B1344303183F88E10C17830310120C9B207F014FA294A137801331370264BDB78DBB20A2B0CD1254C22781B4B1344302183F88E10012007F090
:4039C00001FA2378013323701D4BDB78DBB20B2B0ED11C4B1B781BB90120FEF789FF07E0013BDAB2174B1A700120202107F0EAF9134BDB78DBB20C2B44D1124B1B78052B20
:403A000040D90120392107F0A7F90E4B1978034B83F8D7100022044B1A6023E03487FF1F9486FF1FA485FF1F8C83FF1F2785FF1F7A83FF1F0C81FF1F9685FF1F75220000EE
:403A4000D08AFF1F4D85FF1F7B83FF1F581CB24A134493F88E20B14B0344303A83F8D720AF4B1860AE4B1B689942EFD86020AD4906F06EFD18B90120552107F06DF9002255
:403A8000A94B1A7064200FF065FC0EF0C1FE38BD0EF094FE082842F08486A44B1B78DBB2AA2B40F09180A14B9B79DBB2C32B40F08B809E4BDB79DBB23C2B40F085809B4BCF
:403AC000DB78DBB27A2B5FD006D8772B3ED0782B4CD0762B78D10AE0822B17D002D87E2B6BD071E0832B21D0952B5AD06CE00120302107F031F900238D4A13708D4A13700F
:403B00008D4A13701822884B1A705DE00120792107F022F90222864B1A700023854A1370854A13701822804B1A704DE001207A2107F012F903227E4B1A7000237D4A1370E5
:403B40007D4A13701822784B1A703DE00120782107F002F90122764B1A700023754A1370754A13701822704B1A702DE00120652107F0F2F801226E4B1A7000226D4B1A70B8
:403B80001722694B1A701FE00120322107F0E4F80023674A1370674A13701722624B1A7012E0664B1B78022B0ED10120662107F0D3F820225C4B1A7006E00120702107F09F
:403BC000CBF80E22584B1A7064200FF0C3FB0EF01FFE38BD0EF0F2FD082842F0E285534B1B78DBB2AA2B6AD1504B9B79DBB2C32B65D14E4BDB79DBB23C2B60D14B4BDB7875
:403C00007E3B042B5BD8DFE803F05303172B3F000120062107F0A0F80022464B1A70484B19783E4B83F8A3100120242107F0CAF81A223D4B1A7042E00120062107F08CF897
:403C400000223C4B1A703F4B1978344B83F8A3100120242107F0B6F81A22334B1A702EE00120062107F078F80022324B1A70364B19782A4B83F8A3100120242107F0A2F868
:403C80001A22294B1A701AE00120062107F064F80022284B1A702D4B1978204B83F8A3100120242107F08EF81A221F4B1A7006E00120702107F050F80E221B4B1A706420E6
:403CC0000FF048FB0EF0A4FD38BD0EF077FD082842F06785154B1B78DBB2AA2B40F05981124B9B79DBB2C32B40F053810F4BDB79DBB23C2B40F04D810C4BDB78DBB2632B7A
:403D00004DD002D8622B23D043E1642B00F0E7807E2B00F037813CE19486FF1F3487FF1F8C83FF1F0B88FF1F7A83FF1FD08AFF1F9785FF1F4D85FF1F3488FF1F2785FF1F44
:403D4000DF88FF1F4C85FF1F1E88FF1F7C83FF1F0120392107F000F864200FF0FBFAB64B187809F099FE062815D1B34B187909F093FE06280BD101204A2106F0EDFF4FF403
:403D80002F700FF0E7FA0022AC4B1A7001E10120FEF7AEFDFDE00120FEF7AAFDF9E00120372106F0D9FFA64B5B78012B45D10022A44B1A600AE0A44A1344012093F82C10DC
:403DC00006F04EFC9F4A1368013313609D4B1B68102BF0D901200A2106F042FC01200A2106F03EFC01200A2106F03AFC01200A2106F036FC0022934B1A600AE0924A13448A
:403E0000022093F82C1006F02BFC8E4A1368013313608C4B1B68102BF0D902200A2106F01FFC02200A2106F01BFC02200A2106F017FC02200A2106F013FC814B5B78022BF8
:403E400045D100227F4B1A600AE07F4A1344032093F82C1006F004FC7A4A136801331360784B1B68102BF0D903200A2106F0F8FB03200A2106F0F4FB03200A2106F0F0FB13
:403E800003200A2106F0ECFB00226E4B1A600AE06D4A1344042093F82C1006F0E1FB694A136801331360674B1B68102BF0D904200A2106F0D5FB04200A2106F0D1FB042075
:403EC0000A2106F0CDFB04200A2106F0C9FB01206B2106F041FF2522584B1A7059E0012006F0E2FB012849D133200EF0AFFC0120332106F01BFC00284BD00022534B1A600E
:403F00000AE0012006F07CFC514B1C4484F829004E4A1368013313604C4B1C68072CF0D900234C4A1370494A13600CE0494C484A1344207893F8291006F0FEFE2070434A7F
:403F4000136801331360414B1B68062BEED9404B93F830203F4B1B789A420BD101204B2106F0FAFE4FF47A700FF0F4F90022334B1A700EE00120FEF7BBFC0AE00120FEF764
:403F8000B7FC06E00120002106F0E6FE00222B4B1A7064200FF0DEF90EF03AFC38BD0EF00DFC082842F0FD832B4B1B78DBB2AA2B40F04281284B9B79DBB2C32B40F03C8171
:403FC000254BDB79DBB23C2B40F03681234B1B78042B00F2CA80DFE813F0050045006B00C800A3001C4AD278D2B2012A0FD80133DAB21A4B1A70184CE17830310120C9B21D
:4040000006F0E0FEE3781B01154A82F8A130124BDB78DBB20A2B40F0A880104B1A780132D2B21A7000210E4B83F8A1100120302106F0C8FE99E000BF7083FF1F7A83FF1F5B
:404040008C86FF1F8C83FF1F0C81FF1F5085FF1F9486FF1F3485FF1FD08AFF1F4D85FF1F3487FF1F9F4AD278D2B2092A11D80133DAB29D4B1A709B4CE17830310120C9B2B3
:4040800006F0A0FEE178994A92F8A1300B4382F8A130944BDB78DBB20A2B66D1924B1A780132D2B21A700120302106F08BFE5CE08C4AD278D2B2052A17D80133DAB28A4CDC
:4040C000227001203A2106F07DFE22780132D2B22270844CE17830310120C9B206F072FEE3781B01814A82F8A0307E4BDB78DBB20A2B3AD17C4C22780132D2B22270012091
:404100003A2106F05FFE22780132D2B222700120302106F057FE0022744B83F8A02024E0704AD278D2B2092A11D80133DAB26E4B1A706C4CE17830310120C9B206F042FE26
:40414000E1786A4A92F8A0300B4382F8A030654BDB78DBB20A2B08D1634B1A780132D2B21A700120302106F02DFE5E4BDB78DBB2402B17D15E4B1B783BB901205C4B187032
:404180007021062206F01EFE07E00022584B1A7001206121062206F015FE01206D21072206F010FE4F4BDB78DBB20B2B1BD14E4B1A7882B90E224F4B1A704F4B1B78012B9F
:4041C00004D101205D2106F0C7FD0CE00120702106F0C2FD07E00120202106F0F3FD424A1378013B13703F4BDB78DBB20C2B23D13D4B1B78052B1FD13D4B1B7843F0020217
:404200003A4991F8A13043EA421381F8A13006F03FF9012810D10E22364B1A70364B1B78012B03D15D2106F097FD05E0022B03D10120702106F090FD64200FF08BF80EF027
:40424000E7FA38BD0EF0BAFA082842F0AA82254B1B78DBB2AA2B40F07381224B9B79DBB2C32B40F06D811F4BDB79DBB23C2B40F067811D4B1A78072A00F22381DFE812F031
:4042800008003E00650021019E00C4002101FC00144BDB78DBB2032B0FD8124CE17830310120C9B206F08EFD0F4A137801331370E3781B010D4A82F89D300A4BDB78DBB243
:4042C0000A2B40F0FE800022084B83F89D20064C01203021227806F075FD237801332370EFE000BFD08AFF1F4D85FF1F3487FF1F7B83FF1F7A83FF1F2785FF1FAC4BDB78EC
:40430000DBB2092B11D8AA4CE17830310120C9B206F058FDE178A74A92F89D300B4382F89D30A54A137801331370A14BDB78DBB20A2B40F0C680A04C01203021227806F070
:4043400041FD237801332370BBE0994BDB78DBB2012B17D801202F2106F034FD964C22780132D2B22270924DE97830310120C9B206F028FDEB781B018E4A82F89E30237834
:40438000013323708A4BDB78DBB20A2B40F09980894C01202F21227806F014FD22780132D2B222700120302106F00CFD0022814B83F89E2023780133237082E07C4BDB78C3
:4043C000DBB2092B11D87A4CE17830310120C9B206F0F8FCE178774A92F89E300B4382F89E30754A137801331370714BDB78DBB20A2B66D1704C01203021227806F0E2FC60
:404400002378013323705CE0694BDB78DBB2092B17D801202F2106F0D5FC674C22780132D2B22270624DE97830310120C9B206F0C9FCEB781B015F4A82F89F302378013351
:4044400023705B4BDB78DBB20A2B3AD15A4C01202F21227806F0B6FC22780132D2B222700120302106F0AEFC0022524B83F89F2023780133237024E04D4BDB78DBB2092B8A
:4044800011D84B4CE17830310120C9B206F09AFCE178484A92F89F300B4382F89F30464A137801331370424BDB78DBB20A2B08D1414C01203021227806F084FC2378013394
:4044C00023703B4BDB78DBB20B2B1BD13A4B1B7883B90E22394B1A70394B1B78012B04D101205D2106F038FC0CE00120702106F033FC07E0013BDAB22F4B1A700120202156
:4045000006F060FC2A4BDB78DBB20C2B18D12A4B1B78082B14D105F0E9FF012810D10E22264B1A70264B1B78012B03D15D2106F013FC05E0022B03D10120702106F00CFC65
:4045400064200EF007FF0EF063F938BD0EF036F9082842F02681164B1B78DBB2AA2B40F00A81134B9B79DBB2C32B40F00481104BDB79DBB23C2B40F0FE800F4B1B780C2B06
:404580006ED80B4AD278D2B2092A2BD80133DAB2094B1A700B4B1B7813B1012B14D01AE0034BD978034B13443031997713E000BFD08AFF1F3487FF1F4D85FF1F7A83FF1F44
:4045C0002785FF1F9785FF1FA04BD978A04B1344303183F82F109D4BD97830310120C9B207F018FA994BDB78DBB20A2B18D1994B1A780132D2B21A70974B1B7813B1012BE1
:4046000005D009E0924B13443021997704E0904B1344302183F82F100120302107F0FAF98A4BDB78DBB2512B1AD18A4B1B78BBB10133DAB2874B1A70874B1B7813B1012B49
:4046400005D009E0824B13442E21997704E0804B13442E2183F82F1001202E2107F0DAF97A4BDB78DBB20B2B49D17A4B1A78002A3DD10E22794B1A70794B1B78012B04D156
:4046800001205D2106F068FB03E00120702106F063FB2F200C2105F099FF0022714B1A6008E0714AD15C6A4A1A4482F82F1001336C4A13606C4B1A786A4B1B689A42F0D2A1
:4046C00020200F2105F082FF0022664B1A6007E0654AD15C5E4A1A4491770133614A1360614B1A785F4B1B689A42F1D207E00120202107F08FF9574A1378013B1370534B09
:40470000DB78DBB20C2B36D10E22544B1A70544B1B78012B04D101205D2106F01DFB03E00120702106F018FB4B4B1B7813B1012B11D020E0474B1B78454901F81E3F202041
:4047400005F006FFB8B90120552106F005FB6422424B1A700FE03F4B1B783D4901F82F3F2F2005F0F5FE30B90120552106F0F4FA64223A4B1A7064200EF0ECFD0EF048F8D2
:4047800038BD0EF01BF8082842F00B802F4B1B78DBB2AA2B40F0C2832C4B9B79DBB2C32B40F0BC83294BDB79DBB23C2B40F0B683284B1B78172B00F24D82244AD278D2B243
:4047C000092A7AD80133DAB2224B1A70224B1B78042B6BD8DFE803F0031427526400234B1978012904D1194BDB7830332048835400295BD1154BDB78303315498B5455E029
:404800001A4B1978012904D1104BDB7830331948835400294AD10D4BD9780D4B1344303183F8431042E0114B1978012904D1074BDB78303310488354002937D1034BD9785A
:40484000034B1344303183F861102FE0D08AFF1F3487FF1F4D85FF1F9785FF1F7A83FF1F2785FF1F8C83FF1F5485FF1F3488FF1F2885FF1F8083FF1FD488FF1F994B1978FE
:40488000012904D1984BDB7830339848835469B9954BD978964B1344303183F87F1005E0914BD978934B13443031D9728E4BD97830310120C9B207F0ADF88B4BDB78DBB247
:4048C0000A2B2BD18C4B1A780132D2B21A708B4B1B78042B1ED8DFE803F003070D1319003021834B995415E0814B1344302183F843100FE07E4B1344302183F8611009E0DA
:404900007B4B1344302183F87F1003E0794B13443021D9720120302107F07CF8724BDB78DBB2672B2BD1744B1A780132D2B21A70724B1B78042B1ED8DFE803F003070D1372
:40494000190023216A4B995415E0694B1344232183F843100FE0664B1344232183F8611009E0634B1344232183F87F1003E0614B13442321D9720120232107F04BF85A4B0A
:40498000DB78DBB26A2B2BD15B4B1A780132D2B21A705A4B1B78042B1ED8DFE803F003070D1319002D21524B995415E0504B13442D2183F843100FE04D4B13442D2183F831
:4049C000611009E04A4B13442D2183F87F1003E0484B13442D21D97201202D2107F01AF8414BDB78DBB2662B2BD1434B1A780132D2B21A70414B1B78042B1ED8DFE803F0E3
:404A000003070D1319004021394B995415E0384B1344402183F843100FE0354B1344402183F8611009E0324B1344402183F87F1003E0304B13444021D9720120402106F04F
:404A4000E9FF294BDB78DBB2692B2BD12A4B1A780132D2B21A70294B1B78042B1ED8DFE803F003070D1319002E21214B995415E01F4B13442E2183F843100FE01C4B1344D1
:404A80002E2183F8611009E0194B13442E2183F87F1003E0174B13442E21D97201202E2106F0B8FF104BDB78DBB2682B5CD1124B1A780132D2B21A70104B1B78042B4FD8FC
:404AC000DFE803F003202E3C4A00064B1B78012B02D120200A498854002B41D12021044B99543DE03488FF1FD08AFF1F3885FF1F3487FF1F9486FF1F4D85FF1F9785FF1F94
:404B00002885FF1F9A4B1B78012B02D12020994988542BBB984B1344202183F843101FE0934B1B78012B02D1202094498854BBB9914B1344202183F8611011E08C4B1B786F
:404B4000012B02D120208E4988544BB98A4B1344202183F87F1003E08A4B13442021D9720120202106F056FF874BDB78DBB21A2B70D9854BDB78DBB2422B6BD80022834BF0
:404B80001A6063E0804AD278D2B281491944097A8A4257D17F490A780132D2B20A707E490978042948D8DFE801F00312223242006F490878012803D103F14101774CA1546C
:404BC000002839D103F141016B48815434E068490878012803D103F14101664CA15458BB6549114403F1410081F8430024E060490878012803D103F14101604CA154D8B90D
:404C00005D49114403F1410081F8610014E058490878012803D103F14101594CA15458B95549114403F1410081F87F0004E05549114403F14100C87203F141010120C9B23F
:404C400006F0E8FE514A1368013313604F4B1B68192B97D94C4BDB78DBB20B2B76D14D4B1A78002A6AD10E224D4B1A704D4B1B78012B04D101205D2106F06EF803E00120CA
:404C8000702106F069F84020202105F09FFC00223E4B1A6008E0444AD15C374A1A4482F843100133394A13603F4B1A78374B1B689A42F0D28020202105F088FC0022334B84
:404CC0001A6008E0384AD15C2B4A1A4482F8611001332E4A1360344B1A782C4B1B689A42F0D2A020202105F071FC0022274B1A6008E02D4AD15C204A1A4482F87F1001331B
:404D0000224A1360284B1A78204B1B689A42F0D20020202105F05AFC00221C4B1A6006E0214AD15C144AD1540133184A13601E4B1A78164B1B689A42F2D207E00120202182
:404D400006F068FE134A1378013B13700E4BDB78DBB20C2B40F0E2800E22114B1A70114B1B78012B22D101205D2105F0F5FF21E03488FF1F8083FF1F3487FF1FD488FF1F33
:404D80003885FF1F9486FF1FD08AFF1F8C83FF1F0C81FF1F4D85FF1F9785FF1F2885FF1F7A83FF1F2785FF1F5485FF1F0120702105F0D2FFA74B1B78042B00F2AF80DFE8AB
:404DC00003F0032C547CA200A34B1B78012B0DD1A24CA34B1B78237040F26A40A14905F0B7FB40F26A40214605F0B2FB9A4B1B78002B40F093809C49994B1B780B70002063
:404E000005F0A6FB002840F089800120552105F0A3FF6422954B1A7080E08F4B1B78012B0DD1934C8E4B1B78237040F275408D4905F08EFB40F27540214605F089FB864BD5
:404E40001B78002B6AD1864B1B78874901F8433F402005F07DFB002860D10120552105F07BFF6422814B1A7058E07B4B1B78012B0DD1804C7A4B1B7823704FF4906079493B
:404E800005F066FB4FF49060214605F061FB724B1B78002B42D1724B1B78734901F8613F802005F055FB002838D10120552105F053FF64226D4B1A7030E0674B1B78012B41
:404EC0000DD16D4C664B1B78237040F28B40654905F03EFB40F28B40214605F039FB5E4B1B78DBB95E4B1B785F4901F87F3FA02005F02EFB90B90120552105F02DFF64220E
:404F00005A4B1A700AE0564B1A785C4BDA720120392105F021FF2422544B1A7064200EF019FA0DF075FC38BD0DF048FC082841F03884534B1B78DBB2AA2B2AD1504B9B79A0
:404F4000DBB2C32B25D14E4BDB79DBB23C2B20D14B4BDB78DBB25F2B04D07E2B12D05E2B17D107E00422414B1A700120052105F0F3FE0EE001201D2105F0EEFE0B223B4BED
:404F80001A7006E00120002105F0E6FE0022374B1A7046200EF0DEF90DF03AFC38BD0DF00DFC082841F0FD83354B1B78DBB2AA2B40F0E180324B9B79DBB2C32B40F0DB8051
:404FC0002F4BDB79DBB23C2B40F0D580244B1B78062B25D82A4AD278D2B2092A0FD80133DAB21F4B1A702648C178244B13443031D972C17830310120C9B205F0E3FE204B9A
:40500000DB78DBB20A2B0BD1154B1A780132D2B21A701A4B13443021D972012005F0D2FE174BDB78DBB20B2B3FD10D4B1A785ABB0E220E4B1A70134B1B78012B04D1012061
:405040005D2105F089FE30E00120702105F084FE2BE000BF9785FF1F3488FF1F2885FF1F4D85FF1F4C81FF1F3487FF1F7A83FF1F8083FF1FD488FF1F3885FF1F9486FF1FD7
:40508000D08AFF1F2785FF1F0120202105F09AFEA44B1B78A44A1A44D27A2C2A02D10021A24A1170013B9F4A1370A14BDB78DBB20C2B60D19B4B1B78032B5CD906229D4B26
:4050C0001A700120392105F047FE964B1A78964BDA72994B18780CF0D7F9002848D0974B93F8A320964B1B789A4204D140F2B310944905F02DFA914B93F8A320924B1B7874
:405100009A4204D140F2A7108E4905F021FA8B4B93F8A3208D4B1B789A4204D140F2AD10884905F015FA854B93F8A320884B1B789A4204D14FF47A70824905F009FA0120A4
:405140003C2105F009FE4FF4FA700EF003F90E22784B1A707F4B1B78012B04D101205D2105F0FAFD07E00120702105F0F5FD02E00120FDF7BDFB64200EF0ECF80DF048FBF4
:4051800038BD0DF01BFB082841F00B83684B1B78DBB2AA2B59D1664B9B79DBB2C32B54D1634BDB79DBB23C2B4FD1614BDB787E3B042B4AD8DFE803F0420327323A000120EF
:4051C000582105F0C9FD01200021732240F2C31306F01EF801200021CF2240F2C51306F017F801200146292240F2C11306F010F8012001467B2240F2EE3306F009F81C220A
:405200004C4B1A7021E00120062105F0A5FD0022444B1A701D22474B1A7016E001206D2105F09AFD1E22434B1A700EE001208A2105F092FD2A223F4B1A7006E00120002188
:4052400005F08AFD00223B4B1A7064200EF082F80DF0DEFA38BD0DF0B1FA082841F0A182334B1B78DBB2AA2B56D1314B9B79DBB2C32B51D12E4BDB79DBB23C2B4CD12C4B72
:40528000DB787E3B042B47D8DFE803F03F03122130000120062105F05FFD0022214B1A700122264B83F8A3201F22224B1A7033E00120062105F050FD00221A4B1A700222A8
:4052C0001E4B83F8A3201F221A4B1A7024E00120062105F041FD0022124B1A700322174B83F8A3201F22134B1A7015E00120062105F032FD00220B4B1A7004220F4B83F803
:40530000A3201F220B4B1A7006E00120002105F023FD0022074B1A7064200EF01BF80DF077FA38BD4D85FF1F9486FF1F7B83FF1FD08AFF1F7A83FF1F7083FF1F3487FF1F95
:40534000DF88FF1F9F86FF1F1E88FF1F4C85FF1F7C83FF1F2785FF1F0DF030FA082841F02082A64B1B78DBB2AA2B40F0BE80A34B9B79DBB2C32B40F0B880A04BDB79DBB29C
:405380003C2B40F0B2809E4B1B78042B36D89B4AD278D2B2092A0FD80133DAB2984B1A709648C178974B13443031D972C17830310120C9B205F006FD904BDB78DBB20A2B57
:4053C0000BD18F4B1A780132D2B21A708D4B13443021D972012005F0F5FC884BDB78DBB2512B0BD1864B1A780132D2B21A70854B13442C21D972012005F0E4FC7F4BDB78D1
:40540000DBB20B2B24D17E4B1A7882B90E227E4B1A707E4B1B78012B04D101205D2105F09BFC15E00120702105F096FC10E00120202105F0C7FC724B1B78724A1A44D27A25
:405440002C2A02D10021724A1170013B6C4A13706A4BDB78DBB20C2B47D1694B1B78052B43D1684B1B7B353BDBB2022B3DD80120392105F071FC624B1B78624901F80B3F2E
:405480004FF4DD7005F064F8012805D15D4B1B7B03F00F035F4A137040F25A205E4905F057F8012821D1574A937B03F00F035B490B70137C03F00F03594A13703C2105F00C
:4054C0004BFC4FF4FA700DF045FF0E224E4B1A704E4B1B78012B04D101205D2105F03CFC03E00120702105F037FC64200DF032FF0DF08EF938BD0DF061F9082841F05181B9
:405500003E4B1B78DBB2AA2B71D13C4B9B79DBB2C32B6CD1394BDB79DBB23C2B67D1374BDB78DBB28F2B04D0902B2ED07E2B5ED156E03C49002381F82D3081F82E304FF405
:40554000DE702D3105F004F801281AD10022364B1A703C2105F000FC4FF4FA700DF0FAFE2A4B1B78012B04D101205D2105F0F4FB03E00120702105F0EFFB0E22224B1A7036
:4055800035E00120FDF7B4F931E02649012381F82D3081F82E304FF4DE702D3104F0D8FF012819D1204B18703C2105F0D5FB4FF4FA700DF0CFFE154B1B78012B04D1012055
:4055C0005D2105F0C9FB03E00120702105F0C4FB0E220D4B1A700AE00220FDF789F906E00120702105F0B8FB0E22074B1A7064200DF0B0FE0DF00CF938BD00BFD08AFF1FEE
:405600004D85FF1F9486FF1F7A83FF1F2785FF1F7B83FF1F3385FF1F9F86FF1F7D83FF1F1F88FF1F3487FF1FA285FF1F0DF0C6F8082841F0B680A64B1B78DBB2AA2B40F0BF
:40564000B380A34B9B79DBB2C32B40F0AD80A04BDB79DBB23C2B40F0A7809E4B1B782BBB9B4AD278D2B2092A0FD80133DAB2994B1A709748C178984B13443031D972C178FF
:4056800030310120C9B205F09DFB914BDB78DBB20A2B0BD18F4B1A780132D2B21A708E4B13443021D972012005F08CFB884BDB78DBB20B2B1BD1874B1A783AB9012000210F
:4056C00005F04AFB0022854B1A7010E00120202105F078FB7F4B1B787F4A1A44D27A2C2A02D100217E4A1170013B7A4A1370784BDB78DBB20C2B57D1764B1B78012B53D1AE
:405700000120392105F028FB724B1A78724BDA72744B93F8A330012B08D16F490A7B724B1A7040F2C1100B3104F012FF6D4B93F8A330022B08D168490A7B6C4B1A7040F2CF
:40574000C3100B3104F004FF664B93F8A330032B08D161490A7B664B1A7040F2C5100B3104F0F6FE5F4B93F8A330042B08D15A490A7B604B1A7040F2EE300B3104F0E8FEA5
:405780004FF4FA700DF0E6FD0E22544B1A705A4B1B78012B04D101205D2105F0DDFA03E00120702105F0D8FA64200DF0D3FD0DF02FF838BD0DF002F8082840F0F287444B3A
:4057C0001B78DBB2AA2B40F0B682414B9B79DBB2C32B40F0B0823E4BDB79DBB23C2B40F0AA823B4BDB787E3B252B00F2A482DFE813F08102A202A202A202A202A202260001
:4058000017014A003A018700AB00F300CF00A202A202A202A202A202A202A202A2025F02A202A2023C025E018201A202A202A202A202A202A202A601CA01EE0119022F4922
:4058400001230B7000234B7040F2C71004F080FE012840F070823C2105F07EFA4FF4FA700DF078FD0E221D4B1A70234B1B78012B04D101205D2105F06FFA5CE201207021EB
:4058800005F06AFA57E21D4901230B700B234B7040F2C71004F05CFE012840F04C823C2105F05AFA4FF4FA700DF054FD0E220B4B1A70114B1B78012B04D101205D2105F0B5
:4058C0004BFA38E20120702105F046FA33E200BFD08AFF1F4D85FF1F9486FF1F7A83FF1F7B83FF1F3487FF1F1E88FF1FDF88FF1F4C85FF1F7C83FF1F2785FF1F4885FF1FD4
:40590000C54901230B7004234B7040F2C71004F01FFE012840F00F823C2105F01DFA4FF4FA700DF017FD0E22BC4B1A70BC4B1B78012B04D101205D2105F00EFAFBE10120B8
:40594000702105F009FAF6E1B34901230B700C234B7040F2C71004F0FBFD012840F0EB813C2105F0F9F94FF4FA700DF0F3FC0E22AA4B1A70AA4B1B78012B04D101205D21D4
:4059800005F0EAF9D7E10120702105F0E5F9D2E1A14901230B7009234B7040F2C71004F0D7FD012840F0C7813C2105F0D5F94FF4FA700DF0CFFC0E22984B1A70984B1B7895
:4059C000012B04D101205D2105F0C6F9B3E10120702105F0C1F9AEE18F4901230B7008234B7040F2C71004F0B3FD012840F0A3813C2105F0B1F94FF4FA700DF0ABFC0E22CB
:405A0000864B1A70864B1B78012B04D101205D2105F0A2F98FE10120702105F09DF98AE17D4901230B704B7040F2C71004F090FD012840F080813C2105F08EF94FF4FA70D5
:405A40000DF088FC0E22754B1A70754B1B78012B04D101205D2105F07FF96CE10120702105F07AF967E16C4901230B7006234B7040F2C71004F06CFD012840F05C813C21EB
:405A800005F06AF94FF4FA700DF064FC0E22634B1A70634B1B78012B04D101205D2105F05BF948E10120702105F056F943E15A4901230B700E234B7040F2C71004F048FD3F
:405AC000012840F038813C2105F046F94FF4FA700DF040FC0E22514B1A70514B1B78012B04D101205D2105F037F924E10120702105F032F91FE1484901230B700D234B70E1
:405B000040F2C71004F024FD012840F014813C2105F022F94FF4FA700DF01CFC0E223F4B1A703F4B1B78012B04D101205D2105F013F900E10120702105F00EF9FBE036493F
:405B400001230B7003234B7040F2C71004F000FD012840F0F0803C2105F0FEF84FF4FA700DF0F8FB0E222D4B1A702D4B1B78012B04D101205D2105F0EFF8DCE001207021D6
:405B800005F0EAF8D7E0244901230B7005234B7040F2C71004F0DCFC012840F0CC803C2105F0DAF84FF4FA700DF0D4FB0E221B4B1A701B4B1B78012B04D101205D2105F0A3
:405BC000CBF8B8E00120702105F0C6F8B3E0124901230B7007234B7040F2C71004F0B8FC012840F0A8803C2105F0B6F84FF4FA700DF0B0FB0E22094B1A70094B1B78012BCB
:405C000004D101205D2105F0A7F894E00120702105F0A2F88FE000BF4885FF1F7A83FF1F2785FF1FB04901230B700A234B7040F2C71004F08DFC01287DD13C2105F08CF856
:405C40004FF4FA700DF086FB0E22A84B1A70A84B1B78012B04D101205D2105F07DF86AE00120702105F078F865E09F4901230B7002234B7040F2C71004F06AFC01285AD1F8
:405C80003C2105F069F84FF4FA700DF063FB0E22964B1A70964B1B78012B04D101205D2105F05AF847E00120702105F055F842E08D4900230B704B7040F2C71004F048FC86
:405CC000012838D13C2105F047F84FF4FA700DF041FB0E22854B1A70854B1B78012B04D101205D2105F038F825E00120702105F033F820E07C4900230B704B7040F2C7104B
:405D000004F026FC01280FD10E22784B1A70784B1B78012B03D15D2105F01EF80BE00120702105F019F806E00120002105F014F800226E4B1A7064200DF00CFB0CF068FDCE
:405D400038BD0CF03BFD08284ED16A4B1B78DBB2AA2B44D1674B9B79DBB2C32B3FD1654BDB79DBB23C2B3AD1624BDB78DBB20A2B29D10122604B1A6010E0604B5878604B7E
:405D8000197801225F4B1B7806F08EFA4FF4FA700DF0E0FA584A1368013313605A4B1B7803F00F03544A12689342E6D201200C2104F0D2FF55480CF04BFF0CF01BFF6422B8
:405DC0004A4B1A700BE001200C2104F0C5FF6422464B1A704D480CF03BFF0CF00BFF64200DF0B8FA0CF014FD494B1B78132B40F2D88401200C2104F0AFFF64223B4B1A7068
:405E00000022434B1A7038BD0CF0D8FC082840F0C884384B1B78DBB2AA2B5ED1354B9B79DBB2C32B59D1334BDB79DBB23C2B54D1304BDB78DBB2392B0FD002D8382B05D03C
:405E40004BE07E2B42D0942B35D046E00021274B1970012004F080FF3FE0244D00232B7001203B2104F078FF244C607807F028FA60780A2104F0F4FB60780A2104F0F0FB43
:405E800060780A2104F0ECFB60781D2104F0E8FB6078562104F0E4FB6078312104F0E0FB64232B7001221A4B1A7018480CF0D0FE0CF0A0FE11E001202F2104F04DFF002240
:405EC000144B1A702822094B1A7006E00120002104F042FF0022054B1A7064200DF03AFA0CF096FC38BD00BF4885FF1F7A83FF1F2785FF1FD08AFF1F5085FF1F9086FF1FD2
:405F00003588FF1F7083FF1FD088FF1F752200009685FF1F4D85FF1F0CF050FC082840F04084B24B1B78DBB2AA2B3CD1AF4B9B79DBB2C32B37D1AD4BDB79DBB23C2B32D100
:405F4000AA4BDB78DBB2912B04D0922B13D07E2B29D121E001200A2104F0FEFE0122A44B1A700422A34B1A700022A34B1A701822A24B1A7017E001206F2104F0EDFE2122ED
:405F80009B4B1A7004229B4B1A7000229A4B1A7018229A4B1A7006E00120002104F0DCFE0022964B1A7064200DF0D4F90CF030FC38BD934B012013F80B1F8D4A127804F02A
:405FC00035FD012820D16E2104F0C6FE23228B4B1A700120014604F04FFC052810D90A200DF0B8F9012005F091FC0120212104F043FC052840F2D583012005F005FC38BDD8
:406000000120FCF775FC38BD0120FCF771FC38BD0CF0D4FB082840F0C483744B1B78DBB2AA2B77D1714B9B79DBB2C32B72D16F4BDB79DBB23C2B6DD16C4BDB78DBB2392B39
:4060400004D07E2B47D0382B64D13CE06D4B5A78012A07D16C4901230B704B706B490B7002234B70022A08D1674B01221A7003215970664B1A7004225A7040F26320624951
:4060800004F066FA012845D140F265205F4904F05FFA01283ED1682104F05EFE4FF4FA700DF058F90E22554B1A70594B1B78012B04D101205D2104F04FFE2BE00120702166
:4060C00004F04AFE26E026224C4B1A700120672104F042FE1EE04F4B5B78012B03D100224C4B5A7002E001224A4B5A7040F2DA30484904F02DFA01203C2104F02DFE4FF4FE
:40610000FA700DF027F90120002104F025FE00223A4B1A7064200DF01DF90CF079FB38BD0CF04CFB082840F03C83304B1B78DBB2AA2B40F0E0802D4B9B79DBB2C32B40F0B9
:40614000DA802A4BDB79DBB23C2B40F0D480274BDB78DBB28C2B0AD003D87E2B00F0C480C9E08D2B58D08E2B00F09180C3E0254B5B78012B07D1244A0120107002215170C9
:40618000224A10705170022B07D11F4B0121197004225A701D4B19705A7040F263201A4904F0D6F9012840F0A68040F26520174904F0CEF9012840F09E806A2104F0CCFD82
:4061C0004FF4FA700DF0C6F80E220C4B1A70104B1B78012B04D101205D2104F0BDFD8AE00120702104F0B8FD85E000BFD08AFF1F9885FF1F9785FF1F4D85FF1F7A83FF1F09
:406200009486FF1F8C86FF1F9086FF1F3087FF1F2785FF1F7883FF1FAE4B5A78012A06D1AD4901230B704B70AC490B704B70022A07D1A94B0121197003225A70A74B1970B5
:406240005A7040F26320A44904F082F9012852D140F26520A14904F07BF901284BD1692104F07AFD4FF4FA700DF074F89C4B1B78012B04D101205D2104F06EFD03E0012021
:40628000702104F069FD0E22964B1A7033E092490120087000224A70904B18705A7040F2632004F055F9012825D140F265208B4904F04EF901281ED16C2104F04DFD4FF4C6
:4062C000FA700DF047F80E22864B1A70844B1B78012B04D101205D2104F03EFD0BE00120702104F039FD06E00120002104F034FD00227C4B1A7064200DF02CF80CF088FA92
:4063000038BD0CF05BFA082840F04B82764B1B78DBB2AA2B40F0D780734B9B79DBB2C32B40F0D180704BDB79DBB23C2B40F0CB806E4B1A78032A26D86B4BDB78DBB2092B21
:406340000ED8694BD9786A4B1344303183F88E1001202A2104F036FD644A137801331370614BDB78DBB20A2B0DD1604C2278604B1344302183F88E1001202A2104F022FD59
:40638000237801332370584BDB78DBB20B2B0ED1564B1B781BB90120FCF7AAFA07E0013BDAB2524B1A700120202104F00BFD4E4BDB78DBB20C2B40F086804C4B1A78002AB6
:4063C00072D000234B490B604B490B6012E0591C4A48405C464C234493F88E30984204D1444803680133036002E00020414B1860414B19601046404B1B689A42E7D83F4B92
:406400001A783C4B1B689A420FD10120262104F0A3FC4FF4FA700CF09DFF2222314B1A700120712104F098FC4DE00023314A1360314A136010E0314A1A4492F824102C4A16
:406440001A4492F88E20914203D12A490A6801320A600133284A1360274B1B689842EAD8244B1B68042B0FD10120262104F074FC4FF4FA700CF06EFF22221A4B1A7001207C
:40648000712104F069FC1EE00120272104F064FC6422144B1A700122194B1A7019480CF0D7FB0CF0A7FB0EE00120272104F054FC64220C4B1A700122114B1A7011480CF089
:4064C000C7FB0CF097FB64200CF044FF0CF0A0F938BD00BF8C86FF1F9086FF1F3087FF1F2785FF1F7A83FF1FD08AFF1F4D85FF1F9486FF1FA485FF1F8C83FF1F0C81FF1F63
:406500009685FF1F752200000CF058F9082840F04881A44B1B78DBB2AA2B7AD1A14B9B79DBB2C32B75D19F4BDB79DBB23C2B70D19D4B1A78032A27D89A4BDB78DBB2092B13
:4065400010D89848C178994B1344303183F88E10C17830310120C9B204F034FC924A1378013313708F4BDB78DBB20A2B0CD18E4C22788E4B1344302183F88E10012004F0FE
:4065800021FC237801332370864BDB78DBB20B2B0ED1854B1B781BB90120FCF7A9F907E0013BDAB2804B1A700120202104F00AFC7C4BDB78DBB20C2B2BD17B4B1B78042BE7
:4065C00027D10120392104F0C7FB0023784A1370754A127877490A7077490B6008E0591C7248034493F88E00724B5854724B1960714B1B689A42F2D840F29F206D4903F0C7
:40660000A7FF30B90120552104F0A6FB6422684B1A7064200CF09EFE0CF0FAF838BD0CF0CDF8082840F0BD805E4B1B78DBB2AA2B4FD15C4B9B79DBB2C32B4AD1594BDB7978
:40664000DBB23C2B45D1574BDB78DBB2BC2B08D002D87E2B36D03CE0BD2B12D0BE2B21D037E00120702104F077FB544901230B704B704FF47D7003F06BFF0E224C4B1A7082
:4066800027E00120702104F067FB4C4901230B7002234B704FF47D7003F05AFF0E22444B1A7016E00120062104F056FB0122444B1A7000233C4A1370424A137005223C4B4A
:4066C0001A7006E00120702104F046FB0E22384B1A7064200CF03EFE0CF09AF838BD0CF06DF808285DD12F4B1B78DBB2AA2B58D12C4B9B79DBB2C32B53D12A4BDB79DBB2F0
:406700003C2B4ED1274BDB78DBB2772B39D002D8762B05D038BD822B12D0832B20D038BD0120302104F018FB0023274A13701E4A13700122254B1A7018221D4B1A7038BDB6
:406740000120302104F008FB01231F4A13700021154A11701D4A13701822154B1A7038BD0120302104F0F8FA0222174B1A7000220D4B1A700122154B1A7018220C4B1A7008
:4067800038BD0120302104F0E7FA03220E4B1A700022054B1A7001220C4B1A701822044B1A7038BDD08AFF1F4D85FF1F9486FF1F7A83FF1F0C81FF1F8C83FF1F8C86FF1FCA
:4067C0008F86FF1F7B83FF1F9785FF1F3488FF1F38B5984B1B78642B03F2D585DFE813F074008000D31DA100000188013B02DD020D034C0337048904F6047805AB05880624
:40680000A607F5079C083509B4091F0B740CF90D140F02123D1214139113F813C8146715441605197E19ED193A1A6A1A0E1BEA1BEA1C751DD31DD31DD31DD31DD31DD31D59
:40684000D31DD31DD31DD31DD31DD31DD31DD31DD31DD31DD31DD31DD31DD31DD31DD31DD31DD31DD31DD31DD31DD31DD31DD31DD31DD31DD31DD31DD31DD31DD31DD31D18
:40688000D31DD31DD31DD31DD31DD31DD31DD31DD31DD31DD31DD31DD31DD31DD31DD31DD31DD31DD31DD31D6500634B1B78012B43F2698500245F4B1C700CF091FA0CF046
:4068C000F3F95D4B1C7038BD5C480CF07BFA0CF04BFA0022584B1A700122564B1A7038BD0CF05AF8082843F04E850CF07FF80CF077FA0CF0D9F9524B1B78022B04D1022015
:40690000632104F029FA03E00220452104F024FA64200CF01FFD0CF069F80322454B1A7038BD0CF039F8082843F02D85454B1B78DBB2AA2B4ED1434B9B79DBB2C32B49D1F5
:40694000404BDB79DBB23C2B44D13E4BDB78DBB2592B2DD002D8452B1FD03BE05C2B02D07E2B30D036E00022374BDA70344B1B78012B06D10220052104F0EEF904222D4B15
:406980001A702F4B1B78022B24D10220492104F0E3F91922274B1A701CE00220252104F0DBF90022294B1A700F22224B1A7011E00220252104F0D0F90022244B1A7027229D
:4069C0001C4B1A7006E00220002104F0C5F90022184B1A7064200CF0BDFC0CF007F838BD0BF0DAFF082843F0CE84164B1B78DBB2AA2B77D1134B9B79DBB2C32B72D1114BE0
:406A0000DB79DBB23C2B6DD10F4AD37823F00303D3700C4BDB78DBB23B2B4BD004D80F2B16D0102B28D05DE0432B3BD07E2B52D058E000BF4B85FF1F2585FF1FBD220000DC
:406A40002785FF1FE48AFF1F3888FF1F2D87FF1F0220062104F080F90022A74B1A700220242104F0AFF9A54AD37843F00203D3700522A34B1A7035E002200D2104F06CF9A7
:406A800000229D4B1A709F4B1A700220472104F099F99A4AD37843F00103D3700522984B1A701FE00220072104F056F90622944B1A7017E0944B1B78022B04D10220632153
:406AC00004F04AF903E00220452104F045F903228B4B1A7006E00220002104F03DF90022874B1A7064200CF035FC0BF07FFF38BD0BF052FF082843F04684844B1B78DBB2E5
:406B0000AA2B40F0A280814B9B79DBB2C32B40F09C807E4BDB79DBB23C2B40F09680764B1B787B4A1278013A93423EDC774AD278D2B2092A0FD80133DAB26F4B1A707348FB
:406B4000C1786E4B13443031D972C17830310220C9B204F037F96D4BDB78DBB20A2B0BD1654B1A780132D2B21A70644B13443021D972022004F026F9644BDB78DBB2512BB7
:406B800013D15D4B1B7883B15E4A12786AB90133DAB2594B1A70594B13442C21D972022004F010F90122574B1A70584BDB78DBB20B2B1BD1504B1A783AB90220052104F03D
:406BC000CBF804224E4B1A7010E00220202104F0F9F8494B1B78494A1A44D27A2C2A02D10021484A1170013B434A1370474BDB78DBB20C2B29D1474B1B786BB1464B1B783C
:406C000053B90220072104F0A7F83B4B1A783B4BDA720622414B1A70374B1B78ABB13E4B1B78012B11D10220702104F095F8334B1B7B3B490B7040F28D4003F089FC0022C8
:406C4000354B1A700E222E4B1A7064200CF082FB0BF0CCFE38BD64200CF07CFB0BF09CFE082820D1294B1B78DBB2AA2B15D1274B9B79DBB2C32B10D1244BDB79DBB23C2B8B
:406C80000BD1224BDB78DBB27E2B06D10220002104F062F800221A4B1A7064200CF05AFB0BF0A4FE38BD1F4B187906F0F5FE072843F0698332200CF04DFB1A4B187906F06E
:406CC000FFFE194B187032200CF044FB0B4BDB7813F003032CD0134A1079134A1178134A0AF090F920BB0220002104F035F80022034B1A7038BD00BF2D87FF1F3888FF1F27
:406D00004B85FF1F4E85FF1F2785FF1FE48AFF1F3385FF1F4D85FF1F8F86FF1F7A83FF1FD088FF1F7083FF1F9286FF1F4388FF1F01200CF0B9FA9D4B187906F0C1FE9C4B7F
:406D40001870002803F01F839A4B1B7803F00F03834211D0984B1B7803F00F0398420BD0964B1B7803F00F03984205D0944B1B7803F00F03984202D102200AF0C3FD8B4B7D
:406D8000187940F010000BF0ABF80220082103F0E3FF07228B4B1A7038BD32200CF0DAFA824B187906F078FE0A2813D00B2803D0062843F0E88218E064200CF0CBFA7B4BF1
:406DC000187906F0F1FE012843F0DD8208227D4B1A7038BD754B187906F0E6FE012843F0D2820822774B1A7038BD0220002103F0B3FF0022734B1A7038BD734B1B78012BE7
:406E000002D0022B10D038BD02200B2103F0A4FF6E480BF0D7FF0BF0A7FF00226C4B1A700A22684B1A7038BD6A4BDB7813F0040F0FD102200B2103F08FFF64480BF0C2FF7C
:406E40000BF092FF0022624B1A700A225D4B1A7038BD02200B2103F07FFF00245D4B83F883405A480BF0AEFF0BF07EFF584B1C700A22544B1A7038BD0BF08EFD082840F0F0
:406E8000D180554B1B78DBB2AA2B40F0C680524B9B79DBB2C32B40F0C0804F4BDB79DBB23C2B40F0BA800022494B1A704B4B1B78062B65D8484AD278D2B2092A10D8013308
:406EC000DAB2464B1A704448C178424B1344303183F86510C17830310220C9B203F072FF3D4BDB78DBB20A2B0CD13C4B1A780132D2B21A70374B1344302183F86510022046
:406F000003F060FF344BDB78DBB26A2B0CD1334B1A780132D2B21A702E4B13442D2183F86510022003F04EFF2B4BDB78DBB21A2B26D9294BDB78DBB2422B21D80022284B84
:406F40001A6019E0244AD278D2B226491944097A8A420DD121490A780132D2B20A704133D9B21C4B134483F86510022003F02AFF1B4A136801331360194B1B68192BE1D9F5
:406F8000154BDB78DBB20B2B36D1144B1A785ABB02200B2103F0E0FE0E4B002283F8652083F883200A22074B1A7025E07083FF1F9286FF1F1E88FF1FDF88FF1F4C85FF1F0A
:406FC0007C83FF1F4B85FF1F2785FF1FBD2200002585FF1F3888FF1FE48AFF1F2D87FF1F8C83FF1F0C81FF1F0220202103F0EAFEB04A1378013B1370AF4BDB78DBB20C2B6E
:407000000BD1AC4B1A7842B1AC4B83F86520012283F883200D22AA4B1A7064200CF09AF90BF0E4FCA74B1B781D2B43F2AC8102200B2103F091FEA14A002382F8653082F88E
:407040008330A04A13700A229D4B1A7038BD0BF0A3FC08283DD1984B1B78DBB2AA2B33D1954B9B79DBB2C32B2ED1934BDB79DBB23C2B29D1904BDB78DBB2382B15D0392BB4
:4070800022D100228B4B1A708C4BDB7813F0040F07D102200A2103F05FFE0922884B1A7012E00D22864B1A700EE002200C2103F053FE0122834B1A7083480BF083FE0BF064
:4070C00053FE64227E4B1A7064200CF043F90BF08DFC7C4B1B781D2B43F2558102200C2103F03AFE0122774B1A706422744B1A7038BD0220012103F0BFFB052840D90A206B
:407100000CF028F90220212103F0B6FB052837D9022003F0C9FA012832D133200BF084FC0220332103F002FB50B30022674B1A600AE0022003F064FB604B1C4484F8290056
:40714000624A136801331360604B1C68072CF0D90220132103F000FE584CE37843F00403E3704FF4FA700CF0F5F802200E2103F0F3FD00234F4A137023710C22504B1A7053
:407180000BF00AFC082843F0FE804B4B1B78DBB2AA2B15D1484B9B79DBB2C32B10D1464BDB79DBB23C2B0BD1434BDB78DBB23B2B06D10220632103F0CFFD0322404B1A707A
:4071C00064200CF0C7F80BF011FC38BD0BF0E4FB082843F0D880384B1B78DBB2AA2B62D1354B9B79DBB2C32B5DD1334BDB79DBB23C2B58D12F4B1B78052B25D82E4AD278EB
:40720000D2B2092A0FD80133DAB22A4B1A702A48C1782A4B134430311971C17830310220C9B203F0CFFD244BDB78DBB20A2B0BD1204B1A780132D2B21A70204B13443021E8
